{"abi":[{"type":"constructor","inputs":[{"name":"_lzEndpoint","type":"address","internalType":"address"},{"name":"_erc20","type":"address","internalType":"address"},{"name":"_yieldBox","type":"address","internalType":"contract IYieldBoxBase"},{"name":"_cluster","type":"address","internalType":"contract ICluster"},{"name":"_name","type":"string","internalType":"string"},{"name":"_symbol","type":"string","internalType":"string"},{"name":"_decimal","type":"uint8","internalType":"uint8"},{"name":"_hostChainID","type":"uint256","internalType":"uint256"}],"stateMutability":"nonpayable"},{"type":"receive","stateMutability":"payable"},{"type":"function","name":"DEFAULT_PAYLOAD_SIZE_LIMIT","inputs":[],"outputs":[{"name":"","type":"uint256","internalType":"uint256"}],"stateMutability":"view"},{"type":"function","name":"NO_EXTRA_GAS","inputs":[],"outputs":[{"name":"","type":"uint256","internalType":"uint256"}],"stateMutability":"view"},{"type":"function","name":"PT_SEND","inputs":[],"outputs":[{"name":"","type":"uint8","internalType":"uint8"}],"stateMutability":"view"},{"type":"function","name":"PT_SEND_AND_CALL","inputs":[],"outputs":[{"name":"","type":"uint8","internalType":"uint8"}],"stateMutability":"view"},{"type":"function","name":"SWAP_MAX_SLIPPAGE","inputs":[],"outputs":[{"name":"","type":"uint256","internalType":"uint256"}],"stateMutability":"view"},{"type":"function","name":"allowance","inputs":[{"name":"owner","type":"address","internalType":"address"},{"name":"spender","type":"address","internalType":"address"}],"outputs":[{"name":"","type":"uint256","internalType":"uint256"}],"stateMutability":"view"},{"type":"function","name":"approve","inputs":[{"name":"spender","type":"address","internalType":"address"},{"name":"amount","type":"uint256","internalType":"uint256"}],"outputs":[{"name":"","type":"bool","internalType":"bool"}],"stateMutability":"nonpayable"},{"type":"function","name":"balanceOf","inputs":[{"name":"account","type":"address","internalType":"address"}],"outputs":[{"name":"","type":"uint256","internalType":"uint256"}],"stateMutability":"view"},{"type":"function","name":"callOnOFTReceived","inputs":[{"name":"_srcChainId","type":"uint16","internalType":"uint16"},{"name":"_srcAddress","type":"bytes","internalType":"bytes"},{"name":"_nonce","type":"uint64","internalType":"uint64"},{"name":"_from","type":"bytes32","internalType":"bytes32"},{"name":"_to","type":"address","internalType":"address"},{"name":"_amount","type":"uint256","internalType":"uint256"},{"name":"_payload","type":"bytes","internalType":"bytes"},{"name":"_gasForCall","type":"uint256","internalType":"uint256"}],"outputs":[],"stateMutability":"nonpayable"},{"type":"function","name":"circulatingSupply","inputs":[],"outputs":[{"name":"","type":"uint256","internalType":"uint256"}],"stateMutability":"view"},{"type":"function","name":"cluster","inputs":[],"outputs":[{"name":"","type":"address","internalType":"contract ICluster"}],"stateMutability":"view"},{"type":"function","name":"creditedPackets","inputs":[{"name":"","type":"uint16","internalType":"uint16"},{"name":"","type":"bytes","internalType":"bytes"},{"name":"","type":"uint64","internalType":"uint64"}],"outputs":[{"name":"","type":"bool","internalType":"bool"}],"stateMutability":"view"},{"type":"function","name":"decimals","inputs":[],"outputs":[{"name":"","type":"uint8","internalType":"uint8"}],"stateMutability":"view"},{"type":"function","name":"decreaseAllowance","inputs":[{"name":"spender","type":"address","internalType":"address"},{"name":"subtractedValue","type":"uint256","internalType":"uint256"}],"outputs":[{"name":"","type":"bool","internalType":"bool"}],"stateMutability":"nonpayable"},{"type":"function","name":"erc20","inputs":[],"outputs":[{"name":"","type":"address","internalType":"address"}],"stateMutability":"view"},{"type":"function","name":"estimateSendAndCallFee","inputs":[{"name":"_dstChainId","type":"uint16","internalType":"uint16"},{"name":"_toAddress","type":"bytes32","internalType":"bytes32"},{"name":"_amount","type":"uint256","internalType":"uint256"},{"name":"_payload","type":"bytes","internalType":"bytes"},{"name":"_dstGasForCall","type":"uint64","internalType":"uint64"},{"name":"_useZro","type":"bool","internalType":"bool"},{"name":"_adapterParams","type":"bytes","internalType":"bytes"}],"outputs":[{"name":"nativeFee","type":"uint256","internalType":"uint256"},{"name":"zroFee","type":"uint256","internalType":"uint256"}],"stateMutability":"view"},{"type":"function","name":"estimateSendFee","inputs":[{"name":"_dstChainId","type":"uint16","internalType":"uint16"},{"name":"_toAddress","type":"bytes32","internalType":"bytes32"},{"name":"_amount","type":"uint256","internalType":"uint256"},{"name":"_useZro","type":"bool","internalType":"bool"},{"name":"_adapterParams","type":"bytes","internalType":"bytes"}],"outputs":[{"name":"nativeFee","type":"uint256","internalType":"uint256"},{"name":"zroFee","type":"uint256","internalType":"uint256"}],"stateMutability":"view"},{"type":"function","name":"failedMessages","inputs":[{"name":"","type":"uint16","internalType":"uint16"},{"name":"","type":"bytes","internalType":"bytes"},{"name":"","type":"uint64","internalType":"uint64"}],"outputs":[{"name":"","type":"bytes32","internalType":"bytes32"}],"stateMutability":"view"},{"type":"function","name":"forceResumeReceive","inputs":[{"name":"_srcChainId","type":"uint16","internalType":"uint16"},{"name":"_srcAddress","type":"bytes","internalType":"bytes"}],"outputs":[],"stateMutability":"nonpayable"},{"type":"function","name":"getConfig","inputs":[{"name":"_version","type":"uint16","internalType":"uint16"},{"name":"_chainId","type":"uint16","internalType":"uint16"},{"name":"","type":"address","internalType":"address"},{"name":"_configType","type":"uint256","internalType":"uint256"}],"outputs":[{"name":"","type":"bytes","internalType":"bytes"}],"stateMutability":"view"},{"type":"function","name":"getTrustedRemoteAddress","inputs":[{"name":"_remoteChainId","type":"uint16","internalType":"uint16"}],"outputs":[{"name":"","type":"bytes","internalType":"bytes"}],"stateMutability":"view"},{"type":"function","name":"hostChainID","inputs":[],"outputs":[{"name":"","type":"uint256","internalType":"uint256"}],"stateMutability":"view"},{"type":"function","name":"increaseAllowance","inputs":[{"name":"spender","type":"address","internalType":"address"},{"name":"addedValue","type":"uint256","internalType":"uint256"}],"outputs":[{"name":"","type":"bool","internalType":"bool"}],"stateMutability":"nonpayable"},{"type":"function","name":"isTrustedRemote","inputs":[{"name":"_srcChainId","type":"uint16","internalType":"uint16"},{"name":"_srcAddress","type":"bytes","internalType":"bytes"}],"outputs":[{"name":"","type":"bool","internalType":"bool"}],"stateMutability":"view"},{"type":"function","name":"lzEndpoint","inputs":[],"outputs":[{"name":"","type":"address","internalType":"contract ILayerZeroEndpoint"}],"stateMutability":"view"},{"type":"function","name":"lzReceive","inputs":[{"name":"_srcChainId","type":"uint16","internalType":"uint16"},{"name":"_srcAddress","type":"bytes","internalType":"bytes"},{"name":"_nonce","type":"uint64","internalType":"uint64"},{"name":"_payload","type":"bytes","internalType":"bytes"}],"outputs":[],"stateMutability":"nonpayable"},{"type":"function","name":"minDstGasLookup","inputs":[{"name":"","type":"uint16","internalType":"uint16"},{"name":"","type":"uint16","internalType":"uint16"}],"outputs":[{"name":"","type":"uint256","internalType":"uint256"}],"stateMutability":"view"},{"type":"function","name":"name","inputs":[],"outputs":[{"name":"","type":"string","internalType":"string"}],"stateMutability":"view"},{"type":"function","name":"nonblockingLzReceive","inputs":[{"name":"_srcChainId","type":"uint16","internalType":"uint16"},{"name":"_srcAddress","type":"bytes","internalType":"bytes"},{"name":"_nonce","type":"uint64","internalType":"uint64"},{"name":"_payload","type":"bytes","internalType":"bytes"}],"outputs":[],"stateMutability":"nonpayable"},{"type":"function","name":"owner","inputs":[],"outputs":[{"name":"","type":"address","internalType":"address"}],"stateMutability":"view"},{"type":"function","name":"payloadSizeLimitLookup","inputs":[{"name":"","type":"uint16","internalType":"uint16"}],"outputs":[{"name":"","type":"uint256","internalType":"uint256"}],"stateMutability":"view"},{"type":"function","name":"precrime","inputs":[],"outputs":[{"name":"","type":"address","internalType":"address"}],"stateMutability":"view"},{"type":"function","name":"renounceOwnership","inputs":[],"outputs":[],"stateMutability":"nonpayable"},{"type":"function","name":"retryMessage","inputs":[{"name":"_srcChainId","type":"uint16","internalType":"uint16"},{"name":"_srcAddress","type":"bytes","internalType":"bytes"},{"name":"_nonce","type":"uint64","internalType":"uint64"},{"name":"_payload","type":"bytes","internalType":"bytes"}],"outputs":[],"stateMutability":"payable"},{"type":"function","name":"sendAndCall","inputs":[{"name":"_from","type":"address","internalType":"address"},{"name":"_dstChainId","type":"uint16","internalType":"uint16"},{"name":"_toAddress","type":"bytes32","internalType":"bytes32"},{"name":"_amount","type":"uint256","internalType":"uint256"},{"name":"_payload","type":"bytes","internalType":"bytes"},{"name":"_dstGasForCall","type":"uint64","internalType":"uint64"},{"name":"_callParams","type":"tuple","internalType":"struct ICommonOFT.LzCallParams","components":[{"name":"refundAddress","type":"address","internalType":"address payable"},{"name":"zroPaymentAddress","type":"address","internalType":"address"},{"name":"adapterParams","type":"bytes","internalType":"bytes"}]}],"outputs":[],"stateMutability":"payable"},{"type":"function","name":"sendFrom","inputs":[{"name":"_from","type":"address","internalType":"address"},{"name":"_dstChainId","type":"uint16","internalType":"uint16"},{"name":"_toAddress","type":"bytes32","internalType":"bytes32"},{"name":"_amount","type":"uint256","internalType":"uint256"},{"name":"_callParams","type":"tuple","internalType":"struct ICommonOFT.LzCallParams","components":[{"name":"refundAddress","type":"address","internalType":"address payable"},{"name":"zroPaymentAddress","type":"address","internalType":"address"},{"name":"adapterParams","type":"bytes","internalType":"bytes"}]}],"outputs":[],"stateMutability":"payable"},{"type":"function","name":"setConfig","inputs":[{"name":"_version","type":"uint16","internalType":"uint16"},{"name":"_chainId","type":"uint16","internalType":"uint16"},{"name":"_configType","type":"uint256","internalType":"uint256"},{"name":"_config","type":"bytes","internalType":"bytes"}],"outputs":[],"stateMutability":"nonpayable"},{"type":"function","name":"setMaxSlippage","inputs":[{"name":"_slippage","type":"uint256","internalType":"uint256"}],"outputs":[],"stateMutability":"nonpayable"},{"type":"function","name":"setMinDstGas","inputs":[{"name":"_dstChainId","type":"uint16","internalType":"uint16"},{"name":"_packetType","type":"uint16","internalType":"uint16"},{"name":"_minGas","type":"uint256","internalType":"uint256"}],"outputs":[],"stateMutability":"nonpayable"},{"type":"function","name":"setPayloadSizeLimit","inputs":[{"name":"_dstChainId","type":"uint16","internalType":"uint16"},{"name":"_size","type":"uint256","internalType":"uint256"}],"outputs":[],"stateMutability":"nonpayable"},{"type":"function","name":"setPrecrime","inputs":[{"name":"_precrime","type":"address","internalType":"address"}],"outputs":[],"stateMutability":"nonpayable"},{"type":"function","name":"setReceiveVersion","inputs":[{"name":"_version","type":"uint16","internalType":"uint16"}],"outputs":[],"stateMutability":"nonpayable"},{"type":"function","name":"setSendVersion","inputs":[{"name":"_version","type":"uint16","internalType":"uint16"}],"outputs":[],"stateMutability":"nonpayable"},{"type":"function","name":"setTrustedRemote","inputs":[{"name":"_srcChainId","type":"uint16","internalType":"uint16"},{"name":"_path","type":"bytes","internalType":"bytes"}],"outputs":[],"stateMutability":"nonpayable"},{"type":"function","name":"setTrustedRemoteAddress","inputs":[{"name":"_remoteChainId","type":"uint16","internalType":"uint16"},{"name":"_remoteAddress","type":"bytes","internalType":"bytes"}],"outputs":[],"stateMutability":"nonpayable"},{"type":"function","name":"setUseCustomAdapterParams","inputs":[{"name":"_useCustomAdapterParams","type":"bool","internalType":"bool"}],"outputs":[],"stateMutability":"nonpayable"},{"type":"function","name":"sharedDecimals","inputs":[],"outputs":[{"name":"","type":"uint8","internalType":"uint8"}],"stateMutability":"view"},{"type":"function","name":"supportsInterface","inputs":[{"name":"interfaceId","type":"bytes4","internalType":"bytes4"}],"outputs":[{"name":"","type":"bool","internalType":"bool"}],"stateMutability":"view"},{"type":"function","name":"symbol","inputs":[],"outputs":[{"name":"","type":"string","internalType":"string"}],"stateMutability":"view"},{"type":"function","name":"token","inputs":[],"outputs":[{"name":"","type":"address","internalType":"address"}],"stateMutability":"view"},{"type":"function","name":"totalSupply","inputs":[],"outputs":[{"name":"","type":"uint256","internalType":"uint256"}],"stateMutability":"view"},{"type":"function","name":"transfer","inputs":[{"name":"to","type":"address","internalType":"address"},{"name":"amount","type":"uint256","internalType":"uint256"}],"outputs":[{"name":"","type":"bool","internalType":"bool"}],"stateMutability":"nonpayable"},{"type":"function","name":"transferFrom","inputs":[{"name":"from","type":"address","internalType":"address"},{"name":"to","type":"address","internalType":"address"},{"name":"amount","type":"uint256","internalType":"uint256"}],"outputs":[{"name":"","type":"bool","internalType":"bool"}],"stateMutability":"nonpayable"},{"type":"function","name":"transferOwnership","inputs":[{"name":"newOwner","type":"address","internalType":"address"}],"outputs":[],"stateMutability":"nonpayable"},{"type":"function","name":"trustedRemoteLookup","inputs":[{"name":"","type":"uint16","internalType":"uint16"}],"outputs":[{"name":"","type":"bytes","internalType":"bytes"}],"stateMutability":"view"},{"type":"function","name":"useCustomAdapterParams","inputs":[],"outputs":[{"name":"","type":"bool","internalType":"bool"}],"stateMutability":"view"},{"type":"function","name":"yieldBox","inputs":[],"outputs":[{"name":"","type":"address","internalType":"contract IYieldBoxBase"}],"stateMutability":"view"},{"type":"event","name":"Approval","inputs":[{"name":"owner","type":"address","indexed":true,"internalType":"address"},{"name":"spender","type":"address","indexed":true,"internalType":"address"},{"name":"value","type":"uint256","indexed":false,"internalType":"uint256"}],"anonymous":false},{"type":"event","name":"CallOFTReceivedSuccess","inputs":[{"name":"_srcChainId","type":"uint16","indexed":true,"internalType":"uint16"},{"name":"_srcAddress","type":"bytes","indexed":false,"internalType":"bytes"},{"name":"_nonce","type":"uint64","indexed":false,"internalType":"uint64"},{"name":"_hash","type":"bytes32","indexed":false,"internalType":"bytes32"}],"anonymous":false},{"type":"event","name":"MessageFailed","inputs":[{"name":"_srcChainId","type":"uint16","indexed":false,"internalType":"uint16"},{"name":"_srcAddress","type":"bytes","indexed":false,"internalType":"bytes"},{"name":"_nonce","type":"uint64","indexed":false,"internalType":"uint64"},{"name":"_payload","type":"bytes","indexed":false,"internalType":"bytes"},{"name":"_reason","type":"bytes","indexed":false,"internalType":"bytes"}],"anonymous":false},{"type":"event","name":"NonContractAddress","inputs":[{"name":"_address","type":"address","indexed":false,"internalType":"address"}],"anonymous":false},{"type":"event","name":"OwnershipTransferred","inputs":[{"name":"previousOwner","type":"address","indexed":true,"internalType":"address"},{"name":"newOwner","type":"address","indexed":true,"internalType":"address"}],"anonymous":false},{"type":"event","name":"ReceiveFromChain","inputs":[{"name":"_srcChainId","type":"uint16","indexed":true,"internalType":"uint16"},{"name":"_to","type":"address","indexed":true,"internalType":"address"},{"name":"_amount","type":"uint256","indexed":false,"internalType":"uint256"}],"anonymous":false},{"type":"event","name":"RetryMessageSuccess","inputs":[{"name":"_srcChainId","type":"uint16","indexed":false,"internalType":"uint16"},{"name":"_srcAddress","type":"bytes","indexed":false,"internalType":"bytes"},{"name":"_nonce","type":"uint64","indexed":false,"internalType":"uint64"},{"name":"_payloadHash","type":"bytes32","indexed":false,"internalType":"bytes32"}],"anonymous":false},{"type":"event","name":"SendToChain","inputs":[{"name":"_dstChainId","type":"uint16","indexed":true,"internalType":"uint16"},{"name":"_from","type":"address","indexed":true,"internalType":"address"},{"name":"_toAddress","type":"bytes32","indexed":true,"internalType":"bytes32"},{"name":"_amount","type":"uint256","indexed":false,"internalType":"uint256"}],"anonymous":false},{"type":"event","name":"SetMinDstGas","inputs":[{"name":"_dstChainId","type":"uint16","indexed":false,"internalType":"uint16"},{"name":"_type","type":"uint16","indexed":false,"internalType":"uint16"},{"name":"_minDstGas","type":"uint256","indexed":false,"internalType":"uint256"}],"anonymous":false},{"type":"event","name":"SetPrecrime","inputs":[{"name":"precrime","type":"address","indexed":false,"internalType":"address"}],"anonymous":false},{"type":"event","name":"SetTrustedRemote","inputs":[{"name":"_remoteChainId","type":"uint16","indexed":false,"internalType":"uint16"},{"name":"_path","type":"bytes","indexed":false,"internalType":"bytes"}],"anonymous":false},{"type":"event","name":"SetTrustedRemoteAddress","inputs":[{"name":"_remoteChainId","type":"uint16","indexed":false,"internalType":"uint16"},{"name":"_remoteAddress","type":"bytes","indexed":false,"internalType":"bytes"}],"anonymous":false},{"type":"event","name":"SetUseCustomAdapterParams","inputs":[{"name":"_useCustomAdapterParams","type":"bool","indexed":false,"internalType":"bool"}],"anonymous":false},{"type":"event","name":"Transfer","inputs":[{"name":"from","type":"address","indexed":true,"internalType":"address"},{"name":"to","type":"address","indexed":true,"internalType":"address"},{"name":"value","type":"uint256","indexed":false,"internalType":"uint256"}],"anonymous":false},{"type":"error","name":"NotValid","inputs":[]}],"bytecode":{"object":"0x60e0604090808252346200059157620040ba803803809162000022828562000596565b833981016101008282031262000591576200003d82620005d0565b906020926200004e848201620005d0565b818601516001600160a01b03808216949290918590036200059157606084015196828816809803620005915760808501516001600160401b0394908581116200059157816200009f9188016200060a565b9060a0870151908682116200059157620000bb9188016200060a565b9160c087015160ff811696878203620005915762000116602b60e08f9b01519a5180966a546170696f63614f46542d60a81b878301526200010581518092898686019101620005e5565b810103600b81018752018562000596565b607f8d518096601d60fa1b868301526200013a8151809288602186019101620005e5565b810103926200015460216001958681018a52018862000596565b831c16936000958887549d60018060a01b03199e8f33908216178a55823391167f8be0079c531659141344cd1fd0a4f28419497f9722a3daafe3b4186f6b6457e08b80a3166080528560a05281518381116200057d57600b54928584811c9416801562000572575b878510146200055e578190601f948581116200050a575b508790858311600114620004a4578a9262000498575b5050600019600383901b1c191690851b17600b555b80519283116200048457600c548481811c9116801562000479575b8682101462000465578281116200041c575b5084918311600114620003b6579282939183928894620003aa575b50501b916000199060031b1c191617600c555b6012821162000357575060120360ff8111620003435760ff1690604d82116200032f5750600a0a60c0526101f46012551684600f541617600f5560ff19601154161760115560105581600d541617600d55600e541617600e5551613a5490816200066682396080518181816104760152818161075801528181610874015281816109ef01528181610bae0152818161193801528181611a4001528181612165015281816129de0152612e8f015260a051816113b9015260c051818181612c310152818161309a0152818161330b01526133a50152f35b634e487b7160e01b81526011600452602490fd5b634e487b7160e01b82526011600452602482fd5b6084908b519062461bcd60e51b82526004820152602760248201527f4f46543a20736861726564446563696d616c73206d757374206265203c3d20646044820152666563696d616c7360c81b6064820152fd5b01519250388062000246565b600c8752848720919083601f198116895b8888838310620004045750505010620003ea575b505050811b01600c5562000259565b015160001960f88460031b161c19169055388080620003db565b868601518855909601959485019487935001620003c7565b600c88528588208380860160051c8201928887106200045b575b0160051c019085905b8281106200044f5750506200022b565b8981550185906200043f565b9250819262000436565b634e487b7160e01b88526022600452602488fd5b90607f169062000219565b634e487b7160e01b87526041600452602487fd5b015190503880620001e9565b600b8b52888b208894509190601f1984168c5b8b828210620004f35750508411620004d9575b505050811b01600b55620001fe565b015160001960f88460031b161c19169055388080620004ca565b8385015186558b97909501949384019301620004b7565b909150600b8a52878a208580850160051c8201928a861062000554575b918991869594930160051c01915b82811062000545575050620001d3565b8c815585945089910162000535565b9250819262000527565b634e487b7160e01b89526022600452602489fd5b93607f1693620001bc565b634e487b7160e01b88526041600452602488fd5b600080fd5b601f909101601f19168101906001600160401b03821190821017620005ba57604052565b634e487b7160e01b600052604160045260246000fd5b51906001600160a01b03821682036200059157565b60005b838110620005f95750506000910152565b8181015183820152602001620005e8565b81601f82011215620005915780516001600160401b038111620005ba576040519262000641601f8301601f19166020018562000596565b818452602082840101116200059157620006629160208085019101620005e5565b9056fe6080604052600436101561001b575b361561001957600080fd5b005b60003560e01c80621d35671461039f57806254af3a1461039a57806301ffc9a71461039557806306fdde031461039057806307e0db171461038b578063095ea7b3146103865780630df374831461038157806310ddb1371461037c57806318160ddd1461031357806323b872dd14610377578063313ce56714610372578063365260b41461036d57806339509351146103685780633d8b38f6146103635780633f1f4fa41461035e57806342d65a8d1461035957806343f68a4914610354578063447705151461034f5780634c42899a1461034f5780635b8c41e61461034a57806366ad5c8a14610345578063695ef6bf1461034057806370a082311461033b578063715018a6146103365780637533d7881461033157806376203b481461032c578063785e9e8614610327578063857749b0146103225780638cfd8f5c1461031d5780638da5cb5b146103185780639358928b14610313578063950c8a741461030e57806395d89b41146103095780639bdb9812146103045780639f38369a146102ff578063a457c2d7146102fa578063a4c51df5146102f5578063a643c52e146102f0578063a6c3d165146102eb578063a9059cbb146102e6578063b353aaa7146102e1578063baf3292d146102dc578063c4461834146102d7578063cbed8b9c146102d2578063d1deba1f146102cd578063dbd01de1146102c8578063dd62ed3e146102c3578063de406577146102be578063df2a5b3b146102b9578063e6a20ae6146102b4578063eab45d9c146102af578063eaffd49a146102aa578063eb8d72b7146102a5578063ed629c5c146102a0578063f2fde38b1461029b578063f5ecbdbc146102965763fc0c546a0361000e576121cf565b612103565b61203c565b612019565b611ecf565b611e4a565b611de8565b611dcc565b611ce7565b611cbe565b611c64565b611c3b565b611ad8565b6119f4565b6119d7565b611967565b611922565b6118f8565b611775565b611757565b6116c8565b61160a565b61156b565b611520565b611479565b611450565b6108d5565b611427565b6113dd565b61139f565b611376565b611138565b6110e5565b610f9d565b610f60565b610e6f565b610ddb565b610d74565b610c36565b610c15565b610b94565b610b5f565b610b03565b610a6d565b61096d565b610933565b6108f3565b61084f565b610814565b6107df565b610733565b61064e565b61059c565b61057e565b61045f565b6004359061ffff821682036103b557565b600080fd5b6024359061ffff821682036103b557565b9181601f840112156103b5578235916001600160401b0383116103b557602083818601950101116103b557565b9060806003198301126103b55760043561ffff811681036103b557916001600160401b03906024358281116103b55781610434916004016103cb565b9390939260443581811681036103b557926064359182116103b55761045b916004016103cb565b9091565b346103b55761046d366103f8565b929493919291907f00000000000000000000000000000000000000000000000000000000000000006001600160a01b0316330361052e576104f36104fb92610019976104ec6104d26104cd8a61ffff166000526001602052604060002090565b6110c8565b8051908184149182610524575b5081610501575b506125ff565b3691610cbc565b923691610cbc565b92612772565b905061050e368486610cbc565b60208151910120906020815191012014386104e6565b15159150386104df565b60405162461bcd60e51b815260206004820152601e60248201527f4c7a4170703a20696e76616c696420656e64706f696e742063616c6c657200006044820152606490fd5b60009103126103b557565b346103b55760003660031901126103b5576020601054604051908152f35b346103b55760203660031901126103b55760043563ffffffff60e01b81168091036103b557602090631f7ecdf760e01b81149081156105e1575b506040519015158152f35b6301ffc9a760e01b149050386105d6565b60005b8381106106055750506000910152565b81810151838201526020016105f5565b9060209161062e815180928185528580860191016105f2565b601f01601f1916010190565b90602061064b928181520190610615565b90565b346103b557600080600319360112610730576040519080600b5461067181610ff8565b8085529160019180831690811561070657506001146106ab575b6106a78561069b81870382610c80565b6040519182918261063a565b0390f35b9250600b83527f0175b7a638427703f0dbe7bb9bbf987a2551717b34e79f33b5b1008d1fa01db95b8284106106ee57505050810160200161069b826106a761068b565b805460208587018101919091529093019281016106d3565b8695506106a79693506020925061069b94915060ff191682840152151560051b820101929361068b565b80fd5b346103b557600060203660031901126107305761074e6103a4565b6107566121ea565b7f00000000000000000000000000000000000000000000000000000000000000006001600160a01b0316908290823b156107ca57602461ffff918360405195869485936307e0db1760e01b85521660048401525af180156107c5576107b9575080f35b6107c290610c68565b80f35b6126b8565b5080fd5b6001600160a01b038116036103b557565b346103b55760403660031901126103b5576108096004356107ff816107ce565b602435903361243c565b602060405160018152f35b346103b55760403660031901126103b55761ffff6108306103a4565b6108386121ea565b166000526003602052602435604060002055600080f35b346103b557600060203660031901126107305761086a6103a4565b6108726121ea565b7f00000000000000000000000000000000000000000000000000000000000000006001600160a01b0316908290823b156107ca57602461ffff918360405195869485936310ddb13760e01b85521660048401525af180156107c5576107b9575080f35b346103b55760003660031901126103b5576020600a54604051908152f35b346103b55760603660031901126103b557610809600435610913816107ce565b60243561091f816107ce565b6044359161092e833383612567565b612334565b346103b55760003660031901126103b557602060405160128152f35b6064359081151582036103b557565b60a4359081151582036103b557565b346103b55760a03660031901126103b5576109866103a4565b61098e61094f565b90608435906001600160401b0382116103b5576109b46104ec60409336906004016103cb565b906109eb6109ce6109c6604435613309565b6024356133da565b928451958694859463040a7bb160e41b8652309060048701612b86565b03817f00000000000000000000000000000000000000000000000000000000000000006001600160a01b03165afa9081156107c5576000908192610a3c575b50604080519182526020820192909252f35b9050610a5f915060403d8111610a66575b610a578183610c80565b810190612b70565b9038610a2a565b503d610a4d565b346103b55760403660031901126103b557600435610a8a816107ce565b3360009081526009602090815260408083206001600160a01b03851684529091529020546024358101809111610ac457610809913361243c565b612242565b9060406003198301126103b55760043561ffff811681036103b55791602435906001600160401b0382116103b55761045b916004016103cb565b346103b557602061ffff610b50610b1936610ac9565b9390911660005260018452610b3b610b42604060002060405192838092611032565b0382610c80565b848151910120923691610cbc565b82815191012014604051908152f35b346103b55760203660031901126103b55761ffff610b7b6103a4565b1660005260036020526020604060002054604051908152f35b346103b557610ba236610ac9565b9190610bac6121ea565b7f00000000000000000000000000000000000000000000000000000000000000006001600160a01b031691823b156103b557604051928380926342d65a8d60e01b825281610c0360009889978894600485016126e5565b03925af180156107c5576107b9575080f35b346103b55760203660031901126103b557610c2e6121ea565b600435601255005b346103b55760003660031901126103b557602060405160008152f35b634e487b7160e01b600052604160045260246000fd5b6001600160401b038111610c7b57604052565b610c52565b90601f801991011681019081106001600160401b03821117610c7b57604052565b6001600160401b038111610c7b57601f01601f191660200190565b929192610cc882610ca1565b91610cd66040519384610c80565b8294818452818301116103b5578281602093846000960137010152565b60606003198201126103b55760043561ffff811681036103b557916024356001600160401b03928382116103b557806023830112156103b557816024610d3e93600401359101610cbc565b9160443590811681036103b55790565b602090610d689282604051948386809551938492016105f2565b82019081520301902090565b346103b5576020610dd261ffff610db183610d8e36610cf3565b9490911660005260058252604060002082604051948386809551938492016105f2565b820190815203019020906001600160401b0316600052602052604060002090565b54604051908152f35b346103b557610de9366103f8565b9192949390303303610e0d576104f3610e0792610019973691610cbc565b92612bca565b60405162461bcd60e51b815260206004820152602660248201527f4e6f6e626c6f636b696e674c7a4170703a2063616c6c6572206d7573742062656044820152650204c7a4170760d41b6064820152608490fd5b908160609103126103b55790565b60a03660031901126103b557600435610e87816107ce565b610e8f6103ba565b604435916084356001600160401b0381116103b557602061ffff610ed87fd81fc9b8523134ed613870ed029d6170cbb73aa6a6bc311b9a642689fb9df59a933690600401610e61565b93610f4b8535610ee7816107ce565b610f056104ec8689013598610efb8a6107ce565b604081019061295c565b610f0f818a613206565b610f24610f1d6064356133a3565b50856135b2565b97610f30891515612da7565b610f42610f3c8a613309565b8c6133da565b9234938b612e4b565b6040519485526001600160a01b0316941692a4005b346103b55760203660031901126103b557600435610f7d816107ce565b60018060a01b031660005260086020526020604060002054604051908152f35b346103b55760008060031936011261073057610fb76121ea565b80546001600160a01b03198116825581906001600160a01b03167f8be0079c531659141344cd1fd0a4f28419497f9722a3daafe3b4186f6b6457e08280a380f35b90600182811c92168015611028575b602083101461101257565b634e487b7160e01b600052602260045260246000fd5b91607f1691611007565b906000929180549161104383610ff8565b9182825260019384811690816000146110a55750600114611065575b50505050565b90919394506000526020928360002092846000945b83861061109157505050500101903880808061105f565b80548587018301529401938590820161107a565b9294505050602093945060ff191683830152151560051b0101903880808061105f565b906110e36110dc9260405193848092611032565b0383610c80565b565b346103b55760203660031901126103b55761ffff6111016103a4565b1660005260016020526106a7610b3b611124604060002060405192838092611032565b604051918291602083526020830190610615565b60e03660031901126103b557600435611150816107ce565b6111586103ba565b604435916001600160401b03906084358281116103b55761117d9036906004016103cb565b91909260a43591818316918284036103b55760c4359081116103b5576111a7903690600401610e61565b926111de8435956111b7876107ce565b6111d66111cc602088013597610efb896107ce565b9990923691610cbc565b973691610cbc565b9460ff600654166000146112e357602286511061129e5785602095610f42610f4b9461126c8c61125961ffff9a8b60227fd81fc9b8523134ed613870ed029d6170cbb73aa6a6bc311b9a642689fb9df59a9f0151931660005260028d5261125360406000206001600052602052604060002090565b54612274565b9061126582151561325b565b10156132a7565b61128161127a6064356133a3565b50886135b2565b9a61128d8c1515612da7565b8d6112978d613309565b903361346c565b60405162461bcd60e51b815260206004820152601c60248201527f4c7a4170703a20696e76616c69642061646170746572506172616d73000000006044820152606490fd5b948094935051611322577fd81fc9b8523134ed613870ed029d6170cbb73aa6a6bc311b9a642689fb9df59a9460209461ffff94610f42610f4b9461126c565b60405162461bcd60e51b815260206004820152602660248201527f4f4654436f72653a205f61646170746572506172616d73206d7573742062652060448201526532b6b83a3c9760d11b6064820152608490fd5b346103b55760003660031901126103b557600f546040516001600160a01b039091168152602090f35b346103b55760003660031901126103b557602060405160ff7f0000000000000000000000000000000000000000000000000000000000000000168152f35b346103b55760403660031901126103b5576020610dd26113fb6103a4565b61ffff6114066103ba565b91166000526002835260406000209061ffff16600052602052604060002090565b346103b55760003660031901126103b5576000546040516001600160a01b039091168152602090f35b346103b55760003660031901126103b5576004546040516001600160a01b039091168152602090f35b346103b557600080600319360112610730576040519080600c5461149c81610ff8565b8085529160019180831690811561070657506001146114c5576106a78561069b81870382610c80565b9250600c83527fdf6966c971051c3d54ec59162606531493a51404a002842f56009d7e5cf4a8c75b82841061150857505050810160200161069b826106a761068b565b805460208587018101919091529093019281016114ed565b346103b557602060ff61155f61ffff610db18461153c36610cf3565b9490911660005260078252604060002082604051948386809551938492016105f2565b54166040519015158152f35b346103b55760203660031901126103b55761ffff6115876103a4565b166000526001602052610b3b6115a7604060002060405192838092611032565b8051156115c55761069b816115bf6106a79351612754565b906137f2565b60405162461bcd60e51b815260206004820152601d60248201527f4c7a4170703a206e6f20747275737465642070617468207265636f72640000006044820152606490fd5b346103b55760403660031901126103b557600435611627816107ce565b602435903360005260096020526116548160406000209060018060a01b0316600052602052604060002090565b5491808310611675576116699203903361243c565b60405160018152602090f35b60405162461bcd60e51b815260206004820152602560248201527f45524332303a2064656372656173656420616c6c6f77616e63652062656c6f77604482015264207a65726f60d81b6064820152608490fd5b346103b55760e03660031901126103b5576116e16103a4565b6001600160401b03906064358281116103b5576117029036906004016103cb565b60849291923584811681036103b55761171961095e565b9160c4359586116103b5576117356117459636906004016103cb565b959094604435906024359061298e565b60408051928352602083019190915290f35b346103b55760003660031901126103b5576020601254604051908152f35b346103b55761178336610ac9565b9061178c6121ea565b604051926020928083858701376117b86034868381013060601b88820152036014810188520186610c80565b60009361ffff8316855260019081815260408620918751916001600160401b038311610c7b576117f2836117ec8654610ff8565b86612700565b80601f84116001146118625750918080926118519695948a9b7f8c0400cfe2d1199b1a725c78960bcc2a344d869b80590d0f2bd005db15a572ce9b94611857575b50501b916000199060031b1c19161790555b604051938493846126e5565b0390a180f35b015192503880611833565b91939498601f19841661187a87600052602060002090565b938a905b8282106118e1575050917f8c0400cfe2d1199b1a725c78960bcc2a344d869b80590d0f2bd005db15a572ce999a95939185611851989694106118c8575b505050811b019055611845565b015160001960f88460031b161c191690553880806118bb565b80888697829497870151815501960194019061187e565b346103b55760403660031901126103b557610809600435611918816107ce565b6024359033612334565b346103b55760003660031901126103b5576040517f00000000000000000000000000000000000000000000000000000000000000006001600160a01b03168152602090f35b346103b55760203660031901126103b5577f5db758e995a17ec1ad84bdef7e8c3293a0bd6179bcce400dff5d4c3d87db726b60206004356119a7816107ce565b6119af6121ea565b600480546001600160a01b0319166001600160a01b03929092169182179055604051908152a1005b346103b55760003660031901126103b55760206040516127108152f35b346103b55760803660031901126103b557611a0d6103a4565b611a156103ba565b6064356001600160401b0381116103b557611a349036906004016103cb565b9092611a3e6121ea565b7f00000000000000000000000000000000000000000000000000000000000000006001600160a01b031690813b156103b55760008094611ab5604051978896879586946332fb62e760e21b865261ffff809216600487015216602485015260443560448501526080606485015260848401916126c4565b03925af180156107c557611ac557005b80611ad261001992610c68565b80610573565b611ae1366103f8565b9161ffff86949296166000526005602052611b2881604060002060206040518092878b833787820190815203019020906001600160401b0316600052602052604060002090565b54918215611bea57611bd98483611bd27fc264d91f3adc5588250e1551f547752ca0cfa8f6b530d243b9f9f4cab10ea8e59a6000611bbe84611ba68e8a8f611be59f908f611b8c90611b7f611ba09436908d610cbc565b60208151910120146128cf565b61ffff166000526005602052604060002090565b916128b6565b906001600160401b0316600052602052604060002090565b55611bca36878d610cbc565b933691610cbc565b9188612bca565b60405195869586612925565b0390a1005b60405162461bcd60e51b815260206004820152602360248201527f4e6f6e626c6f636b696e674c7a4170703a206e6f2073746f726564206d65737360448201526261676560e81b6064820152608490fd5b346103b55760003660031901126103b557600e546040516001600160a01b039091168152602090f35b346103b55760403660031901126103b5576020610dd2600435611c86816107ce565b60243590611c93826107ce565b60018060a01b03166000526009835260406000209060018060a01b0316600052602052604060002090565b346103b55760003660031901126103b557600d546040516001600160a01b039091168152602090f35b346103b55760603660031901126103b557611d006103a4565b611d086103ba565b60443591611d146121ea565b8215611d8f57611be57f9d5c7c0b934da8fefa9c7760c98383778a12dfbfc0c3b3106518f43fb9508ac09361ffff8316600052600260205280611d698560406000209061ffff16600052602052604060002090565b556040519384938460409194939294606082019561ffff80921683521660208201520152565b60405162461bcd60e51b81526020600482015260156024820152744c7a4170703a20696e76616c6964206d696e47617360581b6044820152606490fd5b346103b55760003660031901126103b557602060405160018152f35b346103b55760203660031901126103b5576004358015158091036103b55760207f1584ad594a70cbe1e6515592e1272a987d922b097ead875069cebe8b40c004a491611e326121ea565b60ff196006541660ff821617600655604051908152a1005b346103b5576101003660031901126103b557611e646103a4565b6001600160401b03906024358281116103b557611e859036906004016103cb565b91906044359084821682036103b557608435611ea0816107ce565b60c4359586116103b557611ebb6100199636906004016103cb565b94909360e4359660a4359460643593612a84565b346103b557611edd36610ac9565b9190611ee76121ea565b60009161ffff81168352600160209080825260408520916001600160401b038711610c7b57611f2087611f1a8554610ff8565b85612700565b8590601f8811600114611f875750918680879893611851957ffa41487ad5d6728f0b19276fa1eddc16558578f5109fc39d2dc33c3230470dab9993611f7c575b501b906000198460031b1c1916179055604051938493846126e5565b880135925038611f60565b90601f198816611f9c85600052602060002090565b9288905b828210612002575050918893917ffa41487ad5d6728f0b19276fa1eddc16558578f5109fc39d2dc33c3230470dab9899611851969410611fe8575b505082811b019055611845565b870135600019600386901b60f8161c191690553880611fdb565b808685968294968c01358155019501930190611fa0565b346103b55760003660031901126103b557602060ff600654166040519015158152f35b346103b55760203660031901126103b557600435612059816107ce565b6120616121ea565b6001600160a01b0390811680156120af57600080546001600160a01b03198116831782559092167f8be0079c531659141344cd1fd0a4f28419497f9722a3daafe3b4186f6b6457e08380a380f35b60405162461bcd60e51b815260206004820152602660248201527f4f776e61626c653a206e6577206f776e657220697320746865207a65726f206160448201526564647265737360d01b6064820152608490fd5b346103b55760803660031901126103b55761211c6103a4565b6121246103ba565b906121306044356107ce565b604051633d7b2f6f60e21b815261ffff91821660048201529116602482015230604482015260648035908201526000816084817f00000000000000000000000000000000000000000000000000000000000000006001600160a01b03165afa80156107c5576106a7916000916121ae575b506040519182918261063a565b6121c9913d8091833e6121c18183610c80565b81019061265a565b386121a1565b346103b55760003660031901126103b5576020604051308152f35b6000546001600160a01b031633036121fe57565b606460405162461bcd60e51b815260206004820152602060248201527f4f776e61626c653a2063616c6c6572206973206e6f7420746865206f776e65726044820152fd5b634e487b7160e01b600052601160045260246000fd5b90601f8201809211610ac457565b6051019081605111610ac457565b91908201809211610ac457565b1561228857565b60405162461bcd60e51b815260206004820152602360248201527f45524332303a207472616e7366657220746f20746865207a65726f206164647260448201526265737360e81b6064820152608490fd5b156122e057565b60405162461bcd60e51b815260206004820152602660248201527f45524332303a207472616e7366657220616d6f756e7420657863656564732062604482015265616c616e636560d01b6064820152608490fd5b916001600160a01b0380841692909183156123e9576123ce826000805160206139ff833981519152946123e494169661236e881515612281565b6001600160a01b03811660009081526008602052604090206123b390859054612399828210156122d9565b039160018060a01b03166000526008602052604060002090565b556001600160a01b0316600090815260086020526040902090565b8054820190556040519081529081906020820190565b0390a3565b60405162461bcd60e51b815260206004820152602560248201527f45524332303a207472616e736665722066726f6d20746865207a65726f206164604482015264647265737360d81b6064820152608490fd5b6001600160a01b0380821692919083156125165782169384156124c657806124b57f8c5be1e5ebec7d5bd14f71427d1e84f3dd0314c0f7b2291e5b200ac8c7c3b9259461249e6123e49560018060a01b03166000526009602052604060002090565b9060018060a01b0316600052602052604060002090565b556040519081529081906020820190565b60405162461bcd60e51b815260206004820152602260248201527f45524332303a20617070726f766520746f20746865207a65726f206164647265604482015261737360f01b6064820152608490fd5b60405162461bcd60e51b8152602060048201526024808201527f45524332303a20617070726f76652066726f6d20746865207a65726f206164646044820152637265737360e01b6064820152608490fd5b6001600160a01b03808216600090815260096020908152604080832093861683529290522090919054926001840161259f5750505050565b8084106125ba576125b193039161243c565b3880808061105f565b60405162461bcd60e51b815260206004820152601d60248201527f45524332303a20696e73756666696369656e7420616c6c6f77616e63650000006044820152606490fd5b1561260657565b60405162461bcd60e51b815260206004820152602660248201527f4c7a4170703a20696e76616c696420736f757263652073656e64696e6720636f6044820152651b9d1c9858dd60d21b6064820152608490fd5b6020818303126103b5578051906001600160401b0382116103b5570181601f820112156103b557805161268c81610ca1565b9261269a6040519485610c80565b818452602082840101116103b55761064b91602080850191016105f2565b6040513d6000823e3d90fd5b908060209392818452848401376000828201840152601f01601f1916010190565b60409061ffff61064b959316815281602082015201916126c4565b90601f811161270e57505050565b600091825260208220906020601f850160051c8301941061274a575b601f0160051c01915b82811061273f57505050565b818155600101612733565b909250829061272a565b601319810191908211610ac457565b605019810191908211610ac457565b9290916127e45a604051633356ae4560e11b602082015261ffff8716602482015260806044820152906127de826127d06127af60a483018a610615565b6001600160401b038816606484015282810360231901608484015288610615565b03601f198101845283610c80565b306139a1565b9390156127f3575b5050505050565b6127fc94612806565b38808080806127ec565b91936128a37fe183f33de2837795525b4792ca4cd60535bd77c53b7e7030060bfcf5734d6b0c956128b1939561ffff8151602083012096169586600052600560205261286a83610db160208b604060002082604051948386809551938492016105f2565b556001600160401b0361288f604051988998895260a060208a015260a0890190610615565b921660408701528582036060870152610615565b908382036080850152610615565b0390a1565b6020919283604051948593843782019081520301902090565b156128d657565b60405162461bcd60e51b815260206004820152602160248201527f4e6f6e626c6f636b696e674c7a4170703a20696e76616c6964207061796c6f616044820152601960fa1b6064820152608490fd5b916129519060609461ffff6001600160401b0394999897991685526080602086015260808501916126c4565b951660408201520152565b903590601e19813603018212156103b557018035906001600160401b0382116103b5576020019181360383136103b557565b9491959897906112976129b76040996129af6129bd976129da993691610cbc565b943691610cbc565b97613309565b928451968794859463040a7bb160e41b8652309060048701612b86565b03817f00000000000000000000000000000000000000000000000000000000000000006001600160a01b03165afa9182156107c5576000908193612a1d57509190565b905061045b91925060403d8111610a6657610a578183610c80565b93969491612a669061064b99979461ffff6001600160401b039416875260c0602088015260c08701916126c4565b961660408401526060830152608082015260a08185039101526126c4565b91969792989594939094303303612b2b57612aa090853061373e565b60405181815290946001600160a01b03169390849061ffff8516907fbf551ec93859b170f9b2141bd9298bf3f64322c6f7beb2543a0cb669834118bf90602090a3833b156103b5576000988995612b0e936040519c8d9b8c9a8b98633fe79aed60e11b8a5260048a01612a38565b0393f180156107c557612b1e5750565b80611ad26110e392610c68565b60405162461bcd60e51b815260206004820152601f60248201527f4f4654436f72653a2063616c6c6572206d757374206265204f4654436f7265006044820152606490fd5b91908260409103126103b5576020825192015190565b919261064b959361ffff612bb59316845260018060a01b0316602084015260a0604084015260a0830190610615565b92151560608201526080818403910152610615565b92919060ff612bd884613946565b1680612d525750505060ff612bec82613946565b161580612d47575b612bfd90613420565b612c0f612c09826138f6565b91613991565b90916001600160a01b039182841615612d3d575b612c57906001600160401b037f00000000000000000000000000000000000000000000000000000000000000009116613390565b918316928315612cf8577fbf551ec93859b170f9b2141bd9298bf3f64322c6f7beb2543a0cb669834118bf91612cb861ffff92612c9e612c9987600a54612274565b600a55565b6001600160a01b0316600090815260086020526040902090565b8481540190558460006000805160206139ff83398151915260405180612ce389829190602083019252565b0390a3604051938452169180602081016123e4565b60405162461bcd60e51b815260206004820152601f60248201527f45524332303a206d696e7420746f20746865207a65726f2061646472657373006044820152606490fd5b61dead9350612c23565b508051602914612bf4565b600103612d62576110e39361304e565b60405162461bcd60e51b815260206004820152601c60248201527f4f4654436f72653a20756e6b6e6f776e207061636b65742074797065000000006044820152606490fd5b15612dae57565b60405162461bcd60e51b815260206004820152601960248201527f4f4654436f72653a20616d6f756e7420746f6f20736d616c6c000000000000006044820152606490fd5b92612e1861064b97959361ffff612e269416865260c0602087015260c0860190610615565b908482036040860152610615565b6001600160a01b0391821660608401529316608082015280830360a090910152610615565b94612e749193929561ffff81166000526001602052612e7b604060002060405194858092611032565b0384610c80565b825115612ef357612e8d855182612f51565b7f00000000000000000000000000000000000000000000000000000000000000006001600160a01b031693843b156103b557600096612ee291604051998a988997889662c5803160e81b885260048801612df3565b03925af180156107c557612b1e5750565b60405162461bcd60e51b815260206004820152603060248201527f4c7a4170703a2064657374696e6174696f6e20636861696e206973206e6f742060448201526f61207472757374656420736f7572636560801b6064820152608490fd5b61ffff166000526003602052604060002054908115612fb6575b11612f7257565b606460405162461bcd60e51b815260206004820152602060248201527f4c7a4170703a207061796c6f61642073697a6520697320746f6f206c617267656044820152fd5b6127109150612f6b565b98979692936001600160401b03612ff260e0989461ffff61301e9995168d5260208d61010091829101528d0190610615565b951660408b015260608a01526001600160a01b0316608089015260a088015286820360c0880152610615565b930152565b6001600160401b0361304360409396959496606084526060840190610615565b951660208201520152565b9091613059846134d9565b909161308a61308387611ba661307d8b61ffff166000526007602052604060002090565b8c610d4e565b5460ff1690565b916130c06001600160401b0392837f00000000000000000000000000000000000000000000000000000000000000009116613390565b9288888b83156131bc575b505050853b15613171579461311296946127de948a946127d0948d9960001461316a5750505a925b5a978b6040519a8b9863757fea4d60e11b60208b015260248a01612fc0565b901561315f57509061315a61ffff928560207fb8890edbfc1c74692f527444645f95489c3703cc2df42e4a366f5d06fa6cd88496975191012090604051948594169684613023565b0390a2565b926110e39492612806565b16926130f3565b50506040516001600160a01b039094168452507f9aedf5fdba8716db3b6705ca00150643309995d4f818a249ed6dde6677e7792d9750919550859450506020840192506128b1915050565b90611ba66131f1926131eb896131d66131fe979b306136db565b9961ffff166000526007602052604060002090565b90610d4e565b805460ff19166001179055565b88888b6130cb565b60065460ff161561325357602282511061129e5761ffff60226110e393015191166000526002602052613246604060002060008052602052604060002090565b549061126582151561325b565b505161132257565b1561326257565b60405162461bcd60e51b815260206004820152601a60248201527f4c7a4170703a206d696e4761734c696d6974206e6f74207365740000000000006044820152606490fd5b156132ae57565b60405162461bcd60e51b815260206004820152601b60248201527f4c7a4170703a20676173206c696d697420697320746f6f206c6f7700000000006044820152606490fd5b634e487b7160e01b600052601260045260246000fd5b7f000000000000000000000000000000000000000000000000000000000000000090811561338b57046001600160401b0390818111613346571690565b60405162461bcd60e51b815260206004820152601a60248201527f4f4654436f72653a20616d6f756e745344206f766572666c6f770000000000006044820152606490fd5b6132f3565b81810292918115918404141715610ac457565b7f0000000000000000000000000000000000000000000000000000000000000000801561338b57810690818103908111610ac45791565b90604051916000602084015260218301526001600160401b0360c01b9060c01b16604182015260298152606081018181106001600160401b03821117610c7b5760405290565b1561342757565b60405162461bcd60e51b815260206004820152601860248201527f4f4654436f72653a20696e76616c6964207061796c6f616400000000000000006044820152606490fd5b939260719261064b94604051968794600160f81b602087015260218601526001600160401b0360c01b809360c01b16604186015260018060a01b0316604985015260c01b1660698301526134c981518092602086860191016105f2565b8101036051810184520182610c80565b906134f1600160ff6134ea85613946565b1614613420565b6134fa826138f6565b9061350483613991565b906049845110613575576049840151936051815110613539576135366051820151916135308151612763565b90613872565b91565b60405162461bcd60e51b8152602060048201526014602482015273746f55696e7436345f6f75744f66426f756e647360601b6044820152606490fd5b60405162461bcd60e51b8152602060048201526015602482015274746f427974657333325f6f75744f66426f756e647360581b6044820152606490fd5b6001600160a01b038116338103613674575b801561362557816135fa846135ed60009560018060a01b03166000526008602052604060002090565b5461239982821015613684565b5561360883600a5403600a55565b6040518381526000805160206139ff83398151915290602090a390565b60405162461bcd60e51b815260206004820152602160248201527f45524332303a206275726e2066726f6d20746865207a65726f206164647265736044820152607360f81b6064820152608490fd5b61367f833384612567565b6135c4565b1561368b57565b60405162461bcd60e51b815260206004820152602260248201527f45524332303a206275726e20616d6f756e7420657863656564732062616c616e604482015261636560f01b6064820152608490fd5b6001600160a01b03811691908215612cf857600a5490828201809211610ac45760009261372f6020926000805160206139ff83398151915294600a5560018060a01b03166000526008602052604060002090565b818154019055604051908152a3565b61064b9183916001600160a01b03811630811415908161376a575b50156123345761092e833383612567565b905033141538613759565b1561377c57565b60405162461bcd60e51b815260206004820152600e60248201526d736c6963655f6f766572666c6f7760901b6044820152606490fd5b156137b957565b60405162461bcd60e51b8152602060048201526011602482015270736c6963655f6f75744f66426f756e647360781b6044820152606490fd5b613806826137ff81612258565b1015613775565b61381382825110156137b2565b8161382b575050604051600081526020810160405290565b60405191601f811691821560051b808486010193838501920101905b80841061385f5750508252601f01601f191660405290565b9092835181526020809101930190613847565b61387f826137ff81612258565b613894815161388d84612266565b11156137b2565b816138ac575050604051600081526020810160405290565b60405191601f8116916051831560051b80858701019484860193010101905b8084106138e35750508252601f01601f191660405290565b90928351815260208091019301906138cb565b602181511061390957602d015160601c90565b60405162461bcd60e51b8152602060048201526015602482015274746f416464726573735f6f75744f66426f756e647360581b6044820152606490fd5b6001815110613956576001015190565b60405162461bcd60e51b8152602060048201526013602482015272746f55696e74385f6f75744f66426f756e647360681b6044820152606490fd5b6029815110613539576029015190565b6040519392909160009160c08601916001600160401b03831187841017610c7b5783926040526096875282602088019560a036883760208451940192f1903d90609682116139f5575b6000908286523e9190565b609691506139ea56feddf252ad1be2c89b69c2b068fc378daa952ba7f163c4a11628f55a4df523b3efa26469706673582212209528d84a6253f82016ca506de454e7e7d105402a26816792b2054c14116be56f64736f6c63430008130033","linkReferences":{}},"methodIdentifiers":{"DEFAULT_PAYLOAD_SIZE_LIMIT()":"c4461834","NO_EXTRA_GAS()":"44770515","PT_SEND()":"4c42899a","PT_SEND_AND_CALL()":"e6a20ae6","SWAP_MAX_SLIPPAGE()":"a643c52e","allowance(address,address)":"dd62ed3e","approve(address,uint256)":"095ea7b3","balanceOf(address)":"70a08231","callOnOFTReceived(uint16,bytes,uint64,bytes32,address,uint256,bytes,uint256)":"eaffd49a","circulatingSupply()":"9358928b","cluster()":"dbd01de1","creditedPackets(uint16,bytes,uint64)":"9bdb9812","decimals()":"313ce567","decreaseAllowance(address,uint256)":"a457c2d7","erc20()":"785e9e86","estimateSendAndCallFee(uint16,bytes32,uint256,bytes,uint64,bool,bytes)":"a4c51df5","estimateSendFee(uint16,bytes32,uint256,bool,bytes)":"365260b4","failedMessages(uint16,bytes,uint64)":"5b8c41e6","forceResumeReceive(uint16,bytes)":"42d65a8d","getConfig(uint16,uint16,address,uint256)":"f5ecbdbc","getTrustedRemoteAddress(uint16)":"9f38369a","hostChainID()":"0054af3a","increaseAllowance(address,uint256)":"39509351","isTrustedRemote(uint16,bytes)":"3d8b38f6","lzEndpoint()":"b353aaa7","lzReceive(uint16,bytes,uint64,bytes)":"001d3567","minDstGasLookup(uint16,uint16)":"8cfd8f5c","name()":"06fdde03","nonblockingLzReceive(uint16,bytes,uint64,bytes)":"66ad5c8a","owner()":"8da5cb5b","payloadSizeLimitLookup(uint16)":"3f1f4fa4","precrime()":"950c8a74","renounceOwnership()":"715018a6","retryMessage(uint16,bytes,uint64,bytes)":"d1deba1f","sendAndCall(address,uint16,bytes32,uint256,bytes,uint64,(address,address,bytes))":"76203b48","sendFrom(address,uint16,bytes32,uint256,(address,address,bytes))":"695ef6bf","setConfig(uint16,uint16,uint256,bytes)":"cbed8b9c","setMaxSlippage(uint256)":"43f68a49","setMinDstGas(uint16,uint16,uint256)":"df2a5b3b","setPayloadSizeLimit(uint16,uint256)":"0df37483","setPrecrime(address)":"baf3292d","setReceiveVersion(uint16)":"10ddb137","setSendVersion(uint16)":"07e0db17","setTrustedRemote(uint16,bytes)":"eb8d72b7","setTrustedRemoteAddress(uint16,bytes)":"a6c3d165","setUseCustomAdapterParams(bool)":"eab45d9c","sharedDecimals()":"857749b0","supportsInterface(bytes4)":"01ffc9a7","symbol()":"95d89b41","token()":"fc0c546a","totalSupply()":"18160ddd","transfer(address,uint256)":"a9059cbb","transferFrom(address,address,uint256)":"23b872dd","transferOwnership(address)":"f2fde38b","trustedRemoteLookup(uint16)":"7533d788","useCustomAdapterParams()":"ed629c5c","yieldBox()":"de406577"},"id":3}