{"abi":[{"type":"constructor","inputs":[{"name":"_lzEndpoint","type":"address","internalType":"address"},{"name":"_erc20","type":"address","internalType":"address"},{"name":"_yieldBox","type":"address","internalType":"contract IYieldBoxBase"},{"name":"_cluster","type":"address","internalType":"contract ICluster"},{"name":"_name","type":"string","internalType":"string"},{"name":"_symbol","type":"string","internalType":"string"},{"name":"_decimal","type":"uint8","internalType":"uint8"},{"name":"_hostChainID","type":"uint256","internalType":"uint256"},{"name":"__leverageModule","type":"address","internalType":"contract BaseTOFTLeverageModule"},{"name":"__leverageDestinationModule","type":"address","internalType":"contract BaseTOFTLeverageDestinationModule"},{"name":"__strategyModule","type":"address","internalType":"contract BaseTOFTStrategyModule"},{"name":"__strategyDestinationModule","type":"address","internalType":"contract BaseTOFTStrategyDestinationModule"},{"name":"__marketModule","type":"address","internalType":"contract BaseTOFTMarketModule"},{"name":"__marketDestinationModule","type":"address","internalType":"contract BaseTOFTMarketDestinationModule"},{"name":"__optionsModule","type":"address","internalType":"contract BaseTOFTOptionsModule"},{"name":"__optionsDestinationModule","type":"address","internalType":"contract BaseTOFTOptionsDestinationModule"},{"name":"__genericModule","type":"address","internalType":"contract BaseTOFTGenericModule"}],"stateMutability":"nonpayable"},{"type":"receive","stateMutability":"payable"},{"type":"function","name":"DEFAULT_PAYLOAD_SIZE_LIMIT","inputs":[],"outputs":[{"name":"","type":"uint256","internalType":"uint256"}],"stateMutability":"view"},{"type":"function","name":"DOMAIN_SEPARATOR","inputs":[],"outputs":[{"name":"","type":"bytes32","internalType":"bytes32"}],"stateMutability":"view"},{"type":"function","name":"NO_EXTRA_GAS","inputs":[],"outputs":[{"name":"","type":"uint256","internalType":"uint256"}],"stateMutability":"view"},{"type":"function","name":"PT_SEND","inputs":[],"outputs":[{"name":"","type":"uint8","internalType":"uint8"}],"stateMutability":"view"},{"type":"function","name":"PT_SEND_AND_CALL","inputs":[],"outputs":[{"name":"","type":"uint8","internalType":"uint8"}],"stateMutability":"view"},{"type":"function","name":"SWAP_MAX_SLIPPAGE","inputs":[],"outputs":[{"name":"","type":"uint256","internalType":"uint256"}],"stateMutability":"view"},{"type":"function","name":"allowance","inputs":[{"name":"owner","type":"address","internalType":"address"},{"name":"spender","type":"address","internalType":"address"}],"outputs":[{"name":"","type":"uint256","internalType":"uint256"}],"stateMutability":"view"},{"type":"function","name":"approve","inputs":[{"name":"spender","type":"address","internalType":"address"},{"name":"amount","type":"uint256","internalType":"uint256"}],"outputs":[{"name":"","type":"bool","internalType":"bool"}],"stateMutability":"nonpayable"},{"type":"function","name":"balanceOf","inputs":[{"name":"account","type":"address","internalType":"address"}],"outputs":[{"name":"","type":"uint256","internalType":"uint256"}],"stateMutability":"view"},{"type":"function","name":"callOnOFTReceived","inputs":[{"name":"_srcChainId","type":"uint16","internalType":"uint16"},{"name":"_srcAddress","type":"bytes","internalType":"bytes"},{"name":"_nonce","type":"uint64","internalType":"uint64"},{"name":"_from","type":"bytes32","internalType":"bytes32"},{"name":"_to","type":"address","internalType":"address"},{"name":"_amount","type":"uint256","internalType":"uint256"},{"name":"_payload","type":"bytes","internalType":"bytes"},{"name":"_gasForCall","type":"uint256","internalType":"uint256"}],"outputs":[],"stateMutability":"nonpayable"},{"type":"function","name":"circulatingSupply","inputs":[],"outputs":[{"name":"","type":"uint256","internalType":"uint256"}],"stateMutability":"view"},{"type":"function","name":"cluster","inputs":[],"outputs":[{"name":"","type":"address","internalType":"contract ICluster"}],"stateMutability":"view"},{"type":"function","name":"creditedPackets","inputs":[{"name":"","type":"uint16","internalType":"uint16"},{"name":"","type":"bytes","internalType":"bytes"},{"name":"","type":"uint64","internalType":"uint64"}],"outputs":[{"name":"","type":"bool","internalType":"bool"}],"stateMutability":"view"},{"type":"function","name":"decimals","inputs":[],"outputs":[{"name":"","type":"uint8","internalType":"uint8"}],"stateMutability":"view"},{"type":"function","name":"decreaseAllowance","inputs":[{"name":"spender","type":"address","internalType":"address"},{"name":"subtractedValue","type":"uint256","internalType":"uint256"}],"outputs":[{"name":"","type":"bool","internalType":"bool"}],"stateMutability":"nonpayable"},{"type":"function","name":"erc20","inputs":[],"outputs":[{"name":"","type":"address","internalType":"address"}],"stateMutability":"view"},{"type":"function","name":"estimateSendAndCallFee","inputs":[{"name":"_dstChainId","type":"uint16","internalType":"uint16"},{"name":"_toAddress","type":"bytes32","internalType":"bytes32"},{"name":"_amount","type":"uint256","internalType":"uint256"},{"name":"_payload","type":"bytes","internalType":"bytes"},{"name":"_dstGasForCall","type":"uint64","internalType":"uint64"},{"name":"_useZro","type":"bool","internalType":"bool"},{"name":"_adapterParams","type":"bytes","internalType":"bytes"}],"outputs":[{"name":"nativeFee","type":"uint256","internalType":"uint256"},{"name":"zroFee","type":"uint256","internalType":"uint256"}],"stateMutability":"view"},{"type":"function","name":"estimateSendFee","inputs":[{"name":"_dstChainId","type":"uint16","internalType":"uint16"},{"name":"_toAddress","type":"bytes32","internalType":"bytes32"},{"name":"_amount","type":"uint256","internalType":"uint256"},{"name":"_useZro","type":"bool","internalType":"bool"},{"name":"_adapterParams","type":"bytes","internalType":"bytes"}],"outputs":[{"name":"nativeFee","type":"uint256","internalType":"uint256"},{"name":"zroFee","type":"uint256","internalType":"uint256"}],"stateMutability":"view"},{"type":"function","name":"exerciseOption","inputs":[{"name":"optionsData","type":"tuple","internalType":"struct ITapiocaOptionsBrokerCrossChain.IExerciseOptionsData","components":[{"name":"from","type":"address","internalType":"address"},{"name":"target","type":"address","internalType":"address"},{"name":"paymentTokenAmount","type":"uint256","internalType":"uint256"},{"name":"oTAPTokenID","type":"uint256","internalType":"uint256"},{"name":"paymentToken","type":"address","internalType":"address"},{"name":"tapAmount","type":"uint256","internalType":"uint256"}]},{"name":"lzData","type":"tuple","internalType":"struct ITapiocaOptionsBrokerCrossChain.IExerciseLZData","components":[{"name":"lzDstChainId","type":"uint16","internalType":"uint16"},{"name":"zroPaymentAddress","type":"address","internalType":"address"},{"name":"extraGas","type":"uint256","internalType":"uint256"}]},{"name":"tapSendData","type":"tuple","internalType":"struct ITapiocaOptionsBrokerCrossChain.IExerciseLZSendTapData","components":[{"name":"withdrawOnAnotherChain","type":"bool","internalType":"bool"},{"name":"tapOftAddress","type":"address","internalType":"address"},{"name":"lzDstChainId","type":"uint16","internalType":"uint16"},{"name":"amount","type":"uint256","internalType":"uint256"},{"name":"zroPaymentAddress","type":"address","internalType":"address"},{"name":"extraGas","type":"uint256","internalType":"uint256"}]},{"name":"approvals","type":"tuple[]","internalType":"struct ICommonData.IApproval[]","components":[{"name":"permitAll","type":"bool","internalType":"bool"},{"name":"allowFailure","type":"bool","internalType":"bool"},{"name":"yieldBoxTypeApproval","type":"bool","internalType":"bool"},{"name":"revokeYieldBox","type":"bool","internalType":"bool"},{"name":"actionType","type":"uint16","internalType":"uint16"},{"name":"target","type":"address","internalType":"address"},{"name":"permitBorrow","type":"bool","internalType":"bool"},{"name":"owner","type":"address","internalType":"address"},{"name":"spender","type":"address","internalType":"address"},{"name":"value","type":"uint256","internalType":"uint256"},{"name":"deadline","type":"uint256","internalType":"uint256"},{"name":"v","type":"uint8","internalType":"uint8"},{"name":"r","type":"bytes32","internalType":"bytes32"},{"name":"s","type":"bytes32","internalType":"bytes32"}]},{"name":"revokes","type":"tuple[]","internalType":"struct ICommonData.IApproval[]","components":[{"name":"permitAll","type":"bool","internalType":"bool"},{"name":"allowFailure","type":"bool","internalType":"bool"},{"name":"yieldBoxTypeApproval","type":"bool","internalType":"bool"},{"name":"revokeYieldBox","type":"bool","internalType":"bool"},{"name":"actionType","type":"uint16","internalType":"uint16"},{"name":"target","type":"address","internalType":"address"},{"name":"permitBorrow","type":"bool","internalType":"bool"},{"name":"owner","type":"address","internalType":"address"},{"name":"spender","type":"address","internalType":"address"},{"name":"value","type":"uint256","internalType":"uint256"},{"name":"deadline","type":"uint256","internalType":"uint256"},{"name":"v","type":"uint8","internalType":"uint8"},{"name":"r","type":"bytes32","internalType":"bytes32"},{"name":"s","type":"bytes32","internalType":"bytes32"}]},{"name":"adapterParams","type":"bytes","internalType":"bytes"}],"outputs":[],"stateMutability":"payable"},{"type":"function","name":"failedMessages","inputs":[{"name":"","type":"uint16","internalType":"uint16"},{"name":"","type":"bytes","internalType":"bytes"},{"name":"","type":"uint64","internalType":"uint64"}],"outputs":[{"name":"","type":"bytes32","internalType":"bytes32"}],"stateMutability":"view"},{"type":"function","name":"forceResumeReceive","inputs":[{"name":"_srcChainId","type":"uint16","internalType":"uint16"},{"name":"_srcAddress","type":"bytes","internalType":"bytes"}],"outputs":[],"stateMutability":"nonpayable"},{"type":"function","name":"getConfig","inputs":[{"name":"_version","type":"uint16","internalType":"uint16"},{"name":"_chainId","type":"uint16","internalType":"uint16"},{"name":"","type":"address","internalType":"address"},{"name":"_configType","type":"uint256","internalType":"uint256"}],"outputs":[{"name":"","type":"bytes","internalType":"bytes"}],"stateMutability":"view"},{"type":"function","name":"getTrustedRemoteAddress","inputs":[{"name":"_remoteChainId","type":"uint16","internalType":"uint16"}],"outputs":[{"name":"","type":"bytes","internalType":"bytes"}],"stateMutability":"view"},{"type":"function","name":"hostChainID","inputs":[],"outputs":[{"name":"","type":"uint256","internalType":"uint256"}],"stateMutability":"view"},{"type":"function","name":"increaseAllowance","inputs":[{"name":"spender","type":"address","internalType":"address"},{"name":"addedValue","type":"uint256","internalType":"uint256"}],"outputs":[{"name":"","type":"bool","internalType":"bool"}],"stateMutability":"nonpayable"},{"type":"function","name":"isTrustedRemote","inputs":[{"name":"_srcChainId","type":"uint16","internalType":"uint16"},{"name":"_srcAddress","type":"bytes","internalType":"bytes"}],"outputs":[{"name":"","type":"bool","internalType":"bool"}],"stateMutability":"view"},{"type":"function","name":"lzEndpoint","inputs":[],"outputs":[{"name":"","type":"address","internalType":"contract ILayerZeroEndpoint"}],"stateMutability":"view"},{"type":"function","name":"lzReceive","inputs":[{"name":"_srcChainId","type":"uint16","internalType":"uint16"},{"name":"_srcAddress","type":"bytes","internalType":"bytes"},{"name":"_nonce","type":"uint64","internalType":"uint64"},{"name":"_payload","type":"bytes","internalType":"bytes"}],"outputs":[],"stateMutability":"nonpayable"},{"type":"function","name":"minDstGasLookup","inputs":[{"name":"","type":"uint16","internalType":"uint16"},{"name":"","type":"uint16","internalType":"uint16"}],"outputs":[{"name":"","type":"uint256","internalType":"uint256"}],"stateMutability":"view"},{"type":"function","name":"name","inputs":[],"outputs":[{"name":"","type":"string","internalType":"string"}],"stateMutability":"view"},{"type":"function","name":"nonblockingLzReceive","inputs":[{"name":"_srcChainId","type":"uint16","internalType":"uint16"},{"name":"_srcAddress","type":"bytes","internalType":"bytes"},{"name":"_nonce","type":"uint64","internalType":"uint64"},{"name":"_payload","type":"bytes","internalType":"bytes"}],"outputs":[],"stateMutability":"nonpayable"},{"type":"function","name":"nonces","inputs":[{"name":"owner","type":"address","internalType":"address"}],"outputs":[{"name":"","type":"uint256","internalType":"uint256"}],"stateMutability":"view"},{"type":"function","name":"owner","inputs":[],"outputs":[{"name":"","type":"address","internalType":"address"}],"stateMutability":"view"},{"type":"function","name":"payloadSizeLimitLookup","inputs":[{"name":"","type":"uint16","internalType":"uint16"}],"outputs":[{"name":"","type":"uint256","internalType":"uint256"}],"stateMutability":"view"},{"type":"function","name":"permit","inputs":[{"name":"owner","type":"address","internalType":"address"},{"name":"spender","type":"address","internalType":"address"},{"name":"value","type":"uint256","internalType":"uint256"},{"name":"deadline","type":"uint256","internalType":"uint256"},{"name":"v","type":"uint8","internalType":"uint8"},{"name":"r","type":"bytes32","internalType":"bytes32"},{"name":"s","type":"bytes32","internalType":"bytes32"}],"outputs":[],"stateMutability":"nonpayable"},{"type":"function","name":"precrime","inputs":[],"outputs":[{"name":"","type":"address","internalType":"address"}],"stateMutability":"view"},{"type":"function","name":"removeCollateral","inputs":[{"name":"from","type":"address","internalType":"address"},{"name":"to","type":"address","internalType":"address"},{"name":"lzDstChainId","type":"uint16","internalType":"uint16"},{"name":"zroPaymentAddress","type":"address","internalType":"address"},{"name":"withdrawParams","type":"tuple","internalType":"struct ICommonData.IWithdrawParams","components":[{"name":"withdraw","type":"bool","internalType":"bool"},{"name":"withdrawLzFeeAmount","type":"uint256","internalType":"uint256"},{"name":"withdrawOnOtherChain","type":"bool","internalType":"bool"},{"name":"withdrawLzChainId","type":"uint16","internalType":"uint16"},{"name":"withdrawAdapterParams","type":"bytes","internalType":"bytes"},{"name":"unwrap","type":"bool","internalType":"bool"}]},{"name":"removeParams","type":"tuple","internalType":"struct ITapiocaOFT.IRemoveParams","components":[{"name":"amount","type":"uint256","internalType":"uint256"},{"name":"marketHelper","type":"address","internalType":"address"},{"name":"market","type":"address","internalType":"address"}]},{"name":"approvals","type":"tuple[]","internalType":"struct ICommonData.IApproval[]","components":[{"name":"permitAll","type":"bool","internalType":"bool"},{"name":"allowFailure","type":"bool","internalType":"bool"},{"name":"yieldBoxTypeApproval","type":"bool","internalType":"bool"},{"name":"revokeYieldBox","type":"bool","internalType":"bool"},{"name":"actionType","type":"uint16","internalType":"uint16"},{"name":"target","type":"address","internalType":"address"},{"name":"permitBorrow","type":"bool","internalType":"bool"},{"name":"owner","type":"address","internalType":"address"},{"name":"spender","type":"address","internalType":"address"},{"name":"value","type":"uint256","internalType":"uint256"},{"name":"deadline","type":"uint256","internalType":"uint256"},{"name":"v","type":"uint8","internalType":"uint8"},{"name":"r","type":"bytes32","internalType":"bytes32"},{"name":"s","type":"bytes32","internalType":"bytes32"}]},{"name":"revokes","type":"tuple[]","internalType":"struct ICommonData.IApproval[]","components":[{"name":"permitAll","type":"bool","internalType":"bool"},{"name":"allowFailure","type":"bool","internalType":"bool"},{"name":"yieldBoxTypeApproval","type":"bool","internalType":"bool"},{"name":"revokeYieldBox","type":"bool","internalType":"bool"},{"name":"actionType","type":"uint16","internalType":"uint16"},{"name":"target","type":"address","internalType":"address"},{"name":"permitBorrow","type":"bool","internalType":"bool"},{"name":"owner","type":"address","internalType":"address"},{"name":"spender","type":"address","internalType":"address"},{"name":"value","type":"uint256","internalType":"uint256"},{"name":"deadline","type":"uint256","internalType":"uint256"},{"name":"v","type":"uint8","internalType":"uint8"},{"name":"r","type":"bytes32","internalType":"bytes32"},{"name":"s","type":"bytes32","internalType":"bytes32"}]},{"name":"adapterParams","type":"bytes","internalType":"bytes"}],"outputs":[],"stateMutability":"payable"},{"type":"function","name":"renounceOwnership","inputs":[],"outputs":[],"stateMutability":"nonpayable"},{"type":"function","name":"rescueEth","inputs":[{"name":"amount","type":"uint256","internalType":"uint256"},{"name":"to","type":"address","internalType":"address"}],"outputs":[],"stateMutability":"nonpayable"},{"type":"function","name":"retrieveFromStrategy","inputs":[{"name":"from","type":"address","internalType":"address"},{"name":"amount","type":"uint256","internalType":"uint256"},{"name":"assetId","type":"uint256","internalType":"uint256"},{"name":"lzDstChainId","type":"uint16","internalType":"uint16"},{"name":"zroPaymentAddress","type":"address","internalType":"address"},{"name":"airdropAdapterParam","type":"bytes","internalType":"bytes"}],"outputs":[],"stateMutability":"payable"},{"type":"function","name":"retryMessage","inputs":[{"name":"_srcChainId","type":"uint16","internalType":"uint16"},{"name":"_srcAddress","type":"bytes","internalType":"bytes"},{"name":"_nonce","type":"uint64","internalType":"uint64"},{"name":"_payload","type":"bytes","internalType":"bytes"}],"outputs":[],"stateMutability":"payable"},{"type":"function","name":"sendAndCall","inputs":[{"name":"_from","type":"address","internalType":"address"},{"name":"_dstChainId","type":"uint16","internalType":"uint16"},{"name":"_toAddress","type":"bytes32","internalType":"bytes32"},{"name":"_amount","type":"uint256","internalType":"uint256"},{"name":"_payload","type":"bytes","internalType":"bytes"},{"name":"_dstGasForCall","type":"uint64","internalType":"uint64"},{"name":"_callParams","type":"tuple","internalType":"struct ICommonOFT.LzCallParams","components":[{"name":"refundAddress","type":"address","internalType":"address payable"},{"name":"zroPaymentAddress","type":"address","internalType":"address"},{"name":"adapterParams","type":"bytes","internalType":"bytes"}]}],"outputs":[],"stateMutability":"payable"},{"type":"function","name":"sendForLeverage","inputs":[{"name":"amount","type":"uint256","internalType":"uint256"},{"name":"leverageFor","type":"address","internalType":"address"},{"name":"lzData","type":"tuple","internalType":"struct IUSDOBase.ILeverageLZData","components":[{"name":"srcExtraGasLimit","type":"uint256","internalType":"uint256"},{"name":"lzSrcChainId","type":"uint16","internalType":"uint16"},{"name":"lzDstChainId","type":"uint16","internalType":"uint16"},{"name":"zroPaymentAddress","type":"address","internalType":"address"},{"name":"dstAirdropAdapterParam","type":"bytes","internalType":"bytes"},{"name":"srcAirdropAdapterParam","type":"bytes","internalType":"bytes"},{"name":"refundAddress","type":"address","internalType":"address"}]},{"name":"swapData","type":"tuple","internalType":"struct IUSDOBase.ILeverageSwapData","components":[{"name":"tokenOut","type":"address","internalType":"address"},{"name":"amountOutMin","type":"uint256","internalType":"uint256"},{"name":"data","type":"bytes","internalType":"bytes"}]},{"name":"externalData","type":"tuple","internalType":"struct IUSDOBase.ILeverageExternalContractsData","components":[{"name":"swapper","type":"address","internalType":"address"},{"name":"magnetar","type":"address","internalType":"address"},{"name":"tOft","type":"address","internalType":"address"},{"name":"srcMarket","type":"address","internalType":"address"}]}],"outputs":[],"stateMutability":"payable"},{"type":"function","name":"sendFrom","inputs":[{"name":"_from","type":"address","internalType":"address"},{"name":"_dstChainId","type":"uint16","internalType":"uint16"},{"name":"_toAddress","type":"bytes32","internalType":"bytes32"},{"name":"_amount","type":"uint256","internalType":"uint256"},{"name":"_callParams","type":"tuple","internalType":"struct ICommonOFT.LzCallParams","components":[{"name":"refundAddress","type":"address","internalType":"address payable"},{"name":"zroPaymentAddress","type":"address","internalType":"address"},{"name":"adapterParams","type":"bytes","internalType":"bytes"}]}],"outputs":[],"stateMutability":"payable"},{"type":"function","name":"sendToStrategy","inputs":[{"name":"from","type":"address","internalType":"address"},{"name":"to","type":"address","internalType":"address"},{"name":"amount","type":"uint256","internalType":"uint256"},{"name":"assetId","type":"uint256","internalType":"uint256"},{"name":"lzDstChainId","type":"uint16","internalType":"uint16"},{"name":"options","type":"tuple","internalType":"struct ICommonData.ISendOptions","components":[{"name":"extraGasLimit","type":"uint256","internalType":"uint256"},{"name":"zroPaymentAddress","type":"address","internalType":"address"}]}],"outputs":[],"stateMutability":"payable"},{"type":"function","name":"sendToYBAndBorrow","inputs":[{"name":"from","type":"address","internalType":"address"},{"name":"to","type":"address","internalType":"address"},{"name":"lzDstChainId","type":"uint16","internalType":"uint16"},{"name":"airdropAdapterParams","type":"bytes","internalType":"bytes"},{"name":"borrowParams","type":"tuple","internalType":"struct ITapiocaOFT.IBorrowParams","components":[{"name":"amount","type":"uint256","internalType":"uint256"},{"name":"borrowAmount","type":"uint256","internalType":"uint256"},{"name":"marketHelper","type":"address","internalType":"address"},{"name":"market","type":"address","internalType":"address"}]},{"name":"withdrawParams","type":"tuple","internalType":"struct ICommonData.IWithdrawParams","components":[{"name":"withdraw","type":"bool","internalType":"bool"},{"name":"withdrawLzFeeAmount","type":"uint256","internalType":"uint256"},{"name":"withdrawOnOtherChain","type":"bool","internalType":"bool"},{"name":"withdrawLzChainId","type":"uint16","internalType":"uint16"},{"name":"withdrawAdapterParams","type":"bytes","internalType":"bytes"},{"name":"unwrap","type":"bool","internalType":"bool"}]},{"name":"options","type":"tuple","internalType":"struct ICommonData.ISendOptions","components":[{"name":"extraGasLimit","type":"uint256","internalType":"uint256"},{"name":"zroPaymentAddress","type":"address","internalType":"address"}]},{"name":"approvals","type":"tuple[]","internalType":"struct ICommonData.IApproval[]","components":[{"name":"permitAll","type":"bool","internalType":"bool"},{"name":"allowFailure","type":"bool","internalType":"bool"},{"name":"yieldBoxTypeApproval","type":"bool","internalType":"bool"},{"name":"revokeYieldBox","type":"bool","internalType":"bool"},{"name":"actionType","type":"uint16","internalType":"uint16"},{"name":"target","type":"address","internalType":"address"},{"name":"permitBorrow","type":"bool","internalType":"bool"},{"name":"owner","type":"address","internalType":"address"},{"name":"spender","type":"address","internalType":"address"},{"name":"value","type":"uint256","internalType":"uint256"},{"name":"deadline","type":"uint256","internalType":"uint256"},{"name":"v","type":"uint8","internalType":"uint8"},{"name":"r","type":"bytes32","internalType":"bytes32"},{"name":"s","type":"bytes32","internalType":"bytes32"}]},{"name":"revokes","type":"tuple[]","internalType":"struct ICommonData.IApproval[]","components":[{"name":"permitAll","type":"bool","internalType":"bool"},{"name":"allowFailure","type":"bool","internalType":"bool"},{"name":"yieldBoxTypeApproval","type":"bool","internalType":"bool"},{"name":"revokeYieldBox","type":"bool","internalType":"bool"},{"name":"actionType","type":"uint16","internalType":"uint16"},{"name":"target","type":"address","internalType":"address"},{"name":"permitBorrow","type":"bool","internalType":"bool"},{"name":"owner","type":"address","internalType":"address"},{"name":"spender","type":"address","internalType":"address"},{"name":"value","type":"uint256","internalType":"uint256"},{"name":"deadline","type":"uint256","internalType":"uint256"},{"name":"v","type":"uint8","internalType":"uint8"},{"name":"r","type":"bytes32","internalType":"bytes32"},{"name":"s","type":"bytes32","internalType":"bytes32"}]}],"outputs":[],"stateMutability":"payable"},{"type":"function","name":"setCluster","inputs":[{"name":"_cluster","type":"address","internalType":"contract ICluster"}],"outputs":[],"stateMutability":"nonpayable"},{"type":"function","name":"setConfig","inputs":[{"name":"_version","type":"uint16","internalType":"uint16"},{"name":"_chainId","type":"uint16","internalType":"uint16"},{"name":"_configType","type":"uint256","internalType":"uint256"},{"name":"_config","type":"bytes","internalType":"bytes"}],"outputs":[],"stateMutability":"nonpayable"},{"type":"function","name":"setMaxSlippage","inputs":[{"name":"_slippage","type":"uint256","internalType":"uint256"}],"outputs":[],"stateMutability":"nonpayable"},{"type":"function","name":"setMinDstGas","inputs":[{"name":"_dstChainId","type":"uint16","internalType":"uint16"},{"name":"_packetType","type":"uint16","internalType":"uint16"},{"name":"_minGas","type":"uint256","internalType":"uint256"}],"outputs":[],"stateMutability":"nonpayable"},{"type":"function","name":"setPayloadSizeLimit","inputs":[{"name":"_dstChainId","type":"uint16","internalType":"uint16"},{"name":"_size","type":"uint256","internalType":"uint256"}],"outputs":[],"stateMutability":"nonpayable"},{"type":"function","name":"setPrecrime","inputs":[{"name":"_precrime","type":"address","internalType":"address"}],"outputs":[],"stateMutability":"nonpayable"},{"type":"function","name":"setReceiveVersion","inputs":[{"name":"_version","type":"uint16","internalType":"uint16"}],"outputs":[],"stateMutability":"nonpayable"},{"type":"function","name":"setSendVersion","inputs":[{"name":"_version","type":"uint16","internalType":"uint16"}],"outputs":[],"stateMutability":"nonpayable"},{"type":"function","name":"setStargateRouter","inputs":[{"name":"_router","type":"address","internalType":"address"}],"outputs":[],"stateMutability":"nonpayable"},{"type":"function","name":"setTrustedRemote","inputs":[{"name":"_srcChainId","type":"uint16","internalType":"uint16"},{"name":"_path","type":"bytes","internalType":"bytes"}],"outputs":[],"stateMutability":"nonpayable"},{"type":"function","name":"setTrustedRemoteAddress","inputs":[{"name":"_remoteChainId","type":"uint16","internalType":"uint16"},{"name":"_remoteAddress","type":"bytes","internalType":"bytes"}],"outputs":[],"stateMutability":"nonpayable"},{"type":"function","name":"setUseCustomAdapterParams","inputs":[{"name":"_useCustomAdapterParams","type":"bool","internalType":"bool"}],"outputs":[],"stateMutability":"nonpayable"},{"type":"function","name":"sgReceive","inputs":[{"name":"","type":"uint16","internalType":"uint16"},{"name":"","type":"bytes","internalType":"bytes"},{"name":"","type":"uint256","internalType":"uint256"},{"name":"","type":"address","internalType":"address"},{"name":"amountLD","type":"uint256","internalType":"uint256"},{"name":"","type":"bytes","internalType":"bytes"}],"outputs":[],"stateMutability":"nonpayable"},{"type":"function","name":"sharedDecimals","inputs":[],"outputs":[{"name":"","type":"uint8","internalType":"uint8"}],"stateMutability":"view"},{"type":"function","name":"supportsInterface","inputs":[{"name":"interfaceId","type":"bytes4","internalType":"bytes4"}],"outputs":[{"name":"","type":"bool","internalType":"bool"}],"stateMutability":"view"},{"type":"function","name":"symbol","inputs":[],"outputs":[{"name":"","type":"string","internalType":"string"}],"stateMutability":"view"},{"type":"function","name":"token","inputs":[],"outputs":[{"name":"","type":"address","internalType":"address"}],"stateMutability":"view"},{"type":"function","name":"totalSupply","inputs":[],"outputs":[{"name":"","type":"uint256","internalType":"uint256"}],"stateMutability":"view"},{"type":"function","name":"transfer","inputs":[{"name":"to","type":"address","internalType":"address"},{"name":"amount","type":"uint256","internalType":"uint256"}],"outputs":[{"name":"","type":"bool","internalType":"bool"}],"stateMutability":"nonpayable"},{"type":"function","name":"transferFrom","inputs":[{"name":"from","type":"address","internalType":"address"},{"name":"to","type":"address","internalType":"address"},{"name":"amount","type":"uint256","internalType":"uint256"}],"outputs":[{"name":"","type":"bool","internalType":"bool"}],"stateMutability":"nonpayable"},{"type":"function","name":"transferOwnership","inputs":[{"name":"newOwner","type":"address","internalType":"address"}],"outputs":[],"stateMutability":"nonpayable"},{"type":"function","name":"triggerApproveOrRevoke","inputs":[{"name":"lzDstChainId","type":"uint16","internalType":"uint16"},{"name":"lzCallParams","type":"tuple","internalType":"struct ICommonOFT.LzCallParams","components":[{"name":"refundAddress","type":"address","internalType":"address payable"},{"name":"zroPaymentAddress","type":"address","internalType":"address"},{"name":"adapterParams","type":"bytes","internalType":"bytes"}]},{"name":"approvals","type":"tuple[]","internalType":"struct ICommonData.IApproval[]","components":[{"name":"permitAll","type":"bool","internalType":"bool"},{"name":"allowFailure","type":"bool","internalType":"bool"},{"name":"yieldBoxTypeApproval","type":"bool","internalType":"bool"},{"name":"revokeYieldBox","type":"bool","internalType":"bool"},{"name":"actionType","type":"uint16","internalType":"uint16"},{"name":"target","type":"address","internalType":"address"},{"name":"permitBorrow","type":"bool","internalType":"bool"},{"name":"owner","type":"address","internalType":"address"},{"name":"spender","type":"address","internalType":"address"},{"name":"value","type":"uint256","internalType":"uint256"},{"name":"deadline","type":"uint256","internalType":"uint256"},{"name":"v","type":"uint8","internalType":"uint8"},{"name":"r","type":"bytes32","internalType":"bytes32"},{"name":"s","type":"bytes32","internalType":"bytes32"}]}],"outputs":[],"stateMutability":"payable"},{"type":"function","name":"triggerSendFrom","inputs":[{"name":"lzDstChainId","type":"uint16","internalType":"uint16"},{"name":"airdropAdapterParams","type":"bytes","internalType":"bytes"},{"name":"zroPaymentAddress","type":"address","internalType":"address"},{"name":"amount","type":"uint256","internalType":"uint256"},{"name":"sendFromData","type":"tuple","internalType":"struct ICommonOFT.LzCallParams","components":[{"name":"refundAddress","type":"address","internalType":"address payable"},{"name":"zroPaymentAddress","type":"address","internalType":"address"},{"name":"adapterParams","type":"bytes","internalType":"bytes"}]},{"name":"approvals","type":"tuple[]","internalType":"struct ICommonData.IApproval[]","components":[{"name":"permitAll","type":"bool","internalType":"bool"},{"name":"allowFailure","type":"bool","internalType":"bool"},{"name":"yieldBoxTypeApproval","type":"bool","internalType":"bool"},{"name":"revokeYieldBox","type":"bool","internalType":"bool"},{"name":"actionType","type":"uint16","internalType":"uint16"},{"name":"target","type":"address","internalType":"address"},{"name":"permitBorrow","type":"bool","internalType":"bool"},{"name":"owner","type":"address","internalType":"address"},{"name":"spender","type":"address","internalType":"address"},{"name":"value","type":"uint256","internalType":"uint256"},{"name":"deadline","type":"uint256","internalType":"uint256"},{"name":"v","type":"uint8","internalType":"uint8"},{"name":"r","type":"bytes32","internalType":"bytes32"},{"name":"s","type":"bytes32","internalType":"bytes32"}]},{"name":"revokes","type":"tuple[]","internalType":"struct ICommonData.IApproval[]","components":[{"name":"permitAll","type":"bool","internalType":"bool"},{"name":"allowFailure","type":"bool","internalType":"bool"},{"name":"yieldBoxTypeApproval","type":"bool","internalType":"bool"},{"name":"revokeYieldBox","type":"bool","internalType":"bool"},{"name":"actionType","type":"uint16","internalType":"uint16"},{"name":"target","type":"address","internalType":"address"},{"name":"permitBorrow","type":"bool","internalType":"bool"},{"name":"owner","type":"address","internalType":"address"},{"name":"spender","type":"address","internalType":"address"},{"name":"value","type":"uint256","internalType":"uint256"},{"name":"deadline","type":"uint256","internalType":"uint256"},{"name":"v","type":"uint8","internalType":"uint8"},{"name":"r","type":"bytes32","internalType":"bytes32"},{"name":"s","type":"bytes32","internalType":"bytes32"}]}],"outputs":[],"stateMutability":"payable"},{"type":"function","name":"triggerSendFromWithParams","inputs":[{"name":"from","type":"address","internalType":"address"},{"name":"lzDstChainId","type":"uint16","internalType":"uint16"},{"name":"to","type":"bytes32","internalType":"bytes32"},{"name":"amount","type":"uint256","internalType":"uint256"},{"name":"callParams","type":"tuple","internalType":"struct ICommonOFT.LzCallParams","components":[{"name":"refundAddress","type":"address","internalType":"address payable"},{"name":"zroPaymentAddress","type":"address","internalType":"address"},{"name":"adapterParams","type":"bytes","internalType":"bytes"}]},{"name":"unwrap","type":"bool","internalType":"bool"},{"name":"approvals","type":"tuple[]","internalType":"struct ICommonData.IApproval[]","components":[{"name":"permitAll","type":"bool","internalType":"bool"},{"name":"allowFailure","type":"bool","internalType":"bool"},{"name":"yieldBoxTypeApproval","type":"bool","internalType":"bool"},{"name":"revokeYieldBox","type":"bool","internalType":"bool"},{"name":"actionType","type":"uint16","internalType":"uint16"},{"name":"target","type":"address","internalType":"address"},{"name":"permitBorrow","type":"bool","internalType":"bool"},{"name":"owner","type":"address","internalType":"address"},{"name":"spender","type":"address","internalType":"address"},{"name":"value","type":"uint256","internalType":"uint256"},{"name":"deadline","type":"uint256","internalType":"uint256"},{"name":"v","type":"uint8","internalType":"uint8"},{"name":"r","type":"bytes32","internalType":"bytes32"},{"name":"s","type":"bytes32","internalType":"bytes32"}]},{"name":"revokes","type":"tuple[]","internalType":"struct ICommonData.IApproval[]","components":[{"name":"permitAll","type":"bool","internalType":"bool"},{"name":"allowFailure","type":"bool","internalType":"bool"},{"name":"yieldBoxTypeApproval","type":"bool","internalType":"bool"},{"name":"revokeYieldBox","type":"bool","internalType":"bool"},{"name":"actionType","type":"uint16","internalType":"uint16"},{"name":"target","type":"address","internalType":"address"},{"name":"permitBorrow","type":"bool","internalType":"bool"},{"name":"owner","type":"address","internalType":"address"},{"name":"spender","type":"address","internalType":"address"},{"name":"value","type":"uint256","internalType":"uint256"},{"name":"deadline","type":"uint256","internalType":"uint256"},{"name":"v","type":"uint8","internalType":"uint8"},{"name":"r","type":"bytes32","internalType":"bytes32"},{"name":"s","type":"bytes32","internalType":"bytes32"}]}],"outputs":[],"stateMutability":"payable"},{"type":"function","name":"trustedRemoteLookup","inputs":[{"name":"","type":"uint16","internalType":"uint16"}],"outputs":[{"name":"","type":"bytes","internalType":"bytes"}],"stateMutability":"view"},{"type":"function","name":"useCustomAdapterParams","inputs":[],"outputs":[{"name":"","type":"bool","internalType":"bool"}],"stateMutability":"view"},{"type":"function","name":"vault","inputs":[],"outputs":[{"name":"","type":"address","internalType":"contract TOFTVault"}],"stateMutability":"view"},{"type":"function","name":"yieldBox","inputs":[],"outputs":[{"name":"","type":"address","internalType":"contract IYieldBoxBase"}],"stateMutability":"view"},{"type":"event","name":"Approval","inputs":[{"name":"owner","type":"address","indexed":true,"internalType":"address"},{"name":"spender","type":"address","indexed":true,"internalType":"address"},{"name":"value","type":"uint256","indexed":false,"internalType":"uint256"}],"anonymous":false},{"type":"event","name":"CallOFTReceivedSuccess","inputs":[{"name":"_srcChainId","type":"uint16","indexed":true,"internalType":"uint16"},{"name":"_srcAddress","type":"bytes","indexed":false,"internalType":"bytes"},{"name":"_nonce","type":"uint64","indexed":false,"internalType":"uint64"},{"name":"_hash","type":"bytes32","indexed":false,"internalType":"bytes32"}],"anonymous":false},{"type":"event","name":"MessageFailed","inputs":[{"name":"_srcChainId","type":"uint16","indexed":false,"internalType":"uint16"},{"name":"_srcAddress","type":"bytes","indexed":false,"internalType":"bytes"},{"name":"_nonce","type":"uint64","indexed":false,"internalType":"uint64"},{"name":"_payload","type":"bytes","indexed":false,"internalType":"bytes"},{"name":"_reason","type":"bytes","indexed":false,"internalType":"bytes"}],"anonymous":false},{"type":"event","name":"NonContractAddress","inputs":[{"name":"_address","type":"address","indexed":false,"internalType":"address"}],"anonymous":false},{"type":"event","name":"OwnershipTransferred","inputs":[{"name":"previousOwner","type":"address","indexed":true,"internalType":"address"},{"name":"newOwner","type":"address","indexed":true,"internalType":"address"}],"anonymous":false},{"type":"event","name":"ReceiveFromChain","inputs":[{"name":"_srcChainId","type":"uint16","indexed":true,"internalType":"uint16"},{"name":"_to","type":"address","indexed":true,"internalType":"address"},{"name":"_amount","type":"uint256","indexed":false,"internalType":"uint256"}],"anonymous":false},{"type":"event","name":"RetryMessageSuccess","inputs":[{"name":"_srcChainId","type":"uint16","indexed":false,"internalType":"uint16"},{"name":"_srcAddress","type":"bytes","indexed":false,"internalType":"bytes"},{"name":"_nonce","type":"uint64","indexed":false,"internalType":"uint64"},{"name":"_payloadHash","type":"bytes32","indexed":false,"internalType":"bytes32"}],"anonymous":false},{"type":"event","name":"SendToChain","inputs":[{"name":"_dstChainId","type":"uint16","indexed":true,"internalType":"uint16"},{"name":"_from","type":"address","indexed":true,"internalType":"address"},{"name":"_toAddress","type":"bytes32","indexed":true,"internalType":"bytes32"},{"name":"_amount","type":"uint256","indexed":false,"internalType":"uint256"}],"anonymous":false},{"type":"event","name":"SetMinDstGas","inputs":[{"name":"_dstChainId","type":"uint16","indexed":false,"internalType":"uint16"},{"name":"_type","type":"uint16","indexed":false,"internalType":"uint16"},{"name":"_minDstGas","type":"uint256","indexed":false,"internalType":"uint256"}],"anonymous":false},{"type":"event","name":"SetPrecrime","inputs":[{"name":"precrime","type":"address","indexed":false,"internalType":"address"}],"anonymous":false},{"type":"event","name":"SetTrustedRemote","inputs":[{"name":"_remoteChainId","type":"uint16","indexed":false,"internalType":"uint16"},{"name":"_path","type":"bytes","indexed":false,"internalType":"bytes"}],"anonymous":false},{"type":"event","name":"SetTrustedRemoteAddress","inputs":[{"name":"_remoteChainId","type":"uint16","indexed":false,"internalType":"uint16"},{"name":"_remoteAddress","type":"bytes","indexed":false,"internalType":"bytes"}],"anonymous":false},{"type":"event","name":"SetUseCustomAdapterParams","inputs":[{"name":"_useCustomAdapterParams","type":"bool","indexed":false,"internalType":"bool"}],"anonymous":false},{"type":"event","name":"Transfer","inputs":[{"name":"from","type":"address","indexed":true,"internalType":"address"},{"name":"to","type":"address","indexed":true,"internalType":"address"},{"name":"value","type":"uint256","indexed":false,"internalType":"uint256"}],"anonymous":false},{"type":"error","name":"AllowanceNotValid","inputs":[]},{"type":"error","name":"Failed","inputs":[]},{"type":"error","name":"NotAuthorized","inputs":[]},{"type":"error","name":"NotValid","inputs":[]}],"bytecode":{"object":"0x6102206040523462000f9557620070298038038091620000228261022062000fb6565b61022039610220818101911262000f95576200004061022062000fda565b6101c0526200005161024062000fda565b6101a052610260516001600160a01b038116810362000f955761028051916001600160a01b038316830362000f95576102a0516001600160401b03811162000f955781620000a3916102200162001014565b6102c05190916001600160401b03821162000f9557620000c7916102200162001014565b9160c061022001519360ff8516850362000f955761030051610320519095906001600160a01b038116810362000f955761034051916001600160a01b038316830362000f955761036051956001600160a01b038716870362000f9557610380516102008190526001600160a01b0381160362000f95576103a051946001600160a01b038616860362000f95576103c051966001600160a01b038816880362000f95576103e0519a6001600160a01b038c168c0362000f955761040051946001600160a01b038616860362000f9557610420519b6001600160a01b038d168d0362000f9557604051956a546170696f63614f46542d60a81b6020880152620001ef602b888351620001de818484016020880162000fef565b810103600b81018a52018862000fb6565b62000201604051806101e05262000f9a565b60016101e05152603160f81b60206101e05101526200025a602b60405180936a546170696f63614f46542d60a81b602083015262000249815180926020868601910162000fef565b810103600b81018452018262000fb6565b6200029560216040518094601d60fa1b602083015262000284815180926020868601910162000fef565b810103600181018552018362000fb6565b60008054336001600160a01b0319821681178355916001600160a01b03909116907f8be0079c531659141344cd1fd0a4f28419497f9722a3daafe3b4186f6b6457e09080a36101c0516001600160a01b0316608052600183901c607f1660a0528051906001600160401b03821162000cb857600b5490600182811c9216801562000f8a575b602083101462000e5c5781601f84931162000f18575b50602090601f831160011462000e895760009262000e7d575b50508160011b916000199060031b1c191617600b555b8051906001600160401b03821162000cb857600c5490600182811c9216801562000e72575b602083101462000e5c5781601f84931162000dea575b50602090601f831160011462000d5b5760009262000d4f575b50508160011b916000199060031b1c191617600c555b60ff620003d56200106f565b1680607f8360011c161162000cfa57607f8260011c1690039060ff821162000ce457604d60ff83161162000ce45760ff809216600a0a60c0526101f460125560018060a01b036101a0511660018060a01b0319600f541617600f551660ff19601154161760115560105560018060a01b031660018060a01b0319600d541617600d5560018060a01b031660018060a01b0319600e541617600e5560208151910120976101e05160208151910120896101405280610160524661010052604051996000805160206200700983398151915260208c015260408b015260608a01524660808a01523060a08a015260a089528860c081011060018060401b0360c08b01111762000cb85760c08901604081905289516020808c019190912060e05230610120526000805160206200700983398151915261018052601680546001600160a01b039687166001600160a01b031991821681179092556017805498881698821689179055601880549b88169b82168c179055610200516019805491891691831682179055601a80549a89169a83168b179055601b80549b89169b83168c179055601c805496891696831687179055601d805497891697831688179055601e80549d9098169c82168d1790975560139092527f4155c2f711f2cdd34f8262ab8fb9b7020a700fe7b6948222152f7670d1fdf34d80548316909b17909a557f7b49122965436243734b7a552847e7503db682b4cbd4d2fd428feb216e8bcdf8805482169093179092557f76aa7d3cd4f559a3c98822aa7e1c37143eb9f80ceff73a5023a8fc3d6d44af61805483169093179092557f0b9d2c0c271bb30544eb78c59bdaebdae2728e5f65814c07768a0abe90ed1923805482169098179097557f0d2a6872ef858a7f8ead18dc4f3f2e8d35c853d47e2816cbb9cdd49202554e0c805488169093179092557f709d0e3cf89777a1e1f9c99632e4494f29b0327befd0df15e277a12d94825795805487169093179092557f8ba6fb577925b0796671c737df59b8aaae861b630513fb12823699e3e0e3ee60805486169093179092557f01413ff7a3b1d5b6c016c061d48e2c7014700c777a29fcd068fff04265813d5d8054851690931790925560056000527ff4b2859895858d6aa26d656e4999d552f6a869b74c43bba7d2a941c4d22c355980549093169091179091556200073b9062000f9a565b600560c0820190815263969bfdc360e01b60e09092019182526103026000526022602052517fbb201f9b1c609cd37a78c352121e2aea895b6e44bce534ae7bd8d907a4844a3291600a82101562000cce5760ff64ffffffff008454925160d81c1692169064ffffffffff191617179055604051620007b98162000f9a565b60058152634db96f5560e01b6020808301919091526103036000526022905280517f26acd582accdc3152cfe882b07ca1f82b883d3fee50b5d88e49d481a6be464d791600a82101562000cce5760ff64ffffffff006020855493015160d81c1692169064ffffffffff191617179055604051620008368162000f9a565b600781526313030a6160e31b6020808301919091526103046000526022905280517f4b0b6542cc9958aae3f2888e272b7ab3c451e3776f4771bd81d1777057a3647791600a82101562000cce5760ff64ffffffff006020855493015160d81c1692169064ffffffffff191617179055604051620008b38162000f9a565b60078152631789153d60e31b6020808301919091526103076000526022905280517fb0fe59244d754fc595a830f0987e57a854dc67e6ba867249a96f5773fe2bc07091600a82101562000cce5760ff64ffffffff006020855493015160d81c1692169064ffffffffff191617179055604051620009308162000f9a565b6003815263bafb655d60e01b6020808301919091526103086000526022905280517f01d2d015de0d2c2626882da5be80aae00ac6b74a5a18a13bd1f3600b0136132991600a82101562000cce5760ff64ffffffff006020855493015160d81c1692169064ffffffffff191617179055604051620009ad8162000f9a565b600981526381618d0560e01b6020808301919091526103096000526022905280517f8756216796a95529f13204130c91b7c1c4d66686c2c0748ecb8dfc6ea0116c1291600a82101562000cce5760ff64ffffffff006020855493015160d81c1692169064ffffffffff19161717905560405162000a2a8162000f9a565b6001815263af2ee97560e01b60208083019190915261030a6000526022905280517f7510072e783b31c8b84029af31ae7733bbfed7dc494e7767f9d4e480652f8bd891600a82101562000cce5760ff64ffffffff006020855493015160d81c1692169064ffffffffff19161717905560405162000aa78162000f9a565b6001815263ee75f25d60e01b60208083019190915261030b6000526022905280517f2c124f81185aa805b12ffb8e8f0e4e53d0fb70b4e8dfacdaaa43e9def6da994a91600a82101562000cce5760ff64ffffffff006020855493015160d81c1692169064ffffffffff19161717905560405162000b248162000f9a565b6001815263bda6ce2160e01b602080830191825261030c6000526022905290517f301e90e6465018495ee899d06e83a22ebcfdc912ba62d30c5e354d370452dd9d91600a82101562000cce5760ff64ffffffff008454925160d81c1692169064ffffffffff1916171790556040516105a48082019082821060018060401b0383111762000cb857602091839162006a6583396101a0516001600160a01b031681520301906000f0801562000cac57602180546001600160a01b0319166001600160a01b03929092169190911790556040516159df90816200108682396080518181816105c8015281816108aa01528181610ca601528181610e49015281816110080152818161245c015281816125fc01528181612e8d015281816149a00152614c74015260a05181611ca8015260c051818181614df601528181614fea0152818161525b01526152f5015260e0518161420f015261010051816142ca015261012051816141d90152610140518161425e015261016051816142840152610180518161423b0152f35b6040513d6000823e3d90fd5b634e487b7160e01b600052604160045260246000fd5b634e487b7160e01b600052602160045260246000fd5b634e487b7160e01b600052601160045260246000fd5b60405162461bcd60e51b815260206004820152602760248201527f4f46543a20736861726564446563696d616c73206d757374206265203c3d20646044820152666563696d616c7360c81b6064820152608490fd5b015190503880620003b3565b600c600090815293507fdf6966c971051c3d54ec59162606531493a51404a002842f56009d7e5cf4a8c791905b601f198416851062000dce576001945083601f1981161062000db4575b505050811b01600c55620003c9565b015160001960f88460031b161c1916905538808062000da5565b8181015183556020948501946001909301929091019062000d88565b600c6000529091507fdf6966c971051c3d54ec59162606531493a51404a002842f56009d7e5cf4a8c7601f840160051c81016020851062000e54575b90849392915b601f830160051c8201811062000e445750506200039a565b6000815585945060010162000e2c565b508062000e26565b634e487b7160e01b600052602260045260246000fd5b91607f169162000384565b01519050388062000349565b600b600090815293507f0175b7a638427703f0dbe7bb9bbf987a2551717b34e79f33b5b1008d1fa01db991905b601f198416851062000efc576001945083601f1981161062000ee2575b505050811b01600b556200035f565b015160001960f88460031b161c1916905538808062000ed3565b8181015183556020948501946001909301929091019062000eb6565b600b6000529091507f0175b7a638427703f0dbe7bb9bbf987a2551717b34e79f33b5b1008d1fa01db9601f840160051c81016020851062000f82575b90849392915b601f830160051c8201811062000f7257505062000330565b6000815585945060010162000f5a565b508062000f54565b91607f16916200031a565b600080fd5b604081019081106001600160401b0382111762000cb857604052565b601f909101601f19168101906001600160401b0382119082101762000cb857604052565b51906001600160a01b038216820362000f9557565b60005b838110620010035750506000910152565b818101518382015260200162000ff2565b81601f8201121562000f955780516001600160401b03811162000cb857604051926200104b601f8301601f19166020018562000fb6565b8184526020828401011162000f95576200106c916020808501910162000fef565b90565b60ff6011541680156200107f5790565b5060129056fe6080604052600436101561001b575b361561001957600080fd5b005b60003560e01c80621d3567146104af57806254af3a146104aa57806301ffc9a7146104a557806306fdde03146104a057806307e0db171461049b578063095ea7b3146104965780630df37483146104915780630ed9e4061461048c5780630fb6ba591461048757806310ddb1371461048257806318160ddd146103ec57806323b872dd1461047d578063313ce567146104785780633644e51514610473578063365260b41461046e57806339509351146104695780633d8b38f6146104645780633f1f4fa41461045f57806342d65a8d1461045a578063437be6221461045557806343f68a4914610450578063447705151461044b5780634c42899a1461044b5780634e8eeae9146104465780634fd7e9f61461044157806351b78b471461043c57806357ba399b146104375780635b8c41e61461043257806366ad5c8a1461042d578063695ef6bf1461042857806370a0823114610423578063715018a61461041e5780637533d7881461041957806376203b4814610414578063785e9e861461040f578063796fd43a1461040a5780637c875ea0146104055780637ecebe0014610400578063857749b0146103fb5780638cfd8f5c146103f65780638da5cb5b146103f15780639358928b146103ec578063950c8a74146103e757806395d89b41146103e25780639bdb9812146103dd5780639f38369a146103d8578063a457c2d7146103d3578063a4c51df5146103ce578063a643c52e146103c9578063a6c3d165146103c4578063a9059cbb146103bf578063ab8236f3146103ba578063afa61ff9146103b5578063b25ea8fb146103b0578063b353aaa7146103ab578063baf3292d146103a6578063c20d362f146103a1578063c44618341461039c578063cbed8b9c14610397578063d1deba1f14610392578063d505accf1461038d578063dbd01de114610388578063dd62ed3e14610383578063de4065771461037e578063df2a5b3b14610379578063e6a20ae614610374578063eab45d9c1461036f578063eaffd49a1461036a578063eb8d72b714610365578063ed629c5c14610360578063f2fde38b1461035b578063f5ecbdbc14610356578063fbfa77cf146103515763fc0c546a0361000e57612f20565b612ef7565b612e2b565b612d64565b612d41565b612bf7565b612b72565b612b10565b612af4565b612a0f565b6129e6565b61298c565b612963565b612802565b612681565b6125b0565b612593565b6124fb565b61248b565b612446565b6123f1565b61233a565b612215565b6121eb565b612068565b61204a565b611fb7565b611ef9565b611e5a565b611e0f565b611d68565b611d3f565b610d07565b611d16565b611ccc565b611c8e565b611c51565b611bbc565b611a3e565b611a04565b6117c6565b611773565b61162d565b6115f0565b6114ff565b611479565b611412565b6112ed565b6112a6565b611205565b611178565b6110eb565b6110ca565b61106f565b610fee565b610fb9565b610f5d565b610ec7565b610dc3565b610d8b565b610d65565b610d25565b610c81565b610bee565b610b0b565b6109a7565b610972565b610885565b6107a0565b6106ee565b6106d0565b6105b1565b6004359061ffff821682036104c557565b600080fd5b6064359061ffff821682036104c557565b6084359061ffff821682036104c557565b6044359061ffff821682036104c557565b6024359061ffff821682036104c557565b359061ffff821682036104c557565b9181601f840112156104c5578235916001600160401b0383116104c557602083818601950101116104c557565b9060806003198301126104c55760043561ffff811681036104c557916001600160401b03906024358281116104c557816105869160040161051d565b9390939260443581811681036104c557926064359182116104c5576105ad9160040161051d565b9091565b346104c5576105bf3661054a565b929493919291907f00000000000000000000000000000000000000000000000000000000000000006001600160a01b031633036106805761064561064d926100199761063e61062461061f8a61ffff166000526001602052604060002090565b611758565b8051908184149182610676575b5081610653575b50614321565b3691610ab9565b923691610ab9565b9261443f565b9050610660368486610ab9565b6020815191012090602081519101201438610638565b1515915038610631565b60405162461bcd60e51b815260206004820152601e60248201527f4c7a4170703a20696e76616c696420656e64706f696e742063616c6c657200006044820152606490fd5b60009103126104c557565b346104c55760003660031901126104c5576020601054604051908152f35b346104c55760203660031901126104c55760043563ffffffff60e01b81168091036104c557602090631f7ecdf760e01b8114908115610733575b506040519015158152f35b6301ffc9a760e01b14905038610728565b60005b8381106107575750506000910152565b8181015183820152602001610747565b9060209161078081518092818552858086019101610744565b601f01601f1916010190565b90602061079d928181520190610767565b90565b346104c557600080600319360112610882576040519080600b546107c381611688565b8085529160019180831690811561085857506001146107fd575b6107f9856107ed81870382610a7d565b6040519182918261078c565b0390f35b9250600b83527f0175b7a638427703f0dbe7bb9bbf987a2551717b34e79f33b5b1008d1fa01db95b8284106108405750505081016020016107ed826107f96107dd565b80546020858701810191909152909301928101610825565b8695506107f9969350602092506107ed94915060ff191682840152151560051b82010192936107dd565b80fd5b346104c55760006020366003190112610882576108a06104b4565b6108a8613a15565b7f00000000000000000000000000000000000000000000000000000000000000006001600160a01b0316908290823b1561091c57602461ffff918360405195869485936307e0db1760e01b85521660048401525af180156109175761090b575080f35b610914906109f8565b80f35b6136eb565b5080fd5b6001600160a01b038116036104c557565b6004359061093e82610920565b565b6024359061093e82610920565b6064359061093e82610920565b6044359061093e82610920565b359061093e82610920565b346104c55760403660031901126104c55761099c60043561099281610920565b6024359033613c67565b602060405160018152f35b346104c55760403660031901126104c55761ffff6109c36104b4565b6109cb613a15565b166000526003602052602435604060002055600080f35b634e487b7160e01b600052604160045260246000fd5b6001600160401b038111610a0b57604052565b6109e2565b61012081019081106001600160401b03821117610a0b57604052565b604081019081106001600160401b03821117610a0b57604052565b608081019081106001600160401b03821117610a0b57604052565b60c081019081106001600160401b03821117610a0b57604052565b90601f801991011681019081106001600160401b03821117610a0b57604052565b6001600160401b038111610a0b57601f01601f191660200190565b929192610ac582610a9e565b91610ad36040519384610a7d565b8294818452818301116104c5578281602093846000960137010152565b9080601f830112156104c55781602061079d93359101610ab9565b60c03660031901126104c557600435610b2381610920565b610b2b6104ca565b9060843590610b3982610920565b60a435926001600160401b0384116104c557610bb761ffff93610bc593610b67610019973690600401610af0565b9160405196879563076cf20360e11b602088015260018060a01b038094166024880152602435604488015260443560648801521660848601521660a484015260c060c484015260e4830190610767565b03601f198101835282610a7d565b613727565b60409060a31901126104c55760a490565b6040906101231901126104c55761012490565b60e03660031901126104c557610019600435610c0981610920565b610c7460243591610c1983610920565b61ffff610c246104db565b610c2d36610bca565b9260405195630fb6ba5960e01b602088015260018060a01b038092166024880152166044860152604435606486015260643560848601521660a484015260c48301906132f0565b60e48152610bc581610a10565b346104c5576000602036600319011261088257610c9c6104b4565b610ca4613a15565b7f00000000000000000000000000000000000000000000000000000000000000006001600160a01b0316908290823b1561091c57602461ffff918360405195869485936310ddb13760e01b85521660048401525af180156109175761090b575080f35b346104c55760003660031901126104c5576020600a54604051908152f35b346104c55760603660031901126104c55761099c600435610d4581610920565b602435610d5181610920565b60443591610d60833383613d92565b613b5f565b346104c55760003660031901126104c5576020610d80612f3b565b60ff60405191168152f35b346104c55760003660031901126104c5576020610da66141d6565b604051908152f35b801515036104c557565b359061093e82610dae565b346104c55760a03660031901126104c557610ddc6104b4565b60643590610de982610dae565b608435906001600160401b0382116104c557610e0e61063e604093369060040161051d565b90610e45610e28610e20604435615259565b60243561532a565b928451958694859463040a7bb160e41b8652309060048701614b48565b03817f00000000000000000000000000000000000000000000000000000000000000006001600160a01b03165afa908115610917576000908192610e96575b50604080519182526020820192909252f35b9050610eb9915060403d8111610ec0575b610eb18183610a7d565b810190614b32565b9038610e84565b503d610ea7565b346104c55760403660031901126104c557600435610ee481610920565b3360009081526009602090815260408083206001600160a01b03851684529091529020546024358101809111610f1e5761099c9133613c67565b613a6d565b9060406003198301126104c55760043561ffff811681036104c55791602435906001600160401b0382116104c5576105ad9160040161051d565b346104c557602061ffff610faa610f7336610f23565b9390911660005260018452610f95610f9c6040600020604051928380926116c2565b0382610a7d565b848151910120923691610ab9565b82815191012014604051908152f35b346104c55760203660031901126104c55761ffff610fd56104b4565b1660005260036020526020604060002054604051908152f35b346104c557610ffc36610f23565b9190611006613a15565b7f00000000000000000000000000000000000000000000000000000000000000006001600160a01b031691823b156104c557604051928380926342d65a8d60e01b82528161105d60009889978894600485016143b2565b03925af180156109175761090b575080f35b346104c55760203660031901126104c55760043561108c81610920565b6001600160a01b031680156110b8576bffffffffffffffffffffffff60a01b600e541617600e55600080f35b60405163f1640ae160e01b8152600490fd5b346104c55760203660031901126104c5576110e3613a15565b600435601255005b346104c55760003660031901126104c557602060405160008152f35b60c0906101231901126104c55761012490565b908160c09103126104c55790565b60609060a31901126104c55760a490565b908160609103126104c55790565b9181601f840112156104c5578235916001600160401b0383116104c5576020808501946101c085020101116104c557565b366003190161024081126104c55760c0136104c55760603660c31901126104c5576111a236611107565b6001600160401b03906101e4358281116104c5576111c4903690600401611147565b610204929192358481116104c5576111e0903690600401611147565b91610224359586116104c5576111fd61001996369060040161051d565b959094613494565b60603660031901126104c5576112196104b4565b6001600160401b036024358181116104c557611239903690600401611139565b6044359182116104c55761001992610bb76112a19261128f61126261ffff963690600401611147565b9190926040519788966327ebf4fb60e11b6020890152166024870152606060448701526084860190613571565b848103602319016064860152916130ec565b6137c1565b346104c55760203660031901126104c5576004356112c381610920565b6112cb613a15565b602080546001600160a01b0319166001600160a01b0392909216919091179055005b6101603660031901126104c557611302610931565b61130a610940565b6113126104ec565b9161131b61094d565b6001600160401b03936084358581116104c55761133c90369060040161111a565b61134536611128565b90610104358781116104c55761135f903690600401611147565b929091610124358981116104c55761137b903690600401611147565b969095610144359a8b116104c55761139a6100199b369060040161051d565b9a9099613223565b60606003198201126104c55760043561ffff811681036104c557916024356001600160401b03928382116104c5576113dc91600401610af0565b9160443590811681036104c55790565b602090611406928260405194838680955193849201610744565b82019081520301902090565b346104c557602061147061ffff61144f8361142c366113a2565b949091166000526005825260406000208260405194838680955193849201610744565b820190815203019020906001600160401b0316600052602052604060002090565b54604051908152f35b346104c5576114873661054a565b91929493903033036114ab576106456114a592610019973691610ab9565b92614607565b60405162461bcd60e51b815260206004820152602660248201527f4e6f6e626c6f636b696e674c7a4170703a2063616c6c6572206d7573742062656044820152650204c7a4170760d41b6064820152608490fd5b60a03660031901126104c55760043561151781610920565b61151f6104fd565b604435916084356001600160401b0381116104c557602061ffff6115687fd81fc9b8523134ed613870ed029d6170cbb73aa6a6bc311b9a642689fb9df59a933690600401611139565b936115db853561157781610920565b61159561063e868901359861158b8a610920565b604081019061491e565b61159f818a615156565b6115b46115ad6064356152f3565b5085615502565b976115c0891515614b8c565b6115d26115cc8a615259565b8c61532a565b9234938b614c30565b6040519485526001600160a01b0316941692a4005b346104c55760203660031901126104c55760043561160d81610920565b60018060a01b031660005260086020526020604060002054604051908152f35b346104c55760008060031936011261088257611647613a15565b80546001600160a01b03198116825581906001600160a01b03167f8be0079c531659141344cd1fd0a4f28419497f9722a3daafe3b4186f6b6457e08280a380f35b90600182811c921680156116b8575b60208310146116a257565b634e487b7160e01b600052602260045260246000fd5b91607f1691611697565b90600092918054916116d383611688565b91828252600193848116908160001461173557506001146116f5575b50505050565b90919394506000526020928360002092846000945b8386106117215750505050010190388080806116ef565b80548587018301529401938590820161170a565b9294505050602093945060ff191683830152151560051b010190388080806116ef565b9061093e61176c92604051938480926116c2565b0383610a7d565b346104c55760203660031901126104c55761ffff61178f6104b4565b1660005260016020526107f9610f956117b26040600020604051928380926116c2565b604051918291602083526020830190610767565b60e03660031901126104c5576004356117de81610920565b6117e66104fd565b604435916001600160401b03906084358281116104c55761180b90369060040161051d565b91909260a43591818316918284036104c55760c4359081116104c557611835903690600401611139565b9261186c84359561184587610920565b61186461185a60208801359761158b89610920565b9990923691610ab9565b973691610ab9565b9460ff6006541660001461197157602286511061192c57856020956115d26115db946118fa8c6118e761ffff9a8b60227fd81fc9b8523134ed613870ed029d6170cbb73aa6a6bc311b9a642689fb9df59a9f0151931660005260028d526118e160406000206001600052602052604060002090565b54613a9f565b906118f38215156151ab565b10156151f7565b61190f6119086064356152f3565b5088615502565b9a61191b8c1515614b8c565b8d6119258d615259565b90336153bc565b60405162461bcd60e51b815260206004820152601c60248201527f4c7a4170703a20696e76616c69642061646170746572506172616d73000000006044820152606490fd5b9480949350516119b0577fd81fc9b8523134ed613870ed029d6170cbb73aa6a6bc311b9a642689fb9df59a9460209461ffff946115d26115db946118fa565b60405162461bcd60e51b815260206004820152602660248201527f4f4654436f72653a205f61646170746572506172616d73206d7573742062652060448201526532b6b83a3c9760d11b6064820152608490fd5b346104c55760003660031901126104c557600f546040516001600160a01b039091168152602090f35b60809060831901126104c557608490565b60031961010036820181136104c55760243591611a5a83610920565b604435926001600160401b03918285116104c55760e0856004019186360301126104c5576064359283116104c557610bb7611bac61001996611aa3611bb7963690600401611139565b611b9b611b8a60c4611b83611ab736611a2d565b986040519c8d9b8c6020633cb7ea1d60e11b9101528c602460043591015260018060a01b031660448d015260648c015280356101248c015261ffff80611aff60248a0161050e565b166101448d0152611b126044890161050e565b166101648c0152611b3b6064880135611b2a81610920565b6001600160a01b03166101848d0152565b611b6f611b648c610204611b5260848c0186612f50565b91909260e06101a48201520191612f81565b9160a4890190612f50565b8c830361012319016101c48e015290612f81565b9401610967565b6001600160a01b03166101e4880152565b858203602319016084870152612fa2565b9160a4840190612fe6565b613814565b6101003660031901126104c557600435611bd581610920565b611bdd6104fd565b6001600160401b03916084358381116104c557611bfe903690600401611139565b60a43590611c0b82610dae565b60c4358581116104c557611c23903690600401611147565b92909160e4359687116104c557611c41610019973690600401611147565b96909560643591604435916135b1565b346104c55760203660031901126104c557600435611c6e81610920565b60018060a01b031660005260146020526020604060002054604051908152f35b346104c55760003660031901126104c557602060405160ff7f0000000000000000000000000000000000000000000000000000000000000000168152f35b346104c55760403660031901126104c5576020611470611cea6104b4565b61ffff611cf56104fd565b91166000526002835260406000209061ffff16600052602052604060002090565b346104c55760003660031901126104c5576000546040516001600160a01b039091168152602090f35b346104c55760003660031901126104c5576004546040516001600160a01b039091168152602090f35b346104c557600080600319360112610882576040519080600c54611d8b81611688565b808552916001918083169081156108585750600114611db4576107f9856107ed81870382610a7d565b9250600c83527fdf6966c971051c3d54ec59162606531493a51404a002842f56009d7e5cf4a8c75b828410611df75750505081016020016107ed826107f96107dd565b80546020858701810191909152909301928101611ddc565b346104c557602060ff611e4e61ffff61144f84611e2b366113a2565b949091166000526007825260406000208260405194838680955193849201610744565b54166040519015158152f35b346104c55760203660031901126104c55761ffff611e766104b4565b166000526001602052610f95611e966040600020604051928380926116c2565b805115611eb4576107ed81611eae6107f99351614421565b90615742565b60405162461bcd60e51b815260206004820152601d60248201527f4c7a4170703a206e6f20747275737465642070617468207265636f72640000006044820152606490fd5b346104c55760403660031901126104c557600435611f1681610920565b60243590336000526009602052611f438160406000209060018060a01b0316600052602052604060002090565b5491808310611f6457611f5892039033613c67565b60405160018152602090f35b60405162461bcd60e51b815260206004820152602560248201527f45524332303a2064656372656173656420616c6c6f77616e63652062656c6f77604482015264207a65726f60d81b6064820152608490fd5b346104c55760e03660031901126104c557611fd06104b4565b6001600160401b03906064358281116104c557611ff190369060040161051d565b60849291923584811681036104c55760a4359161200d83610dae565b60c4359586116104c55761202861203896369060040161051d565b9590946044359060243590614950565b60408051928352602083019190915290f35b346104c55760003660031901126104c5576020601254604051908152f35b346104c55761207636610f23565b9061207f613a15565b604051926020928083858701376120ab6034868381013060601b88820152036014810188520186610a7d565b60009361ffff8316855260019081815260408620918751916001600160401b038311610a0b576120e5836120df8654611688565b866143cd565b80601f84116001146121555750918080926121449695948a9b7f8c0400cfe2d1199b1a725c78960bcc2a344d869b80590d0f2bd005db15a572ce9b9461214a575b50501b916000199060031b1c19161790555b604051938493846143b2565b0390a180f35b015192503880612126565b91939498601f19841661216d87600052602060002090565b938a905b8282106121d4575050917f8c0400cfe2d1199b1a725c78960bcc2a344d869b80590d0f2bd005db15a572ce999a95939185612144989694106121bb575b505050811b019055612138565b015160001960f88460031b161c191690553880806121ae565b808886978294978701518155019601940190612171565b346104c55760403660031901126104c55761099c60043561220b81610920565b6024359033613b5f565b346104c55760c03660031901126104c55761222e6104b4565b506001600160401b036024358181116104c55761224f903690600401610af0565b5061225b606435610920565b6084359060a4359081116104c557612277903690600401610af0565b506020546001600160a01b039081168061231c575b50600f546001600160a01b031616806122fb57506021546122bd906001600160a01b03165b6001600160a01b031690565b803b156104c557600090600460405180948193636db5a92360e11b83525af18015610917576122e857005b806122f5610019926109f8565b806106c5565b602154610019929190612316906001600160a01b03166122b1565b90613e76565b3303612328573861228c565b60405163ea8e4eb560e01b8152600490fd5b6101a03660031901126104c55761234f610931565b612357610940565b61235f6104ec565b6001600160401b0392906064358481116104c55761238190369060040161051d565b61238d92919236611a2d565b610104358781116104c5576123a690369060040161111a565b906123b036610bdb565b92610164358981116104c5576123ca903690600401611147565b969095610184359a8b116104c5576123e96100199b3690600401611147565b9a9099613311565b346104c55760403660031901126104c55760243561240e81610920565b612416613a15565b60008080808094600435905af161242b6136f7565b50156124345780f35b60405163312d207360e11b8152600490fd5b346104c55760003660031901126104c5576040517f00000000000000000000000000000000000000000000000000000000000000006001600160a01b03168152602090f35b346104c55760203660031901126104c5577f5db758e995a17ec1ad84bdef7e8c3293a0bd6179bcce400dff5d4c3d87db726b60206004356124cb81610920565b6124d3613a15565b600480546001600160a01b0319166001600160a01b03929092169182179055604051908152a1005b60e03660031901126104c55761250f6104b4565b6001600160401b03906024358281116104c55761253090369060040161051d565b9161253961095a565b6084358581116104c557612551903690600401611139565b60a4358681116104c557612569903690600401611147565b93909260c4359788116104c557612587610019983690600401611147565b9790966064359361365a565b346104c55760003660031901126104c55760206040516127108152f35b346104c55760803660031901126104c5576125c96104b4565b6125d16104fd565b6064356001600160401b0381116104c5576125f090369060040161051d565b90926125fa613a15565b7f00000000000000000000000000000000000000000000000000000000000000006001600160a01b031690813b156104c55760008094612671604051978896879586946332fb62e760e21b865261ffff80921660048701521660248501526044356044850152608060648501526084840191612f81565b03925af18015610917576122e857005b61268a3661054a565b9161ffff869492961660005260056020526126d181604060002060206040518092878b833787820190815203019020906001600160401b0316600052602052604060002090565b5491821561279357612782848361277b7fc264d91f3adc5588250e1551f547752ca0cfa8f6b530d243b9f9f4cab10ea8e59a60006127678461274f8e8a8f61278e9f908f612735906127286127499436908d610ab9565b6020815191012014614891565b61ffff166000526005602052604060002090565b91614878565b906001600160401b0316600052602052604060002090565b5561277336878d610ab9565b933691610ab9565b9188614607565b604051958695866148e7565b0390a1005b60405162461bcd60e51b815260206004820152602360248201527f4e6f6e626c6f636b696e674c7a4170703a206e6f2073746f726564206d65737360448201526261676560e81b6064820152608490fd5b6084359060ff821682036104c557565b359060ff821682036104c557565b346104c55760e03660031901126104c55760043561281f81610920565b60243561282b81610920565b604435906064359261283b6127e4565b9380421161291e57612906612919916128e0610019976128ee6128798760018060a01b03166000526014602052604060002090815491600183019055565b604080517f6e71edae12b1b97f4d1f60370fef10105fa2faae0126114a169c64845d6126c9602082019081526001600160a01b03808c1693830193909352918b166060820152608081018c905260a081019290925260c082019590955292839060e0820190565b03601f198101845283610a7d565b61290160c4359360a435935190206142f0565b614013565b6001600160a01b03838116911614613e2a565b613c67565b60405162461bcd60e51b815260206004820152601d60248201527f45524332305065726d69743a206578706972656420646561646c696e650000006044820152606490fd5b346104c55760003660031901126104c557600e546040516001600160a01b039091168152602090f35b346104c55760403660031901126104c55760206114706004356129ae81610920565b602435906129bb82610920565b60018060a01b03166000526009835260406000209060018060a01b0316600052602052604060002090565b346104c55760003660031901126104c557600d546040516001600160a01b039091168152602090f35b346104c55760603660031901126104c557612a286104b4565b612a306104fd565b60443591612a3c613a15565b8215612ab75761278e7f9d5c7c0b934da8fefa9c7760c98383778a12dfbfc0c3b3106518f43fb9508ac09361ffff8316600052600260205280612a918560406000209061ffff16600052602052604060002090565b556040519384938460409194939294606082019561ffff80921683521660208201520152565b60405162461bcd60e51b81526020600482015260156024820152744c7a4170703a20696e76616c6964206d696e47617360581b6044820152606490fd5b346104c55760003660031901126104c557602060405160018152f35b346104c55760203660031901126104c5577f1584ad594a70cbe1e6515592e1272a987d922b097ead875069cebe8b40c004a46020600435612b5081610dae565b612b58613a15565b151560ff196006541660ff821617600655604051908152a1005b346104c5576101003660031901126104c557612b8c6104b4565b6001600160401b03906024358281116104c557612bad90369060040161051d565b91906044359084821682036104c557608435612bc881610920565b60c4359586116104c557612be361001996369060040161051d565b94909360e4359660a4359460643593614a46565b346104c557612c0536610f23565b9190612c0f613a15565b60009161ffff81168352600160209080825260408520916001600160401b038711610a0b57612c4887612c428554611688565b856143cd565b8590601f8811600114612caf5750918680879893612144957ffa41487ad5d6728f0b19276fa1eddc16558578f5109fc39d2dc33c3230470dab9993612ca4575b501b906000198460031b1c1916179055604051938493846143b2565b880135925038612c88565b90601f198816612cc485600052602060002090565b9288905b828210612d2a575050918893917ffa41487ad5d6728f0b19276fa1eddc16558578f5109fc39d2dc33c3230470dab9899612144969410612d10575b505082811b019055612138565b870135600019600386901b60f8161c191690553880612d03565b808685968294968c01358155019501930190612cc8565b346104c55760003660031901126104c557602060ff600654166040519015158152f35b346104c55760203660031901126104c557600435612d8181610920565b612d89613a15565b6001600160a01b039081168015612dd757600080546001600160a01b03198116831782559092167f8be0079c531659141344cd1fd0a4f28419497f9722a3daafe3b4186f6b6457e08380a380f35b60405162461bcd60e51b815260206004820152602660248201527f4f776e61626c653a206e6577206f776e657220697320746865207a65726f206160448201526564647265737360d01b6064820152608490fd5b346104c55760803660031901126104c557612e446104b4565b612e4c6104fd565b90612e58604435610920565b604051633d7b2f6f60e21b815261ffff91821660048201529116602482015230604482015260648035908201526000816084817f00000000000000000000000000000000000000000000000000000000000000006001600160a01b03165afa8015610917576107f991600091612ed6575b506040519182918261078c565b612ef1913d8091833e612ee98183610a7d565b81019061437c565b38612ec9565b346104c55760003660031901126104c5576021546040516001600160a01b039091168152602090f35b346104c55760003660031901126104c5576020604051308152f35b60ff601154168015612f4a5790565b50601290565b9035601e19823603018112156104c55701602081359101916001600160401b0382116104c55781360383136104c557565b908060209392818452848401376000828201840152601f01601f1916010190565b906060612fd661079d938035612fb781610920565b6001600160a01b03168452602081810135908501526040810190612f50565b9190928160408201520191612f81565b60609081813591612ff683610920565b6001600160a01b03928316855282602082013561301281610920565b16602086015282604082013561302781610920565b166040860152013561303881610920565b16910152565b90813561304a81610dae565b1515815260208201356020820152604082013561306681610dae565b1515604082015261ffff61307c6060840161050e565b16606082015260a0806130a66130956080860186612f50565b60c0608087015260c0860191612f81565b9301356130b281610dae565b151591015290565b60409080358352816020820135916130d183610920565b6001600160a01b039283166020860152013561303881610920565b9190808252602080920192916000905b82821061310a575050505090565b909192938061312460019261311e88610db8565b15159052565b61313a613132848801610db8565b151582850152565b613152604061314a818901610db8565b151590830152565b613162606061314a818901610db8565b61317c608061317281890161050e565b61ffff1690830152565b61319b60a061318c818901610967565b6001600160a01b031690830152565b6131ab60c061314a818901610db8565b6131bb60e061318c818901610967565b6131cc61010061318c818901610967565b610120808701359082015261014080870135908201526131fc6101606131f38189016127f4565b60ff1690830152565b61018086810135908201526101a080870135908201526101c09081019501939201906130fc565b6040516357ba399b60e01b60208201526001600160a01b039182166024820152918116604483015261ffff90921660648201529116608482015261016060a48201529788979694959094909390929091613282906101848a019061303e565b9060c48901613290916130ba565b6023199586898303016101248a01526132a8926130ec565b9084878303016101448801526132bd926130ec565b91848303016101648501526132d192612f81565b03601f19810182526132e39082610a7d565b6132ec90613867565b5050565b6020809180358452013561330381610920565b6001600160a01b0316910152565b60405163afa61ff960e01b60208201526001600160a01b039182166024820152918116604483015261ffff90921660648201526101a06084820152998a9998949790969095909493909261336a916101c48c0191612f81565b96803560a48b0152602081013560c48b015281604082013561338b81610920565b1660e48b01526060013561339e81610920565b166101048901526023199586898203016101248a01526133bd9161303e565b9161014488016133cc916132f0565b84878303016101848801526133e0926130ec565b91848303016101a48501526132d1926130ec565b60c43561ffff81168091036104c557815260e43561341181610920565b6001600160a01b0316602082015261010435604090910152565b60a08091803561343a81610dae565b15158452602081013561344c81610920565b600180841b03809116602086015261ffff6134696040840161050e565b16604086015260608201356060860152608082013561348781610920565b1660808501520135910152565b9290956135339561355c61356c966135476132ec9a610bb7976040519b8c9a634e8eeae960e01b60208d01526004356134cc81610920565b8c602460018060a01b038093169101528c6044826024356134ec81610920565b169101528c60646044359101528c608460643591015260843561350e81610920565b1660a48d015260a43560c48d015261352860e48d016133f4565b6101448c019061342b565b6102406102048b01526102648a01916130ec565b906023199586898403016102248a01526130ec565b9285840301610244860152612f81565b6138ba565b906060612fd661079d93803561358681610920565b6001600160a01b03908116855260208201356135a181610920565b1660208501526040810190612f50565b6040516303e43af560e51b60208201526001600160a01b03909116602482015261ffff90911660448201526064810191909152608481019190915261010060a482015295869594939092909161360c90610124880190613571565b90151560c487015260231993848783030160e488015261362b926130ec565b918483030161010485015261363f926130ec565b03601f19810182526136519082610a7d565b6132ec906138ba565b97969295939098949198604051998a9963c20d362f60e01b60208c015261ffff1660248b015260448a0160e090526101048a019061369792612f81565b6001600160a01b039096166064890152608488015286850360231990810160a4890152946136c491613571565b90848783030160c48801526136d8926130ec565b918483030160e485015261363f926130ec565b6040513d6000823e3d90fd5b3d15613722573d9061370882610a9e565b916137166040519384610a7d565b82523d6000602084013e565b606090565b600460005260136020527f01413ff7a3b1d5b6c016c061d48e2c7014700c777a29fcd068fff04265813d5d546001600160a01b031680156110b857816000929160208493519201905af49061377a6136f7565b908215806137b9575b61378957565b6137b561379583613967565b60405162461bcd60e51b8152602060048201529182916024830190610767565b0390fd5b506001613783565b600160005260136020527f4155c2f711f2cdd34f8262ab8fb9b7020a700fe7b6948222152f7670d1fdf34d546001600160a01b031680156110b857816000929160208493519201905af49061377a6136f7565b600260005260136020527f0b9d2c0c271bb30544eb78c59bdaebdae2728e5f65814c07768a0abe90ed1923546001600160a01b031680156110b857816000929160208493519201905af49061377a6136f7565b600660005260136020527f709d0e3cf89777a1e1f9c99632e4494f29b0327befd0df15e277a12d94825795546001600160a01b031680156110b857816000929160208493519201905af49061377a6136f7565b600860005260136020527f7b49122965436243734b7a552847e7503db682b4cbd4d2fd428feb216e8bcdf8546001600160a01b031680156110b857816000929160208493519201905af49061377a6136f7565b634e487b7160e01b600052602160045260246000fd5b600a111561392d57565b61390d565b9092919261393f81610a9e565b9161394d6040519384610a7d565b8294828452828201116104c557602061093e930190610744565b6103e88151116139e85760448151106139c2576004810151810190602081602484019303126104c5576024810151906001600160401b0382116104c5570190806043830112156104c557602482015161079d92604401613932565b506040516139cf81610a2c565b6009815268544f46545f6461746160b81b602082015290565b506040516139f581610a2c565b601081526f2a27a32a2fa627a723afa922a0a9a7a760811b602082015290565b6000546001600160a01b03163303613a2957565b606460405162461bcd60e51b815260206004820152602060248201527f4f776e61626c653a2063616c6c6572206973206e6f7420746865206f776e65726044820152fd5b634e487b7160e01b600052601160045260246000fd5b90601f8201809211610f1e57565b6051019081605111610f1e57565b91908201809211610f1e57565b15613ab357565b60405162461bcd60e51b815260206004820152602360248201527f45524332303a207472616e7366657220746f20746865207a65726f206164647260448201526265737360e81b6064820152608490fd5b15613b0b57565b60405162461bcd60e51b815260206004820152602660248201527f45524332303a207472616e7366657220616d6f756e7420657863656564732062604482015265616c616e636560d01b6064820152608490fd5b916001600160a01b038084169290918315613c1457613bf98260008051602061598a83398151915294613c0f941696613b99881515613aac565b6001600160a01b0381166000908152600860205260409020613bde90859054613bc482821015613b04565b039160018060a01b03166000526008602052604060002090565b556001600160a01b0316600090815260086020526040902090565b8054820190556040519081529081906020820190565b0390a3565b60405162461bcd60e51b815260206004820152602560248201527f45524332303a207472616e736665722066726f6d20746865207a65726f206164604482015264647265737360d81b6064820152608490fd5b6001600160a01b038082169291908315613d41578216938415613cf15780613ce07f8c5be1e5ebec7d5bd14f71427d1e84f3dd0314c0f7b2291e5b200ac8c7c3b92594613cc9613c0f9560018060a01b03166000526009602052604060002090565b9060018060a01b0316600052602052604060002090565b556040519081529081906020820190565b60405162461bcd60e51b815260206004820152602260248201527f45524332303a20617070726f766520746f20746865207a65726f206164647265604482015261737360f01b6064820152608490fd5b60405162461bcd60e51b8152602060048201526024808201527f45524332303a20617070726f76652066726f6d20746865207a65726f206164646044820152637265737360e01b6064820152608490fd5b6001600160a01b038082166000908152600960209081526040808320938616835292905220909190549260018401613dca5750505050565b808410613de557613ddc930391613c67565b388080806116ef565b60405162461bcd60e51b815260206004820152601d60248201527f45524332303a20696e73756666696369656e7420616c6c6f77616e63650000006044820152606490fd5b15613e3157565b60405162461bcd60e51b815260206004820152601e60248201527f45524332305065726d69743a20696e76616c6964207369676e617475726500006044820152606490fd5b9190613f0091600080604051936020968786019463a9059cbb60e01b865260018060a01b038093166024880152604487015260448652613eb586610a47565b169260405194613ec486610a2c565b8786527f5361666545524332303a206c6f772d6c6576656c2063616c6c206661696c656488870152519082855af1613efa6136f7565b91613f82565b805180613f0c57505050565b818391810103126104c557810151613f2381610dae565b15613f2b5750565b6084906040519062461bcd60e51b82526004820152602a60248201527f5361666545524332303a204552433230206f7065726174696f6e20646964206e6044820152691bdd081cdd58d8d9595960b21b6064820152fd5b91929015613fe45750815115613f96575090565b3b15613f9f5790565b60405162461bcd60e51b815260206004820152601d60248201527f416464726573733a2063616c6c20746f206e6f6e2d636f6e74726163740000006044820152606490fd5b825190915015613ff75750805190602001fd5b60405162461bcd60e51b81529081906137b5906004830161078c565b9161079d939161402293614154565b919091614034565b6005111561392d57565b61403d8161402a565b806140455750565b61404e8161402a565b6001810361409b5760405162461bcd60e51b815260206004820152601860248201527f45434453413a20696e76616c6964207369676e617475726500000000000000006044820152606490fd5b6140a48161402a565b600281036140f15760405162461bcd60e51b815260206004820152601f60248201527f45434453413a20696e76616c6964207369676e6174757265206c656e677468006044820152606490fd5b806140fd60039261402a565b1461410457565b60405162461bcd60e51b815260206004820152602260248201527f45434453413a20696e76616c6964207369676e6174757265202773272076616c604482015261756560f01b6064820152608490fd5b9291907f7fffffffffffffffffffffffffffffff5d576e7357a4501ddfe92f46681b20a083116141ca5791608094939160ff602094604051948552168484015260408301526060820152600093849182805260015afa156109175781516001600160a01b038116156141c4579190565b50600190565b50505050600090600390565b307f00000000000000000000000000000000000000000000000000000000000000006001600160a01b031614806142c7575b15614231577f000000000000000000000000000000000000000000000000000000000000000090565b60405160208101907f000000000000000000000000000000000000000000000000000000000000000082527f000000000000000000000000000000000000000000000000000000000000000060408201527f000000000000000000000000000000000000000000000000000000000000000060608201524660808201523060a082015260a081526142c181610a62565b51902090565b507f00000000000000000000000000000000000000000000000000000000000000004614614208565b6142f86141d6565b9060405190602082019261190160f01b845260228301526042820152604281526142c181610a47565b1561432857565b60405162461bcd60e51b815260206004820152602660248201527f4c7a4170703a20696e76616c696420736f757263652073656e64696e6720636f6044820152651b9d1c9858dd60d21b6064820152608490fd5b6020818303126104c5578051906001600160401b0382116104c557019080601f830112156104c557815161079d92602001613932565b60409061ffff61079d95931681528160208201520191612f81565b90601f81116143db57505050565b600091825260208220906020601f850160051c83019410614417575b601f0160051c01915b82811061440c57505050565b818155600101614400565b90925082906143f7565b601319810191908211610f1e57565b605019810191908211610f1e57565b9290916144a35a604051633356ae4560e11b602082015261ffff87166024820152608060448201529061449d826128e061447c60a483018a610767565b6001600160401b038816606484015282810360231901608484015288610767565b3061593e565b9390156144b2575b5050505050565b6144bb946144c5565b38808080806144ab565b91936145627fe183f33de2837795525b4792ca4cd60535bd77c53b7e7030060bfcf5734d6b0c95614570939561ffff815160208301209616958660005260056020526145298361144f60208b60406000208260405194838680955193849201610744565b556001600160401b0361454e604051988998895260a060208a015260a0890190610767565b921660408701528582036060870152610767565b908382036080850152610767565b0390a1565b90604051604081018181106001600160401b03821117610a0b5760405280925460ff811690600a82101561392d5790825260d81b6001600160e01b03191660209190910152565b9161079d959361ffff6145f3926001600160401b039460018060a01b0316865216602085015260a0604085015260a0840190610767565b931660608201526080818403910152610767565b929190614613836158f1565b61463161462a826000526022602052604060002090565b5460ff1690565b61463a81613923565b156147a1579361465f61465a61093e966000526022602052604060002090565b614575565b60006005825161466e81613923565b61467781613923565b036146d75750601954614692906001600160a01b03166122b1565b905b6146d26146b760208351936146a885613923565b01516001600160e01b03191690565b6128e0888888886040519889966020880152602487016145bc565b614808565b600782516146e481613923565b6146ed81613923565b0361470e5750601b54614708906001600160a01b03166122b1565b90614694565b6003825161471b81613923565b61472481613923565b0361473f5750601754614708906001600160a01b03166122b1565b6009825161474c81613923565b61475581613923565b036147705750601d54614708906001600160a01b03166122b1565b6001825161477d81613923565b61478681613923565b036147085750601e54614708906001600160a01b03166122b1565b506147b46147ae84615896565b60ff1690565b806147c55750505061093e91614da5565b6001036147d55761093e93614fa5565b60405162461bcd60e51b815260206004820152600b60248201526a1513d19517dc1858dad95d60aa1b6044820152606490fd5b9492939194600a81101561392d576000908152601360205260409020546001600160a01b031680156110b857816000929160208493519201905af49261484c6136f7565b93158080614870575b614864576144b2575050505050565b6137b561379586613967565b506000614855565b6020919283604051948593843782019081520301902090565b1561489857565b60405162461bcd60e51b815260206004820152602160248201527f4e6f6e626c6f636b696e674c7a4170703a20696e76616c6964207061796c6f616044820152601960fa1b6064820152608490fd5b916149139060609461ffff6001600160401b039499989799168552608060208601526080850191612f81565b951660408201520152565b903590601e19813603018212156104c557018035906001600160401b0382116104c5576020019181360383136104c557565b94919598979061192561497960409961497161497f9761499c993691610ab9565b943691610ab9565b97615259565b928451968794859463040a7bb160e41b8652309060048701614b48565b03817f00000000000000000000000000000000000000000000000000000000000000006001600160a01b03165afa9182156109175760009081936149df57509190565b90506105ad91925060403d8111610ec057610eb18183610a7d565b93969491614a289061079d99979461ffff6001600160401b039416875260c0602088015260c0870191612f81565b961660408401526060830152608082015260a0818503910152612f81565b91969792989594939094303303614aed57614a6290853061568e565b60405181815290946001600160a01b03169390849061ffff8516907fbf551ec93859b170f9b2141bd9298bf3f64322c6f7beb2543a0cb669834118bf90602090a3833b156104c5576000988995614ad0936040519c8d9b8c9a8b98633fe79aed60e11b8a5260048a016149fa565b0393f1801561091757614ae05750565b806122f561093e926109f8565b60405162461bcd60e51b815260206004820152601f60248201527f4f4654436f72653a2063616c6c6572206d757374206265204f4654436f7265006044820152606490fd5b91908260409103126104c5576020825192015190565b919261079d959361ffff614b779316845260018060a01b0316602084015260a0604084015260a0830190610767565b92151560608201526080818403910152610767565b15614b9357565b60405162461bcd60e51b815260206004820152601960248201527f4f4654436f72653a20616d6f756e7420746f6f20736d616c6c000000000000006044820152606490fd5b92614bfd61079d97959361ffff614c0b9416865260c0602087015260c0860190610767565b908482036040860152610767565b6001600160a01b0391821660608401529316608082015280830360a090910152610767565b94614c599193929561ffff81166000526001602052614c606040600020604051948580926116c2565b0384610a7d565b825115614cd857614c72855182614d36565b7f00000000000000000000000000000000000000000000000000000000000000006001600160a01b031693843b156104c557600096614cc791604051998a988997889662c5803160e81b885260048801614bd8565b03925af1801561091757614ae05750565b60405162461bcd60e51b815260206004820152603060248201527f4c7a4170703a2064657374696e6174696f6e20636861696e206973206e6f742060448201526f61207472757374656420736f7572636560801b6064820152608490fd5b61ffff166000526003602052604060002054908115614d9b575b11614d5757565b606460405162461bcd60e51b815260206004820152602060248201527f4c7a4170703a207061796c6f61642073697a6520697320746f6f206c617267656044820152fd5b6127109150614d50565b9060ff614db182615896565b161580614f0c575b614dc290615370565b614dd4614dce82615846565b916158e1565b90916001600160a01b039182841615614f02575b614e1c906001600160401b037f000000000000000000000000000000000000000000000000000000000000000091166152e0565b918316928315614ebd577fbf551ec93859b170f9b2141bd9298bf3f64322c6f7beb2543a0cb669834118bf91614e7d61ffff92614e63614e5e87600a54613a9f565b600a55565b6001600160a01b0316600090815260086020526040902090565b84815401905584600060008051602061598a83398151915260405180614ea889829190602083019252565b0390a360405193845216918060208101613c0f565b60405162461bcd60e51b815260206004820152601f60248201527f45524332303a206d696e7420746f20746865207a65726f2061646472657373006044820152606490fd5b61dead9350614de8565b508051602914614db9565b98979692936001600160401b03614f4960e0989461ffff614f759995168d5260208d61010091829101528d0190610767565b951660408b015260608a01526001600160a01b0316608089015260a088015286820360c0880152610767565b930152565b6001600160401b03614f9a60409396959496606084526060840190610767565b951660208201520152565b9091614fb084615429565b9091614fda61462a8761274f614fd48b61ffff166000526007602052604060002090565b8c6113ec565b916150106001600160401b0392837f000000000000000000000000000000000000000000000000000000000000000091166152e0565b9288888b831561510c575b505050853b156150c15794615062969461449d948a946128e0948d996000146150ba5750505a925b5a978b6040519a8b9863757fea4d60e11b60208b015260248a01614f17565b90156150af5750906150aa61ffff928560207fb8890edbfc1c74692f527444645f95489c3703cc2df42e4a366f5d06fa6cd88496975191012090604051948594169684614f7a565b0390a2565b9261093e94926144c5565b1692615043565b50506040516001600160a01b039094168452507f9aedf5fdba8716db3b6705ca00150643309995d4f818a249ed6dde6677e7792d975091955085945050602084019250614570915050565b9061274f6151419261513b8961512661514e979b3061562b565b9961ffff166000526007602052604060002090565b906113ec565b805460ff19166001179055565b88888b61501b565b60065460ff16156151a357602282511061192c5761ffff602261093e93015191166000526002602052615196604060002060008052602052604060002090565b54906118f38215156151ab565b50516119b057565b156151b257565b60405162461bcd60e51b815260206004820152601a60248201527f4c7a4170703a206d696e4761734c696d6974206e6f74207365740000000000006044820152606490fd5b156151fe57565b60405162461bcd60e51b815260206004820152601b60248201527f4c7a4170703a20676173206c696d697420697320746f6f206c6f7700000000006044820152606490fd5b634e487b7160e01b600052601260045260246000fd5b7f00000000000000000000000000000000000000000000000000000000000000009081156152db57046001600160401b0390818111615296571690565b60405162461bcd60e51b815260206004820152601a60248201527f4f4654436f72653a20616d6f756e745344206f766572666c6f770000000000006044820152606490fd5b615243565b81810292918115918404141715610f1e57565b7f000000000000000000000000000000000000000000000000000000000000000080156152db57810690818103908111610f1e5791565b90604051916000602084015260218301526001600160401b0360c01b9060c01b16604182015260298152606081018181106001600160401b03821117610a0b5760405290565b1561537757565b60405162461bcd60e51b815260206004820152601860248201527f4f4654436f72653a20696e76616c6964207061796c6f616400000000000000006044820152606490fd5b939260719261079d94604051968794600160f81b602087015260218601526001600160401b0360c01b809360c01b16604186015260018060a01b0316604985015260c01b1660698301526154198151809260208686019101610744565b8101036051810184520182610a7d565b90615441600160ff61543a85615896565b1614615370565b61544a82615846565b90615454836158e1565b9060498451106154c5576049840151936051815110615489576154866051820151916154808151614430565b906157c2565b91565b60405162461bcd60e51b8152602060048201526014602482015273746f55696e7436345f6f75744f66426f756e647360601b6044820152606490fd5b60405162461bcd60e51b8152602060048201526015602482015274746f427974657333325f6f75744f66426f756e647360581b6044820152606490fd5b6001600160a01b0381163381036155c4575b8015615575578161554a8461553d60009560018060a01b03166000526008602052604060002090565b54613bc4828210156155d4565b5561555883600a5403600a55565b60405183815260008051602061598a83398151915290602090a390565b60405162461bcd60e51b815260206004820152602160248201527f45524332303a206275726e2066726f6d20746865207a65726f206164647265736044820152607360f81b6064820152608490fd5b6155cf833384613d92565b615514565b156155db57565b60405162461bcd60e51b815260206004820152602260248201527f45524332303a206275726e20616d6f756e7420657863656564732062616c616e604482015261636560f01b6064820152608490fd5b6001600160a01b03811691908215614ebd57600a5490828201809211610f1e5760009261567f60209260008051602061598a83398151915294600a5560018060a01b03166000526008602052604060002090565b818154019055604051908152a3565b61079d9183916001600160a01b0381163081141590816156ba575b5015613b5f57610d60833383613d92565b9050331415386156a9565b156156cc57565b60405162461bcd60e51b815260206004820152600e60248201526d736c6963655f6f766572666c6f7760901b6044820152606490fd5b1561570957565b60405162461bcd60e51b8152602060048201526011602482015270736c6963655f6f75744f66426f756e647360781b6044820152606490fd5b6157568261574f81613a83565b10156156c5565b6157638282511015615702565b8161577b575050604051600081526020810160405290565b60405191601f811691821560051b808486010193838501920101905b8084106157af5750508252601f01601f191660405290565b9092835181526020809101930190615797565b6157cf8261574f81613a83565b6157e481516157dd84613a91565b1115615702565b816157fc575050604051600081526020810160405290565b60405191601f8116916051831560051b80858701019484860193010101905b8084106158335750508252601f01601f191660405290565b909283518152602080910193019061581b565b602181511061585957602d015160601c90565b60405162461bcd60e51b8152602060048201526015602482015274746f416464726573735f6f75744f66426f756e647360581b6044820152606490fd5b60018151106158a6576001015190565b60405162461bcd60e51b8152602060048201526013602482015272746f55696e74385f6f75744f66426f756e647360681b6044820152606490fd5b6029815110615489576029015190565b6020815110615901576020015190565b60405162461bcd60e51b8152602060048201526015602482015274746f55696e743235365f6f75744f66426f756e647360581b6044820152606490fd5b909291600080916040519561595287610a62565b6096875282602088019560a036883760208451940192f1903d9060968211615980575b6000908286523e9190565b6096915061597556feddf252ad1be2c89b69c2b068fc378daa952ba7f163c4a11628f55a4df523b3efa2646970667358221220fa39974e6c3b8d14332afdd8f15c23140087987007219eb6fac789ba0f94424c64736f6c634300081300336080346100be57601f6105a438819003918201601f19168301916001600160401b038311848410176100c3578084926020946040528339810103126100be57516001600160a01b0390818116908190036100be576000543360018060a01b0319821617600055604051923391167f8be0079c531659141344cd1fd0a4f28419497f9722a3daafe3b4186f6b6457e0600080a3600180546001600160a81b0319168217911560a01b60ff60a01b169190911790556104ca90816100da8239f35b600080fd5b634e487b7160e01b600052604160045260246000fdfe60406080815260048036101561001f575b5050361561001d57600080fd5b005b600091823560e01c8063715018a6146103045780638da5cb5b146102dc578063b08ff105146102b4578063db6b52461461026e578063f2fde38b146101ab5763f3fef3a31461006e5750610010565b346101a757806003193601126101a75782610087610361565b6024359061009361043c565b60015460ff8160a01c16600014610112575082809281925af13d1561010d573d67ffffffffffffffff81116100fa578251906100d9601f8201601f19166020018361037c565b81528460203d92013e5b156100ed57505080f35b5163312d207360e11b8152fd5b634e487b7160e01b855260418452602485fd5b6100e3565b845163a9059cbb60e01b81526001600160a01b039283168782015260248101939093529192602092849260449284929091165af190811561019d57849161015f575b50156100ed57505080f35b90506020813d8211610195575b816101796020938361037c565b81010312610191575180151581036101915738610154565b8380fd5b3d915061016c565b82513d86823e3d90fd5b8280fd5b5090346101a75760203660031901126101a7576101c6610361565b906101cf61043c565b6001600160a01b0391821692831561021c57505082546001600160a01b0319811683178455167f8be0079c531659141344cd1fd0a4f28419497f9722a3daafe3b4186f6b6457e08380a380f35b906020608492519162461bcd60e51b8352820152602660248201527f4f776e61626c653a206e6577206f776e657220697320746865207a65726f206160448201526564647265737360d01b6064820152fd5b50826003193601126101a75761028261043c565b60ff60015460a01c16156102a757341561029a578280f35b51631f2a200560e01b8152fd5b5163f1640ae160e01b8152fd5b8382346102d857816003193601126102d8576020906102d16103b4565b9051908152f35b5080fd5b8382346102d857816003193601126102d857905490516001600160a01b039091168152602090f35b833461035e578060031936011261035e5761031d61043c565b80546001600160a01b03198116825581906001600160a01b03167f8be0079c531659141344cd1fd0a4f28419497f9722a3daafe3b4186f6b6457e08280a380f35b80fd5b600435906001600160a01b038216820361037757565b600080fd5b90601f8019910116810190811067ffffffffffffffff82111761039e57604052565b634e487b7160e01b600052604160045260246000fd5b60015460ff8160a01c16610437576040516370a0823160e01b815230600482015290602090829060249082906001600160a01b03165afa90811561042b576000916103fd575090565b906020823d8211610423575b816104166020938361037c565b8101031261035e57505190565b3d9150610409565b6040513d6000823e3d90fd5b504790565b6000546001600160a01b0316330361045057565b606460405162461bcd60e51b815260206004820152602060248201527f4f776e61626c653a2063616c6c6572206973206e6f7420746865206f776e65726044820152fdfea2646970667358221220e91f06e964aa8c6bb0a34b0f084ac1c13b0e65c8bd0b52b9599715da54739f9c64736f6c634300081300338b73c3c69bb8fe3d512ecc4cf759cc79239f7b179b0ffacaa9a75d522b39400f","linkReferences":{}},"methodIdentifiers":{"DEFAULT_PAYLOAD_SIZE_LIMIT()":"c4461834","DOMAIN_SEPARATOR()":"3644e515","NO_EXTRA_GAS()":"44770515","PT_SEND()":"4c42899a","PT_SEND_AND_CALL()":"e6a20ae6","SWAP_MAX_SLIPPAGE()":"a643c52e","allowance(address,address)":"dd62ed3e","approve(address,uint256)":"095ea7b3","balanceOf(address)":"70a08231","callOnOFTReceived(uint16,bytes,uint64,bytes32,address,uint256,bytes,uint256)":"eaffd49a","circulatingSupply()":"9358928b","cluster()":"dbd01de1","creditedPackets(uint16,bytes,uint64)":"9bdb9812","decimals()":"313ce567","decreaseAllowance(address,uint256)":"a457c2d7","erc20()":"785e9e86","estimateSendAndCallFee(uint16,bytes32,uint256,bytes,uint64,bool,bytes)":"a4c51df5","estimateSendFee(uint16,bytes32,uint256,bool,bytes)":"365260b4","exerciseOption((address,address,uint256,uint256,address,uint256),(uint16,address,uint256),(bool,address,uint16,uint256,address,uint256),(bool,bool,bool,bool,uint16,address,bool,address,address,uint256,uint256,uint8,bytes32,bytes32)[],(bool,bool,bool,bool,uint16,address,bool,address,address,uint256,uint256,uint8,bytes32,bytes32)[],bytes)":"4e8eeae9","failedMessages(uint16,bytes,uint64)":"5b8c41e6","forceResumeReceive(uint16,bytes)":"42d65a8d","getConfig(uint16,uint16,address,uint256)":"f5ecbdbc","getTrustedRemoteAddress(uint16)":"9f38369a","hostChainID()":"0054af3a","increaseAllowance(address,uint256)":"39509351","isTrustedRemote(uint16,bytes)":"3d8b38f6","lzEndpoint()":"b353aaa7","lzReceive(uint16,bytes,uint64,bytes)":"001d3567","minDstGasLookup(uint16,uint16)":"8cfd8f5c","name()":"06fdde03","nonblockingLzReceive(uint16,bytes,uint64,bytes)":"66ad5c8a","nonces(address)":"7ecebe00","owner()":"8da5cb5b","payloadSizeLimitLookup(uint16)":"3f1f4fa4","permit(address,address,uint256,uint256,uint8,bytes32,bytes32)":"d505accf","precrime()":"950c8a74","removeCollateral(address,address,uint16,address,(bool,uint256,bool,uint16,bytes,bool),(uint256,address,address),(bool,bool,bool,bool,uint16,address,bool,address,address,uint256,uint256,uint8,bytes32,bytes32)[],(bool,bool,bool,bool,uint16,address,bool,address,address,uint256,uint256,uint8,bytes32,bytes32)[],bytes)":"57ba399b","renounceOwnership()":"715018a6","rescueEth(uint256,address)":"b25ea8fb","retrieveFromStrategy(address,uint256,uint256,uint16,address,bytes)":"0ed9e406","retryMessage(uint16,bytes,uint64,bytes)":"d1deba1f","sendAndCall(address,uint16,bytes32,uint256,bytes,uint64,(address,address,bytes))":"76203b48","sendForLeverage(uint256,address,(uint256,uint16,uint16,address,bytes,bytes,address),(address,uint256,bytes),(address,address,address,address))":"796fd43a","sendFrom(address,uint16,bytes32,uint256,(address,address,bytes))":"695ef6bf","sendToStrategy(address,address,uint256,uint256,uint16,(uint256,address))":"0fb6ba59","sendToYBAndBorrow(address,address,uint16,bytes,(uint256,uint256,address,address),(bool,uint256,bool,uint16,bytes,bool),(uint256,address),(bool,bool,bool,bool,uint16,address,bool,address,address,uint256,uint256,uint8,bytes32,bytes32)[],(bool,bool,bool,bool,uint16,address,bool,address,address,uint256,uint256,uint8,bytes32,bytes32)[])":"afa61ff9","setCluster(address)":"437be622","setConfig(uint16,uint16,uint256,bytes)":"cbed8b9c","setMaxSlippage(uint256)":"43f68a49","setMinDstGas(uint16,uint16,uint256)":"df2a5b3b","setPayloadSizeLimit(uint16,uint256)":"0df37483","setPrecrime(address)":"baf3292d","setReceiveVersion(uint16)":"10ddb137","setSendVersion(uint16)":"07e0db17","setStargateRouter(address)":"51b78b47","setTrustedRemote(uint16,bytes)":"eb8d72b7","setTrustedRemoteAddress(uint16,bytes)":"a6c3d165","setUseCustomAdapterParams(bool)":"eab45d9c","sgReceive(uint16,bytes,uint256,address,uint256,bytes)":"ab8236f3","sharedDecimals()":"857749b0","supportsInterface(bytes4)":"01ffc9a7","symbol()":"95d89b41","token()":"fc0c546a","totalSupply()":"18160ddd","transfer(address,uint256)":"a9059cbb","transferFrom(address,address,uint256)":"23b872dd","transferOwnership(address)":"f2fde38b","triggerApproveOrRevoke(uint16,(address,address,bytes),(bool,bool,bool,bool,uint16,address,bool,address,address,uint256,uint256,uint8,bytes32,bytes32)[])":"4fd7e9f6","triggerSendFrom(uint16,bytes,address,uint256,(address,address,bytes),(bool,bool,bool,bool,uint16,address,bool,address,address,uint256,uint256,uint8,bytes32,bytes32)[],(bool,bool,bool,bool,uint16,address,bool,address,address,uint256,uint256,uint8,bytes32,bytes32)[])":"c20d362f","triggerSendFromWithParams(address,uint16,bytes32,uint256,(address,address,bytes),bool,(bool,bool,bool,bool,uint16,address,bool,address,address,uint256,uint256,uint8,bytes32,bytes32)[],(bool,bool,bool,bool,uint16,address,bool,address,address,uint256,uint256,uint8,bytes32,bytes32)[])":"7c875ea0","trustedRemoteLookup(uint16)":"7533d788","useCustomAdapterParams()":"ed629c5c","vault()":"fbfa77cf","yieldBox()":"de406577"},"id":2}