{"abi":[{"type":"constructor","inputs":[{"name":"_lzEndpoint","type":"address","internalType":"address"},{"name":"_erc20","type":"address","internalType":"address"},{"name":"_yieldBox","type":"address","internalType":"contract IYieldBoxBase"},{"name":"_cluster","type":"address","internalType":"contract ICluster"},{"name":"_name","type":"string","internalType":"string"},{"name":"_symbol","type":"string","internalType":"string"},{"name":"_decimal","type":"uint8","internalType":"uint8"},{"name":"_hostChainID","type":"uint256","internalType":"uint256"}],"stateMutability":"nonpayable"},{"type":"receive","stateMutability":"payable"},{"type":"function","name":"DEFAULT_PAYLOAD_SIZE_LIMIT","inputs":[],"outputs":[{"name":"","type":"uint256","internalType":"uint256"}],"stateMutability":"view"},{"type":"function","name":"NO_EXTRA_GAS","inputs":[],"outputs":[{"name":"","type":"uint256","internalType":"uint256"}],"stateMutability":"view"},{"type":"function","name":"PT_SEND","inputs":[],"outputs":[{"name":"","type":"uint8","internalType":"uint8"}],"stateMutability":"view"},{"type":"function","name":"PT_SEND_AND_CALL","inputs":[],"outputs":[{"name":"","type":"uint8","internalType":"uint8"}],"stateMutability":"view"},{"type":"function","name":"SWAP_MAX_SLIPPAGE","inputs":[],"outputs":[{"name":"","type":"uint256","internalType":"uint256"}],"stateMutability":"view"},{"type":"function","name":"allowance","inputs":[{"name":"owner","type":"address","internalType":"address"},{"name":"spender","type":"address","internalType":"address"}],"outputs":[{"name":"","type":"uint256","internalType":"uint256"}],"stateMutability":"view"},{"type":"function","name":"approve","inputs":[{"name":"spender","type":"address","internalType":"address"},{"name":"amount","type":"uint256","internalType":"uint256"}],"outputs":[{"name":"","type":"bool","internalType":"bool"}],"stateMutability":"nonpayable"},{"type":"function","name":"balanceOf","inputs":[{"name":"account","type":"address","internalType":"address"}],"outputs":[{"name":"","type":"uint256","internalType":"uint256"}],"stateMutability":"view"},{"type":"function","name":"borrow","inputs":[{"name":"module","type":"address","internalType":"address"},{"name":"_srcChainId","type":"uint16","internalType":"uint16"},{"name":"_srcAddress","type":"bytes","internalType":"bytes"},{"name":"_nonce","type":"uint64","internalType":"uint64"},{"name":"_payload","type":"bytes","internalType":"bytes"}],"outputs":[],"stateMutability":"payable"},{"type":"function","name":"borrowInternal","inputs":[{"name":"module","type":"address","internalType":"address"},{"name":"_to","type":"bytes32","internalType":"bytes32"},{"name":"borrowParams","type":"tuple","internalType":"struct ITapiocaOFT.IBorrowParams","components":[{"name":"amount","type":"uint256","internalType":"uint256"},{"name":"borrowAmount","type":"uint256","internalType":"uint256"},{"name":"marketHelper","type":"address","internalType":"address"},{"name":"market","type":"address","internalType":"address"}]},{"name":"withdrawParams","type":"tuple","internalType":"struct ICommonData.IWithdrawParams","components":[{"name":"withdraw","type":"bool","internalType":"bool"},{"name":"withdrawLzFeeAmount","type":"uint256","internalType":"uint256"},{"name":"withdrawOnOtherChain","type":"bool","internalType":"bool"},{"name":"withdrawLzChainId","type":"uint16","internalType":"uint16"},{"name":"withdrawAdapterParams","type":"bytes","internalType":"bytes"},{"name":"unwrap","type":"bool","internalType":"bool"}]},{"name":"airdropAmount","type":"uint256","internalType":"uint256"}],"outputs":[],"stateMutability":"payable"},{"type":"function","name":"callOnOFTReceived","inputs":[{"name":"_srcChainId","type":"uint16","internalType":"uint16"},{"name":"_srcAddress","type":"bytes","internalType":"bytes"},{"name":"_nonce","type":"uint64","internalType":"uint64"},{"name":"_from","type":"bytes32","internalType":"bytes32"},{"name":"_to","type":"address","internalType":"address"},{"name":"_amount","type":"uint256","internalType":"uint256"},{"name":"_payload","type":"bytes","internalType":"bytes"},{"name":"_gasForCall","type":"uint256","internalType":"uint256"}],"outputs":[],"stateMutability":"nonpayable"},{"type":"function","name":"circulatingSupply","inputs":[],"outputs":[{"name":"","type":"uint256","internalType":"uint256"}],"stateMutability":"view"},{"type":"function","name":"cluster","inputs":[],"outputs":[{"name":"","type":"address","internalType":"contract ICluster"}],"stateMutability":"view"},{"type":"function","name":"creditedPackets","inputs":[{"name":"","type":"uint16","internalType":"uint16"},{"name":"","type":"bytes","internalType":"bytes"},{"name":"","type":"uint64","internalType":"uint64"}],"outputs":[{"name":"","type":"bool","internalType":"bool"}],"stateMutability":"view"},{"type":"function","name":"decimals","inputs":[],"outputs":[{"name":"","type":"uint8","internalType":"uint8"}],"stateMutability":"view"},{"type":"function","name":"decreaseAllowance","inputs":[{"name":"spender","type":"address","internalType":"address"},{"name":"subtractedValue","type":"uint256","internalType":"uint256"}],"outputs":[{"name":"","type":"bool","internalType":"bool"}],"stateMutability":"nonpayable"},{"type":"function","name":"erc20","inputs":[],"outputs":[{"name":"","type":"address","internalType":"address"}],"stateMutability":"view"},{"type":"function","name":"estimateSendAndCallFee","inputs":[{"name":"_dstChainId","type":"uint16","internalType":"uint16"},{"name":"_toAddress","type":"bytes32","internalType":"bytes32"},{"name":"_amount","type":"uint256","internalType":"uint256"},{"name":"_payload","type":"bytes","internalType":"bytes"},{"name":"_dstGasForCall","type":"uint64","internalType":"uint64"},{"name":"_useZro","type":"bool","internalType":"bool"},{"name":"_adapterParams","type":"bytes","internalType":"bytes"}],"outputs":[{"name":"nativeFee","type":"uint256","internalType":"uint256"},{"name":"zroFee","type":"uint256","internalType":"uint256"}],"stateMutability":"view"},{"type":"function","name":"estimateSendFee","inputs":[{"name":"_dstChainId","type":"uint16","internalType":"uint16"},{"name":"_toAddress","type":"bytes32","internalType":"bytes32"},{"name":"_amount","type":"uint256","internalType":"uint256"},{"name":"_useZro","type":"bool","internalType":"bool"},{"name":"_adapterParams","type":"bytes","internalType":"bytes"}],"outputs":[{"name":"nativeFee","type":"uint256","internalType":"uint256"},{"name":"zroFee","type":"uint256","internalType":"uint256"}],"stateMutability":"view"},{"type":"function","name":"failedMessages","inputs":[{"name":"","type":"uint16","internalType":"uint16"},{"name":"","type":"bytes","internalType":"bytes"},{"name":"","type":"uint64","internalType":"uint64"}],"outputs":[{"name":"","type":"bytes32","internalType":"bytes32"}],"stateMutability":"view"},{"type":"function","name":"forceResumeReceive","inputs":[{"name":"_srcChainId","type":"uint16","internalType":"uint16"},{"name":"_srcAddress","type":"bytes","internalType":"bytes"}],"outputs":[],"stateMutability":"nonpayable"},{"type":"function","name":"getConfig","inputs":[{"name":"_version","type":"uint16","internalType":"uint16"},{"name":"_chainId","type":"uint16","internalType":"uint16"},{"name":"","type":"address","internalType":"address"},{"name":"_configType","type":"uint256","internalType":"uint256"}],"outputs":[{"name":"","type":"bytes","internalType":"bytes"}],"stateMutability":"view"},{"type":"function","name":"getTrustedRemoteAddress","inputs":[{"name":"_remoteChainId","type":"uint16","internalType":"uint16"}],"outputs":[{"name":"","type":"bytes","internalType":"bytes"}],"stateMutability":"view"},{"type":"function","name":"hostChainID","inputs":[],"outputs":[{"name":"","type":"uint256","internalType":"uint256"}],"stateMutability":"view"},{"type":"function","name":"increaseAllowance","inputs":[{"name":"spender","type":"address","internalType":"address"},{"name":"addedValue","type":"uint256","internalType":"uint256"}],"outputs":[{"name":"","type":"bool","internalType":"bool"}],"stateMutability":"nonpayable"},{"type":"function","name":"isTrustedRemote","inputs":[{"name":"_srcChainId","type":"uint16","internalType":"uint16"},{"name":"_srcAddress","type":"bytes","internalType":"bytes"}],"outputs":[{"name":"","type":"bool","internalType":"bool"}],"stateMutability":"view"},{"type":"function","name":"lzEndpoint","inputs":[],"outputs":[{"name":"","type":"address","internalType":"contract ILayerZeroEndpoint"}],"stateMutability":"view"},{"type":"function","name":"lzReceive","inputs":[{"name":"_srcChainId","type":"uint16","internalType":"uint16"},{"name":"_srcAddress","type":"bytes","internalType":"bytes"},{"name":"_nonce","type":"uint64","internalType":"uint64"},{"name":"_payload","type":"bytes","internalType":"bytes"}],"outputs":[],"stateMutability":"nonpayable"},{"type":"function","name":"minDstGasLookup","inputs":[{"name":"","type":"uint16","internalType":"uint16"},{"name":"","type":"uint16","internalType":"uint16"}],"outputs":[{"name":"","type":"uint256","internalType":"uint256"}],"stateMutability":"view"},{"type":"function","name":"name","inputs":[],"outputs":[{"name":"","type":"string","internalType":"string"}],"stateMutability":"view"},{"type":"function","name":"nonblockingLzReceive","inputs":[{"name":"_srcChainId","type":"uint16","internalType":"uint16"},{"name":"_srcAddress","type":"bytes","internalType":"bytes"},{"name":"_nonce","type":"uint64","internalType":"uint64"},{"name":"_payload","type":"bytes","internalType":"bytes"}],"outputs":[],"stateMutability":"nonpayable"},{"type":"function","name":"owner","inputs":[],"outputs":[{"name":"","type":"address","internalType":"address"}],"stateMutability":"view"},{"type":"function","name":"payloadSizeLimitLookup","inputs":[{"name":"","type":"uint16","internalType":"uint16"}],"outputs":[{"name":"","type":"uint256","internalType":"uint256"}],"stateMutability":"view"},{"type":"function","name":"precrime","inputs":[],"outputs":[{"name":"","type":"address","internalType":"address"}],"stateMutability":"view"},{"type":"function","name":"remove","inputs":[{"name":"","type":"address","internalType":"address"},{"name":"","type":"uint16","internalType":"uint16"},{"name":"","type":"bytes","internalType":"bytes"},{"name":"","type":"uint64","internalType":"uint64"},{"name":"_payload","type":"bytes","internalType":"bytes"}],"outputs":[],"stateMutability":"nonpayable"},{"type":"function","name":"renounceOwnership","inputs":[],"outputs":[],"stateMutability":"nonpayable"},{"type":"function","name":"retryMessage","inputs":[{"name":"_srcChainId","type":"uint16","internalType":"uint16"},{"name":"_srcAddress","type":"bytes","internalType":"bytes"},{"name":"_nonce","type":"uint64","internalType":"uint64"},{"name":"_payload","type":"bytes","internalType":"bytes"}],"outputs":[],"stateMutability":"payable"},{"type":"function","name":"sendAndCall","inputs":[{"name":"_from","type":"address","internalType":"address"},{"name":"_dstChainId","type":"uint16","internalType":"uint16"},{"name":"_toAddress","type":"bytes32","internalType":"bytes32"},{"name":"_amount","type":"uint256","internalType":"uint256"},{"name":"_payload","type":"bytes","internalType":"bytes"},{"name":"_dstGasForCall","type":"uint64","internalType":"uint64"},{"name":"_callParams","type":"tuple","internalType":"struct ICommonOFT.LzCallParams","components":[{"name":"refundAddress","type":"address","internalType":"address payable"},{"name":"zroPaymentAddress","type":"address","internalType":"address"},{"name":"adapterParams","type":"bytes","internalType":"bytes"}]}],"outputs":[],"stateMutability":"payable"},{"type":"function","name":"sendFrom","inputs":[{"name":"_from","type":"address","internalType":"address"},{"name":"_dstChainId","type":"uint16","internalType":"uint16"},{"name":"_toAddress","type":"bytes32","internalType":"bytes32"},{"name":"_amount","type":"uint256","internalType":"uint256"},{"name":"_callParams","type":"tuple","internalType":"struct ICommonOFT.LzCallParams","components":[{"name":"refundAddress","type":"address","internalType":"address payable"},{"name":"zroPaymentAddress","type":"address","internalType":"address"},{"name":"adapterParams","type":"bytes","internalType":"bytes"}]}],"outputs":[],"stateMutability":"payable"},{"type":"function","name":"setConfig","inputs":[{"name":"_version","type":"uint16","internalType":"uint16"},{"name":"_chainId","type":"uint16","internalType":"uint16"},{"name":"_configType","type":"uint256","internalType":"uint256"},{"name":"_config","type":"bytes","internalType":"bytes"}],"outputs":[],"stateMutability":"nonpayable"},{"type":"function","name":"setMaxSlippage","inputs":[{"name":"_slippage","type":"uint256","internalType":"uint256"}],"outputs":[],"stateMutability":"nonpayable"},{"type":"function","name":"setMinDstGas","inputs":[{"name":"_dstChainId","type":"uint16","internalType":"uint16"},{"name":"_packetType","type":"uint16","internalType":"uint16"},{"name":"_minGas","type":"uint256","internalType":"uint256"}],"outputs":[],"stateMutability":"nonpayable"},{"type":"function","name":"setPayloadSizeLimit","inputs":[{"name":"_dstChainId","type":"uint16","internalType":"uint16"},{"name":"_size","type":"uint256","internalType":"uint256"}],"outputs":[],"stateMutability":"nonpayable"},{"type":"function","name":"setPrecrime","inputs":[{"name":"_precrime","type":"address","internalType":"address"}],"outputs":[],"stateMutability":"nonpayable"},{"type":"function","name":"setReceiveVersion","inputs":[{"name":"_version","type":"uint16","internalType":"uint16"}],"outputs":[],"stateMutability":"nonpayable"},{"type":"function","name":"setSendVersion","inputs":[{"name":"_version","type":"uint16","internalType":"uint16"}],"outputs":[],"stateMutability":"nonpayable"},{"type":"function","name":"setTrustedRemote","inputs":[{"name":"_srcChainId","type":"uint16","internalType":"uint16"},{"name":"_path","type":"bytes","internalType":"bytes"}],"outputs":[],"stateMutability":"nonpayable"},{"type":"function","name":"setTrustedRemoteAddress","inputs":[{"name":"_remoteChainId","type":"uint16","internalType":"uint16"},{"name":"_remoteAddress","type":"bytes","internalType":"bytes"}],"outputs":[],"stateMutability":"nonpayable"},{"type":"function","name":"setUseCustomAdapterParams","inputs":[{"name":"_useCustomAdapterParams","type":"bool","internalType":"bool"}],"outputs":[],"stateMutability":"nonpayable"},{"type":"function","name":"sharedDecimals","inputs":[],"outputs":[{"name":"","type":"uint8","internalType":"uint8"}],"stateMutability":"view"},{"type":"function","name":"supportsInterface","inputs":[{"name":"interfaceId","type":"bytes4","internalType":"bytes4"}],"outputs":[{"name":"","type":"bool","internalType":"bool"}],"stateMutability":"view"},{"type":"function","name":"symbol","inputs":[],"outputs":[{"name":"","type":"string","internalType":"string"}],"stateMutability":"view"},{"type":"function","name":"token","inputs":[],"outputs":[{"name":"","type":"address","internalType":"address"}],"stateMutability":"view"},{"type":"function","name":"totalSupply","inputs":[],"outputs":[{"name":"","type":"uint256","internalType":"uint256"}],"stateMutability":"view"},{"type":"function","name":"transfer","inputs":[{"name":"to","type":"address","internalType":"address"},{"name":"amount","type":"uint256","internalType":"uint256"}],"outputs":[{"name":"","type":"bool","internalType":"bool"}],"stateMutability":"nonpayable"},{"type":"function","name":"transferFrom","inputs":[{"name":"from","type":"address","internalType":"address"},{"name":"to","type":"address","internalType":"address"},{"name":"amount","type":"uint256","internalType":"uint256"}],"outputs":[{"name":"","type":"bool","internalType":"bool"}],"stateMutability":"nonpayable"},{"type":"function","name":"transferOwnership","inputs":[{"name":"newOwner","type":"address","internalType":"address"}],"outputs":[],"stateMutability":"nonpayable"},{"type":"function","name":"trustedRemoteLookup","inputs":[{"name":"","type":"uint16","internalType":"uint16"}],"outputs":[{"name":"","type":"bytes","internalType":"bytes"}],"stateMutability":"view"},{"type":"function","name":"useCustomAdapterParams","inputs":[],"outputs":[{"name":"","type":"bool","internalType":"bool"}],"stateMutability":"view"},{"type":"function","name":"yieldBox","inputs":[],"outputs":[{"name":"","type":"address","internalType":"contract IYieldBoxBase"}],"stateMutability":"view"},{"type":"event","name":"Approval","inputs":[{"name":"owner","type":"address","indexed":true,"internalType":"address"},{"name":"spender","type":"address","indexed":true,"internalType":"address"},{"name":"value","type":"uint256","indexed":false,"internalType":"uint256"}],"anonymous":false},{"type":"event","name":"CallOFTReceivedSuccess","inputs":[{"name":"_srcChainId","type":"uint16","indexed":true,"internalType":"uint16"},{"name":"_srcAddress","type":"bytes","indexed":false,"internalType":"bytes"},{"name":"_nonce","type":"uint64","indexed":false,"internalType":"uint64"},{"name":"_hash","type":"bytes32","indexed":false,"internalType":"bytes32"}],"anonymous":false},{"type":"event","name":"MessageFailed","inputs":[{"name":"_srcChainId","type":"uint16","indexed":false,"internalType":"uint16"},{"name":"_srcAddress","type":"bytes","indexed":false,"internalType":"bytes"},{"name":"_nonce","type":"uint64","indexed":false,"internalType":"uint64"},{"name":"_payload","type":"bytes","indexed":false,"internalType":"bytes"},{"name":"_reason","type":"bytes","indexed":false,"internalType":"bytes"}],"anonymous":false},{"type":"event","name":"NonContractAddress","inputs":[{"name":"_address","type":"address","indexed":false,"internalType":"address"}],"anonymous":false},{"type":"event","name":"OwnershipTransferred","inputs":[{"name":"previousOwner","type":"address","indexed":true,"internalType":"address"},{"name":"newOwner","type":"address","indexed":true,"internalType":"address"}],"anonymous":false},{"type":"event","name":"ReceiveFromChain","inputs":[{"name":"_srcChainId","type":"uint16","indexed":true,"internalType":"uint16"},{"name":"_to","type":"address","indexed":true,"internalType":"address"},{"name":"_amount","type":"uint256","indexed":false,"internalType":"uint256"}],"anonymous":false},{"type":"event","name":"RetryMessageSuccess","inputs":[{"name":"_srcChainId","type":"uint16","indexed":false,"internalType":"uint16"},{"name":"_srcAddress","type":"bytes","indexed":false,"internalType":"bytes"},{"name":"_nonce","type":"uint64","indexed":false,"internalType":"uint64"},{"name":"_payloadHash","type":"bytes32","indexed":false,"internalType":"bytes32"}],"anonymous":false},{"type":"event","name":"SendToChain","inputs":[{"name":"_dstChainId","type":"uint16","indexed":true,"internalType":"uint16"},{"name":"_from","type":"address","indexed":true,"internalType":"address"},{"name":"_toAddress","type":"bytes32","indexed":true,"internalType":"bytes32"},{"name":"_amount","type":"uint256","indexed":false,"internalType":"uint256"}],"anonymous":false},{"type":"event","name":"SetMinDstGas","inputs":[{"name":"_dstChainId","type":"uint16","indexed":false,"internalType":"uint16"},{"name":"_type","type":"uint16","indexed":false,"internalType":"uint16"},{"name":"_minDstGas","type":"uint256","indexed":false,"internalType":"uint256"}],"anonymous":false},{"type":"event","name":"SetPrecrime","inputs":[{"name":"precrime","type":"address","indexed":false,"internalType":"address"}],"anonymous":false},{"type":"event","name":"SetTrustedRemote","inputs":[{"name":"_remoteChainId","type":"uint16","indexed":false,"internalType":"uint16"},{"name":"_path","type":"bytes","indexed":false,"internalType":"bytes"}],"anonymous":false},{"type":"event","name":"SetTrustedRemoteAddress","inputs":[{"name":"_remoteChainId","type":"uint16","indexed":false,"internalType":"uint16"},{"name":"_remoteAddress","type":"bytes","indexed":false,"internalType":"bytes"}],"anonymous":false},{"type":"event","name":"SetUseCustomAdapterParams","inputs":[{"name":"_useCustomAdapterParams","type":"bool","indexed":false,"internalType":"bool"}],"anonymous":false},{"type":"event","name":"Transfer","inputs":[{"name":"from","type":"address","indexed":true,"internalType":"address"},{"name":"to","type":"address","indexed":true,"internalType":"address"},{"name":"value","type":"uint256","indexed":false,"internalType":"uint256"}],"anonymous":false},{"type":"error","name":"ActionTypeNotValid","inputs":[]},{"type":"error","name":"GasNotValid","inputs":[]},{"type":"error","name":"NotAuthorized","inputs":[]},{"type":"error","name":"NotValid","inputs":[]}],"bytecode":{"object":"0x60e0604090808252346200059f5762005c8d8038038091620000228285620005a4565b83398101610100828203126200059f576200003d82620005de565b906020926200004e848201620005de565b818601516001600160a01b03808216949290918590036200059f576060840151968288168098036200059f5760808501516001600160401b0394908581116200059f57816200009f91880162000618565b9060a0870151908682116200059f57620000bb91880162000618565b9160c087015160ff8116968782036200059f5762000116602b60e08f9b01519a5180966a546170696f63614f46542d60a81b878301526200010581518092898686019101620005f3565b810103600b810187520185620005a4565b607f8d518096601d60fa1b868301526200013a8151809288602186019101620005f3565b810103926200015460216001958681018a520188620005a4565b831c16936000958887549d60018060a01b03199e8f33908216178a55823391167f8be0079c531659141344cd1fd0a4f28419497f9722a3daafe3b4186f6b6457e08b80a3166080528560a05281518381116200058b57600b54928584811c9416801562000580575b878510146200056c578190601f9485811162000518575b508790858311600114620004b2578a92620004a6575b5050600019600383901b1c191690851b17600b555b80519283116200049257600c548481811c9116801562000487575b8682101462000473578281116200042a575b5084918311600114620003c4579282939183928894620003b8575b50501b916000199060031b1c191617600c555b6012821162000365575060120360ff8111620003515760ff1690604d82116200033d5750600a0a60c0526101f46012551684600f541617600f5560ff19601154161760115560105581600d541617600d55600e541617600e5551615619908162000674823960805181818161049f01528181610785015281816108a901528181610c6901528181610e2a0152818161204a0152818161234301528181612a76015281816146350152614a8f015260a0518161158a015260c0518181816117bb015281816121440152818161487b01528181614c8401528181614ee20152614f7c0152f35b634e487b7160e01b81526011600452602490fd5b634e487b7160e01b82526011600452602482fd5b6084908b519062461bcd60e51b82526004820152602760248201527f4f46543a20736861726564446563696d616c73206d757374206265203c3d20646044820152666563696d616c7360c81b6064820152fd5b01519250388062000246565b600c8752848720919083601f198116895b8888838310620004125750505010620003f8575b505050811b01600c5562000259565b015160001960f88460031b161c19169055388080620003e9565b868601518855909601959485019487935001620003d5565b600c88528588208380860160051c82019288871062000469575b0160051c019085905b8281106200045d5750506200022b565b8981550185906200044d565b9250819262000444565b634e487b7160e01b88526022600452602488fd5b90607f169062000219565b634e487b7160e01b87526041600452602487fd5b015190503880620001e9565b600b8b52888b208894509190601f1984168c5b8b828210620005015750508411620004e7575b505050811b01600b55620001fe565b015160001960f88460031b161c19169055388080620004d8565b8385015186558b97909501949384019301620004c5565b909150600b8a52878a208580850160051c8201928a861062000562575b918991869594930160051c01915b82811062000553575050620001d3565b8c815585945089910162000543565b9250819262000535565b634e487b7160e01b89526022600452602489fd5b93607f1693620001bc565b634e487b7160e01b88526041600452602488fd5b600080fd5b601f909101601f19168101906001600160401b03821190821017620005c857604052565b634e487b7160e01b600052604160045260246000fd5b51906001600160a01b03821682036200059f57565b60005b838110620006075750506000910152565b8181015183820152602001620005f6565b81601f820112156200059f5780516001600160401b038111620005c857604051926200064f601f8301601f191660200185620005a4565b818452602082840101116200059f57620006709160208085019101620005f3565b9056fe6080604052600436101561001b575b361561001957600080fd5b005b60003560e01c80621d3567146103cf57806254af3a146103ca57806301ffc9a7146103c557806306fdde03146103c057806307e0db17146103bb578063095ea7b3146103b65780630df37483146103b157806310ddb137146103ac57806318160ddd1461033e57806323b872dd146103a7578063313ce567146103a257806333ac90ab1461039d578063365260b41461039857806339509351146103935780633d8b38f61461038e5780633f1f4fa41461038957806342d65a8d1461038457806343f68a491461037f578063447705151461037a5780634c42899a1461037a5780635b8c41e61461037557806366ad5c8a14610370578063695ef6bf1461036b57806370a0823114610366578063715018a6146103615780637533d7881461035c57806376203b4814610357578063785e9e8614610352578063857749b01461034d5780638cfd8f5c146103485780638da5cb5b146103435780639358928b1461033e578063950c8a741461033957806395d89b4114610334578063981853081461032f5780639bdb98121461032a5780639f38369a14610325578063a457c2d714610320578063a4c51df51461031b578063a643c52e14610316578063a6c3d16514610311578063a9059cbb1461030c578063b353aaa714610307578063baf3292d14610302578063bc48a9e8146102fd578063c4461834146102f8578063cbed8b9c146102f3578063d1deba1f146102ee578063dbd01de1146102e9578063dd62ed3e146102e4578063de406577146102df578063df2a5b3b146102da578063e6a20ae6146102d5578063eab45d9c146102d0578063eaffd49a146102cb578063eb8d72b7146102c6578063ed629c5c146102c1578063f2fde38b146102bc578063f5ecbdbc146102b75763fc0c546a0361000e57612ae0565b612a0c565b612945565b612922565b6127d8565b61274f565b6126ed565b6126d1565b6125e4565b6125bb565b612561565b612538565b6123d5565b6122ef565b6122d2565b6120e9565b612079565b612034565b61200a565b611e87565b611e69565b611dd2565b611d14565b611c71565b611c26565b611763565b611652565b611629565b61090a565b611600565b6115ae565b611570565b611547565b611305565b6112ae565b611166565b611129565b611034565b610fa0565b610f39565b610eb2565b610e91565b610e10565b610dd7565b610d7b565b610ce7565b610bdf565b610b4d565b610968565b610928565b610880565b610841565b61080c565b61075c565b610677565b6105c5565b6105a7565b610488565b61ffff8116036103e057565b600080fd5b9181601f840112156103e0578235916001600160401b0383116103e057602083818601950101116103e057565b6001600160401b038116036103e057565b9060806003198301126103e05760043561043c816103d4565b916001600160401b03906024358281116103e0578161045d916004016103e5565b9390939260443561046d81610412565b926064359182116103e057610484916004016103e5565b9091565b346103e05761049636610423565b929493919291907f00000000000000000000000000000000000000000000000000000000000000006001600160a01b031633036105575761051c61052492610019976105156104fb6104f68a61ffff166000526001602052604060002090565b611291565b805190818414918261054d575b508161052a575b506142b9565b3691610a69565b923691610a69565b926143c9565b9050610537368486610a69565b602081519101209060208151910120143861050f565b1515915038610508565b60405162461bcd60e51b815260206004820152601e60248201527f4c7a4170703a20696e76616c696420656e64706f696e742063616c6c657200006044820152606490fd5b60009103126103e057565b346103e05760003660031901126103e0576020601054604051908152f35b346103e05760203660031901126103e05760043563ffffffff60e01b81168091036103e057602090631f7ecdf760e01b811490811561060a575b506040519015158152f35b6301ffc9a760e01b149050386105ff565b60005b83811061062e5750506000910152565b818101518382015260200161061e565b906020916106578151809281855285808601910161061b565b601f01601f1916010190565b90602061067492818152019061063e565b90565b346103e057600080600319360112610759576040519080600b5461069a816111c1565b8085529160019180831690811561072f57506001146106d4575b6106d0856106c481870382610a03565b60405191829182610663565b0390f35b9250600b83527f0175b7a638427703f0dbe7bb9bbf987a2551717b34e79f33b5b1008d1fa01db95b8284106107175750505081016020016106c4826106d06106b4565b805460208587018101919091529093019281016106fc565b8695506106d0969350602092506106c494915060ff191682840152151560051b82010192936106b4565b80fd5b346103e057600060203660031901126107595760043561077b816103d4565b610783613e3e565b7f00000000000000000000000000000000000000000000000000000000000000006001600160a01b0316908290823b156107f757602461ffff918360405195869485936307e0db1760e01b85521660048401525af180156107f2576107e6575080f35b6107ef9061099a565b80f35b6131e8565b5080fd5b6001600160a01b038116036103e057565b346103e05760403660031901126103e05761083660043561082c816107fb565b602435903361408a565b602060405160018152f35b346103e05760403660031901126103e05761ffff600435610861816103d4565b610869613e3e565b166000526003602052602435604060002055600080f35b346103e057600060203660031901126107595760043561089f816103d4565b6108a7613e3e565b7f00000000000000000000000000000000000000000000000000000000000000006001600160a01b0316908290823b156107f757602461ffff918360405195869485936310ddb13760e01b85521660048401525af180156107f2576107e6575080f35b346103e05760003660031901126103e0576020600a54604051908152f35b346103e05760603660031901126103e057610836600435610948816107fb565b602435610954816107fb565b604435916109638333836141b5565b613f82565b346103e05760003660031901126103e057602060405160128152f35b634e487b7160e01b600052604160045260246000fd5b6001600160401b0381116109ad57604052565b610984565b60c081019081106001600160401b038211176109ad57604052565b608081019081106001600160401b038211176109ad57604052565b604081019081106001600160401b038211176109ad57604052565b90601f801991011681019081106001600160401b038211176109ad57604052565b604051906101c082018281106001600160401b038211176109ad57604052565b801515036103e057565b6001600160401b0381116109ad57601f01601f191660200190565b929192610a7582610a4e565b91610a836040519384610a03565b8294818452818301116103e0578281602093846000960137010152565b9080601f830112156103e05781602061067493359101610a69565b91909160c0818403126103e05760405190610ad5826109b2565b81938135610ae281610a44565b8352602082013560208401526040820135610afc81610a44565b60408401526060820135610b0f816103d4565b60608401526080820135916001600160401b0383116103e057610b3860a0939284938301610aa0565b6080850152013591610b4983610a44565b0152565b6101003660031901126103e057600435610b66816107fb565b60803660431901126103e05760405190610b7f826109cd565b60443582526064356020830152608435610b98816107fb565b604083015260a435610ba9816107fb565b606083015260c435916001600160401b0383116103e057610bd1610019933690600401610abb565b9060e43592602435906131f4565b346103e05760a03660031901126103e057600435610bfc816103d4565b60643590610c0982610a44565b608435906001600160401b0382116103e057610c2e61051560409336906004016103e5565b90610c65610c48610c40604435614ee0565b602435614fb1565b928451958694859463040a7bb160e41b86523090600487016147d0565b03817f00000000000000000000000000000000000000000000000000000000000000006001600160a01b03165afa9081156107f2576000908192610cb6575b50604080519182526020820192909252f35b9050610cd9915060403d8111610ce0575b610cd18183610a03565b8101906147ba565b9038610ca4565b503d610cc7565b346103e05760403660031901126103e057600435610d04816107fb565b3360009081526009602090815260408083206001600160a01b03851684529091529020546024358101809111610d3e57610836913361408a565b612f28565b9060406003198301126103e057600435610d5c816103d4565b91602435906001600160401b0382116103e057610484916004016103e5565b346103e057602061ffff610dc8610d9136610d43565b9390911660005260018452610db3610dba6040600020604051928380926111fb565b0382610a03565b848151910120923691610a69565b82815191012014604051908152f35b346103e05760203660031901126103e05761ffff600435610df7816103d4565b1660005260036020526020604060002054604051908152f35b346103e057610e1e36610d43565b9190610e28613e3e565b7f00000000000000000000000000000000000000000000000000000000000000006001600160a01b031691823b156103e057604051928380926342d65a8d60e01b825281610e7f600098899788946004850161435a565b03925af180156107f2576107e6575080f35b346103e05760203660031901126103e057610eaa613e3e565b600435601255005b346103e05760003660031901126103e057602060405160008152f35b9060606003198301126103e057600435610ee7816103d4565b91602435906001600160401b0382116103e057610f0691600401610aa0565b9060443561067481610412565b602090610f2d92826040519483868095519384920161061b565b82019081520301902090565b346103e0576020610f9761ffff610f7683610f5336610ece565b94909116600052600582526040600020826040519483868095519384920161061b565b820190815203019020906001600160401b0316600052602052604060002090565b54604051908152f35b346103e057610fae36610423565b9192949390303303610fd25761051c610fcc92610019973691610a69565b92614814565b60405162461bcd60e51b815260206004820152602660248201527f4e6f6e626c6f636b696e674c7a4170703a2063616c6c6572206d7573742062656044820152650204c7a4170760d41b6064820152608490fd5b908160609103126103e05790565b60a03660031901126103e05760043561104c816107fb565b602435611058816103d4565b604435916084356001600160401b0381116103e057602061ffff6110a17fd81fc9b8523134ed613870ed029d6170cbb73aa6a6bc311b9a642689fb9df59a933690600401611026565b9361111485356110b0816107fb565b6110ce61051586890135986110c48a6107fb565b60408101906145b3565b6110d8818a614ddd565b6110ed6110e6606435614f7a565b5085615189565b976110f98915156149a7565b61110b6111058a614ee0565b8c614fb1565b9234938b614a4b565b6040519485526001600160a01b0316941692a4005b346103e05760203660031901126103e057600435611146816107fb565b60018060a01b031660005260086020526020604060002054604051908152f35b346103e05760008060031936011261075957611180613e3e565b80546001600160a01b03198116825581906001600160a01b03167f8be0079c531659141344cd1fd0a4f28419497f9722a3daafe3b4186f6b6457e08280a380f35b90600182811c921680156111f1575b60208310146111db57565b634e487b7160e01b600052602260045260246000fd5b91607f16916111d0565b906000929180549161120c836111c1565b91828252600193848116908160001461126e575060011461122e575b50505050565b90919394506000526020928360002092846000945b83861061125a575050505001019038808080611228565b805485870183015294019385908201611243565b9294505050602093945060ff191683830152151560051b01019038808080611228565b906112ac6112a592604051938480926111fb565b0383610a03565b565b346103e05760203660031901126103e05761ffff6004356112ce816103d4565b1660005260016020526106d0610db36112f16040600020604051928380926111fb565b60405191829160208352602083019061063e565b60e03660031901126103e05760043561131d816107fb565b602435611329816103d4565b604435916001600160401b03906084358281116103e05761134e9036906004016103e5565b91909260a4359161135e83610412565b60c4358281116103e057611376903690600401611026565b926113ad843595611386876107fb565b6113a561139b6020880135976110c4896107fb565b9990923691610a69565b973691610a69565b9460ff600654166000146114b457602286511061146f578560209561110b6111149461143d8c61142a61ffff9a8b60227fd81fc9b8523134ed613870ed029d6170cbb73aa6a6bc311b9a642689fb9df59a9f0151931660005260028d52841661142460406000206001600052602052604060002090565b54613ec2565b90611436821515614e32565b1015614e7e565b61145261144b606435614f7a565b5088615189565b9a61145e8c15156149a7565b8d6114688d614ee0565b9033615043565b60405162461bcd60e51b815260206004820152601c60248201527f4c7a4170703a20696e76616c69642061646170746572506172616d73000000006044820152606490fd5b9480949350516114f3577fd81fc9b8523134ed613870ed029d6170cbb73aa6a6bc311b9a642689fb9df59a9460209461ffff9461110b6111149461143d565b60405162461bcd60e51b815260206004820152602660248201527f4f4654436f72653a205f61646170746572506172616d73206d7573742062652060448201526532b6b83a3c9760d11b6064820152608490fd5b346103e05760003660031901126103e057600f546040516001600160a01b039091168152602090f35b346103e05760003660031901126103e057602060405160ff7f0000000000000000000000000000000000000000000000000000000000000000168152f35b346103e05760403660031901126103e0576020610f976004356115d0816103d4565b61ffff602435916115e0836103d4565b166000526002835260406000209061ffff16600052602052604060002090565b346103e05760003660031901126103e0576000546040516001600160a01b039091168152602090f35b346103e05760003660031901126103e0576004546040516001600160a01b039091168152602090f35b346103e057600080600319360112610759576040519080600c54611675816111c1565b8085529160019180831690811561072f575060011461169e576106d0856106c481870382610a03565b9250600c83527fdf6966c971051c3d54ec59162606531493a51404a002842f56009d7e5cf4a8c75b8284106116e15750505081016020016106c4826106d06106b4565b805460208587018101919091529093019281016116c6565b60a06003198201126103e057600435611711816107fb565b9160243561171e816103d4565b916001600160401b03916044358381116103e0578261173f91600401610aa0565b9260643561174c81610412565b926084359182116103e05761067491600401610aa0565b346103e057611771366116f9565b9350505050303303611c14576117e19061179560209182808251830101910161333b565b95949099919692975060018060a01b03809516968051611c05575b506001600160401b037f00000000000000000000000000000000000000000000000000000000000000009116614f67565b8252604080830180519094899161180e90611802906001600160a01b031681565b6001600160a01b031690565b9383519a8b809663de40657760e01b825260049d8e915afa9485156107f2578b958391600091611bd8575b50169683611853611802611802845160018060a01b031690565b86516377607a1760e11b81529d8e9182905afa9b8c156107f25760009c611bb1575b5086518551638eb22cdd60e01b81528781018e8152602081019290925260006040830152939291908590859081906060015b03818c5afa9384156107f257600094611b82575b50805185906001600160a01b0316848116611ae9575b5050611802611802826118f6876118f1611904965160018060a01b031690565b613e96565b50516001600160a01b031690565b803b156103e057855163cce19f8160e01b81526001600160a01b03929093168216878401908152918b1660208301526040820193909352909160009183919082908490829060600103925af180156107f257611ad6575b50875161197d575b505050505050505050805161197457005b6100199061354d565b80880195865111611ac857600e5461199d906001600160a01b0316611802565b81850180518451633a304d8b60e21b815260008782019081526001600160a01b03909216602083015291939283918391908290819060400103915afa9182156107f257600092611a9b575b505015611a8d5751611a0490611802906001600160a01b031681565b945192611a16606089015161ffff1690565b905191611a2b60a060808b01519a0151151590565b91873b156103e057600099611a58948a80938995519e8f9d8e9c8d9b6340b1d65760e01b8d528c01613411565b03925af180156107f257611a74575b8080808080808080611963565b80611a81611a879261099a565b8061059c565b38611a67565b505163ea8e4eb560e01b8152fd5b611aba9250803d10611ac1575b611ab28183610a03565b8101906133fc565b38806119e8565b503d611aa8565b50516313452dd160e11b8152fd5b80611a81611ae39261099a565b3861195b565b600e54611b35929190611b04906001600160a01b0316611802565b8951633a304d8b60e21b81526000818d019081526001600160a01b0390931660208401529384928391829160400190565b03915afa9081156107f257600091611b65575b5015611b555784386118d1565b855163ea8e4eb560e01b81528790fd5b611b7c9150863d8811611ac157611ab28183610a03565b38611b48565b611ba3919450853d8711611baa575b611b9b8183610a03565b8101906133ed565b92386118bb565b503d611b91565b6118a79392919c50611bcf90853d8711611baa57611b9b8183610a03565b9b909192611875565b611bf89150853d8711611bfe575b611bf08183610a03565b8101906133d8565b38611839565b503d611be6565b611c0e9061354d565b386117b0565b60405163ea8e4eb560e01b8152600490fd5b346103e057602060ff611c6561ffff610f7684611c4236610ece565b94909116600052600782526040600020826040519483868095519384920161061b565b54166040519015158152f35b346103e05760203660031901126103e05761ffff600435611c91816103d4565b166000526001602052610db3611cb16040600020604051928380926111fb565b805115611ccf576106c481611cc96106d09351612f3e565b906153c9565b60405162461bcd60e51b815260206004820152601d60248201527f4c7a4170703a206e6f20747275737465642070617468207265636f72640000006044820152606490fd5b346103e05760403660031901126103e057600435611d31816107fb565b60243590336000526009602052611d5e8160406000209060018060a01b0316600052602052604060002090565b5491808310611d7f57611d739203903361408a565b60405160018152602090f35b60405162461bcd60e51b815260206004820152602560248201527f45524332303a2064656372656173656420616c6c6f77616e63652062656c6f77604482015264207a65726f60d81b6064820152608490fd5b346103e05760e03660031901126103e057600435611def816103d4565b6001600160401b03906064358281116103e057611e109036906004016103e5565b608492919235611e1f81610412565b60a43591611e2c83610a44565b60c4359586116103e057611e47611e579636906004016103e5565b95909460443590602435906145e5565b60408051928352602083019190915290f35b346103e05760003660031901126103e0576020601254604051908152f35b346103e057611e9536610d43565b90611e9e613e3e565b60405192602092808385870137611eca6034868381013060601b88820152036014810188520186610a03565b60009361ffff8316855260019081815260408620918751916001600160401b0383116109ad57611f0483611efe86546111c1565b86614375565b80601f8411600114611f74575091808092611f639695948a9b7f8c0400cfe2d1199b1a725c78960bcc2a344d869b80590d0f2bd005db15a572ce9b94611f69575b50501b916000199060031b1c19161790555b6040519384938461435a565b0390a180f35b015192503880611f45565b91939498601f198416611f8c87600052602060002090565b938a905b828210611ff3575050917f8c0400cfe2d1199b1a725c78960bcc2a344d869b80590d0f2bd005db15a572ce999a95939185611f6398969410611fda575b505050811b019055611f57565b015160001960f88460031b161c19169055388080611fcd565b808886978294978701518155019601940190611f90565b346103e05760403660031901126103e05761083660043561202a816107fb565b6024359033613f82565b346103e05760003660031901126103e0576040517f00000000000000000000000000000000000000000000000000000000000000006001600160a01b03168152602090f35b346103e05760203660031901126103e0577f5db758e995a17ec1ad84bdef7e8c3293a0bd6179bcce400dff5d4c3d87db726b60206004356120b9816107fb565b6120c1613e3e565b600480546001600160a01b0319166001600160a01b03929092169182179055604051908152a1005b6120f2366116f9565b93909193303314801590612281575b611c1457839281518201602001602083019061211c91612daa565b6001600160a01b039097169d929b939a8b9a8b9a909950979396949591948f949392612172907f0000000000000000000000000000000000000000000000000000000000000000906001600160401b0316614f67565b8b52306000908152600860205260409020549a51612195908a908a908a90612f69565b825115159d6122007fbf551ec93859b170f9b2141bd9298bf3f64322c6f7beb2543a0cb669834118bf9f9e61ffff9f60009788976121f292612272575b5060405194859360208501976333ac90ab60e01b89528960248701612ea0565b03601f198101835282610a03565b51915af461220c612ef8565b928051612263575b501561222f575b8751604051908152838a16908b90602090a3005b3060009081526008602052604090206122579761224c9154612f5c565b885180911015613084565b3880808087818a61221b565b61226c90613823565b38612214565b61227b90613823565b386121d2565b50600760005260136020526122be7f8ba6fb577925b0796671c737df59b8aaae861b630513fb12823699e3e0e3ee605b546001600160a01b031690565b6001600160a01b0383811691161415612101565b346103e05760003660031901126103e05760206040516127108152f35b346103e05760803660031901126103e05760043561230c816103d4565b602435612318816103d4565b6064356001600160401b0381116103e0576123379036906004016103e5565b9092612341613e3e565b7f00000000000000000000000000000000000000000000000000000000000000006001600160a01b031690813b156103e057600080946123b8604051978896879586946332fb62e760e21b865261ffff80921660048701521660248501526044356044850152608060648501526084840191614339565b03925af180156107f2576123c857005b80611a816100199261099a565b6123de36610423565b9161ffff8694929616600052600560205261242581604060002060206040518092878b833787820190815203019020906001600160401b0316600052602052604060002090565b549182156124e7576124d684836124cf7fc264d91f3adc5588250e1551f547752ca0cfa8f6b530d243b9f9f4cab10ea8e59a60006124bb846124a38e8a8f6124e29f908f6124899061247c61249d9436908d610a69565b6020815191012014614526565b61ffff166000526005602052604060002090565b9161450d565b906001600160401b0316600052602052604060002090565b556124c736878d610a69565b933691610a69565b9188614814565b6040519586958661457c565b0390a1005b60405162461bcd60e51b815260206004820152602360248201527f4e6f6e626c6f636b696e674c7a4170703a206e6f2073746f726564206d65737360448201526261676560e81b6064820152608490fd5b346103e05760003660031901126103e057600e546040516001600160a01b039091168152602090f35b346103e05760403660031901126103e0576020610f97600435612583816107fb565b60243590612590826107fb565b60018060a01b03166000526009835260406000209060018060a01b0316600052602052604060002090565b346103e05760003660031901126103e057600d546040516001600160a01b039091168152602090f35b346103e05760603660031901126103e057600435612601816103d4565b60243561260d816103d4565b60443591612619613e3e565b8215612694576124e27f9d5c7c0b934da8fefa9c7760c98383778a12dfbfc0c3b3106518f43fb9508ac09361ffff831660005260026020528061266e8560406000209061ffff16600052602052604060002090565b556040519384938460409194939294606082019561ffff80921683521660208201520152565b60405162461bcd60e51b81526020600482015260156024820152744c7a4170703a20696e76616c6964206d696e47617360581b6044820152606490fd5b346103e05760003660031901126103e057602060405160018152f35b346103e05760203660031901126103e0577f1584ad594a70cbe1e6515592e1272a987d922b097ead875069cebe8b40c004a4602060043561272d81610a44565b612735613e3e565b151560ff196006541660ff821617600655604051908152a1005b346103e0576101003660031901126103e05760043561276d816103d4565b6001600160401b03906024358281116103e05761278e9036906004016103e5565b91906044359061279d82610412565b6084356127a9816107fb565b60c4359586116103e0576127c46100199636906004016103e5565b94909360e4359660a43594606435936146db565b346103e0576127e636610d43565b91906127f0613e3e565b60009161ffff81168352600160209080825260408520916001600160401b0387116109ad576128298761282385546111c1565b85614375565b8590601f88116001146128905750918680879893611f63957ffa41487ad5d6728f0b19276fa1eddc16558578f5109fc39d2dc33c3230470dab9993612885575b501b906000198460031b1c19161790556040519384938461435a565b880135925038612869565b90601f1988166128a585600052602060002090565b9288905b82821061290b575050918893917ffa41487ad5d6728f0b19276fa1eddc16558578f5109fc39d2dc33c3230470dab9899611f639694106128f1575b505082811b019055611f57565b870135600019600386901b60f8161c1916905538806128e4565b808685968294968c013581550195019301906128a9565b346103e05760003660031901126103e057602060ff600654166040519015158152f35b346103e05760203660031901126103e057600435612962816107fb565b61296a613e3e565b6001600160a01b0390811680156129b857600080546001600160a01b03198116831782559092167f8be0079c531659141344cd1fd0a4f28419497f9722a3daafe3b4186f6b6457e08380a380f35b60405162461bcd60e51b815260206004820152602660248201527f4f776e61626c653a206e6577206f776e657220697320746865207a65726f206160448201526564647265737360d01b6064820152608490fd5b346103e05760803660031901126103e057600435612a29816103d4565b60243590612a36826103d4565b612a416044356107fb565b604051633d7b2f6f60e21b815261ffff91821660048201529116602482015230604482015260648035908201526000816084817f00000000000000000000000000000000000000000000000000000000000000006001600160a01b03165afa80156107f2576106d091600091612abf575b5060405191829182610663565b612ada913d8091833e612ad28183610a03565b810190614314565b38612ab2565b346103e05760003660031901126103e0576020604051308152f35b51906112ac826103d4565b51906112ac826107fb565b51906112ac82610412565b91908260809103126103e057604051612b34816109cd565b606080829480518452602081015160208501526040810151612b55816107fb565b6040850152015191610b49836107fb565b51906112ac82610a44565b90929192612b7e81610a4e565b91612b8c6040519384610a03565b8294828452828201116103e05760206112ac93019061061b565b9080601f830112156103e057815161067492602001612b71565b91909160c0818403126103e05760405190612bda826109b2565b81938151612be781610a44565b8352602082015160208401526040820151612c0181610a44565b60408401526060820151612c14816103d4565b60608401526080820151916001600160401b0383116103e057612c3d60a0939284938301612ba6565b6080850152015191610b4983610a44565b519060ff821682036103e057565b81601f820112156103e0578051906001600160401b0382116109ad576040805193602091612c8f838660051b0187610a03565b84865282860191836101c0809702860101948186116103e0578401925b858410612cbd575050505050505090565b86848303126103e057848791612cd1610a24565b612cda87612b66565b8152612ce7838801612b66565b83820152612cf6868801612b66565b868201526060612d07818901612b66565b908201526080612d18818901612afb565b9082015260a0612d29818901612b06565b9082015260c0612d3a818901612b66565b9082015260e0612d4b818901612b06565b90820152610100612d5d818901612b06565b9082015261012080880151908201526101408088015190820152610160612d85818901612c4e565b9082015261018080880151908201526101a08088015190820152815201930192612cac565b90610180828203126103e057612dbf82612afb565b92612dcc60208401612b06565b92604081015192612ddf60608301612b11565b92612ded8260808501612b1c565b92610100810151916001600160401b03928381116103e05784612e11918401612bc0565b936101208301518481116103e05781612e2b918501612c5c565b936101408401519081116103e05761016091612e48918501612c5c565b92015190565b908151151581526020820151602082015260408201511515604082015261ffff606083015116606082015260a080612e95608085015160c0608086015260c085019061063e565b930151151591015290565b95949390606060e094612ef39460018060a01b038094168a5260208a0152805160408a01526020810151828a01528260408201511660808a015201511660a08701526101008060c0880152860190612e4e565b930152565b3d15612f23573d90612f0982610a4e565b91612f176040519384610a03565b82523d6000602084013e565b606090565b634e487b7160e01b600052601160045260246000fd5b601319810191908211610d3e57565b605019810191908211610d3e57565b91908203918211610d3e57565b91929061ffff8116600052600760205260ff612f9c8360406000206020604051809282610f768c8481519384920161061b565b541615612fa95750505050565b301561303f57613036936130236124a39285612fd2612fcd61302998600a54613ec2565b600a55565b30600090815260086020526040902081815401905560006000805160206155c48339815191526040518061300c3095829190602083019252565b0390a361ffff166000526007602052604060002090565b90610f13565b805460ff19166001179055565b38808080611228565b60405162461bcd60e51b815260206004820152601f60248201527f45524332303a206d696e7420746f20746865207a65726f2061646472657373006044820152606490fd5b97969492959391909761309e575b506112ac95965061445d565b613123906000806040519260209b8c85019163a9059cbb60e01b835260018060a01b031660248601526044850152604484526130d9846109cd565b604051936130e6856109e8565b8c85527f5361666545524332303a206c6f772d6c6576656c2063616c6c206661696c65648d860152519082305af161311c612ef8565b9030614244565b805180613131575b50613092565b9088806131429383010191016133fc565b1561314e57868061312b565b60405162461bcd60e51b815260048101889052602a60248201527f5361666545524332303a204552433230206f7065726174696f6e20646964206e6044820152691bdd081cdd58d8d9595960b21b6064820152608490fd5b919261067495949160e09460018060a01b0380921685521660208401526040830152606082015260016080820152600160a08201528160c08201520190612e4e565b6040513d6000823e3d90fd5b939093303314908115916132a1575b50611c1457613230611802611802604085016118f6613228825160018060a01b031690565b875190613e96565b60608301519091906001600160a01b0316906020845194015195833b156103e057604051637a7ccd9160e01b8152966000968896879586946132839492916001600160a01b0390911690600487016131a6565b03925af180156107f2576132945750565b80611a816112ac9261099a565b6007600052601360205290506132d67f8ba6fb577925b0796671c737df59b8aaae861b630513fb12823699e3e0e3ee606122b1565b6001600160a01b039081169116141538613203565b91908260609103126103e057604051606081018181106001600160401b038211176109ad57604052604080829480518452602081015161332a816107fb565b6020850152015191610b49836107fb565b90610160828203126103e05761335082612afb565b9261335d60208401612b06565b9260408101519261337060608301612b11565b9261337e82608085016132eb565b9260e0810151916001600160401b03928381116103e057846133a1918401612bc0565b936101008301518481116103e057816133bb918501612c5c565b936101208401519081116103e05761014091612e48918501612c5c565b908160209103126103e05751610674816107fb565b908160209103126103e0575190565b908160209103126103e0575161067481610a44565b98959161346194610120999c9b98948b979361ffff9360018060a01b03998a80931690521660208d015260408c01521660608a0152608089015260a08801526101408060c089015287019061063e565b961660e08501526101008401521515910152565b80518210156134895760209160051b010190565b634e487b7160e01b600052603260045260246000fd5b9061ffff6134ba60209295949560408552604085019061063e565b9416910152565b60009060033d116134ce57565b905060046000803e60005160e01c90565b600060443d1061067457604051600319913d83016004833e81516001600160401b03918282113d60248401111761353c57818401948551938411613544573d8501016020848701011161353c575061067492910160200190610a03565b949350505050565b50949350505050565b9060005b825181101561381e5760406135728161356a8487613475565b510151151590565b156135c057508061358a606061356a60019487613475565b156135a8576135a261359c8286613475565b51613a73565b01613551565b6135bb6135b58286613475565b51613cb6565b6135a2565b608061030461ffff6135e0836135d6878a613475565b51015161ffff1690565b160361380d576135f560c061356a8588613475565b61361360e06136048689613475565b5101516001600160a01b031690565b916136e5613627610100613604888b613475565b936136d7610120613638898c613475565b5101518a6101406136498b83613475565b51015161366561016061365c8d85613475565b51015160ff1690565b906101a06136838d61018061367a8288613475565b51015195613475565b510151938b519a8b9760209b8c8a0194909897969360e0969260ff9461010088019b1515885260018060a01b038092166020890152166040870152606086015260808501521660a083015260c08201520152565b03601f198101855284610a03565b6137086136fd61180261180260a06136048a8d613475565b916135d6878a613475565b90803b156103e0576137366000929183928751948580948193631221baf960e31b835260049a8b840161349f565b03925af190816137fa575b506137605760016137506134c1565b6308c379a0146137b2575b61376b575b5050506001906135a2565b613788613784613779612ef8565b9261356a878a613475565b1590565b15613760576137996137ae916139c5565b925162461bcd60e51b81529283928301610663565b0390fd5b6137ba6134df565b806137c6575b5061375b565b600091506137db6137848461356a898c613475565b156137c057845162461bcd60e51b81529081906137ae90828701610663565b80611a816138079261099a565b38613741565b8151639f62049960e01b8152600490fd5b509050565b9060005b825181101561381e5760406138408161356a8487613475565b15613882575080613858606061356a60019487613475565b156138705761386a61359c8286613475565b01613827565b61387d6135b58286613475565b61386a565b608061030761ffff613898836135d6878a613475565b160361380d576138ad60c061356a8588613475565b6138bc60e06136048689613475565b916138d0613627610100613604888b613475565b6138e86136fd61180261180260a06136048a8d613475565b90803b156103e0576139166000929183928751948580948193631221baf960e31b835260049a8b840161349f565b03925af190816139b2575b506139405760016139306134c1565b6308c379a01461396a575b61394b575b50505060019061386a565b613959613784613779612ef8565b15613940576137996137ae916139c5565b6139726134df565b8061397e575b5061393b565b600091506139936137848461356a898c613475565b1561397857845162461bcd60e51b81529081906137ae90828701610663565b80611a816139bf9261099a565b38613921565b6103e8815111613a46576044815110613a20576004810151810190602081602484019303126103e0576024810151906001600160401b0382116103e0570190806043830112156103e057602482015161067492604401612b71565b50604051613a2d816109e8565b6009815268544f46545f6461746160b81b602082015290565b50604051613a53816109e8565b601081526f2a27a32a2fa627a723afa922a0a9a7a760811b602082015290565b805115613bec5760a0810151613a9390611802906001600160a01b031681565b60e08201516001600160a01b03166101008301516001600160a01b03169161014084015190613ac761016086015160ff1690565b93610180860151936101a087015190833b156103e0576040516365e2b81f60e01b81526001600160a01b03918216600482015292166024830152604482019390935260ff9094166064850152608484019290925260a4830152600090829081838160c481015b03925af19081613bd9575b50613b57576001613b476134c1565b6308c379a014613b9b575b613b5a575b50565b613b726137846020613b6a612ef8565b930151151590565b15613b5757613b836137ae916139c5565b60405162461bcd60e51b815291829160048301610663565b613ba36134df565b80613baf575b50613b52565b602083015160009250613ba9575b60405162461bcd60e51b81529081906137ae9060048301610663565b80611a81613be69261099a565b38613b38565b60a0810151613c0590611802906001600160a01b031681565b60e08201516001600160a01b03166101008301516001600160a01b0316916101208401519061014085015193613c4061016087015160ff1690565b93610180870151906101a088015195843b156103e0576040516372dcad7b60e01b81526001600160a01b0392831660048201529190931660248201526044810194909452606484019590955260ff16608483015260a482019390935260c481019190915290600090829081838160e48101613b2d565b805115613d745760a0810151613cd690611802906001600160a01b031681565b60e08201516001600160a01b03166101008301516001600160a01b03169161014084015190613d0a61016086015160ff1690565b93610180860151936101a087015190833b156103e05760405163aba0784760e01b81526001600160a01b03918216600482015292166024830152604482019390935260ff9094166064850152608484019290925260a4830152600090829081838160c48101613b2d565b60a0810151613d8d90611802906001600160a01b031681565b60e08201516001600160a01b03166101008301516001600160a01b0316916101208401519061014085015193613dc861016087015160ff1690565b93610180870151906101a088015195843b156103e05760405163d505accf60e01b81526001600160a01b0392831660048201529190931660248201526044810194909452606484019590955260ff16608483015260a482019390935260c481019190915290600090829081838160e48101613b2d565b6000546001600160a01b03163303613e5257565b606460405162461bcd60e51b815260206004820152602060248201527f4f776e61626c653a2063616c6c6572206973206e6f7420746865206f776e65726044820152fd5b90613ea1913361408a565b600190565b90601f8201809211610d3e57565b6051019081605111610d3e57565b91908201809211610d3e57565b15613ed657565b60405162461bcd60e51b815260206004820152602360248201527f45524332303a207472616e7366657220746f20746865207a65726f206164647260448201526265737360e81b6064820152608490fd5b15613f2e57565b60405162461bcd60e51b815260206004820152602660248201527f45524332303a207472616e7366657220616d6f756e7420657863656564732062604482015265616c616e636560d01b6064820152608490fd5b916001600160a01b0380841692909183156140375761401c826000805160206155c483398151915294614032941696613fbc881515613ecf565b6001600160a01b038116600090815260086020526040902061400190859054613fe782821015613f27565b039160018060a01b03166000526008602052604060002090565b556001600160a01b0316600090815260086020526040902090565b8054820190556040519081529081906020820190565b0390a3565b60405162461bcd60e51b815260206004820152602560248201527f45524332303a207472616e736665722066726f6d20746865207a65726f206164604482015264647265737360d81b6064820152608490fd5b6001600160a01b03808216929190831561416457821693841561411457806141037f8c5be1e5ebec7d5bd14f71427d1e84f3dd0314c0f7b2291e5b200ac8c7c3b925946140ec6140329560018060a01b03166000526009602052604060002090565b9060018060a01b0316600052602052604060002090565b556040519081529081906020820190565b60405162461bcd60e51b815260206004820152602260248201527f45524332303a20617070726f766520746f20746865207a65726f206164647265604482015261737360f01b6064820152608490fd5b60405162461bcd60e51b8152602060048201526024808201527f45524332303a20617070726f76652066726f6d20746865207a65726f206164646044820152637265737360e01b6064820152608490fd5b6001600160a01b0380821660009081526009602090815260408083209386168352929052209091905492600184016141ed5750505050565b8084106141ff5761303693039161408a565b60405162461bcd60e51b815260206004820152601d60248201527f45524332303a20696e73756666696369656e7420616c6c6f77616e63650000006044820152606490fd5b919290156142a65750815115614258575090565b3b156142615790565b60405162461bcd60e51b815260206004820152601d60248201527f416464726573733a2063616c6c20746f206e6f6e2d636f6e74726163740000006044820152606490fd5b825190915015613bbd5750805190602001fd5b156142c057565b60405162461bcd60e51b815260206004820152602660248201527f4c7a4170703a20696e76616c696420736f757263652073656e64696e6720636f6044820152651b9d1c9858dd60d21b6064820152608490fd5b906020828203126103e05781516001600160401b0381116103e0576106749201612ba6565b908060209392818452848401376000828201840152601f01601f1916010190565b60409061ffff61067495931681528160208201520191614339565b90601f811161438357505050565b600091825260208220906020601f850160051c830194106143bf575b601f0160051c01915b8281106143b457505050565b8181556001016143a8565b909250829061439f565b92909161443b5a604051633356ae4560e11b602082015261ffff8716602482015260806044820152906144358261442761440660a483018a61063e565b6001600160401b03881660648401528281036023190160848401528861063e565b03601f198101845283610a03565b30615578565b93901561444a575b5050505050565b6144539461445d565b3880808080614443565b91936144fa7fe183f33de2837795525b4792ca4cd60535bd77c53b7e7030060bfcf5734d6b0c95614508939561ffff815160208301209616958660005260056020526144c183610f7660208b6040600020826040519483868095519384920161061b565b556001600160401b036144e6604051988998895260a060208a015260a089019061063e565b92166040870152858203606087015261063e565b90838203608085015261063e565b0390a1565b6020919283604051948593843782019081520301902090565b1561452d57565b60405162461bcd60e51b815260206004820152602160248201527f4e6f6e626c6f636b696e674c7a4170703a20696e76616c6964207061796c6f616044820152601960fa1b6064820152608490fd5b916145a89060609461ffff6001600160401b039499989799168552608060208601526080850191614339565b951660408201520152565b903590601e19813603018212156103e057018035906001600160401b0382116103e0576020019181360383136103e057565b94919598979061146861460e60409961460661461497614631993691610a69565b943691610a69565b97614ee0565b928451968794859463040a7bb160e41b86523090600487016147d0565b03817f00000000000000000000000000000000000000000000000000000000000000006001600160a01b03165afa9182156107f257600090819361467457509190565b905061048491925060403d8111610ce057610cd18183610a03565b939694916146bd9061067499979461ffff6001600160401b039416875260c0602088015260c0870191614339565b961660408401526060830152608082015260a0818503910152614339565b91969792989594939094303303614775576146f7908530615315565b60405181815290946001600160a01b03169390849061ffff8516907fbf551ec93859b170f9b2141bd9298bf3f64322c6f7beb2543a0cb669834118bf90602090a3833b156103e0576000988995614765936040519c8d9b8c9a8b98633fe79aed60e11b8a5260048a0161468f565b0393f180156107f2576132945750565b60405162461bcd60e51b815260206004820152601f60248201527f4f4654436f72653a2063616c6c6572206d757374206265204f4654436f7265006044820152606490fd5b91908260409103126103e0576020825192015190565b9192610674959361ffff6147ff9316845260018060a01b0316602084015260a0604084015260a083019061063e565b9215156060820152608081840391015261063e565b92919060ff6148228461551d565b16806149525750505060ff6148368261551d565b161580614947575b61484790614ff7565b614859614853826154cd565b91615568565b90916001600160a01b03918284161561493d575b6148a1906001600160401b037f00000000000000000000000000000000000000000000000000000000000000009116614f67565b91831692831561303f577fbf551ec93859b170f9b2141bd9298bf3f64322c6f7beb2543a0cb669834118bf916148fd61ffff926148e3612fcd87600a54613ec2565b6001600160a01b0316600090815260086020526040902090565b8481540190558460006000805160206155c48339815191526040518061492889829190602083019252565b0390a360405193845216918060208101614032565b61dead935061486d565b50805160291461483e565b600103614962576112ac93614c38565b60405162461bcd60e51b815260206004820152601c60248201527f4f4654436f72653a20756e6b6e6f776e207061636b65742074797065000000006044820152606490fd5b156149ae57565b60405162461bcd60e51b815260206004820152601960248201527f4f4654436f72653a20616d6f756e7420746f6f20736d616c6c000000000000006044820152606490fd5b92614a1861067497959361ffff614a269416865260c0602087015260c086019061063e565b90848203604086015261063e565b6001600160a01b0391821660608401529316608082015280830360a09091015261063e565b94614a749193929561ffff81166000526001602052614a7b6040600020604051948580926111fb565b0384610a03565b825115614ae257614a8d855182614b40565b7f00000000000000000000000000000000000000000000000000000000000000006001600160a01b031693843b156103e05760009661328391604051998a988997889662c5803160e81b8852600488016149f3565b60405162461bcd60e51b815260206004820152603060248201527f4c7a4170703a2064657374696e6174696f6e20636861696e206973206e6f742060448201526f61207472757374656420736f7572636560801b6064820152608490fd5b61ffff166000526003602052604060002054908115614ba5575b11614b6157565b606460405162461bcd60e51b815260206004820152602060248201527f4c7a4170703a207061796c6f61642073697a6520697320746f6f206c617267656044820152fd5b6127109150614b5a565b98979692936001600160401b03614be160e0989461ffff612ef39995168d5260208d61010091829101528d019061063e565b951660408b015260608a01526001600160a01b0316608089015260a088015286820360c088015261063e565b6001600160401b03614c2d6040939695949660608452606084019061063e565b951660208201520152565b9091614c43846150b0565b9091614c74614c6d876124a3614c678b61ffff166000526007602052604060002090565b8c610f13565b5460ff1690565b91614caa6001600160401b0392837f00000000000000000000000000000000000000000000000000000000000000009116614f67565b9288888b8315614da6575b505050853b15614d5b5794614cfc9694614435948a94614427948d99600014614d545750505a925b5a978b6040519a8b9863757fea4d60e11b60208b015260248a01614baf565b9015614d49575090614d4461ffff928560207fb8890edbfc1c74692f527444645f95489c3703cc2df42e4a366f5d06fa6cd88496975191012090604051948594169684614c0d565b0390a2565b926112ac949261445d565b1692614cdd565b50506040516001600160a01b039094168452507f9aedf5fdba8716db3b6705ca00150643309995d4f818a249ed6dde6677e7792d975091955085945050602084019250614508915050565b906124a36130299261302389614dc0614dd5979b306152b2565b9961ffff166000526007602052604060002090565b88888b614cb5565b60065460ff1615614e2a57602282511061146f5761ffff60226112ac93015191166000526002602052614e1d604060002060008052602052604060002090565b5490611436821515614e32565b50516114f357565b15614e3957565b60405162461bcd60e51b815260206004820152601a60248201527f4c7a4170703a206d696e4761734c696d6974206e6f74207365740000000000006044820152606490fd5b15614e8557565b60405162461bcd60e51b815260206004820152601b60248201527f4c7a4170703a20676173206c696d697420697320746f6f206c6f7700000000006044820152606490fd5b634e487b7160e01b600052601260045260246000fd5b7f0000000000000000000000000000000000000000000000000000000000000000908115614f6257046001600160401b0390818111614f1d571690565b60405162461bcd60e51b815260206004820152601a60248201527f4f4654436f72653a20616d6f756e745344206f766572666c6f770000000000006044820152606490fd5b614eca565b81810292918115918404141715610d3e57565b7f00000000000000000000000000000000000000000000000000000000000000008015614f6257810690818103908111610d3e5791565b90604051916000602084015260218301526001600160401b0360c01b9060c01b16604182015260298152606081018181106001600160401b038211176109ad5760405290565b15614ffe57565b60405162461bcd60e51b815260206004820152601860248201527f4f4654436f72653a20696e76616c6964207061796c6f616400000000000000006044820152606490fd5b939260719261067494604051968794600160f81b602087015260218601526001600160401b0360c01b809360c01b16604186015260018060a01b0316604985015260c01b1660698301526150a0815180926020868601910161061b565b8101036051810184520182610a03565b906150c8600160ff6150c18561551d565b1614614ff7565b6150d1826154cd565b906150db83615568565b90604984511061514c5760498401519360518151106151105761510d6051820151916151078151612f4d565b90615449565b91565b60405162461bcd60e51b8152602060048201526014602482015273746f55696e7436345f6f75744f66426f756e647360601b6044820152606490fd5b60405162461bcd60e51b8152602060048201526015602482015274746f427974657333325f6f75744f66426f756e647360581b6044820152606490fd5b6001600160a01b03811633810361524b575b80156151fc57816151d1846151c460009560018060a01b03166000526008602052604060002090565b54613fe78282101561525b565b556151df83600a5403600a55565b6040518381526000805160206155c483398151915290602090a390565b60405162461bcd60e51b815260206004820152602160248201527f45524332303a206275726e2066726f6d20746865207a65726f206164647265736044820152607360f81b6064820152608490fd5b6152568333846141b5565b61519b565b1561526257565b60405162461bcd60e51b815260206004820152602260248201527f45524332303a206275726e20616d6f756e7420657863656564732062616c616e604482015261636560f01b6064820152608490fd5b6001600160a01b0381169190821561303f57600a5490828201809211610d3e576000926153066020926000805160206155c483398151915294600a5560018060a01b03166000526008602052604060002090565b818154019055604051908152a3565b6106749183916001600160a01b038116308114159081615341575b5015613f82576109638333836141b5565b905033141538615330565b1561535357565b60405162461bcd60e51b815260206004820152600e60248201526d736c6963655f6f766572666c6f7760901b6044820152606490fd5b1561539057565b60405162461bcd60e51b8152602060048201526011602482015270736c6963655f6f75744f66426f756e647360781b6044820152606490fd5b6153dd826153d681613ea6565b101561534c565b6153ea8282511015615389565b81615402575050604051600081526020810160405290565b60405191601f811691821560051b808486010193838501920101905b8084106154365750508252601f01601f191660405290565b909283518152602080910193019061541e565b615456826153d681613ea6565b61546b815161546484613eb4565b1115615389565b81615483575050604051600081526020810160405290565b60405191601f8116916051831560051b80858701019484860193010101905b8084106154ba5750508252601f01601f191660405290565b90928351815260208091019301906154a2565b60218151106154e057602d015160601c90565b60405162461bcd60e51b8152602060048201526015602482015274746f416464726573735f6f75744f66426f756e647360581b6044820152606490fd5b600181511061552d576001015190565b60405162461bcd60e51b8152602060048201526013602482015272746f55696e74385f6f75744f66426f756e647360681b6044820152606490fd5b6029815110615110576029015190565b909291600080916040519561558c876109b2565b6096875282602088019560a036883760208451940192f1903d90609682116155ba575b6000908286523e9190565b609691506155af56feddf252ad1be2c89b69c2b068fc378daa952ba7f163c4a11628f55a4df523b3efa2646970667358221220aa1f68109b8a2667525d65d51ada5fbb7b61a7f46e6f8d81f867b623c0dc1fee64736f6c63430008130033","linkReferences":{}},"methodIdentifiers":{"DEFAULT_PAYLOAD_SIZE_LIMIT()":"c4461834","NO_EXTRA_GAS()":"44770515","PT_SEND()":"4c42899a","PT_SEND_AND_CALL()":"e6a20ae6","SWAP_MAX_SLIPPAGE()":"a643c52e","allowance(address,address)":"dd62ed3e","approve(address,uint256)":"095ea7b3","balanceOf(address)":"70a08231","borrow(address,uint16,bytes,uint64,bytes)":"bc48a9e8","borrowInternal(address,bytes32,(uint256,uint256,address,address),(bool,uint256,bool,uint16,bytes,bool),uint256)":"33ac90ab","callOnOFTReceived(uint16,bytes,uint64,bytes32,address,uint256,bytes,uint256)":"eaffd49a","circulatingSupply()":"9358928b","cluster()":"dbd01de1","creditedPackets(uint16,bytes,uint64)":"9bdb9812","decimals()":"313ce567","decreaseAllowance(address,uint256)":"a457c2d7","erc20()":"785e9e86","estimateSendAndCallFee(uint16,bytes32,uint256,bytes,uint64,bool,bytes)":"a4c51df5","estimateSendFee(uint16,bytes32,uint256,bool,bytes)":"365260b4","failedMessages(uint16,bytes,uint64)":"5b8c41e6","forceResumeReceive(uint16,bytes)":"42d65a8d","getConfig(uint16,uint16,address,uint256)":"f5ecbdbc","getTrustedRemoteAddress(uint16)":"9f38369a","hostChainID()":"0054af3a","increaseAllowance(address,uint256)":"39509351","isTrustedRemote(uint16,bytes)":"3d8b38f6","lzEndpoint()":"b353aaa7","lzReceive(uint16,bytes,uint64,bytes)":"001d3567","minDstGasLookup(uint16,uint16)":"8cfd8f5c","name()":"06fdde03","nonblockingLzReceive(uint16,bytes,uint64,bytes)":"66ad5c8a","owner()":"8da5cb5b","payloadSizeLimitLookup(uint16)":"3f1f4fa4","precrime()":"950c8a74","remove(address,uint16,bytes,uint64,bytes)":"98185308","renounceOwnership()":"715018a6","retryMessage(uint16,bytes,uint64,bytes)":"d1deba1f","sendAndCall(address,uint16,bytes32,uint256,bytes,uint64,(address,address,bytes))":"76203b48","sendFrom(address,uint16,bytes32,uint256,(address,address,bytes))":"695ef6bf","setConfig(uint16,uint16,uint256,bytes)":"cbed8b9c","setMaxSlippage(uint256)":"43f68a49","setMinDstGas(uint16,uint16,uint256)":"df2a5b3b","setPayloadSizeLimit(uint16,uint256)":"0df37483","setPrecrime(address)":"baf3292d","setReceiveVersion(uint16)":"10ddb137","setSendVersion(uint16)":"07e0db17","setTrustedRemote(uint16,bytes)":"eb8d72b7","setTrustedRemoteAddress(uint16,bytes)":"a6c3d165","setUseCustomAdapterParams(bool)":"eab45d9c","sharedDecimals()":"857749b0","supportsInterface(bytes4)":"01ffc9a7","symbol()":"95d89b41","token()":"fc0c546a","totalSupply()":"18160ddd","transfer(address,uint256)":"a9059cbb","transferFrom(address,address,uint256)":"23b872dd","transferOwnership(address)":"f2fde38b","trustedRemoteLookup(uint16)":"7533d788","useCustomAdapterParams()":"ed629c5c","yieldBox()":"de406577"},"id":10}