{"abi":[{"type":"constructor","inputs":[{"name":"_lzEndpoint","type":"address","internalType":"address"},{"name":"_erc20","type":"address","internalType":"address"},{"name":"_yieldBox","type":"address","internalType":"contract IYieldBoxBase"},{"name":"_cluster","type":"address","internalType":"contract ICluster"},{"name":"_name","type":"string","internalType":"string"},{"name":"_symbol","type":"string","internalType":"string"},{"name":"_decimal","type":"uint8","internalType":"uint8"},{"name":"_hostChainID","type":"uint256","internalType":"uint256"}],"stateMutability":"nonpayable"},{"type":"receive","stateMutability":"payable"},{"type":"function","name":"DEFAULT_PAYLOAD_SIZE_LIMIT","inputs":[],"outputs":[{"name":"","type":"uint256","internalType":"uint256"}],"stateMutability":"view"},{"type":"function","name":"NO_EXTRA_GAS","inputs":[],"outputs":[{"name":"","type":"uint256","internalType":"uint256"}],"stateMutability":"view"},{"type":"function","name":"PT_SEND","inputs":[],"outputs":[{"name":"","type":"uint8","internalType":"uint8"}],"stateMutability":"view"},{"type":"function","name":"PT_SEND_AND_CALL","inputs":[],"outputs":[{"name":"","type":"uint8","internalType":"uint8"}],"stateMutability":"view"},{"type":"function","name":"SWAP_MAX_SLIPPAGE","inputs":[],"outputs":[{"name":"","type":"uint256","internalType":"uint256"}],"stateMutability":"view"},{"type":"function","name":"allowance","inputs":[{"name":"owner","type":"address","internalType":"address"},{"name":"spender","type":"address","internalType":"address"}],"outputs":[{"name":"","type":"uint256","internalType":"uint256"}],"stateMutability":"view"},{"type":"function","name":"approve","inputs":[{"name":"spender","type":"address","internalType":"address"},{"name":"amount","type":"uint256","internalType":"uint256"}],"outputs":[{"name":"","type":"bool","internalType":"bool"}],"stateMutability":"nonpayable"},{"type":"function","name":"balanceOf","inputs":[{"name":"account","type":"address","internalType":"address"}],"outputs":[{"name":"","type":"uint256","internalType":"uint256"}],"stateMutability":"view"},{"type":"function","name":"callOnOFTReceived","inputs":[{"name":"_srcChainId","type":"uint16","internalType":"uint16"},{"name":"_srcAddress","type":"bytes","internalType":"bytes"},{"name":"_nonce","type":"uint64","internalType":"uint64"},{"name":"_from","type":"bytes32","internalType":"bytes32"},{"name":"_to","type":"address","internalType":"address"},{"name":"_amount","type":"uint256","internalType":"uint256"},{"name":"_payload","type":"bytes","internalType":"bytes"},{"name":"_gasForCall","type":"uint256","internalType":"uint256"}],"outputs":[],"stateMutability":"nonpayable"},{"type":"function","name":"circulatingSupply","inputs":[],"outputs":[{"name":"","type":"uint256","internalType":"uint256"}],"stateMutability":"view"},{"type":"function","name":"cluster","inputs":[],"outputs":[{"name":"","type":"address","internalType":"contract ICluster"}],"stateMutability":"view"},{"type":"function","name":"creditedPackets","inputs":[{"name":"","type":"uint16","internalType":"uint16"},{"name":"","type":"bytes","internalType":"bytes"},{"name":"","type":"uint64","internalType":"uint64"}],"outputs":[{"name":"","type":"bool","internalType":"bool"}],"stateMutability":"view"},{"type":"function","name":"decimals","inputs":[],"outputs":[{"name":"","type":"uint8","internalType":"uint8"}],"stateMutability":"view"},{"type":"function","name":"decreaseAllowance","inputs":[{"name":"spender","type":"address","internalType":"address"},{"name":"subtractedValue","type":"uint256","internalType":"uint256"}],"outputs":[{"name":"","type":"bool","internalType":"bool"}],"stateMutability":"nonpayable"},{"type":"function","name":"erc20","inputs":[],"outputs":[{"name":"","type":"address","internalType":"address"}],"stateMutability":"view"},{"type":"function","name":"estimateSendAndCallFee","inputs":[{"name":"_dstChainId","type":"uint16","internalType":"uint16"},{"name":"_toAddress","type":"bytes32","internalType":"bytes32"},{"name":"_amount","type":"uint256","internalType":"uint256"},{"name":"_payload","type":"bytes","internalType":"bytes"},{"name":"_dstGasForCall","type":"uint64","internalType":"uint64"},{"name":"_useZro","type":"bool","internalType":"bool"},{"name":"_adapterParams","type":"bytes","internalType":"bytes"}],"outputs":[{"name":"nativeFee","type":"uint256","internalType":"uint256"},{"name":"zroFee","type":"uint256","internalType":"uint256"}],"stateMutability":"view"},{"type":"function","name":"estimateSendFee","inputs":[{"name":"_dstChainId","type":"uint16","internalType":"uint16"},{"name":"_toAddress","type":"bytes32","internalType":"bytes32"},{"name":"_amount","type":"uint256","internalType":"uint256"},{"name":"_useZro","type":"bool","internalType":"bool"},{"name":"_adapterParams","type":"bytes","internalType":"bytes"}],"outputs":[{"name":"nativeFee","type":"uint256","internalType":"uint256"},{"name":"zroFee","type":"uint256","internalType":"uint256"}],"stateMutability":"view"},{"type":"function","name":"executSendFromWithParams","inputs":[{"name":"","type":"address","internalType":"address"},{"name":"lzSrcChainId","type":"uint16","internalType":"uint16"},{"name":"","type":"bytes","internalType":"bytes"},{"name":"","type":"uint64","internalType":"uint64"},{"name":"_payload","type":"bytes","internalType":"bytes"}],"outputs":[],"stateMutability":"nonpayable"},{"type":"function","name":"executeApproval","inputs":[{"name":"","type":"address","internalType":"address"},{"name":"lzSrcChainId","type":"uint16","internalType":"uint16"},{"name":"","type":"bytes","internalType":"bytes"},{"name":"","type":"uint64","internalType":"uint64"},{"name":"_payload","type":"bytes","internalType":"bytes"}],"outputs":[],"stateMutability":"nonpayable"},{"type":"function","name":"failedMessages","inputs":[{"name":"","type":"uint16","internalType":"uint16"},{"name":"","type":"bytes","internalType":"bytes"},{"name":"","type":"uint64","internalType":"uint64"}],"outputs":[{"name":"","type":"bytes32","internalType":"bytes32"}],"stateMutability":"view"},{"type":"function","name":"forceResumeReceive","inputs":[{"name":"_srcChainId","type":"uint16","internalType":"uint16"},{"name":"_srcAddress","type":"bytes","internalType":"bytes"}],"outputs":[],"stateMutability":"nonpayable"},{"type":"function","name":"getConfig","inputs":[{"name":"_version","type":"uint16","internalType":"uint16"},{"name":"_chainId","type":"uint16","internalType":"uint16"},{"name":"","type":"address","internalType":"address"},{"name":"_configType","type":"uint256","internalType":"uint256"}],"outputs":[{"name":"","type":"bytes","internalType":"bytes"}],"stateMutability":"view"},{"type":"function","name":"getTrustedRemoteAddress","inputs":[{"name":"_remoteChainId","type":"uint16","internalType":"uint16"}],"outputs":[{"name":"","type":"bytes","internalType":"bytes"}],"stateMutability":"view"},{"type":"function","name":"hostChainID","inputs":[],"outputs":[{"name":"","type":"uint256","internalType":"uint256"}],"stateMutability":"view"},{"type":"function","name":"increaseAllowance","inputs":[{"name":"spender","type":"address","internalType":"address"},{"name":"addedValue","type":"uint256","internalType":"uint256"}],"outputs":[{"name":"","type":"bool","internalType":"bool"}],"stateMutability":"nonpayable"},{"type":"function","name":"isTrustedRemote","inputs":[{"name":"_srcChainId","type":"uint16","internalType":"uint16"},{"name":"_srcAddress","type":"bytes","internalType":"bytes"}],"outputs":[{"name":"","type":"bool","internalType":"bool"}],"stateMutability":"view"},{"type":"function","name":"lzEndpoint","inputs":[],"outputs":[{"name":"","type":"address","internalType":"contract ILayerZeroEndpoint"}],"stateMutability":"view"},{"type":"function","name":"lzReceive","inputs":[{"name":"_srcChainId","type":"uint16","internalType":"uint16"},{"name":"_srcAddress","type":"bytes","internalType":"bytes"},{"name":"_nonce","type":"uint64","internalType":"uint64"},{"name":"_payload","type":"bytes","internalType":"bytes"}],"outputs":[],"stateMutability":"nonpayable"},{"type":"function","name":"minDstGasLookup","inputs":[{"name":"","type":"uint16","internalType":"uint16"},{"name":"","type":"uint16","internalType":"uint16"}],"outputs":[{"name":"","type":"uint256","internalType":"uint256"}],"stateMutability":"view"},{"type":"function","name":"name","inputs":[],"outputs":[{"name":"","type":"string","internalType":"string"}],"stateMutability":"view"},{"type":"function","name":"nonblockingLzReceive","inputs":[{"name":"_srcChainId","type":"uint16","internalType":"uint16"},{"name":"_srcAddress","type":"bytes","internalType":"bytes"},{"name":"_nonce","type":"uint64","internalType":"uint64"},{"name":"_payload","type":"bytes","internalType":"bytes"}],"outputs":[],"stateMutability":"nonpayable"},{"type":"function","name":"owner","inputs":[],"outputs":[{"name":"","type":"address","internalType":"address"}],"stateMutability":"view"},{"type":"function","name":"payloadSizeLimitLookup","inputs":[{"name":"","type":"uint16","internalType":"uint16"}],"outputs":[{"name":"","type":"uint256","internalType":"uint256"}],"stateMutability":"view"},{"type":"function","name":"precrime","inputs":[],"outputs":[{"name":"","type":"address","internalType":"address"}],"stateMutability":"view"},{"type":"function","name":"renounceOwnership","inputs":[],"outputs":[],"stateMutability":"nonpayable"},{"type":"function","name":"retryMessage","inputs":[{"name":"_srcChainId","type":"uint16","internalType":"uint16"},{"name":"_srcAddress","type":"bytes","internalType":"bytes"},{"name":"_nonce","type":"uint64","internalType":"uint64"},{"name":"_payload","type":"bytes","internalType":"bytes"}],"outputs":[],"stateMutability":"payable"},{"type":"function","name":"sendAndCall","inputs":[{"name":"_from","type":"address","internalType":"address"},{"name":"_dstChainId","type":"uint16","internalType":"uint16"},{"name":"_toAddress","type":"bytes32","internalType":"bytes32"},{"name":"_amount","type":"uint256","internalType":"uint256"},{"name":"_payload","type":"bytes","internalType":"bytes"},{"name":"_dstGasForCall","type":"uint64","internalType":"uint64"},{"name":"_callParams","type":"tuple","internalType":"struct ICommonOFT.LzCallParams","components":[{"name":"refundAddress","type":"address","internalType":"address payable"},{"name":"zroPaymentAddress","type":"address","internalType":"address"},{"name":"adapterParams","type":"bytes","internalType":"bytes"}]}],"outputs":[],"stateMutability":"payable"},{"type":"function","name":"sendFrom","inputs":[{"name":"_from","type":"address","internalType":"address"},{"name":"_dstChainId","type":"uint16","internalType":"uint16"},{"name":"_toAddress","type":"bytes32","internalType":"bytes32"},{"name":"_amount","type":"uint256","internalType":"uint256"},{"name":"_callParams","type":"tuple","internalType":"struct ICommonOFT.LzCallParams","components":[{"name":"refundAddress","type":"address","internalType":"address payable"},{"name":"zroPaymentAddress","type":"address","internalType":"address"},{"name":"adapterParams","type":"bytes","internalType":"bytes"}]}],"outputs":[],"stateMutability":"payable"},{"type":"function","name":"sendFromDestination","inputs":[{"name":"_payload","type":"bytes","internalType":"bytes"}],"outputs":[],"stateMutability":"nonpayable"},{"type":"function","name":"setConfig","inputs":[{"name":"_version","type":"uint16","internalType":"uint16"},{"name":"_chainId","type":"uint16","internalType":"uint16"},{"name":"_configType","type":"uint256","internalType":"uint256"},{"name":"_config","type":"bytes","internalType":"bytes"}],"outputs":[],"stateMutability":"nonpayable"},{"type":"function","name":"setMaxSlippage","inputs":[{"name":"_slippage","type":"uint256","internalType":"uint256"}],"outputs":[],"stateMutability":"nonpayable"},{"type":"function","name":"setMinDstGas","inputs":[{"name":"_dstChainId","type":"uint16","internalType":"uint16"},{"name":"_packetType","type":"uint16","internalType":"uint16"},{"name":"_minGas","type":"uint256","internalType":"uint256"}],"outputs":[],"stateMutability":"nonpayable"},{"type":"function","name":"setPayloadSizeLimit","inputs":[{"name":"_dstChainId","type":"uint16","internalType":"uint16"},{"name":"_size","type":"uint256","internalType":"uint256"}],"outputs":[],"stateMutability":"nonpayable"},{"type":"function","name":"setPrecrime","inputs":[{"name":"_precrime","type":"address","internalType":"address"}],"outputs":[],"stateMutability":"nonpayable"},{"type":"function","name":"setReceiveVersion","inputs":[{"name":"_version","type":"uint16","internalType":"uint16"}],"outputs":[],"stateMutability":"nonpayable"},{"type":"function","name":"setSendVersion","inputs":[{"name":"_version","type":"uint16","internalType":"uint16"}],"outputs":[],"stateMutability":"nonpayable"},{"type":"function","name":"setTrustedRemote","inputs":[{"name":"_srcChainId","type":"uint16","internalType":"uint16"},{"name":"_path","type":"bytes","internalType":"bytes"}],"outputs":[],"stateMutability":"nonpayable"},{"type":"function","name":"setTrustedRemoteAddress","inputs":[{"name":"_remoteChainId","type":"uint16","internalType":"uint16"},{"name":"_remoteAddress","type":"bytes","internalType":"bytes"}],"outputs":[],"stateMutability":"nonpayable"},{"type":"function","name":"setUseCustomAdapterParams","inputs":[{"name":"_useCustomAdapterParams","type":"bool","internalType":"bool"}],"outputs":[],"stateMutability":"nonpayable"},{"type":"function","name":"sharedDecimals","inputs":[],"outputs":[{"name":"","type":"uint8","internalType":"uint8"}],"stateMutability":"view"},{"type":"function","name":"supportsInterface","inputs":[{"name":"interfaceId","type":"bytes4","internalType":"bytes4"}],"outputs":[{"name":"","type":"bool","internalType":"bool"}],"stateMutability":"view"},{"type":"function","name":"symbol","inputs":[],"outputs":[{"name":"","type":"string","internalType":"string"}],"stateMutability":"view"},{"type":"function","name":"token","inputs":[],"outputs":[{"name":"","type":"address","internalType":"address"}],"stateMutability":"view"},{"type":"function","name":"totalSupply","inputs":[],"outputs":[{"name":"","type":"uint256","internalType":"uint256"}],"stateMutability":"view"},{"type":"function","name":"transfer","inputs":[{"name":"to","type":"address","internalType":"address"},{"name":"amount","type":"uint256","internalType":"uint256"}],"outputs":[{"name":"","type":"bool","internalType":"bool"}],"stateMutability":"nonpayable"},{"type":"function","name":"transferFrom","inputs":[{"name":"from","type":"address","internalType":"address"},{"name":"to","type":"address","internalType":"address"},{"name":"amount","type":"uint256","internalType":"uint256"}],"outputs":[{"name":"","type":"bool","internalType":"bool"}],"stateMutability":"nonpayable"},{"type":"function","name":"transferOwnership","inputs":[{"name":"newOwner","type":"address","internalType":"address"}],"outputs":[],"stateMutability":"nonpayable"},{"type":"function","name":"triggerApproveOrRevoke","inputs":[{"name":"lzDstChainId","type":"uint16","internalType":"uint16"},{"name":"lzCallParams","type":"tuple","internalType":"struct ICommonOFT.LzCallParams","components":[{"name":"refundAddress","type":"address","internalType":"address payable"},{"name":"zroPaymentAddress","type":"address","internalType":"address"},{"name":"adapterParams","type":"bytes","internalType":"bytes"}]},{"name":"approvals","type":"tuple[]","internalType":"struct ICommonData.IApproval[]","components":[{"name":"permitAll","type":"bool","internalType":"bool"},{"name":"allowFailure","type":"bool","internalType":"bool"},{"name":"yieldBoxTypeApproval","type":"bool","internalType":"bool"},{"name":"revokeYieldBox","type":"bool","internalType":"bool"},{"name":"actionType","type":"uint16","internalType":"uint16"},{"name":"target","type":"address","internalType":"address"},{"name":"permitBorrow","type":"bool","internalType":"bool"},{"name":"owner","type":"address","internalType":"address"},{"name":"spender","type":"address","internalType":"address"},{"name":"value","type":"uint256","internalType":"uint256"},{"name":"deadline","type":"uint256","internalType":"uint256"},{"name":"v","type":"uint8","internalType":"uint8"},{"name":"r","type":"bytes32","internalType":"bytes32"},{"name":"s","type":"bytes32","internalType":"bytes32"}]}],"outputs":[],"stateMutability":"payable"},{"type":"function","name":"triggerSendFrom","inputs":[{"name":"lzDstChainId","type":"uint16","internalType":"uint16"},{"name":"airdropAdapterParams","type":"bytes","internalType":"bytes"},{"name":"zroPaymentAddress","type":"address","internalType":"address"},{"name":"amount","type":"uint256","internalType":"uint256"},{"name":"sendFromData","type":"tuple","internalType":"struct ICommonOFT.LzCallParams","components":[{"name":"refundAddress","type":"address","internalType":"address payable"},{"name":"zroPaymentAddress","type":"address","internalType":"address"},{"name":"adapterParams","type":"bytes","internalType":"bytes"}]},{"name":"approvals","type":"tuple[]","internalType":"struct ICommonData.IApproval[]","components":[{"name":"permitAll","type":"bool","internalType":"bool"},{"name":"allowFailure","type":"bool","internalType":"bool"},{"name":"yieldBoxTypeApproval","type":"bool","internalType":"bool"},{"name":"revokeYieldBox","type":"bool","internalType":"bool"},{"name":"actionType","type":"uint16","internalType":"uint16"},{"name":"target","type":"address","internalType":"address"},{"name":"permitBorrow","type":"bool","internalType":"bool"},{"name":"owner","type":"address","internalType":"address"},{"name":"spender","type":"address","internalType":"address"},{"name":"value","type":"uint256","internalType":"uint256"},{"name":"deadline","type":"uint256","internalType":"uint256"},{"name":"v","type":"uint8","internalType":"uint8"},{"name":"r","type":"bytes32","internalType":"bytes32"},{"name":"s","type":"bytes32","internalType":"bytes32"}]},{"name":"revokes","type":"tuple[]","internalType":"struct ICommonData.IApproval[]","components":[{"name":"permitAll","type":"bool","internalType":"bool"},{"name":"allowFailure","type":"bool","internalType":"bool"},{"name":"yieldBoxTypeApproval","type":"bool","internalType":"bool"},{"name":"revokeYieldBox","type":"bool","internalType":"bool"},{"name":"actionType","type":"uint16","internalType":"uint16"},{"name":"target","type":"address","internalType":"address"},{"name":"permitBorrow","type":"bool","internalType":"bool"},{"name":"owner","type":"address","internalType":"address"},{"name":"spender","type":"address","internalType":"address"},{"name":"value","type":"uint256","internalType":"uint256"},{"name":"deadline","type":"uint256","internalType":"uint256"},{"name":"v","type":"uint8","internalType":"uint8"},{"name":"r","type":"bytes32","internalType":"bytes32"},{"name":"s","type":"bytes32","internalType":"bytes32"}]}],"outputs":[],"stateMutability":"payable"},{"type":"function","name":"triggerSendFromWithParams","inputs":[{"name":"from","type":"address","internalType":"address"},{"name":"lzDstChainId","type":"uint16","internalType":"uint16"},{"name":"toAddress","type":"bytes32","internalType":"bytes32"},{"name":"amount","type":"uint256","internalType":"uint256"},{"name":"callParams","type":"tuple","internalType":"struct ICommonOFT.LzCallParams","components":[{"name":"refundAddress","type":"address","internalType":"address payable"},{"name":"zroPaymentAddress","type":"address","internalType":"address"},{"name":"adapterParams","type":"bytes","internalType":"bytes"}]},{"name":"unwrap","type":"bool","internalType":"bool"},{"name":"approvals","type":"tuple[]","internalType":"struct ICommonData.IApproval[]","components":[{"name":"permitAll","type":"bool","internalType":"bool"},{"name":"allowFailure","type":"bool","internalType":"bool"},{"name":"yieldBoxTypeApproval","type":"bool","internalType":"bool"},{"name":"revokeYieldBox","type":"bool","internalType":"bool"},{"name":"actionType","type":"uint16","internalType":"uint16"},{"name":"target","type":"address","internalType":"address"},{"name":"permitBorrow","type":"bool","internalType":"bool"},{"name":"owner","type":"address","internalType":"address"},{"name":"spender","type":"address","internalType":"address"},{"name":"value","type":"uint256","internalType":"uint256"},{"name":"deadline","type":"uint256","internalType":"uint256"},{"name":"v","type":"uint8","internalType":"uint8"},{"name":"r","type":"bytes32","internalType":"bytes32"},{"name":"s","type":"bytes32","internalType":"bytes32"}]},{"name":"revokes","type":"tuple[]","internalType":"struct ICommonData.IApproval[]","components":[{"name":"permitAll","type":"bool","internalType":"bool"},{"name":"allowFailure","type":"bool","internalType":"bool"},{"name":"yieldBoxTypeApproval","type":"bool","internalType":"bool"},{"name":"revokeYieldBox","type":"bool","internalType":"bool"},{"name":"actionType","type":"uint16","internalType":"uint16"},{"name":"target","type":"address","internalType":"address"},{"name":"permitBorrow","type":"bool","internalType":"bool"},{"name":"owner","type":"address","internalType":"address"},{"name":"spender","type":"address","internalType":"address"},{"name":"value","type":"uint256","internalType":"uint256"},{"name":"deadline","type":"uint256","internalType":"uint256"},{"name":"v","type":"uint8","internalType":"uint8"},{"name":"r","type":"bytes32","internalType":"bytes32"},{"name":"s","type":"bytes32","internalType":"bytes32"}]}],"outputs":[],"stateMutability":"payable"},{"type":"function","name":"trustedRemoteLookup","inputs":[{"name":"","type":"uint16","internalType":"uint16"}],"outputs":[{"name":"","type":"bytes","internalType":"bytes"}],"stateMutability":"view"},{"type":"function","name":"useCustomAdapterParams","inputs":[],"outputs":[{"name":"","type":"bool","internalType":"bool"}],"stateMutability":"view"},{"type":"function","name":"yieldBox","inputs":[],"outputs":[{"name":"","type":"address","internalType":"contract IYieldBoxBase"}],"stateMutability":"view"},{"type":"event","name":"Approval","inputs":[{"name":"owner","type":"address","indexed":true,"internalType":"address"},{"name":"spender","type":"address","indexed":true,"internalType":"address"},{"name":"value","type":"uint256","indexed":false,"internalType":"uint256"}],"anonymous":false},{"type":"event","name":"CallOFTReceivedSuccess","inputs":[{"name":"_srcChainId","type":"uint16","indexed":true,"internalType":"uint16"},{"name":"_srcAddress","type":"bytes","indexed":false,"internalType":"bytes"},{"name":"_nonce","type":"uint64","indexed":false,"internalType":"uint64"},{"name":"_hash","type":"bytes32","indexed":false,"internalType":"bytes32"}],"anonymous":false},{"type":"event","name":"MessageFailed","inputs":[{"name":"_srcChainId","type":"uint16","indexed":false,"internalType":"uint16"},{"name":"_srcAddress","type":"bytes","indexed":false,"internalType":"bytes"},{"name":"_nonce","type":"uint64","indexed":false,"internalType":"uint64"},{"name":"_payload","type":"bytes","indexed":false,"internalType":"bytes"},{"name":"_reason","type":"bytes","indexed":false,"internalType":"bytes"}],"anonymous":false},{"type":"event","name":"NonContractAddress","inputs":[{"name":"_address","type":"address","indexed":false,"internalType":"address"}],"anonymous":false},{"type":"event","name":"OwnershipTransferred","inputs":[{"name":"previousOwner","type":"address","indexed":true,"internalType":"address"},{"name":"newOwner","type":"address","indexed":true,"internalType":"address"}],"anonymous":false},{"type":"event","name":"ReceiveFromChain","inputs":[{"name":"_srcChainId","type":"uint16","indexed":true,"internalType":"uint16"},{"name":"_to","type":"address","indexed":true,"internalType":"address"},{"name":"_amount","type":"uint256","indexed":false,"internalType":"uint256"}],"anonymous":false},{"type":"event","name":"RetryMessageSuccess","inputs":[{"name":"_srcChainId","type":"uint16","indexed":false,"internalType":"uint16"},{"name":"_srcAddress","type":"bytes","indexed":false,"internalType":"bytes"},{"name":"_nonce","type":"uint64","indexed":false,"internalType":"uint64"},{"name":"_payloadHash","type":"bytes32","indexed":false,"internalType":"bytes32"}],"anonymous":false},{"type":"event","name":"SendToChain","inputs":[{"name":"_dstChainId","type":"uint16","indexed":true,"internalType":"uint16"},{"name":"_from","type":"address","indexed":true,"internalType":"address"},{"name":"_toAddress","type":"bytes32","indexed":true,"internalType":"bytes32"},{"name":"_amount","type":"uint256","indexed":false,"internalType":"uint256"}],"anonymous":false},{"type":"event","name":"SetMinDstGas","inputs":[{"name":"_dstChainId","type":"uint16","indexed":false,"internalType":"uint16"},{"name":"_type","type":"uint16","indexed":false,"internalType":"uint16"},{"name":"_minDstGas","type":"uint256","indexed":false,"internalType":"uint256"}],"anonymous":false},{"type":"event","name":"SetPrecrime","inputs":[{"name":"precrime","type":"address","indexed":false,"internalType":"address"}],"anonymous":false},{"type":"event","name":"SetTrustedRemote","inputs":[{"name":"_remoteChainId","type":"uint16","indexed":false,"internalType":"uint16"},{"name":"_path","type":"bytes","indexed":false,"internalType":"bytes"}],"anonymous":false},{"type":"event","name":"SetTrustedRemoteAddress","inputs":[{"name":"_remoteChainId","type":"uint16","indexed":false,"internalType":"uint16"},{"name":"_remoteAddress","type":"bytes","indexed":false,"internalType":"bytes"}],"anonymous":false},{"type":"event","name":"SetUseCustomAdapterParams","inputs":[{"name":"_useCustomAdapterParams","type":"bool","indexed":false,"internalType":"bool"}],"anonymous":false},{"type":"event","name":"Transfer","inputs":[{"name":"from","type":"address","indexed":true,"internalType":"address"},{"name":"to","type":"address","indexed":true,"internalType":"address"},{"name":"value","type":"uint256","indexed":false,"internalType":"uint256"}],"anonymous":false},{"type":"error","name":"ActionTypeNotValid","inputs":[]},{"type":"error","name":"AllowanceNotValid","inputs":[]},{"type":"error","name":"Failed","inputs":[]},{"type":"error","name":"NotAuthorized","inputs":[]},{"type":"error","name":"NotValid","inputs":[]}],"bytecode":{"object":"0x60e060409080825234620005a65762005fff8038038091620000228285620005ab565b8339810161010082820312620005a6576200003d82620005e5565b906020926200004e848201620005e5565b818601516001600160a01b0380821694929091859003620005a657606084015196828816809803620005a65760808501516001600160401b039490858111620005a657816200009f9188016200061f565b9060a087015190868211620005a657620000bb9188016200061f565b9160c087015160ff811696878203620005a65762000116602b60e08f9b01519a5180966a546170696f63614f46542d60a81b878301526200010581518092898686019101620005fa565b810103600b810187520185620005ab565b607f8d518096601d60fa1b868301526200013a8151809288602186019101620005fa565b810103926200015460216001958681018a520188620005ab565b831c16936000958887549d60018060a01b03199e8f33908216178a55823391167f8be0079c531659141344cd1fd0a4f28419497f9722a3daafe3b4186f6b6457e08b80a3166080528560a05281518381116200059257600b54928584811c9416801562000587575b8785101462000573578190601f948581116200051f575b508790858311600114620004b9578a92620004ad575b5050600019600383901b1c191690851b17600b555b80519283116200049957600c548481811c911680156200048e575b868210146200047a5782811162000431575b5084918311600114620003cb579282939183928894620003bf575b50501b916000199060031b1c191617600c555b601282116200036c575060120360ff8111620003585760ff1690604d8211620003445750600a0a60c0526101f46012551684600f541617600f5560ff19601154161760115560105581600d541617600d55600e541617600e555161598490816200067b82396080518181816104e9015281816107cf0152818161090b01528181610a9201528181610c5301528181611d22015281816121350152818161291a01528181613049015281816145ef0152614a0b015260a0518161163e015260c051818181611c2801528181611e7801528181614c3f01528181614ec4015281816151fb01526152950152f35b634e487b7160e01b81526011600452602490fd5b634e487b7160e01b82526011600452602482fd5b6084908b519062461bcd60e51b82526004820152602760248201527f4f46543a20736861726564446563696d616c73206d757374206265203c3d20646044820152666563696d616c7360c81b6064820152fd5b01519250388062000246565b600c8752848720919083601f198116895b8888838310620004195750505010620003ff575b505050811b01600c5562000259565b015160001960f88460031b161c19169055388080620003f0565b868601518855909601959485019487935001620003dc565b600c88528588208380860160051c82019288871062000470575b0160051c019085905b828110620004645750506200022b565b89815501859062000454565b925081926200044b565b634e487b7160e01b88526022600452602488fd5b90607f169062000219565b634e487b7160e01b87526041600452602487fd5b015190503880620001e9565b600b8b52888b208894509190601f1984168c5b8b828210620005085750508411620004ee575b505050811b01600b55620001fe565b015160001960f88460031b161c19169055388080620004df565b8385015186558b97909501949384019301620004cc565b909150600b8a52878a208580850160051c8201928a861062000569575b918991869594930160051c01915b8281106200055a575050620001d3565b8c81558594508991016200054a565b925081926200053c565b634e487b7160e01b89526022600452602489fd5b93607f1693620001bc565b634e487b7160e01b88526041600452602488fd5b600080fd5b601f909101601f19168101906001600160401b03821190821017620005cf57604052565b634e487b7160e01b600052604160045260246000fd5b51906001600160a01b0382168203620005a657565b60005b8381106200060e5750506000910152565b8181015183820152602001620005fd565b81601f82011215620005a65780516001600160401b038111620005cf576040519262000656601f8301601f191660200185620005ab565b81845260208284010111620005a657620006779160208085019101620005fa565b9056fe6080604052600436101561001b575b361561001957600080fd5b005b60003560e01c80621d3567146103ff57806254af3a146103fa57806301ffc9a7146103f557806306fdde03146103f057806307e0db17146103eb578063095ea7b3146103e65780630df37483146103e157806310ddb137146103dc57806318160ddd1461036957806323b872dd146103d7578063313ce567146103d2578063365260b4146103cd57806339509351146103c85780633d8b38f6146103c35780633f1f4fa4146103be57806342d65a8d146103b957806343f68a49146103b457806344770515146103af5780634c42899a146103af5780634fd7e9f6146103aa5780635b8c41e6146103a557806366ad5c8a146103a0578063695ef6bf1461039b57806370a0823114610396578063715018a6146103915780637533d7881461038c57806376203b4814610387578063785e9e86146103825780637c875ea01461037d578063857749b0146103785780638cfd8f5c146103735780638da5cb5b1461036e5780639358928b14610369578063950c8a741461036457806395d89b411461035f5780639bdb98121461035a5780639f38369a14610355578063a457c2d714610350578063a4c51df51461034b578063a643c52e14610346578063a6c3d16514610341578063a9059cbb1461033c578063af2ee97514610337578063b353aaa714610332578063baf3292d1461032d578063bda6ce2114610328578063c20d362f14610323578063c44618341461031e578063cbed8b9c14610319578063d1deba1f14610314578063dbd01de11461030f578063dd62ed3e1461030a578063de40657714610305578063df2a5b3b14610300578063e6a20ae6146102fb578063eab45d9c146102f6578063eaffd49a146102f1578063eb8d72b7146102ec578063ed629c5c146102e7578063ee75f25d146102e2578063f2fde38b146102dd578063f5ecbdbc146102d85763fc0c546a0361000e57612984565b6128b0565b6127e9565b612737565b612714565b6125ca565b612541565b6124df565b6124c3565b6123d6565b6123ad565b612353565b61232a565b6121c7565b6120e1565b6120c4565b61202c565b611e2b565b611d51565b611d0c565b611bbb565b611b91565b611a0e565b6119f0565b611959565b61189b565b6117f8565b6117ad565b611706565b6116dd565b61096c565b6116b4565b611662565b611624565b61158f565b611566565b611348565b6112f1565b6111ab565b61116e565b61108b565b611005565b610f9e565b610d36565b610cdb565b610cba565b610c39565b610c00565b610ba4565b610b10565b610a08565b6109ca565b61098a565b6108e2565b6108a3565b61086e565b6107a6565b6106c1565b61060f565b6105f1565b6104d2565b61ffff81160361041057565b600080fd5b6004359061042282610404565b565b359061042282610404565b9181601f84011215610410578235916001600160401b038311610410576020838186019501011161041057565b6001600160401b0381160361041057565b9060806003198301126104105760043561048681610404565b916001600160401b039060243582811161041057816104a79160040161042f565b939093926044356104b78161045c565b92606435918211610410576104ce9160040161042f565b9091565b34610410576104e03661046d565b929493919291907f00000000000000000000000000000000000000000000000000000000000000006001600160a01b031633036105a15761056661056e926100199761055f6105456105408a61ffff166000526001602052604060002090565b6112d6565b8051908184149182610597575b5081610574575b506144f8565b3691610ee1565b923691610ee1565b926147df565b9050610581368486610ee1565b6020815191012090602081519101201438610559565b1515915038610552565b60405162461bcd60e51b815260206004820152601e60248201527f4c7a4170703a20696e76616c696420656e64706f696e742063616c6c657200006044820152606490fd5b600091031261041057565b34610410576000366003190112610410576020601054604051908152f35b346104105760203660031901126104105760043563ffffffff60e01b811680910361041057602090631f7ecdf760e01b8114908115610654575b506040519015158152f35b6301ffc9a760e01b14905038610649565b60005b8381106106785750506000910152565b8181015183820152602001610668565b906020916106a181518092818552858086019101610665565b601f01601f1916010190565b9060206106be928181520190610688565b90565b34610410576000806003193601126107a3576040519080600b546106e481611206565b80855291600191808316908115610779575060011461071e575b61071a8561070e81870382610e85565b604051918291826106ad565b0390f35b9250600b83527f0175b7a638427703f0dbe7bb9bbf987a2551717b34e79f33b5b1008d1fa01db95b82841061076157505050810160200161070e8261071a6106fe565b80546020858701810191909152909301928101610746565b86955061071a9693506020925061070e94915060ff191682840152151560051b82010192936106fe565b80fd5b3461041057600060203660031901126107a3576004356107c581610404565b6107cd613e3c565b7f00000000000000000000000000000000000000000000000000000000000000006001600160a01b0316908290823b1561084157602461ffff918360405195869485936307e0db1760e01b85521660048401525af1801561083c57610830575080f35b61083990610e52565b80f35b612eb0565b5080fd5b6001600160a01b0381160361041057565b6044359061042282610845565b359061042282610845565b346104105760403660031901126104105761089860043561088e81610845565b602435903361408e565b602060405160018152f35b346104105760403660031901126104105761ffff6004356108c381610404565b6108cb613e3c565b166000526003602052602435604060002055600080f35b3461041057600060203660031901126107a35760043561090181610404565b610909613e3c565b7f00000000000000000000000000000000000000000000000000000000000000006001600160a01b0316908290823b1561084157602461ffff918360405195869485936310ddb13760e01b85521660048401525af1801561083c57610830575080f35b34610410576000366003190112610410576020600a54604051908152f35b34610410576060366003190112610410576108986004356109aa81610845565b6024356109b681610845565b604435916109c58333836141a2565b613f86565b3461041057600036600319011261041057602060405160128152f35b8015150361041057565b60a43590610422826109e6565b3590610422826109e6565b346104105760a036600319011261041057600435610a2581610404565b60643590610a32826109e6565b608435906001600160401b03821161041057610a5761055f604093369060040161042f565b90610a8e610a71610a696044356151f9565b6024356152ca565b928451958694859463040a7bb160e41b8652309060048701614b94565b03817f00000000000000000000000000000000000000000000000000000000000000006001600160a01b03165afa90811561083c576000908192610adf575b50604080519182526020820192909252f35b9050610b02915060403d8111610b09575b610afa8183610e85565b810190614b7e565b9038610acd565b503d610af0565b3461041057604036600319011261041057600435610b2d81610845565b3360009081526009602090815260408083206001600160a01b03851684529091529020546024358101809111610b6757610898913361408e565b613e94565b90604060031983011261041057600435610b8581610404565b91602435906001600160401b038211610410576104ce9160040161042f565b3461041057602061ffff610bf1610bba36610b6c565b9390911660005260018452610bdc610be3604060002060405192838092611240565b0382610e85565b848151910120923691610ee1565b82815191012014604051908152f35b346104105760203660031901126104105761ffff600435610c2081610404565b1660005260036020526020604060002054604051908152f35b3461041057610c4736610b6c565b9190610c51613e3c565b7f00000000000000000000000000000000000000000000000000000000000000006001600160a01b031691823b1561041057604051928380926342d65a8d60e01b825281610ca86000988997889460048501614752565b03925af1801561083c57610830575080f35b3461041057602036600319011261041057610cd3613e3c565b600435601255005b3461041057600036600319011261041057602060405160008152f35b908160609103126104105790565b9181601f84011215610410578235916001600160401b038311610410576020808501946101c0850201011161041057565b606036600319011261041057600435610d4e81610404565b6001600160401b0360243581811161041057610d6e903690600401610cf7565b60443591821161041057610dc8610e0291610d90610e0b943690600401610d05565b610dba60409492945194859261030b602085015233604085015260608085015260808401916129e7565b03601f198101845283610e85565b610df760408201610de5610ddf61055f838661299f565b88615030565b610df160208401612b6a565b9261299f565b939034943691610ee1565b913390866145ab565b6040519033916000805160206158ef83398151915261ffff3393169180610e3781906000602083019252565b0390a4005b634e487b7160e01b600052604160045260246000fd5b6001600160401b038111610e6557604052565b610e3c565b604081019081106001600160401b03821117610e6557604052565b90601f801991011681019081106001600160401b03821117610e6557604052565b604051906101c082018281106001600160401b03821117610e6557604052565b6001600160401b038111610e6557601f01601f191660200190565b929192610eed82610ec6565b91610efb6040519384610e85565b829481845281830111610410578281602093846000960137010152565b9080601f83011215610410578160206106be93359101610ee1565b90606060031983011261041057600435610f4c81610404565b91602435906001600160401b03821161041057610f6b91600401610f18565b906044356106be8161045c565b602090610f92928260405194838680955193849201610665565b82019081520301902090565b34610410576020610ffc61ffff610fdb83610fb836610f33565b949091166000526005825260406000208260405194838680955193849201610665565b820190815203019020906001600160401b0316600052602052604060002090565b54604051908152f35b34610410576110133661046d565b91929493903033036110375761056661103192610019973691610ee1565b92614bd8565b60405162461bcd60e51b815260206004820152602660248201527f4e6f6e626c6f636b696e674c7a4170703a2063616c6c6572206d7573742062656044820152650204c7a4170760d41b6064820152608490fd5b60a0366003190112610410576004356110a381610845565b6024356110af81610404565b604435916084356001600160401b03811161041057602061ffff6110e66000805160206158ef833981519152933690600401610cf7565b9361115985356110f581610845565b61111361055f86890135986111098a610845565b604081019061299f565b61111d818a615087565b61113261112b606435615293565b50856154a2565b9761113e891515614da3565b61115061114a8a6151f9565b8c6152ca565b9234938b6145ab565b6040519485526001600160a01b0316941692a4005b346104105760203660031901126104105760043561118b81610845565b60018060a01b031660005260086020526020604060002054604051908152f35b34610410576000806003193601126107a3576111c5613e3c565b80546001600160a01b03198116825581906001600160a01b03167f8be0079c531659141344cd1fd0a4f28419497f9722a3daafe3b4186f6b6457e08280a380f35b90600182811c92168015611236575b602083101461122057565b634e487b7160e01b600052602260045260246000fd5b91607f1691611215565b906000929180549161125183611206565b9182825260019384811690816000146112b35750600114611273575b50505050565b90919394506000526020928360002092846000945b83861061129f57505050500101903880808061126d565b805485870183015294019385908201611288565b9294505050602093945060ff191683830152151560051b0101903880808061126d565b906104226112ea9260405193848092611240565b0383610e85565b346104105760203660031901126104105761ffff60043561131181610404565b16600052600160205261071a610bdc611334604060002060405192838092611240565b604051918291602083526020830190610688565b60e03660031901126104105760043561136081610845565b60243561136c81610404565b604435916001600160401b03906084358281116104105761139190369060040161042f565b91909260a435916113a18361045c565b60c435828111610410576113b9903690600401610cf7565b926113f08435956113c987610845565b6113e86113de60208801359761110989610845565b9990923691610ee1565b973691610ee1565b9460ff600654166000146114e55760228651106114a057856020956111506111599461146e8c61145b61ffff9a8b60226000805160206158ef8339815191529f0151931660005260028d52841661145560406000206001600052602052604060002090565b54613ec6565b9061146782151561514b565b1015615197565b61148361147c606435615293565b50886154a2565b9a61148f8c1515614da3565b8d6114998d6151f9565b903361535c565b60405162461bcd60e51b815260206004820152601c60248201527f4c7a4170703a20696e76616c69642061646170746572506172616d73000000006044820152606490fd5b948094935051611512576000805160206158ef8339815191529460209461ffff946111506111599461146e565b60405162461bcd60e51b815260206004820152602660248201527f4f4654436f72653a205f61646170746572506172616d73206d7573742062652060448201526532b6b83a3c9760d11b6064820152608490fd5b3461041057600036600319011261041057600f546040516001600160a01b039091168152602090f35b610100366003190112610410576004356115a881610845565b6024356115b481610404565b6001600160401b0391608435838111610410576115d5903690600401610cf7565b6115dd6109f0565b9060c435858111610410576115f6903690600401610d05565b92909160e43596871161041057611614610019973690600401610d05565b9690956064359160443591612b74565b3461041057600036600319011261041057602060405160ff7f0000000000000000000000000000000000000000000000000000000000000000168152f35b34610410576040366003190112610410576020610ffc60043561168481610404565b61ffff6024359161169483610404565b166000526002835260406000209061ffff16600052602052604060002090565b34610410576000366003190112610410576000546040516001600160a01b039091168152602090f35b34610410576000366003190112610410576004546040516001600160a01b039091168152602090f35b34610410576000806003193601126107a3576040519080600c5461172981611206565b8085529160019180831690811561077957506001146117525761071a8561070e81870382610e85565b9250600c83527fdf6966c971051c3d54ec59162606531493a51404a002842f56009d7e5cf4a8c75b82841061179557505050810160200161070e8261071a6106fe565b8054602085870181019190915290930192810161177a565b3461041057602060ff6117ec61ffff610fdb846117c936610f33565b949091166000526007825260406000208260405194838680955193849201610665565b54166040519015158152f35b346104105760203660031901126104105761ffff60043561181881610404565b166000526001602052610bdc611838604060002060405192838092611240565b8051156118565761070e8161185061071a93516147c1565b906156e2565b60405162461bcd60e51b815260206004820152601d60248201527f4c7a4170703a206e6f20747275737465642070617468207265636f72640000006044820152606490fd5b34610410576040366003190112610410576004356118b881610845565b602435903360005260096020526118e58160406000209060018060a01b0316600052602052604060002090565b5491808310611906576118fa9203903361408e565b60405160018152602090f35b60405162461bcd60e51b815260206004820152602560248201527f45524332303a2064656372656173656420616c6c6f77616e63652062656c6f77604482015264207a65726f60d81b6064820152608490fd5b346104105760e03660031901126104105760043561197681610404565b6001600160401b03906064358281116104105761199790369060040161042f565b6084929192356119a68161045c565b60a435916119b3836109e6565b60c435958611610410576119ce6119de96369060040161042f565b95909460443590602435906149bb565b60408051928352602083019190915290f35b34610410576000366003190112610410576020601254604051908152f35b3461041057611a1c36610b6c565b90611a25613e3c565b60405192602092808385870137611a516034868381013060601b88820152036014810188520186610e85565b60009361ffff8316855260019081815260408620918751916001600160401b038311610e6557611a8b83611a858654611206565b8661476d565b80601f8411600114611afb575091808092611aea9695948a9b7f8c0400cfe2d1199b1a725c78960bcc2a344d869b80590d0f2bd005db15a572ce9b94611af0575b50501b916000199060031b1c19161790555b60405193849384614752565b0390a180f35b015192503880611acc565b91939498601f198416611b1387600052602060002090565b938a905b828210611b7a575050917f8c0400cfe2d1199b1a725c78960bcc2a344d869b80590d0f2bd005db15a572ce999a95939185611aea98969410611b61575b505050811b019055611ade565b015160001960f88460031b161c19169055388080611b54565b808886978294978701518155019601940190611b17565b3461041057604036600319011261041057610898600435611bb181610845565b6024359033613f86565b34610410576020366003190112610410576001600160401b0360043581811161041057611bec903690600401610f18565b90303303611cfa57611c0a82602080611c4e955183010191016131d5565b9590965060018060a09a95969499939a1b0316978051611ceb575b507f00000000000000000000000000000000000000000000000000000000000000009116615280565b90303b156104105760405163695ef6bf60e01b815292600092849283918291611c7d918b8b816004870161326d565b0391305af1801561083c57611cd2575b508051611cc3575b5060008051602061590f83398151915261ffff60405192169180611cbe81906000602083019252565b0390a3005b611ccc9061339d565b38611c95565b80611cdf611ce592610e52565b806105e6565b38611c8d565b611cf49061339d565b38611c25565b60405163ea8e4eb560e01b8152600490fd5b34610410576000366003190112610410576040517f00000000000000000000000000000000000000000000000000000000000000006001600160a01b03168152602090f35b34610410576020366003190112610410577f5db758e995a17ec1ad84bdef7e8c3293a0bd6179bcce400dff5d4c3d87db726b6020600435611d9181610845565b611d99613e3c565b600480546001600160a01b0319166001600160a01b03929092169182179055604051908152a1005b60a060031982011261041057600435611dd981610845565b91602435611de681610404565b916001600160401b03916044358381116104105782611e0791600401610f18565b92606435611e148161045c565b92608435918211610410576106be91600401610f18565b3461041057611e3936611dc1565b9293505050303303611cfa5780602080611e5893518301019101612e27565b929593919450805161201d575b506001600160a01b0390811694611ea6907f0000000000000000000000000000000000000000000000000000000000000000906001600160401b0316615280565b93801561201357611eb785306155cb565b611efa575b5060008051602061590f833981519152918161ffff9251611eeb575b5060405193845216918060208101611cbe565b611ef49061367f565b38611ed8565b604051633c2f4f4360e11b8152602081600481305afa90811561083c57600091611fe5575b50303b15610410576040516339f4769360e01b815230600482015260248101869052916000838060448101038183305af191821561083c5786938893611fd2575b50168015611f8f5760008051602061590f833981519152949261ffff9492611f879261423a565b915091611ebc565b50600080809381935af1611fa1612ebc565b5015611fc05760008051602061590f8339815191529161ffff91611f87565b60405163312d207360e11b8152600490fd5b80611cdf611fdf92610e52565b38611f60565b612006915060203d811161200c575b611ffe8183610e85565b810190612e9b565b38611f1f565b503d611ff4565b611eb785876155cb565b6120269061367f565b38611e65565b60e036600319011261041057612040610415565b6001600160401b03906024358281116104105761206190369060040161042f565b9161206a610856565b60843585811161041057612082903690600401610cf7565b60a4358681116104105761209a903690600401610d05565b93909260c435978811610410576120b8610019983690600401610d05565b97909660643593612ffc565b346104105760003660031901126104105760206040516127108152f35b34610410576080366003190112610410576004356120fe81610404565b60243561210a81610404565b6064356001600160401b0381116104105761212990369060040161042f565b9092612133613e3c565b7f00000000000000000000000000000000000000000000000000000000000000006001600160a01b031690813b1561041057600080946121aa604051978896879586946332fb62e760e21b865261ffff80921660048701521660248501526044356044850152608060648501526084840191612f01565b03925af1801561083c576121ba57005b80611cdf61001992610e52565b6121d03661046d565b9161ffff8694929616600052600560205261221781604060002060206040518092878b833787820190815203019020906001600160401b0316600052602052604060002090565b549182156122d9576122c884836122c17fc264d91f3adc5588250e1551f547752ca0cfa8f6b530d243b9f9f4cab10ea8e59a60006122ad846122958e8a8f6122d49f908f61227b9061226e61228f9436908d610ee1565b602081519101201461492e565b61ffff166000526005602052604060002090565b91614915565b906001600160401b0316600052602052604060002090565b556122b936878d610ee1565b933691610ee1565b9188614bd8565b60405195869586614984565b0390a1005b60405162461bcd60e51b815260206004820152602360248201527f4e6f6e626c6f636b696e674c7a4170703a206e6f2073746f726564206d65737360448201526261676560e81b6064820152608490fd5b3461041057600036600319011261041057600e546040516001600160a01b039091168152602090f35b34610410576040366003190112610410576020610ffc60043561237581610845565b6024359061238282610845565b60018060a01b03166000526009835260406000209060018060a01b0316600052602052604060002090565b3461041057600036600319011261041057600d546040516001600160a01b039091168152602090f35b34610410576060366003190112610410576004356123f381610404565b6024356123ff81610404565b6044359161240b613e3c565b8215612486576122d47f9d5c7c0b934da8fefa9c7760c98383778a12dfbfc0c3b3106518f43fb9508ac09361ffff83166000526002602052806124608560406000209061ffff16600052602052604060002090565b556040519384938460409194939294606082019561ffff80921683521660208201520152565b60405162461bcd60e51b81526020600482015260156024820152744c7a4170703a20696e76616c6964206d696e47617360581b6044820152606490fd5b3461041057600036600319011261041057602060405160018152f35b34610410576020366003190112610410577f1584ad594a70cbe1e6515592e1272a987d922b097ead875069cebe8b40c004a4602060043561251f816109e6565b612527613e3c565b151560ff196006541660ff821617600655604051908152a1005b34610410576101003660031901126104105760043561255f81610404565b6001600160401b03906024358281116104105761258090369060040161042f565b91906044359061258f8261045c565b60843561259b81610845565b60c435958611610410576125b661001996369060040161042f565b94909360e4359660a4359460643593614ab1565b34610410576125d836610b6c565b91906125e2613e3c565b60009161ffff81168352600160209080825260408520916001600160401b038711610e655761261b876126158554611206565b8561476d565b8590601f88116001146126825750918680879893611aea957ffa41487ad5d6728f0b19276fa1eddc16558578f5109fc39d2dc33c3230470dab9993612677575b501b906000198460031b1c191617905560405193849384614752565b88013592503861265b565b90601f19881661269785600052602060002090565b9288905b8282106126fd575050918893917ffa41487ad5d6728f0b19276fa1eddc16558578f5109fc39d2dc33c3230470dab9899611aea9694106126e3575b505082811b019055611ade565b870135600019600386901b60f8161c1916905538806126d6565b808685968294968c0135815501950193019061269b565b3461041057600036600319011261041057602060ff600654166040519015158152f35b346104105761274536611dc1565b9293505050303303611cfa57805181016060828203126104105761276c6020830151610404565b60408201519161277b83610845565b6060810151916001600160401b038311610410576127a0926020809201920101612cd9565b80516127da575b50604051600081526001600160a01b039091169161ffff169060008051602061590f833981519152908060208101611cbe565b6127e390613821565b386127a7565b346104105760203660031901126104105760043561280681610845565b61280e613e3c565b6001600160a01b03908116801561285c57600080546001600160a01b03198116831782559092167f8be0079c531659141344cd1fd0a4f28419497f9722a3daafe3b4186f6b6457e08380a380f35b60405162461bcd60e51b815260206004820152602660248201527f4f776e61626c653a206e6577206f776e657220697320746865207a65726f206160448201526564647265737360d01b6064820152608490fd5b34610410576080366003190112610410576004356128cd81610404565b602435906128da82610404565b6128e5604435610845565b604051633d7b2f6f60e21b815261ffff91821660048201529116602482015230604482015260648035908201526000816084817f00000000000000000000000000000000000000000000000000000000000000006001600160a01b03165afa801561083c5761071a91600091612963575b50604051918291826106ad565b61297e913d8091833e6129768183610e85565b81019061472d565b38612956565b34610410576000366003190112610410576020604051308152f35b903590601e198136030182121561041057018035906001600160401b0382116104105760200191813603831361041057565b60ff81160361041057565b3590610422826129d1565b9190808252602080920192916000905b828210612a05575050505090565b9091929380612a1f600192612a19886109fd565b15159052565b612a35612a2d8488016109fd565b151582850152565b612a4d6040612a458189016109fd565b151590830152565b612a5d6060612a458189016109fd565b612a776080612a6d818901610424565b61ffff1690830152565b612a9660a0612a87818901610863565b6001600160a01b031690830152565b612aa660c0612a458189016109fd565b612ab660e0612a87818901610863565b612ac7610100612a87818901610863565b61012080870135908201526101408087013590820152612af7610160612aee8189016129dc565b60ff1690830152565b61018086810135908201526101a080870135908201526101c09081019501939201906129f7565b959391926001600160401b03612b5c946106be99979361030c8a5260208a01521660408801521515606087015260c0608087015260c08601916129e7565b9260a08185039101526129e7565b356106be81610845565b91986001600160a01b0383169890979396909591949092338a03612c3c575b612bc190612bba6040840199612bb5612baf61055f8d8861299f565b8a6150c7565b615293565b50906154a2565b978815612c2a576000805160206158ef83398151915297610de58c612c09610df79461ffff9b612c179a8f9a612bf9610e029c6151f9565b9a6040519b8c9760208901612b1e565b03601f198101865285610e85565b604051938452169180602081015b0390a4565b60405163f1640ae160e01b8152600490fd5b87612c7433612c5d8460018060a01b03166000526009602052604060002090565b9060018060a01b0316600052602052604060002090565b5410612c9057612bc190612c898933836141a2565b9050612b93565b60405163fb165f2360e01b8152600490fd5b519061042282610404565b51906104228261045c565b5190610422826109e6565b519061042282610845565b5190610422826129d1565b81601f82011215610410578051906001600160401b038211610e65576040805193602091612d0c838660051b0187610e85565b84865282860191836101c080970286010194818611610410578401925b858410612d3a575050505050505090565b868483031261041057848791612d4e610ea6565b612d5787612cb8565b8152612d64838801612cb8565b83820152612d73868801612cb8565b868201526060612d84818901612cb8565b908201526080612d95818901612ca2565b9082015260a0612da6818901612cc3565b9082015260c0612db7818901612cb8565b9082015260e0612dc8818901612cc3565b90820152610100612dda818901612cc3565b9082015261012080880151908201526101408088015190820152610160612e02818901612cce565b9082015261018080880151908201526101a08088015190820152815201930192612d29565b9160c083830312610410578251612e3d81610404565b926020810151926040820151612e528161045c565b926060830151612e61816109e6565b926080810151926001600160401b03938481116104105781612e84918401612cd9565b9360a0830151908111610410576106be9201612cd9565b9081602091031261041057516106be81610845565b6040513d6000823e3d90fd5b3d15612ee7573d90612ecd82610ec6565b91612edb6040519384610e85565b82523d6000602084013e565b606090565b9081602091031261041057516106be81610404565b908060209392818452848401376000828201840152601f01601f1916010190565b999897939195929096949661030a8b5260018060a01b0380911660208c01526001600160401b0380971660408c01526101008060608d0152818335612f6681610845565b16908c01526020820135612f7981610845565b166101208b01526040810135601e19823603018112156104105701916020833593019583116104105782360386136104105760e096612fdc612fcf612ff798612fe9966101608f60606101408201520191612f01565b61ffff90941660808d0152565b8a830360a08c01526129e7565b9187830360c08901526129e7565b930152565b989791969795939092949561303061302a61302061301b368c89610ee1565b614445565b5095915050615293565b506151f9565b6040516303408e4760e41b8152909290916020836004817f00000000000000000000000000000000000000000000000000000000000000006001600160a01b03165afa94851561083c576130c09b610e02986130a397612c09966000916130ec575b506040519c8d983360208b01612f22565b6130b76130b1368784610ee1565b88615109565b34943691610ee1565b6040519033916000805160206158ef83398151915261ffff3393169180612c2581906000602083019252565b61310d915060203d8111613113575b6131058183610e85565b810190612eec565b38613092565b503d6130fb565b9092919261312781610ec6565b916131356040519384610e85565b829482845282820111610410576020610422930190610665565b9080601f830112156104105781516106be9260200161311a565b91909160608184031261041057604051906001600160401b03906060830182811184821017610e6557604052829481516131a281610845565b845260208201516131b281610845565b60208501526040820151928311610410576040926131d0920161314f565b910152565b61010081830312610410576131e981612ca2565b926131f660208301612cc3565b9261320360408401612cad565b926060810151906001600160401b03918281116104105783613226918301613169565b9361323360808301612ca2565b9360a0830151848111610410578161324c918501612cd9565b9360c08401519081116104105760e091613267918501612cd9565b92015190565b93906106be95916101009461ffff60409560018060a01b03809516895216602088015284870152606086015260a060808601528082511660a086015260208201511660c0850152015191606060e08201520190610688565b80518210156132d95760209160051b010190565b634e487b7160e01b600052603260045260246000fd5b9061ffff61330a602092959495604085526040850190610688565b9416910152565b60009060033d1161331e57565b905060046000803e60005160e01c90565b600060443d106106be57604051600319913d83016004833e81516001600160401b03918282113d60248401111761338c57818401948551938411613394573d8501016020848701011161338c57506106be92910160200190610e85565b949350505050565b50949350505050565b9060005b825181101561367a5760406133c2816133ba84876132c5565b510151151590565b156134105750806133da60606133ba600194876132c5565b156133f8576133f26133ec82866132c5565b51613a71565b016133a1565b61340b61340582866132c5565b51613cb4565b6133f2565b608061030a61ffff61343083613426878a6132c5565b51015161ffff1690565b16036136695761344560c06133ba85886132c5565b61346360e061345486896132c5565b5101516001600160a01b031690565b91613535613477610100613454888b6132c5565b93613527610120613488898c6132c5565b5101518a6101406134998b836132c5565b5101516134b56101606134ac8d856132c5565b51015160ff1690565b906101a06134d38d6101806134ca82886132c5565b510151956132c5565b510151938b519a8b9760209b8c8a0194909897969360e0969260ff9461010088019b1515885260018060a01b038092166020890152166040870152606086015260808501521660a083015260c08201520152565b03601f198101855284610e85565b61356461355961354d61354d60a06134548a8d6132c5565b6001600160a01b031690565b91613426878a6132c5565b90803b15610410576135926000929183928751948580948193631221baf960e31b835260049a8b84016132ef565b03925af19081613656575b506135bc5760016135ac613311565b6308c379a01461360e575b6135c7575b5050506001906133f2565b6135e46135e06135d5612ebc565b926133ba878a6132c5565b1590565b156135bc576135f561360a916139c3565b925162461bcd60e51b815292839283016106ad565b0390fd5b61361661332f565b80613622575b506135b7565b600091506136376135e0846133ba898c6132c5565b1561361c57845162461bcd60e51b815290819061360a908287016106ad565b80611cdf61366392610e52565b3861359d565b8151639f62049960e01b8152600490fd5b509050565b9060005b825181101561367a57604061369c816133ba84876132c5565b156136de5750806136b460606133ba600194876132c5565b156136cc576136c66133ec82866132c5565b01613683565b6136d961340582866132c5565b6136c6565b608061030c61ffff6136f483613426878a6132c5565b16036136695761370960c06133ba85886132c5565b61371860e061345486896132c5565b9161372c613477610100613454888b6132c5565b61374461355961354d61354d60a06134548a8d6132c5565b90803b15610410576137726000929183928751948580948193631221baf960e31b835260049a8b84016132ef565b03925af1908161380e575b5061379c57600161378c613311565b6308c379a0146137c6575b6137a7575b5050506001906136c6565b6137b56135e06135d5612ebc565b1561379c576135f561360a916139c3565b6137ce61332f565b806137da575b50613797565b600091506137ef6135e0846133ba898c6132c5565b156137d457845162461bcd60e51b815290819061360a908287016106ad565b80611cdf61381b92610e52565b3861377d565b9060005b825181101561367a57604061383e816133ba84876132c5565b1561388057508061385660606133ba600194876132c5565b1561386e576138686133ec82866132c5565b01613825565b61387b61340582866132c5565b613868565b608061030b61ffff61389683613426878a6132c5565b1603613669576138ab60c06133ba85886132c5565b6138ba60e061345486896132c5565b916138ce613477610100613454888b6132c5565b6138e661355961354d61354d60a06134548a8d6132c5565b90803b15610410576139146000929183928751948580948193631221baf960e31b835260049a8b84016132ef565b03925af190816139b0575b5061393e57600161392e613311565b6308c379a014613968575b613949575b505050600190613868565b6139576135e06135d5612ebc565b1561393e576135f561360a916139c3565b61397061332f565b8061397c575b50613939565b600091506139916135e0846133ba898c6132c5565b1561397657845162461bcd60e51b815290819061360a908287016106ad565b80611cdf6139bd92610e52565b3861391f565b6103e8815111613a44576044815110613a1e57600481015181019060208160248401930312610410576024810151906001600160401b038211610410570190806043830112156104105760248201516106be9260440161311a565b50604051613a2b81610e6a565b6009815268544f46545f6461746160b81b602082015290565b50604051613a5181610e6a565b601081526f2a27a32a2fa627a723afa922a0a9a7a760811b602082015290565b805115613bea5760a0810151613a919061354d906001600160a01b031681565b60e08201516001600160a01b03166101008301516001600160a01b03169161014084015190613ac561016086015160ff1690565b93610180860151936101a087015190833b15610410576040516365e2b81f60e01b81526001600160a01b03918216600482015292166024830152604482019390935260ff9094166064850152608484019290925260a4830152600090829081838160c481015b03925af19081613bd7575b50613b55576001613b45613311565b6308c379a014613b99575b613b58575b50565b613b706135e06020613b68612ebc565b930151151590565b15613b5557613b8161360a916139c3565b60405162461bcd60e51b8152918291600483016106ad565b613ba161332f565b80613bad575b50613b50565b602083015160009250613ba7575b60405162461bcd60e51b815290819061360a90600483016106ad565b80611cdf613be492610e52565b38613b36565b60a0810151613c039061354d906001600160a01b031681565b60e08201516001600160a01b03166101008301516001600160a01b0316916101208401519061014085015193613c3e61016087015160ff1690565b93610180870151906101a088015195843b15610410576040516372dcad7b60e01b81526001600160a01b0392831660048201529190931660248201526044810194909452606484019590955260ff16608483015260a482019390935260c481019190915290600090829081838160e48101613b2b565b805115613d725760a0810151613cd49061354d906001600160a01b031681565b60e08201516001600160a01b03166101008301516001600160a01b03169161014084015190613d0861016086015160ff1690565b93610180860151936101a087015190833b156104105760405163aba0784760e01b81526001600160a01b03918216600482015292166024830152604482019390935260ff9094166064850152608484019290925260a4830152600090829081838160c48101613b2b565b60a0810151613d8b9061354d906001600160a01b031681565b60e08201516001600160a01b03166101008301516001600160a01b0316916101208401519061014085015193613dc661016087015160ff1690565b93610180870151906101a088015195843b156104105760405163d505accf60e01b81526001600160a01b0392831660048201529190931660248201526044810194909452606484019590955260ff16608483015260a482019390935260c481019190915290600090829081838160e48101613b2b565b6000546001600160a01b03163303613e5057565b606460405162461bcd60e51b815260206004820152602060248201527f4f776e61626c653a2063616c6c6572206973206e6f7420746865206f776e65726044820152fd5b634e487b7160e01b600052601160045260246000fd5b90601f8201809211610b6757565b6051019081605111610b6757565b91908201809211610b6757565b15613eda57565b60405162461bcd60e51b815260206004820152602360248201527f45524332303a207472616e7366657220746f20746865207a65726f206164647260448201526265737360e81b6064820152608490fd5b15613f3257565b60405162461bcd60e51b815260206004820152602660248201527f45524332303a207472616e7366657220616d6f756e7420657863656564732062604482015265616c616e636560d01b6064820152608490fd5b916001600160a01b03808416929091831561403b576140208260008051602061592f83398151915294614036941696613fc0881515613ed3565b6001600160a01b038116600090815260086020526040902061400590859054613feb82821015613f2b565b039160018060a01b03166000526008602052604060002090565b556001600160a01b0316600090815260086020526040902090565b8054820190556040519081529081906020820190565b0390a3565b60405162461bcd60e51b815260206004820152602560248201527f45524332303a207472616e736665722066726f6d20746865207a65726f206164604482015264647265737360d81b6064820152608490fd5b6001600160a01b03808216929190831561415157821693841561410157806140f07f8c5be1e5ebec7d5bd14f71427d1e84f3dd0314c0f7b2291e5b200ac8c7c3b92594612c5d6140369560018060a01b03166000526009602052604060002090565b556040519081529081906020820190565b60405162461bcd60e51b815260206004820152602260248201527f45524332303a20617070726f766520746f20746865207a65726f206164647265604482015261737360f01b6064820152608490fd5b60405162461bcd60e51b8152602060048201526024808201527f45524332303a20617070726f76652066726f6d20746865207a65726f206164646044820152637265737360e01b6064820152608490fd5b6001600160a01b0380821660009081526009602090815260408083209386168352929052209091905492600184016141da5750505050565b8084106141f5576141ec93039161408e565b3880808061126d565b60405162461bcd60e51b815260206004820152601d60248201527f45524332303a20696e73756666696369656e7420616c6c6f77616e63650000006044820152606490fd5b60405163a9059cbb60e01b60208083019182526001600160a01b0394909416602483015260448083019590955293815291926142d392916000908190614281606486610e85565b60018060a01b0316926040519461429786610e6a565b8786527f5361666545524332303a206c6f772d6c6576656c2063616c6c206661696c656488870152519082855af16142cd612ebc565b91614355565b8051806142df57505050565b81839181010312610410578101516142f6816109e6565b156142fe5750565b6084906040519062461bcd60e51b82526004820152602a60248201527f5361666545524332303a204552433230206f7065726174696f6e20646964206e6044820152691bdd081cdd58d8d9595960b21b6064820152fd5b919290156143b75750815115614369575090565b3b156143725790565b60405162461bcd60e51b815260206004820152601d60248201527f416464726573733a2063616c6c20746f206e6f6e2d636f6e74726163740000006044820152606490fd5b825190915015613bbb5750805190602001fd5b156143d157565b60405162461bcd60e51b8152602060048201526012602482015271556e737570706f727465642074785479706560701b6044820152606490fd5b1561441257565b60405162461bcd60e51b815260206004820152600b60248201526a47617320746f6f206c6f7760a81b6044820152606490fd5b6000808251602281149081156144ed575b50156144b057600283015193602284015193600261ffff87166001811480156144a7575b614483906143ca565b61448e87151561440b565b146144965750565b925090506056604283015192015190565b5080821461447a565b60405162461bcd60e51b8152602060048201526015602482015274496e76616c69642061646170746572506172616d7360581b6044820152606490fd5b604291501138614456565b156144ff57565b60405162461bcd60e51b815260206004820152602660248201527f4c7a4170703a20696e76616c696420736f757263652073656e64696e6720636f6044820152651b9d1c9858dd60d21b6064820152608490fd5b926145786106be97959361ffff6145869416865260c0602087015260c0860190610688565b908482036040860152610688565b6001600160a01b0391821660608401529316608082015280830360a090910152610688565b946145d49193929561ffff811660005260016020526145db604060002060405194858092611240565b0384610e85565b825115614660576145ed8551826146be565b7f00000000000000000000000000000000000000000000000000000000000000006001600160a01b031693843b156104105760009661464291604051998a988997889662c5803160e81b885260048801614553565b03925af1801561083c576146535750565b80611cdf61042292610e52565b60405162461bcd60e51b815260206004820152603060248201527f4c7a4170703a2064657374696e6174696f6e20636861696e206973206e6f742060448201526f61207472757374656420736f7572636560801b6064820152608490fd5b61ffff166000526003602052604060002054908115614723575b116146df57565b606460405162461bcd60e51b815260206004820152602060248201527f4c7a4170703a207061796c6f61642073697a6520697320746f6f206c617267656044820152fd5b61271091506146d8565b906020828203126104105781516001600160401b038111610410576106be920161314f565b60409061ffff6106be95931681528160208201520191612f01565b90601f811161477b57505050565b600091825260208220906020601f850160051c830194106147b7575b601f0160051c01915b8281106147ac57505050565b8181556001016147a0565b9092508290614797565b601319810191908211610b6757565b605019810191908211610b6757565b9290916148435a604051633356ae4560e11b602082015261ffff87166024820152608060448201529061483d82610dba61481c60a483018a610688565b6001600160401b038816606484015282810360231901608484015288610688565b30615891565b939015614852575b5050505050565b61485b94614865565b388080808061484b565b91936149027fe183f33de2837795525b4792ca4cd60535bd77c53b7e7030060bfcf5734d6b0c95614910939561ffff815160208301209616958660005260056020526148c983610fdb60208b60406000208260405194838680955193849201610665565b556001600160401b036148ee604051988998895260a060208a015260a0890190610688565b921660408701528582036060870152610688565b908382036080850152610688565b0390a1565b6020919283604051948593843782019081520301902090565b1561493557565b60405162461bcd60e51b815260206004820152602160248201527f4e6f6e626c6f636b696e674c7a4170703a20696e76616c6964207061796c6f616044820152601960fa1b6064820152608490fd5b916149b09060609461ffff6001600160401b039499989799168552608060208601526080850191612f01565b951660408201520152565b9491959897906114996149e46040996149dc6149ea97614a07993691610ee1565b943691610ee1565b976151f9565b928451968794859463040a7bb160e41b8652309060048701614b94565b03817f00000000000000000000000000000000000000000000000000000000000000006001600160a01b03165afa91821561083c576000908193614a4a57509190565b90506104ce91925060403d8111610b0957610afa8183610e85565b93969491614a93906106be99979461ffff6001600160401b039416875260c0602088015260c0870191612f01565b961660408401526060830152608082015260a0818503910152612f01565b91969792989594939094303303614b3957614acd90853061562e565b60405181815290946001600160a01b03169390849061ffff85169060008051602061590f83398151915290602090a3833b15610410576000988995614b29936040519c8d9b8c9a8b98633fe79aed60e11b8a5260048a01614a65565b0393f1801561083c576146535750565b60405162461bcd60e51b815260206004820152601f60248201527f4f4654436f72653a2063616c6c6572206d757374206265204f4654436f7265006044820152606490fd5b9190826040910312610410576020825192015190565b91926106be959361ffff614bc39316845260018060a01b0316602084015260a0604084015260a0830190610688565b92151560608201526080818403910152610688565b92919060ff614be684615836565b1680614d4e5750505060ff614bfa82615836565b161580614d43575b614c0b90615310565b614c1d614c17826157e6565b91615881565b90916001600160a01b039182841615614d39575b614c65906001600160401b037f00000000000000000000000000000000000000000000000000000000000000009116615280565b918316928315614cf45760008051602061590f83398151915291614cb461ffff92614c9a614c9587600a54613ec6565b600a55565b6001600160a01b0316600090815260086020526040902090565b84815401905584600060008051602061592f83398151915260405180614cdf89829190602083019252565b0390a360405193845216918060208101614036565b60405162461bcd60e51b815260206004820152601f60248201527f45524332303a206d696e7420746f20746865207a65726f2061646472657373006044820152606490fd5b61dead9350614c31565b508051602914614c02565b600103614d5e5761042293614e78565b60405162461bcd60e51b815260206004820152601c60248201527f4f4654436f72653a20756e6b6e6f776e207061636b65742074797065000000006044820152606490fd5b15614daa57565b60405162461bcd60e51b815260206004820152601960248201527f4f4654436f72653a20616d6f756e7420746f6f20736d616c6c000000000000006044820152606490fd5b98979692936001600160401b03614e2160e0989461ffff612ff79995168d5260208d61010091829101528d0190610688565b951660408b015260608a01526001600160a01b0316608089015260a088015286820360c0880152610688565b6001600160401b03614e6d60409396959496606084526060840190610688565b951660208201520152565b9091614e83846153c9565b9091614eb4614ead87612295614ea78b61ffff166000526007602052604060002090565b8c610f78565b5460ff1690565b91614eea6001600160401b0392837f00000000000000000000000000000000000000000000000000000000000000009116615280565b9288888b8315614fe6575b505050853b15614f9b5794614f3c969461483d948a94610dba948d99600014614f945750505a925b5a978b6040519a8b9863757fea4d60e11b60208b015260248a01614def565b9015614f89575090614f8461ffff928560207fb8890edbfc1c74692f527444645f95489c3703cc2df42e4a366f5d06fa6cd88496975191012090604051948594169684614e4d565b0390a2565b926104229492614865565b1692614f1d565b50506040516001600160a01b039094168452507f9aedf5fdba8716db3b6705ca00150643309995d4f818a249ed6dde6677e7792d975091955085945050602084019250614910915050565b9061229561501b9261501589615000615028979b306155cb565b9961ffff166000526007602052604060002090565b90610f78565b805460ff19166001179055565b88888b614ef5565b60065460ff161561507f5760228251106114a05761ffff602261042293015191166000526002602052615072604060002061030b600052602052604060002090565b549061146782151561514b565b505161151257565b60065460ff161561507f5760228251106114a05761ffff602261042293015191166000526002602052615072604060002060008052602052604060002090565b60065460ff161561507f5760228251106114a05761ffff602261042293015191166000526002602052615072604060002061030c600052602052604060002090565b60065460ff161561507f5760228251106114a05761ffff602261042293015191166000526002602052615072604060002061030a600052602052604060002090565b1561515257565b60405162461bcd60e51b815260206004820152601a60248201527f4c7a4170703a206d696e4761734c696d6974206e6f74207365740000000000006044820152606490fd5b1561519e57565b60405162461bcd60e51b815260206004820152601b60248201527f4c7a4170703a20676173206c696d697420697320746f6f206c6f7700000000006044820152606490fd5b634e487b7160e01b600052601260045260246000fd5b7f000000000000000000000000000000000000000000000000000000000000000090811561527b57046001600160401b0390818111615236571690565b60405162461bcd60e51b815260206004820152601a60248201527f4f4654436f72653a20616d6f756e745344206f766572666c6f770000000000006044820152606490fd5b6151e3565b81810292918115918404141715610b6757565b7f0000000000000000000000000000000000000000000000000000000000000000801561527b57810690818103908111610b675791565b90604051916000602084015260218301526001600160401b0360c01b9060c01b16604182015260298152606081018181106001600160401b03821117610e655760405290565b1561531757565b60405162461bcd60e51b815260206004820152601860248201527f4f4654436f72653a20696e76616c6964207061796c6f616400000000000000006044820152606490fd5b93926071926106be94604051968794600160f81b602087015260218601526001600160401b0360c01b809360c01b16604186015260018060a01b0316604985015260c01b1660698301526153b98151809260208686019101610665565b8101036051810184520182610e85565b906153e1600160ff6153da85615836565b1614615310565b6153ea826157e6565b906153f483615881565b9060498451106154655760498401519360518151106154295761542660518201519161542081516147d0565b90615762565b91565b60405162461bcd60e51b8152602060048201526014602482015273746f55696e7436345f6f75744f66426f756e647360601b6044820152606490fd5b60405162461bcd60e51b8152602060048201526015602482015274746f427974657333325f6f75744f66426f756e647360581b6044820152606490fd5b6001600160a01b038116338103615564575b801561551557816154ea846154dd60009560018060a01b03166000526008602052604060002090565b54613feb82821015615574565b556154f883600a5403600a55565b60405183815260008051602061592f83398151915290602090a390565b60405162461bcd60e51b815260206004820152602160248201527f45524332303a206275726e2066726f6d20746865207a65726f206164647265736044820152607360f81b6064820152608490fd5b61556f8333846141a2565b6154b4565b1561557b57565b60405162461bcd60e51b815260206004820152602260248201527f45524332303a206275726e20616d6f756e7420657863656564732062616c616e604482015261636560f01b6064820152608490fd5b6001600160a01b03811691908215614cf457600a5490828201809211610b675760009261561f60209260008051602061592f83398151915294600a5560018060a01b03166000526008602052604060002090565b818154019055604051908152a3565b6106be9183916001600160a01b03811630811415908161565a575b5015613f86576109c58333836141a2565b905033141538615649565b1561566c57565b60405162461bcd60e51b815260206004820152600e60248201526d736c6963655f6f766572666c6f7760901b6044820152606490fd5b156156a957565b60405162461bcd60e51b8152602060048201526011602482015270736c6963655f6f75744f66426f756e647360781b6044820152606490fd5b6156f6826156ef81613eaa565b1015615665565b61570382825110156156a2565b8161571b575050604051600081526020810160405290565b60405191601f811691821560051b808486010193838501920101905b80841061574f5750508252601f01601f191660405290565b9092835181526020809101930190615737565b61576f826156ef81613eaa565b615784815161577d84613eb8565b11156156a2565b8161579c575050604051600081526020810160405290565b60405191601f8116916051831560051b80858701019484860193010101905b8084106157d35750508252601f01601f191660405290565b90928351815260208091019301906157bb565b60218151106157f957602d015160601c90565b60405162461bcd60e51b8152602060048201526015602482015274746f416464726573735f6f75744f66426f756e647360581b6044820152606490fd5b6001815110615846576001015190565b60405162461bcd60e51b8152602060048201526013602482015272746f55696e74385f6f75744f66426f756e647360681b6044820152606490fd5b6029815110615429576029015190565b6040519392909160009160c08601916001600160401b03831187841017610e655783926040526096875282602088019560a036883760208451940192f1903d90609682116158e5575b6000908286523e9190565b609691506158da56fed81fc9b8523134ed613870ed029d6170cbb73aa6a6bc311b9a642689fb9df59abf551ec93859b170f9b2141bd9298bf3f64322c6f7beb2543a0cb669834118bfddf252ad1be2c89b69c2b068fc378daa952ba7f163c4a11628f55a4df523b3efa2646970667358221220b8984025df2e550ebe0aa7f64e8d6d82ca608982d55f8ff747b1c5b216004a9c64736f6c63430008130033","linkReferences":{}},"methodIdentifiers":{"DEFAULT_PAYLOAD_SIZE_LIMIT()":"c4461834","NO_EXTRA_GAS()":"44770515","PT_SEND()":"4c42899a","PT_SEND_AND_CALL()":"e6a20ae6","SWAP_MAX_SLIPPAGE()":"a643c52e","allowance(address,address)":"dd62ed3e","approve(address,uint256)":"095ea7b3","balanceOf(address)":"70a08231","callOnOFTReceived(uint16,bytes,uint64,bytes32,address,uint256,bytes,uint256)":"eaffd49a","circulatingSupply()":"9358928b","cluster()":"dbd01de1","creditedPackets(uint16,bytes,uint64)":"9bdb9812","decimals()":"313ce567","decreaseAllowance(address,uint256)":"a457c2d7","erc20()":"785e9e86","estimateSendAndCallFee(uint16,bytes32,uint256,bytes,uint64,bool,bytes)":"a4c51df5","estimateSendFee(uint16,bytes32,uint256,bool,bytes)":"365260b4","executSendFromWithParams(address,uint16,bytes,uint64,bytes)":"bda6ce21","executeApproval(address,uint16,bytes,uint64,bytes)":"ee75f25d","failedMessages(uint16,bytes,uint64)":"5b8c41e6","forceResumeReceive(uint16,bytes)":"42d65a8d","getConfig(uint16,uint16,address,uint256)":"f5ecbdbc","getTrustedRemoteAddress(uint16)":"9f38369a","hostChainID()":"0054af3a","increaseAllowance(address,uint256)":"39509351","isTrustedRemote(uint16,bytes)":"3d8b38f6","lzEndpoint()":"b353aaa7","lzReceive(uint16,bytes,uint64,bytes)":"001d3567","minDstGasLookup(uint16,uint16)":"8cfd8f5c","name()":"06fdde03","nonblockingLzReceive(uint16,bytes,uint64,bytes)":"66ad5c8a","owner()":"8da5cb5b","payloadSizeLimitLookup(uint16)":"3f1f4fa4","precrime()":"950c8a74","renounceOwnership()":"715018a6","retryMessage(uint16,bytes,uint64,bytes)":"d1deba1f","sendAndCall(address,uint16,bytes32,uint256,bytes,uint64,(address,address,bytes))":"76203b48","sendFrom(address,uint16,bytes32,uint256,(address,address,bytes))":"695ef6bf","sendFromDestination(bytes)":"af2ee975","setConfig(uint16,uint16,uint256,bytes)":"cbed8b9c","setMaxSlippage(uint256)":"43f68a49","setMinDstGas(uint16,uint16,uint256)":"df2a5b3b","setPayloadSizeLimit(uint16,uint256)":"0df37483","setPrecrime(address)":"baf3292d","setReceiveVersion(uint16)":"10ddb137","setSendVersion(uint16)":"07e0db17","setTrustedRemote(uint16,bytes)":"eb8d72b7","setTrustedRemoteAddress(uint16,bytes)":"a6c3d165","setUseCustomAdapterParams(bool)":"eab45d9c","sharedDecimals()":"857749b0","supportsInterface(bytes4)":"01ffc9a7","symbol()":"95d89b41","token()":"fc0c546a","totalSupply()":"18160ddd","transfer(address,uint256)":"a9059cbb","transferFrom(address,address,uint256)":"23b872dd","transferOwnership(address)":"f2fde38b","triggerApproveOrRevoke(uint16,(address,address,bytes),(bool,bool,bool,bool,uint16,address,bool,address,address,uint256,uint256,uint8,bytes32,bytes32)[])":"4fd7e9f6","triggerSendFrom(uint16,bytes,address,uint256,(address,address,bytes),(bool,bool,bool,bool,uint16,address,bool,address,address,uint256,uint256,uint8,bytes32,bytes32)[],(bool,bool,bool,bool,uint16,address,bool,address,address,uint256,uint256,uint8,bytes32,bytes32)[])":"c20d362f","triggerSendFromWithParams(address,uint16,bytes32,uint256,(address,address,bytes),bool,(bool,bool,bool,bool,uint16,address,bool,address,address,uint256,uint256,uint8,bytes32,bytes32)[],(bool,bool,bool,bool,uint16,address,bool,address,address,uint256,uint256,uint8,bytes32,bytes32)[])":"7c875ea0","trustedRemoteLookup(uint16)":"7533d788","useCustomAdapterParams()":"ed629c5c","yieldBox()":"de406577"},"id":7}