{"abi":[{"type":"constructor","inputs":[{"name":"_lzEndpoint","type":"address","internalType":"address"},{"name":"_erc20","type":"address","internalType":"address"},{"name":"_yieldBox","type":"address","internalType":"contract IYieldBoxBase"},{"name":"_cluster","type":"address","internalType":"contract ICluster"},{"name":"_name","type":"string","internalType":"string"},{"name":"_symbol","type":"string","internalType":"string"},{"name":"_decimal","type":"uint8","internalType":"uint8"},{"name":"_hostChainID","type":"uint256","internalType":"uint256"},{"name":"__leverageModule","type":"address","internalType":"contract BaseTOFTLeverageModule"},{"name":"__leverageDestinationModule","type":"address","internalType":"contract BaseTOFTLeverageDestinationModule"},{"name":"__strategyModule","type":"address","internalType":"contract BaseTOFTStrategyModule"},{"name":"__strategyDestinationModule","type":"address","internalType":"contract BaseTOFTStrategyDestinationModule"},{"name":"__marketModule","type":"address","internalType":"contract BaseTOFTMarketModule"},{"name":"__marketDestinationModule","type":"address","internalType":"contract BaseTOFTMarketDestinationModule"},{"name":"__optionsModule","type":"address","internalType":"contract BaseTOFTOptionsModule"},{"name":"__optionsDestinationModule","type":"address","internalType":"contract BaseTOFTOptionsDestinationModule"},{"name":"__genericModule","type":"address","internalType":"contract BaseTOFTGenericModule"}],"stateMutability":"nonpayable"},{"type":"receive","stateMutability":"payable"},{"type":"function","name":"DEFAULT_PAYLOAD_SIZE_LIMIT","inputs":[],"outputs":[{"name":"","type":"uint256","internalType":"uint256"}],"stateMutability":"view"},{"type":"function","name":"DOMAIN_SEPARATOR","inputs":[],"outputs":[{"name":"","type":"bytes32","internalType":"bytes32"}],"stateMutability":"view"},{"type":"function","name":"NO_EXTRA_GAS","inputs":[],"outputs":[{"name":"","type":"uint256","internalType":"uint256"}],"stateMutability":"view"},{"type":"function","name":"PT_SEND","inputs":[],"outputs":[{"name":"","type":"uint8","internalType":"uint8"}],"stateMutability":"view"},{"type":"function","name":"PT_SEND_AND_CALL","inputs":[],"outputs":[{"name":"","type":"uint8","internalType":"uint8"}],"stateMutability":"view"},{"type":"function","name":"SWAP_MAX_SLIPPAGE","inputs":[],"outputs":[{"name":"","type":"uint256","internalType":"uint256"}],"stateMutability":"view"},{"type":"function","name":"allowance","inputs":[{"name":"owner","type":"address","internalType":"address"},{"name":"spender","type":"address","internalType":"address"}],"outputs":[{"name":"","type":"uint256","internalType":"uint256"}],"stateMutability":"view"},{"type":"function","name":"approve","inputs":[{"name":"spender","type":"address","internalType":"address"},{"name":"amount","type":"uint256","internalType":"uint256"}],"outputs":[{"name":"","type":"bool","internalType":"bool"}],"stateMutability":"nonpayable"},{"type":"function","name":"balanceOf","inputs":[{"name":"account","type":"address","internalType":"address"}],"outputs":[{"name":"","type":"uint256","internalType":"uint256"}],"stateMutability":"view"},{"type":"function","name":"callOnOFTReceived","inputs":[{"name":"_srcChainId","type":"uint16","internalType":"uint16"},{"name":"_srcAddress","type":"bytes","internalType":"bytes"},{"name":"_nonce","type":"uint64","internalType":"uint64"},{"name":"_from","type":"bytes32","internalType":"bytes32"},{"name":"_to","type":"address","internalType":"address"},{"name":"_amount","type":"uint256","internalType":"uint256"},{"name":"_payload","type":"bytes","internalType":"bytes"},{"name":"_gasForCall","type":"uint256","internalType":"uint256"}],"outputs":[],"stateMutability":"nonpayable"},{"type":"function","name":"circulatingSupply","inputs":[],"outputs":[{"name":"","type":"uint256","internalType":"uint256"}],"stateMutability":"view"},{"type":"function","name":"cluster","inputs":[],"outputs":[{"name":"","type":"address","internalType":"contract ICluster"}],"stateMutability":"view"},{"type":"function","name":"creditedPackets","inputs":[{"name":"","type":"uint16","internalType":"uint16"},{"name":"","type":"bytes","internalType":"bytes"},{"name":"","type":"uint64","internalType":"uint64"}],"outputs":[{"name":"","type":"bool","internalType":"bool"}],"stateMutability":"view"},{"type":"function","name":"decimals","inputs":[],"outputs":[{"name":"","type":"uint8","internalType":"uint8"}],"stateMutability":"view"},{"type":"function","name":"decreaseAllowance","inputs":[{"name":"spender","type":"address","internalType":"address"},{"name":"subtractedValue","type":"uint256","internalType":"uint256"}],"outputs":[{"name":"","type":"bool","internalType":"bool"}],"stateMutability":"nonpayable"},{"type":"function","name":"erc20","inputs":[],"outputs":[{"name":"","type":"address","internalType":"address"}],"stateMutability":"view"},{"type":"function","name":"estimateSendAndCallFee","inputs":[{"name":"_dstChainId","type":"uint16","internalType":"uint16"},{"name":"_toAddress","type":"bytes32","internalType":"bytes32"},{"name":"_amount","type":"uint256","internalType":"uint256"},{"name":"_payload","type":"bytes","internalType":"bytes"},{"name":"_dstGasForCall","type":"uint64","internalType":"uint64"},{"name":"_useZro","type":"bool","internalType":"bool"},{"name":"_adapterParams","type":"bytes","internalType":"bytes"}],"outputs":[{"name":"nativeFee","type":"uint256","internalType":"uint256"},{"name":"zroFee","type":"uint256","internalType":"uint256"}],"stateMutability":"view"},{"type":"function","name":"estimateSendFee","inputs":[{"name":"_dstChainId","type":"uint16","internalType":"uint16"},{"name":"_toAddress","type":"bytes32","internalType":"bytes32"},{"name":"_amount","type":"uint256","internalType":"uint256"},{"name":"_useZro","type":"bool","internalType":"bool"},{"name":"_adapterParams","type":"bytes","internalType":"bytes"}],"outputs":[{"name":"nativeFee","type":"uint256","internalType":"uint256"},{"name":"zroFee","type":"uint256","internalType":"uint256"}],"stateMutability":"view"},{"type":"function","name":"exerciseOption","inputs":[{"name":"optionsData","type":"tuple","internalType":"struct ITapiocaOptionsBrokerCrossChain.IExerciseOptionsData","components":[{"name":"from","type":"address","internalType":"address"},{"name":"target","type":"address","internalType":"address"},{"name":"paymentTokenAmount","type":"uint256","internalType":"uint256"},{"name":"oTAPTokenID","type":"uint256","internalType":"uint256"},{"name":"paymentToken","type":"address","internalType":"address"},{"name":"tapAmount","type":"uint256","internalType":"uint256"}]},{"name":"lzData","type":"tuple","internalType":"struct ITapiocaOptionsBrokerCrossChain.IExerciseLZData","components":[{"name":"lzDstChainId","type":"uint16","internalType":"uint16"},{"name":"zroPaymentAddress","type":"address","internalType":"address"},{"name":"extraGas","type":"uint256","internalType":"uint256"}]},{"name":"tapSendData","type":"tuple","internalType":"struct ITapiocaOptionsBrokerCrossChain.IExerciseLZSendTapData","components":[{"name":"withdrawOnAnotherChain","type":"bool","internalType":"bool"},{"name":"tapOftAddress","type":"address","internalType":"address"},{"name":"lzDstChainId","type":"uint16","internalType":"uint16"},{"name":"amount","type":"uint256","internalType":"uint256"},{"name":"zroPaymentAddress","type":"address","internalType":"address"},{"name":"extraGas","type":"uint256","internalType":"uint256"}]},{"name":"approvals","type":"tuple[]","internalType":"struct ICommonData.IApproval[]","components":[{"name":"permitAll","type":"bool","internalType":"bool"},{"name":"allowFailure","type":"bool","internalType":"bool"},{"name":"yieldBoxTypeApproval","type":"bool","internalType":"bool"},{"name":"revokeYieldBox","type":"bool","internalType":"bool"},{"name":"actionType","type":"uint16","internalType":"uint16"},{"name":"target","type":"address","internalType":"address"},{"name":"permitBorrow","type":"bool","internalType":"bool"},{"name":"owner","type":"address","internalType":"address"},{"name":"spender","type":"address","internalType":"address"},{"name":"value","type":"uint256","internalType":"uint256"},{"name":"deadline","type":"uint256","internalType":"uint256"},{"name":"v","type":"uint8","internalType":"uint8"},{"name":"r","type":"bytes32","internalType":"bytes32"},{"name":"s","type":"bytes32","internalType":"bytes32"}]},{"name":"revokes","type":"tuple[]","internalType":"struct ICommonData.IApproval[]","components":[{"name":"permitAll","type":"bool","internalType":"bool"},{"name":"allowFailure","type":"bool","internalType":"bool"},{"name":"yieldBoxTypeApproval","type":"bool","internalType":"bool"},{"name":"revokeYieldBox","type":"bool","internalType":"bool"},{"name":"actionType","type":"uint16","internalType":"uint16"},{"name":"target","type":"address","internalType":"address"},{"name":"permitBorrow","type":"bool","internalType":"bool"},{"name":"owner","type":"address","internalType":"address"},{"name":"spender","type":"address","internalType":"address"},{"name":"value","type":"uint256","internalType":"uint256"},{"name":"deadline","type":"uint256","internalType":"uint256"},{"name":"v","type":"uint8","internalType":"uint8"},{"name":"r","type":"bytes32","internalType":"bytes32"},{"name":"s","type":"bytes32","internalType":"bytes32"}]},{"name":"adapterParams","type":"bytes","internalType":"bytes"}],"outputs":[],"stateMutability":"payable"},{"type":"function","name":"failedMessages","inputs":[{"name":"","type":"uint16","internalType":"uint16"},{"name":"","type":"bytes","internalType":"bytes"},{"name":"","type":"uint64","internalType":"uint64"}],"outputs":[{"name":"","type":"bytes32","internalType":"bytes32"}],"stateMutability":"view"},{"type":"function","name":"forceResumeReceive","inputs":[{"name":"_srcChainId","type":"uint16","internalType":"uint16"},{"name":"_srcAddress","type":"bytes","internalType":"bytes"}],"outputs":[],"stateMutability":"nonpayable"},{"type":"function","name":"getConfig","inputs":[{"name":"_version","type":"uint16","internalType":"uint16"},{"name":"_chainId","type":"uint16","internalType":"uint16"},{"name":"","type":"address","internalType":"address"},{"name":"_configType","type":"uint256","internalType":"uint256"}],"outputs":[{"name":"","type":"bytes","internalType":"bytes"}],"stateMutability":"view"},{"type":"function","name":"getTrustedRemoteAddress","inputs":[{"name":"_remoteChainId","type":"uint16","internalType":"uint16"}],"outputs":[{"name":"","type":"bytes","internalType":"bytes"}],"stateMutability":"view"},{"type":"function","name":"hostChainID","inputs":[],"outputs":[{"name":"","type":"uint256","internalType":"uint256"}],"stateMutability":"view"},{"type":"function","name":"increaseAllowance","inputs":[{"name":"spender","type":"address","internalType":"address"},{"name":"addedValue","type":"uint256","internalType":"uint256"}],"outputs":[{"name":"","type":"bool","internalType":"bool"}],"stateMutability":"nonpayable"},{"type":"function","name":"isTrustedRemote","inputs":[{"name":"_srcChainId","type":"uint16","internalType":"uint16"},{"name":"_srcAddress","type":"bytes","internalType":"bytes"}],"outputs":[{"name":"","type":"bool","internalType":"bool"}],"stateMutability":"view"},{"type":"function","name":"lzEndpoint","inputs":[],"outputs":[{"name":"","type":"address","internalType":"contract ILayerZeroEndpoint"}],"stateMutability":"view"},{"type":"function","name":"lzReceive","inputs":[{"name":"_srcChainId","type":"uint16","internalType":"uint16"},{"name":"_srcAddress","type":"bytes","internalType":"bytes"},{"name":"_nonce","type":"uint64","internalType":"uint64"},{"name":"_payload","type":"bytes","internalType":"bytes"}],"outputs":[],"stateMutability":"nonpayable"},{"type":"function","name":"minDstGasLookup","inputs":[{"name":"","type":"uint16","internalType":"uint16"},{"name":"","type":"uint16","internalType":"uint16"}],"outputs":[{"name":"","type":"uint256","internalType":"uint256"}],"stateMutability":"view"},{"type":"function","name":"name","inputs":[],"outputs":[{"name":"","type":"string","internalType":"string"}],"stateMutability":"view"},{"type":"function","name":"nonblockingLzReceive","inputs":[{"name":"_srcChainId","type":"uint16","internalType":"uint16"},{"name":"_srcAddress","type":"bytes","internalType":"bytes"},{"name":"_nonce","type":"uint64","internalType":"uint64"},{"name":"_payload","type":"bytes","internalType":"bytes"}],"outputs":[],"stateMutability":"nonpayable"},{"type":"function","name":"nonces","inputs":[{"name":"owner","type":"address","internalType":"address"}],"outputs":[{"name":"","type":"uint256","internalType":"uint256"}],"stateMutability":"view"},{"type":"function","name":"owner","inputs":[],"outputs":[{"name":"","type":"address","internalType":"address"}],"stateMutability":"view"},{"type":"function","name":"payloadSizeLimitLookup","inputs":[{"name":"","type":"uint16","internalType":"uint16"}],"outputs":[{"name":"","type":"uint256","internalType":"uint256"}],"stateMutability":"view"},{"type":"function","name":"permit","inputs":[{"name":"owner","type":"address","internalType":"address"},{"name":"spender","type":"address","internalType":"address"},{"name":"value","type":"uint256","internalType":"uint256"},{"name":"deadline","type":"uint256","internalType":"uint256"},{"name":"v","type":"uint8","internalType":"uint8"},{"name":"r","type":"bytes32","internalType":"bytes32"},{"name":"s","type":"bytes32","internalType":"bytes32"}],"outputs":[],"stateMutability":"nonpayable"},{"type":"function","name":"precrime","inputs":[],"outputs":[{"name":"","type":"address","internalType":"address"}],"stateMutability":"view"},{"type":"function","name":"removeCollateral","inputs":[{"name":"from","type":"address","internalType":"address"},{"name":"to","type":"address","internalType":"address"},{"name":"lzDstChainId","type":"uint16","internalType":"uint16"},{"name":"zroPaymentAddress","type":"address","internalType":"address"},{"name":"withdrawParams","type":"tuple","internalType":"struct ICommonData.IWithdrawParams","components":[{"name":"withdraw","type":"bool","internalType":"bool"},{"name":"withdrawLzFeeAmount","type":"uint256","internalType":"uint256"},{"name":"withdrawOnOtherChain","type":"bool","internalType":"bool"},{"name":"withdrawLzChainId","type":"uint16","internalType":"uint16"},{"name":"withdrawAdapterParams","type":"bytes","internalType":"bytes"},{"name":"unwrap","type":"bool","internalType":"bool"}]},{"name":"removeParams","type":"tuple","internalType":"struct ITapiocaOFT.IRemoveParams","components":[{"name":"amount","type":"uint256","internalType":"uint256"},{"name":"marketHelper","type":"address","internalType":"address"},{"name":"market","type":"address","internalType":"address"}]},{"name":"approvals","type":"tuple[]","internalType":"struct ICommonData.IApproval[]","components":[{"name":"permitAll","type":"bool","internalType":"bool"},{"name":"allowFailure","type":"bool","internalType":"bool"},{"name":"yieldBoxTypeApproval","type":"bool","internalType":"bool"},{"name":"revokeYieldBox","type":"bool","internalType":"bool"},{"name":"actionType","type":"uint16","internalType":"uint16"},{"name":"target","type":"address","internalType":"address"},{"name":"permitBorrow","type":"bool","internalType":"bool"},{"name":"owner","type":"address","internalType":"address"},{"name":"spender","type":"address","internalType":"address"},{"name":"value","type":"uint256","internalType":"uint256"},{"name":"deadline","type":"uint256","internalType":"uint256"},{"name":"v","type":"uint8","internalType":"uint8"},{"name":"r","type":"bytes32","internalType":"bytes32"},{"name":"s","type":"bytes32","internalType":"bytes32"}]},{"name":"revokes","type":"tuple[]","internalType":"struct ICommonData.IApproval[]","components":[{"name":"permitAll","type":"bool","internalType":"bool"},{"name":"allowFailure","type":"bool","internalType":"bool"},{"name":"yieldBoxTypeApproval","type":"bool","internalType":"bool"},{"name":"revokeYieldBox","type":"bool","internalType":"bool"},{"name":"actionType","type":"uint16","internalType":"uint16"},{"name":"target","type":"address","internalType":"address"},{"name":"permitBorrow","type":"bool","internalType":"bool"},{"name":"owner","type":"address","internalType":"address"},{"name":"spender","type":"address","internalType":"address"},{"name":"value","type":"uint256","internalType":"uint256"},{"name":"deadline","type":"uint256","internalType":"uint256"},{"name":"v","type":"uint8","internalType":"uint8"},{"name":"r","type":"bytes32","internalType":"bytes32"},{"name":"s","type":"bytes32","internalType":"bytes32"}]},{"name":"adapterParams","type":"bytes","internalType":"bytes"}],"outputs":[],"stateMutability":"payable"},{"type":"function","name":"renounceOwnership","inputs":[],"outputs":[],"stateMutability":"nonpayable"},{"type":"function","name":"rescueEth","inputs":[{"name":"amount","type":"uint256","internalType":"uint256"},{"name":"to","type":"address","internalType":"address"}],"outputs":[],"stateMutability":"nonpayable"},{"type":"function","name":"retrieveFromStrategy","inputs":[{"name":"from","type":"address","internalType":"address"},{"name":"amount","type":"uint256","internalType":"uint256"},{"name":"assetId","type":"uint256","internalType":"uint256"},{"name":"lzDstChainId","type":"uint16","internalType":"uint16"},{"name":"zroPaymentAddress","type":"address","internalType":"address"},{"name":"airdropAdapterParam","type":"bytes","internalType":"bytes"}],"outputs":[],"stateMutability":"payable"},{"type":"function","name":"retryMessage","inputs":[{"name":"_srcChainId","type":"uint16","internalType":"uint16"},{"name":"_srcAddress","type":"bytes","internalType":"bytes"},{"name":"_nonce","type":"uint64","internalType":"uint64"},{"name":"_payload","type":"bytes","internalType":"bytes"}],"outputs":[],"stateMutability":"payable"},{"type":"function","name":"sendAndCall","inputs":[{"name":"_from","type":"address","internalType":"address"},{"name":"_dstChainId","type":"uint16","internalType":"uint16"},{"name":"_toAddress","type":"bytes32","internalType":"bytes32"},{"name":"_amount","type":"uint256","internalType":"uint256"},{"name":"_payload","type":"bytes","internalType":"bytes"},{"name":"_dstGasForCall","type":"uint64","internalType":"uint64"},{"name":"_callParams","type":"tuple","internalType":"struct ICommonOFT.LzCallParams","components":[{"name":"refundAddress","type":"address","internalType":"address payable"},{"name":"zroPaymentAddress","type":"address","internalType":"address"},{"name":"adapterParams","type":"bytes","internalType":"bytes"}]}],"outputs":[],"stateMutability":"payable"},{"type":"function","name":"sendForLeverage","inputs":[{"name":"amount","type":"uint256","internalType":"uint256"},{"name":"leverageFor","type":"address","internalType":"address"},{"name":"lzData","type":"tuple","internalType":"struct IUSDOBase.ILeverageLZData","components":[{"name":"srcExtraGasLimit","type":"uint256","internalType":"uint256"},{"name":"lzSrcChainId","type":"uint16","internalType":"uint16"},{"name":"lzDstChainId","type":"uint16","internalType":"uint16"},{"name":"zroPaymentAddress","type":"address","internalType":"address"},{"name":"dstAirdropAdapterParam","type":"bytes","internalType":"bytes"},{"name":"srcAirdropAdapterParam","type":"bytes","internalType":"bytes"},{"name":"refundAddress","type":"address","internalType":"address"}]},{"name":"swapData","type":"tuple","internalType":"struct IUSDOBase.ILeverageSwapData","components":[{"name":"tokenOut","type":"address","internalType":"address"},{"name":"amountOutMin","type":"uint256","internalType":"uint256"},{"name":"data","type":"bytes","internalType":"bytes"}]},{"name":"externalData","type":"tuple","internalType":"struct IUSDOBase.ILeverageExternalContractsData","components":[{"name":"swapper","type":"address","internalType":"address"},{"name":"magnetar","type":"address","internalType":"address"},{"name":"tOft","type":"address","internalType":"address"},{"name":"srcMarket","type":"address","internalType":"address"}]}],"outputs":[],"stateMutability":"payable"},{"type":"function","name":"sendFrom","inputs":[{"name":"_from","type":"address","internalType":"address"},{"name":"_dstChainId","type":"uint16","internalType":"uint16"},{"name":"_toAddress","type":"bytes32","internalType":"bytes32"},{"name":"_amount","type":"uint256","internalType":"uint256"},{"name":"_callParams","type":"tuple","internalType":"struct ICommonOFT.LzCallParams","components":[{"name":"refundAddress","type":"address","internalType":"address payable"},{"name":"zroPaymentAddress","type":"address","internalType":"address"},{"name":"adapterParams","type":"bytes","internalType":"bytes"}]}],"outputs":[],"stateMutability":"payable"},{"type":"function","name":"sendToStrategy","inputs":[{"name":"from","type":"address","internalType":"address"},{"name":"to","type":"address","internalType":"address"},{"name":"amount","type":"uint256","internalType":"uint256"},{"name":"assetId","type":"uint256","internalType":"uint256"},{"name":"lzDstChainId","type":"uint16","internalType":"uint16"},{"name":"options","type":"tuple","internalType":"struct ICommonData.ISendOptions","components":[{"name":"extraGasLimit","type":"uint256","internalType":"uint256"},{"name":"zroPaymentAddress","type":"address","internalType":"address"}]}],"outputs":[],"stateMutability":"payable"},{"type":"function","name":"sendToYBAndBorrow","inputs":[{"name":"from","type":"address","internalType":"address"},{"name":"to","type":"address","internalType":"address"},{"name":"lzDstChainId","type":"uint16","internalType":"uint16"},{"name":"airdropAdapterParams","type":"bytes","internalType":"bytes"},{"name":"borrowParams","type":"tuple","internalType":"struct ITapiocaOFT.IBorrowParams","components":[{"name":"amount","type":"uint256","internalType":"uint256"},{"name":"borrowAmount","type":"uint256","internalType":"uint256"},{"name":"marketHelper","type":"address","internalType":"address"},{"name":"market","type":"address","internalType":"address"}]},{"name":"withdrawParams","type":"tuple","internalType":"struct ICommonData.IWithdrawParams","components":[{"name":"withdraw","type":"bool","internalType":"bool"},{"name":"withdrawLzFeeAmount","type":"uint256","internalType":"uint256"},{"name":"withdrawOnOtherChain","type":"bool","internalType":"bool"},{"name":"withdrawLzChainId","type":"uint16","internalType":"uint16"},{"name":"withdrawAdapterParams","type":"bytes","internalType":"bytes"},{"name":"unwrap","type":"bool","internalType":"bool"}]},{"name":"options","type":"tuple","internalType":"struct ICommonData.ISendOptions","components":[{"name":"extraGasLimit","type":"uint256","internalType":"uint256"},{"name":"zroPaymentAddress","type":"address","internalType":"address"}]},{"name":"approvals","type":"tuple[]","internalType":"struct ICommonData.IApproval[]","components":[{"name":"permitAll","type":"bool","internalType":"bool"},{"name":"allowFailure","type":"bool","internalType":"bool"},{"name":"yieldBoxTypeApproval","type":"bool","internalType":"bool"},{"name":"revokeYieldBox","type":"bool","internalType":"bool"},{"name":"actionType","type":"uint16","internalType":"uint16"},{"name":"target","type":"address","internalType":"address"},{"name":"permitBorrow","type":"bool","internalType":"bool"},{"name":"owner","type":"address","internalType":"address"},{"name":"spender","type":"address","internalType":"address"},{"name":"value","type":"uint256","internalType":"uint256"},{"name":"deadline","type":"uint256","internalType":"uint256"},{"name":"v","type":"uint8","internalType":"uint8"},{"name":"r","type":"bytes32","internalType":"bytes32"},{"name":"s","type":"bytes32","internalType":"bytes32"}]},{"name":"revokes","type":"tuple[]","internalType":"struct ICommonData.IApproval[]","components":[{"name":"permitAll","type":"bool","internalType":"bool"},{"name":"allowFailure","type":"bool","internalType":"bool"},{"name":"yieldBoxTypeApproval","type":"bool","internalType":"bool"},{"name":"revokeYieldBox","type":"bool","internalType":"bool"},{"name":"actionType","type":"uint16","internalType":"uint16"},{"name":"target","type":"address","internalType":"address"},{"name":"permitBorrow","type":"bool","internalType":"bool"},{"name":"owner","type":"address","internalType":"address"},{"name":"spender","type":"address","internalType":"address"},{"name":"value","type":"uint256","internalType":"uint256"},{"name":"deadline","type":"uint256","internalType":"uint256"},{"name":"v","type":"uint8","internalType":"uint8"},{"name":"r","type":"bytes32","internalType":"bytes32"},{"name":"s","type":"bytes32","internalType":"bytes32"}]}],"outputs":[],"stateMutability":"payable"},{"type":"function","name":"setCluster","inputs":[{"name":"_cluster","type":"address","internalType":"contract ICluster"}],"outputs":[],"stateMutability":"nonpayable"},{"type":"function","name":"setConfig","inputs":[{"name":"_version","type":"uint16","internalType":"uint16"},{"name":"_chainId","type":"uint16","internalType":"uint16"},{"name":"_configType","type":"uint256","internalType":"uint256"},{"name":"_config","type":"bytes","internalType":"bytes"}],"outputs":[],"stateMutability":"nonpayable"},{"type":"function","name":"setMaxSlippage","inputs":[{"name":"_slippage","type":"uint256","internalType":"uint256"}],"outputs":[],"stateMutability":"nonpayable"},{"type":"function","name":"setMinDstGas","inputs":[{"name":"_dstChainId","type":"uint16","internalType":"uint16"},{"name":"_packetType","type":"uint16","internalType":"uint16"},{"name":"_minGas","type":"uint256","internalType":"uint256"}],"outputs":[],"stateMutability":"nonpayable"},{"type":"function","name":"setPayloadSizeLimit","inputs":[{"name":"_dstChainId","type":"uint16","internalType":"uint16"},{"name":"_size","type":"uint256","internalType":"uint256"}],"outputs":[],"stateMutability":"nonpayable"},{"type":"function","name":"setPrecrime","inputs":[{"name":"_precrime","type":"address","internalType":"address"}],"outputs":[],"stateMutability":"nonpayable"},{"type":"function","name":"setReceiveVersion","inputs":[{"name":"_version","type":"uint16","internalType":"uint16"}],"outputs":[],"stateMutability":"nonpayable"},{"type":"function","name":"setSendVersion","inputs":[{"name":"_version","type":"uint16","internalType":"uint16"}],"outputs":[],"stateMutability":"nonpayable"},{"type":"function","name":"setStargateRouter","inputs":[{"name":"_router","type":"address","internalType":"address"}],"outputs":[],"stateMutability":"nonpayable"},{"type":"function","name":"setTrustedRemote","inputs":[{"name":"_srcChainId","type":"uint16","internalType":"uint16"},{"name":"_path","type":"bytes","internalType":"bytes"}],"outputs":[],"stateMutability":"nonpayable"},{"type":"function","name":"setTrustedRemoteAddress","inputs":[{"name":"_remoteChainId","type":"uint16","internalType":"uint16"},{"name":"_remoteAddress","type":"bytes","internalType":"bytes"}],"outputs":[],"stateMutability":"nonpayable"},{"type":"function","name":"setUseCustomAdapterParams","inputs":[{"name":"_useCustomAdapterParams","type":"bool","internalType":"bool"}],"outputs":[],"stateMutability":"nonpayable"},{"type":"function","name":"sgReceive","inputs":[{"name":"","type":"uint16","internalType":"uint16"},{"name":"","type":"bytes","internalType":"bytes"},{"name":"","type":"uint256","internalType":"uint256"},{"name":"","type":"address","internalType":"address"},{"name":"amountLD","type":"uint256","internalType":"uint256"},{"name":"","type":"bytes","internalType":"bytes"}],"outputs":[],"stateMutability":"nonpayable"},{"type":"function","name":"sharedDecimals","inputs":[],"outputs":[{"name":"","type":"uint8","internalType":"uint8"}],"stateMutability":"view"},{"type":"function","name":"supportsInterface","inputs":[{"name":"interfaceId","type":"bytes4","internalType":"bytes4"}],"outputs":[{"name":"","type":"bool","internalType":"bool"}],"stateMutability":"view"},{"type":"function","name":"symbol","inputs":[],"outputs":[{"name":"","type":"string","internalType":"string"}],"stateMutability":"view"},{"type":"function","name":"token","inputs":[],"outputs":[{"name":"","type":"address","internalType":"address"}],"stateMutability":"view"},{"type":"function","name":"totalSupply","inputs":[],"outputs":[{"name":"","type":"uint256","internalType":"uint256"}],"stateMutability":"view"},{"type":"function","name":"transfer","inputs":[{"name":"to","type":"address","internalType":"address"},{"name":"amount","type":"uint256","internalType":"uint256"}],"outputs":[{"name":"","type":"bool","internalType":"bool"}],"stateMutability":"nonpayable"},{"type":"function","name":"transferFrom","inputs":[{"name":"from","type":"address","internalType":"address"},{"name":"to","type":"address","internalType":"address"},{"name":"amount","type":"uint256","internalType":"uint256"}],"outputs":[{"name":"","type":"bool","internalType":"bool"}],"stateMutability":"nonpayable"},{"type":"function","name":"transferOwnership","inputs":[{"name":"newOwner","type":"address","internalType":"address"}],"outputs":[],"stateMutability":"nonpayable"},{"type":"function","name":"triggerApproveOrRevoke","inputs":[{"name":"lzDstChainId","type":"uint16","internalType":"uint16"},{"name":"lzCallParams","type":"tuple","internalType":"struct ICommonOFT.LzCallParams","components":[{"name":"refundAddress","type":"address","internalType":"address payable"},{"name":"zroPaymentAddress","type":"address","internalType":"address"},{"name":"adapterParams","type":"bytes","internalType":"bytes"}]},{"name":"approvals","type":"tuple[]","internalType":"struct ICommonData.IApproval[]","components":[{"name":"permitAll","type":"bool","internalType":"bool"},{"name":"allowFailure","type":"bool","internalType":"bool"},{"name":"yieldBoxTypeApproval","type":"bool","internalType":"bool"},{"name":"revokeYieldBox","type":"bool","internalType":"bool"},{"name":"actionType","type":"uint16","internalType":"uint16"},{"name":"target","type":"address","internalType":"address"},{"name":"permitBorrow","type":"bool","internalType":"bool"},{"name":"owner","type":"address","internalType":"address"},{"name":"spender","type":"address","internalType":"address"},{"name":"value","type":"uint256","internalType":"uint256"},{"name":"deadline","type":"uint256","internalType":"uint256"},{"name":"v","type":"uint8","internalType":"uint8"},{"name":"r","type":"bytes32","internalType":"bytes32"},{"name":"s","type":"bytes32","internalType":"bytes32"}]}],"outputs":[],"stateMutability":"payable"},{"type":"function","name":"triggerSendFrom","inputs":[{"name":"lzDstChainId","type":"uint16","internalType":"uint16"},{"name":"airdropAdapterParams","type":"bytes","internalType":"bytes"},{"name":"zroPaymentAddress","type":"address","internalType":"address"},{"name":"amount","type":"uint256","internalType":"uint256"},{"name":"sendFromData","type":"tuple","internalType":"struct ICommonOFT.LzCallParams","components":[{"name":"refundAddress","type":"address","internalType":"address payable"},{"name":"zroPaymentAddress","type":"address","internalType":"address"},{"name":"adapterParams","type":"bytes","internalType":"bytes"}]},{"name":"approvals","type":"tuple[]","internalType":"struct ICommonData.IApproval[]","components":[{"name":"permitAll","type":"bool","internalType":"bool"},{"name":"allowFailure","type":"bool","internalType":"bool"},{"name":"yieldBoxTypeApproval","type":"bool","internalType":"bool"},{"name":"revokeYieldBox","type":"bool","internalType":"bool"},{"name":"actionType","type":"uint16","internalType":"uint16"},{"name":"target","type":"address","internalType":"address"},{"name":"permitBorrow","type":"bool","internalType":"bool"},{"name":"owner","type":"address","internalType":"address"},{"name":"spender","type":"address","internalType":"address"},{"name":"value","type":"uint256","internalType":"uint256"},{"name":"deadline","type":"uint256","internalType":"uint256"},{"name":"v","type":"uint8","internalType":"uint8"},{"name":"r","type":"bytes32","internalType":"bytes32"},{"name":"s","type":"bytes32","internalType":"bytes32"}]},{"name":"revokes","type":"tuple[]","internalType":"struct ICommonData.IApproval[]","components":[{"name":"permitAll","type":"bool","internalType":"bool"},{"name":"allowFailure","type":"bool","internalType":"bool"},{"name":"yieldBoxTypeApproval","type":"bool","internalType":"bool"},{"name":"revokeYieldBox","type":"bool","internalType":"bool"},{"name":"actionType","type":"uint16","internalType":"uint16"},{"name":"target","type":"address","internalType":"address"},{"name":"permitBorrow","type":"bool","internalType":"bool"},{"name":"owner","type":"address","internalType":"address"},{"name":"spender","type":"address","internalType":"address"},{"name":"value","type":"uint256","internalType":"uint256"},{"name":"deadline","type":"uint256","internalType":"uint256"},{"name":"v","type":"uint8","internalType":"uint8"},{"name":"r","type":"bytes32","internalType":"bytes32"},{"name":"s","type":"bytes32","internalType":"bytes32"}]}],"outputs":[],"stateMutability":"payable"},{"type":"function","name":"triggerSendFromWithParams","inputs":[{"name":"from","type":"address","internalType":"address"},{"name":"lzDstChainId","type":"uint16","internalType":"uint16"},{"name":"to","type":"bytes32","internalType":"bytes32"},{"name":"amount","type":"uint256","internalType":"uint256"},{"name":"callParams","type":"tuple","internalType":"struct ICommonOFT.LzCallParams","components":[{"name":"refundAddress","type":"address","internalType":"address payable"},{"name":"zroPaymentAddress","type":"address","internalType":"address"},{"name":"adapterParams","type":"bytes","internalType":"bytes"}]},{"name":"unwrap","type":"bool","internalType":"bool"},{"name":"approvals","type":"tuple[]","internalType":"struct ICommonData.IApproval[]","components":[{"name":"permitAll","type":"bool","internalType":"bool"},{"name":"allowFailure","type":"bool","internalType":"bool"},{"name":"yieldBoxTypeApproval","type":"bool","internalType":"bool"},{"name":"revokeYieldBox","type":"bool","internalType":"bool"},{"name":"actionType","type":"uint16","internalType":"uint16"},{"name":"target","type":"address","internalType":"address"},{"name":"permitBorrow","type":"bool","internalType":"bool"},{"name":"owner","type":"address","internalType":"address"},{"name":"spender","type":"address","internalType":"address"},{"name":"value","type":"uint256","internalType":"uint256"},{"name":"deadline","type":"uint256","internalType":"uint256"},{"name":"v","type":"uint8","internalType":"uint8"},{"name":"r","type":"bytes32","internalType":"bytes32"},{"name":"s","type":"bytes32","internalType":"bytes32"}]},{"name":"revokes","type":"tuple[]","internalType":"struct ICommonData.IApproval[]","components":[{"name":"permitAll","type":"bool","internalType":"bool"},{"name":"allowFailure","type":"bool","internalType":"bool"},{"name":"yieldBoxTypeApproval","type":"bool","internalType":"bool"},{"name":"revokeYieldBox","type":"bool","internalType":"bool"},{"name":"actionType","type":"uint16","internalType":"uint16"},{"name":"target","type":"address","internalType":"address"},{"name":"permitBorrow","type":"bool","internalType":"bool"},{"name":"owner","type":"address","internalType":"address"},{"name":"spender","type":"address","internalType":"address"},{"name":"value","type":"uint256","internalType":"uint256"},{"name":"deadline","type":"uint256","internalType":"uint256"},{"name":"v","type":"uint8","internalType":"uint8"},{"name":"r","type":"bytes32","internalType":"bytes32"},{"name":"s","type":"bytes32","internalType":"bytes32"}]}],"outputs":[],"stateMutability":"payable"},{"type":"function","name":"trustedRemoteLookup","inputs":[{"name":"","type":"uint16","internalType":"uint16"}],"outputs":[{"name":"","type":"bytes","internalType":"bytes"}],"stateMutability":"view"},{"type":"function","name":"unwrap","inputs":[{"name":"_toAddress","type":"address","internalType":"address"},{"name":"_amount","type":"uint256","internalType":"uint256"}],"outputs":[],"stateMutability":"nonpayable"},{"type":"function","name":"useCustomAdapterParams","inputs":[],"outputs":[{"name":"","type":"bool","internalType":"bool"}],"stateMutability":"view"},{"type":"function","name":"vault","inputs":[],"outputs":[{"name":"","type":"address","internalType":"contract TOFTVault"}],"stateMutability":"view"},{"type":"function","name":"wrap","inputs":[{"name":"_fromAddress","type":"address","internalType":"address"},{"name":"_toAddress","type":"address","internalType":"address"},{"name":"_amount","type":"uint256","internalType":"uint256"}],"outputs":[],"stateMutability":"payable"},{"type":"function","name":"yieldBox","inputs":[],"outputs":[{"name":"","type":"address","internalType":"contract IYieldBoxBase"}],"stateMutability":"view"},{"type":"event","name":"Approval","inputs":[{"name":"owner","type":"address","indexed":true,"internalType":"address"},{"name":"spender","type":"address","indexed":true,"internalType":"address"},{"name":"value","type":"uint256","indexed":false,"internalType":"uint256"}],"anonymous":false},{"type":"event","name":"CallOFTReceivedSuccess","inputs":[{"name":"_srcChainId","type":"uint16","indexed":true,"internalType":"uint16"},{"name":"_srcAddress","type":"bytes","indexed":false,"internalType":"bytes"},{"name":"_nonce","type":"uint64","indexed":false,"internalType":"uint64"},{"name":"_hash","type":"bytes32","indexed":false,"internalType":"bytes32"}],"anonymous":false},{"type":"event","name":"MessageFailed","inputs":[{"name":"_srcChainId","type":"uint16","indexed":false,"internalType":"uint16"},{"name":"_srcAddress","type":"bytes","indexed":false,"internalType":"bytes"},{"name":"_nonce","type":"uint64","indexed":false,"internalType":"uint64"},{"name":"_payload","type":"bytes","indexed":false,"internalType":"bytes"},{"name":"_reason","type":"bytes","indexed":false,"internalType":"bytes"}],"anonymous":false},{"type":"event","name":"NonContractAddress","inputs":[{"name":"_address","type":"address","indexed":false,"internalType":"address"}],"anonymous":false},{"type":"event","name":"OwnershipTransferred","inputs":[{"name":"previousOwner","type":"address","indexed":true,"internalType":"address"},{"name":"newOwner","type":"address","indexed":true,"internalType":"address"}],"anonymous":false},{"type":"event","name":"ReceiveFromChain","inputs":[{"name":"_srcChainId","type":"uint16","indexed":true,"internalType":"uint16"},{"name":"_to","type":"address","indexed":true,"internalType":"address"},{"name":"_amount","type":"uint256","indexed":false,"internalType":"uint256"}],"anonymous":false},{"type":"event","name":"RetryMessageSuccess","inputs":[{"name":"_srcChainId","type":"uint16","indexed":false,"internalType":"uint16"},{"name":"_srcAddress","type":"bytes","indexed":false,"internalType":"bytes"},{"name":"_nonce","type":"uint64","indexed":false,"internalType":"uint64"},{"name":"_payloadHash","type":"bytes32","indexed":false,"internalType":"bytes32"}],"anonymous":false},{"type":"event","name":"SendToChain","inputs":[{"name":"_dstChainId","type":"uint16","indexed":true,"internalType":"uint16"},{"name":"_from","type":"address","indexed":true,"internalType":"address"},{"name":"_toAddress","type":"bytes32","indexed":true,"internalType":"bytes32"},{"name":"_amount","type":"uint256","indexed":false,"internalType":"uint256"}],"anonymous":false},{"type":"event","name":"SetMinDstGas","inputs":[{"name":"_dstChainId","type":"uint16","indexed":false,"internalType":"uint16"},{"name":"_type","type":"uint16","indexed":false,"internalType":"uint16"},{"name":"_minDstGas","type":"uint256","indexed":false,"internalType":"uint256"}],"anonymous":false},{"type":"event","name":"SetPrecrime","inputs":[{"name":"precrime","type":"address","indexed":false,"internalType":"address"}],"anonymous":false},{"type":"event","name":"SetTrustedRemote","inputs":[{"name":"_remoteChainId","type":"uint16","indexed":false,"internalType":"uint16"},{"name":"_path","type":"bytes","indexed":false,"internalType":"bytes"}],"anonymous":false},{"type":"event","name":"SetTrustedRemoteAddress","inputs":[{"name":"_remoteChainId","type":"uint16","indexed":false,"internalType":"uint16"},{"name":"_remoteAddress","type":"bytes","indexed":false,"internalType":"bytes"}],"anonymous":false},{"type":"event","name":"SetUseCustomAdapterParams","inputs":[{"name":"_useCustomAdapterParams","type":"bool","indexed":false,"internalType":"bool"}],"anonymous":false},{"type":"event","name":"Transfer","inputs":[{"name":"from","type":"address","indexed":true,"internalType":"address"},{"name":"to","type":"address","indexed":true,"internalType":"address"},{"name":"value","type":"uint256","indexed":false,"internalType":"uint256"}],"anonymous":false},{"type":"error","name":"AllowanceNotValid","inputs":[]},{"type":"error","name":"Failed","inputs":[]},{"type":"error","name":"NotAuthorized","inputs":[]},{"type":"error","name":"NotValid","inputs":[]}],"bytecode":{"object":"0x6102206040523462000f9557620072268038038091620000228261022062000fb6565b61022039610220818101911262000f95576200004061022062000fda565b6101c0526200005161024062000fda565b61020052610260516001600160a01b038116810362000f955761028051916001600160a01b038316830362000f95576102a0516001600160401b03811162000f955781620000a3916102200162001014565b6102c05190916001600160401b03821162000f9557620000c7916102200162001014565b9160c061022001519360ff8516850362000f955761030051610320519095906001600160a01b038116810362000f955761034051916001600160a01b038316830362000f955761036051956001600160a01b038716870362000f9557610380516101a08190526001600160a01b0381160362000f95576103a051946001600160a01b038616860362000f95576103c051966001600160a01b038816880362000f95576103e0519a6001600160a01b038c168c0362000f955761040051946001600160a01b038616860362000f9557610420519b6001600160a01b038d168d0362000f9557604051956a546170696f63614f46542d60a81b6020880152620001ef602b888351620001de818484016020880162000fef565b810103600b81018a52018862000fb6565b62000201604051806101e05262000f9a565b60016101e05152603160f81b60206101e05101526200025a602b60405180936a546170696f63614f46542d60a81b602083015262000249815180926020868601910162000fef565b810103600b81018452018262000fb6565b6200029560216040518094601d60fa1b602083015262000284815180926020868601910162000fef565b810103600181018552018362000fb6565b60008054336001600160a01b0319821681178355916001600160a01b03909116907f8be0079c531659141344cd1fd0a4f28419497f9722a3daafe3b4186f6b6457e09080a36101c0516001600160a01b0316608052600183901c607f1660a0528051906001600160401b03821162000cb857600b5490600182811c9216801562000f8a575b602083101462000e5c5781601f84931162000f18575b50602090601f831160011462000e895760009262000e7d575b50508160011b916000199060031b1c191617600b555b8051906001600160401b03821162000cb857600c5490600182811c9216801562000e72575b602083101462000e5c5781601f84931162000dea575b50602090601f831160011462000d5b5760009262000d4f575b50508160011b916000199060031b1c191617600c555b60ff620003d56200106f565b1680607f8360011c161162000cfa57607f8260011c1690039060ff821162000ce457604d60ff83161162000ce45760ff809216600a0a60c0526101f460125560018060a01b03610200511660018060a01b0319600f541617600f551660ff19601154161760115560105560018060a01b031660018060a01b0319600d541617600d5560018060a01b031660018060a01b0319600e541617600e5560208151910120976101e05160208151910120896101405280610160524661010052604051996000805160206200720683398151915260208c015260408b015260608a01524660808a01523060a08a015260a089528860c081011060018060401b0360c08b01111762000cb85760c08901604081905289516020808c019190912060e05230610120526000805160206200720683398151915261018052601680546001600160a01b039687166001600160a01b031991821681179092556017805498881698821689179055601880549b88169b82168c1790556101a0516019805491891691831682179055601a80549a89169a83168b179055601b80549b89169b83168c179055601c805496891696831687179055601d805497891697831688179055601e80549d9098169c82168d1790975560139092527f4155c2f711f2cdd34f8262ab8fb9b7020a700fe7b6948222152f7670d1fdf34d80548316909b17909a557f7b49122965436243734b7a552847e7503db682b4cbd4d2fd428feb216e8bcdf8805482169093179092557f76aa7d3cd4f559a3c98822aa7e1c37143eb9f80ceff73a5023a8fc3d6d44af61805483169093179092557f0b9d2c0c271bb30544eb78c59bdaebdae2728e5f65814c07768a0abe90ed1923805482169098179097557f0d2a6872ef858a7f8ead18dc4f3f2e8d35c853d47e2816cbb9cdd49202554e0c805488169093179092557f709d0e3cf89777a1e1f9c99632e4494f29b0327befd0df15e277a12d94825795805487169093179092557f8ba6fb577925b0796671c737df59b8aaae861b630513fb12823699e3e0e3ee60805486169093179092557f01413ff7a3b1d5b6c016c061d48e2c7014700c777a29fcd068fff04265813d5d8054851690931790925560056000527ff4b2859895858d6aa26d656e4999d552f6a869b74c43bba7d2a941c4d22c355980549093169091179091556200073b9062000f9a565b600560c0820190815263969bfdc360e01b60e09092019182526103026000526022602052517fbb201f9b1c609cd37a78c352121e2aea895b6e44bce534ae7bd8d907a4844a3291600a82101562000cce5760ff64ffffffff008454925160d81c1692169064ffffffffff191617179055604051620007b98162000f9a565b60058152634db96f5560e01b6020808301919091526103036000526022905280517f26acd582accdc3152cfe882b07ca1f82b883d3fee50b5d88e49d481a6be464d791600a82101562000cce5760ff64ffffffff006020855493015160d81c1692169064ffffffffff191617179055604051620008368162000f9a565b600781526313030a6160e31b6020808301919091526103046000526022905280517f4b0b6542cc9958aae3f2888e272b7ab3c451e3776f4771bd81d1777057a3647791600a82101562000cce5760ff64ffffffff006020855493015160d81c1692169064ffffffffff191617179055604051620008b38162000f9a565b60078152631789153d60e31b6020808301919091526103076000526022905280517fb0fe59244d754fc595a830f0987e57a854dc67e6ba867249a96f5773fe2bc07091600a82101562000cce5760ff64ffffffff006020855493015160d81c1692169064ffffffffff191617179055604051620009308162000f9a565b6003815263bafb655d60e01b6020808301919091526103086000526022905280517f01d2d015de0d2c2626882da5be80aae00ac6b74a5a18a13bd1f3600b0136132991600a82101562000cce5760ff64ffffffff006020855493015160d81c1692169064ffffffffff191617179055604051620009ad8162000f9a565b600981526381618d0560e01b6020808301919091526103096000526022905280517f8756216796a95529f13204130c91b7c1c4d66686c2c0748ecb8dfc6ea0116c1291600a82101562000cce5760ff64ffffffff006020855493015160d81c1692169064ffffffffff19161717905560405162000a2a8162000f9a565b6001815263af2ee97560e01b60208083019190915261030a6000526022905280517f7510072e783b31c8b84029af31ae7733bbfed7dc494e7767f9d4e480652f8bd891600a82101562000cce5760ff64ffffffff006020855493015160d81c1692169064ffffffffff19161717905560405162000aa78162000f9a565b6001815263ee75f25d60e01b60208083019190915261030b6000526022905280517f2c124f81185aa805b12ffb8e8f0e4e53d0fb70b4e8dfacdaaa43e9def6da994a91600a82101562000cce5760ff64ffffffff006020855493015160d81c1692169064ffffffffff19161717905560405162000b248162000f9a565b6001815263bda6ce2160e01b602080830191825261030c6000526022905290517f301e90e6465018495ee899d06e83a22ebcfdc912ba62d30c5e354d370452dd9d91600a82101562000cce5760ff64ffffffff008454925160d81c1692169064ffffffffff1916171790556040516105a48082019082821060018060401b0383111762000cb857602091839162006c628339610200516001600160a01b031681520301906000f0801562000cac57602180546001600160a01b0319166001600160a01b0392909216919091179055604051615bdc90816200108682396080518181816105e8015281816108ca01528181610cab01528181610e5c015281816110bc015281816125b70152818161275701528181612fe801528181614dcc01526150a0015260a05181611e1d015260c0518181816152470152818161536d015281816155de0152615678015260e05181614625015261010051816146e0015261012051816145ef015261014051816146740152610160518161469a015261018051816146510152f35b6040513d6000823e3d90fd5b634e487b7160e01b600052604160045260246000fd5b634e487b7160e01b600052602160045260246000fd5b634e487b7160e01b600052601160045260246000fd5b60405162461bcd60e51b815260206004820152602760248201527f4f46543a20736861726564446563696d616c73206d757374206265203c3d20646044820152666563696d616c7360c81b6064820152608490fd5b015190503880620003b3565b600c600090815293507fdf6966c971051c3d54ec59162606531493a51404a002842f56009d7e5cf4a8c791905b601f198416851062000dce576001945083601f1981161062000db4575b505050811b01600c55620003c9565b015160001960f88460031b161c1916905538808062000da5565b8181015183556020948501946001909301929091019062000d88565b600c6000529091507fdf6966c971051c3d54ec59162606531493a51404a002842f56009d7e5cf4a8c7601f840160051c81016020851062000e54575b90849392915b601f830160051c8201811062000e445750506200039a565b6000815585945060010162000e2c565b508062000e26565b634e487b7160e01b600052602260045260246000fd5b91607f169162000384565b01519050388062000349565b600b600090815293507f0175b7a638427703f0dbe7bb9bbf987a2551717b34e79f33b5b1008d1fa01db991905b601f198416851062000efc576001945083601f1981161062000ee2575b505050811b01600b556200035f565b015160001960f88460031b161c1916905538808062000ed3565b8181015183556020948501946001909301929091019062000eb6565b600b6000529091507f0175b7a638427703f0dbe7bb9bbf987a2551717b34e79f33b5b1008d1fa01db9601f840160051c81016020851062000f82575b90849392915b601f830160051c8201811062000f7257505062000330565b6000815585945060010162000f5a565b508062000f54565b91607f16916200031a565b600080fd5b604081019081106001600160401b0382111762000cb857604052565b601f909101601f19168101906001600160401b0382119082101762000cb857604052565b51906001600160a01b038216820362000f9557565b60005b838110620010035750506000910152565b818101518382015260200162000ff2565b81601f8201121562000f955780516001600160401b03811162000cb857604051926200104b601f8301601f19166020018562000fb6565b8184526020828401011162000f95576200106c916020808501910162000fef565b90565b60ff6011541680156200107f5790565b5060129056fe6080604052600436101561001b575b361561001957600080fd5b005b60003560e01c80621d3567146104cf57806254af3a146104ca57806301ffc9a7146104c557806306fdde03146104c057806307e0db17146104bb578063095ea7b3146104b65780630df37483146104b15780630ed9e406146104ac5780630fb6ba59146104a757806310ddb137146104a257806318160ddd1461040257806323b872dd1461049d578063313ce567146104985780633644e51514610493578063365260b41461048e578063395093511461048957806339f47693146104845780633d8b38f61461047f5780633f1f4fa41461047a57806342d65a8d14610475578063437be6221461047057806343f68a491461046b57806344770515146104665780634c42899a146104665780634e8eeae9146104615780634fd7e9f61461045c57806351b78b471461045757806357ba399b146104525780635b8c41e61461044d578063623556381461044857806366ad5c8a14610443578063695ef6bf1461043e57806370a0823114610439578063715018a6146104345780637533d7881461042f57806376203b481461042a578063785e9e8614610425578063796fd43a146104205780637c875ea01461041b5780637ecebe0014610416578063857749b0146104115780638cfd8f5c1461040c5780638da5cb5b146104075780639358928b14610402578063950c8a74146103fd57806395d89b41146103f85780639bdb9812146103f35780639f38369a146103ee578063a457c2d7146103e9578063a4c51df5146103e4578063a643c52e146103df578063a6c3d165146103da578063a9059cbb146103d5578063ab8236f3146103d0578063afa61ff9146103cb578063b25ea8fb146103c6578063b353aaa7146103c1578063baf3292d146103bc578063c20d362f146103b7578063c4461834146103b2578063cbed8b9c146103ad578063d1deba1f146103a8578063d505accf146103a3578063dbd01de11461039e578063dd62ed3e14610399578063de40657714610394578063df2a5b3b1461038f578063e6a20ae61461038a578063eab45d9c14610385578063eaffd49a14610380578063eb8d72b71461037b578063ed629c5c14610376578063f2fde38b14610371578063f5ecbdbc1461036c578063fbfa77cf146103675763fc0c546a0361000e5761307b565b613052565b612f86565b612ebf565b612e9c565b612d52565b612ccd565b612c6b565b612c4f565b612b6a565b612b41565b612ae7565b612abe565b61295d565b6127dc565b61270b565b6126ee565b612656565b6125e6565b6125a1565b61254c565b612495565b61238a565b612360565b6121dd565b6121bf565b61212c565b61206e565b611fcf565b611f84565b611edd565b611eb4565b610d0c565b611e8b565b611e41565b611e03565b611dc6565b611d31565b611bb3565b611b79565b61193b565b6118e8565b6117a2565b611765565b611674565b6115ee565b61151b565b6114b4565b61138f565b611348565b6112a7565b61121a565b61118d565b61116c565b611111565b6110a2565b61106d565b611011565b610f36565b610eda565b610dd6565b610d9e565b610d78565b610d56565b610c86565b610bf3565b610b10565b6109c7565b610992565b6108a5565b6107c0565b61070e565b6106f0565b6105d1565b6004359061ffff821682036104e557565b600080fd5b6064359061ffff821682036104e557565b6084359061ffff821682036104e557565b6044359061ffff821682036104e557565b6024359061ffff821682036104e557565b359061ffff821682036104e557565b9181601f840112156104e5578235916001600160401b0383116104e557602083818601950101116104e557565b9060806003198301126104e55760043561ffff811681036104e557916001600160401b03906024358281116104e557816105a69160040161053d565b9390939260443581811681036104e557926064359182116104e5576105cd9160040161053d565b9091565b346104e5576105df3661056a565b929493919291907f00000000000000000000000000000000000000000000000000000000000000006001600160a01b031633036106a05761066561066d926100199761065e61064461063f8a61ffff166000526001602052604060002090565b6118cd565b8051908184149182610696575b5081610673575b5061474d565b3691610abe565b923691610abe565b9261486b565b9050610680368486610abe565b6020815191012090602081519101201438610658565b1515915038610651565b60405162461bcd60e51b815260206004820152601e60248201527f4c7a4170703a20696e76616c696420656e64706f696e742063616c6c657200006044820152606490fd5b60009103126104e557565b346104e55760003660031901126104e5576020601054604051908152f35b346104e55760203660031901126104e55760043563ffffffff60e01b81168091036104e557602090631f7ecdf760e01b8114908115610753575b506040519015158152f35b6301ffc9a760e01b14905038610748565b60005b8381106107775750506000910152565b8181015183820152602001610767565b906020916107a081518092818552858086019101610764565b601f01601f1916010190565b9060206107bd928181520190610787565b90565b346104e5576000806003193601126108a2576040519080600b546107e3816117fd565b80855291600191808316908115610878575060011461081d575b6108198561080d81870382610a82565b604051918291826107ac565b0390f35b9250600b83527f0175b7a638427703f0dbe7bb9bbf987a2551717b34e79f33b5b1008d1fa01db95b82841061086057505050810160200161080d826108196107fd565b80546020858701810191909152909301928101610845565b8695506108199693506020925061080d94915060ff191682840152151560051b82010192936107fd565b80fd5b346104e557600060203660031901126108a2576108c06104d4565b6108c8613bc4565b7f00000000000000000000000000000000000000000000000000000000000000006001600160a01b0316908290823b1561093c57602461ffff918360405195869485936307e0db1760e01b85521660048401525af180156109375761092b575080f35b61093490610a18565b80f35b613846565b5080fd5b6001600160a01b038116036104e557565b6004359061095e82610940565b565b6024359061095e82610940565b6064359061095e82610940565b6044359061095e82610940565b359061095e82610940565b346104e55760403660031901126104e5576109bc6004356109b281610940565b6024359033614017565b602060405160018152f35b346104e55760403660031901126104e55761ffff6109e36104d4565b6109eb613bc4565b166000526003602052602435604060002055600080f35b634e487b7160e01b600052604160045260246000fd5b6001600160401b038111610a2b57604052565b610a02565b61012081019081106001600160401b03821117610a2b57604052565b604081019081106001600160401b03821117610a2b57604052565b60c081019081106001600160401b03821117610a2b57604052565b90601f801991011681019081106001600160401b03821117610a2b57604052565b6001600160401b038111610a2b57601f01601f191660200190565b929192610aca82610aa3565b91610ad86040519384610a82565b8294818452818301116104e5578281602093846000960137010152565b9080601f830112156104e5578160206107bd93359101610abe565b60c03660031901126104e557600435610b2881610940565b610b306104ea565b9060843590610b3e82610940565b60a435926001600160401b0384116104e557610bbc61ffff93610bca93610b6c610019973690600401610af5565b9160405196879563076cf20360e11b602088015260018060a01b038094166024880152602435604488015260443560648801521660848601521660a484015260c060c484015260e4830190610787565b03601f198101835282610a82565b613882565b60409060a31901126104e55760a490565b6040906101231901126104e55761012490565b60e03660031901126104e557610019600435610c0e81610940565b610c7960243591610c1e83610940565b61ffff610c296104fb565b610c3236610bcf565b9260405195630fb6ba5960e01b602088015260018060a01b038092166024880152166044860152604435606486015260643560848601521660a484015260c483019061344b565b60e48152610bca81610a30565b346104e557600060203660031901126108a257610ca16104d4565b610ca9613bc4565b7f00000000000000000000000000000000000000000000000000000000000000006001600160a01b0316908290823b1561093c57602461ffff918360405195869485936310ddb13760e01b85521660048401525af180156109375761092b575080f35b346104e55760003660031901126104e5576020600a54604051908152f35b60609060031901126104e557600435610d4281610940565b90602435610d4f81610940565b9060443590565b346104e5576109bc610d6736610d2a565b91610d73833383614142565b613d0e565b346104e55760003660031901126104e5576020610d93613096565b60ff60405191168152f35b346104e55760003660031901126104e5576020610db96145ec565b604051908152f35b801515036104e557565b359061095e82610dc1565b346104e55760a03660031901126104e557610def6104d4565b60643590610dfc82610dc1565b608435906001600160401b0382116104e557610e2161065e604093369060040161053d565b90610e58610e3b610e336044356155dc565b6024356156ad565b928451958694859463040a7bb160e41b8652309060048701614f74565b03817f00000000000000000000000000000000000000000000000000000000000000006001600160a01b03165afa908115610937576000908192610ea9575b50604080519182526020820192909252f35b9050610ecc915060403d8111610ed3575b610ec48183610a82565b810190614f5e565b9038610e97565b503d610eba565b346104e55760403660031901126104e557600435610ef781610940565b3360009081526009602090815260408083206001600160a01b03851684529091529020546024358101809111610f31576109bc9133614017565b613c1c565b346104e557600060403660031901126108a257600435610f5581610940565b6024356010544603610fc55780610f6d849233613ee2565b6021546001600160a01b0316803b15610fc15760405163f3fef3a360e01b81526001600160a01b03909416600485015260248401919091528290818381604481015b03925af180156109375761092b575080f35b8280fd5b60405163ea8e4eb560e01b8152600490fd5b9060406003198301126104e55760043561ffff811681036104e55791602435906001600160401b0382116104e5576105cd9160040161053d565b346104e557602061ffff61105e61102736610fd7565b9390911660005260018452611049611050604060002060405192838092611837565b0382610a82565b848151910120923691610abe565b82815191012014604051908152f35b346104e55760203660031901126104e55761ffff6110896104d4565b1660005260036020526020604060002054604051908152f35b346104e5576110b036610fd7565b91906110ba613bc4565b7f00000000000000000000000000000000000000000000000000000000000000006001600160a01b031691823b156104e557604051928380926342d65a8d60e01b825281610faf60009889978894600485016147de565b346104e55760203660031901126104e55760043561112e81610940565b6001600160a01b0316801561115a576bffffffffffffffffffffffff60a01b600e541617600e55600080f35b60405163f1640ae160e01b8152600490fd5b346104e55760203660031901126104e557611185613bc4565b600435601255005b346104e55760003660031901126104e557602060405160008152f35b60c0906101231901126104e55761012490565b908160c09103126104e55790565b60609060a31901126104e55760a490565b908160609103126104e55790565b9181601f840112156104e5578235916001600160401b0383116104e5576020808501946101c085020101116104e557565b366003190161024081126104e55760c0136104e55760603660c31901126104e557611244366111a9565b6001600160401b03906101e4358281116104e5576112669036906004016111e9565b610204929192358481116104e5576112829036906004016111e9565b91610224359586116104e55761129f61001996369060040161053d565b9590946135ef565b60603660031901126104e5576112bb6104d4565b6001600160401b036024358181116104e5576112db9036906004016111db565b6044359182116104e55761001992610bbc6113439261133161130461ffff9636906004016111e9565b9190926040519788966327ebf4fb60e11b60208901521660248701526060604487015260848601906136cc565b84810360231901606486015291613247565b61391c565b346104e55760203660031901126104e55760043561136581610940565b61136d613bc4565b602080546001600160a01b0319166001600160a01b0392909216919091179055005b6101603660031901126104e5576113a4610951565b6113ac610960565b6113b461050c565b916113bd61096d565b6001600160401b03936084358581116104e5576113de9036906004016111bc565b6113e7366111ca565b90610104358781116104e5576114019036906004016111e9565b929091610124358981116104e55761141d9036906004016111e9565b969095610144359a8b116104e55761143c6100199b369060040161053d565b9a909961337e565b60606003198201126104e55760043561ffff811681036104e557916024356001600160401b03928382116104e55761147e91600401610af5565b9160443590811681036104e55790565b6020906114a8928260405194838680955193849201610764565b82019081520301902090565b346104e557602061151261ffff6114f1836114ce36611444565b949091166000526005825260406000208260405194838680955193849201610764565b820190815203019020906001600160401b0316600052602052604060002090565b54604051908152f35b61152436610d2a565b6010544603610fc557600f546001600160a01b0390811661154b5750506100199150613b70565b83929192163381036115aa575b50811561115a57600f54610019936115a591849190611587906001600160a01b03165b6001600160a01b031690565b60215490919061159f906001600160a01b031661157b565b91614264565b613e28565b60009081526009602090815260408083203384529091529020829054106115dc576115d6823385614142565b38611558565b60405163fb165f2360e01b8152600490fd5b346104e5576115fc3661056a565b91929493903033036116205761066561161a92610019973691610abe565b92614a33565b60405162461bcd60e51b815260206004820152602660248201527f4e6f6e626c6f636b696e674c7a4170703a2063616c6c6572206d7573742062656044820152650204c7a4170760d41b6064820152608490fd5b60a03660031901126104e55760043561168c81610940565b61169461051d565b604435916084356001600160401b0381116104e557602061ffff6116dd7fd81fc9b8523134ed613870ed029d6170cbb73aa6a6bc311b9a642689fb9df59a9336906004016111db565b9361175085356116ec81610940565b61170a61065e86890135986117008a610940565b6040810190614d4a565b611714818a6154d9565b611729611722606435615676565b5085615885565b97611735891515614fb8565b6117476117418a6155dc565b8c6156ad565b9234938b61505c565b6040519485526001600160a01b0316941692a4005b346104e55760203660031901126104e55760043561178281610940565b60018060a01b031660005260086020526020604060002054604051908152f35b346104e5576000806003193601126108a2576117bc613bc4565b80546001600160a01b03198116825581906001600160a01b03167f8be0079c531659141344cd1fd0a4f28419497f9722a3daafe3b4186f6b6457e08280a380f35b90600182811c9216801561182d575b602083101461181757565b634e487b7160e01b600052602260045260246000fd5b91607f169161180c565b9060009291805491611848836117fd565b9182825260019384811690816000146118aa575060011461186a575b50505050565b90919394506000526020928360002092846000945b838610611896575050505001019038808080611864565b80548587018301529401938590820161187f565b9294505050602093945060ff191683830152151560051b01019038808080611864565b9061095e6118e19260405193848092611837565b0383610a82565b346104e55760203660031901126104e55761ffff6119046104d4565b166000526001602052610819611049611927604060002060405192838092611837565b604051918291602083526020830190610787565b60e03660031901126104e55760043561195381610940565b61195b61051d565b604435916001600160401b03906084358281116104e55761198090369060040161053d565b91909260a43591818316918284036104e55760c4359081116104e5576119aa9036906004016111db565b926119e18435956119ba87610940565b6119d96119cf60208801359761170089610940565b9990923691610abe565b973691610abe565b9460ff60065416600014611ae6576022865110611aa1578560209561174761175094611a6f8c611a5c61ffff9a8b60227fd81fc9b8523134ed613870ed029d6170cbb73aa6a6bc311b9a642689fb9df59a9f0151931660005260028d52611a5660406000206001600052602052604060002090565b54613c4e565b90611a6882151561552e565b101561557a565b611a84611a7d606435615676565b5088615885565b9a611a908c1515614fb8565b8d611a9a8d6155dc565b903361573f565b60405162461bcd60e51b815260206004820152601c60248201527f4c7a4170703a20696e76616c69642061646170746572506172616d73000000006044820152606490fd5b948094935051611b25577fd81fc9b8523134ed613870ed029d6170cbb73aa6a6bc311b9a642689fb9df59a9460209461ffff9461174761175094611a6f565b60405162461bcd60e51b815260206004820152602660248201527f4f4654436f72653a205f61646170746572506172616d73206d7573742062652060448201526532b6b83a3c9760d11b6064820152608490fd5b346104e55760003660031901126104e557600f546040516001600160a01b039091168152602090f35b60809060831901126104e557608490565b60031961010036820181136104e55760243591611bcf83610940565b604435926001600160401b03918285116104e55760e0856004019186360301126104e5576064359283116104e557610bbc611d2161001996611c18611d2c9636906004016111db565b611d10611cff60c4611cf8611c2c36611ba2565b986040519c8d9b8c6020633cb7ea1d60e11b9101528c602460043591015260018060a01b031660448d015260648c015280356101248c015261ffff80611c7460248a0161052e565b166101448d0152611c876044890161052e565b166101648c0152611cb06064880135611c9f81610940565b6001600160a01b03166101848d0152565b611ce4611cd98c610204611cc760848c01866130ab565b91909260e06101a482015201916130dc565b9160a48901906130ab565b8c830361012319016101c48e0152906130dc565b9401610987565b6001600160a01b03166101e4880152565b8582036023190160848701526130fd565b9160a4840190613141565b61396f565b6101003660031901126104e557600435611d4a81610940565b611d5261051d565b6001600160401b03916084358381116104e557611d739036906004016111db565b60a43590611d8082610dc1565b60c4358581116104e557611d989036906004016111e9565b92909160e4359687116104e557611db66100199736906004016111e9565b969095606435916044359161370c565b346104e55760203660031901126104e557600435611de381610940565b60018060a01b031660005260146020526020604060002054604051908152f35b346104e55760003660031901126104e557602060405160ff7f0000000000000000000000000000000000000000000000000000000000000000168152f35b346104e55760403660031901126104e5576020611512611e5f6104d4565b61ffff611e6a61051d565b91166000526002835260406000209061ffff16600052602052604060002090565b346104e55760003660031901126104e5576000546040516001600160a01b039091168152602090f35b346104e55760003660031901126104e5576004546040516001600160a01b039091168152602090f35b346104e5576000806003193601126108a2576040519080600c54611f00816117fd565b808552916001918083169081156108785750600114611f29576108198561080d81870382610a82565b9250600c83527fdf6966c971051c3d54ec59162606531493a51404a002842f56009d7e5cf4a8c75b828410611f6c57505050810160200161080d826108196107fd565b80546020858701810191909152909301928101611f51565b346104e557602060ff611fc361ffff6114f184611fa036611444565b949091166000526007825260406000208260405194838680955193849201610764565b54166040519015158152f35b346104e55760203660031901126104e55761ffff611feb6104d4565b16600052600160205261104961200b604060002060405192838092611837565b8051156120295761080d81612023610819935161484d565b9061595f565b60405162461bcd60e51b815260206004820152601d60248201527f4c7a4170703a206e6f20747275737465642070617468207265636f72640000006044820152606490fd5b346104e55760403660031901126104e55760043561208b81610940565b602435903360005260096020526120b88160406000209060018060a01b0316600052602052604060002090565b54918083106120d9576120cd92039033614017565b60405160018152602090f35b60405162461bcd60e51b815260206004820152602560248201527f45524332303a2064656372656173656420616c6c6f77616e63652062656c6f77604482015264207a65726f60d81b6064820152608490fd5b346104e55760e03660031901126104e5576121456104d4565b6001600160401b03906064358281116104e55761216690369060040161053d565b60849291923584811681036104e55760a4359161218283610dc1565b60c4359586116104e55761219d6121ad96369060040161053d565b9590946044359060243590614d7c565b60408051928352602083019190915290f35b346104e55760003660031901126104e5576020601254604051908152f35b346104e5576121eb36610fd7565b906121f4613bc4565b604051926020928083858701376122206034868381013060601b88820152036014810188520186610a82565b60009361ffff8316855260019081815260408620918751916001600160401b038311610a2b5761225a8361225486546117fd565b866147f9565b80601f84116001146122ca5750918080926122b99695948a9b7f8c0400cfe2d1199b1a725c78960bcc2a344d869b80590d0f2bd005db15a572ce9b946122bf575b50501b916000199060031b1c19161790555b604051938493846147de565b0390a180f35b01519250388061229b565b91939498601f1984166122e287600052602060002090565b938a905b828210612349575050917f8c0400cfe2d1199b1a725c78960bcc2a344d869b80590d0f2bd005db15a572ce999a959391856122b998969410612330575b505050811b0190556122ad565b015160001960f88460031b161c19169055388080612323565b8088869782949787015181550196019401906122e6565b346104e55760403660031901126104e5576109bc60043561238081610940565b6024359033613d0e565b346104e55760c03660031901126104e5576123a36104d4565b506001600160401b036024358181116104e5576123c4903690600401610af5565b506123d0606435610940565b6084359060a4359081116104e5576123ec903690600401610af5565b506020546001600160a01b0390811680612489575b50600f546001600160a01b03161680612468575060215461242a906001600160a01b031661157b565b803b156104e557600090600460405180948193636db5a92360e11b83525af180156109375761245557005b8061246261001992610a18565b806106e5565b602154610019929190612483906001600160a01b031661157b565b90614226565b3303610fc55738612401565b6101a03660031901126104e5576124aa610951565b6124b2610960565b6124ba61050c565b6001600160401b0392906064358481116104e5576124dc90369060040161053d565b6124e892919236611ba2565b610104358781116104e5576125019036906004016111bc565b9061250b36610be0565b92610164358981116104e5576125259036906004016111e9565b969095610184359a8b116104e5576125446100199b36906004016111e9565b9a909961346c565b346104e55760403660031901126104e55760243561256981610940565b612571613bc4565b60008080808094600435905af1612586613852565b501561258f5780f35b60405163312d207360e11b8152600490fd5b346104e55760003660031901126104e5576040517f00000000000000000000000000000000000000000000000000000000000000006001600160a01b03168152602090f35b346104e55760203660031901126104e5577f5db758e995a17ec1ad84bdef7e8c3293a0bd6179bcce400dff5d4c3d87db726b602060043561262681610940565b61262e613bc4565b600480546001600160a01b0319166001600160a01b03929092169182179055604051908152a1005b60e03660031901126104e55761266a6104d4565b6001600160401b03906024358281116104e55761268b90369060040161053d565b9161269461097a565b6084358581116104e5576126ac9036906004016111db565b60a4358681116104e5576126c49036906004016111e9565b93909260c4359788116104e5576126e26100199836906004016111e9565b979096606435936137b5565b346104e55760003660031901126104e55760206040516127108152f35b346104e55760803660031901126104e5576127246104d4565b61272c61051d565b6064356001600160401b0381116104e55761274b90369060040161053d565b9092612755613bc4565b7f00000000000000000000000000000000000000000000000000000000000000006001600160a01b031690813b156104e557600080946127cc604051978896879586946332fb62e760e21b865261ffff809216600487015216602485015260443560448501526080606485015260848401916130dc565b03925af180156109375761245557005b6127e53661056a565b9161ffff8694929616600052600560205261282c81604060002060206040518092878b833787820190815203019020906001600160401b0316600052602052604060002090565b549182156128ee576128dd84836128d67fc264d91f3adc5588250e1551f547752ca0cfa8f6b530d243b9f9f4cab10ea8e59a60006128c2846128aa8e8a8f6128e99f908f612890906128836128a49436908d610abe565b6020815191012014614cbd565b61ffff166000526005602052604060002090565b91614ca4565b906001600160401b0316600052602052604060002090565b556128ce36878d610abe565b933691610abe565b9188614a33565b60405195869586614d13565b0390a1005b60405162461bcd60e51b815260206004820152602360248201527f4e6f6e626c6f636b696e674c7a4170703a206e6f2073746f726564206d65737360448201526261676560e81b6064820152608490fd5b6084359060ff821682036104e557565b359060ff821682036104e557565b346104e55760e03660031901126104e55760043561297a81610940565b60243561298681610940565b604435906064359261299661293f565b93804211612a7957612a61612a7491612a3b61001997612a496129d48760018060a01b03166000526014602052604060002090815491600183019055565b604080517f6e71edae12b1b97f4d1f60370fef10105fa2faae0126114a169c64845d6126c9602082019081526001600160a01b03808c1693830193909352918b166060820152608081018c905260a081019290925260c082019590955292839060e0820190565b03601f198101845283610a82565b612a5c60c4359360a43593519020614706565b614429565b6001600160a01b038381169116146141da565b614017565b60405162461bcd60e51b815260206004820152601d60248201527f45524332305065726d69743a206578706972656420646561646c696e650000006044820152606490fd5b346104e55760003660031901126104e557600e546040516001600160a01b039091168152602090f35b346104e55760403660031901126104e5576020611512600435612b0981610940565b60243590612b1682610940565b60018060a01b03166000526009835260406000209060018060a01b0316600052602052604060002090565b346104e55760003660031901126104e557600d546040516001600160a01b039091168152602090f35b346104e55760603660031901126104e557612b836104d4565b612b8b61051d565b60443591612b97613bc4565b8215612c12576128e97f9d5c7c0b934da8fefa9c7760c98383778a12dfbfc0c3b3106518f43fb9508ac09361ffff8316600052600260205280612bec8560406000209061ffff16600052602052604060002090565b556040519384938460409194939294606082019561ffff80921683521660208201520152565b60405162461bcd60e51b81526020600482015260156024820152744c7a4170703a20696e76616c6964206d696e47617360581b6044820152606490fd5b346104e55760003660031901126104e557602060405160018152f35b346104e55760203660031901126104e5577f1584ad594a70cbe1e6515592e1272a987d922b097ead875069cebe8b40c004a46020600435612cab81610dc1565b612cb3613bc4565b151560ff196006541660ff821617600655604051908152a1005b346104e5576101003660031901126104e557612ce76104d4565b6001600160401b03906024358281116104e557612d0890369060040161053d565b91906044359084821682036104e557608435612d2381610940565b60c4359586116104e557612d3e61001996369060040161053d565b94909360e4359660a4359460643593614e72565b346104e557612d6036610fd7565b9190612d6a613bc4565b60009161ffff81168352600160209080825260408520916001600160401b038711610a2b57612da387612d9d85546117fd565b856147f9565b8590601f8811600114612e0a57509186808798936122b9957ffa41487ad5d6728f0b19276fa1eddc16558578f5109fc39d2dc33c3230470dab9993612dff575b501b906000198460031b1c1916179055604051938493846147de565b880135925038612de3565b90601f198816612e1f85600052602060002090565b9288905b828210612e85575050918893917ffa41487ad5d6728f0b19276fa1eddc16558578f5109fc39d2dc33c3230470dab98996122b9969410612e6b575b505082811b0190556122ad565b870135600019600386901b60f8161c191690553880612e5e565b808685968294968c01358155019501930190612e23565b346104e55760003660031901126104e557602060ff600654166040519015158152f35b346104e55760203660031901126104e557600435612edc81610940565b612ee4613bc4565b6001600160a01b039081168015612f3257600080546001600160a01b03198116831782559092167f8be0079c531659141344cd1fd0a4f28419497f9722a3daafe3b4186f6b6457e08380a380f35b60405162461bcd60e51b815260206004820152602660248201527f4f776e61626c653a206e6577206f776e657220697320746865207a65726f206160448201526564647265737360d01b6064820152608490fd5b346104e55760803660031901126104e557612f9f6104d4565b612fa761051d565b90612fb3604435610940565b604051633d7b2f6f60e21b815261ffff91821660048201529116602482015230604482015260648035908201526000816084817f00000000000000000000000000000000000000000000000000000000000000006001600160a01b03165afa80156109375761081991600091613031575b50604051918291826107ac565b61304c913d8091833e6130448183610a82565b8101906147a8565b38613024565b346104e55760003660031901126104e5576021546040516001600160a01b039091168152602090f35b346104e55760003660031901126104e5576020604051308152f35b60ff6011541680156130a55790565b50601290565b9035601e19823603018112156104e55701602081359101916001600160401b0382116104e55781360383136104e557565b908060209392818452848401376000828201840152601f01601f1916010190565b9060606131316107bd93803561311281610940565b6001600160a01b031684526020818101359085015260408101906130ab565b91909281604082015201916130dc565b6060908181359161315183610940565b6001600160a01b03928316855282602082013561316d81610940565b16602086015282604082013561318281610940565b166040860152013561319381610940565b16910152565b9081356131a581610dc1565b151581526020820135602082015260408201356131c181610dc1565b1515604082015261ffff6131d76060840161052e565b16606082015260a0806132016131f060808601866130ab565b60c0608087015260c08601916130dc565b93013561320d81610dc1565b151591015290565b604090803583528160208201359161322c83610940565b6001600160a01b039283166020860152013561319381610940565b9190808252602080920192916000905b828210613265575050505090565b909192938061327f60019261327988610dcb565b15159052565b61329561328d848801610dcb565b151582850152565b6132ad60406132a5818901610dcb565b151590830152565b6132bd60606132a5818901610dcb565b6132d760806132cd81890161052e565b61ffff1690830152565b6132f660a06132e7818901610987565b6001600160a01b031690830152565b61330660c06132a5818901610dcb565b61331660e06132e7818901610987565b6133276101006132e7818901610987565b6101208087013590820152610140808701359082015261335761016061334e81890161294f565b60ff1690830152565b61018086810135908201526101a080870135908201526101c0908101950193920190613257565b6040516357ba399b60e01b60208201526001600160a01b039182166024820152918116604483015261ffff90921660648201529116608482015261016060a482015297889796949590949093909290916133dd906101848a0190613199565b9060c489016133eb91613215565b6023199586898303016101248a015261340392613247565b90848783030161014488015261341892613247565b918483030161016485015261342c926130dc565b03601f198101825261343e9082610a82565b613447906139c2565b5050565b6020809180358452013561345e81610940565b6001600160a01b0316910152565b60405163afa61ff960e01b60208201526001600160a01b039182166024820152918116604483015261ffff90921660648201526101a06084820152998a999894979096909590949390926134c5916101c48c01916130dc565b96803560a48b0152602081013560c48b01528160408201356134e681610940565b1660e48b0152606001356134f981610940565b166101048901526023199586898203016101248a015261351891613199565b9161014488016135279161344b565b848783030161018488015261353b92613247565b91848303016101a485015261342c92613247565b60c43561ffff81168091036104e557815260e43561356c81610940565b6001600160a01b0316602082015261010435604090910152565b60a08091803561359581610dc1565b1515845260208101356135a781610940565b600180841b03809116602086015261ffff6135c46040840161052e565b1660408601526060820135606086015260808201356135e281610940565b1660808501520135910152565b92909561368e956136b76136c7966136a26134479a610bbc976040519b8c9a634e8eeae960e01b60208d015260043561362781610940565b8c602460018060a01b038093169101528c60448260243561364781610940565b169101528c60646044359101528c608460643591015260843561366981610940565b1660a48d015260a43560c48d015261368360e48d0161354f565b6101448c0190613586565b6102406102048b01526102648a0191613247565b906023199586898403016102248a0152613247565b92858403016102448601526130dc565b613a15565b9060606131316107bd9380356136e181610940565b6001600160a01b03908116855260208201356136fc81610940565b16602085015260408101906130ab565b6040516303e43af560e51b60208201526001600160a01b03909116602482015261ffff90911660448201526064810191909152608481019190915261010060a4820152958695949390929091613767906101248801906136cc565b90151560c487015260231993848783030160e488015261378692613247565b918483030161010485015261379a92613247565b03601f19810182526137ac9082610a82565b61344790613a15565b97969295939098949198604051998a9963c20d362f60e01b60208c015261ffff1660248b015260448a0160e090526101048a01906137f2926130dc565b6001600160a01b039096166064890152608488015286850360231990810160a48901529461381f916136cc565b90848783030160c488015261383392613247565b918483030160e485015261379a92613247565b6040513d6000823e3d90fd5b3d1561387d573d9061386382610aa3565b916138716040519384610a82565b82523d6000602084013e565b606090565b600460005260136020527f01413ff7a3b1d5b6c016c061d48e2c7014700c777a29fcd068fff04265813d5d546001600160a01b0316801561115a57816000929160208493519201905af4906138d5613852565b90821580613914575b6138e457565b6139106138f083613ac2565b60405162461bcd60e51b8152602060048201529182916024830190610787565b0390fd5b5060016138de565b600160005260136020527f4155c2f711f2cdd34f8262ab8fb9b7020a700fe7b6948222152f7670d1fdf34d546001600160a01b0316801561115a57816000929160208493519201905af4906138d5613852565b600260005260136020527f0b9d2c0c271bb30544eb78c59bdaebdae2728e5f65814c07768a0abe90ed1923546001600160a01b0316801561115a57816000929160208493519201905af4906138d5613852565b600660005260136020527f709d0e3cf89777a1e1f9c99632e4494f29b0327befd0df15e277a12d94825795546001600160a01b0316801561115a57816000929160208493519201905af4906138d5613852565b600860005260136020527f7b49122965436243734b7a552847e7503db682b4cbd4d2fd428feb216e8bcdf8546001600160a01b0316801561115a57816000929160208493519201905af4906138d5613852565b634e487b7160e01b600052602160045260246000fd5b600a1115613a8857565b613a68565b90929192613a9a81610aa3565b91613aa86040519384610a82565b8294828452828201116104e557602061095e930190610764565b6103e8815111613b43576044815110613b1d576004810151810190602081602484019303126104e5576024810151906001600160401b0382116104e5570190806043830112156104e55760248201516107bd92604401613a8d565b50604051613b2a81610a4c565b6009815268544f46545f6461746160b81b602082015290565b50604051613b5081610a4c565b601081526f2a27a32a2fa627a723afa922a0a9a7a760811b602082015290565b6021546001600160a01b031690813b156104e55760008092600460405180958193636db5a92360e11b83525af19182156109375761095e92613bb5575b503490613e28565b613bbe90610a18565b38613bad565b6000546001600160a01b03163303613bd857565b606460405162461bcd60e51b815260206004820152602060248201527f4f776e61626c653a2063616c6c6572206973206e6f7420746865206f776e65726044820152fd5b634e487b7160e01b600052601160045260246000fd5b90601f8201809211610f3157565b6051019081605111610f3157565b91908201809211610f3157565b15613c6257565b60405162461bcd60e51b815260206004820152602360248201527f45524332303a207472616e7366657220746f20746865207a65726f206164647260448201526265737360e81b6064820152608490fd5b15613cba57565b60405162461bcd60e51b815260206004820152602660248201527f45524332303a207472616e7366657220616d6f756e7420657863656564732062604482015265616c616e636560d01b6064820152608490fd5b916001600160a01b038084169290918315613dd557613dba827fddf252ad1be2c89b69c2b068fc378daa952ba7f163c4a11628f55a4df523b3ef94613dd0941696613d5a881515613c5b565b6001600160a01b0381166000908152600860205260409020613d9f90859054613d8582821015613cb3565b039160018060a01b03166000526008602052604060002090565b556001600160a01b0316600090815260086020526040902090565b8054820190556040519081529081906020820190565b0390a3565b60405162461bcd60e51b815260206004820152602560248201527f45524332303a207472616e736665722066726f6d20746865207a65726f206164604482015264647265737360d81b6064820152608490fd5b6001600160a01b03811691908215613e9d57600a5490828201809211610f3157600092613e8e6020927fddf252ad1be2c89b69c2b068fc378daa952ba7f163c4a11628f55a4df523b3ef94600a5560018060a01b03166000526008602052604060002090565b818154019055604051908152a3565b60405162461bcd60e51b815260206004820152601f60248201527f45524332303a206d696e7420746f20746865207a65726f2061646472657373006044820152606490fd5b6001600160a01b038116908115613fc8576001600160a01b038116600090815260086020526040902054838110613f7857837fddf252ad1be2c89b69c2b068fc378daa952ba7f163c4a11628f55a4df523b3ef92613f5a600096613dd094039160018060a01b03166000526008602052604060002090565b55613f6881600a5403600a55565b6040519081529081906020820190565b60405162461bcd60e51b815260206004820152602260248201527f45524332303a206275726e20616d6f756e7420657863656564732062616c616e604482015261636560f01b6064820152608490fd5b60405162461bcd60e51b815260206004820152602160248201527f45524332303a206275726e2066726f6d20746865207a65726f206164647265736044820152607360f81b6064820152608490fd5b6001600160a01b0380821692919083156140f15782169384156140a157806140907f8c5be1e5ebec7d5bd14f71427d1e84f3dd0314c0f7b2291e5b200ac8c7c3b92594614079613dd09560018060a01b03166000526009602052604060002090565b9060018060a01b0316600052602052604060002090565b556040519081529081906020820190565b60405162461bcd60e51b815260206004820152602260248201527f45524332303a20617070726f766520746f20746865207a65726f206164647265604482015261737360f01b6064820152608490fd5b60405162461bcd60e51b8152602060048201526024808201527f45524332303a20617070726f76652066726f6d20746865207a65726f206164646044820152637265737360e01b6064820152608490fd5b6001600160a01b03808216600090815260096020908152604080832093861683529290522090919054926001840161417a5750505050565b8084106141955761418c930391614017565b38808080611864565b60405162461bcd60e51b815260206004820152601d60248201527f45524332303a20696e73756666696369656e7420616c6c6f77616e63650000006044820152606490fd5b156141e157565b60405162461bcd60e51b815260206004820152601e60248201527f45524332305065726d69743a20696e76616c6964207369676e617475726500006044820152606490fd5b60405163a9059cbb60e01b60208201526001600160a01b039092166024830152604482019290925261095e9161425f8260648101612a3b565b6142b8565b6040516323b872dd60e01b60208201526001600160a01b03928316602482015292909116604483015260648083019390935291815260a08101918183106001600160401b03841117610a2b5761095e926040525b604051614316916001600160a01b03166142d182610a4c565b6000806020958685527f5361666545524332303a206c6f772d6c6576656c2063616c6c206661696c656487860152868151910182855af1614310613852565b91614398565b80518061432257505050565b818391810103126104e55781015161433981610dc1565b156143415750565b6084906040519062461bcd60e51b82526004820152602a60248201527f5361666545524332303a204552433230206f7065726174696f6e20646964206e6044820152691bdd081cdd58d8d9595960b21b6064820152fd5b919290156143fa57508151156143ac575090565b3b156143b55790565b60405162461bcd60e51b815260206004820152601d60248201527f416464726573733a2063616c6c20746f206e6f6e2d636f6e74726163740000006044820152606490fd5b82519091501561440d5750805190602001fd5b60405162461bcd60e51b815290819061391090600483016107ac565b916107bd93916144389361456a565b91909161444a565b60051115613a8857565b61445381614440565b8061445b5750565b61446481614440565b600181036144b15760405162461bcd60e51b815260206004820152601860248201527f45434453413a20696e76616c6964207369676e617475726500000000000000006044820152606490fd5b6144ba81614440565b600281036145075760405162461bcd60e51b815260206004820152601f60248201527f45434453413a20696e76616c6964207369676e6174757265206c656e677468006044820152606490fd5b80614513600392614440565b1461451a57565b60405162461bcd60e51b815260206004820152602260248201527f45434453413a20696e76616c6964207369676e6174757265202773272076616c604482015261756560f01b6064820152608490fd5b9291907f7fffffffffffffffffffffffffffffff5d576e7357a4501ddfe92f46681b20a083116145e05791608094939160ff602094604051948552168484015260408301526060820152600093849182805260015afa156109375781516001600160a01b038116156145da579190565b50600190565b50505050600090600390565b307f00000000000000000000000000000000000000000000000000000000000000006001600160a01b031614806146dd575b15614647577f000000000000000000000000000000000000000000000000000000000000000090565b60405160208101907f000000000000000000000000000000000000000000000000000000000000000082527f000000000000000000000000000000000000000000000000000000000000000060408201527f000000000000000000000000000000000000000000000000000000000000000060608201524660808201523060a082015260a081526146d781610a67565b51902090565b507f0000000000000000000000000000000000000000000000000000000000000000461461461e565b61470e6145ec565b9060405190602082019261190160f01b84526022830152604282015260428152608081018181106001600160401b03821117610a2b5760405251902090565b1561475457565b60405162461bcd60e51b815260206004820152602660248201527f4c7a4170703a20696e76616c696420736f757263652073656e64696e6720636f6044820152651b9d1c9858dd60d21b6064820152608490fd5b6020818303126104e5578051906001600160401b0382116104e557019080601f830112156104e55781516107bd92602001613a8d565b60409061ffff6107bd959316815281602082015201916130dc565b90601f811161480757505050565b600091825260208220906020601f850160051c83019410614843575b601f0160051c01915b82811061483857505050565b81815560010161482c565b9092508290614823565b601319810191908211610f3157565b605019810191908211610f3157565b9290916148cf5a604051633356ae4560e11b602082015261ffff8716602482015260806044820152906148c982612a3b6148a860a483018a610787565b6001600160401b038816606484015282810360231901608484015288610787565b30615b5b565b9390156148de575b5050505050565b6148e7946148f1565b38808080806148d7565b919361498e7fe183f33de2837795525b4792ca4cd60535bd77c53b7e7030060bfcf5734d6b0c9561499c939561ffff81516020830120961695866000526005602052614955836114f160208b60406000208260405194838680955193849201610764565b556001600160401b0361497a604051988998895260a060208a015260a0890190610787565b921660408701528582036060870152610787565b908382036080850152610787565b0390a1565b90604051604081018181106001600160401b03821117610a2b5760405280925460ff811690600a821015613a885790825260d81b6001600160e01b03191660209190910152565b916107bd959361ffff614a1f926001600160401b039460018060a01b0316865216602085015260a0604085015260a0840190610787565b931660608201526080818403910152610787565b929190614a3f83615b0e565b614a5d614a56826000526022602052604060002090565b5460ff1690565b614a6681613a7e565b15614bcd5793614a8b614a8661095e966000526022602052604060002090565b6149a1565b600060058251614a9a81613a7e565b614aa381613a7e565b03614b035750601954614abe906001600160a01b031661157b565b905b614afe614ae36020835193614ad485613a7e565b01516001600160e01b03191690565b612a3b888888886040519889966020880152602487016149e8565b614c34565b60078251614b1081613a7e565b614b1981613a7e565b03614b3a5750601b54614b34906001600160a01b031661157b565b90614ac0565b60038251614b4781613a7e565b614b5081613a7e565b03614b6b5750601754614b34906001600160a01b031661157b565b60098251614b7881613a7e565b614b8181613a7e565b03614b9c5750601d54614b34906001600160a01b031661157b565b60018251614ba981613a7e565b614bb281613a7e565b03614b345750601e54614b34906001600160a01b031661157b565b50614be0614bda84615ab3565b60ff1690565b80614bf15750505061095e916151d1565b600103614c015761095e93615328565b60405162461bcd60e51b815260206004820152600b60248201526a1513d19517dc1858dad95d60aa1b6044820152606490fd5b9492939194600a811015613a88576000908152601360205260409020546001600160a01b0316801561115a57816000929160208493519201905af492614c78613852565b93158080614c9c575b614c90576148de575050505050565b6139106138f086613ac2565b506000614c81565b6020919283604051948593843782019081520301902090565b15614cc457565b60405162461bcd60e51b815260206004820152602160248201527f4e6f6e626c6f636b696e674c7a4170703a20696e76616c6964207061796c6f616044820152601960fa1b6064820152608490fd5b91614d3f9060609461ffff6001600160401b0394999897991685526080602086015260808501916130dc565b951660408201520152565b903590601e19813603018212156104e557018035906001600160401b0382116104e5576020019181360383136104e557565b949195989790611a9a614da5604099614d9d614dab97614dc8993691610abe565b943691610abe565b976155dc565b928451968794859463040a7bb160e41b8652309060048701614f74565b03817f00000000000000000000000000000000000000000000000000000000000000006001600160a01b03165afa918215610937576000908193614e0b57509190565b90506105cd91925060403d8111610ed357610ec48183610a82565b93969491614e54906107bd99979461ffff6001600160401b039416875260c0602088015260c08701916130dc565b961660408401526060830152608082015260a08185039101526130dc565b91969792989594939094303303614f1957614e8e9085306158ab565b60405181815290946001600160a01b03169390849061ffff8516907fbf551ec93859b170f9b2141bd9298bf3f64322c6f7beb2543a0cb669834118bf90602090a3833b156104e5576000988995614efc936040519c8d9b8c9a8b98633fe79aed60e11b8a5260048a01614e26565b0393f1801561093757614f0c5750565b8061246261095e92610a18565b60405162461bcd60e51b815260206004820152601f60248201527f4f4654436f72653a2063616c6c6572206d757374206265204f4654436f7265006044820152606490fd5b91908260409103126104e5576020825192015190565b91926107bd959361ffff614fa39316845260018060a01b0316602084015260a0604084015260a0830190610787565b92151560608201526080818403910152610787565b15614fbf57565b60405162461bcd60e51b815260206004820152601960248201527f4f4654436f72653a20616d6f756e7420746f6f20736d616c6c000000000000006044820152606490fd5b926150296107bd97959361ffff6150379416865260c0602087015260c0860190610787565b908482036040860152610787565b6001600160a01b0391821660608401529316608082015280830360a090910152610787565b946150859193929561ffff8116600052600160205261508c604060002060405194858092611837565b0384610a82565b8251156151045761509e855182615162565b7f00000000000000000000000000000000000000000000000000000000000000006001600160a01b031693843b156104e5576000966150f391604051998a988997889662c5803160e81b885260048801615004565b03925af1801561093757614f0c5750565b60405162461bcd60e51b815260206004820152603060248201527f4c7a4170703a2064657374696e6174696f6e20636861696e206973206e6f742060448201526f61207472757374656420736f7572636560801b6064820152608490fd5b61ffff1660005260036020526040600020549081156151c7575b1161518357565b606460405162461bcd60e51b815260206004820152602060248201527f4c7a4170703a207061796c6f61642073697a6520697320746f6f206c617267656044820152fd5b612710915061517c565b9060ff6151dd82615ab3565b16158061528f575b6151ee906156f3565b6152006151fa82615a63565b91615afe565b6001600160a01b039081831615615285575b61ffff7fbf551ec93859b170f9b2141bd9298bf3f64322c6f7beb2543a0cb669834118bf9261526d6020936001600160401b037f00000000000000000000000000000000000000000000000000000000000000009116615663565b946152788682613e28565b60405195865216941692a3565b61dead9250615212565b5080516029146151e5565b98979692936001600160401b036152cc60e0989461ffff6152f89995168d5260208d61010091829101528d0190610787565b951660408b015260608a01526001600160a01b0316608089015260a088015286820360c0880152610787565b930152565b6001600160401b0361531d60409396959496606084526060840190610787565b951660208201520152565b9091615333846157ac565b909161535d614a56876128aa6153578b61ffff166000526007602052604060002090565b8c61148e565b916153936001600160401b0392837f00000000000000000000000000000000000000000000000000000000000000009116615663565b9288888b831561548f575b505050853b1561544457946153e596946148c9948a94612a3b948d9960001461543d5750505a925b5a978b6040519a8b9863757fea4d60e11b60208b015260248a0161529a565b901561543257509061542d61ffff928560207fb8890edbfc1c74692f527444645f95489c3703cc2df42e4a366f5d06fa6cd884969751910120906040519485941696846152fd565b0390a2565b9261095e94926148f1565b16926153c6565b50506040516001600160a01b039094168452507f9aedf5fdba8716db3b6705ca00150643309995d4f818a249ed6dde6677e7792d97509195508594505060208401925061499c915050565b906128aa6154c4926154be896154a96154d1979b30613e28565b9961ffff166000526007602052604060002090565b9061148e565b805460ff19166001179055565b88888b61539e565b60065460ff1615615526576022825110611aa15761ffff602261095e93015191166000526002602052615519604060002060008052602052604060002090565b5490611a6882151561552e565b5051611b2557565b1561553557565b60405162461bcd60e51b815260206004820152601a60248201527f4c7a4170703a206d696e4761734c696d6974206e6f74207365740000000000006044820152606490fd5b1561558157565b60405162461bcd60e51b815260206004820152601b60248201527f4c7a4170703a20676173206c696d697420697320746f6f206c6f7700000000006044820152606490fd5b634e487b7160e01b600052601260045260246000fd5b7f000000000000000000000000000000000000000000000000000000000000000090811561565e57046001600160401b0390818111615619571690565b60405162461bcd60e51b815260206004820152601a60248201527f4f4654436f72653a20616d6f756e745344206f766572666c6f770000000000006044820152606490fd5b6155c6565b81810292918115918404141715610f3157565b7f0000000000000000000000000000000000000000000000000000000000000000801561565e57810690818103908111610f315791565b90604051916000602084015260218301526001600160401b0360c01b9060c01b16604182015260298152606081018181106001600160401b03821117610a2b5760405290565b156156fa57565b60405162461bcd60e51b815260206004820152601860248201527f4f4654436f72653a20696e76616c6964207061796c6f616400000000000000006044820152606490fd5b93926071926107bd94604051968794600160f81b602087015260218601526001600160401b0360c01b809360c01b16604186015260018060a01b0316604985015260c01b16606983015261579c8151809260208686019101610764565b8101036051810184520182610a82565b906157c4600160ff6157bd85615ab3565b16146156f3565b6157cd82615a63565b906157d783615afe565b90604984511061584857604984015193605181511061580c57615809605182015191615803815161485c565b906159df565b91565b60405162461bcd60e51b8152602060048201526014602482015273746f55696e7436345f6f75744f66426f756e647360601b6044820152606490fd5b60405162461bcd60e51b8152602060048201526015602482015274746f427974657333325f6f75744f66426f756e647360581b6044820152606490fd5b6107bd9082906001600160a01b0381163314613ee2576158a6823383614142565b613ee2565b6107bd9183916001600160a01b0381163081141590816158d7575b5015613d0e57610d73833383614142565b9050331415386158c6565b156158e957565b60405162461bcd60e51b815260206004820152600e60248201526d736c6963655f6f766572666c6f7760901b6044820152606490fd5b1561592657565b60405162461bcd60e51b8152602060048201526011602482015270736c6963655f6f75744f66426f756e647360781b6044820152606490fd5b6159738261596c81613c32565b10156158e2565b615980828251101561591f565b81615998575050604051600081526020810160405290565b60405191601f811691821560051b808486010193838501920101905b8084106159cc5750508252601f01601f191660405290565b90928351815260208091019301906159b4565b6159ec8261596c81613c32565b615a0181516159fa84613c40565b111561591f565b81615a19575050604051600081526020810160405290565b60405191601f8116916051831560051b80858701019484860193010101905b808410615a505750508252601f01601f191660405290565b9092835181526020809101930190615a38565b6021815110615a7657602d015160601c90565b60405162461bcd60e51b8152602060048201526015602482015274746f416464726573735f6f75744f66426f756e647360581b6044820152606490fd5b6001815110615ac3576001015190565b60405162461bcd60e51b8152602060048201526013602482015272746f55696e74385f6f75744f66426f756e647360681b6044820152606490fd5b602981511061580c576029015190565b6020815110615b1e576020015190565b60405162461bcd60e51b8152602060048201526015602482015274746f55696e743235365f6f75744f66426f756e647360581b6044820152606490fd5b9092916000809160405195615b6f87610a67565b6096875282602088019560a036883760208451940192f1903d9060968211615b9d575b6000908286523e9190565b60969150615b9256fea2646970667358221220685c7713c5593a3c5feb3db7a9eaac63b00ffa5d69f54c493f5373fcd287ca9964736f6c634300081300336080346100be57601f6105a438819003918201601f19168301916001600160401b038311848410176100c3578084926020946040528339810103126100be57516001600160a01b0390818116908190036100be576000543360018060a01b0319821617600055604051923391167f8be0079c531659141344cd1fd0a4f28419497f9722a3daafe3b4186f6b6457e0600080a3600180546001600160a81b0319168217911560a01b60ff60a01b169190911790556104ca90816100da8239f35b600080fd5b634e487b7160e01b600052604160045260246000fdfe60406080815260048036101561001f575b5050361561001d57600080fd5b005b600091823560e01c8063715018a6146103045780638da5cb5b146102dc578063b08ff105146102b4578063db6b52461461026e578063f2fde38b146101ab5763f3fef3a31461006e5750610010565b346101a757806003193601126101a75782610087610361565b6024359061009361043c565b60015460ff8160a01c16600014610112575082809281925af13d1561010d573d67ffffffffffffffff81116100fa578251906100d9601f8201601f19166020018361037c565b81528460203d92013e5b156100ed57505080f35b5163312d207360e11b8152fd5b634e487b7160e01b855260418452602485fd5b6100e3565b845163a9059cbb60e01b81526001600160a01b039283168782015260248101939093529192602092849260449284929091165af190811561019d57849161015f575b50156100ed57505080f35b90506020813d8211610195575b816101796020938361037c565b81010312610191575180151581036101915738610154565b8380fd5b3d915061016c565b82513d86823e3d90fd5b8280fd5b5090346101a75760203660031901126101a7576101c6610361565b906101cf61043c565b6001600160a01b0391821692831561021c57505082546001600160a01b0319811683178455167f8be0079c531659141344cd1fd0a4f28419497f9722a3daafe3b4186f6b6457e08380a380f35b906020608492519162461bcd60e51b8352820152602660248201527f4f776e61626c653a206e6577206f776e657220697320746865207a65726f206160448201526564647265737360d01b6064820152fd5b50826003193601126101a75761028261043c565b60ff60015460a01c16156102a757341561029a578280f35b51631f2a200560e01b8152fd5b5163f1640ae160e01b8152fd5b8382346102d857816003193601126102d8576020906102d16103b4565b9051908152f35b5080fd5b8382346102d857816003193601126102d857905490516001600160a01b039091168152602090f35b833461035e578060031936011261035e5761031d61043c565b80546001600160a01b03198116825581906001600160a01b03167f8be0079c531659141344cd1fd0a4f28419497f9722a3daafe3b4186f6b6457e08280a380f35b80fd5b600435906001600160a01b038216820361037757565b600080fd5b90601f8019910116810190811067ffffffffffffffff82111761039e57604052565b634e487b7160e01b600052604160045260246000fd5b60015460ff8160a01c16610437576040516370a0823160e01b815230600482015290602090829060249082906001600160a01b03165afa90811561042b576000916103fd575090565b906020823d8211610423575b816104166020938361037c565b8101031261035e57505190565b3d9150610409565b6040513d6000823e3d90fd5b504790565b6000546001600160a01b0316330361045057565b606460405162461bcd60e51b815260206004820152602060248201527f4f776e61626c653a2063616c6c6572206973206e6f7420746865206f776e65726044820152fdfea2646970667358221220e91f06e964aa8c6bb0a34b0f084ac1c13b0e65c8bd0b52b9599715da54739f9c64736f6c634300081300338b73c3c69bb8fe3d512ecc4cf759cc79239f7b179b0ffacaa9a75d522b39400f","linkReferences":{}},"methodIdentifiers":{"DEFAULT_PAYLOAD_SIZE_LIMIT()":"c4461834","DOMAIN_SEPARATOR()":"3644e515","NO_EXTRA_GAS()":"44770515","PT_SEND()":"4c42899a","PT_SEND_AND_CALL()":"e6a20ae6","SWAP_MAX_SLIPPAGE()":"a643c52e","allowance(address,address)":"dd62ed3e","approve(address,uint256)":"095ea7b3","balanceOf(address)":"70a08231","callOnOFTReceived(uint16,bytes,uint64,bytes32,address,uint256,bytes,uint256)":"eaffd49a","circulatingSupply()":"9358928b","cluster()":"dbd01de1","creditedPackets(uint16,bytes,uint64)":"9bdb9812","decimals()":"313ce567","decreaseAllowance(address,uint256)":"a457c2d7","erc20()":"785e9e86","estimateSendAndCallFee(uint16,bytes32,uint256,bytes,uint64,bool,bytes)":"a4c51df5","estimateSendFee(uint16,bytes32,uint256,bool,bytes)":"365260b4","exerciseOption((address,address,uint256,uint256,address,uint256),(uint16,address,uint256),(bool,address,uint16,uint256,address,uint256),(bool,bool,bool,bool,uint16,address,bool,address,address,uint256,uint256,uint8,bytes32,bytes32)[],(bool,bool,bool,bool,uint16,address,bool,address,address,uint256,uint256,uint8,bytes32,bytes32)[],bytes)":"4e8eeae9","failedMessages(uint16,bytes,uint64)":"5b8c41e6","forceResumeReceive(uint16,bytes)":"42d65a8d","getConfig(uint16,uint16,address,uint256)":"f5ecbdbc","getTrustedRemoteAddress(uint16)":"9f38369a","hostChainID()":"0054af3a","increaseAllowance(address,uint256)":"39509351","isTrustedRemote(uint16,bytes)":"3d8b38f6","lzEndpoint()":"b353aaa7","lzReceive(uint16,bytes,uint64,bytes)":"001d3567","minDstGasLookup(uint16,uint16)":"8cfd8f5c","name()":"06fdde03","nonblockingLzReceive(uint16,bytes,uint64,bytes)":"66ad5c8a","nonces(address)":"7ecebe00","owner()":"8da5cb5b","payloadSizeLimitLookup(uint16)":"3f1f4fa4","permit(address,address,uint256,uint256,uint8,bytes32,bytes32)":"d505accf","precrime()":"950c8a74","removeCollateral(address,address,uint16,address,(bool,uint256,bool,uint16,bytes,bool),(uint256,address,address),(bool,bool,bool,bool,uint16,address,bool,address,address,uint256,uint256,uint8,bytes32,bytes32)[],(bool,bool,bool,bool,uint16,address,bool,address,address,uint256,uint256,uint8,bytes32,bytes32)[],bytes)":"57ba399b","renounceOwnership()":"715018a6","rescueEth(uint256,address)":"b25ea8fb","retrieveFromStrategy(address,uint256,uint256,uint16,address,bytes)":"0ed9e406","retryMessage(uint16,bytes,uint64,bytes)":"d1deba1f","sendAndCall(address,uint16,bytes32,uint256,bytes,uint64,(address,address,bytes))":"76203b48","sendForLeverage(uint256,address,(uint256,uint16,uint16,address,bytes,bytes,address),(address,uint256,bytes),(address,address,address,address))":"796fd43a","sendFrom(address,uint16,bytes32,uint256,(address,address,bytes))":"695ef6bf","sendToStrategy(address,address,uint256,uint256,uint16,(uint256,address))":"0fb6ba59","sendToYBAndBorrow(address,address,uint16,bytes,(uint256,uint256,address,address),(bool,uint256,bool,uint16,bytes,bool),(uint256,address),(bool,bool,bool,bool,uint16,address,bool,address,address,uint256,uint256,uint8,bytes32,bytes32)[],(bool,bool,bool,bool,uint16,address,bool,address,address,uint256,uint256,uint8,bytes32,bytes32)[])":"afa61ff9","setCluster(address)":"437be622","setConfig(uint16,uint16,uint256,bytes)":"cbed8b9c","setMaxSlippage(uint256)":"43f68a49","setMinDstGas(uint16,uint16,uint256)":"df2a5b3b","setPayloadSizeLimit(uint16,uint256)":"0df37483","setPrecrime(address)":"baf3292d","setReceiveVersion(uint16)":"10ddb137","setSendVersion(uint16)":"07e0db17","setStargateRouter(address)":"51b78b47","setTrustedRemote(uint16,bytes)":"eb8d72b7","setTrustedRemoteAddress(uint16,bytes)":"a6c3d165","setUseCustomAdapterParams(bool)":"eab45d9c","sgReceive(uint16,bytes,uint256,address,uint256,bytes)":"ab8236f3","sharedDecimals()":"857749b0","supportsInterface(bytes4)":"01ffc9a7","symbol()":"95d89b41","token()":"fc0c546a","totalSupply()":"18160ddd","transfer(address,uint256)":"a9059cbb","transferFrom(address,address,uint256)":"23b872dd","transferOwnership(address)":"f2fde38b","triggerApproveOrRevoke(uint16,(address,address,bytes),(bool,bool,bool,bool,uint16,address,bool,address,address,uint256,uint256,uint8,bytes32,bytes32)[])":"4fd7e9f6","triggerSendFrom(uint16,bytes,address,uint256,(address,address,bytes),(bool,bool,bool,bool,uint16,address,bool,address,address,uint256,uint256,uint8,bytes32,bytes32)[],(bool,bool,bool,bool,uint16,address,bool,address,address,uint256,uint256,uint8,bytes32,bytes32)[])":"c20d362f","triggerSendFromWithParams(address,uint16,bytes32,uint256,(address,address,bytes),bool,(bool,bool,bool,bool,uint16,address,bool,address,address,uint256,uint256,uint8,bytes32,bytes32)[],(bool,bool,bool,bool,uint16,address,bool,address,address,uint256,uint256,uint8,bytes32,bytes32)[])":"7c875ea0","trustedRemoteLookup(uint16)":"7533d788","unwrap(address,uint256)":"39f47693","useCustomAdapterParams()":"ed629c5c","vault()":"fbfa77cf","wrap(address,address,uint256)":"62355638","yieldBox()":"de406577"},"id":5}