{"abi":[{"type":"constructor","inputs":[{"name":"_lzEndpoint","type":"address","internalType":"address"},{"name":"_erc20","type":"address","internalType":"address"},{"name":"_yieldBox","type":"address","internalType":"contract IYieldBoxBase"},{"name":"_cluster","type":"address","internalType":"contract ICluster"},{"name":"_name","type":"string","internalType":"string"},{"name":"_symbol","type":"string","internalType":"string"},{"name":"_decimal","type":"uint8","internalType":"uint8"},{"name":"_hostChainID","type":"uint256","internalType":"uint256"}],"stateMutability":"nonpayable"},{"type":"receive","stateMutability":"payable"},{"type":"function","name":"DEFAULT_PAYLOAD_SIZE_LIMIT","inputs":[],"outputs":[{"name":"","type":"uint256","internalType":"uint256"}],"stateMutability":"view"},{"type":"function","name":"NO_EXTRA_GAS","inputs":[],"outputs":[{"name":"","type":"uint256","internalType":"uint256"}],"stateMutability":"view"},{"type":"function","name":"PT_SEND","inputs":[],"outputs":[{"name":"","type":"uint8","internalType":"uint8"}],"stateMutability":"view"},{"type":"function","name":"PT_SEND_AND_CALL","inputs":[],"outputs":[{"name":"","type":"uint8","internalType":"uint8"}],"stateMutability":"view"},{"type":"function","name":"SWAP_MAX_SLIPPAGE","inputs":[],"outputs":[{"name":"","type":"uint256","internalType":"uint256"}],"stateMutability":"view"},{"type":"function","name":"allowance","inputs":[{"name":"owner","type":"address","internalType":"address"},{"name":"spender","type":"address","internalType":"address"}],"outputs":[{"name":"","type":"uint256","internalType":"uint256"}],"stateMutability":"view"},{"type":"function","name":"approve","inputs":[{"name":"spender","type":"address","internalType":"address"},{"name":"amount","type":"uint256","internalType":"uint256"}],"outputs":[{"name":"","type":"bool","internalType":"bool"}],"stateMutability":"nonpayable"},{"type":"function","name":"balanceOf","inputs":[{"name":"account","type":"address","internalType":"address"}],"outputs":[{"name":"","type":"uint256","internalType":"uint256"}],"stateMutability":"view"},{"type":"function","name":"callOnOFTReceived","inputs":[{"name":"_srcChainId","type":"uint16","internalType":"uint16"},{"name":"_srcAddress","type":"bytes","internalType":"bytes"},{"name":"_nonce","type":"uint64","internalType":"uint64"},{"name":"_from","type":"bytes32","internalType":"bytes32"},{"name":"_to","type":"address","internalType":"address"},{"name":"_amount","type":"uint256","internalType":"uint256"},{"name":"_payload","type":"bytes","internalType":"bytes"},{"name":"_gasForCall","type":"uint256","internalType":"uint256"}],"outputs":[],"stateMutability":"nonpayable"},{"type":"function","name":"circulatingSupply","inputs":[],"outputs":[{"name":"","type":"uint256","internalType":"uint256"}],"stateMutability":"view"},{"type":"function","name":"cluster","inputs":[],"outputs":[{"name":"","type":"address","internalType":"contract ICluster"}],"stateMutability":"view"},{"type":"function","name":"creditedPackets","inputs":[{"name":"","type":"uint16","internalType":"uint16"},{"name":"","type":"bytes","internalType":"bytes"},{"name":"","type":"uint64","internalType":"uint64"}],"outputs":[{"name":"","type":"bool","internalType":"bool"}],"stateMutability":"view"},{"type":"function","name":"decimals","inputs":[],"outputs":[{"name":"","type":"uint8","internalType":"uint8"}],"stateMutability":"view"},{"type":"function","name":"decreaseAllowance","inputs":[{"name":"spender","type":"address","internalType":"address"},{"name":"subtractedValue","type":"uint256","internalType":"uint256"}],"outputs":[{"name":"","type":"bool","internalType":"bool"}],"stateMutability":"nonpayable"},{"type":"function","name":"depositToYieldbox","inputs":[{"name":"module","type":"address","internalType":"address"},{"name":"_yieldBox","type":"address","internalType":"contract IYieldBoxBase"},{"name":"_assetId","type":"uint256","internalType":"uint256"},{"name":"_amount","type":"uint256","internalType":"uint256"},{"name":"_from","type":"address","internalType":"address"},{"name":"_to","type":"address","internalType":"address"}],"outputs":[],"stateMutability":"nonpayable"},{"type":"function","name":"erc20","inputs":[],"outputs":[{"name":"","type":"address","internalType":"address"}],"stateMutability":"view"},{"type":"function","name":"estimateSendAndCallFee","inputs":[{"name":"_dstChainId","type":"uint16","internalType":"uint16"},{"name":"_toAddress","type":"bytes32","internalType":"bytes32"},{"name":"_amount","type":"uint256","internalType":"uint256"},{"name":"_payload","type":"bytes","internalType":"bytes"},{"name":"_dstGasForCall","type":"uint64","internalType":"uint64"},{"name":"_useZro","type":"bool","internalType":"bool"},{"name":"_adapterParams","type":"bytes","internalType":"bytes"}],"outputs":[{"name":"nativeFee","type":"uint256","internalType":"uint256"},{"name":"zroFee","type":"uint256","internalType":"uint256"}],"stateMutability":"view"},{"type":"function","name":"estimateSendFee","inputs":[{"name":"_dstChainId","type":"uint16","internalType":"uint16"},{"name":"_toAddress","type":"bytes32","internalType":"bytes32"},{"name":"_amount","type":"uint256","internalType":"uint256"},{"name":"_useZro","type":"bool","internalType":"bool"},{"name":"_adapterParams","type":"bytes","internalType":"bytes"}],"outputs":[{"name":"nativeFee","type":"uint256","internalType":"uint256"},{"name":"zroFee","type":"uint256","internalType":"uint256"}],"stateMutability":"view"},{"type":"function","name":"failedMessages","inputs":[{"name":"","type":"uint16","internalType":"uint16"},{"name":"","type":"bytes","internalType":"bytes"},{"name":"","type":"uint64","internalType":"uint64"}],"outputs":[{"name":"","type":"bytes32","internalType":"bytes32"}],"stateMutability":"view"},{"type":"function","name":"forceResumeReceive","inputs":[{"name":"_srcChainId","type":"uint16","internalType":"uint16"},{"name":"_srcAddress","type":"bytes","internalType":"bytes"}],"outputs":[],"stateMutability":"nonpayable"},{"type":"function","name":"getConfig","inputs":[{"name":"_version","type":"uint16","internalType":"uint16"},{"name":"_chainId","type":"uint16","internalType":"uint16"},{"name":"","type":"address","internalType":"address"},{"name":"_configType","type":"uint256","internalType":"uint256"}],"outputs":[{"name":"","type":"bytes","internalType":"bytes"}],"stateMutability":"view"},{"type":"function","name":"getTrustedRemoteAddress","inputs":[{"name":"_remoteChainId","type":"uint16","internalType":"uint16"}],"outputs":[{"name":"","type":"bytes","internalType":"bytes"}],"stateMutability":"view"},{"type":"function","name":"hostChainID","inputs":[],"outputs":[{"name":"","type":"uint256","internalType":"uint256"}],"stateMutability":"view"},{"type":"function","name":"increaseAllowance","inputs":[{"name":"spender","type":"address","internalType":"address"},{"name":"addedValue","type":"uint256","internalType":"uint256"}],"outputs":[{"name":"","type":"bool","internalType":"bool"}],"stateMutability":"nonpayable"},{"type":"function","name":"isTrustedRemote","inputs":[{"name":"_srcChainId","type":"uint16","internalType":"uint16"},{"name":"_srcAddress","type":"bytes","internalType":"bytes"}],"outputs":[{"name":"","type":"bool","internalType":"bool"}],"stateMutability":"view"},{"type":"function","name":"lzEndpoint","inputs":[],"outputs":[{"name":"","type":"address","internalType":"contract ILayerZeroEndpoint"}],"stateMutability":"view"},{"type":"function","name":"lzReceive","inputs":[{"name":"_srcChainId","type":"uint16","internalType":"uint16"},{"name":"_srcAddress","type":"bytes","internalType":"bytes"},{"name":"_nonce","type":"uint64","internalType":"uint64"},{"name":"_payload","type":"bytes","internalType":"bytes"}],"outputs":[],"stateMutability":"nonpayable"},{"type":"function","name":"minDstGasLookup","inputs":[{"name":"","type":"uint16","internalType":"uint16"},{"name":"","type":"uint16","internalType":"uint16"}],"outputs":[{"name":"","type":"uint256","internalType":"uint256"}],"stateMutability":"view"},{"type":"function","name":"name","inputs":[],"outputs":[{"name":"","type":"string","internalType":"string"}],"stateMutability":"view"},{"type":"function","name":"nonblockingLzReceive","inputs":[{"name":"_srcChainId","type":"uint16","internalType":"uint16"},{"name":"_srcAddress","type":"bytes","internalType":"bytes"},{"name":"_nonce","type":"uint64","internalType":"uint64"},{"name":"_payload","type":"bytes","internalType":"bytes"}],"outputs":[],"stateMutability":"nonpayable"},{"type":"function","name":"owner","inputs":[],"outputs":[{"name":"","type":"address","internalType":"address"}],"stateMutability":"view"},{"type":"function","name":"payloadSizeLimitLookup","inputs":[{"name":"","type":"uint16","internalType":"uint16"}],"outputs":[{"name":"","type":"uint256","internalType":"uint256"}],"stateMutability":"view"},{"type":"function","name":"precrime","inputs":[],"outputs":[{"name":"","type":"address","internalType":"address"}],"stateMutability":"view"},{"type":"function","name":"renounceOwnership","inputs":[],"outputs":[],"stateMutability":"nonpayable"},{"type":"function","name":"retryMessage","inputs":[{"name":"_srcChainId","type":"uint16","internalType":"uint16"},{"name":"_srcAddress","type":"bytes","internalType":"bytes"},{"name":"_nonce","type":"uint64","internalType":"uint64"},{"name":"_payload","type":"bytes","internalType":"bytes"}],"outputs":[],"stateMutability":"payable"},{"type":"function","name":"sendAndCall","inputs":[{"name":"_from","type":"address","internalType":"address"},{"name":"_dstChainId","type":"uint16","internalType":"uint16"},{"name":"_toAddress","type":"bytes32","internalType":"bytes32"},{"name":"_amount","type":"uint256","internalType":"uint256"},{"name":"_payload","type":"bytes","internalType":"bytes"},{"name":"_dstGasForCall","type":"uint64","internalType":"uint64"},{"name":"_callParams","type":"tuple","internalType":"struct ICommonOFT.LzCallParams","components":[{"name":"refundAddress","type":"address","internalType":"address payable"},{"name":"zroPaymentAddress","type":"address","internalType":"address"},{"name":"adapterParams","type":"bytes","internalType":"bytes"}]}],"outputs":[],"stateMutability":"payable"},{"type":"function","name":"sendFrom","inputs":[{"name":"_from","type":"address","internalType":"address"},{"name":"_dstChainId","type":"uint16","internalType":"uint16"},{"name":"_toAddress","type":"bytes32","internalType":"bytes32"},{"name":"_amount","type":"uint256","internalType":"uint256"},{"name":"_callParams","type":"tuple","internalType":"struct ICommonOFT.LzCallParams","components":[{"name":"refundAddress","type":"address","internalType":"address payable"},{"name":"zroPaymentAddress","type":"address","internalType":"address"},{"name":"adapterParams","type":"bytes","internalType":"bytes"}]}],"outputs":[],"stateMutability":"payable"},{"type":"function","name":"setConfig","inputs":[{"name":"_version","type":"uint16","internalType":"uint16"},{"name":"_chainId","type":"uint16","internalType":"uint16"},{"name":"_configType","type":"uint256","internalType":"uint256"},{"name":"_config","type":"bytes","internalType":"bytes"}],"outputs":[],"stateMutability":"nonpayable"},{"type":"function","name":"setMaxSlippage","inputs":[{"name":"_slippage","type":"uint256","internalType":"uint256"}],"outputs":[],"stateMutability":"nonpayable"},{"type":"function","name":"setMinDstGas","inputs":[{"name":"_dstChainId","type":"uint16","internalType":"uint16"},{"name":"_packetType","type":"uint16","internalType":"uint16"},{"name":"_minGas","type":"uint256","internalType":"uint256"}],"outputs":[],"stateMutability":"nonpayable"},{"type":"function","name":"setPayloadSizeLimit","inputs":[{"name":"_dstChainId","type":"uint16","internalType":"uint16"},{"name":"_size","type":"uint256","internalType":"uint256"}],"outputs":[],"stateMutability":"nonpayable"},{"type":"function","name":"setPrecrime","inputs":[{"name":"_precrime","type":"address","internalType":"address"}],"outputs":[],"stateMutability":"nonpayable"},{"type":"function","name":"setReceiveVersion","inputs":[{"name":"_version","type":"uint16","internalType":"uint16"}],"outputs":[],"stateMutability":"nonpayable"},{"type":"function","name":"setSendVersion","inputs":[{"name":"_version","type":"uint16","internalType":"uint16"}],"outputs":[],"stateMutability":"nonpayable"},{"type":"function","name":"setTrustedRemote","inputs":[{"name":"_srcChainId","type":"uint16","internalType":"uint16"},{"name":"_path","type":"bytes","internalType":"bytes"}],"outputs":[],"stateMutability":"nonpayable"},{"type":"function","name":"setTrustedRemoteAddress","inputs":[{"name":"_remoteChainId","type":"uint16","internalType":"uint16"},{"name":"_remoteAddress","type":"bytes","internalType":"bytes"}],"outputs":[],"stateMutability":"nonpayable"},{"type":"function","name":"setUseCustomAdapterParams","inputs":[{"name":"_useCustomAdapterParams","type":"bool","internalType":"bool"}],"outputs":[],"stateMutability":"nonpayable"},{"type":"function","name":"sharedDecimals","inputs":[],"outputs":[{"name":"","type":"uint8","internalType":"uint8"}],"stateMutability":"view"},{"type":"function","name":"strategyDeposit","inputs":[{"name":"module","type":"address","internalType":"address"},{"name":"_srcChainId","type":"uint16","internalType":"uint16"},{"name":"_srcAddress","type":"bytes","internalType":"bytes"},{"name":"_nonce","type":"uint64","internalType":"uint64"},{"name":"_payload","type":"bytes","internalType":"bytes"}],"outputs":[],"stateMutability":"nonpayable"},{"type":"function","name":"strategyWithdraw","inputs":[{"name":"","type":"address","internalType":"address"},{"name":"_srcChainId","type":"uint16","internalType":"uint16"},{"name":"","type":"bytes","internalType":"bytes"},{"name":"","type":"uint64","internalType":"uint64"},{"name":"_payload","type":"bytes","internalType":"bytes"}],"outputs":[],"stateMutability":"nonpayable"},{"type":"function","name":"supportsInterface","inputs":[{"name":"interfaceId","type":"bytes4","internalType":"bytes4"}],"outputs":[{"name":"","type":"bool","internalType":"bool"}],"stateMutability":"view"},{"type":"function","name":"symbol","inputs":[],"outputs":[{"name":"","type":"string","internalType":"string"}],"stateMutability":"view"},{"type":"function","name":"token","inputs":[],"outputs":[{"name":"","type":"address","internalType":"address"}],"stateMutability":"view"},{"type":"function","name":"totalSupply","inputs":[],"outputs":[{"name":"","type":"uint256","internalType":"uint256"}],"stateMutability":"view"},{"type":"function","name":"transfer","inputs":[{"name":"to","type":"address","internalType":"address"},{"name":"amount","type":"uint256","internalType":"uint256"}],"outputs":[{"name":"","type":"bool","internalType":"bool"}],"stateMutability":"nonpayable"},{"type":"function","name":"transferFrom","inputs":[{"name":"from","type":"address","internalType":"address"},{"name":"to","type":"address","internalType":"address"},{"name":"amount","type":"uint256","internalType":"uint256"}],"outputs":[{"name":"","type":"bool","internalType":"bool"}],"stateMutability":"nonpayable"},{"type":"function","name":"transferOwnership","inputs":[{"name":"newOwner","type":"address","internalType":"address"}],"outputs":[],"stateMutability":"nonpayable"},{"type":"function","name":"trustedRemoteLookup","inputs":[{"name":"","type":"uint16","internalType":"uint16"}],"outputs":[{"name":"","type":"bytes","internalType":"bytes"}],"stateMutability":"view"},{"type":"function","name":"useCustomAdapterParams","inputs":[],"outputs":[{"name":"","type":"bool","internalType":"bool"}],"stateMutability":"view"},{"type":"function","name":"yieldBox","inputs":[],"outputs":[{"name":"","type":"address","internalType":"contract IYieldBoxBase"}],"stateMutability":"view"},{"type":"event","name":"Approval","inputs":[{"name":"owner","type":"address","indexed":true,"internalType":"address"},{"name":"spender","type":"address","indexed":true,"internalType":"address"},{"name":"value","type":"uint256","indexed":false,"internalType":"uint256"}],"anonymous":false},{"type":"event","name":"CallOFTReceivedSuccess","inputs":[{"name":"_srcChainId","type":"uint16","indexed":true,"internalType":"uint16"},{"name":"_srcAddress","type":"bytes","indexed":false,"internalType":"bytes"},{"name":"_nonce","type":"uint64","indexed":false,"internalType":"uint64"},{"name":"_hash","type":"bytes32","indexed":false,"internalType":"bytes32"}],"anonymous":false},{"type":"event","name":"MessageFailed","inputs":[{"name":"_srcChainId","type":"uint16","indexed":false,"internalType":"uint16"},{"name":"_srcAddress","type":"bytes","indexed":false,"internalType":"bytes"},{"name":"_nonce","type":"uint64","indexed":false,"internalType":"uint64"},{"name":"_payload","type":"bytes","indexed":false,"internalType":"bytes"},{"name":"_reason","type":"bytes","indexed":false,"internalType":"bytes"}],"anonymous":false},{"type":"event","name":"NonContractAddress","inputs":[{"name":"_address","type":"address","indexed":false,"internalType":"address"}],"anonymous":false},{"type":"event","name":"OwnershipTransferred","inputs":[{"name":"previousOwner","type":"address","indexed":true,"internalType":"address"},{"name":"newOwner","type":"address","indexed":true,"internalType":"address"}],"anonymous":false},{"type":"event","name":"ReceiveFromChain","inputs":[{"name":"_srcChainId","type":"uint16","indexed":true,"internalType":"uint16"},{"name":"_to","type":"address","indexed":true,"internalType":"address"},{"name":"_amount","type":"uint256","indexed":false,"internalType":"uint256"}],"anonymous":false},{"type":"event","name":"RetryMessageSuccess","inputs":[{"name":"_srcChainId","type":"uint16","indexed":false,"internalType":"uint16"},{"name":"_srcAddress","type":"bytes","indexed":false,"internalType":"bytes"},{"name":"_nonce","type":"uint64","indexed":false,"internalType":"uint64"},{"name":"_payloadHash","type":"bytes32","indexed":false,"internalType":"bytes32"}],"anonymous":false},{"type":"event","name":"SendToChain","inputs":[{"name":"_dstChainId","type":"uint16","indexed":true,"internalType":"uint16"},{"name":"_from","type":"address","indexed":true,"internalType":"address"},{"name":"_toAddress","type":"bytes32","indexed":true,"internalType":"bytes32"},{"name":"_amount","type":"uint256","indexed":false,"internalType":"uint256"}],"anonymous":false},{"type":"event","name":"SetMinDstGas","inputs":[{"name":"_dstChainId","type":"uint16","indexed":false,"internalType":"uint16"},{"name":"_type","type":"uint16","indexed":false,"internalType":"uint16"},{"name":"_minDstGas","type":"uint256","indexed":false,"internalType":"uint256"}],"anonymous":false},{"type":"event","name":"SetPrecrime","inputs":[{"name":"precrime","type":"address","indexed":false,"internalType":"address"}],"anonymous":false},{"type":"event","name":"SetTrustedRemote","inputs":[{"name":"_remoteChainId","type":"uint16","indexed":false,"internalType":"uint16"},{"name":"_path","type":"bytes","indexed":false,"internalType":"bytes"}],"anonymous":false},{"type":"event","name":"SetTrustedRemoteAddress","inputs":[{"name":"_remoteChainId","type":"uint16","indexed":false,"internalType":"uint16"},{"name":"_remoteAddress","type":"bytes","indexed":false,"internalType":"bytes"}],"anonymous":false},{"type":"event","name":"SetUseCustomAdapterParams","inputs":[{"name":"_useCustomAdapterParams","type":"bool","indexed":false,"internalType":"bool"}],"anonymous":false},{"type":"event","name":"Transfer","inputs":[{"name":"from","type":"address","indexed":true,"internalType":"address"},{"name":"to","type":"address","indexed":true,"internalType":"address"},{"name":"value","type":"uint256","indexed":false,"internalType":"uint256"}],"anonymous":false},{"type":"error","name":"ActionTypeNotValid","inputs":[]},{"type":"error","name":"NotAuthorized","inputs":[]},{"type":"error","name":"NotValid","inputs":[]}],"bytecode":{"object":"0x60e0604090808252346200059f5762004af18038038091620000228285620005a4565b83398101610100828203126200059f576200003d82620005de565b906020926200004e848201620005de565b818601516001600160a01b03808216949290918590036200059f576060840151968288168098036200059f5760808501516001600160401b0394908581116200059f57816200009f91880162000618565b9060a0870151908682116200059f57620000bb91880162000618565b9160c087015160ff8116968782036200059f5762000116602b60e08f9b01519a5180966a546170696f63614f46542d60a81b878301526200010581518092898686019101620005f3565b810103600b810187520185620005a4565b607f8d518096601d60fa1b868301526200013a8151809288602186019101620005f3565b810103926200015460216001958681018a520188620005a4565b831c16936000958887549d60018060a01b03199e8f33908216178a55823391167f8be0079c531659141344cd1fd0a4f28419497f9722a3daafe3b4186f6b6457e08b80a3166080528560a05281518381116200058b57600b54928584811c9416801562000580575b878510146200056c578190601f9485811162000518575b508790858311600114620004b2578a92620004a6575b5050600019600383901b1c191690851b17600b555b80519283116200049257600c548481811c9116801562000487575b8682101462000473578281116200042a575b5084918311600114620003c4579282939183928894620003b8575b50501b916000199060031b1c191617600c555b6012821162000365575060120360ff8111620003515760ff1690604d82116200033d5750600a0a60c0526101f46012551684600f541617600f5560ff19601154161760115560105581600d541617600d55600e541617600e555161447d908162000674823960805181818161049f01528181610785015281816108a901528181610a1801528181610bd901528181611ffd0152818161210d0152818161282e0152818161326001526136f8015260a051816117ff015260c0518181816110a3015281816119cb0152818161391601528181613b9301528181613df70152613e910152f35b634e487b7160e01b81526011600452602490fd5b634e487b7160e01b82526011600452602482fd5b6084908b519062461bcd60e51b82526004820152602760248201527f4f46543a20736861726564446563696d616c73206d757374206265203c3d20646044820152666563696d616c7360c81b6064820152fd5b01519250388062000246565b600c8752848720919083601f198116895b8888838310620004125750505010620003f8575b505050811b01600c5562000259565b015160001960f88460031b161c19169055388080620003e9565b868601518855909601959485019487935001620003d5565b600c88528588208380860160051c82019288871062000469575b0160051c019085905b8281106200045d5750506200022b565b8981550185906200044d565b9250819262000444565b634e487b7160e01b88526022600452602488fd5b90607f169062000219565b634e487b7160e01b87526041600452602487fd5b015190503880620001e9565b600b8b52888b208894509190601f1984168c5b8b828210620005015750508411620004e7575b505050811b01600b55620001fe565b015160001960f88460031b161c19169055388080620004d8565b8385015186558b97909501949384019301620004c5565b909150600b8a52878a208580850160051c8201928a861062000562575b918991869594930160051c01915b82811062000553575050620001d3565b8c815585945089910162000543565b9250819262000535565b634e487b7160e01b89526022600452602489fd5b93607f1693620001bc565b634e487b7160e01b88526041600452602488fd5b600080fd5b601f909101601f19168101906001600160401b03821190821017620005c857604052565b634e487b7160e01b600052604160045260246000fd5b51906001600160a01b03821682036200059f57565b60005b838110620006075750506000910152565b8181015183820152602001620005f6565b81601f820112156200059f5780516001600160401b038111620005c857604051926200064f601f8301601f191660200185620005a4565b818452602082840101116200059f57620006709160208085019101620005f3565b9056fe6080604052600436101561001b575b361561001957600080fd5b005b60003560e01c80621d3567146103cf57806254af3a146103ca57806301ffc9a7146103c557806306fdde03146103c057806307e0db17146103bb578063095ea7b3146103b65780630df37483146103b157806310ddb137146103ac57806318160ddd1461033957806323b872dd146103a7578063313ce567146103a2578063365260b41461039d57806339509351146103985780633d8b38f6146103935780633f1f4fa41461038e57806342d65a8d1461038957806343f68a4914610384578063447705151461037a578063488dbe4c1461037f5780634c42899a1461037a5780634db96f55146103755780635b8c41e61461037057806366ad5c8a1461036b578063695ef6bf1461036657806370a0823114610361578063715018a61461035c5780637533d7881461035757806376203b4814610352578063785e9e861461034d578063857749b0146103485780638cfd8f5c146103435780638da5cb5b1461033e5780639358928b14610339578063950c8a741461033457806395d89b411461032f578063969bfdc31461032a5780639bdb9812146103255780639f38369a14610320578063a457c2d71461031b578063a4c51df514610316578063a643c52e14610311578063a6c3d1651461030c578063a9059cbb14610307578063b353aaa714610302578063baf3292d146102fd578063c4461834146102f8578063cbed8b9c146102f3578063d1deba1f146102ee578063dbd01de1146102e9578063dd62ed3e146102e4578063de406577146102df578063df2a5b3b146102da578063e6a20ae6146102d5578063eab45d9c146102d0578063eaffd49a146102cb578063eb8d72b7146102c6578063ed629c5c146102c1578063f2fde38b146102bc578063f5ecbdbc146102b75763fc0c546a0361000e57612898565b6127c4565b6126fd565b6126da565b612590565b612507565b6124a5565b612489565b61239c565b612373565b612319565b6122f0565b6121a5565b6120b9565b61209c565b61202c565b611fe7565b611fbd565b611e3a565b611e1c565b611d85565b611cc7565b611c24565b611bd9565b61196e565b6118c7565b61189e565b61090a565b611875565b611823565b6117e5565b6117bc565b61159e565b611547565b6113ff565b6113c2565b6112df565b61124b565b6111e4565b611049565b610c61565b610c7d565b610c40565b610bbf565b610b86565b610b2a565b610a96565b61098e565b610968565b610928565b610880565b610841565b61080c565b61075c565b610677565b6105c5565b6105a7565b610488565b61ffff8116036103e057565b600080fd5b9181601f840112156103e0578235916001600160401b0383116103e057602083818601950101116103e057565b6001600160401b038116036103e057565b9060806003198301126103e05760043561043c816103d4565b916001600160401b03906024358281116103e0578161045d916004016103e5565b9390939260443561046d81610412565b926064359182116103e057610484916004016103e5565b9091565b346103e05761049636610423565b929493919291907f00000000000000000000000000000000000000000000000000000000000000006001600160a01b031633036105575761051c61052492610019976105156104fb6104f68a61ffff166000526001602052604060002090565b61152a565b805190818414918261054d575b508161052a575b50613169565b3691610f8d565b923691610f8d565b9261348c565b9050610537368486610f8d565b602081519101209060208151910120143861050f565b1515915038610508565b60405162461bcd60e51b815260206004820152601e60248201527f4c7a4170703a20696e76616c696420656e64706f696e742063616c6c657200006044820152606490fd5b60009103126103e057565b346103e05760003660031901126103e0576020601054604051908152f35b346103e05760203660031901126103e05760043563ffffffff60e01b81168091036103e057602090631f7ecdf760e01b811490811561060a575b506040519015158152f35b6301ffc9a760e01b149050386105ff565b60005b83811061062e5750506000910152565b818101518382015260200161061e565b906020916106578151809281855285808601910161061b565b601f01601f1916010190565b90602061067492818152019061063e565b90565b346103e057600080600319360112610759576040519080600b5461069a8161145a565b8085529160019180831690811561072f57506001146106d4575b6106d0856106c481870382610f51565b60405191829182610663565b0390f35b9250600b83527f0175b7a638427703f0dbe7bb9bbf987a2551717b34e79f33b5b1008d1fa01db95b8284106107175750505081016020016106c4826106d06106b4565b805460208587018101919091529093019281016106fc565b8695506106d0969350602092506106c494915060ff191682840152151560051b82010192936106b4565b80fd5b346103e057600060203660031901126107595760043561077b816103d4565b610783612a9d565b7f00000000000000000000000000000000000000000000000000000000000000006001600160a01b0316908290823b156107f757602461ffff918360405195869485936307e0db1760e01b85521660048401525af180156107f2576107e6575080f35b6107ef90610f1e565b80f35b6129a2565b5080fd5b6001600160a01b038116036103e057565b346103e05760403660031901126103e05761083660043561082c816107fb565b6024359033612dfc565b602060405160018152f35b346103e05760403660031901126103e05761ffff600435610861816103d4565b610869612a9d565b166000526003602052602435604060002055600080f35b346103e057600060203660031901126107595760043561089f816103d4565b6108a7612a9d565b7f00000000000000000000000000000000000000000000000000000000000000006001600160a01b0316908290823b156107f757602461ffff918360405195869485936310ddb13760e01b85521660048401525af180156107f2576107e6575080f35b346103e05760003660031901126103e0576020600a54604051908152f35b346103e05760603660031901126103e057610836600435610948816107fb565b602435610954816107fb565b60443591610963833383612f27565b612bd1565b346103e05760003660031901126103e057602060405160128152f35b801515036103e057565b346103e05760a03660031901126103e0576004356109ab816103d4565b606435906109b882610984565b608435906001600160401b0382116103e0576109dd61051560409336906004016103e5565b90610a146109f76109ef604435613df5565b602435613ec6565b928451958694859463040a7bb160e41b865230906004870161386b565b03817f00000000000000000000000000000000000000000000000000000000000000006001600160a01b03165afa9081156107f2576000908192610a65575b50604080519182526020820192909252f35b9050610a88915060403d8111610a8f575b610a808183610f51565b8101906129bd565b9038610a53565b503d610a76565b346103e05760403660031901126103e057600435610ab3816107fb565b3360009081526009602090815260408083206001600160a01b03851684529091529020546024358101809111610aed576108369133612dfc565b61294c565b9060406003198301126103e057600435610b0b816103d4565b91602435906001600160401b0382116103e057610484916004016103e5565b346103e057602061ffff610b77610b4036610af2565b9390911660005260018452610b62610b69604060002060405192838092611494565b0382610f51565b848151910120923691610f8d565b82815191012014604051908152f35b346103e05760203660031901126103e05761ffff600435610ba6816103d4565b1660005260036020526020604060002054604051908152f35b346103e057610bcd36610af2565b9190610bd7612a9d565b7f00000000000000000000000000000000000000000000000000000000000000006001600160a01b031691823b156103e057604051928380926342d65a8d60e01b825281610c2e600098899788946004850161341d565b03925af180156107f2576107e6575080f35b346103e05760203660031901126103e057610c59612a9d565b600435601255005b346103e05760003660031901126103e057602060405160008152f35b346103e05760c03660031901126103e05760048035610c9b816107fb565b60243590610ca8826107fb565b604435916064359060843590610cbd826107fb565b60a43593610cca856107fb565b30331490811591610eb5575b50610ea45760018060a01b031660409485519663095ea7b360e01b9081895260209589878180610d1e898783016020600091939293604081019460018060a01b031681520152565b0360009d8e305af180156107f257610e87575b5088519283526001600160a01b0385168284019081526020810182905287908490819060400103818d305af19081156107f257610d9c938892610e5a575b50895180948192638eb22cdd60e01b83528786840160409060009294936060820195825260208201520152565b0381875afa9586156107f25788968a93610e01928592610e2d575b50508751634d4d7cbd60e11b81529283019485526001600160a01b03968716602086015297909516604084015260006060840152608083019690965285938492839160a090910190565b03925af180156107f257610e13578280f35b81610e2992903d10610a8f57610a808183610f51565b8280f35b610e4c9250803d10610e53575b610e448183610f51565b8101906129ae565b3880610db7565b503d610e3a565b610e7990833d8511610e80575b610e718183610f51565b81019061298d565b5038610d6f565b503d610e67565b610e9d90883d8a11610e8057610e718183610f51565b5038610d31565b60405163ea8e4eb560e01b81528690fd5b600560005260136020529050610ef37ff4b2859895858d6aa26d656e4999d552f6a869b74c43bba7d2a941c4d22c35595b546001600160a01b031690565b6001600160a01b039081169116141538610cd6565b634e487b7160e01b600052604160045260246000fd5b6001600160401b038111610f3157604052565b610f08565b604081019081106001600160401b03821117610f3157604052565b90601f801991011681019081106001600160401b03821117610f3157604052565b6001600160401b038111610f3157601f01601f191660200190565b929192610f9982610f72565b91610fa76040519384610f51565b8294818452818301116103e0578281602093846000960137010152565b9080601f830112156103e05781602061067493359101610f8d565b60a06003198201126103e057600435610ff7816107fb565b91602435611004816103d4565b916001600160401b03916044358381116103e0578261102591600401610fc4565b9260643561103281610412565b926084359182116103e05761067491600401610fc4565b346103e05761105736610fdf565b935050503033036111675760008051602061440883398151915261116261ffff61112793611091866020806110c9995183010191016129d3565b949a9550925099906001600160401b037f00000000000000000000000000000000000000000000000000000000000000009116613e7c565b600d546001600160a01b038a81169b90928c92611115926110fa926110f49287169130918791612a21565b50613e8f565b509a6111068c30612cd9565b61110f8c613df5565b90613ec6565b9161111e6128f9565b9316918661321c565b169260405185856000805160206143e883398151915230938061114f87829190602083019252565b0390a46040519081529081906020820190565b0390a3005b60405163ea8e4eb560e01b8152600490fd5b9060606003198301126103e057600435611192816103d4565b91602435906001600160401b0382116103e0576111b191600401610fc4565b9060443561067481610412565b6020906111d892826040519483868095519384920161061b565b82019081520301902090565b346103e057602061124261ffff611221836111fe36611179565b94909116600052600582526040600020826040519483868095519384920161061b565b820190815203019020906001600160401b0316600052602052604060002090565b54604051908152f35b346103e05761125936610423565b919294939030330361127d5761051c61127792610019973691610f8d565b926138af565b60405162461bcd60e51b815260206004820152602660248201527f4e6f6e626c6f636b696e674c7a4170703a2063616c6c6572206d7573742062656044820152650204c7a4170760d41b6064820152608490fd5b908160609103126103e05790565b60a03660031901126103e0576004356112f7816107fb565b602435611303816103d4565b604435916084356001600160401b0381116103e057602061ffff61133a6000805160206143e88339815191529336906004016112d1565b936113ad8535611349816107fb565b611367610515868901359861135d8a6107fb565b6040810190613676565b611371818a613cf2565b61138661137f606435613e8f565b508561409e565b97611392891515613a7a565b6113a461139e8a613df5565b8c613ec6565b9234938b61321c565b6040519485526001600160a01b0316941692a4005b346103e05760203660031901126103e0576004356113df816107fb565b60018060a01b031660005260086020526020604060002054604051908152f35b346103e05760008060031936011261075957611419612a9d565b80546001600160a01b03198116825581906001600160a01b03167f8be0079c531659141344cd1fd0a4f28419497f9722a3daafe3b4186f6b6457e08280a380f35b90600182811c9216801561148a575b602083101461147457565b634e487b7160e01b600052602260045260246000fd5b91607f1691611469565b90600092918054916114a58361145a565b91828252600193848116908160001461150757506001146114c7575b50505050565b90919394506000526020928360002092846000945b8386106114f35750505050010190388080806114c1565b8054858701830152940193859082016114dc565b9294505050602093945060ff191683830152151560051b010190388080806114c1565b9061154561153e9260405193848092611494565b0383610f51565b565b346103e05760203660031901126103e05761ffff600435611567816103d4565b1660005260016020526106d0610b6261158a604060002060405192838092611494565b60405191829160208352602083019061063e565b60e03660031901126103e0576004356115b6816107fb565b6024356115c2816103d4565b604435916001600160401b03906084358281116103e0576115e79036906004016103e5565b91909260a435916115f783610412565b60c4358281116103e05761160f9036906004016112d1565b9261164684359561161f876107fb565b61163e61163460208801359761135d896107fb565b9990923691610f8d565b973691610f8d565b9460ff6006541660001461173b5760228651106116f657856020956113a46113ad946116c48c6116b161ffff9a8b60226000805160206143e88339815191529f0151931660005260028d5284166116ab60406000206001600052602052604060002090565b54612b11565b906116bd821515613d47565b1015613d93565b6116d96116d2606435613e8f565b508861409e565b9a6116e58c1515613a7a565b8d6116ef8d613df5565b9033613f58565b60405162461bcd60e51b815260206004820152601c60248201527f4c7a4170703a20696e76616c69642061646170746572506172616d73000000006044820152606490fd5b948094935051611768576000805160206143e88339815191529460209461ffff946113a46113ad946116c4565b60405162461bcd60e51b815260206004820152602660248201527f4f4654436f72653a205f61646170746572506172616d73206d7573742062652060448201526532b6b83a3c9760d11b6064820152608490fd5b346103e05760003660031901126103e057600f546040516001600160a01b039091168152602090f35b346103e05760003660031901126103e057602060405160ff7f0000000000000000000000000000000000000000000000000000000000000000168152f35b346103e05760403660031901126103e0576020611242600435611845816103d4565b61ffff60243591611855836103d4565b166000526002835260406000209061ffff16600052602052604060002090565b346103e05760003660031901126103e0576000546040516001600160a01b039091168152602090f35b346103e05760003660031901126103e0576004546040516001600160a01b039091168152602090f35b346103e057600080600319360112610759576040519080600c546118ea8161145a565b8085529160019180831690811561072f5750600114611913576106d0856106c481870382610f51565b9250600c83527fdf6966c971051c3d54ec59162606531493a51404a002842f56009d7e5cf4a8c75b8284106119565750505081016020016106c4826106d06106b4565b8054602085870181019190915290930192810161193b565b346103e05761197c36610fdf565b90939192303314801590611b91575b61116757600080516020614408833981519152926119f1836119b9602061ffff9651830101602083016128b3565b509b9350909491506001600160401b037f00000000000000000000000000000000000000000000000000000000000000009116613e7c565b3060009081526008602052604081209199918a919081905497858a611a5a611a56611a4f84611a37611a318661ffff166000526007602052604060002090565b8c6111be565b906001600160401b0316600052602052604060002090565b5460ff1690565b1590565b611b4b575b5050306000908152600860205260409020549760018060a01b03169d8e611ae4611a90600d5460018060a01b031690565b6040516312236f9360e21b602082019081526001600160a01b03878116602484015292831660448301526064820195909552608481018990523060a4820152921660c480840191909152825260e482610f51565b51915af494611af161291c565b9515611b15575b505050505050506111626040519283921694829190602083019252565b611b2f96611b2291612980565b1015611b3b575b85613520565b38808080808881611af8565b611b46898b30612fbf565b611b29565b611b8a91611a37611b77611b7d93611b638a306140c4565b61ffff166000526007602052604060002090565b896111be565b805460ff19166001179055565b858a611a5f565b5060056000526013602052611bc57ff4b2859895858d6aa26d656e4999d552f6a869b74c43bba7d2a941c4d22c3559610ee6565b6001600160a01b038481169116141561198b565b346103e057602060ff611c1861ffff61122184611bf536611179565b94909116600052600782526040600020826040519483868095519384920161061b565b54166040519015158152f35b346103e05760203660031901126103e05761ffff600435611c44816103d4565b166000526001602052610b62611c64604060002060405192838092611494565b805115611c82576106c481611c7c6106d09351612962565b906141db565b60405162461bcd60e51b815260206004820152601d60248201527f4c7a4170703a206e6f20747275737465642070617468207265636f72640000006044820152606490fd5b346103e05760403660031901126103e057600435611ce4816107fb565b60243590336000526009602052611d118160406000209060018060a01b0316600052602052604060002090565b5491808310611d3257611d2692039033612dfc565b60405160018152602090f35b60405162461bcd60e51b815260206004820152602560248201527f45524332303a2064656372656173656420616c6c6f77616e63652062656c6f77604482015264207a65726f60d81b6064820152608490fd5b346103e05760e03660031901126103e057600435611da2816103d4565b6001600160401b03906064358281116103e057611dc39036906004016103e5565b608492919235611dd281610412565b60a43591611ddf83610984565b60c4359586116103e057611dfa611e0a9636906004016103e5565b95909460443590602435906136a8565b60408051928352602083019190915290f35b346103e05760003660031901126103e0576020601254604051908152f35b346103e057611e4836610af2565b90611e51612a9d565b60405192602092808385870137611e7d6034868381013060601b88820152036014810188520186610f51565b60009361ffff8316855260019081815260408620918751916001600160401b038311610f3157611eb783611eb1865461145a565b86613438565b80601f8411600114611f27575091808092611f169695948a9b7f8c0400cfe2d1199b1a725c78960bcc2a344d869b80590d0f2bd005db15a572ce9b94611f1c575b50501b916000199060031b1c19161790555b6040519384938461341d565b0390a180f35b015192503880611ef8565b91939498601f198416611f3f87600052602060002090565b938a905b828210611fa6575050917f8c0400cfe2d1199b1a725c78960bcc2a344d869b80590d0f2bd005db15a572ce999a95939185611f1698969410611f8d575b505050811b019055611f0a565b015160001960f88460031b161c19169055388080611f80565b808886978294978701518155019601940190611f43565b346103e05760403660031901126103e057610836600435611fdd816107fb565b6024359033612bd1565b346103e05760003660031901126103e0576040517f00000000000000000000000000000000000000000000000000000000000000006001600160a01b03168152602090f35b346103e05760203660031901126103e0577f5db758e995a17ec1ad84bdef7e8c3293a0bd6179bcce400dff5d4c3d87db726b602060043561206c816107fb565b612074612a9d565b600480546001600160a01b0319166001600160a01b03929092169182179055604051908152a1005b346103e05760003660031901126103e05760206040516127108152f35b346103e05760803660031901126103e0576004356120d6816103d4565b6024356120e2816103d4565b6064356001600160401b0381116103e0576121019036906004016103e5565b909261210b612a9d565b7f00000000000000000000000000000000000000000000000000000000000000006001600160a01b031690813b156103e05760008094612182604051978896879586946332fb62e760e21b865261ffff809216600487015216602485015260443560448501526080606485015260848401916133fc565b03925af180156107f25761219257005b8061219f61001992610f1e565b8061059c565b6121ae36610423565b9161ffff869492961660005260056020526121f581604060002060206040518092878b833787820190815203019020906001600160401b0316600052602052604060002090565b5491821561229f5761228e84836122877fc264d91f3adc5588250e1551f547752ca0cfa8f6b530d243b9f9f4cab10ea8e59a600061227384611a378e8a8f61229a9f908f6122599061224c61226d9436908d610f8d565b60208151910120146135e9565b61ffff166000526005602052604060002090565b916135d0565b5561227f36878d610f8d565b933691610f8d565b91886138af565b6040519586958661363f565b0390a1005b60405162461bcd60e51b815260206004820152602360248201527f4e6f6e626c6f636b696e674c7a4170703a206e6f2073746f726564206d65737360448201526261676560e81b6064820152608490fd5b346103e05760003660031901126103e057600e546040516001600160a01b039091168152602090f35b346103e05760403660031901126103e057602061124260043561233b816107fb565b60243590612348826107fb565b60018060a01b03166000526009835260406000209060018060a01b0316600052602052604060002090565b346103e05760003660031901126103e057600d546040516001600160a01b039091168152602090f35b346103e05760603660031901126103e0576004356123b9816103d4565b6024356123c5816103d4565b604435916123d1612a9d565b821561244c5761229a7f9d5c7c0b934da8fefa9c7760c98383778a12dfbfc0c3b3106518f43fb9508ac09361ffff83166000526002602052806124268560406000209061ffff16600052602052604060002090565b556040519384938460409194939294606082019561ffff80921683521660208201520152565b60405162461bcd60e51b81526020600482015260156024820152744c7a4170703a20696e76616c6964206d696e47617360581b6044820152606490fd5b346103e05760003660031901126103e057602060405160018152f35b346103e05760203660031901126103e0577f1584ad594a70cbe1e6515592e1272a987d922b097ead875069cebe8b40c004a460206004356124e581610984565b6124ed612a9d565b151560ff196006541660ff821617600655604051908152a1005b346103e0576101003660031901126103e057600435612525816103d4565b6001600160401b03906024358281116103e0576125469036906004016103e5565b91906044359061255582610412565b608435612561816107fb565b60c4359586116103e05761257c6100199636906004016103e5565b94909360e4359660a435946064359361379e565b346103e05761259e36610af2565b91906125a8612a9d565b60009161ffff81168352600160209080825260408520916001600160401b038711610f31576125e1876125db855461145a565b85613438565b8590601f88116001146126485750918680879893611f16957ffa41487ad5d6728f0b19276fa1eddc16558578f5109fc39d2dc33c3230470dab999361263d575b501b906000198460031b1c19161790556040519384938461341d565b880135925038612621565b90601f19881661265d85600052602060002090565b9288905b8282106126c3575050918893917ffa41487ad5d6728f0b19276fa1eddc16558578f5109fc39d2dc33c3230470dab9899611f169694106126a9575b505082811b019055611f0a565b870135600019600386901b60f8161c19169055388061269c565b808685968294968c01358155019501930190612661565b346103e05760003660031901126103e057602060ff600654166040519015158152f35b346103e05760203660031901126103e05760043561271a816107fb565b612722612a9d565b6001600160a01b03908116801561277057600080546001600160a01b03198116831782559092167f8be0079c531659141344cd1fd0a4f28419497f9722a3daafe3b4186f6b6457e08380a380f35b60405162461bcd60e51b815260206004820152602660248201527f4f776e61626c653a206e6577206f776e657220697320746865207a65726f206160448201526564647265737360d01b6064820152608490fd5b346103e05760803660031901126103e0576004356127e1816103d4565b602435906127ee826103d4565b6127f96044356107fb565b604051633d7b2f6f60e21b815261ffff91821660048201529116602482015230604482015260648035908201526000816084817f00000000000000000000000000000000000000000000000000000000000000006001600160a01b03165afa80156107f2576106d091600091612877575b5060405191829182610663565b612892913d8091833e61288a8183610f51565b81019061339e565b3861286a565b346103e05760003660031901126103e0576020604051308152f35b91908260c09103126103e05781516128ca816103d4565b9160208101519160408201519160608101516128e581610412565b9160a06080830151920151610674816107fb565b60405190602082018281106001600160401b03821117610f315760405260008252565b3d15612947573d9061292d82610f72565b9161293b6040519384610f51565b82523d6000602084013e565b606090565b634e487b7160e01b600052601160045260246000fd5b601319810191908211610aed57565b605019810191908211610aed57565b91908203918211610aed57565b908160209103126103e0575161067481610984565b6040513d6000823e3d90fd5b908160209103126103e0575190565b91908260409103126103e0576020825192015190565b908160e09103126103e05780516129e9816103d4565b916020820151916040810151916060820151612a0481610412565b9160808101519160c060a0830151612a1b816107fb565b92015190565b9392909330330361116757600060a492604095865197889687956311a5cc7760e31b8752600487015260018060a01b03938480921660248801521660448601526064850152826084850152165af180156107f2576000918291612a8357509091565b9050610484915060403d8111610a8f57610a808183610f51565b6000546001600160a01b03163303612ab157565b606460405162461bcd60e51b815260206004820152602060248201527f4f776e61626c653a2063616c6c6572206973206e6f7420746865206f776e65726044820152fd5b90601f8201809211610aed57565b6051019081605111610aed57565b91908201809211610aed57565b15612b2557565b60405162461bcd60e51b815260206004820152602360248201527f45524332303a207472616e7366657220746f20746865207a65726f206164647260448201526265737360e81b6064820152608490fd5b15612b7d57565b60405162461bcd60e51b815260206004820152602660248201527f45524332303a207472616e7366657220616d6f756e7420657863656564732062604482015265616c616e636560d01b6064820152608490fd5b916001600160a01b038084169290918315612c8657612c6b8260008051602061442883398151915294612c81941696612c0b881515612b1e565b6001600160a01b0381166000908152600860205260409020612c5090859054612c3682821015612b76565b039160018060a01b03166000526008602052604060002090565b556001600160a01b0316600090815260086020526040902090565b8054820190556040519081529081906020820190565b0390a3565b60405162461bcd60e51b815260206004820152602560248201527f45524332303a207472616e736665722066726f6d20746865207a65726f206164604482015264647265737360d81b6064820152608490fd5b6001600160a01b038116908115612dad576001600160a01b038116600090815260086020526040902054838110612d5d578360008051602061442883398151915292612d3f600096612c8194039160018060a01b03166000526008602052604060002090565b55612d4d81600a5403600a55565b6040519081529081906020820190565b60405162461bcd60e51b815260206004820152602260248201527f45524332303a206275726e20616d6f756e7420657863656564732062616c616e604482015261636560f01b6064820152608490fd5b60405162461bcd60e51b815260206004820152602160248201527f45524332303a206275726e2066726f6d20746865207a65726f206164647265736044820152607360f81b6064820152608490fd5b6001600160a01b038082169291908315612ed6578216938415612e865780612e757f8c5be1e5ebec7d5bd14f71427d1e84f3dd0314c0f7b2291e5b200ac8c7c3b92594612e5e612c819560018060a01b03166000526009602052604060002090565b9060018060a01b0316600052602052604060002090565b556040519081529081906020820190565b60405162461bcd60e51b815260206004820152602260248201527f45524332303a20617070726f766520746f20746865207a65726f206164647265604482015261737360f01b6064820152608490fd5b60405162461bcd60e51b8152602060048201526024808201527f45524332303a20617070726f76652066726f6d20746865207a65726f206164646044820152637265737360e01b6064820152608490fd5b6001600160a01b038082166000908152600960209081526040808320938616835292905220909190549260018401612f5f5750505050565b808410612f7a57612f71930391612dfc565b388080806114c1565b60405162461bcd60e51b815260206004820152601d60248201527f45524332303a20696e73756666696369656e7420616c6c6f77616e63650000006044820152606490fd5b60405163a9059cbb60e01b60208083019182526001600160a01b03949094166024830152604480830195909552938152919261305892916000908190613006606486610f51565b60018060a01b0316926040519461301c86610f36565b8786527f5361666545524332303a206c6f772d6c6576656c2063616c6c206661696c656488870152519082855af161305261291c565b916130d4565b8051908161306557505050565b828061307593830101910161298d565b1561307d5750565b6084906040519062461bcd60e51b82526004820152602a60248201527f5361666545524332303a204552433230206f7065726174696f6e20646964206e6044820152691bdd081cdd58d8d9595960b21b6064820152fd5b9192901561313657508151156130e8575090565b3b156130f15790565b60405162461bcd60e51b815260206004820152601d60248201527f416464726573733a2063616c6c20746f206e6f6e2d636f6e74726163740000006044820152606490fd5b8251909150156131495750805190602001fd5b60405162461bcd60e51b81529081906131659060048301610663565b0390fd5b1561317057565b60405162461bcd60e51b815260206004820152602660248201527f4c7a4170703a20696e76616c696420736f757263652073656e64696e6720636f6044820152651b9d1c9858dd60d21b6064820152608490fd5b926131e961067497959361ffff6131f79416865260c0602087015260c086019061063e565b90848203604086015261063e565b6001600160a01b0391821660608401529316608082015280830360a09091015261063e565b946132459193929561ffff8116600052600160205261324c604060002060405194858092611494565b0384610f51565b8251156132d15761325e85518261332f565b7f00000000000000000000000000000000000000000000000000000000000000006001600160a01b031693843b156103e0576000966132b391604051998a988997889662c5803160e81b8852600488016131c4565b03925af180156107f2576132c45750565b8061219f61154592610f1e565b60405162461bcd60e51b815260206004820152603060248201527f4c7a4170703a2064657374696e6174696f6e20636861696e206973206e6f742060448201526f61207472757374656420736f7572636560801b6064820152608490fd5b61ffff166000526003602052604060002054908115613394575b1161335057565b606460405162461bcd60e51b815260206004820152602060248201527f4c7a4170703a207061796c6f61642073697a6520697320746f6f206c617267656044820152fd5b6127109150613349565b6020818303126103e0578051906001600160401b0382116103e0570181601f820112156103e05780516133d081610f72565b926133de6040519485610f51565b818452602082840101116103e057610674916020808501910161061b565b908060209392818452848401376000828201840152601f01601f1916010190565b60409061ffff610674959316815281602082015201916133fc565b90601f811161344657505050565b600091825260208220906020601f850160051c83019410613482575b601f0160051c01915b82811061347757505050565b81815560010161346b565b9092508290613462565b9290916134fe5a604051633356ae4560e11b602082015261ffff8716602482015260806044820152906134f8826134ea6134c960a483018a61063e565b6001600160401b03881660648401528281036023190160848401528861063e565b03601f198101845283610f51565b3061438a565b93901561350d575b5050505050565b61351694613520565b3880808080613506565b91936135bd7fe183f33de2837795525b4792ca4cd60535bd77c53b7e7030060bfcf5734d6b0c956135cb939561ffff815160208301209616958660005260056020526135848361122160208b6040600020826040519483868095519384920161061b565b556001600160401b036135a9604051988998895260a060208a015260a089019061063e565b92166040870152858203606087015261063e565b90838203608085015261063e565b0390a1565b6020919283604051948593843782019081520301902090565b156135f057565b60405162461bcd60e51b815260206004820152602160248201527f4e6f6e626c6f636b696e674c7a4170703a20696e76616c6964207061796c6f616044820152601960fa1b6064820152608490fd5b9161366b9060609461ffff6001600160401b0394999897991685526080602086015260808501916133fc565b951660408201520152565b903590601e19813603018212156103e057018035906001600160401b0382116103e0576020019181360383136103e057565b9491959897906116ef6136d16040996136c96136d7976136f4993691610f8d565b943691610f8d565b97613df5565b928451968794859463040a7bb160e41b865230906004870161386b565b03817f00000000000000000000000000000000000000000000000000000000000000006001600160a01b03165afa9182156107f257600090819361373757509190565b905061048491925060403d8111610a8f57610a808183610f51565b939694916137809061067499979461ffff6001600160401b039416875260c0602088015260c08701916133fc565b961660408401526060830152608082015260a08185039101526133fc565b91969792989594939094303303613826576137ba908530614127565b60405181815290946001600160a01b03169390849061ffff85169060008051602061440883398151915290602090a3833b156103e0576000988995613816936040519c8d9b8c9a8b98633fe79aed60e11b8a5260048a01613752565b0393f180156107f2576132c45750565b60405162461bcd60e51b815260206004820152601f60248201527f4f4654436f72653a2063616c6c6572206d757374206265204f4654436f7265006044820152606490fd5b9192610674959361ffff61389a9316845260018060a01b0316602084015260a0604084015260a083019061063e565b9215156060820152608081840391015261063e565b92919060ff6138bd8461432f565b1680613a255750505060ff6138d18261432f565b161580613a1a575b6138e290613f0c565b6138f46138ee826142df565b9161437a565b90916001600160a01b039182841615613a10575b61393c906001600160401b037f00000000000000000000000000000000000000000000000000000000000000009116613e7c565b9183169283156139cb576000805160206144088339815191529161398b61ffff9261397161396c87600a54612b11565b600a55565b6001600160a01b0316600090815260086020526040902090565b848154019055846000600080516020614428833981519152604051806139b689829190602083019252565b0390a360405193845216918060208101612c81565b60405162461bcd60e51b815260206004820152601f60248201527f45524332303a206d696e7420746f20746865207a65726f2061646472657373006044820152606490fd5b61dead9350613908565b5080516029146138d9565b600103613a355761154593613b54565b60405162461bcd60e51b815260206004820152601c60248201527f4f4654436f72653a20756e6b6e6f776e207061636b65742074797065000000006044820152606490fd5b15613a8157565b60405162461bcd60e51b815260206004820152601960248201527f4f4654436f72653a20616d6f756e7420746f6f20736d616c6c000000000000006044820152606490fd5b98979692936001600160401b03613af860e0989461ffff613b249995168d5260208d61010091829101528d019061063e565b951660408b015260608a01526001600160a01b0316608089015260a088015286820360c088015261063e565b930152565b6001600160401b03613b496040939695949660608452606084019061063e565b951660208201520152565b9091613b5f84613fc5565b9091613b83611a4f87611a37611a318b61ffff166000526007602052604060002090565b91613bb96001600160401b0392837f00000000000000000000000000000000000000000000000000000000000000009116613e7c565b9288888b8315613cb5575b505050853b15613c6a5794613c0b96946134f8948a946134ea948d99600014613c635750505a925b5a978b6040519a8b9863757fea4d60e11b60208b015260248a01613ac6565b9015613c58575090613c5361ffff928560207fb8890edbfc1c74692f527444645f95489c3703cc2df42e4a366f5d06fa6cd88496975191012090604051948594169684613b29565b0390a2565b926115459492613520565b1692613bec565b50506040516001600160a01b039094168452507f9aedf5fdba8716db3b6705ca00150643309995d4f818a249ed6dde6677e7792d9750919550859450506020840192506135cb915050565b90611a37611b7d92613ce489613ccf613cea979b306140c4565b9961ffff166000526007602052604060002090565b906111be565b88888b613bc4565b60065460ff1615613d3f5760228251106116f65761ffff602261154593015191166000526002602052613d32604060002060008052602052604060002090565b54906116bd821515613d47565b505161176857565b15613d4e57565b60405162461bcd60e51b815260206004820152601a60248201527f4c7a4170703a206d696e4761734c696d6974206e6f74207365740000000000006044820152606490fd5b15613d9a57565b60405162461bcd60e51b815260206004820152601b60248201527f4c7a4170703a20676173206c696d697420697320746f6f206c6f7700000000006044820152606490fd5b634e487b7160e01b600052601260045260246000fd5b7f0000000000000000000000000000000000000000000000000000000000000000908115613e7757046001600160401b0390818111613e32571690565b60405162461bcd60e51b815260206004820152601a60248201527f4f4654436f72653a20616d6f756e745344206f766572666c6f770000000000006044820152606490fd5b613ddf565b81810292918115918404141715610aed57565b7f00000000000000000000000000000000000000000000000000000000000000008015613e7757810690818103908111610aed5791565b90604051916000602084015260218301526001600160401b0360c01b9060c01b16604182015260298152606081018181106001600160401b03821117610f315760405290565b15613f1357565b60405162461bcd60e51b815260206004820152601860248201527f4f4654436f72653a20696e76616c6964207061796c6f616400000000000000006044820152606490fd5b939260719261067494604051968794600160f81b602087015260218601526001600160401b0360c01b809360c01b16604186015260018060a01b0316604985015260c01b166069830152613fb5815180926020868601910161061b565b8101036051810184520182610f51565b90613fdd600160ff613fd68561432f565b1614613f0c565b613fe6826142df565b90613ff08361437a565b9060498451106140615760498401519360518151106140255761402260518201519161401c8151612971565b9061425b565b91565b60405162461bcd60e51b8152602060048201526014602482015273746f55696e7436345f6f75744f66426f756e647360601b6044820152606490fd5b60405162461bcd60e51b8152602060048201526015602482015274746f427974657333325f6f75744f66426f756e647360581b6044820152606490fd5b6106749082906001600160a01b0381163314612cd9576140bf823383612f27565b612cd9565b6001600160a01b038116919082156139cb57600a5490828201809211610aed5760009261411860209260008051602061442883398151915294600a5560018060a01b03166000526008602052604060002090565b818154019055604051908152a3565b6106749183916001600160a01b038116308114159081614153575b5015612bd157610963833383612f27565b905033141538614142565b1561416557565b60405162461bcd60e51b815260206004820152600e60248201526d736c6963655f6f766572666c6f7760901b6044820152606490fd5b156141a257565b60405162461bcd60e51b8152602060048201526011602482015270736c6963655f6f75744f66426f756e647360781b6044820152606490fd5b6141ef826141e881612af5565b101561415e565b6141fc828251101561419b565b81614214575050604051600081526020810160405290565b60405191601f811691821560051b808486010193838501920101905b8084106142485750508252601f01601f191660405290565b9092835181526020809101930190614230565b614268826141e881612af5565b61427d815161427684612b03565b111561419b565b81614295575050604051600081526020810160405290565b60405191601f8116916051831560051b80858701019484860193010101905b8084106142cc5750508252601f01601f191660405290565b90928351815260208091019301906142b4565b60218151106142f257602d015160601c90565b60405162461bcd60e51b8152602060048201526015602482015274746f416464726573735f6f75744f66426f756e647360581b6044820152606490fd5b600181511061433f576001015190565b60405162461bcd60e51b8152602060048201526013602482015272746f55696e74385f6f75744f66426f756e647360681b6044820152606490fd5b6029815110614025576029015190565b6040519392909160009160c08601916001600160401b03831187841017610f315783926040526096875282602088019560a036883760208451940192f1903d90609682116143de575b6000908286523e9190565b609691506143d356fed81fc9b8523134ed613870ed029d6170cbb73aa6a6bc311b9a642689fb9df59abf551ec93859b170f9b2141bd9298bf3f64322c6f7beb2543a0cb669834118bfddf252ad1be2c89b69c2b068fc378daa952ba7f163c4a11628f55a4df523b3efa2646970667358221220fd30a262ba268b4033ddea9c52fe3920f2c62c5d11d401dc65f05447edccdff064736f6c63430008130033","linkReferences":{}},"methodIdentifiers":{"DEFAULT_PAYLOAD_SIZE_LIMIT()":"c4461834","NO_EXTRA_GAS()":"44770515","PT_SEND()":"4c42899a","PT_SEND_AND_CALL()":"e6a20ae6","SWAP_MAX_SLIPPAGE()":"a643c52e","allowance(address,address)":"dd62ed3e","approve(address,uint256)":"095ea7b3","balanceOf(address)":"70a08231","callOnOFTReceived(uint16,bytes,uint64,bytes32,address,uint256,bytes,uint256)":"eaffd49a","circulatingSupply()":"9358928b","cluster()":"dbd01de1","creditedPackets(uint16,bytes,uint64)":"9bdb9812","decimals()":"313ce567","decreaseAllowance(address,uint256)":"a457c2d7","depositToYieldbox(address,address,uint256,uint256,address,address)":"488dbe4c","erc20()":"785e9e86","estimateSendAndCallFee(uint16,bytes32,uint256,bytes,uint64,bool,bytes)":"a4c51df5","estimateSendFee(uint16,bytes32,uint256,bool,bytes)":"365260b4","failedMessages(uint16,bytes,uint64)":"5b8c41e6","forceResumeReceive(uint16,bytes)":"42d65a8d","getConfig(uint16,uint16,address,uint256)":"f5ecbdbc","getTrustedRemoteAddress(uint16)":"9f38369a","hostChainID()":"0054af3a","increaseAllowance(address,uint256)":"39509351","isTrustedRemote(uint16,bytes)":"3d8b38f6","lzEndpoint()":"b353aaa7","lzReceive(uint16,bytes,uint64,bytes)":"001d3567","minDstGasLookup(uint16,uint16)":"8cfd8f5c","name()":"06fdde03","nonblockingLzReceive(uint16,bytes,uint64,bytes)":"66ad5c8a","owner()":"8da5cb5b","payloadSizeLimitLookup(uint16)":"3f1f4fa4","precrime()":"950c8a74","renounceOwnership()":"715018a6","retryMessage(uint16,bytes,uint64,bytes)":"d1deba1f","sendAndCall(address,uint16,bytes32,uint256,bytes,uint64,(address,address,bytes))":"76203b48","sendFrom(address,uint16,bytes32,uint256,(address,address,bytes))":"695ef6bf","setConfig(uint16,uint16,uint256,bytes)":"cbed8b9c","setMaxSlippage(uint256)":"43f68a49","setMinDstGas(uint16,uint16,uint256)":"df2a5b3b","setPayloadSizeLimit(uint16,uint256)":"0df37483","setPrecrime(address)":"baf3292d","setReceiveVersion(uint16)":"10ddb137","setSendVersion(uint16)":"07e0db17","setTrustedRemote(uint16,bytes)":"eb8d72b7","setTrustedRemoteAddress(uint16,bytes)":"a6c3d165","setUseCustomAdapterParams(bool)":"eab45d9c","sharedDecimals()":"857749b0","strategyDeposit(address,uint16,bytes,uint64,bytes)":"969bfdc3","strategyWithdraw(address,uint16,bytes,uint64,bytes)":"4db96f55","supportsInterface(bytes4)":"01ffc9a7","symbol()":"95d89b41","token()":"fc0c546a","totalSupply()":"18160ddd","transfer(address,uint256)":"a9059cbb","transferFrom(address,address,uint256)":"23b872dd","transferOwnership(address)":"f2fde38b","trustedRemoteLookup(uint16)":"7533d788","useCustomAdapterParams()":"ed629c5c","yieldBox()":"de406577"},"id":14}