{"abi":[{"type":"constructor","inputs":[{"name":"_lzEndpoint","type":"address","internalType":"address"},{"name":"_erc20","type":"address","internalType":"address"},{"name":"_yieldBox","type":"address","internalType":"contract IYieldBoxBase"},{"name":"_cluster","type":"address","internalType":"contract ICluster"},{"name":"_name","type":"string","internalType":"string"},{"name":"_symbol","type":"string","internalType":"string"},{"name":"_decimal","type":"uint8","internalType":"uint8"},{"name":"_hostChainID","type":"uint256","internalType":"uint256"}],"stateMutability":"nonpayable"},{"type":"receive","stateMutability":"payable"},{"type":"function","name":"DEFAULT_PAYLOAD_SIZE_LIMIT","inputs":[],"outputs":[{"name":"","type":"uint256","internalType":"uint256"}],"stateMutability":"view"},{"type":"function","name":"NO_EXTRA_GAS","inputs":[],"outputs":[{"name":"","type":"uint256","internalType":"uint256"}],"stateMutability":"view"},{"type":"function","name":"PT_SEND","inputs":[],"outputs":[{"name":"","type":"uint8","internalType":"uint8"}],"stateMutability":"view"},{"type":"function","name":"PT_SEND_AND_CALL","inputs":[],"outputs":[{"name":"","type":"uint8","internalType":"uint8"}],"stateMutability":"view"},{"type":"function","name":"SWAP_MAX_SLIPPAGE","inputs":[],"outputs":[{"name":"","type":"uint256","internalType":"uint256"}],"stateMutability":"view"},{"type":"function","name":"allowance","inputs":[{"name":"owner","type":"address","internalType":"address"},{"name":"spender","type":"address","internalType":"address"}],"outputs":[{"name":"","type":"uint256","internalType":"uint256"}],"stateMutability":"view"},{"type":"function","name":"approve","inputs":[{"name":"spender","type":"address","internalType":"address"},{"name":"amount","type":"uint256","internalType":"uint256"}],"outputs":[{"name":"","type":"bool","internalType":"bool"}],"stateMutability":"nonpayable"},{"type":"function","name":"balanceOf","inputs":[{"name":"account","type":"address","internalType":"address"}],"outputs":[{"name":"","type":"uint256","internalType":"uint256"}],"stateMutability":"view"},{"type":"function","name":"callOnOFTReceived","inputs":[{"name":"_srcChainId","type":"uint16","internalType":"uint16"},{"name":"_srcAddress","type":"bytes","internalType":"bytes"},{"name":"_nonce","type":"uint64","internalType":"uint64"},{"name":"_from","type":"bytes32","internalType":"bytes32"},{"name":"_to","type":"address","internalType":"address"},{"name":"_amount","type":"uint256","internalType":"uint256"},{"name":"_payload","type":"bytes","internalType":"bytes"},{"name":"_gasForCall","type":"uint256","internalType":"uint256"}],"outputs":[],"stateMutability":"nonpayable"},{"type":"function","name":"circulatingSupply","inputs":[],"outputs":[{"name":"","type":"uint256","internalType":"uint256"}],"stateMutability":"view"},{"type":"function","name":"cluster","inputs":[],"outputs":[{"name":"","type":"address","internalType":"contract ICluster"}],"stateMutability":"view"},{"type":"function","name":"creditedPackets","inputs":[{"name":"","type":"uint16","internalType":"uint16"},{"name":"","type":"bytes","internalType":"bytes"},{"name":"","type":"uint64","internalType":"uint64"}],"outputs":[{"name":"","type":"bool","internalType":"bool"}],"stateMutability":"view"},{"type":"function","name":"decimals","inputs":[],"outputs":[{"name":"","type":"uint8","internalType":"uint8"}],"stateMutability":"view"},{"type":"function","name":"decreaseAllowance","inputs":[{"name":"spender","type":"address","internalType":"address"},{"name":"subtractedValue","type":"uint256","internalType":"uint256"}],"outputs":[{"name":"","type":"bool","internalType":"bool"}],"stateMutability":"nonpayable"},{"type":"function","name":"erc20","inputs":[],"outputs":[{"name":"","type":"address","internalType":"address"}],"stateMutability":"view"},{"type":"function","name":"estimateSendAndCallFee","inputs":[{"name":"_dstChainId","type":"uint16","internalType":"uint16"},{"name":"_toAddress","type":"bytes32","internalType":"bytes32"},{"name":"_amount","type":"uint256","internalType":"uint256"},{"name":"_payload","type":"bytes","internalType":"bytes"},{"name":"_dstGasForCall","type":"uint64","internalType":"uint64"},{"name":"_useZro","type":"bool","internalType":"bool"},{"name":"_adapterParams","type":"bytes","internalType":"bytes"}],"outputs":[{"name":"nativeFee","type":"uint256","internalType":"uint256"},{"name":"zroFee","type":"uint256","internalType":"uint256"}],"stateMutability":"view"},{"type":"function","name":"estimateSendFee","inputs":[{"name":"_dstChainId","type":"uint16","internalType":"uint16"},{"name":"_toAddress","type":"bytes32","internalType":"bytes32"},{"name":"_amount","type":"uint256","internalType":"uint256"},{"name":"_useZro","type":"bool","internalType":"bool"},{"name":"_adapterParams","type":"bytes","internalType":"bytes"}],"outputs":[{"name":"nativeFee","type":"uint256","internalType":"uint256"},{"name":"zroFee","type":"uint256","internalType":"uint256"}],"stateMutability":"view"},{"type":"function","name":"exercise","inputs":[{"name":"module","type":"address","internalType":"address"},{"name":"_srcChainId","type":"uint16","internalType":"uint16"},{"name":"_srcAddress","type":"bytes","internalType":"bytes"},{"name":"_nonce","type":"uint64","internalType":"uint64"},{"name":"_payload","type":"bytes","internalType":"bytes"}],"outputs":[],"stateMutability":"nonpayable"},{"type":"function","name":"exerciseInternal","inputs":[{"name":"module","type":"address","internalType":"address"},{"name":"from","type":"address","internalType":"address"},{"name":"oTAPTokenID","type":"uint256","internalType":"uint256"},{"name":"paymentToken","type":"address","internalType":"address"},{"name":"tapAmount","type":"uint256","internalType":"uint256"},{"name":"target","type":"address","internalType":"address"},{"name":"tapSendData","type":"tuple","internalType":"struct ITapiocaOptionsBrokerCrossChain.IExerciseLZSendTapData","components":[{"name":"withdrawOnAnotherChain","type":"bool","internalType":"bool"},{"name":"tapOftAddress","type":"address","internalType":"address"},{"name":"lzDstChainId","type":"uint16","internalType":"uint16"},{"name":"amount","type":"uint256","internalType":"uint256"},{"name":"zroPaymentAddress","type":"address","internalType":"address"},{"name":"extraGas","type":"uint256","internalType":"uint256"}]},{"name":"paymentTokenAmount","type":"uint256","internalType":"uint256"},{"name":"approvals","type":"tuple[]","internalType":"struct ICommonData.IApproval[]","components":[{"name":"permitAll","type":"bool","internalType":"bool"},{"name":"allowFailure","type":"bool","internalType":"bool"},{"name":"yieldBoxTypeApproval","type":"bool","internalType":"bool"},{"name":"revokeYieldBox","type":"bool","internalType":"bool"},{"name":"actionType","type":"uint16","internalType":"uint16"},{"name":"target","type":"address","internalType":"address"},{"name":"permitBorrow","type":"bool","internalType":"bool"},{"name":"owner","type":"address","internalType":"address"},{"name":"spender","type":"address","internalType":"address"},{"name":"value","type":"uint256","internalType":"uint256"},{"name":"deadline","type":"uint256","internalType":"uint256"},{"name":"v","type":"uint8","internalType":"uint8"},{"name":"r","type":"bytes32","internalType":"bytes32"},{"name":"s","type":"bytes32","internalType":"bytes32"}]},{"name":"revokes","type":"tuple[]","internalType":"struct ICommonData.IApproval[]","components":[{"name":"permitAll","type":"bool","internalType":"bool"},{"name":"allowFailure","type":"bool","internalType":"bool"},{"name":"yieldBoxTypeApproval","type":"bool","internalType":"bool"},{"name":"revokeYieldBox","type":"bool","internalType":"bool"},{"name":"actionType","type":"uint16","internalType":"uint16"},{"name":"target","type":"address","internalType":"address"},{"name":"permitBorrow","type":"bool","internalType":"bool"},{"name":"owner","type":"address","internalType":"address"},{"name":"spender","type":"address","internalType":"address"},{"name":"value","type":"uint256","internalType":"uint256"},{"name":"deadline","type":"uint256","internalType":"uint256"},{"name":"v","type":"uint8","internalType":"uint8"},{"name":"r","type":"bytes32","internalType":"bytes32"},{"name":"s","type":"bytes32","internalType":"bytes32"}]},{"name":"airdropAmount","type":"uint256","internalType":"uint256"}],"outputs":[],"stateMutability":"nonpayable"},{"type":"function","name":"failedMessages","inputs":[{"name":"","type":"uint16","internalType":"uint16"},{"name":"","type":"bytes","internalType":"bytes"},{"name":"","type":"uint64","internalType":"uint64"}],"outputs":[{"name":"","type":"bytes32","internalType":"bytes32"}],"stateMutability":"view"},{"type":"function","name":"forceResumeReceive","inputs":[{"name":"_srcChainId","type":"uint16","internalType":"uint16"},{"name":"_srcAddress","type":"bytes","internalType":"bytes"}],"outputs":[],"stateMutability":"nonpayable"},{"type":"function","name":"getConfig","inputs":[{"name":"_version","type":"uint16","internalType":"uint16"},{"name":"_chainId","type":"uint16","internalType":"uint16"},{"name":"","type":"address","internalType":"address"},{"name":"_configType","type":"uint256","internalType":"uint256"}],"outputs":[{"name":"","type":"bytes","internalType":"bytes"}],"stateMutability":"view"},{"type":"function","name":"getTrustedRemoteAddress","inputs":[{"name":"_remoteChainId","type":"uint16","internalType":"uint16"}],"outputs":[{"name":"","type":"bytes","internalType":"bytes"}],"stateMutability":"view"},{"type":"function","name":"hostChainID","inputs":[],"outputs":[{"name":"","type":"uint256","internalType":"uint256"}],"stateMutability":"view"},{"type":"function","name":"increaseAllowance","inputs":[{"name":"spender","type":"address","internalType":"address"},{"name":"addedValue","type":"uint256","internalType":"uint256"}],"outputs":[{"name":"","type":"bool","internalType":"bool"}],"stateMutability":"nonpayable"},{"type":"function","name":"isTrustedRemote","inputs":[{"name":"_srcChainId","type":"uint16","internalType":"uint16"},{"name":"_srcAddress","type":"bytes","internalType":"bytes"}],"outputs":[{"name":"","type":"bool","internalType":"bool"}],"stateMutability":"view"},{"type":"function","name":"lzEndpoint","inputs":[],"outputs":[{"name":"","type":"address","internalType":"contract ILayerZeroEndpoint"}],"stateMutability":"view"},{"type":"function","name":"lzReceive","inputs":[{"name":"_srcChainId","type":"uint16","internalType":"uint16"},{"name":"_srcAddress","type":"bytes","internalType":"bytes"},{"name":"_nonce","type":"uint64","internalType":"uint64"},{"name":"_payload","type":"bytes","internalType":"bytes"}],"outputs":[],"stateMutability":"nonpayable"},{"type":"function","name":"minDstGasLookup","inputs":[{"name":"","type":"uint16","internalType":"uint16"},{"name":"","type":"uint16","internalType":"uint16"}],"outputs":[{"name":"","type":"uint256","internalType":"uint256"}],"stateMutability":"view"},{"type":"function","name":"name","inputs":[],"outputs":[{"name":"","type":"string","internalType":"string"}],"stateMutability":"view"},{"type":"function","name":"nonblockingLzReceive","inputs":[{"name":"_srcChainId","type":"uint16","internalType":"uint16"},{"name":"_srcAddress","type":"bytes","internalType":"bytes"},{"name":"_nonce","type":"uint64","internalType":"uint64"},{"name":"_payload","type":"bytes","internalType":"bytes"}],"outputs":[],"stateMutability":"nonpayable"},{"type":"function","name":"owner","inputs":[],"outputs":[{"name":"","type":"address","internalType":"address"}],"stateMutability":"view"},{"type":"function","name":"payloadSizeLimitLookup","inputs":[{"name":"","type":"uint16","internalType":"uint16"}],"outputs":[{"name":"","type":"uint256","internalType":"uint256"}],"stateMutability":"view"},{"type":"function","name":"precrime","inputs":[],"outputs":[{"name":"","type":"address","internalType":"address"}],"stateMutability":"view"},{"type":"function","name":"renounceOwnership","inputs":[],"outputs":[],"stateMutability":"nonpayable"},{"type":"function","name":"retryMessage","inputs":[{"name":"_srcChainId","type":"uint16","internalType":"uint16"},{"name":"_srcAddress","type":"bytes","internalType":"bytes"},{"name":"_nonce","type":"uint64","internalType":"uint64"},{"name":"_payload","type":"bytes","internalType":"bytes"}],"outputs":[],"stateMutability":"payable"},{"type":"function","name":"sendAndCall","inputs":[{"name":"_from","type":"address","internalType":"address"},{"name":"_dstChainId","type":"uint16","internalType":"uint16"},{"name":"_toAddress","type":"bytes32","internalType":"bytes32"},{"name":"_amount","type":"uint256","internalType":"uint256"},{"name":"_payload","type":"bytes","internalType":"bytes"},{"name":"_dstGasForCall","type":"uint64","internalType":"uint64"},{"name":"_callParams","type":"tuple","internalType":"struct ICommonOFT.LzCallParams","components":[{"name":"refundAddress","type":"address","internalType":"address payable"},{"name":"zroPaymentAddress","type":"address","internalType":"address"},{"name":"adapterParams","type":"bytes","internalType":"bytes"}]}],"outputs":[],"stateMutability":"payable"},{"type":"function","name":"sendFrom","inputs":[{"name":"_from","type":"address","internalType":"address"},{"name":"_dstChainId","type":"uint16","internalType":"uint16"},{"name":"_toAddress","type":"bytes32","internalType":"bytes32"},{"name":"_amount","type":"uint256","internalType":"uint256"},{"name":"_callParams","type":"tuple","internalType":"struct ICommonOFT.LzCallParams","components":[{"name":"refundAddress","type":"address","internalType":"address payable"},{"name":"zroPaymentAddress","type":"address","internalType":"address"},{"name":"adapterParams","type":"bytes","internalType":"bytes"}]}],"outputs":[],"stateMutability":"payable"},{"type":"function","name":"setConfig","inputs":[{"name":"_version","type":"uint16","internalType":"uint16"},{"name":"_chainId","type":"uint16","internalType":"uint16"},{"name":"_configType","type":"uint256","internalType":"uint256"},{"name":"_config","type":"bytes","internalType":"bytes"}],"outputs":[],"stateMutability":"nonpayable"},{"type":"function","name":"setMaxSlippage","inputs":[{"name":"_slippage","type":"uint256","internalType":"uint256"}],"outputs":[],"stateMutability":"nonpayable"},{"type":"function","name":"setMinDstGas","inputs":[{"name":"_dstChainId","type":"uint16","internalType":"uint16"},{"name":"_packetType","type":"uint16","internalType":"uint16"},{"name":"_minGas","type":"uint256","internalType":"uint256"}],"outputs":[],"stateMutability":"nonpayable"},{"type":"function","name":"setPayloadSizeLimit","inputs":[{"name":"_dstChainId","type":"uint16","internalType":"uint16"},{"name":"_size","type":"uint256","internalType":"uint256"}],"outputs":[],"stateMutability":"nonpayable"},{"type":"function","name":"setPrecrime","inputs":[{"name":"_precrime","type":"address","internalType":"address"}],"outputs":[],"stateMutability":"nonpayable"},{"type":"function","name":"setReceiveVersion","inputs":[{"name":"_version","type":"uint16","internalType":"uint16"}],"outputs":[],"stateMutability":"nonpayable"},{"type":"function","name":"setSendVersion","inputs":[{"name":"_version","type":"uint16","internalType":"uint16"}],"outputs":[],"stateMutability":"nonpayable"},{"type":"function","name":"setTrustedRemote","inputs":[{"name":"_srcChainId","type":"uint16","internalType":"uint16"},{"name":"_path","type":"bytes","internalType":"bytes"}],"outputs":[],"stateMutability":"nonpayable"},{"type":"function","name":"setTrustedRemoteAddress","inputs":[{"name":"_remoteChainId","type":"uint16","internalType":"uint16"},{"name":"_remoteAddress","type":"bytes","internalType":"bytes"}],"outputs":[],"stateMutability":"nonpayable"},{"type":"function","name":"setUseCustomAdapterParams","inputs":[{"name":"_useCustomAdapterParams","type":"bool","internalType":"bool"}],"outputs":[],"stateMutability":"nonpayable"},{"type":"function","name":"sharedDecimals","inputs":[],"outputs":[{"name":"","type":"uint8","internalType":"uint8"}],"stateMutability":"view"},{"type":"function","name":"supportsInterface","inputs":[{"name":"interfaceId","type":"bytes4","internalType":"bytes4"}],"outputs":[{"name":"","type":"bool","internalType":"bool"}],"stateMutability":"view"},{"type":"function","name":"symbol","inputs":[],"outputs":[{"name":"","type":"string","internalType":"string"}],"stateMutability":"view"},{"type":"function","name":"token","inputs":[],"outputs":[{"name":"","type":"address","internalType":"address"}],"stateMutability":"view"},{"type":"function","name":"totalSupply","inputs":[],"outputs":[{"name":"","type":"uint256","internalType":"uint256"}],"stateMutability":"view"},{"type":"function","name":"transfer","inputs":[{"name":"to","type":"address","internalType":"address"},{"name":"amount","type":"uint256","internalType":"uint256"}],"outputs":[{"name":"","type":"bool","internalType":"bool"}],"stateMutability":"nonpayable"},{"type":"function","name":"transferFrom","inputs":[{"name":"from","type":"address","internalType":"address"},{"name":"to","type":"address","internalType":"address"},{"name":"amount","type":"uint256","internalType":"uint256"}],"outputs":[{"name":"","type":"bool","internalType":"bool"}],"stateMutability":"nonpayable"},{"type":"function","name":"transferOwnership","inputs":[{"name":"newOwner","type":"address","internalType":"address"}],"outputs":[],"stateMutability":"nonpayable"},{"type":"function","name":"trustedRemoteLookup","inputs":[{"name":"","type":"uint16","internalType":"uint16"}],"outputs":[{"name":"","type":"bytes","internalType":"bytes"}],"stateMutability":"view"},{"type":"function","name":"useCustomAdapterParams","inputs":[],"outputs":[{"name":"","type":"bool","internalType":"bool"}],"stateMutability":"view"},{"type":"function","name":"yieldBox","inputs":[],"outputs":[{"name":"","type":"address","internalType":"contract IYieldBoxBase"}],"stateMutability":"view"},{"type":"event","name":"Approval","inputs":[{"name":"owner","type":"address","indexed":true,"internalType":"address"},{"name":"spender","type":"address","indexed":true,"internalType":"address"},{"name":"value","type":"uint256","indexed":false,"internalType":"uint256"}],"anonymous":false},{"type":"event","name":"CallOFTReceivedSuccess","inputs":[{"name":"_srcChainId","type":"uint16","indexed":true,"internalType":"uint16"},{"name":"_srcAddress","type":"bytes","indexed":false,"internalType":"bytes"},{"name":"_nonce","type":"uint64","indexed":false,"internalType":"uint64"},{"name":"_hash","type":"bytes32","indexed":false,"internalType":"bytes32"}],"anonymous":false},{"type":"event","name":"MessageFailed","inputs":[{"name":"_srcChainId","type":"uint16","indexed":false,"internalType":"uint16"},{"name":"_srcAddress","type":"bytes","indexed":false,"internalType":"bytes"},{"name":"_nonce","type":"uint64","indexed":false,"internalType":"uint64"},{"name":"_payload","type":"bytes","indexed":false,"internalType":"bytes"},{"name":"_reason","type":"bytes","indexed":false,"internalType":"bytes"}],"anonymous":false},{"type":"event","name":"NonContractAddress","inputs":[{"name":"_address","type":"address","indexed":false,"internalType":"address"}],"anonymous":false},{"type":"event","name":"OwnershipTransferred","inputs":[{"name":"previousOwner","type":"address","indexed":true,"internalType":"address"},{"name":"newOwner","type":"address","indexed":true,"internalType":"address"}],"anonymous":false},{"type":"event","name":"ReceiveFromChain","inputs":[{"name":"_srcChainId","type":"uint16","indexed":true,"internalType":"uint16"},{"name":"_to","type":"address","indexed":true,"internalType":"address"},{"name":"_amount","type":"uint256","indexed":false,"internalType":"uint256"}],"anonymous":false},{"type":"event","name":"RetryMessageSuccess","inputs":[{"name":"_srcChainId","type":"uint16","indexed":false,"internalType":"uint16"},{"name":"_srcAddress","type":"bytes","indexed":false,"internalType":"bytes"},{"name":"_nonce","type":"uint64","indexed":false,"internalType":"uint64"},{"name":"_payloadHash","type":"bytes32","indexed":false,"internalType":"bytes32"}],"anonymous":false},{"type":"event","name":"SendToChain","inputs":[{"name":"_dstChainId","type":"uint16","indexed":true,"internalType":"uint16"},{"name":"_from","type":"address","indexed":true,"internalType":"address"},{"name":"_toAddress","type":"bytes32","indexed":true,"internalType":"bytes32"},{"name":"_amount","type":"uint256","indexed":false,"internalType":"uint256"}],"anonymous":false},{"type":"event","name":"SetMinDstGas","inputs":[{"name":"_dstChainId","type":"uint16","indexed":false,"internalType":"uint16"},{"name":"_type","type":"uint16","indexed":false,"internalType":"uint16"},{"name":"_minDstGas","type":"uint256","indexed":false,"internalType":"uint256"}],"anonymous":false},{"type":"event","name":"SetPrecrime","inputs":[{"name":"precrime","type":"address","indexed":false,"internalType":"address"}],"anonymous":false},{"type":"event","name":"SetTrustedRemote","inputs":[{"name":"_remoteChainId","type":"uint16","indexed":false,"internalType":"uint16"},{"name":"_path","type":"bytes","indexed":false,"internalType":"bytes"}],"anonymous":false},{"type":"event","name":"SetTrustedRemoteAddress","inputs":[{"name":"_remoteChainId","type":"uint16","indexed":false,"internalType":"uint16"},{"name":"_remoteAddress","type":"bytes","indexed":false,"internalType":"bytes"}],"anonymous":false},{"type":"event","name":"SetUseCustomAdapterParams","inputs":[{"name":"_useCustomAdapterParams","type":"bool","indexed":false,"internalType":"bool"}],"anonymous":false},{"type":"event","name":"Transfer","inputs":[{"name":"from","type":"address","indexed":true,"internalType":"address"},{"name":"to","type":"address","indexed":true,"internalType":"address"},{"name":"value","type":"uint256","indexed":false,"internalType":"uint256"}],"anonymous":false},{"type":"error","name":"ActionTypeNotValid","inputs":[]},{"type":"error","name":"NotAuthorized","inputs":[]},{"type":"error","name":"NotValid","inputs":[]}],"bytecode":{"object":"0x60e060409080825234620005985762005a0180380380916200002282856200059d565b833981016101008282031262000598576200003d82620005d7565b906020926200004e848201620005d7565b818601516001600160a01b03808216949290918590036200059857606084015196828816809803620005985760808501516001600160401b0394908581116200059857816200009f91880162000611565b9060a0870151908682116200059857620000bb91880162000611565b9160c087015160ff811696878203620005985762000116602b60e08f9b01519a5180966a546170696f63614f46542d60a81b878301526200010581518092898686019101620005ec565b810103600b8101875201856200059d565b607f8d518096601d60fa1b868301526200013a8151809288602186019101620005ec565b810103926200015460216001958681018a5201886200059d565b831c16936000958887549d60018060a01b03199e8f33908216178a55823391167f8be0079c531659141344cd1fd0a4f28419497f9722a3daafe3b4186f6b6457e08b80a3166080528560a05281518381116200058457600b54928584811c9416801562000579575b8785101462000565578190601f9485811162000511575b508790858311600114620004ab578a926200049f575b5050600019600383901b1c191690851b17600b555b80519283116200048b57600c548481811c9116801562000480575b868210146200046c5782811162000423575b5084918311600114620003bd579282939183928894620003b1575b50501b916000199060031b1c191617600c555b601282116200035e575060120360ff81116200034a5760ff1690604d8211620003365750600a0a60c0526101f46012551684600f541617600f5560ff19601154161760115560105581600d541617600d55600e541617600e555161539490816200066d823960805181818161049c01528181610782015281816108d801528181610a5201528181610c13015281816120d2015281816121e201528181612903015281816143620152614813015260a051816118c4015260c051818181611571015281816145b501528181614a1201528181614c700152614d0a0152f35b634e487b7160e01b81526011600452602490fd5b634e487b7160e01b82526011600452602482fd5b6084908b519062461bcd60e51b82526004820152602760248201527f4f46543a20736861726564446563696d616c73206d757374206265203c3d20646044820152666563696d616c7360c81b6064820152fd5b01519250388062000246565b600c8752848720919083601f198116895b88888383106200040b5750505010620003f1575b505050811b01600c5562000259565b015160001960f88460031b161c19169055388080620003e2565b868601518855909601959485019487935001620003ce565b600c88528588208380860160051c82019288871062000462575b0160051c019085905b828110620004565750506200022b565b89815501859062000446565b925081926200043d565b634e487b7160e01b88526022600452602488fd5b90607f169062000219565b634e487b7160e01b87526041600452602487fd5b015190503880620001e9565b600b8b52888b208894509190601f1984168c5b8b828210620004fa5750508411620004e0575b505050811b01600b55620001fe565b015160001960f88460031b161c19169055388080620004d1565b8385015186558b97909501949384019301620004be565b909150600b8a52878a208580850160051c8201928a86106200055b575b918991869594930160051c01915b8281106200054c575050620001d3565b8c81558594508991016200053c565b925081926200052e565b634e487b7160e01b89526022600452602489fd5b93607f1693620001bc565b634e487b7160e01b88526041600452602488fd5b600080fd5b601f909101601f19168101906001600160401b03821190821017620005c157604052565b634e487b7160e01b600052604160045260246000fd5b51906001600160a01b03821682036200059857565b60005b838110620006005750506000910152565b8181015183820152602001620005ef565b81601f82011215620005985780516001600160401b038111620005c1576040519262000648601f8301601f1916602001856200059d565b818452602082840101116200059857620006699160208085019101620005ec565b9056fe6080604052600436101561001b575b361561001957600080fd5b005b60003560e01c80621d3567146103bf57806254af3a146103ba57806301ffc9a7146103b557806306fdde03146103b057806307e0db17146103ab578063095ea7b3146103a65780630df37483146103a157806310ddb1371461039c57806318160ddd1461032e57806323b872dd14610397578063313ce56714610392578063365260b41461038d57806339509351146103885780633d8b38f6146103835780633f1f4fa41461037e57806342d65a8d1461037957806343f68a4914610374578063447705151461036f5780634c42899a1461036f5780635b8c41e61461036a57806366ad5c8a14610365578063695ef6bf1461036057806370a082311461035b578063715018a6146103565780637533d7881461035157806376203b481461034c578063785e9e861461034757806381618d0514610342578063857749b01461033d5780638cfd8f5c146103385780638da5cb5b146103335780639358928b1461032e578063950c8a741461032957806395d89b41146103245780639bc507991461031f5780639bdb98121461031a5780639f38369a14610315578063a457c2d714610310578063a4c51df51461030b578063a643c52e14610306578063a6c3d16514610301578063a9059cbb146102fc578063b353aaa7146102f7578063baf3292d146102f2578063c4461834146102ed578063cbed8b9c146102e8578063d1deba1f146102e3578063dbd01de1146102de578063dd62ed3e146102d9578063de406577146102d4578063df2a5b3b146102cf578063e6a20ae6146102ca578063eab45d9c146102c5578063eaffd49a146102c0578063eb8d72b7146102bb578063ed629c5c146102b6578063f2fde38b146102b1578063f5ecbdbc146102ac5763fc0c546a0361000e5761296d565b612899565b6127d2565b6127af565b612665565b6125dc565b61257a565b61255e565b612471565b612448565b6123ee565b6123c5565b61227a565b61218e565b612171565b612101565b6120bc565b612092565b611f0f565b611ef1565b611e5a565b611d9c565b611cf9565b611cae565b611c16565b61198c565b611963565b610939565b61193a565b6118e8565b6118aa565b6114ac565b611483565b611241565b6111ea565b6110a4565b611067565b610f72565b610ede565b610e77565b610c9b565b610c7a565b610bf9565b610bc0565b610b64565b610ad0565b6109c8565b610997565b610957565b6108af565b610870565b61083b565b610759565b610674565b6105c2565b6105a4565b610485565b61ffff8116036103d057565b600080fd5b35906103e0826103c4565b565b9181601f840112156103d0578235916001600160401b0383116103d057602083818601950101116103d057565b6001600160401b038116036103d057565b9060806003198301126103d057600435610439816103c4565b916001600160401b03906024358281116103d0578161045a916004016103e2565b9390939260443561046a8161040f565b926064359182116103d057610481916004016103e2565b9091565b346103d05761049336610420565b929493919291907f00000000000000000000000000000000000000000000000000000000000000006001600160a01b031633036105545761051961052192610019976105126104f86104f38a61ffff166000526001602052604060002090565b6111cf565b805190818414918261054a575b5081610527575b50613fd5565b3691610dba565b923691610dba565b926140f6565b9050610534368486610dba565b602081519101209060208151910120143861050c565b1515915038610505565b60405162461bcd60e51b815260206004820152601e60248201527f4c7a4170703a20696e76616c696420656e64706f696e742063616c6c657200006044820152606490fd5b60009103126103d057565b346103d05760003660031901126103d0576020601054604051908152f35b346103d05760203660031901126103d05760043563ffffffff60e01b81168091036103d057602090631f7ecdf760e01b8114908115610607575b506040519015158152f35b6301ffc9a760e01b149050386105fc565b60005b83811061062b5750506000910152565b818101518382015260200161061b565b9060209161065481518092818552858086019101610618565b601f01601f1916010190565b90602061067192818152019061063b565b90565b346103d057600080600319360112610756576040519080600b54610697816110ff565b8085529160019180831690811561072c57506001146106d1575b6106cd856106c181870382610d51565b60405191829182610660565b0390f35b9250600b83527f0175b7a638427703f0dbe7bb9bbf987a2551717b34e79f33b5b1008d1fa01db95b8284106107145750505081016020016106c1826106cd6106b1565b805460208587018101919091529093019281016106f9565b8695506106cd969350602092506106c194915060ff191682840152151560051b82010192936106b1565b80fd5b346103d0576000602036600319011261075657600435610778816103c4565b610780613a3b565b7f00000000000000000000000000000000000000000000000000000000000000006001600160a01b0316908290823b156107f457602461ffff918360405195869485936307e0db1760e01b85521660048401525af180156107ef576107e3575080f35b6107ec90610ccd565b80f35b612c6e565b5080fd5b6001600160a01b038116036103d057565b602435906103e0826107f8565b606435906103e0826107f8565b60a435906103e0826107f8565b35906103e0826107f8565b346103d05760403660031901126103d05761086560043561085b816107f8565b6024359033613c77565b602060405160018152f35b346103d05760403660031901126103d05761ffff600435610890816103c4565b610898613a3b565b166000526003602052602435604060002055600080f35b346103d05760006020366003190112610756576004356108ce816103c4565b6108d6613a3b565b7f00000000000000000000000000000000000000000000000000000000000000006001600160a01b0316908290823b156107f457602461ffff918360405195869485936310ddb13760e01b85521660048401525af180156107ef576107e3575080f35b346103d05760003660031901126103d0576020600a54604051908152f35b346103d05760603660031901126103d057610865600435610977816107f8565b602435610983816107f8565b60443591610992833383613da2565b613b6f565b346103d05760003660031901126103d057602060405160128152f35b801515036103d057565b35906103e0826109b3565b346103d05760a03660031901126103d0576004356109e5816103c4565b606435906109f2826109b3565b608435906001600160401b0382116103d057610a1761051260409336906004016103e2565b90610a4e610a31610a29604435614c6e565b602435614d3f565b928451958694859463040a7bb160e41b865230906004870161450a565b03817f00000000000000000000000000000000000000000000000000000000000000006001600160a01b03165afa9081156107ef576000908192610a9f575b50604080519182526020820192909252f35b9050610ac2915060403d8111610ac9575b610aba8183610d51565b8101906144f4565b9038610a8d565b503d610ab0565b346103d05760403660031901126103d057600435610aed816107f8565b3360009081526009602090815260408083206001600160a01b03851684529091529020546024358101809111610b27576108659133613c77565b612e50565b9060406003198301126103d057600435610b45816103c4565b91602435906001600160401b0382116103d057610481916004016103e2565b346103d057602061ffff610bb1610b7a36610b2c565b9390911660005260018452610b9c610ba3604060002060405192838092611139565b0382610d51565b848151910120923691610dba565b82815191012014604051908152f35b346103d05760203660031901126103d05761ffff600435610be0816103c4565b1660005260036020526020604060002054604051908152f35b346103d057610c0736610b2c565b9190610c11613a3b565b7f00000000000000000000000000000000000000000000000000000000000000006001600160a01b031691823b156103d057604051928380926342d65a8d60e01b825281610c686000988997889460048501614087565b03925af180156107ef576107e3575080f35b346103d05760203660031901126103d057610c93613a3b565b600435601255005b346103d05760003660031901126103d057602060405160008152f35b634e487b7160e01b600052604160045260246000fd5b6001600160401b038111610ce057604052565b610cb7565b60c081019081106001600160401b03821117610ce057604052565b606081019081106001600160401b03821117610ce057604052565b604081019081106001600160401b03821117610ce057604052565b608081019081106001600160401b03821117610ce057604052565b90601f801991011681019081106001600160401b03821117610ce057604052565b604051906101c082018281106001600160401b03821117610ce057604052565b604051906103e082610d00565b6001600160401b038111610ce057601f01601f191660200190565b929192610dc682610d9f565b91610dd46040519384610d51565b8294818452818301116103d0578281602093846000960137010152565b9080601f830112156103d05781602061067193359101610dba565b9060606003198301126103d057600435610e25816103c4565b91602435906001600160401b0382116103d057610e4491600401610df1565b906044356106718161040f565b602090610e6b928260405194838680955193849201610618565b82019081520301902090565b346103d0576020610ed561ffff610eb483610e9136610e0c565b949091166000526005825260406000208260405194838680955193849201610618565b820190815203019020906001600160401b0316600052602052604060002090565b54604051908152f35b346103d057610eec36610420565b9192949390303303610f1057610519610f0a92610019973691610dba565b9261454e565b60405162461bcd60e51b815260206004820152602660248201527f4e6f6e626c6f636b696e674c7a4170703a2063616c6c6572206d7573742062656044820152650204c7a4170760d41b6064820152608490fd5b908160609103126103d05790565b60a03660031901126103d057600435610f8a816107f8565b602435610f96816103c4565b604435916084356001600160401b0381116103d057602061ffff610fdf7fd81fc9b8523134ed613870ed029d6170cbb73aa6a6bc311b9a642689fb9df59a933690600401610f64565b936110528535610fee816107f8565b61100c61051286890135986110028a6107f8565b60408101906142e0565b611016818a614b6b565b61102b611024606435614d08565b5085614f04565b9761103789151561472b565b6110496110438a614c6e565b8c614d3f565b9234938b6147cf565b6040519485526001600160a01b0316941692a4005b346103d05760203660031901126103d057600435611084816107f8565b60018060a01b031660005260086020526020604060002054604051908152f35b346103d057600080600319360112610756576110be613a3b565b80546001600160a01b03198116825581906001600160a01b03167f8be0079c531659141344cd1fd0a4f28419497f9722a3daafe3b4186f6b6457e08280a380f35b90600182811c9216801561112f575b602083101461111957565b634e487b7160e01b600052602260045260246000fd5b91607f169161110e565b906000929180549161114a836110ff565b9182825260019384811690816000146111ac575060011461116c575b50505050565b90919394506000526020928360002092846000945b838610611198575050505001019038808080611166565b805485870183015294019385908201611181565b9294505050602093945060ff191683830152151560051b01019038808080611166565b906103e06111e39260405193848092611139565b0383610d51565b346103d05760203660031901126103d05761ffff60043561120a816103c4565b1660005260016020526106cd610b9c61122d604060002060405192838092611139565b60405191829160208352602083019061063b565b60e03660031901126103d057600435611259816107f8565b602435611265816103c4565b604435916001600160401b03906084358281116103d05761128a9036906004016103e2565b91909260a4359161129a8361040f565b60c4358281116103d0576112b2903690600401610f64565b926112e98435956112c2876107f8565b6112e16112d7602088013597611002896107f8565b9990923691610dba565b973691610dba565b9460ff600654166000146113f05760228651106113ab5785602095611049611052946113798c61136661ffff9a8b60227fd81fc9b8523134ed613870ed029d6170cbb73aa6a6bc311b9a642689fb9df59a9f0151931660005260028d52841661136060406000206001600052602052604060002090565b54613aaf565b90611372821515614bc0565b1015614c0c565b61138e611387606435614d08565b5088614f04565b9a61139a8c151561472b565b8d6113a48d614c6e565b9033614dbe565b60405162461bcd60e51b815260206004820152601c60248201527f4c7a4170703a20696e76616c69642061646170746572506172616d73000000006044820152606490fd5b94809493505161142f577fd81fc9b8523134ed613870ed029d6170cbb73aa6a6bc311b9a642689fb9df59a9460209461ffff9461104961105294611379565b60405162461bcd60e51b815260206004820152602660248201527f4f4654436f72653a205f61646170746572506172616d73206d7573742062652060448201526532b6b83a3c9760d11b6064820152608490fd5b346103d05760003660031901126103d057600f546040516001600160a01b039091168152602090f35b346103d05760a03660031901126103d0576114c86004356107f8565b6114d36024356103c4565b6044356001600160401b0381116103d0576114f2903690600401610df1565b6114fd60643561040f565b6084356001600160401b0381116103d05761151c903690600401610df1565b303314801590611856575b6118155761153e6020825183010160208301612b6d565b602084015194989097919650909490936001600160a01b03168061179a575b509060009261159784936001600160401b037f00000000000000000000000000000000000000000000000000000000000000009116614cf5565b60408a01526116a0896116926115bf3060018060a01b03166000526008602052604060002090565b549a6116146116106116096064356115f18d6115eb60243561ffff166000526007602052604060002090565b90610e51565b906001600160401b0316600052602052604060002090565b5460ff1690565b1590565b61174e575b306000908152600860205260409020548351909b906001600160a01b0316606085015160808601519198909590916001600160a01b03169760a082015191604061166c602083015160018060a01b031690565b910151926040519a8b9960208b019d8e639bc5079960e01b905260043560248d01612d6f565b03601f198101835282610d51565b51906004355af4926116b0612e20565b9315611700575b855160408088015190519081526001600160a01b039091169061ffff60243516907fbf551ec93859b170f9b2141bd9298bf3f64322c6f7beb2543a0cb669834118bf90602090a3005b6117289461170d91612e84565b604086015180911015611732575b506064359060243561418a565b38808080806116b7565b855161174891906001600160a01b031630613e3a565b3861171b565b61175c60408401513061502d565b6117956117886064356115f161178260243561ffff166000526007602052604060002090565b8d610e51565b805460ff19166001179055565b611619565b600e549192916117f5916020916117c1906001600160a01b03165b6001600160a01b031690565b604051633a304d8b60e21b8152600060048201526001600160a01b0390921660248301529092839190829081906044820190565b03915afa9081156107ef57600091611827575b501561181557903861155d565b60405163ea8e4eb560e01b8152600490fd5b611849915060203d60201161184f575b6118418183610d51565b810190612c59565b38611808565b503d611837565b50600960005260136020526118937f76aa7d3cd4f559a3c98822aa7e1c37143eb9f80ceff73a5023a8fc3d6d44af615b546001600160a01b031690565b6004356001600160a01b0390811691161415611527565b346103d05760003660031901126103d057602060405160ff7f0000000000000000000000000000000000000000000000000000000000000000168152f35b346103d05760403660031901126103d0576020610ed560043561190a816103c4565b61ffff6024359161191a836103c4565b166000526002835260406000209061ffff16600052602052604060002090565b346103d05760003660031901126103d0576000546040516001600160a01b039091168152602090f35b346103d05760003660031901126103d0576004546040516001600160a01b039091168152602090f35b346103d057600080600319360112610756576040519080600c546119af816110ff565b8085529160019180831690811561072c57506001146119d8576106cd856106c181870382610d51565b9250600c83527fdf6966c971051c3d54ec59162606531493a51404a002842f56009d7e5cf4a8c75b828410611a1b5750505081016020016106c1826106cd6106b1565b80546020858701810191909152909301928101611a00565b60c09060c31901126103d05760405190611a4c82610ce5565b8160c435611a59816109b3565b815260e435611a67816107f8565b602082015261010435611a79816103c4565b604082015261012435606082015261014435611a94816107f8565b608082015260a061016435910152565b6001600160401b038111610ce05760051b60200190565b60ff8116036103d057565b35906103e082611abb565b81601f820112156103d057803590611ae882611aa4565b92604090611af882519586610d51565b83855260209182860191836101c0809702860101948186116103d0578401925b858410611b29575050505050505090565b86848303126103d057848791611b3d610d72565b611b46876109bd565b8152611b538388016109bd565b83820152611b628688016109bd565b868201526060611b738189016109bd565b908201526080611b848189016103d5565b9082015260a0611b95818901610830565b9082015260c0611ba68189016109bd565b9082015260e0611bb7818901610830565b90820152610100611bc9818901610830565b9082015261012080880135908201526101408088013590820152610160611bf1818901611ac6565b9082015261018080880135908201526101a08088013590820152815201930192611b18565b346103d0576102003660031901126103d057600435611c34816107f8565b611c3c610809565b611c44610816565b90611c4d610823565b611c5636611a33565b6001600160401b0394906101a4358681116103d057611c79903690600401611ad1565b926101c4359687116103d057611c96610019973690600401611ad1565b946101e4359661018435946084359260443591612ef8565b346103d057602060ff611ced61ffff610eb484611cca36610e0c565b949091166000526007825260406000208260405194838680955193849201610618565b54166040519015158152f35b346103d05760203660031901126103d05761ffff600435611d19816103c4565b166000526001602052610b9c611d39604060002060405192838092611139565b805115611d57576106c181611d516106cd9351612e66565b90615144565b60405162461bcd60e51b815260206004820152601d60248201527f4c7a4170703a206e6f20747275737465642070617468207265636f72640000006044820152606490fd5b346103d05760403660031901126103d057600435611db9816107f8565b60243590336000526009602052611de68160406000209060018060a01b0316600052602052604060002090565b5491808310611e0757611dfb92039033613c77565b60405160018152602090f35b60405162461bcd60e51b815260206004820152602560248201527f45524332303a2064656372656173656420616c6c6f77616e63652062656c6f77604482015264207a65726f60d81b6064820152608490fd5b346103d05760e03660031901126103d057600435611e77816103c4565b6001600160401b03906064358281116103d057611e989036906004016103e2565b608492919235611ea78161040f565b60a43591611eb4836109b3565b60c4359586116103d057611ecf611edf9636906004016103e2565b9590946044359060243590614312565b60408051928352602083019190915290f35b346103d05760003660031901126103d0576020601254604051908152f35b346103d057611f1d36610b2c565b90611f26613a3b565b60405192602092808385870137611f526034868381013060601b88820152036014810188520186610d51565b60009361ffff8316855260019081815260408620918751916001600160401b038311610ce057611f8c83611f8686546110ff565b866140a2565b80601f8411600114611ffc575091808092611feb9695948a9b7f8c0400cfe2d1199b1a725c78960bcc2a344d869b80590d0f2bd005db15a572ce9b94611ff1575b50501b916000199060031b1c19161790555b60405193849384614087565b0390a180f35b015192503880611fcd565b91939498601f19841661201487600052602060002090565b938a905b82821061207b575050917f8c0400cfe2d1199b1a725c78960bcc2a344d869b80590d0f2bd005db15a572ce999a95939185611feb98969410612062575b505050811b019055611fdf565b015160001960f88460031b161c19169055388080612055565b808886978294978701518155019601940190612018565b346103d05760403660031901126103d0576108656004356120b2816107f8565b6024359033613b6f565b346103d05760003660031901126103d0576040517f00000000000000000000000000000000000000000000000000000000000000006001600160a01b03168152602090f35b346103d05760203660031901126103d0577f5db758e995a17ec1ad84bdef7e8c3293a0bd6179bcce400dff5d4c3d87db726b6020600435612141816107f8565b612149613a3b565b600480546001600160a01b0319166001600160a01b03929092169182179055604051908152a1005b346103d05760003660031901126103d05760206040516127108152f35b346103d05760803660031901126103d0576004356121ab816103c4565b6024356121b7816103c4565b6064356001600160401b0381116103d0576121d69036906004016103e2565b90926121e0613a3b565b7f00000000000000000000000000000000000000000000000000000000000000006001600160a01b031690813b156103d05760008094612257604051978896879586946332fb62e760e21b865261ffff80921660048701521660248501526044356044850152608060648501526084840191614066565b03925af180156107ef5761226757005b8061227461001992610ccd565b80610599565b61228336610420565b9161ffff869492961660005260056020526122ca81604060002060206040518092878b833787820190815203019020906001600160401b0316600052602052604060002090565b5491821561237457612363848361235c7fc264d91f3adc5588250e1551f547752ca0cfa8f6b530d243b9f9f4cab10ea8e59a6000612348846115f18e8a8f61236f9f908f61232e906123216123429436908d610dba565b6020815191012014614253565b61ffff166000526005602052604060002090565b9161423a565b5561235436878d610dba565b933691610dba565b918861454e565b604051958695866142a9565b0390a1005b60405162461bcd60e51b815260206004820152602360248201527f4e6f6e626c6f636b696e674c7a4170703a206e6f2073746f726564206d65737360448201526261676560e81b6064820152608490fd5b346103d05760003660031901126103d057600e546040516001600160a01b039091168152602090f35b346103d05760403660031901126103d0576020610ed5600435612410816107f8565b6024359061241d826107f8565b60018060a01b03166000526009835260406000209060018060a01b0316600052602052604060002090565b346103d05760003660031901126103d057600d546040516001600160a01b039091168152602090f35b346103d05760603660031901126103d05760043561248e816103c4565b60243561249a816103c4565b604435916124a6613a3b565b82156125215761236f7f9d5c7c0b934da8fefa9c7760c98383778a12dfbfc0c3b3106518f43fb9508ac09361ffff83166000526002602052806124fb8560406000209061ffff16600052602052604060002090565b556040519384938460409194939294606082019561ffff80921683521660208201520152565b60405162461bcd60e51b81526020600482015260156024820152744c7a4170703a20696e76616c6964206d696e47617360581b6044820152606490fd5b346103d05760003660031901126103d057602060405160018152f35b346103d05760203660031901126103d0577f1584ad594a70cbe1e6515592e1272a987d922b097ead875069cebe8b40c004a460206004356125ba816109b3565b6125c2613a3b565b151560ff196006541660ff821617600655604051908152a1005b346103d0576101003660031901126103d0576004356125fa816103c4565b6001600160401b03906024358281116103d05761261b9036906004016103e2565b91906044359061262a8261040f565b608435612636816107f8565b60c4359586116103d0576126516100199636906004016103e2565b94909360e4359660a4359460643593614408565b346103d05761267336610b2c565b919061267d613a3b565b60009161ffff81168352600160209080825260408520916001600160401b038711610ce0576126b6876126b085546110ff565b856140a2565b8590601f881160011461271d5750918680879893611feb957ffa41487ad5d6728f0b19276fa1eddc16558578f5109fc39d2dc33c3230470dab9993612712575b501b906000198460031b1c191617905560405193849384614087565b8801359250386126f6565b90601f19881661273285600052602060002090565b9288905b828210612798575050918893917ffa41487ad5d6728f0b19276fa1eddc16558578f5109fc39d2dc33c3230470dab9899611feb96941061277e575b505082811b019055611fdf565b870135600019600386901b60f8161c191690553880612771565b808685968294968c01358155019501930190612736565b346103d05760003660031901126103d057602060ff600654166040519015158152f35b346103d05760203660031901126103d0576004356127ef816107f8565b6127f7613a3b565b6001600160a01b03908116801561284557600080546001600160a01b03198116831782559092167f8be0079c531659141344cd1fd0a4f28419497f9722a3daafe3b4186f6b6457e08380a380f35b60405162461bcd60e51b815260206004820152602660248201527f4f776e61626c653a206e6577206f776e657220697320746865207a65726f206160448201526564647265737360d01b6064820152608490fd5b346103d05760803660031901126103d0576004356128b6816103c4565b602435906128c3826103c4565b6128ce6044356107f8565b604051633d7b2f6f60e21b815261ffff91821660048201529116602482015230604482015260648035908201526000816084817f00000000000000000000000000000000000000000000000000000000000000006001600160a01b03165afa80156107ef576106cd9160009161294c575b5060405191829182610660565b612967913d8091833e61295f8183610d51565b810190614030565b3861293f565b346103d05760003660031901126103d0576020604051308152f35b51906103e0826103c4565b51906103e0826107f8565b51906103e0826109b3565b91908260c09103126103d0576040516129c181610ce5565b60a080829480516129d1816109b3565b845260208101516129e1816107f8565b602085015260408101516129f4816103c4565b6040850152606081015160608501526080810151612a11816107f8565b60808501520151910152565b51906103e082611abb565b81601f820112156103d057805190612a3f82611aa4565b92604090612a4f82519586610d51565b83855260209182860191836101c0809702860101948186116103d0578401925b858410612a80575050505050505090565b86848303126103d057848791612a94610d72565b612a9d8761299e565b8152612aaa83880161299e565b83820152612ab986880161299e565b868201526060612aca81890161299e565b908201526080612adb818901612988565b9082015260a0612aec818901612993565b9082015260c0612afd81890161299e565b9082015260e0612b0e818901612993565b90820152610100612b20818901612993565b9082015261012080880151908201526101408088015190820152610160612b48818901612a1d565b9082015261018080880151908201526101a08088015190820152815201930192612a6f565b9190918083039161022083126103d0578151612b88816103c4565b9360c06020840151612b998161040f565b94603f1901126103d057604051612baf81610ce5565b6040840151612bbd816107f8565b81526060840151612bcd816107f8565b60208201526080840151604082015260a0840151606082015260c0840151612bf4816107f8565b608082015260e084015160a082015292612c128261010083016129a9565b926101c0820151926001600160401b03938481116103d05781612c36918501612a28565b936101e08401519081116103d05761020091612c53918501612a28565b92015190565b908160209103126103d05751610671816109b3565b6040513d6000823e3d90fd5b90815180825260208080930193019160005b828110612c9a575050505090565b90919293826101c06001928751612cb382825115159052565b8084015115158285015260408181015115159083015260608181015115159083015260808181015161ffff169083015260a0818101516001600160a01b03169083015260c08181015115159083015260e0818101516001600160a01b031690830152610100818101516001600160a01b031690830152610120818101519083015261014080820151908301526101608082015160ff169083015261018081810151908301526101a0908101519082015201950193929101612c8c565b9b9a999691612e0c966101e09a9660808f60a09795612e1b9d996001808b1b03978880988180951686521660208501526040840152166060820152015216838d01528151151560c08d01528060208301511660e08d015261ffff6040830151166101008d015260608201516101208d01526080820151166101408c015201516101608a0152610180890152610200806101a08a0152880190612c7a565b908682036101c0880152612c7a565b930152565b3d15612e4b573d90612e3182610d9f565b91612e3f6040519384610d51565b82523d6000602084013e565b606090565b634e487b7160e01b600052601160045260246000fd5b601319810191908211610b2757565b605019810191908211610b2757565b91908203918211610b2757565b908160209103126103d0575190565b939061067195916101009461ffff60409560018060a01b03809516895216602088015284870152606086015260a060808601528082511660a086015260208201511660c0850152015191606060e0820152019061063b565b99939691989997909295949730331490811591613199575b5061181557805161318a575b50604080516370a0823160e01b80825230600483015260209a92996001600160a01b0398808a169492939192918d81602481895afa9384156107ef578b918f60009661316b575b50501691823b156103d0578c5163286fbdcd60e21b815260048101919091526001600160a01b03919091166024820152604481018b9052906000908290606490829084905af180156107ef57613158575b5089519182523060048301528a82602481865afa80156107ef57859260009161312b575b508082116130f7575b5050505050612ff08351151590565b156130cc578287015161300d906117b5906001600160a01b031681565b9361301c8785015161ffff1690565b91169261306961304260a061303a608085015160018060a01b031690565b930151613fb5565b9161304b610d92565b6001600160a01b0387168152996001600160a01b03909116908a0152565b86880152833b156103d057613096600096519788968795869463695ef6bf60e01b86523060048701612ea0565b03925af180156107ef576130b9575b505b80516130b05750565b6103e0906132bb565b806122746130c692610ccd565b386130a5565b91909501516130f29550929350916130ed91506001600160a01b03166117b5565b613e3a565b6130a7565b61310091612e84565b9280841061310f575b80612fe1565b6131229361311c91612e84565b91613e3a565b38808281613109565b61314b91508c8d3d10613151575b6131438183610d51565b810190612e91565b38612fd8565b503d613139565b8061227461316592610ccd565b38612fb4565b613182929650803d10613151576131438183610d51565b93388f612f63565b613193906132bb565b38612f1c565b6009600052601360205290506131ce7f76aa7d3cd4f559a3c98822aa7e1c37143eb9f80ceff73a5023a8fc3d6d44af61611886565b6001600160a01b039081169116141538612f10565b80518210156131f75760209160051b010190565b634e487b7160e01b600052603260045260246000fd5b9061ffff61322860209295949560408552604085019061063b565b9416910152565b60009060033d1161323c57565b905060046000803e60005160e01c90565b600060443d1061067157604051600319913d83016004833e81516001600160401b03918282113d6024840111176132aa578184019485519384116132b2573d850101602084870101116132aa575061067192910160200190610d51565b949350505050565b50949350505050565b9060005b82518110156135885760406132e0816132d884876131e3565b510151151590565b1561332e5750806132f860606132d8600194876131e3565b156133165761331061330a82866131e3565b51613670565b016132bf565b61332961332382866131e3565b516138b3565b613310565b608061030961ffff61334e83613344878a6131e3565b51015161ffff1690565b16036135775761336360c06132d885886131e3565b61338160e061337286896131e3565b5101516001600160a01b031690565b91613453613395610100613372888b6131e3565b936134456101206133a6898c6131e3565b5101518a6101406133b78b836131e3565b5101516133d36101606133ca8d856131e3565b51015160ff1690565b906101a06133f18d6101806133e882886131e3565b510151956131e3565b510151938b519a8b9760209b8c8a0194909897969360e0969260ff9461010088019b1515885260018060a01b038092166020890152166040870152606086015260808501521660a083015260c08201520152565b03601f198101855284610d51565b61347661346b6117b56117b560a06133728a8d6131e3565b91613344878a6131e3565b90803b156103d0576134a46000929183928751948580948193631221baf960e31b835260049a8b840161320d565b03925af19081613564575b506134ce5760016134be61322f565b6308c379a01461351c575b6134d9575b505050600190613310565b6134f26116106134e7612e20565b926132d8878a6131e3565b156134ce57613503613518916135c2565b925162461bcd60e51b81529283928301610660565b0390fd5b61352461324d565b80613530575b506134c9565b60009150613545611610846132d8898c6131e3565b1561352a57845162461bcd60e51b815290819061351890828701610660565b8061227461357192610ccd565b386134af565b8151639f62049960e01b8152600490fd5b509050565b9092919261359a81610d9f565b916135a86040519384610d51565b8294828452828201116103d05760206103e0930190610618565b6103e881511161364357604481511061361d576004810151810190602081602484019303126103d0576024810151906001600160401b0382116103d0570190806043830112156103d05760248201516106719260440161358d565b5060405161362a81610d1b565b6009815268544f46545f6461746160b81b602082015290565b5060405161365081610d1b565b601081526f2a27a32a2fa627a723afa922a0a9a7a760811b602082015290565b8051156137e95760a0810151613690906117b5906001600160a01b031681565b60e08201516001600160a01b03166101008301516001600160a01b031691610140840151906136c461016086015160ff1690565b93610180860151936101a087015190833b156103d0576040516365e2b81f60e01b81526001600160a01b03918216600482015292166024830152604482019390935260ff9094166064850152608484019290925260a4830152600090829081838160c481015b03925af190816137d6575b5061375457600161374461322f565b6308c379a014613798575b613757575b50565b61376f6116106020613767612e20565b930151151590565b1561375457613780613518916135c2565b60405162461bcd60e51b815291829160048301610660565b6137a061324d565b806137ac575b5061374f565b6020830151600092506137a6575b60405162461bcd60e51b81529081906135189060048301610660565b806122746137e392610ccd565b38613735565b60a0810151613802906117b5906001600160a01b031681565b60e08201516001600160a01b03166101008301516001600160a01b031691610120840151906101408501519361383d61016087015160ff1690565b93610180870151906101a088015195843b156103d0576040516372dcad7b60e01b81526001600160a01b0392831660048201529190931660248201526044810194909452606484019590955260ff16608483015260a482019390935260c481019190915290600090829081838160e4810161372a565b8051156139715760a08101516138d3906117b5906001600160a01b031681565b60e08201516001600160a01b03166101008301516001600160a01b0316916101408401519061390761016086015160ff1690565b93610180860151936101a087015190833b156103d05760405163aba0784760e01b81526001600160a01b03918216600482015292166024830152604482019390935260ff9094166064850152608484019290925260a4830152600090829081838160c4810161372a565b60a081015161398a906117b5906001600160a01b031681565b60e08201516001600160a01b03166101008301516001600160a01b03169161012084015190610140850151936139c561016087015160ff1690565b93610180870151906101a088015195843b156103d05760405163d505accf60e01b81526001600160a01b0392831660048201529190931660248201526044810194909452606484019590955260ff16608483015260a482019390935260c481019190915290600090829081838160e4810161372a565b6000546001600160a01b03163303613a4f57565b606460405162461bcd60e51b815260206004820152602060248201527f4f776e61626c653a2063616c6c6572206973206e6f7420746865206f776e65726044820152fd5b90601f8201809211610b2757565b6051019081605111610b2757565b91908201809211610b2757565b15613ac357565b60405162461bcd60e51b815260206004820152602360248201527f45524332303a207472616e7366657220746f20746865207a65726f206164647260448201526265737360e81b6064820152608490fd5b15613b1b57565b60405162461bcd60e51b815260206004820152602660248201527f45524332303a207472616e7366657220616d6f756e7420657863656564732062604482015265616c616e636560d01b6064820152608490fd5b916001600160a01b038084169290918315613c2457613c098260008051602061533f83398151915294613c1f941696613ba9881515613abc565b6001600160a01b0381166000908152600860205260409020613bee90859054613bd482821015613b14565b039160018060a01b03166000526008602052604060002090565b556001600160a01b0316600090815260086020526040902090565b8054820190556040519081529081906020820190565b0390a3565b60405162461bcd60e51b815260206004820152602560248201527f45524332303a207472616e736665722066726f6d20746865207a65726f206164604482015264647265737360d81b6064820152608490fd5b6001600160a01b038082169291908315613d51578216938415613d015780613cf07f8c5be1e5ebec7d5bd14f71427d1e84f3dd0314c0f7b2291e5b200ac8c7c3b92594613cd9613c1f9560018060a01b03166000526009602052604060002090565b9060018060a01b0316600052602052604060002090565b556040519081529081906020820190565b60405162461bcd60e51b815260206004820152602260248201527f45524332303a20617070726f766520746f20746865207a65726f206164647265604482015261737360f01b6064820152608490fd5b60405162461bcd60e51b8152602060048201526024808201527f45524332303a20617070726f76652066726f6d20746865207a65726f206164646044820152637265737360e01b6064820152608490fd5b6001600160a01b038082166000908152600960209081526040808320938616835292905220909190549260018401613dda5750505050565b808410613df557613dec930391613c77565b38808080611166565b60405162461bcd60e51b815260206004820152601d60248201527f45524332303a20696e73756666696369656e7420616c6c6f77616e63650000006044820152606490fd5b9190613ec491600080604051936020968786019463a9059cbb60e01b865260018060a01b038093166024880152604487015260448652613e7986610d36565b169260405194613e8886610d1b565b8786527f5361666545524332303a206c6f772d6c6576656c2063616c6c206661696c656488870152519082855af1613ebe612e20565b91613f40565b80519081613ed157505050565b8280613ee1938301019101612c59565b15613ee95750565b6084906040519062461bcd60e51b82526004820152602a60248201527f5361666545524332303a204552433230206f7065726174696f6e20646964206e6044820152691bdd081cdd58d8d9595960b21b6064820152fd5b91929015613fa25750815115613f54575090565b3b15613f5d5790565b60405162461bcd60e51b815260206004820152601d60248201527f416464726573733a2063616c6c20746f206e6f6e2d636f6e74726163740000006044820152606490fd5b8251909150156137ba5750805190602001fd5b60405190600160f01b602083015260228201526022815261067181610d00565b15613fdc57565b60405162461bcd60e51b815260206004820152602660248201527f4c7a4170703a20696e76616c696420736f757263652073656e64696e6720636f6044820152651b9d1c9858dd60d21b6064820152608490fd5b6020818303126103d0578051906001600160401b0382116103d057019080601f830112156103d05781516106719260200161358d565b908060209392818452848401376000828201840152601f01601f1916010190565b60409061ffff61067195931681528160208201520191614066565b90601f81116140b057505050565b600091825260208220906020601f850160051c830194106140ec575b601f0160051c01915b8281106140e157505050565b8181556001016140d5565b90925082906140cc565b9290916141685a604051633356ae4560e11b602082015261ffff8716602482015260806044820152906141628261415461413360a483018a61063b565b6001600160401b03881660648401528281036023190160848401528861063b565b03601f198101845283610d51565b306152f3565b939015614177575b5050505050565b6141809461418a565b3880808080614170565b91936142277fe183f33de2837795525b4792ca4cd60535bd77c53b7e7030060bfcf5734d6b0c95614235939561ffff815160208301209616958660005260056020526141ee83610eb460208b60406000208260405194838680955193849201610618565b556001600160401b03614213604051988998895260a060208a015260a089019061063b565b92166040870152858203606087015261063b565b90838203608085015261063b565b0390a1565b6020919283604051948593843782019081520301902090565b1561425a57565b60405162461bcd60e51b815260206004820152602160248201527f4e6f6e626c6f636b696e674c7a4170703a20696e76616c6964207061796c6f616044820152601960fa1b6064820152608490fd5b916142d59060609461ffff6001600160401b039499989799168552608060208601526080850191614066565b951660408201520152565b903590601e19813603018212156103d057018035906001600160401b0382116103d0576020019181360383136103d057565b9491959897906113a461433b6040996143336143419761435e993691610dba565b943691610dba565b97614c6e565b928451968794859463040a7bb160e41b865230906004870161450a565b03817f00000000000000000000000000000000000000000000000000000000000000006001600160a01b03165afa9182156107ef5760009081936143a157509190565b905061048191925060403d8111610ac957610aba8183610d51565b939694916143ea9061067199979461ffff6001600160401b039416875260c0602088015260c0870191614066565b961660408401526060830152608082015260a0818503910152614066565b919697929895949390943033036144af57614424908530615090565b60405181815290946001600160a01b03169390849061ffff8516907fbf551ec93859b170f9b2141bd9298bf3f64322c6f7beb2543a0cb669834118bf90602090a3833b156103d0576000988995614492936040519c8d9b8c9a8b98633fe79aed60e11b8a5260048a016143bc565b0393f180156107ef576144a25750565b806122746103e092610ccd565b60405162461bcd60e51b815260206004820152601f60248201527f4f4654436f72653a2063616c6c6572206d757374206265204f4654436f7265006044820152606490fd5b91908260409103126103d0576020825192015190565b9192610671959361ffff6145399316845260018060a01b0316602084015260a0604084015260a083019061063b565b9215156060820152608081840391015261063b565b92919060ff61455c84615298565b16806146d65750505060ff61457082615298565b1615806146cb575b61458190614d72565b61459361458d82615248565b916152e3565b90916001600160a01b0391828416156146c1575b6145db906001600160401b037f00000000000000000000000000000000000000000000000000000000000000009116614cf5565b91831692831561467c577fbf551ec93859b170f9b2141bd9298bf3f64322c6f7beb2543a0cb669834118bf9161463c61ffff9261462261461d87600a54613aaf565b600a55565b6001600160a01b0316600090815260086020526040902090565b84815401905584600060008051602061533f8339815191526040518061466789829190602083019252565b0390a360405193845216918060208101613c1f565b60405162461bcd60e51b815260206004820152601f60248201527f45524332303a206d696e7420746f20746865207a65726f2061646472657373006044820152606490fd5b61dead93506145a7565b508051602914614578565b6001036146e6576103e0936149cd565b60405162461bcd60e51b815260206004820152601c60248201527f4f4654436f72653a20756e6b6e6f776e207061636b65742074797065000000006044820152606490fd5b1561473257565b60405162461bcd60e51b815260206004820152601960248201527f4f4654436f72653a20616d6f756e7420746f6f20736d616c6c000000000000006044820152606490fd5b9261479c61067197959361ffff6147aa9416865260c0602087015260c086019061063b565b90848203604086015261063b565b6001600160a01b0391821660608401529316608082015280830360a09091015261063b565b946147f89193929561ffff811660005260016020526147ff604060002060405194858092611139565b0384610d51565b825115614877576148118551826148d5565b7f00000000000000000000000000000000000000000000000000000000000000006001600160a01b031693843b156103d05760009661486691604051998a988997889662c5803160e81b885260048801614777565b03925af180156107ef576144a25750565b60405162461bcd60e51b815260206004820152603060248201527f4c7a4170703a2064657374696e6174696f6e20636861696e206973206e6f742060448201526f61207472757374656420736f7572636560801b6064820152608490fd5b61ffff16600052600360205260406000205490811561493a575b116148f657565b606460405162461bcd60e51b815260206004820152602060248201527f4c7a4170703a207061796c6f61642073697a6520697320746f6f206c617267656044820152fd5b61271091506148ef565b98979692936001600160401b0361497660e0989461ffff612e1b9995168d5260208d61010091829101528d019061063b565b951660408b015260608a01526001600160a01b0316608089015260a088015286820360c088015261063b565b6001600160401b036149c26040939695949660608452606084019061063b565b951660208201520152565b90916149d884614e2b565b9091614a02611609876115f16149fc8b61ffff166000526007602052604060002090565b8c610e51565b91614a386001600160401b0392837f00000000000000000000000000000000000000000000000000000000000000009116614cf5565b9288888b8315614b34575b505050853b15614ae95794614a8a9694614162948a94614154948d99600014614ae25750505a925b5a978b6040519a8b9863757fea4d60e11b60208b015260248a01614944565b9015614ad7575090614ad261ffff928560207fb8890edbfc1c74692f527444645f95489c3703cc2df42e4a366f5d06fa6cd884969751910120906040519485941696846149a2565b0390a2565b926103e0949261418a565b1692614a6b565b50506040516001600160a01b039094168452507f9aedf5fdba8716db3b6705ca00150643309995d4f818a249ed6dde6677e7792d975091955085945050602084019250614235915050565b906115f1611788926115eb89614b4e614b63979b3061502d565b9961ffff166000526007602052604060002090565b88888b614a43565b60065460ff1615614bb85760228251106113ab5761ffff60226103e093015191166000526002602052614bab604060002060008052602052604060002090565b5490611372821515614bc0565b505161142f57565b15614bc757565b60405162461bcd60e51b815260206004820152601a60248201527f4c7a4170703a206d696e4761734c696d6974206e6f74207365740000000000006044820152606490fd5b15614c1357565b60405162461bcd60e51b815260206004820152601b60248201527f4c7a4170703a20676173206c696d697420697320746f6f206c6f7700000000006044820152606490fd5b634e487b7160e01b600052601260045260246000fd5b7f0000000000000000000000000000000000000000000000000000000000000000908115614cf057046001600160401b0390818111614cab571690565b60405162461bcd60e51b815260206004820152601a60248201527f4f4654436f72653a20616d6f756e745344206f766572666c6f770000000000006044820152606490fd5b614c58565b81810292918115918404141715610b2757565b7f00000000000000000000000000000000000000000000000000000000000000008015614cf057810690818103908111610b275791565b90604051916000602084015260218301526001600160401b0360c01b9060c01b1660418201526029815261067181610d00565b15614d7957565b60405162461bcd60e51b815260206004820152601860248201527f4f4654436f72653a20696e76616c6964207061796c6f616400000000000000006044820152606490fd5b939260719261067194604051968794600160f81b602087015260218601526001600160401b0360c01b809360c01b16604186015260018060a01b0316604985015260c01b166069830152614e1b8151809260208686019101610618565b8101036051810184520182610d51565b90614e43600160ff614e3c85615298565b1614614d72565b614e4c82615248565b90614e56836152e3565b906049845110614ec7576049840151936051815110614e8b57614e88605182015191614e828151612e75565b906151c4565b91565b60405162461bcd60e51b8152602060048201526014602482015273746f55696e7436345f6f75744f66426f756e647360601b6044820152606490fd5b60405162461bcd60e51b8152602060048201526015602482015274746f427974657333325f6f75744f66426f756e647360581b6044820152606490fd5b6001600160a01b038116338103614fc6575b8015614f775781614f4c84614f3f60009560018060a01b03166000526008602052604060002090565b54613bd482821015614fd6565b55614f5a83600a5403600a55565b60405183815260008051602061533f83398151915290602090a390565b60405162461bcd60e51b815260206004820152602160248201527f45524332303a206275726e2066726f6d20746865207a65726f206164647265736044820152607360f81b6064820152608490fd5b614fd1833384613da2565b614f16565b15614fdd57565b60405162461bcd60e51b815260206004820152602260248201527f45524332303a206275726e20616d6f756e7420657863656564732062616c616e604482015261636560f01b6064820152608490fd5b6001600160a01b0381169190821561467c57600a5490828201809211610b275760009261508160209260008051602061533f83398151915294600a5560018060a01b03166000526008602052604060002090565b818154019055604051908152a3565b6106719183916001600160a01b0381163081141590816150bc575b5015613b6f57610992833383613da2565b9050331415386150ab565b156150ce57565b60405162461bcd60e51b815260206004820152600e60248201526d736c6963655f6f766572666c6f7760901b6044820152606490fd5b1561510b57565b60405162461bcd60e51b8152602060048201526011602482015270736c6963655f6f75744f66426f756e647360781b6044820152606490fd5b6151588261515181613a93565b10156150c7565b6151658282511015615104565b8161517d575050604051600081526020810160405290565b60405191601f811691821560051b808486010193838501920101905b8084106151b15750508252601f01601f191660405290565b9092835181526020809101930190615199565b6151d18261515181613a93565b6151e681516151df84613aa1565b1115615104565b816151fe575050604051600081526020810160405290565b60405191601f8116916051831560051b80858701019484860193010101905b8084106152355750508252601f01601f191660405290565b909283518152602080910193019061521d565b602181511061525b57602d015160601c90565b60405162461bcd60e51b8152602060048201526015602482015274746f416464726573735f6f75744f66426f756e647360581b6044820152606490fd5b60018151106152a8576001015190565b60405162461bcd60e51b8152602060048201526013602482015272746f55696e74385f6f75744f66426f756e647360681b6044820152606490fd5b6029815110614e8b576029015190565b909291600080916040519561530787610ce5565b6096875282602088019560a036883760208451940192f1903d9060968211615335575b6000908286523e9190565b6096915061532a56feddf252ad1be2c89b69c2b068fc378daa952ba7f163c4a11628f55a4df523b3efa2646970667358221220aa4ef4e1de3bed227e659c13adea6581707b9a58c526956555965e61f2fd561164736f6c63430008130033","linkReferences":{}},"methodIdentifiers":{"DEFAULT_PAYLOAD_SIZE_LIMIT()":"c4461834","NO_EXTRA_GAS()":"44770515","PT_SEND()":"4c42899a","PT_SEND_AND_CALL()":"e6a20ae6","SWAP_MAX_SLIPPAGE()":"a643c52e","allowance(address,address)":"dd62ed3e","approve(address,uint256)":"095ea7b3","balanceOf(address)":"70a08231","callOnOFTReceived(uint16,bytes,uint64,bytes32,address,uint256,bytes,uint256)":"eaffd49a","circulatingSupply()":"9358928b","cluster()":"dbd01de1","creditedPackets(uint16,bytes,uint64)":"9bdb9812","decimals()":"313ce567","decreaseAllowance(address,uint256)":"a457c2d7","erc20()":"785e9e86","estimateSendAndCallFee(uint16,bytes32,uint256,bytes,uint64,bool,bytes)":"a4c51df5","estimateSendFee(uint16,bytes32,uint256,bool,bytes)":"365260b4","exercise(address,uint16,bytes,uint64,bytes)":"81618d05","exerciseInternal(address,address,uint256,address,uint256,address,(bool,address,uint16,uint256,address,uint256),uint256,(bool,bool,bool,bool,uint16,address,bool,address,address,uint256,uint256,uint8,bytes32,bytes32)[],(bool,bool,bool,bool,uint16,address,bool,address,address,uint256,uint256,uint8,bytes32,bytes32)[],uint256)":"9bc50799","failedMessages(uint16,bytes,uint64)":"5b8c41e6","forceResumeReceive(uint16,bytes)":"42d65a8d","getConfig(uint16,uint16,address,uint256)":"f5ecbdbc","getTrustedRemoteAddress(uint16)":"9f38369a","hostChainID()":"0054af3a","increaseAllowance(address,uint256)":"39509351","isTrustedRemote(uint16,bytes)":"3d8b38f6","lzEndpoint()":"b353aaa7","lzReceive(uint16,bytes,uint64,bytes)":"001d3567","minDstGasLookup(uint16,uint16)":"8cfd8f5c","name()":"06fdde03","nonblockingLzReceive(uint16,bytes,uint64,bytes)":"66ad5c8a","owner()":"8da5cb5b","payloadSizeLimitLookup(uint16)":"3f1f4fa4","precrime()":"950c8a74","renounceOwnership()":"715018a6","retryMessage(uint16,bytes,uint64,bytes)":"d1deba1f","sendAndCall(address,uint16,bytes32,uint256,bytes,uint64,(address,address,bytes))":"76203b48","sendFrom(address,uint16,bytes32,uint256,(address,address,bytes))":"695ef6bf","setConfig(uint16,uint16,uint256,bytes)":"cbed8b9c","setMaxSlippage(uint256)":"43f68a49","setMinDstGas(uint16,uint16,uint256)":"df2a5b3b","setPayloadSizeLimit(uint16,uint256)":"0df37483","setPrecrime(address)":"baf3292d","setReceiveVersion(uint16)":"10ddb137","setSendVersion(uint16)":"07e0db17","setTrustedRemote(uint16,bytes)":"eb8d72b7","setTrustedRemoteAddress(uint16,bytes)":"a6c3d165","setUseCustomAdapterParams(bool)":"eab45d9c","sharedDecimals()":"857749b0","supportsInterface(bytes4)":"01ffc9a7","symbol()":"95d89b41","token()":"fc0c546a","totalSupply()":"18160ddd","transfer(address,uint256)":"a9059cbb","transferFrom(address,address,uint256)":"23b872dd","transferOwnership(address)":"f2fde38b","trustedRemoteLookup(uint16)":"7533d788","useCustomAdapterParams()":"ed629c5c","yieldBox()":"de406577"},"id":12}