{"abi":[{"type":"constructor","inputs":[{"name":"_routerETH","type":"address","internalType":"address"},{"name":"_router","type":"address","internalType":"address"},{"name":"_owner","type":"address","internalType":"address"}],"stateMutability":"nonpayable"},{"type":"receive","stateMutability":"payable"},{"type":"function","name":"addRebalanceAmount","inputs":[{"name":"_srcOft","type":"address","internalType":"address"},{"name":"_dstChainId","type":"uint16","internalType":"uint16"},{"name":"_amount","type":"uint256","internalType":"uint256"}],"outputs":[],"stateMutability":"nonpayable"},{"type":"function","name":"checker","inputs":[{"name":"_srcOft","type":"address","internalType":"address payable"},{"name":"_dstChainId","type":"uint16","internalType":"uint16"}],"outputs":[{"name":"canExec","type":"bool","internalType":"bool"},{"name":"execPayload","type":"bytes","internalType":"bytes"}],"stateMutability":"view"},{"type":"function","name":"connectedOFTs","inputs":[{"name":"","type":"address","internalType":"address"},{"name":"","type":"uint16","internalType":"uint16"}],"outputs":[{"name":"srcPoolId","type":"uint256","internalType":"uint256"},{"name":"dstPoolId","type":"uint256","internalType":"uint256"},{"name":"dstOft","type":"address","internalType":"address"},{"name":"rebalanceable","type":"uint256","internalType":"uint256"}],"stateMutability":"view"},{"type":"function","name":"disableEth","inputs":[],"outputs":[{"name":"","type":"bool","internalType":"bool"}],"stateMutability":"view"},{"type":"function","name":"emergencySaveTokens","inputs":[{"name":"_token","type":"address","internalType":"address"},{"name":"_amount","type":"uint256","internalType":"uint256"}],"outputs":[],"stateMutability":"nonpayable"},{"type":"function","name":"initConnectedOFT","inputs":[{"name":"_srcOft","type":"address","internalType":"address"},{"name":"_dstChainId","type":"uint16","internalType":"uint16"},{"name":"_dstOft","type":"address","internalType":"address"},{"name":"_ercData","type":"bytes","internalType":"bytes"}],"outputs":[],"stateMutability":"nonpayable"},{"type":"function","name":"instantRedeemLocal","inputs":[{"name":"_srcPoolId","type":"uint16","internalType":"uint16"},{"name":"_amountLP","type":"uint256","internalType":"uint256"},{"name":"_to","type":"address","internalType":"address"}],"outputs":[{"name":"amountSD","type":"uint256","internalType":"uint256"}],"stateMutability":"nonpayable"},{"type":"function","name":"owner","inputs":[],"outputs":[{"name":"","type":"address","internalType":"address"}],"stateMutability":"view"},{"type":"function","name":"rebalance","inputs":[{"name":"_srcOft","type":"address","internalType":"address payable"},{"name":"_dstChainId","type":"uint16","internalType":"uint16"},{"name":"_slippage","type":"uint256","internalType":"uint256"},{"name":"_amount","type":"uint256","internalType":"uint256"},{"name":"_ercData","type":"bytes","internalType":"bytes"}],"outputs":[],"stateMutability":"payable"},{"type":"function","name":"redeemLocal","inputs":[{"name":"_dstChainId","type":"uint16","internalType":"uint16"},{"name":"_srcPoolId","type":"uint256","internalType":"uint256"},{"name":"_dstPoolId","type":"uint256","internalType":"uint256"},{"name":"_refundAddress","type":"address","internalType":"address payable"},{"name":"_amountLP","type":"uint256","internalType":"uint256"},{"name":"_to","type":"bytes","internalType":"bytes"},{"name":"_lzTxParams","type":"tuple","internalType":"struct IStargateRouterBase.lzTxObj","components":[{"name":"dstGasForCall","type":"uint256","internalType":"uint256"},{"name":"dstNativeAmount","type":"uint256","internalType":"uint256"},{"name":"dstNativeAddr","type":"bytes","internalType":"bytes"}]}],"outputs":[],"stateMutability":"payable"},{"type":"function","name":"redeemRemote","inputs":[{"name":"_dstChainId","type":"uint16","internalType":"uint16"},{"name":"_srcPoolId","type":"uint256","internalType":"uint256"},{"name":"_dstPoolId","type":"uint256","internalType":"uint256"},{"name":"_refundAddress","type":"address","internalType":"address payable"},{"name":"_amountLP","type":"uint256","internalType":"uint256"},{"name":"_minAmountLD","type":"uint256","internalType":"uint256"},{"name":"_to","type":"bytes","internalType":"bytes"},{"name":"_lzTxParams","type":"tuple","internalType":"struct IStargateRouterBase.lzTxObj","components":[{"name":"dstGasForCall","type":"uint256","internalType":"uint256"},{"name":"dstNativeAmount","type":"uint256","internalType":"uint256"},{"name":"dstNativeAddr","type":"bytes","internalType":"bytes"}]}],"outputs":[],"stateMutability":"payable"},{"type":"function","name":"retryRevert","inputs":[{"name":"_srcChainId","type":"uint16","internalType":"uint16"},{"name":"_srcAddress","type":"bytes","internalType":"bytes"},{"name":"_nonce","type":"uint256","internalType":"uint256"}],"outputs":[],"stateMutability":"payable"},{"type":"function","name":"router","inputs":[],"outputs":[{"name":"","type":"address","internalType":"contract IStargateRouter"}],"stateMutability":"view"},{"type":"function","name":"routerETH","inputs":[],"outputs":[{"name":"","type":"address","internalType":"contract IStargateRouter"}],"stateMutability":"view"},{"type":"function","name":"setOwner","inputs":[{"name":"newOwner","type":"address","internalType":"address"}],"outputs":[],"stateMutability":"nonpayable"},{"type":"function","name":"setSwapEth","inputs":[{"name":"_val","type":"bool","internalType":"bool"}],"outputs":[],"stateMutability":"nonpayable"},{"type":"event","name":"ConnectedChainUpdated","inputs":[{"name":"_srcOft","type":"address","indexed":true,"internalType":"address"},{"name":"_dstChainId","type":"uint16","indexed":true,"internalType":"uint16"},{"name":"_dstOft","type":"address","indexed":true,"internalType":"address"}],"anonymous":false},{"type":"event","name":"OwnerUpdated","inputs":[{"name":"user","type":"address","indexed":true,"internalType":"address"},{"name":"newOwner","type":"address","indexed":true,"internalType":"address"}],"anonymous":false},{"type":"event","name":"RebalanceAmountUpdated","inputs":[{"name":"_srcOft","type":"address","indexed":true,"internalType":"address"},{"name":"_dstChainId","type":"uint16","indexed":true,"internalType":"uint16"},{"name":"_amount","type":"uint256","indexed":true,"internalType":"uint256"},{"name":"_totalAmount","type":"uint256","indexed":false,"internalType":"uint256"}],"anonymous":false},{"type":"event","name":"Rebalanced","inputs":[{"name":"_srcOft","type":"address","indexed":true,"internalType":"address"},{"name":"_dstChainId","type":"uint16","indexed":true,"internalType":"uint16"},{"name":"_slippage","type":"uint256","indexed":true,"internalType":"uint256"},{"name":"_amount","type":"uint256","indexed":false,"internalType":"uint256"},{"name":"_isNative","type":"bool","indexed":false,"internalType":"bool"}],"anonymous":false},{"type":"error","name":"DestinationNotValid","inputs":[]},{"type":"error","name":"DestinationOftNotValid","inputs":[]},{"type":"error","name":"ExceedsBalance","inputs":[]},{"type":"error","name":"Failed","inputs":[]},{"type":"error","name":"FeeAmountNotSet","inputs":[]},{"type":"error","name":"PoolInfoRequired","inputs":[]},{"type":"error","name":"RebalanceAmountNotSet","inputs":[]},{"type":"error","name":"RouterNotValid","inputs":[]},{"type":"error","name":"SlippageNotValid","inputs":[]},{"type":"error","name":"SwapNotEnabled","inputs":[]}],"bytecode":{"object":"0x60c0346200014c57601f62001afe38819003918201601f19168301916001600160401b0383118484101762000151578084926060946040528339810103126200014c5762000076620000518262000167565b6040620000616020850162000167565b936001600160a01b0393849283920162000167565b16938460018060a01b031960005416176000556040519460007f8292fce18fa69edf4db7b94ea2e58241df0ae57f97e0a6c9b29067028bf92d768180a3169283156200013d57501680156200012b5760805260a05260405161198190816200017d82396080518181816102fc0152610500015260a05181818160ec015281816102690152818161074b0152818161088f0152818161094f01528181610a9701528181610ca501528181610dff01526111490152f35b604051630801eaf160e01b8152600490fd5b630801eaf160e01b8152600490fd5b600080fd5b634e487b7160e01b600052604160045260246000fd5b51906001600160a01b03821682036200014c5756fe6080604052600436101561001b575b361561001957600080fd5b005b6000803560e01c806303d56926146112f45780630a3ccb23146112b057806313af4035146112435780635dd94d4e146111cf57806360a3b95c146110fa578063623c12f814610f7257806380fd898714610e9f57806384d0dba314610d875780638da5cb5b14610d605780638f2e1d1814610c305780639c25e27d1461034e578063a6242fbe1461032b578063bcf8699f146102e6578063c4de93a5146101ff578063dbe480c01461011e5763f887ea40146100d7575061000e565b3461011b578060031936011261011b576040517f00000000000000000000000000000000000000000000000000000000000000006001600160a01b03168152602090f35b80fd5b503461011b57604036600319011261011b57808061013a6114ac565b8154602435916001600160a01b039161015690831633146116d4565b16806101865750818091335af161016b61174a565b50156101745780f35b60405163312d207360e11b8152600490fd5b60405163a9059cbb60e01b81523360048201526024810192909252909260209250839160449183915af19081156101f45782916101c65750156101745780f35b6101e7915060203d81116101ed575b6101df818361155c565b810190611732565b3861016b565b503d6101d5565b6040513d84823e3d90fd5b503461011b57606036600319011261011b576102196114e9565b90602061ffff60646102296114c2565b948460018060a01b036102408183541633146116d4565b80604051988996879563c4de93a560e01b875216600486015260243560248601521660448401527f0000000000000000000000000000000000000000000000000000000000000000165af19081156102da57906102a3575b602090604051908152f35b506020813d82116102d2575b816102bc6020938361155c565b810103126102cd5760209051610298565b600080fd5b3d91506102af565b604051903d90823e3d90fd5b503461011b578060031936011261011b576040517f00000000000000000000000000000000000000000000000000000000000000006001600160a01b03168152602090f35b503461011b578060031936011261011b57602060ff600254166040519015158152f35b5060a036600319011261011b576103636114ac565b61036b6114d8565b9060843567ffffffffffffffff81116106765761038c90369060040161159a565b6103a060018060a01b0385541633146116d4565b6001600160a01b03828116855260016020908152604080872061ffff8716600090815292529020600201541615610c1e57620186a06044351015610c0c5760018060a01b038216845260016020526040842061ffff841660005260205260643560036040600020015410610bfa576001600160a01b0382811680865260016020908152604080882061ffff8816600090815292529020600201546104489286929116906117e8565b15610be8576001600160a01b0382163b156106765760405163411950f360e11b8152606435600482015284908181602481836001600160a01b0389165af180156101f457610bd4575b5050604051633c2f4f4360e11b8152906020826004816001600160a01b0387165afa918215610bc9578592610ba8575b503415610b96576001600160a01b0382166106a2575060ff6002541661069057606435471061067e57836104f760643534611790565b60018060a01b037f0000000000000000000000000000000000000000000000000000000000000000169060018060a01b038516835260016020526040832061ffff8716600052602052600260406000200154604051906001600160601b03199060601b1660208201526014815261056d81611540565b61057b60443560643561188f565b92803b1561067a5760405163088a669560e11b815261ffff8916600482015230602482015260a060448201529385938593849283916105be9060a4840190611625565b906064356064840152608483015203925af180156101f457610662575b50505b60018060a01b038216845260016020526040842061ffff84166000526020526003604060002001610612606435825461170f565b90556040805160643581526001600160a01b039283161560208201526044359461ffff1693909216917f7007030f22ba868c6abdfc92d9c47da38dca4e3c200c2d47043b5f5406bd0c0c9190a480f35b61066b906114fa565b6106765783386105db565b8380fd5b8480fd5b604051637fa62f9d60e01b8152600490fd5b604051637e99d8bb60e01b8152600490fd5b604051633c2f4f4360e11b8152906020826004816001600160a01b0388165afa918215610b8b578692610b5a575b506040516370a0823160e01b81523060048201526020816024816001600160a01b0387165afa908115610b4f578791610b1d575b506064351161067e57806020806107209351830101910161177a565b90606435158015610a79575b15610a155760405163095ea7b360e01b60208201526001600160a01b037f000000000000000000000000000000000000000000000000000000000000000016602482015260648035604480840191909152825288946107f19291610790908361155c565b85806040519361079f85611540565b60208086527f5361666545524332303a206c6f772d6c6576656c2063616c6c206661696c65648682015281519101826001600160a01b0386165af16107e261174a565b916001600160a01b03166118ae565b80518061099b575b505061080960443560643561188f565b6040519061081682611524565b84825284602083015260405161082b81611540565b600381526203078360ec1b6020820152604083015260018060a01b038716855260016020526040852061ffff891660005260205260026040600020015493604051946001600160601b03199060601b1660208601526014855261088d85611540565b7f00000000000000000000000000000000000000000000000000000000000000006001600160a01b03163b156109975761ffff946109148a94604094610926948a9887519a8b996327efc43f60e21b8b521660048a015260248901526044880152306064880152606435608488015260a487015261012060c48701526101248601906117be565b8481036003190160e486015290611625565b61060f60f31b602084830392600319840161010487015260028152015201813460018060a01b037f0000000000000000000000000000000000000000000000000000000000000000165af180156101f457610983575b50506105de565b61098c906114fa565b61067657833861097c565b8580fd5b6109af929450602080918301019101611732565b156109bd57859138806107f9565b60405162461bcd60e51b815260206004820152602a60248201527f5361666545524332303a204552433230206f7065726174696f6e20646964206e6044820152691bdd081cdd58d8d9595960b21b6064820152608490fd5b60405162461bcd60e51b815260206004820152603660248201527f5361666545524332303a20617070726f76652066726f6d206e6f6e2d7a65726f60448201527520746f206e6f6e2d7a65726f20616c6c6f77616e636560501b6064820152608490fd5b50604051636eb1769f60e11b81523060048201526001600160a01b037f0000000000000000000000000000000000000000000000000000000000000000811660248301526020908290604490829088165afa908115610b12578891610ae0575b501561072c565b90506020813d602011610b0a575b81610afb6020938361155c565b810103126102cd575138610ad9565b3d9150610aee565b6040513d8a823e3d90fd5b90506020813d602011610b47575b81610b386020938361155c565b810103126102cd575138610704565b3d9150610b2b565b6040513d89823e3d90fd5b610b7d91925060203d602011610b84575b610b75818361155c565b8101906116b5565b90386106d0565b503d610b6b565b6040513d88823e3d90fd5b604051637b063a8960e11b8152600490fd5b610bc291925060203d602011610b8457610b75818361155c565b90386104c1565b6040513d87823e3d90fd5b610bdd906114fa565b610676578338610491565b604051635e8ea7db60e01b8152600490fd5b60405163bb6a783760e01b8152600490fd5b604051631224b81560e01b8152600490fd5b6040516304889dcf60e01b8152600490fd5b508060031960e036820112610d5d57610c476114e9565b610c4f61160f565b67ffffffffffffffff9260a43584811161099757610c719036906004016115e1565b909460c435908111610d5957610c8b903690600401611665565b9360018060a01b0395610ca28789541633146116d4565b867f00000000000000000000000000000000000000000000000000000000000000001693843b15610d55578896610d23610d329361ffff966040519b8c9a8b998a996311e5c3a360e31b8b521660048a015260243560248a015260443560448a0152166064880152608435608488015260e060a488015260e487019161179d565b918483030160c48501526117be565b039134905af180156101f457610d455750f35b610d4e906114fa565b61011b5780f35b8880fd5b8680fd5b50fd5b503461011b578060031936011261011b57546040516001600160a01b039091168152602090f35b50806003196101003682018113610e9b57610da06114e9565b610da861160f565b9067ffffffffffffffff60c435818111610d5957610dca9036906004016115e1565b92909160e435908111610e9757610de5903690600401611665565b9260018060a01b0396610dfc888a541633146116d4565b877f00000000000000000000000000000000000000000000000000000000000000001694853b15610e9357610e8461ffff95610d32948c9a6040519c8d9b8c9a8b9a6384d0dba360e01b8c521660048b015260243560248b015260443560448b0152166064890152608435608489015260a43560a489015260c488015261010487019161179d565b918483030160e48501526117be565b8980fd5b8780fd5b5050fd5b503461011b57606036600319011261011b57610eb96114ac565b610ec16114d8565b6044359160018060a01b038091169081855260206001815261ffff60408720941693846000528152816002604060002001541615610c1e57610f287f3b100c278a9436e8a77b205a5395872158b05a3f1a0bc5e6052c1d92827c7bd59287541633146116d4565b82865260018152604086208460005281526003604060002001610f4c868254611790565b90558286526001815260408620846000528152600360406000200154604051908152a480f35b503461011b57604036600319011261011b57610f8c6114ac565b90610f956114d8565b604051633c2f4f4360e11b81526020936001600160a01b0390811691606091908681600481875afa908115610b8b5791611066939161107c96959388916110dd575b501615611080575b611058908287526001885261ffff604088209516948560005288526040600381600020015415159784815260018a5220856000528852600360406000200154604051958694639c25e27d60e01b8b870152602486015260448501526103e86064850152608484015260a060a484015260c4830190611625565b03601f19810183528261155c565b6040805194859485528401526040830190611625565b0390f35b50808552600186526110586040862061ffff85169081600052885260406000205490838852600189526040882090600052885260016040600020015460405191898301526040820152604081526110d681611524565b9050610fdf565b6110f49150893d8b11610b8457610b75818361155c565b38610fd7565b50606036600319011261011b5761110f6114e9565b8160243567ffffffffffffffff81116111cb576111309036906004016115e1565b909260018060a01b036111478185541633146116d4565b7f00000000000000000000000000000000000000000000000000000000000000001690813b156106765761ffff906111a360405196879586948594631828ee5760e21b865216600485015260606024850152606484019161179d565b6044356044830152039134905af180156101f4576111bf575080f35b6111c8906114fa565b80f35b5080fd5b503461011b57604036600319011261011b5760809060406111ee6114ac565b916111f76114d8565b60018060a01b038094168252600160205261ffff838320911682526020522090815491600360018201549260028301541691015491604051938452602084015260408301526060820152f35b503461011b57602036600319011261011b5761125d6114ac565b8154906001600160a01b039061127633838516146116d4565b1680916001600160601b0360a01b16178255337f8292fce18fa69edf4db7b94ea2e58241df0ae57f97e0a6c9b29067028bf92d768380a380f35b503461011b57602036600319011261011b576004358015158091036111cb576112e360018060a01b0383541633146116d4565b60ff80196002541691161760025580f35b503461011b57608036600319011261011b5761130e6114ac565b6113166114d8565b9061131f6114c2565b9167ffffffffffffffff6064358181116109975761134190369060040161159a565b9160018060a01b03946113588688541633146116d4565b604051633c2f4f4360e11b8152602095808816959187816004818a5afa80156114a15789918b91611484575b501615158061147b575b61146957838361139d926117e8565b15610be8578086806113b49351830101910161177a565b96906040519460808601908682109082111761145557906003949392916040528552868501978852806040860192169788835260608601938a8552878b526001895261ffff60408c20911698898c525260408a2095518655516001860155600285019151166001600160601b0360a01b825416179055519101557f977b844ab5bd8c7c7282986679102e8c18c4374f0560736566e58661327219178480a480f35b634e487b7160e01b8a52604160045260248afd5b60405163c804944560e01b8152600490fd5b5081511561138e565b61149b9150893d8b11610b8457610b75818361155c565b38611384565b6040513d8c823e3d90fd5b600435906001600160a01b03821682036102cd57565b604435906001600160a01b03821682036102cd57565b6024359061ffff821682036102cd57565b6004359061ffff821682036102cd57565b67ffffffffffffffff811161150e57604052565b634e487b7160e01b600052604160045260246000fd5b6060810190811067ffffffffffffffff82111761150e57604052565b6040810190811067ffffffffffffffff82111761150e57604052565b90601f8019910116810190811067ffffffffffffffff82111761150e57604052565b67ffffffffffffffff811161150e57601f01601f191660200190565b81601f820112156102cd578035906115b18261157e565b926115bf604051948561155c565b828452602083830101116102cd57816000926020809301838601378301015290565b9181601f840112156102cd5782359167ffffffffffffffff83116102cd57602083818601950101116102cd57565b606435906001600160a01b03821682036102cd57565b919082519283825260005b848110611651575050826000602080949584010152601f8019910116010190565b602081830181015184830182015201611630565b91906060838203126102cd576040519061167e82611524565b8193803583526020810135602084015260408101359167ffffffffffffffff83116102cd576040926116b0920161159a565b910152565b908160209103126102cd57516001600160a01b03811681036102cd5790565b156116db57565b60405162461bcd60e51b815260206004820152600c60248201526b15539055551213d49256915160a21b6044820152606490fd5b9190820391821161171c57565b634e487b7160e01b600052601160045260246000fd5b908160209103126102cd575180151581036102cd5790565b3d15611775573d9061175b8261157e565b91611769604051938461155c565b82523d6000602084013e565b606090565b91908260409103126102cd576020825192015190565b9190820180921161171c57565b908060209392818452848401376000828201840152601f01601f1916010190565b90606060406117e59380518452602081015160208501520151918160408201520190611625565b90565b9060209161ffff61184c94604051936001600160601b0319809160601b16868601528360601b1660348501526028845261182184611524565b60405195869485938493631ec59c7b60e11b8552166004840152604060248401526044830190611625565b03916001600160a01b03165afa9081156118835760009161186b575090565b6117e5915060203d81116101ed576101df818361155c565b6040513d6000823e3d90fd5b81810291818304148115171561171c57620186a06117e592049061170f565b9192901561191057508151156118c2575090565b3b156118cb5790565b60405162461bcd60e51b815260206004820152601d60248201527f416464726573733a2063616c6c20746f206e6f6e2d636f6e74726163740000006044820152606490fd5b8251909150156119235750805190602001fd5b60405162461bcd60e51b815260206004820152908190611947906024830190611625565b0390fdfea2646970667358221220ca6d16b3f4e030ea11b86a86bf2a8b3e63bf0cc99841479c9d64629f32f6189d64736f6c63430008130033","linkReferences":{}},"methodIdentifiers":{"addRebalanceAmount(address,uint16,uint256)":"80fd8987","checker(address,uint16)":"623c12f8","connectedOFTs(address,uint16)":"5dd94d4e","disableEth()":"a6242fbe","emergencySaveTokens(address,uint256)":"dbe480c0","initConnectedOFT(address,uint16,address,bytes)":"03d56926","instantRedeemLocal(uint16,uint256,address)":"c4de93a5","owner()":"8da5cb5b","rebalance(address,uint16,uint256,uint256,bytes)":"9c25e27d","redeemLocal(uint16,uint256,uint256,address,uint256,bytes,(uint256,uint256,bytes))":"8f2e1d18","redeemRemote(uint16,uint256,uint256,address,uint256,uint256,bytes,(uint256,uint256,bytes))":"84d0dba3","retryRevert(uint16,bytes,uint256)":"60a3b95c","router()":"f887ea40","routerETH()":"bcf8699f","setOwner(address)":"13af4035","setSwapEth(bool)":"0a3ccb23"},"id":0}