{"abi":[{"type":"constructor","inputs":[{"name":"_lzEndpoint","type":"address","internalType":"address"},{"name":"_erc20","type":"address","internalType":"address"},{"name":"_yieldBox","type":"address","internalType":"contract IYieldBoxBase"},{"name":"_cluster","type":"address","internalType":"contract ICluster"},{"name":"_name","type":"string","internalType":"string"},{"name":"_symbol","type":"string","internalType":"string"},{"name":"_decimal","type":"uint8","internalType":"uint8"},{"name":"_hostChainID","type":"uint256","internalType":"uint256"}],"stateMutability":"nonpayable"},{"type":"receive","stateMutability":"payable"},{"type":"function","name":"DEFAULT_PAYLOAD_SIZE_LIMIT","inputs":[],"outputs":[{"name":"","type":"uint256","internalType":"uint256"}],"stateMutability":"view"},{"type":"function","name":"NO_EXTRA_GAS","inputs":[],"outputs":[{"name":"","type":"uint256","internalType":"uint256"}],"stateMutability":"view"},{"type":"function","name":"PT_SEND","inputs":[],"outputs":[{"name":"","type":"uint8","internalType":"uint8"}],"stateMutability":"view"},{"type":"function","name":"PT_SEND_AND_CALL","inputs":[],"outputs":[{"name":"","type":"uint8","internalType":"uint8"}],"stateMutability":"view"},{"type":"function","name":"SWAP_MAX_SLIPPAGE","inputs":[],"outputs":[{"name":"","type":"uint256","internalType":"uint256"}],"stateMutability":"view"},{"type":"function","name":"allowance","inputs":[{"name":"owner","type":"address","internalType":"address"},{"name":"spender","type":"address","internalType":"address"}],"outputs":[{"name":"","type":"uint256","internalType":"uint256"}],"stateMutability":"view"},{"type":"function","name":"approve","inputs":[{"name":"spender","type":"address","internalType":"address"},{"name":"amount","type":"uint256","internalType":"uint256"}],"outputs":[{"name":"","type":"bool","internalType":"bool"}],"stateMutability":"nonpayable"},{"type":"function","name":"balanceOf","inputs":[{"name":"account","type":"address","internalType":"address"}],"outputs":[{"name":"","type":"uint256","internalType":"uint256"}],"stateMutability":"view"},{"type":"function","name":"callOnOFTReceived","inputs":[{"name":"_srcChainId","type":"uint16","internalType":"uint16"},{"name":"_srcAddress","type":"bytes","internalType":"bytes"},{"name":"_nonce","type":"uint64","internalType":"uint64"},{"name":"_from","type":"bytes32","internalType":"bytes32"},{"name":"_to","type":"address","internalType":"address"},{"name":"_amount","type":"uint256","internalType":"uint256"},{"name":"_payload","type":"bytes","internalType":"bytes"},{"name":"_gasForCall","type":"uint256","internalType":"uint256"}],"outputs":[],"stateMutability":"nonpayable"},{"type":"function","name":"circulatingSupply","inputs":[],"outputs":[{"name":"","type":"uint256","internalType":"uint256"}],"stateMutability":"view"},{"type":"function","name":"cluster","inputs":[],"outputs":[{"name":"","type":"address","internalType":"contract ICluster"}],"stateMutability":"view"},{"type":"function","name":"creditedPackets","inputs":[{"name":"","type":"uint16","internalType":"uint16"},{"name":"","type":"bytes","internalType":"bytes"},{"name":"","type":"uint64","internalType":"uint64"}],"outputs":[{"name":"","type":"bool","internalType":"bool"}],"stateMutability":"view"},{"type":"function","name":"decimals","inputs":[],"outputs":[{"name":"","type":"uint8","internalType":"uint8"}],"stateMutability":"view"},{"type":"function","name":"decreaseAllowance","inputs":[{"name":"spender","type":"address","internalType":"address"},{"name":"subtractedValue","type":"uint256","internalType":"uint256"}],"outputs":[{"name":"","type":"bool","internalType":"bool"}],"stateMutability":"nonpayable"},{"type":"function","name":"erc20","inputs":[],"outputs":[{"name":"","type":"address","internalType":"address"}],"stateMutability":"view"},{"type":"function","name":"estimateSendAndCallFee","inputs":[{"name":"_dstChainId","type":"uint16","internalType":"uint16"},{"name":"_toAddress","type":"bytes32","internalType":"bytes32"},{"name":"_amount","type":"uint256","internalType":"uint256"},{"name":"_payload","type":"bytes","internalType":"bytes"},{"name":"_dstGasForCall","type":"uint64","internalType":"uint64"},{"name":"_useZro","type":"bool","internalType":"bool"},{"name":"_adapterParams","type":"bytes","internalType":"bytes"}],"outputs":[{"name":"nativeFee","type":"uint256","internalType":"uint256"},{"name":"zroFee","type":"uint256","internalType":"uint256"}],"stateMutability":"view"},{"type":"function","name":"estimateSendFee","inputs":[{"name":"_dstChainId","type":"uint16","internalType":"uint16"},{"name":"_toAddress","type":"bytes32","internalType":"bytes32"},{"name":"_amount","type":"uint256","internalType":"uint256"},{"name":"_useZro","type":"bool","internalType":"bool"},{"name":"_adapterParams","type":"bytes","internalType":"bytes"}],"outputs":[{"name":"nativeFee","type":"uint256","internalType":"uint256"},{"name":"zroFee","type":"uint256","internalType":"uint256"}],"stateMutability":"view"},{"type":"function","name":"exerciseOption","inputs":[{"name":"optionsData","type":"tuple","internalType":"struct ITapiocaOptionsBrokerCrossChain.IExerciseOptionsData","components":[{"name":"from","type":"address","internalType":"address"},{"name":"target","type":"address","internalType":"address"},{"name":"paymentTokenAmount","type":"uint256","internalType":"uint256"},{"name":"oTAPTokenID","type":"uint256","internalType":"uint256"},{"name":"paymentToken","type":"address","internalType":"address"},{"name":"tapAmount","type":"uint256","internalType":"uint256"}]},{"name":"lzData","type":"tuple","internalType":"struct ITapiocaOptionsBrokerCrossChain.IExerciseLZData","components":[{"name":"lzDstChainId","type":"uint16","internalType":"uint16"},{"name":"zroPaymentAddress","type":"address","internalType":"address"},{"name":"extraGas","type":"uint256","internalType":"uint256"}]},{"name":"tapSendData","type":"tuple","internalType":"struct ITapiocaOptionsBrokerCrossChain.IExerciseLZSendTapData","components":[{"name":"withdrawOnAnotherChain","type":"bool","internalType":"bool"},{"name":"tapOftAddress","type":"address","internalType":"address"},{"name":"lzDstChainId","type":"uint16","internalType":"uint16"},{"name":"amount","type":"uint256","internalType":"uint256"},{"name":"zroPaymentAddress","type":"address","internalType":"address"},{"name":"extraGas","type":"uint256","internalType":"uint256"}]},{"name":"approvals","type":"tuple[]","internalType":"struct ICommonData.IApproval[]","components":[{"name":"permitAll","type":"bool","internalType":"bool"},{"name":"allowFailure","type":"bool","internalType":"bool"},{"name":"yieldBoxTypeApproval","type":"bool","internalType":"bool"},{"name":"revokeYieldBox","type":"bool","internalType":"bool"},{"name":"actionType","type":"uint16","internalType":"uint16"},{"name":"target","type":"address","internalType":"address"},{"name":"permitBorrow","type":"bool","internalType":"bool"},{"name":"owner","type":"address","internalType":"address"},{"name":"spender","type":"address","internalType":"address"},{"name":"value","type":"uint256","internalType":"uint256"},{"name":"deadline","type":"uint256","internalType":"uint256"},{"name":"v","type":"uint8","internalType":"uint8"},{"name":"r","type":"bytes32","internalType":"bytes32"},{"name":"s","type":"bytes32","internalType":"bytes32"}]},{"name":"revokes","type":"tuple[]","internalType":"struct ICommonData.IApproval[]","components":[{"name":"permitAll","type":"bool","internalType":"bool"},{"name":"allowFailure","type":"bool","internalType":"bool"},{"name":"yieldBoxTypeApproval","type":"bool","internalType":"bool"},{"name":"revokeYieldBox","type":"bool","internalType":"bool"},{"name":"actionType","type":"uint16","internalType":"uint16"},{"name":"target","type":"address","internalType":"address"},{"name":"permitBorrow","type":"bool","internalType":"bool"},{"name":"owner","type":"address","internalType":"address"},{"name":"spender","type":"address","internalType":"address"},{"name":"value","type":"uint256","internalType":"uint256"},{"name":"deadline","type":"uint256","internalType":"uint256"},{"name":"v","type":"uint8","internalType":"uint8"},{"name":"r","type":"bytes32","internalType":"bytes32"},{"name":"s","type":"bytes32","internalType":"bytes32"}]},{"name":"adapterParams","type":"bytes","internalType":"bytes"}],"outputs":[],"stateMutability":"payable"},{"type":"function","name":"failedMessages","inputs":[{"name":"","type":"uint16","internalType":"uint16"},{"name":"","type":"bytes","internalType":"bytes"},{"name":"","type":"uint64","internalType":"uint64"}],"outputs":[{"name":"","type":"bytes32","internalType":"bytes32"}],"stateMutability":"view"},{"type":"function","name":"forceResumeReceive","inputs":[{"name":"_srcChainId","type":"uint16","internalType":"uint16"},{"name":"_srcAddress","type":"bytes","internalType":"bytes"}],"outputs":[],"stateMutability":"nonpayable"},{"type":"function","name":"getConfig","inputs":[{"name":"_version","type":"uint16","internalType":"uint16"},{"name":"_chainId","type":"uint16","internalType":"uint16"},{"name":"","type":"address","internalType":"address"},{"name":"_configType","type":"uint256","internalType":"uint256"}],"outputs":[{"name":"","type":"bytes","internalType":"bytes"}],"stateMutability":"view"},{"type":"function","name":"getTrustedRemoteAddress","inputs":[{"name":"_remoteChainId","type":"uint16","internalType":"uint16"}],"outputs":[{"name":"","type":"bytes","internalType":"bytes"}],"stateMutability":"view"},{"type":"function","name":"hostChainID","inputs":[],"outputs":[{"name":"","type":"uint256","internalType":"uint256"}],"stateMutability":"view"},{"type":"function","name":"increaseAllowance","inputs":[{"name":"spender","type":"address","internalType":"address"},{"name":"addedValue","type":"uint256","internalType":"uint256"}],"outputs":[{"name":"","type":"bool","internalType":"bool"}],"stateMutability":"nonpayable"},{"type":"function","name":"isTrustedRemote","inputs":[{"name":"_srcChainId","type":"uint16","internalType":"uint16"},{"name":"_srcAddress","type":"bytes","internalType":"bytes"}],"outputs":[{"name":"","type":"bool","internalType":"bool"}],"stateMutability":"view"},{"type":"function","name":"lzEndpoint","inputs":[],"outputs":[{"name":"","type":"address","internalType":"contract ILayerZeroEndpoint"}],"stateMutability":"view"},{"type":"function","name":"lzReceive","inputs":[{"name":"_srcChainId","type":"uint16","internalType":"uint16"},{"name":"_srcAddress","type":"bytes","internalType":"bytes"},{"name":"_nonce","type":"uint64","internalType":"uint64"},{"name":"_payload","type":"bytes","internalType":"bytes"}],"outputs":[],"stateMutability":"nonpayable"},{"type":"function","name":"minDstGasLookup","inputs":[{"name":"","type":"uint16","internalType":"uint16"},{"name":"","type":"uint16","internalType":"uint16"}],"outputs":[{"name":"","type":"uint256","internalType":"uint256"}],"stateMutability":"view"},{"type":"function","name":"name","inputs":[],"outputs":[{"name":"","type":"string","internalType":"string"}],"stateMutability":"view"},{"type":"function","name":"nonblockingLzReceive","inputs":[{"name":"_srcChainId","type":"uint16","internalType":"uint16"},{"name":"_srcAddress","type":"bytes","internalType":"bytes"},{"name":"_nonce","type":"uint64","internalType":"uint64"},{"name":"_payload","type":"bytes","internalType":"bytes"}],"outputs":[],"stateMutability":"nonpayable"},{"type":"function","name":"owner","inputs":[],"outputs":[{"name":"","type":"address","internalType":"address"}],"stateMutability":"view"},{"type":"function","name":"payloadSizeLimitLookup","inputs":[{"name":"","type":"uint16","internalType":"uint16"}],"outputs":[{"name":"","type":"uint256","internalType":"uint256"}],"stateMutability":"view"},{"type":"function","name":"precrime","inputs":[],"outputs":[{"name":"","type":"address","internalType":"address"}],"stateMutability":"view"},{"type":"function","name":"renounceOwnership","inputs":[],"outputs":[],"stateMutability":"nonpayable"},{"type":"function","name":"retryMessage","inputs":[{"name":"_srcChainId","type":"uint16","internalType":"uint16"},{"name":"_srcAddress","type":"bytes","internalType":"bytes"},{"name":"_nonce","type":"uint64","internalType":"uint64"},{"name":"_payload","type":"bytes","internalType":"bytes"}],"outputs":[],"stateMutability":"payable"},{"type":"function","name":"sendAndCall","inputs":[{"name":"_from","type":"address","internalType":"address"},{"name":"_dstChainId","type":"uint16","internalType":"uint16"},{"name":"_toAddress","type":"bytes32","internalType":"bytes32"},{"name":"_amount","type":"uint256","internalType":"uint256"},{"name":"_payload","type":"bytes","internalType":"bytes"},{"name":"_dstGasForCall","type":"uint64","internalType":"uint64"},{"name":"_callParams","type":"tuple","internalType":"struct ICommonOFT.LzCallParams","components":[{"name":"refundAddress","type":"address","internalType":"address payable"},{"name":"zroPaymentAddress","type":"address","internalType":"address"},{"name":"adapterParams","type":"bytes","internalType":"bytes"}]}],"outputs":[],"stateMutability":"payable"},{"type":"function","name":"sendFrom","inputs":[{"name":"_from","type":"address","internalType":"address"},{"name":"_dstChainId","type":"uint16","internalType":"uint16"},{"name":"_toAddress","type":"bytes32","internalType":"bytes32"},{"name":"_amount","type":"uint256","internalType":"uint256"},{"name":"_callParams","type":"tuple","internalType":"struct ICommonOFT.LzCallParams","components":[{"name":"refundAddress","type":"address","internalType":"address payable"},{"name":"zroPaymentAddress","type":"address","internalType":"address"},{"name":"adapterParams","type":"bytes","internalType":"bytes"}]}],"outputs":[],"stateMutability":"payable"},{"type":"function","name":"setConfig","inputs":[{"name":"_version","type":"uint16","internalType":"uint16"},{"name":"_chainId","type":"uint16","internalType":"uint16"},{"name":"_configType","type":"uint256","internalType":"uint256"},{"name":"_config","type":"bytes","internalType":"bytes"}],"outputs":[],"stateMutability":"nonpayable"},{"type":"function","name":"setMaxSlippage","inputs":[{"name":"_slippage","type":"uint256","internalType":"uint256"}],"outputs":[],"stateMutability":"nonpayable"},{"type":"function","name":"setMinDstGas","inputs":[{"name":"_dstChainId","type":"uint16","internalType":"uint16"},{"name":"_packetType","type":"uint16","internalType":"uint16"},{"name":"_minGas","type":"uint256","internalType":"uint256"}],"outputs":[],"stateMutability":"nonpayable"},{"type":"function","name":"setPayloadSizeLimit","inputs":[{"name":"_dstChainId","type":"uint16","internalType":"uint16"},{"name":"_size","type":"uint256","internalType":"uint256"}],"outputs":[],"stateMutability":"nonpayable"},{"type":"function","name":"setPrecrime","inputs":[{"name":"_precrime","type":"address","internalType":"address"}],"outputs":[],"stateMutability":"nonpayable"},{"type":"function","name":"setReceiveVersion","inputs":[{"name":"_version","type":"uint16","internalType":"uint16"}],"outputs":[],"stateMutability":"nonpayable"},{"type":"function","name":"setSendVersion","inputs":[{"name":"_version","type":"uint16","internalType":"uint16"}],"outputs":[],"stateMutability":"nonpayable"},{"type":"function","name":"setTrustedRemote","inputs":[{"name":"_srcChainId","type":"uint16","internalType":"uint16"},{"name":"_path","type":"bytes","internalType":"bytes"}],"outputs":[],"stateMutability":"nonpayable"},{"type":"function","name":"setTrustedRemoteAddress","inputs":[{"name":"_remoteChainId","type":"uint16","internalType":"uint16"},{"name":"_remoteAddress","type":"bytes","internalType":"bytes"}],"outputs":[],"stateMutability":"nonpayable"},{"type":"function","name":"setUseCustomAdapterParams","inputs":[{"name":"_useCustomAdapterParams","type":"bool","internalType":"bool"}],"outputs":[],"stateMutability":"nonpayable"},{"type":"function","name":"sharedDecimals","inputs":[],"outputs":[{"name":"","type":"uint8","internalType":"uint8"}],"stateMutability":"view"},{"type":"function","name":"supportsInterface","inputs":[{"name":"interfaceId","type":"bytes4","internalType":"bytes4"}],"outputs":[{"name":"","type":"bool","internalType":"bool"}],"stateMutability":"view"},{"type":"function","name":"symbol","inputs":[],"outputs":[{"name":"","type":"string","internalType":"string"}],"stateMutability":"view"},{"type":"function","name":"token","inputs":[],"outputs":[{"name":"","type":"address","internalType":"address"}],"stateMutability":"view"},{"type":"function","name":"totalSupply","inputs":[],"outputs":[{"name":"","type":"uint256","internalType":"uint256"}],"stateMutability":"view"},{"type":"function","name":"transfer","inputs":[{"name":"to","type":"address","internalType":"address"},{"name":"amount","type":"uint256","internalType":"uint256"}],"outputs":[{"name":"","type":"bool","internalType":"bool"}],"stateMutability":"nonpayable"},{"type":"function","name":"transferFrom","inputs":[{"name":"from","type":"address","internalType":"address"},{"name":"to","type":"address","internalType":"address"},{"name":"amount","type":"uint256","internalType":"uint256"}],"outputs":[{"name":"","type":"bool","internalType":"bool"}],"stateMutability":"nonpayable"},{"type":"function","name":"transferOwnership","inputs":[{"name":"newOwner","type":"address","internalType":"address"}],"outputs":[],"stateMutability":"nonpayable"},{"type":"function","name":"trustedRemoteLookup","inputs":[{"name":"","type":"uint16","internalType":"uint16"}],"outputs":[{"name":"","type":"bytes","internalType":"bytes"}],"stateMutability":"view"},{"type":"function","name":"useCustomAdapterParams","inputs":[],"outputs":[{"name":"","type":"bool","internalType":"bool"}],"stateMutability":"view"},{"type":"function","name":"yieldBox","inputs":[],"outputs":[{"name":"","type":"address","internalType":"contract IYieldBoxBase"}],"stateMutability":"view"},{"type":"event","name":"Approval","inputs":[{"name":"owner","type":"address","indexed":true,"internalType":"address"},{"name":"spender","type":"address","indexed":true,"internalType":"address"},{"name":"value","type":"uint256","indexed":false,"internalType":"uint256"}],"anonymous":false},{"type":"event","name":"CallOFTReceivedSuccess","inputs":[{"name":"_srcChainId","type":"uint16","indexed":true,"internalType":"uint16"},{"name":"_srcAddress","type":"bytes","indexed":false,"internalType":"bytes"},{"name":"_nonce","type":"uint64","indexed":false,"internalType":"uint64"},{"name":"_hash","type":"bytes32","indexed":false,"internalType":"bytes32"}],"anonymous":false},{"type":"event","name":"MessageFailed","inputs":[{"name":"_srcChainId","type":"uint16","indexed":false,"internalType":"uint16"},{"name":"_srcAddress","type":"bytes","indexed":false,"internalType":"bytes"},{"name":"_nonce","type":"uint64","indexed":false,"internalType":"uint64"},{"name":"_payload","type":"bytes","indexed":false,"internalType":"bytes"},{"name":"_reason","type":"bytes","indexed":false,"internalType":"bytes"}],"anonymous":false},{"type":"event","name":"NonContractAddress","inputs":[{"name":"_address","type":"address","indexed":false,"internalType":"address"}],"anonymous":false},{"type":"event","name":"OwnershipTransferred","inputs":[{"name":"previousOwner","type":"address","indexed":true,"internalType":"address"},{"name":"newOwner","type":"address","indexed":true,"internalType":"address"}],"anonymous":false},{"type":"event","name":"ReceiveFromChain","inputs":[{"name":"_srcChainId","type":"uint16","indexed":true,"internalType":"uint16"},{"name":"_to","type":"address","indexed":true,"internalType":"address"},{"name":"_amount","type":"uint256","indexed":false,"internalType":"uint256"}],"anonymous":false},{"type":"event","name":"RetryMessageSuccess","inputs":[{"name":"_srcChainId","type":"uint16","indexed":false,"internalType":"uint16"},{"name":"_srcAddress","type":"bytes","indexed":false,"internalType":"bytes"},{"name":"_nonce","type":"uint64","indexed":false,"internalType":"uint64"},{"name":"_payloadHash","type":"bytes32","indexed":false,"internalType":"bytes32"}],"anonymous":false},{"type":"event","name":"SendToChain","inputs":[{"name":"_dstChainId","type":"uint16","indexed":true,"internalType":"uint16"},{"name":"_from","type":"address","indexed":true,"internalType":"address"},{"name":"_toAddress","type":"bytes32","indexed":true,"internalType":"bytes32"},{"name":"_amount","type":"uint256","indexed":false,"internalType":"uint256"}],"anonymous":false},{"type":"event","name":"SetMinDstGas","inputs":[{"name":"_dstChainId","type":"uint16","indexed":false,"internalType":"uint16"},{"name":"_type","type":"uint16","indexed":false,"internalType":"uint16"},{"name":"_minDstGas","type":"uint256","indexed":false,"internalType":"uint256"}],"anonymous":false},{"type":"event","name":"SetPrecrime","inputs":[{"name":"precrime","type":"address","indexed":false,"internalType":"address"}],"anonymous":false},{"type":"event","name":"SetTrustedRemote","inputs":[{"name":"_remoteChainId","type":"uint16","indexed":false,"internalType":"uint16"},{"name":"_path","type":"bytes","indexed":false,"internalType":"bytes"}],"anonymous":false},{"type":"event","name":"SetTrustedRemoteAddress","inputs":[{"name":"_remoteChainId","type":"uint16","indexed":false,"internalType":"uint16"},{"name":"_remoteAddress","type":"bytes","indexed":false,"internalType":"bytes"}],"anonymous":false},{"type":"event","name":"SetUseCustomAdapterParams","inputs":[{"name":"_useCustomAdapterParams","type":"bool","indexed":false,"internalType":"bool"}],"anonymous":false},{"type":"event","name":"Transfer","inputs":[{"name":"from","type":"address","indexed":true,"internalType":"address"},{"name":"to","type":"address","indexed":true,"internalType":"address"},{"name":"value","type":"uint256","indexed":false,"internalType":"uint256"}],"anonymous":false},{"type":"error","name":"ActionTypeNotValid","inputs":[]},{"type":"error","name":"AllowanceNotValid","inputs":[]},{"type":"error","name":"NotAuthorized","inputs":[]},{"type":"error","name":"NotValid","inputs":[]}],"bytecode":{"object":"0x60e06040908082523462000598576200496f80380380916200002282856200059d565b833981016101008282031262000598576200003d82620005d7565b906020926200004e848201620005d7565b818601516001600160a01b03808216949290918590036200059857606084015196828816809803620005985760808501516001600160401b0394908581116200059857816200009f91880162000611565b9060a0870151908682116200059857620000bb91880162000611565b9160c087015160ff811696878203620005985762000116602b60e08f9b01519a5180966a546170696f63614f46542d60a81b878301526200010581518092898686019101620005ec565b810103600b8101875201856200059d565b607f8d518096601d60fa1b868301526200013a8151809288602186019101620005ec565b810103926200015460216001958681018a5201886200059d565b831c16936000958887549d60018060a01b03199e8f33908216178a55823391167f8be0079c531659141344cd1fd0a4f28419497f9722a3daafe3b4186f6b6457e08b80a3166080528560a05281518381116200058457600b54928584811c9416801562000579575b8785101462000565578190601f9485811162000511575b508790858311600114620004ab578a926200049f575b5050600019600383901b1c191690851b17600b555b80519283116200048b57600c548481811c9116801562000480575b868210146200046c5782811162000423575b5084918311600114620003bd579282939183928894620003b1575b50501b916000199060031b1c191617600c555b601282116200035e575060120360ff81116200034a5760ff1690604d8211620003365750600a0a60c0526101f46012551684600f541617600f5560ff19601154161760115560105581600d541617600d55600e541617600e555161430290816200066d823960805181818161049101528181610777015281816108a601528181610a2001528181610be101528181611a9e01528181611bae015281816122e70152818161269f01528181612f65015261341b015260a0518161150f015260c051818181613661015281816138f801528181613bab0152613c450152f35b634e487b7160e01b81526011600452602490fd5b634e487b7160e01b82526011600452602482fd5b6084908b519062461bcd60e51b82526004820152602760248201527f4f46543a20736861726564446563696d616c73206d757374206265203c3d20646044820152666563696d616c7360c81b6064820152fd5b01519250388062000246565b600c8752848720919083601f198116895b88888383106200040b5750505010620003f1575b505050811b01600c5562000259565b015160001960f88460031b161c19169055388080620003e2565b868601518855909601959485019487935001620003ce565b600c88528588208380860160051c82019288871062000462575b0160051c019085905b828110620004565750506200022b565b89815501859062000446565b925081926200043d565b634e487b7160e01b88526022600452602488fd5b90607f169062000219565b634e487b7160e01b87526041600452602487fd5b015190503880620001e9565b600b8b52888b208894509190601f1984168c5b8b828210620004fa5750508411620004e0575b505050811b01600b55620001fe565b015160001960f88460031b161c19169055388080620004d1565b8385015186558b97909501949384019301620004be565b909150600b8a52878a208580850160051c8201928a86106200055b575b918991869594930160051c01915b8281106200054c575050620001d3565b8c81558594508991016200053c565b925081926200052e565b634e487b7160e01b89526022600452602489fd5b93607f1693620001bc565b634e487b7160e01b88526041600452602488fd5b600080fd5b601f909101601f19168101906001600160401b03821190821017620005c157604052565b634e487b7160e01b600052604160045260246000fd5b51906001600160a01b03821682036200059857565b60005b838110620006005750506000910152565b8181015183820152602001620005ef565b81601f82011215620005985780516001600160401b038111620005c1576040519262000648601f8301601f1916602001856200059d565b818452602082840101116200059857620006699160208085019101620005ec565b9056fe6080604052600436101561001b575b361561001957600080fd5b005b60003560e01c80621d3567146103af57806254af3a146103aa57806301ffc9a7146103a557806306fdde03146103a057806307e0db171461039b578063095ea7b3146103965780630df374831461039157806310ddb1371461038c57806318160ddd1461031e57806323b872dd14610387578063313ce56714610382578063365260b41461037d57806339509351146103785780633d8b38f6146103735780633f1f4fa41461036e57806342d65a8d1461036957806343f68a4914610364578063447705151461035f5780634c42899a1461035f5780634e8eeae91461035a5780635b8c41e61461035557806366ad5c8a14610350578063695ef6bf1461034b57806370a0823114610346578063715018a6146103415780637533d7881461033c57806376203b4814610337578063785e9e8614610332578063857749b01461032d5780638cfd8f5c146103285780638da5cb5b146103235780639358928b1461031e578063950c8a741461031957806395d89b41146103145780639bdb98121461030f5780639f38369a1461030a578063a457c2d714610305578063a4c51df514610300578063a643c52e146102fb578063a6c3d165146102f6578063a9059cbb146102f1578063b353aaa7146102ec578063baf3292d146102e7578063c4461834146102e2578063cbed8b9c146102dd578063d1deba1f146102d8578063dbd01de1146102d3578063dd62ed3e146102ce578063de406577146102c9578063df2a5b3b146102c4578063e6a20ae6146102bf578063eab45d9c146102ba578063eaffd49a146102b5578063eb8d72b7146102b0578063ed629c5c146102ab578063f2fde38b146102a6578063f5ecbdbc146102a15763fc0c546a0361000e57612351565b61227d565b6121b6565b612193565b612049565b611fc0565b611f5e565b611f42565b611e55565b611e2c565b611dd2565b611da9565b611c46565b611b5a565b611b3d565b611acd565b611a88565b611a5e565b6118db565b6118bd565b61182a565b61176c565b6116c9565b61167e565b6115d7565b6115ae565b610907565b611585565b611533565b6114f5565b6114cc565b6112ae565b611257565b611111565b6110d4565b610ff1565b610f6b565b610f04565b610d52565b610c69565b610c48565b610bc7565b610b8e565b610b32565b610a9e565b610996565b610965565b610925565b61087d565b61083e565b610809565b61074e565b610669565b6105b7565b610599565b61047a565b61ffff8116036103c057565b600080fd5b35906103d0826103b4565b565b9181601f840112156103c0578235916001600160401b0383116103c057602083818601950101116103c057565b608435906001600160401b03821682036103c057565b9060806003198301126103c05760043561042e816103b4565b916001600160401b03906024358281116103c0578161044f916004016103d2565b9390939260443581811681036103c057926064359182116103c057610476916004016103d2565b9091565b346103c05761048836610415565b929493919291907f00000000000000000000000000000000000000000000000000000000000000006001600160a01b031633036105495761050e61051692610019976105076104ed6104e88a61ffff166000526001602052604060002090565b61123c565b805190818414918261053f575b508161051c575b50612e6e565b3691610e4e565b923691610e4e565b926131af565b9050610529368486610e4e565b6020815191012090602081519101201438610501565b15159150386104fa565b60405162461bcd60e51b815260206004820152601e60248201527f4c7a4170703a20696e76616c696420656e64706f696e742063616c6c657200006044820152606490fd5b60009103126103c057565b346103c05760003660031901126103c0576020601054604051908152f35b346103c05760203660031901126103c05760043563ffffffff60e01b81168091036103c057602090631f7ecdf760e01b81149081156105fc575b506040519015158152f35b6301ffc9a760e01b149050386105f1565b60005b8381106106205750506000910152565b8181015183820152602001610610565b906020916106498151809281855285808601910161060d565b601f01601f1916010190565b906020610666928181520190610630565b90565b346103c05760008060031936011261074b576040519080600b5461068c8161116c565b8085529160019180831690811561072157506001146106c6575b6106c2856106b681870382610cce565b60405191829182610655565b0390f35b9250600b83527f0175b7a638427703f0dbe7bb9bbf987a2551717b34e79f33b5b1008d1fa01db95b8284106107095750505081016020016106b6826106c26106a6565b805460208587018101919091529093019281016106ee565b8695506106c2969350602092506106b694915060ff191682840152151560051b82010192936106a6565b80fd5b346103c0576000602036600319011261074b5760043561076d816103b4565b61077561292b565b7f00000000000000000000000000000000000000000000000000000000000000006001600160a01b0316908290823b156107e957602461ffff918360405195869485936307e0db1760e01b85521660048401525af180156107e4576107d8575080f35b6107e190610c9b565b80f35b612395565b5080fd5b6001600160a01b038116036103c057565b35906103d0826107ed565b346103c05760403660031901126103c057610833600435610829816107ed565b6024359033612b7d565b602060405160018152f35b346103c05760403660031901126103c05761ffff60043561085e816103b4565b61086661292b565b166000526003602052602435604060002055600080f35b346103c0576000602036600319011261074b5760043561089c816103b4565b6108a461292b565b7f00000000000000000000000000000000000000000000000000000000000000006001600160a01b0316908290823b156107e957602461ffff918360405195869485936310ddb13760e01b85521660048401525af180156107e4576107d8575080f35b346103c05760003660031901126103c0576020600a54604051908152f35b346103c05760603660031901126103c057610833600435610945816107ed565b602435610951816107ed565b60443591610960833383612ca8565b612a75565b346103c05760003660031901126103c057602060405160128152f35b801515036103c057565b35906103d082610981565b346103c05760a03660031901126103c0576004356109b3816103b4565b606435906109c082610981565b608435906001600160401b0382116103c0576109e561050760409336906004016103d2565b90610a1c6109ff6109f7604435613ba9565b602435613c7a565b928451958694859463040a7bb160e41b86523090600487016135b6565b03817f00000000000000000000000000000000000000000000000000000000000000006001600160a01b03165afa9081156107e4576000908192610a6d575b50604080519182526020820192909252f35b9050610a90915060403d8111610a97575b610a888183610cce565b8101906135a0565b9038610a5b565b503d610a7e565b346103c05760403660031901126103c057600435610abb816107ed565b3360009081526009602090815260408083206001600160a01b03851684529091529020546024358101809111610af5576108339133612b7d565b612983565b9060406003198301126103c057600435610b13816103b4565b91602435906001600160401b0382116103c057610476916004016103d2565b346103c057602061ffff610b7f610b4836610afa565b9390911660005260018452610b6a610b716040600020604051928380926111a6565b0382610cce565b848151910120923691610e4e565b82815191012014604051908152f35b346103c05760203660031901126103c05761ffff600435610bae816103b4565b1660005260036020526020604060002054604051908152f35b346103c057610bd536610afa565b9190610bdf61292b565b7f00000000000000000000000000000000000000000000000000000000000000006001600160a01b031691823b156103c057604051928380926342d65a8d60e01b825281610c366000988997889460048501613122565b03925af180156107e4576107d8575080f35b346103c05760203660031901126103c057610c6161292b565b600435601255005b346103c05760003660031901126103c057602060405160008152f35b634e487b7160e01b600052604160045260246000fd5b6001600160401b038111610cae57604052565b610c85565b60c081019081106001600160401b03821117610cae57604052565b90601f801991011681019081106001600160401b03821117610cae57604052565b60609060c31901126103c05760c490565b908160609103126103c05790565b60c0906101231901126103c05761012490565b9181601f840112156103c0578235916001600160401b0383116103c0576020808501946101c085020101116103c057565b366003190161024081126103c05760c0136103c057604051610d7381610cb3565b600435610d7f816107ed565b8152602435610d8d816107ed565b602082015260443560408201526064356060820152608435610dae816107ed565b608082015260a43560a0820152610dc436610cef565b610dcd36610d0e565b6001600160401b0392906101e4358481116103c057610df0903690600401610d21565b610204929192358681116103c057610e0c903690600401610d21565b939092610224359788116103c057610e2b6100199836906004016103d2565b979096612604565b6001600160401b038111610cae57601f01601f191660200190565b929192610e5a82610e33565b91610e686040519384610cce565b8294818452818301116103c0578281602093846000960137010152565b60606003198201126103c057600435610e9d816103b4565b916024356001600160401b03928382116103c057806023830112156103c057816024610ece93600401359101610e4e565b9160443590811681036103c05790565b602090610ef892826040519483868095519384920161060d565b82019081520301902090565b346103c0576020610f6261ffff610f4183610f1e36610e85565b94909116600052600582526040600020826040519483868095519384920161060d565b820190815203019020906001600160401b0316600052602052604060002090565b54604051908152f35b346103c057610f7936610415565b9192949390303303610f9d5761050e610f9792610019973691610e4e565b926135fa565b60405162461bcd60e51b815260206004820152602660248201527f4e6f6e626c6f636b696e674c7a4170703a2063616c6c6572206d7573742062656044820152650204c7a4170760d41b6064820152608490fd5b60a03660031901126103c057600435611009816107ed565b602435611015816103b4565b604435916084356001600160401b0381116103c057602061ffff61104c60008051602061428d833981519152933690600401610d00565b936110bf853561105b816107ed565b611079610507868901359861106f8a6107ed565b6040810190613399565b611083818a613a64565b611098611091606435613c43565b5085613e52565b976110a48915156137d7565b6110b66110b08a613ba9565b8c613c7a565b9234938b612f21565b6040519485526001600160a01b0316941692a4005b346103c05760203660031901126103c0576004356110f1816107ed565b60018060a01b031660005260086020526020604060002054604051908152f35b346103c05760008060031936011261074b5761112b61292b565b80546001600160a01b03198116825581906001600160a01b03167f8be0079c531659141344cd1fd0a4f28419497f9722a3daafe3b4186f6b6457e08280a380f35b90600182811c9216801561119c575b602083101461118657565b634e487b7160e01b600052602260045260246000fd5b91607f169161117b565b90600092918054916111b78361116c565b91828252600193848116908160001461121957506001146111d9575b50505050565b90919394506000526020928360002092846000945b8386106112055750505050010190388080806111d3565b8054858701830152940193859082016111ee565b9294505050602093945060ff191683830152151560051b010190388080806111d3565b906103d061125092604051938480926111a6565b0383610cce565b346103c05760203660031901126103c05761ffff600435611277816103b4565b1660005260016020526106c2610b6a61129a6040600020604051928380926111a6565b604051918291602083526020830190610630565b60e03660031901126103c0576004356112c6816107ed565b6024356112d2816103b4565b604435916001600160401b03906084358281116103c0576112f79036906004016103d2565b91909260a43591818316918284036103c05760c4359081116103c057611321903690600401610d00565b92611358843595611331876107ed565b61135061134660208801359761106f896107ed565b9990923691610e4e565b973691610e4e565b9460ff6006541660001461144b57602286511061140657856020956110b66110bf946113d48c6113c161ffff9a8b602260008051602061428d8339815191529f0151931660005260028d526113bb60406000206001600052602052604060002090565b546129b5565b906113cd821515613afb565b1015613b47565b6113e96113e2606435613c43565b5088613e52565b9a6113f58c15156137d7565b8d6113ff8d613ba9565b9033613d0c565b60405162461bcd60e51b815260206004820152601c60248201527f4c7a4170703a20696e76616c69642061646170746572506172616d73000000006044820152606490fd5b9480949350516114785760008051602061428d8339815191529460209461ffff946110b66110bf946113d4565b60405162461bcd60e51b815260206004820152602660248201527f4f4654436f72653a205f61646170746572506172616d73206d7573742062652060448201526532b6b83a3c9760d11b6064820152608490fd5b346103c05760003660031901126103c057600f546040516001600160a01b039091168152602090f35b346103c05760003660031901126103c057602060405160ff7f0000000000000000000000000000000000000000000000000000000000000000168152f35b346103c05760403660031901126103c0576020610f62600435611555816103b4565b61ffff60243591611565836103b4565b166000526002835260406000209061ffff16600052602052604060002090565b346103c05760003660031901126103c0576000546040516001600160a01b039091168152602090f35b346103c05760003660031901126103c0576004546040516001600160a01b039091168152602090f35b346103c05760008060031936011261074b576040519080600c546115fa8161116c565b808552916001918083169081156107215750600114611623576106c2856106b681870382610cce565b9250600c83527fdf6966c971051c3d54ec59162606531493a51404a002842f56009d7e5cf4a8c75b8284106116665750505081016020016106b6826106c26106a6565b8054602085870181019190915290930192810161164b565b346103c057602060ff6116bd61ffff610f418461169a36610e85565b94909116600052600782526040600020826040519483868095519384920161060d565b54166040519015158152f35b346103c05760203660031901126103c05761ffff6004356116e9816103b4565b166000526001602052610b6a6117096040600020604051928380926111a6565b805115611727576106b6816117216106c29351613191565b90614092565b60405162461bcd60e51b815260206004820152601d60248201527f4c7a4170703a206e6f20747275737465642070617468207265636f72640000006044820152606490fd5b346103c05760403660031901126103c057600435611789816107ed565b602435903360005260096020526117b68160406000209060018060a01b0316600052602052604060002090565b54918083106117d7576117cb92039033612b7d565b60405160018152602090f35b60405162461bcd60e51b815260206004820152602560248201527f45524332303a2064656372656173656420616c6c6f77616e63652062656c6f77604482015264207a65726f60d81b6064820152608490fd5b346103c05760e03660031901126103c057600435611847816103b4565b6001600160401b03906064358281116103c0576118689036906004016103d2565b6118739291926103ff565b60a4359161188083610981565b60c4359586116103c05761189b6118ab9636906004016103d2565b95909460443590602435906133cb565b60408051928352602083019190915290f35b346103c05760003660031901126103c0576020601254604051908152f35b346103c0576118e936610afa565b906118f261292b565b6040519260209280838587013761191e6034868381013060601b88820152036014810188520186610cce565b60009361ffff8316855260019081815260408620918751916001600160401b038311610cae5761195883611952865461116c565b8661313d565b80601f84116001146119c85750918080926119b79695948a9b7f8c0400cfe2d1199b1a725c78960bcc2a344d869b80590d0f2bd005db15a572ce9b946119bd575b50501b916000199060031b1c19161790555b60405193849384613122565b0390a180f35b015192503880611999565b91939498601f1984166119e087600052602060002090565b938a905b828210611a47575050917f8c0400cfe2d1199b1a725c78960bcc2a344d869b80590d0f2bd005db15a572ce999a959391856119b798969410611a2e575b505050811b0190556119ab565b015160001960f88460031b161c19169055388080611a21565b8088869782949787015181550196019401906119e4565b346103c05760403660031901126103c057610833600435611a7e816107ed565b6024359033612a75565b346103c05760003660031901126103c0576040517f00000000000000000000000000000000000000000000000000000000000000006001600160a01b03168152602090f35b346103c05760203660031901126103c0577f5db758e995a17ec1ad84bdef7e8c3293a0bd6179bcce400dff5d4c3d87db726b6020600435611b0d816107ed565b611b1561292b565b600480546001600160a01b0319166001600160a01b03929092169182179055604051908152a1005b346103c05760003660031901126103c05760206040516127108152f35b346103c05760803660031901126103c057600435611b77816103b4565b602435611b83816103b4565b6064356001600160401b0381116103c057611ba29036906004016103d2565b9092611bac61292b565b7f00000000000000000000000000000000000000000000000000000000000000006001600160a01b031690813b156103c05760008094611c23604051978896879586946332fb62e760e21b865261ffff80921660048701521660248501526044356044850152608060648501526084840191613101565b03925af180156107e457611c3357005b80611c4061001992610c9b565b8061058e565b611c4f36610415565b9161ffff86949296166000526005602052611c9681604060002060206040518092878b833787820190815203019020906001600160401b0316600052602052604060002090565b54918215611d5857611d478483611d407fc264d91f3adc5588250e1551f547752ca0cfa8f6b530d243b9f9f4cab10ea8e59a6000611d2c84611d148e8a8f611d539f908f611cfa90611ced611d0e9436908d610e4e565b602081519101201461330c565b61ffff166000526005602052604060002090565b916132f3565b906001600160401b0316600052602052604060002090565b55611d3836878d610e4e565b933691610e4e565b91886135fa565b60405195869586613362565b0390a1005b60405162461bcd60e51b815260206004820152602360248201527f4e6f6e626c6f636b696e674c7a4170703a206e6f2073746f726564206d65737360448201526261676560e81b6064820152608490fd5b346103c05760003660031901126103c057600e546040516001600160a01b039091168152602090f35b346103c05760403660031901126103c0576020610f62600435611df4816107ed565b60243590611e01826107ed565b60018060a01b03166000526009835260406000209060018060a01b0316600052602052604060002090565b346103c05760003660031901126103c057600d546040516001600160a01b039091168152602090f35b346103c05760603660031901126103c057600435611e72816103b4565b602435611e7e816103b4565b60443591611e8a61292b565b8215611f0557611d537f9d5c7c0b934da8fefa9c7760c98383778a12dfbfc0c3b3106518f43fb9508ac09361ffff8316600052600260205280611edf8560406000209061ffff16600052602052604060002090565b556040519384938460409194939294606082019561ffff80921683521660208201520152565b60405162461bcd60e51b81526020600482015260156024820152744c7a4170703a20696e76616c6964206d696e47617360581b6044820152606490fd5b346103c05760003660031901126103c057602060405160018152f35b346103c05760203660031901126103c0577f1584ad594a70cbe1e6515592e1272a987d922b097ead875069cebe8b40c004a46020600435611f9e81610981565b611fa661292b565b151560ff196006541660ff821617600655604051908152a1005b346103c0576101003660031901126103c057600435611fde816103b4565b6001600160401b03906024358281116103c057611fff9036906004016103d2565b91906044359084821682036103c05760843561201a816107ed565b60c4359586116103c0576120356100199636906004016103d2565b94909360e4359660a43594606435936134c1565b346103c05761205736610afa565b919061206161292b565b60009161ffff81168352600160209080825260408520916001600160401b038711610cae5761209a87612094855461116c565b8561313d565b8590601f881160011461210157509186808798936119b7957ffa41487ad5d6728f0b19276fa1eddc16558578f5109fc39d2dc33c3230470dab99936120f6575b501b906000198460031b1c191617905560405193849384613122565b8801359250386120da565b90601f19881661211685600052602060002090565b9288905b82821061217c575050918893917ffa41487ad5d6728f0b19276fa1eddc16558578f5109fc39d2dc33c3230470dab98996119b7969410612162575b505082811b0190556119ab565b870135600019600386901b60f8161c191690553880612155565b808685968294968c0135815501950193019061211a565b346103c05760003660031901126103c057602060ff600654166040519015158152f35b346103c05760203660031901126103c0576004356121d3816107ed565b6121db61292b565b6001600160a01b03908116801561222957600080546001600160a01b03198116831782559092167f8be0079c531659141344cd1fd0a4f28419497f9722a3daafe3b4186f6b6457e08380a380f35b60405162461bcd60e51b815260206004820152602660248201527f4f776e61626c653a206e6577206f776e657220697320746865207a65726f206160448201526564647265737360d01b6064820152608490fd5b346103c05760803660031901126103c05760043561229a816103b4565b602435906122a7826103b4565b6122b26044356107ed565b604051633d7b2f6f60e21b815261ffff91821660048201529116602482015230604482015260648035908201526000816084817f00000000000000000000000000000000000000000000000000000000000000006001600160a01b03165afa80156107e4576106c291600091612330575b5060405191829182610655565b61234b913d8091833e6123438183610cce565b8101906130a3565b38612323565b346103c05760003660031901126103c0576020604051308152f35b35610666816107ed565b35610666816103b4565b908160209103126103c0575161066681610981565b6040513d6000823e3d90fd5b908160209103126103c05751610666816103b4565b60a0809180356123c581610981565b1515845260208101356123d7816107ed565b600180841b03809116602086015261ffff60408301356123f6816103b4565b166040860152606082013560608601526080820135612414816107ed565b1660808501520135910152565b359060ff821682036103c057565b9190808252602080920192916000905b82821061244d575050505090565b90919293806124676001926124618861098b565b15159052565b61247d61247584880161098b565b151582850152565b612495604061248d81890161098b565b151590830152565b6124a5606061248d81890161098b565b6124bf60806124b58189016103c5565b61ffff1690830152565b6124de60a06124cf8189016107fe565b6001600160a01b031690830152565b6124ee60c061248d81890161098b565b6124fe60e06124cf8189016107fe565b61250f6101006124cf8189016107fe565b6101208087013590820152610140808701359082015261253f610160612536818901612421565b60ff1690830152565b61018086810135908201526101a080870135908201526101c090810195019392019061243f565b98979692946125de6125ff9660a06125f0958d60206001600160401b036102009d9b986103098452169101528d60c0600180851b0380845116604084015280602085015116606084015260408401516080840152606084015185840152608084015116910152015160e08d01526101008c01906123b6565b610220806101c08c01528a019161242f565b918783036101e089015261242f565b930152565b60209890979694956001600160a01b03959394939091908a86018b886126298361236c565b1661286a575b505089516001600160a01b03163388821603612805575b50895161267b9990612668906001600160a01b03165b6001600160a01b031690565b9b60048c61268a604082019d8e51613c43565b5091516001600160a01b031690565b838c604051948580926303408e4760e41b82527f0000000000000000000000000000000000000000000000000000000000000000165afa9283156107e4576126d7936127d8575b50613e52565b9485156127c6576127456127b0996127378f969861279d9960008051602061428d8339815191529f9589966127a29e61272861271e6127198f8e903691610e4e565b612dbb565b5097915050613ba9565b96604051998a988c8a01612566565b03601f198101835282610cce565b61276261275188612376565b61275c368887610e4e565b90613ab9565b61279761278d61278561265c6127778b612376565b97516001600160a01b031690565b93890161236c565b9334963691610e4e565b93612f21565b612376565b94516001600160a01b031690565b925160405190815292169261ffff1691602090a4565b60405163f1640ae160e01b8152600490fd5b6127f790853d87116127fe575b6127ef8183610cce565b8101906123a1565b50386126d1565b503d6127e5565b6001600160a01b031660009081526009602090815260408083203384529091529020549860408b01998a5111612858578a5161267b9a612852916001600160a01b03169051903390612ca8565b98612646565b60405163fb165f2360e01b8152600490fd5b600e546128cc9290612884906001600160a01b031661265c565b61289661289089612376565b9261236c565b604051633a304d8b60e21b815261ffff90931660048401526001600160a01b031660248301529092839190829081906044820190565b03915afa9081156107e4576000916128fe575b50156128ec57388b61262f565b60405163ea8e4eb560e01b8152600490fd5b61291e91508c8d3d10612924575b6129168183610cce565b810190612380565b386128df565b503d61290c565b6000546001600160a01b0316330361293f57565b606460405162461bcd60e51b815260206004820152602060248201527f4f776e61626c653a2063616c6c6572206973206e6f7420746865206f776e65726044820152fd5b634e487b7160e01b600052601160045260246000fd5b90601f8201809211610af557565b6051019081605111610af557565b91908201809211610af557565b156129c957565b60405162461bcd60e51b815260206004820152602360248201527f45524332303a207472616e7366657220746f20746865207a65726f206164647260448201526265737360e81b6064820152608490fd5b15612a2157565b60405162461bcd60e51b815260206004820152602660248201527f45524332303a207472616e7366657220616d6f756e7420657863656564732062604482015265616c616e636560d01b6064820152608490fd5b916001600160a01b038084169290918315612b2a57612b0f826000805160206142ad83398151915294612b25941696612aaf8815156129c2565b6001600160a01b0381166000908152600860205260409020612af490859054612ada82821015612a1a565b039160018060a01b03166000526008602052604060002090565b556001600160a01b0316600090815260086020526040902090565b8054820190556040519081529081906020820190565b0390a3565b60405162461bcd60e51b815260206004820152602560248201527f45524332303a207472616e736665722066726f6d20746865207a65726f206164604482015264647265737360d81b6064820152608490fd5b6001600160a01b038082169291908315612c57578216938415612c075780612bf67f8c5be1e5ebec7d5bd14f71427d1e84f3dd0314c0f7b2291e5b200ac8c7c3b92594612bdf612b259560018060a01b03166000526009602052604060002090565b9060018060a01b0316600052602052604060002090565b556040519081529081906020820190565b60405162461bcd60e51b815260206004820152602260248201527f45524332303a20617070726f766520746f20746865207a65726f206164647265604482015261737360f01b6064820152608490fd5b60405162461bcd60e51b8152602060048201526024808201527f45524332303a20617070726f76652066726f6d20746865207a65726f206164646044820152637265737360e01b6064820152608490fd5b6001600160a01b038082166000908152600960209081526040808320938616835292905220909190549260018401612ce05750505050565b808410612cfb57612cf2930391612b7d565b388080806111d3565b60405162461bcd60e51b815260206004820152601d60248201527f45524332303a20696e73756666696369656e7420616c6c6f77616e63650000006044820152606490fd5b15612d4757565b60405162461bcd60e51b8152602060048201526012602482015271556e737570706f727465642074785479706560701b6044820152606490fd5b15612d8857565b60405162461bcd60e51b815260206004820152600b60248201526a47617320746f6f206c6f7760a81b6044820152606490fd5b600080825160228114908115612e63575b5015612e2657600283015193602284015193600261ffff8716600181148015612e1d575b612df990612d40565b612e04871515612d81565b14612e0c5750565b925090506056604283015192015190565b50808214612df0565b60405162461bcd60e51b8152602060048201526015602482015274496e76616c69642061646170746572506172616d7360581b6044820152606490fd5b604291501138612dcc565b15612e7557565b60405162461bcd60e51b815260206004820152602660248201527f4c7a4170703a20696e76616c696420736f757263652073656e64696e6720636f6044820152651b9d1c9858dd60d21b6064820152608490fd5b92612eee61066697959361ffff612efc9416865260c0602087015260c0860190610630565b908482036040860152610630565b6001600160a01b0391821660608401529316608082015280830360a090910152610630565b94612f4a9193929561ffff81166000526001602052612f516040600020604051948580926111a6565b0384610cce565b825115612fd657612f63855182613034565b7f00000000000000000000000000000000000000000000000000000000000000006001600160a01b031693843b156103c057600096612fb891604051998a988997889662c5803160e81b885260048801612ec9565b03925af180156107e457612fc95750565b80611c406103d092610c9b565b60405162461bcd60e51b815260206004820152603060248201527f4c7a4170703a2064657374696e6174696f6e20636861696e206973206e6f742060448201526f61207472757374656420736f7572636560801b6064820152608490fd5b61ffff166000526003602052604060002054908115613099575b1161305557565b606460405162461bcd60e51b815260206004820152602060248201527f4c7a4170703a207061796c6f61642073697a6520697320746f6f206c617267656044820152fd5b612710915061304e565b6020818303126103c0578051906001600160401b0382116103c0570181601f820112156103c05780516130d581610e33565b926130e36040519485610cce565b818452602082840101116103c057610666916020808501910161060d565b908060209392818452848401376000828201840152601f01601f1916010190565b60409061ffff61066695931681528160208201520191613101565b90601f811161314b57505050565b600091825260208220906020601f850160051c83019410613187575b601f0160051c01915b82811061317c57505050565b818155600101613170565b9092508290613167565b601319810191908211610af557565b605019810191908211610af557565b9290916132215a604051633356ae4560e11b602082015261ffff87166024820152608060448201529061321b8261320d6131ec60a483018a610630565b6001600160401b038816606484015282810360231901608484015288610630565b03601f198101845283610cce565b30614241565b939015613230575b5050505050565b61323994613243565b3880808080613229565b91936132e07fe183f33de2837795525b4792ca4cd60535bd77c53b7e7030060bfcf5734d6b0c956132ee939561ffff815160208301209616958660005260056020526132a783610f4160208b6040600020826040519483868095519384920161060d565b556001600160401b036132cc604051988998895260a060208a015260a0890190610630565b921660408701528582036060870152610630565b908382036080850152610630565b0390a1565b6020919283604051948593843782019081520301902090565b1561331357565b60405162461bcd60e51b815260206004820152602160248201527f4e6f6e626c6f636b696e674c7a4170703a20696e76616c6964207061796c6f616044820152601960fa1b6064820152608490fd5b9161338e9060609461ffff6001600160401b039499989799168552608060208601526080850191613101565b951660408201520152565b903590601e19813603018212156103c057018035906001600160401b0382116103c0576020019181360383136103c057565b9491959897906113ff6133f46040996133ec6133fa97613417993691610e4e565b943691610e4e565b97613ba9565b928451968794859463040a7bb160e41b86523090600487016135b6565b03817f00000000000000000000000000000000000000000000000000000000000000006001600160a01b03165afa9182156107e457600090819361345a57509190565b905061047691925060403d8111610a9757610a888183610cce565b939694916134a39061066699979461ffff6001600160401b039416875260c0602088015260c0870191613101565b961660408401526060830152608082015260a0818503910152613101565b9196979298959493909430330361355b576134dd908530613fde565b60405181815290946001600160a01b03169390849061ffff8516907fbf551ec93859b170f9b2141bd9298bf3f64322c6f7beb2543a0cb669834118bf90602090a3833b156103c057600098899561354b936040519c8d9b8c9a8b98633fe79aed60e11b8a5260048a01613475565b0393f180156107e457612fc95750565b60405162461bcd60e51b815260206004820152601f60248201527f4f4654436f72653a2063616c6c6572206d757374206265204f4654436f7265006044820152606490fd5b91908260409103126103c0576020825192015190565b9192610666959361ffff6135e59316845260018060a01b0316602084015260a0604084015260a0830190610630565b92151560608201526080818403910152610630565b92919060ff613608846141e6565b16806137825750505060ff61361c826141e6565b161580613777575b61362d90613cc0565b61363f61363982614196565b91614231565b90916001600160a01b03918284161561376d575b613687906001600160401b037f00000000000000000000000000000000000000000000000000000000000000009116613c30565b918316928315613728577fbf551ec93859b170f9b2141bd9298bf3f64322c6f7beb2543a0cb669834118bf916136e861ffff926136ce6136c987600a546129b5565b600a55565b6001600160a01b0316600090815260086020526040902090565b8481540190558460006000805160206142ad8339815191526040518061371389829190602083019252565b0390a360405193845216918060208101612b25565b60405162461bcd60e51b815260206004820152601f60248201527f45524332303a206d696e7420746f20746865207a65726f2061646472657373006044820152606490fd5b61dead9350613653565b508051602914613624565b600103613792576103d0936138ac565b60405162461bcd60e51b815260206004820152601c60248201527f4f4654436f72653a20756e6b6e6f776e207061636b65742074797065000000006044820152606490fd5b156137de57565b60405162461bcd60e51b815260206004820152601960248201527f4f4654436f72653a20616d6f756e7420746f6f20736d616c6c000000000000006044820152606490fd5b98979692936001600160401b0361385560e0989461ffff6125ff9995168d5260208d61010091829101528d0190610630565b951660408b015260608a01526001600160a01b0316608089015260a088015286820360c0880152610630565b6001600160401b036138a160409396959496606084526060840190610630565b951660208201520152565b90916138b784613d79565b90916138e86138e187611d146138db8b61ffff166000526007602052604060002090565b8c610ede565b5460ff1690565b9161391e6001600160401b0392837f00000000000000000000000000000000000000000000000000000000000000009116613c30565b9288888b8315613a1a575b505050853b156139cf5794613970969461321b948a9461320d948d996000146139c85750505a925b5a978b6040519a8b9863757fea4d60e11b60208b015260248a01613823565b90156139bd5750906139b861ffff928560207fb8890edbfc1c74692f527444645f95489c3703cc2df42e4a366f5d06fa6cd88496975191012090604051948594169684613881565b0390a2565b926103d09492613243565b1692613951565b50506040516001600160a01b039094168452507f9aedf5fdba8716db3b6705ca00150643309995d4f818a249ed6dde6677e7792d9750919550859450506020840192506132ee915050565b90611d14613a4f92613a4989613a34613a5c979b30613f7b565b9961ffff166000526007602052604060002090565b90610ede565b805460ff19166001179055565b88888b613929565b60065460ff1615613ab15760228251106114065761ffff60226103d093015191166000526002602052613aa4604060002060008052602052604060002090565b54906113cd821515613afb565b505161147857565b60065460ff1615613ab15760228251106114065761ffff60226103d093015191166000526002602052613aa46040600020610309600052602052604060002090565b15613b0257565b60405162461bcd60e51b815260206004820152601a60248201527f4c7a4170703a206d696e4761734c696d6974206e6f74207365740000000000006044820152606490fd5b15613b4e57565b60405162461bcd60e51b815260206004820152601b60248201527f4c7a4170703a20676173206c696d697420697320746f6f206c6f7700000000006044820152606490fd5b634e487b7160e01b600052601260045260246000fd5b7f0000000000000000000000000000000000000000000000000000000000000000908115613c2b57046001600160401b0390818111613be6571690565b60405162461bcd60e51b815260206004820152601a60248201527f4f4654436f72653a20616d6f756e745344206f766572666c6f770000000000006044820152606490fd5b613b93565b81810292918115918404141715610af557565b7f00000000000000000000000000000000000000000000000000000000000000008015613c2b57810690818103908111610af55791565b90604051916000602084015260218301526001600160401b0360c01b9060c01b16604182015260298152606081018181106001600160401b03821117610cae5760405290565b15613cc757565b60405162461bcd60e51b815260206004820152601860248201527f4f4654436f72653a20696e76616c6964207061796c6f616400000000000000006044820152606490fd5b939260719261066694604051968794600160f81b602087015260218601526001600160401b0360c01b809360c01b16604186015260018060a01b0316604985015260c01b166069830152613d69815180926020868601910161060d565b8101036051810184520182610cce565b90613d91600160ff613d8a856141e6565b1614613cc0565b613d9a82614196565b90613da483614231565b906049845110613e15576049840151936051815110613dd957613dd6605182015191613dd081516131a0565b90614112565b91565b60405162461bcd60e51b8152602060048201526014602482015273746f55696e7436345f6f75744f66426f756e647360601b6044820152606490fd5b60405162461bcd60e51b8152602060048201526015602482015274746f427974657333325f6f75744f66426f756e647360581b6044820152606490fd5b6001600160a01b038116338103613f14575b8015613ec55781613e9a84613e8d60009560018060a01b03166000526008602052604060002090565b54612ada82821015613f24565b55613ea883600a5403600a55565b6040518381526000805160206142ad83398151915290602090a390565b60405162461bcd60e51b815260206004820152602160248201527f45524332303a206275726e2066726f6d20746865207a65726f206164647265736044820152607360f81b6064820152608490fd5b613f1f833384612ca8565b613e64565b15613f2b57565b60405162461bcd60e51b815260206004820152602260248201527f45524332303a206275726e20616d6f756e7420657863656564732062616c616e604482015261636560f01b6064820152608490fd5b6001600160a01b0381169190821561372857600a5490828201809211610af557600092613fcf6020926000805160206142ad83398151915294600a5560018060a01b03166000526008602052604060002090565b818154019055604051908152a3565b6106669183916001600160a01b03811630811415908161400a575b5015612a7557610960833383612ca8565b905033141538613ff9565b1561401c57565b60405162461bcd60e51b815260206004820152600e60248201526d736c6963655f6f766572666c6f7760901b6044820152606490fd5b1561405957565b60405162461bcd60e51b8152602060048201526011602482015270736c6963655f6f75744f66426f756e647360781b6044820152606490fd5b6140a68261409f81612999565b1015614015565b6140b38282511015614052565b816140cb575050604051600081526020810160405290565b60405191601f811691821560051b808486010193838501920101905b8084106140ff5750508252601f01601f191660405290565b90928351815260208091019301906140e7565b61411f8261409f81612999565b614134815161412d846129a7565b1115614052565b8161414c575050604051600081526020810160405290565b60405191601f8116916051831560051b80858701019484860193010101905b8084106141835750508252601f01601f191660405290565b909283518152602080910193019061416b565b60218151106141a957602d015160601c90565b60405162461bcd60e51b8152602060048201526015602482015274746f416464726573735f6f75744f66426f756e647360581b6044820152606490fd5b60018151106141f6576001015190565b60405162461bcd60e51b8152602060048201526013602482015272746f55696e74385f6f75744f66426f756e647360681b6044820152606490fd5b6029815110613dd9576029015190565b909291600080916040519561425587610cb3565b6096875282602088019560a036883760208451940192f1903d9060968211614283575b6000908286523e9190565b6096915061427856fed81fc9b8523134ed613870ed029d6170cbb73aa6a6bc311b9a642689fb9df59addf252ad1be2c89b69c2b068fc378daa952ba7f163c4a11628f55a4df523b3efa26469706673582212208e8b3195df1d8a8a46c0a1c655e7558bb762dd6b531734320972532fa6e07f1a64736f6c63430008130033","linkReferences":{}},"methodIdentifiers":{"DEFAULT_PAYLOAD_SIZE_LIMIT()":"c4461834","NO_EXTRA_GAS()":"44770515","PT_SEND()":"4c42899a","PT_SEND_AND_CALL()":"e6a20ae6","SWAP_MAX_SLIPPAGE()":"a643c52e","allowance(address,address)":"dd62ed3e","approve(address,uint256)":"095ea7b3","balanceOf(address)":"70a08231","callOnOFTReceived(uint16,bytes,uint64,bytes32,address,uint256,bytes,uint256)":"eaffd49a","circulatingSupply()":"9358928b","cluster()":"dbd01de1","creditedPackets(uint16,bytes,uint64)":"9bdb9812","decimals()":"313ce567","decreaseAllowance(address,uint256)":"a457c2d7","erc20()":"785e9e86","estimateSendAndCallFee(uint16,bytes32,uint256,bytes,uint64,bool,bytes)":"a4c51df5","estimateSendFee(uint16,bytes32,uint256,bool,bytes)":"365260b4","exerciseOption((address,address,uint256,uint256,address,uint256),(uint16,address,uint256),(bool,address,uint16,uint256,address,uint256),(bool,bool,bool,bool,uint16,address,bool,address,address,uint256,uint256,uint8,bytes32,bytes32)[],(bool,bool,bool,bool,uint16,address,bool,address,address,uint256,uint256,uint8,bytes32,bytes32)[],bytes)":"4e8eeae9","failedMessages(uint16,bytes,uint64)":"5b8c41e6","forceResumeReceive(uint16,bytes)":"42d65a8d","getConfig(uint16,uint16,address,uint256)":"f5ecbdbc","getTrustedRemoteAddress(uint16)":"9f38369a","hostChainID()":"0054af3a","increaseAllowance(address,uint256)":"39509351","isTrustedRemote(uint16,bytes)":"3d8b38f6","lzEndpoint()":"b353aaa7","lzReceive(uint16,bytes,uint64,bytes)":"001d3567","minDstGasLookup(uint16,uint16)":"8cfd8f5c","name()":"06fdde03","nonblockingLzReceive(uint16,bytes,uint64,bytes)":"66ad5c8a","owner()":"8da5cb5b","payloadSizeLimitLookup(uint16)":"3f1f4fa4","precrime()":"950c8a74","renounceOwnership()":"715018a6","retryMessage(uint16,bytes,uint64,bytes)":"d1deba1f","sendAndCall(address,uint16,bytes32,uint256,bytes,uint64,(address,address,bytes))":"76203b48","sendFrom(address,uint16,bytes32,uint256,(address,address,bytes))":"695ef6bf","setConfig(uint16,uint16,uint256,bytes)":"cbed8b9c","setMaxSlippage(uint256)":"43f68a49","setMinDstGas(uint16,uint16,uint256)":"df2a5b3b","setPayloadSizeLimit(uint16,uint256)":"0df37483","setPrecrime(address)":"baf3292d","setReceiveVersion(uint16)":"10ddb137","setSendVersion(uint16)":"07e0db17","setTrustedRemote(uint16,bytes)":"eb8d72b7","setTrustedRemoteAddress(uint16,bytes)":"a6c3d165","setUseCustomAdapterParams(bool)":"eab45d9c","sharedDecimals()":"857749b0","supportsInterface(bytes4)":"01ffc9a7","symbol()":"95d89b41","token()":"fc0c546a","totalSupply()":"18160ddd","transfer(address,uint256)":"a9059cbb","transferFrom(address,address,uint256)":"23b872dd","transferOwnership(address)":"f2fde38b","trustedRemoteLookup(uint16)":"7533d788","useCustomAdapterParams()":"ed629c5c","yieldBox()":"de406577"},"id":13}