{"abi":[{"type":"constructor","inputs":[{"name":"_lzEndpoint","type":"address","internalType":"address"},{"name":"_erc20","type":"address","internalType":"address"},{"name":"_yieldBox","type":"address","internalType":"contract IYieldBoxBase"},{"name":"_cluster","type":"address","internalType":"contract ICluster"},{"name":"_name","type":"string","internalType":"string"},{"name":"_symbol","type":"string","internalType":"string"},{"name":"_decimal","type":"uint8","internalType":"uint8"},{"name":"_hostChainID","type":"uint256","internalType":"uint256"}],"stateMutability":"nonpayable"},{"type":"receive","stateMutability":"payable"},{"type":"function","name":"DEFAULT_PAYLOAD_SIZE_LIMIT","inputs":[],"outputs":[{"name":"","type":"uint256","internalType":"uint256"}],"stateMutability":"view"},{"type":"function","name":"NO_EXTRA_GAS","inputs":[],"outputs":[{"name":"","type":"uint256","internalType":"uint256"}],"stateMutability":"view"},{"type":"function","name":"PT_SEND","inputs":[],"outputs":[{"name":"","type":"uint8","internalType":"uint8"}],"stateMutability":"view"},{"type":"function","name":"PT_SEND_AND_CALL","inputs":[],"outputs":[{"name":"","type":"uint8","internalType":"uint8"}],"stateMutability":"view"},{"type":"function","name":"SWAP_MAX_SLIPPAGE","inputs":[],"outputs":[{"name":"","type":"uint256","internalType":"uint256"}],"stateMutability":"view"},{"type":"function","name":"allowance","inputs":[{"name":"owner","type":"address","internalType":"address"},{"name":"spender","type":"address","internalType":"address"}],"outputs":[{"name":"","type":"uint256","internalType":"uint256"}],"stateMutability":"view"},{"type":"function","name":"approve","inputs":[{"name":"spender","type":"address","internalType":"address"},{"name":"amount","type":"uint256","internalType":"uint256"}],"outputs":[{"name":"","type":"bool","internalType":"bool"}],"stateMutability":"nonpayable"},{"type":"function","name":"balanceOf","inputs":[{"name":"account","type":"address","internalType":"address"}],"outputs":[{"name":"","type":"uint256","internalType":"uint256"}],"stateMutability":"view"},{"type":"function","name":"callOnOFTReceived","inputs":[{"name":"_srcChainId","type":"uint16","internalType":"uint16"},{"name":"_srcAddress","type":"bytes","internalType":"bytes"},{"name":"_nonce","type":"uint64","internalType":"uint64"},{"name":"_from","type":"bytes32","internalType":"bytes32"},{"name":"_to","type":"address","internalType":"address"},{"name":"_amount","type":"uint256","internalType":"uint256"},{"name":"_payload","type":"bytes","internalType":"bytes"},{"name":"_gasForCall","type":"uint256","internalType":"uint256"}],"outputs":[],"stateMutability":"nonpayable"},{"type":"function","name":"circulatingSupply","inputs":[],"outputs":[{"name":"","type":"uint256","internalType":"uint256"}],"stateMutability":"view"},{"type":"function","name":"cluster","inputs":[],"outputs":[{"name":"","type":"address","internalType":"contract ICluster"}],"stateMutability":"view"},{"type":"function","name":"creditedPackets","inputs":[{"name":"","type":"uint16","internalType":"uint16"},{"name":"","type":"bytes","internalType":"bytes"},{"name":"","type":"uint64","internalType":"uint64"}],"outputs":[{"name":"","type":"bool","internalType":"bool"}],"stateMutability":"view"},{"type":"function","name":"decimals","inputs":[],"outputs":[{"name":"","type":"uint8","internalType":"uint8"}],"stateMutability":"view"},{"type":"function","name":"decreaseAllowance","inputs":[{"name":"spender","type":"address","internalType":"address"},{"name":"subtractedValue","type":"uint256","internalType":"uint256"}],"outputs":[{"name":"","type":"bool","internalType":"bool"}],"stateMutability":"nonpayable"},{"type":"function","name":"erc20","inputs":[],"outputs":[{"name":"","type":"address","internalType":"address"}],"stateMutability":"view"},{"type":"function","name":"estimateSendAndCallFee","inputs":[{"name":"_dstChainId","type":"uint16","internalType":"uint16"},{"name":"_toAddress","type":"bytes32","internalType":"bytes32"},{"name":"_amount","type":"uint256","internalType":"uint256"},{"name":"_payload","type":"bytes","internalType":"bytes"},{"name":"_dstGasForCall","type":"uint64","internalType":"uint64"},{"name":"_useZro","type":"bool","internalType":"bool"},{"name":"_adapterParams","type":"bytes","internalType":"bytes"}],"outputs":[{"name":"nativeFee","type":"uint256","internalType":"uint256"},{"name":"zroFee","type":"uint256","internalType":"uint256"}],"stateMutability":"view"},{"type":"function","name":"estimateSendFee","inputs":[{"name":"_dstChainId","type":"uint16","internalType":"uint16"},{"name":"_toAddress","type":"bytes32","internalType":"bytes32"},{"name":"_amount","type":"uint256","internalType":"uint256"},{"name":"_useZro","type":"bool","internalType":"bool"},{"name":"_adapterParams","type":"bytes","internalType":"bytes"}],"outputs":[{"name":"nativeFee","type":"uint256","internalType":"uint256"},{"name":"zroFee","type":"uint256","internalType":"uint256"}],"stateMutability":"view"},{"type":"function","name":"failedMessages","inputs":[{"name":"","type":"uint16","internalType":"uint16"},{"name":"","type":"bytes","internalType":"bytes"},{"name":"","type":"uint64","internalType":"uint64"}],"outputs":[{"name":"","type":"bytes32","internalType":"bytes32"}],"stateMutability":"view"},{"type":"function","name":"forceResumeReceive","inputs":[{"name":"_srcChainId","type":"uint16","internalType":"uint16"},{"name":"_srcAddress","type":"bytes","internalType":"bytes"}],"outputs":[],"stateMutability":"nonpayable"},{"type":"function","name":"getConfig","inputs":[{"name":"_version","type":"uint16","internalType":"uint16"},{"name":"_chainId","type":"uint16","internalType":"uint16"},{"name":"","type":"address","internalType":"address"},{"name":"_configType","type":"uint256","internalType":"uint256"}],"outputs":[{"name":"","type":"bytes","internalType":"bytes"}],"stateMutability":"view"},{"type":"function","name":"getTrustedRemoteAddress","inputs":[{"name":"_remoteChainId","type":"uint16","internalType":"uint16"}],"outputs":[{"name":"","type":"bytes","internalType":"bytes"}],"stateMutability":"view"},{"type":"function","name":"hostChainID","inputs":[],"outputs":[{"name":"","type":"uint256","internalType":"uint256"}],"stateMutability":"view"},{"type":"function","name":"increaseAllowance","inputs":[{"name":"spender","type":"address","internalType":"address"},{"name":"addedValue","type":"uint256","internalType":"uint256"}],"outputs":[{"name":"","type":"bool","internalType":"bool"}],"stateMutability":"nonpayable"},{"type":"function","name":"isTrustedRemote","inputs":[{"name":"_srcChainId","type":"uint16","internalType":"uint16"},{"name":"_srcAddress","type":"bytes","internalType":"bytes"}],"outputs":[{"name":"","type":"bool","internalType":"bool"}],"stateMutability":"view"},{"type":"function","name":"lzEndpoint","inputs":[],"outputs":[{"name":"","type":"address","internalType":"contract ILayerZeroEndpoint"}],"stateMutability":"view"},{"type":"function","name":"lzReceive","inputs":[{"name":"_srcChainId","type":"uint16","internalType":"uint16"},{"name":"_srcAddress","type":"bytes","internalType":"bytes"},{"name":"_nonce","type":"uint64","internalType":"uint64"},{"name":"_payload","type":"bytes","internalType":"bytes"}],"outputs":[],"stateMutability":"nonpayable"},{"type":"function","name":"minDstGasLookup","inputs":[{"name":"","type":"uint16","internalType":"uint16"},{"name":"","type":"uint16","internalType":"uint16"}],"outputs":[{"name":"","type":"uint256","internalType":"uint256"}],"stateMutability":"view"},{"type":"function","name":"name","inputs":[],"outputs":[{"name":"","type":"string","internalType":"string"}],"stateMutability":"view"},{"type":"function","name":"nonblockingLzReceive","inputs":[{"name":"_srcChainId","type":"uint16","internalType":"uint16"},{"name":"_srcAddress","type":"bytes","internalType":"bytes"},{"name":"_nonce","type":"uint64","internalType":"uint64"},{"name":"_payload","type":"bytes","internalType":"bytes"}],"outputs":[],"stateMutability":"nonpayable"},{"type":"function","name":"owner","inputs":[],"outputs":[{"name":"","type":"address","internalType":"address"}],"stateMutability":"view"},{"type":"function","name":"payloadSizeLimitLookup","inputs":[{"name":"","type":"uint16","internalType":"uint16"}],"outputs":[{"name":"","type":"uint256","internalType":"uint256"}],"stateMutability":"view"},{"type":"function","name":"precrime","inputs":[],"outputs":[{"name":"","type":"address","internalType":"address"}],"stateMutability":"view"},{"type":"function","name":"renounceOwnership","inputs":[],"outputs":[],"stateMutability":"nonpayable"},{"type":"function","name":"retrieveFromStrategy","inputs":[{"name":"_from","type":"address","internalType":"address"},{"name":"amount","type":"uint256","internalType":"uint256"},{"name":"assetId","type":"uint256","internalType":"uint256"},{"name":"lzDstChainId","type":"uint16","internalType":"uint16"},{"name":"zroPaymentAddress","type":"address","internalType":"address"},{"name":"airdropAdapterParam","type":"bytes","internalType":"bytes"}],"outputs":[],"stateMutability":"payable"},{"type":"function","name":"retryMessage","inputs":[{"name":"_srcChainId","type":"uint16","internalType":"uint16"},{"name":"_srcAddress","type":"bytes","internalType":"bytes"},{"name":"_nonce","type":"uint64","internalType":"uint64"},{"name":"_payload","type":"bytes","internalType":"bytes"}],"outputs":[],"stateMutability":"payable"},{"type":"function","name":"sendAndCall","inputs":[{"name":"_from","type":"address","internalType":"address"},{"name":"_dstChainId","type":"uint16","internalType":"uint16"},{"name":"_toAddress","type":"bytes32","internalType":"bytes32"},{"name":"_amount","type":"uint256","internalType":"uint256"},{"name":"_payload","type":"bytes","internalType":"bytes"},{"name":"_dstGasForCall","type":"uint64","internalType":"uint64"},{"name":"_callParams","type":"tuple","internalType":"struct ICommonOFT.LzCallParams","components":[{"name":"refundAddress","type":"address","internalType":"address payable"},{"name":"zroPaymentAddress","type":"address","internalType":"address"},{"name":"adapterParams","type":"bytes","internalType":"bytes"}]}],"outputs":[],"stateMutability":"payable"},{"type":"function","name":"sendFrom","inputs":[{"name":"_from","type":"address","internalType":"address"},{"name":"_dstChainId","type":"uint16","internalType":"uint16"},{"name":"_toAddress","type":"bytes32","internalType":"bytes32"},{"name":"_amount","type":"uint256","internalType":"uint256"},{"name":"_callParams","type":"tuple","internalType":"struct ICommonOFT.LzCallParams","components":[{"name":"refundAddress","type":"address","internalType":"address payable"},{"name":"zroPaymentAddress","type":"address","internalType":"address"},{"name":"adapterParams","type":"bytes","internalType":"bytes"}]}],"outputs":[],"stateMutability":"payable"},{"type":"function","name":"sendToStrategy","inputs":[{"name":"_from","type":"address","internalType":"address"},{"name":"_to","type":"address","internalType":"address"},{"name":"amount","type":"uint256","internalType":"uint256"},{"name":"assetId","type":"uint256","internalType":"uint256"},{"name":"lzDstChainId","type":"uint16","internalType":"uint16"},{"name":"options","type":"tuple","internalType":"struct ICommonData.ISendOptions","components":[{"name":"extraGasLimit","type":"uint256","internalType":"uint256"},{"name":"zroPaymentAddress","type":"address","internalType":"address"}]}],"outputs":[],"stateMutability":"payable"},{"type":"function","name":"setConfig","inputs":[{"name":"_version","type":"uint16","internalType":"uint16"},{"name":"_chainId","type":"uint16","internalType":"uint16"},{"name":"_configType","type":"uint256","internalType":"uint256"},{"name":"_config","type":"bytes","internalType":"bytes"}],"outputs":[],"stateMutability":"nonpayable"},{"type":"function","name":"setMaxSlippage","inputs":[{"name":"_slippage","type":"uint256","internalType":"uint256"}],"outputs":[],"stateMutability":"nonpayable"},{"type":"function","name":"setMinDstGas","inputs":[{"name":"_dstChainId","type":"uint16","internalType":"uint16"},{"name":"_packetType","type":"uint16","internalType":"uint16"},{"name":"_minGas","type":"uint256","internalType":"uint256"}],"outputs":[],"stateMutability":"nonpayable"},{"type":"function","name":"setPayloadSizeLimit","inputs":[{"name":"_dstChainId","type":"uint16","internalType":"uint16"},{"name":"_size","type":"uint256","internalType":"uint256"}],"outputs":[],"stateMutability":"nonpayable"},{"type":"function","name":"setPrecrime","inputs":[{"name":"_precrime","type":"address","internalType":"address"}],"outputs":[],"stateMutability":"nonpayable"},{"type":"function","name":"setReceiveVersion","inputs":[{"name":"_version","type":"uint16","internalType":"uint16"}],"outputs":[],"stateMutability":"nonpayable"},{"type":"function","name":"setSendVersion","inputs":[{"name":"_version","type":"uint16","internalType":"uint16"}],"outputs":[],"stateMutability":"nonpayable"},{"type":"function","name":"setTrustedRemote","inputs":[{"name":"_srcChainId","type":"uint16","internalType":"uint16"},{"name":"_path","type":"bytes","internalType":"bytes"}],"outputs":[],"stateMutability":"nonpayable"},{"type":"function","name":"setTrustedRemoteAddress","inputs":[{"name":"_remoteChainId","type":"uint16","internalType":"uint16"},{"name":"_remoteAddress","type":"bytes","internalType":"bytes"}],"outputs":[],"stateMutability":"nonpayable"},{"type":"function","name":"setUseCustomAdapterParams","inputs":[{"name":"_useCustomAdapterParams","type":"bool","internalType":"bool"}],"outputs":[],"stateMutability":"nonpayable"},{"type":"function","name":"sharedDecimals","inputs":[],"outputs":[{"name":"","type":"uint8","internalType":"uint8"}],"stateMutability":"view"},{"type":"function","name":"supportsInterface","inputs":[{"name":"interfaceId","type":"bytes4","internalType":"bytes4"}],"outputs":[{"name":"","type":"bool","internalType":"bool"}],"stateMutability":"view"},{"type":"function","name":"symbol","inputs":[],"outputs":[{"name":"","type":"string","internalType":"string"}],"stateMutability":"view"},{"type":"function","name":"token","inputs":[],"outputs":[{"name":"","type":"address","internalType":"address"}],"stateMutability":"view"},{"type":"function","name":"totalSupply","inputs":[],"outputs":[{"name":"","type":"uint256","internalType":"uint256"}],"stateMutability":"view"},{"type":"function","name":"transfer","inputs":[{"name":"to","type":"address","internalType":"address"},{"name":"amount","type":"uint256","internalType":"uint256"}],"outputs":[{"name":"","type":"bool","internalType":"bool"}],"stateMutability":"nonpayable"},{"type":"function","name":"transferFrom","inputs":[{"name":"from","type":"address","internalType":"address"},{"name":"to","type":"address","internalType":"address"},{"name":"amount","type":"uint256","internalType":"uint256"}],"outputs":[{"name":"","type":"bool","internalType":"bool"}],"stateMutability":"nonpayable"},{"type":"function","name":"transferOwnership","inputs":[{"name":"newOwner","type":"address","internalType":"address"}],"outputs":[],"stateMutability":"nonpayable"},{"type":"function","name":"trustedRemoteLookup","inputs":[{"name":"","type":"uint16","internalType":"uint16"}],"outputs":[{"name":"","type":"bytes","internalType":"bytes"}],"stateMutability":"view"},{"type":"function","name":"useCustomAdapterParams","inputs":[],"outputs":[{"name":"","type":"bool","internalType":"bool"}],"stateMutability":"view"},{"type":"function","name":"yieldBox","inputs":[],"outputs":[{"name":"","type":"address","internalType":"contract IYieldBoxBase"}],"stateMutability":"view"},{"type":"event","name":"Approval","inputs":[{"name":"owner","type":"address","indexed":true,"internalType":"address"},{"name":"spender","type":"address","indexed":true,"internalType":"address"},{"name":"value","type":"uint256","indexed":false,"internalType":"uint256"}],"anonymous":false},{"type":"event","name":"CallOFTReceivedSuccess","inputs":[{"name":"_srcChainId","type":"uint16","indexed":true,"internalType":"uint16"},{"name":"_srcAddress","type":"bytes","indexed":false,"internalType":"bytes"},{"name":"_nonce","type":"uint64","indexed":false,"internalType":"uint64"},{"name":"_hash","type":"bytes32","indexed":false,"internalType":"bytes32"}],"anonymous":false},{"type":"event","name":"MessageFailed","inputs":[{"name":"_srcChainId","type":"uint16","indexed":false,"internalType":"uint16"},{"name":"_srcAddress","type":"bytes","indexed":false,"internalType":"bytes"},{"name":"_nonce","type":"uint64","indexed":false,"internalType":"uint64"},{"name":"_payload","type":"bytes","indexed":false,"internalType":"bytes"},{"name":"_reason","type":"bytes","indexed":false,"internalType":"bytes"}],"anonymous":false},{"type":"event","name":"NonContractAddress","inputs":[{"name":"_address","type":"address","indexed":false,"internalType":"address"}],"anonymous":false},{"type":"event","name":"OwnershipTransferred","inputs":[{"name":"previousOwner","type":"address","indexed":true,"internalType":"address"},{"name":"newOwner","type":"address","indexed":true,"internalType":"address"}],"anonymous":false},{"type":"event","name":"ReceiveFromChain","inputs":[{"name":"_srcChainId","type":"uint16","indexed":true,"internalType":"uint16"},{"name":"_to","type":"address","indexed":true,"internalType":"address"},{"name":"_amount","type":"uint256","indexed":false,"internalType":"uint256"}],"anonymous":false},{"type":"event","name":"RetryMessageSuccess","inputs":[{"name":"_srcChainId","type":"uint16","indexed":false,"internalType":"uint16"},{"name":"_srcAddress","type":"bytes","indexed":false,"internalType":"bytes"},{"name":"_nonce","type":"uint64","indexed":false,"internalType":"uint64"},{"name":"_payloadHash","type":"bytes32","indexed":false,"internalType":"bytes32"}],"anonymous":false},{"type":"event","name":"SendToChain","inputs":[{"name":"_dstChainId","type":"uint16","indexed":true,"internalType":"uint16"},{"name":"_from","type":"address","indexed":true,"internalType":"address"},{"name":"_toAddress","type":"bytes32","indexed":true,"internalType":"bytes32"},{"name":"_amount","type":"uint256","indexed":false,"internalType":"uint256"}],"anonymous":false},{"type":"event","name":"SetMinDstGas","inputs":[{"name":"_dstChainId","type":"uint16","indexed":false,"internalType":"uint16"},{"name":"_type","type":"uint16","indexed":false,"internalType":"uint16"},{"name":"_minDstGas","type":"uint256","indexed":false,"internalType":"uint256"}],"anonymous":false},{"type":"event","name":"SetPrecrime","inputs":[{"name":"precrime","type":"address","indexed":false,"internalType":"address"}],"anonymous":false},{"type":"event","name":"SetTrustedRemote","inputs":[{"name":"_remoteChainId","type":"uint16","indexed":false,"internalType":"uint16"},{"name":"_path","type":"bytes","indexed":false,"internalType":"bytes"}],"anonymous":false},{"type":"event","name":"SetTrustedRemoteAddress","inputs":[{"name":"_remoteChainId","type":"uint16","indexed":false,"internalType":"uint16"},{"name":"_remoteAddress","type":"bytes","indexed":false,"internalType":"bytes"}],"anonymous":false},{"type":"event","name":"SetUseCustomAdapterParams","inputs":[{"name":"_useCustomAdapterParams","type":"bool","indexed":false,"internalType":"bool"}],"anonymous":false},{"type":"event","name":"Transfer","inputs":[{"name":"from","type":"address","indexed":true,"internalType":"address"},{"name":"to","type":"address","indexed":true,"internalType":"address"},{"name":"value","type":"uint256","indexed":false,"internalType":"uint256"}],"anonymous":false},{"type":"error","name":"ActionTypeNotValid","inputs":[]},{"type":"error","name":"AllowanceNotValid","inputs":[]},{"type":"error","name":"NotAuthorized","inputs":[]},{"type":"error","name":"NotValid","inputs":[]}],"bytecode":{"object":"0x60e0604090808252346200059857620046d780380380916200002282856200059d565b833981016101008282031262000598576200003d82620005d7565b906020926200004e848201620005d7565b818601516001600160a01b03808216949290918590036200059857606084015196828816809803620005985760808501516001600160401b0394908581116200059857816200009f91880162000611565b9060a0870151908682116200059857620000bb91880162000611565b9160c087015160ff811696878203620005985762000116602b60e08f9b01519a5180966a546170696f63614f46542d60a81b878301526200010581518092898686019101620005ec565b810103600b8101875201856200059d565b607f8d518096601d60fa1b868301526200013a8151809288602186019101620005ec565b810103926200015460216001958681018a5201886200059d565b831c16936000958887549d60018060a01b03199e8f33908216178a55823391167f8be0079c531659141344cd1fd0a4f28419497f9722a3daafe3b4186f6b6457e08b80a3166080528560a05281518381116200058457600b54928584811c9416801562000579575b8785101462000565578190601f9485811162000511575b508790858311600114620004ab578a926200049f575b5050600019600383901b1c191690851b17600b555b80519283116200048b57600c548481811c9116801562000480575b868210146200046c5782811162000423575b5084918311600114620003bd579282939183928894620003b1575b50501b916000199060031b1c191617600c555b601282116200035e575060120360ff81116200034a5760ff1690604d8211620003365750600a0a60c0526101f46012551684600f541617600f5560ff19601154161760115560105581600d541617600d55600e541617600e555161406a90816200066d823960805181818161047e0152818161076401528181610b6001528181610d3c01528181610ebb0152818161107c01528181611d3801528181611e480152818161258101528181612c76015261312c015260a051816117a9015260c0518181816133720152818161360e0152818161391401526139ae0152f35b634e487b7160e01b81526011600452602490fd5b634e487b7160e01b82526011600452602482fd5b6084908b519062461bcd60e51b82526004820152602760248201527f4f46543a20736861726564446563696d616c73206d757374206265203c3d20646044820152666563696d616c7360c81b6064820152fd5b01519250388062000246565b600c8752848720919083601f198116895b88888383106200040b5750505010620003f1575b505050811b01600c5562000259565b015160001960f88460031b161c19169055388080620003e2565b868601518855909601959485019487935001620003ce565b600c88528588208380860160051c82019288871062000462575b0160051c019085905b828110620004565750506200022b565b89815501859062000446565b925081926200043d565b634e487b7160e01b88526022600452602488fd5b90607f169062000219565b634e487b7160e01b87526041600452602487fd5b015190503880620001e9565b600b8b52888b208894509190601f1984168c5b8b828210620004fa5750508411620004e0575b505050811b01600b55620001fe565b015160001960f88460031b161c19169055388080620004d1565b8385015186558b97909501949384019301620004be565b909150600b8a52878a208580850160051c8201928a86106200055b575b918991869594930160051c01915b8281106200054c575050620001d3565b8c81558594508991016200053c565b925081926200052e565b634e487b7160e01b89526022600452602489fd5b93607f1693620001bc565b634e487b7160e01b88526041600452602488fd5b600080fd5b601f909101601f19168101906001600160401b03821190821017620005c157604052565b634e487b7160e01b600052604160045260246000fd5b51906001600160a01b03821682036200059857565b60005b838110620006005750506000910152565b8181015183820152602001620005ef565b81601f82011215620005985780516001600160401b038111620005c1576040519262000648601f8301601f1916602001856200059d565b818452602082840101116200059857620006699160208085019101620005ec565b9056fe6080604052600436101561001b575b361561001957600080fd5b005b60003560e01c80621d3567146103bf57806254af3a146103ba57806301ffc9a7146103b557806306fdde03146103b057806307e0db17146103ab578063095ea7b3146103a65780630df37483146103a15780630ed9e4061461039c5780630fb6ba591461039757806310ddb1371461039257806318160ddd1461032957806323b872dd1461038d578063313ce56714610388578063365260b414610383578063395093511461037e5780633d8b38f6146103795780633f1f4fa41461037457806342d65a8d1461036f57806343f68a491461036a57806344770515146103655780634c42899a146103655780635b8c41e61461036057806366ad5c8a1461035b578063695ef6bf1461035657806370a0823114610351578063715018a61461034c5780637533d7881461034757806376203b4814610342578063785e9e861461033d578063857749b0146103385780638cfd8f5c146103335780638da5cb5b1461032e5780639358928b14610329578063950c8a741461032457806395d89b411461031f5780639bdb98121461031a5780639f38369a14610315578063a457c2d714610310578063a4c51df51461030b578063a643c52e14610306578063a6c3d16514610301578063a9059cbb146102fc578063b353aaa7146102f7578063baf3292d146102f2578063c4461834146102ed578063cbed8b9c146102e8578063d1deba1f146102e3578063dbd01de1146102de578063dd62ed3e146102d9578063de406577146102d4578063df2a5b3b146102cf578063e6a20ae6146102ca578063eab45d9c146102c5578063eaffd49a146102c0578063eb8d72b7146102bb578063ed629c5c146102b6578063f2fde38b146102b1578063f5ecbdbc146102ac5763fc0c546a0361000e576125eb565b612517565b612450565b61242d565b6122e3565b61225a565b6121f8565b6121dc565b6120ef565b6120c6565b61206c565b612043565b611ee0565b611df4565b611dd7565b611d67565b611d22565b611cf8565b611b75565b611b57565b611ac4565b611a06565b611963565b611918565b611871565b611848565b610d9d565b61181f565b6117cd565b61178f565b611766565b611548565b6114f1565b6113a9565b61136c565b611289565b6111f5565b61118e565b611104565b6110e3565b611062565b611029565b610fcd565b610f39565b610e35565b610dfb565b610dbb565b610d13565b610add565b610936565b610820565b6107eb565b61073b565b610656565b6105a4565b610586565b610467565b61ffff8116036103d057565b600080fd5b9181601f840112156103d0578235916001600160401b0383116103d057602083818601950101116103d057565b9060806003198301126103d05760043561041b816103c4565b916001600160401b03906024358281116103d0578161043c916004016103d5565b9390939260443581811681036103d057926064359182116103d057610463916004016103d5565b9091565b346103d05761047536610402565b929493919291907f00000000000000000000000000000000000000000000000000000000000000006001600160a01b03163303610536576104fb61050392610019976104f46104da6104d58a61ffff166000526001602052604060002090565b6114d4565b805190818414918261052c575b5081610509575b50612b7f565b36916108e4565b9236916108e4565b92612ec0565b90506105163684866108e4565b60208151910120906020815191012014386104ee565b15159150386104e7565b60405162461bcd60e51b815260206004820152601e60248201527f4c7a4170703a20696e76616c696420656e64706f696e742063616c6c657200006044820152606490fd5b60009103126103d057565b346103d05760003660031901126103d0576020601054604051908152f35b346103d05760203660031901126103d05760043563ffffffff60e01b81168091036103d057602090631f7ecdf760e01b81149081156105e9575b506040519015158152f35b6301ffc9a760e01b149050386105de565b60005b83811061060d5750506000910152565b81810151838201526020016105fd565b90602091610636815180928185528580860191016105fa565b601f01601f1916010190565b90602061065392818152019061061d565b90565b346103d057600080600319360112610738576040519080600b5461067981611404565b8085529160019180831690811561070e57506001146106b3575b6106af856106a3818703826108a8565b60405191829182610642565b0390f35b9250600b83527f0175b7a638427703f0dbe7bb9bbf987a2551717b34e79f33b5b1008d1fa01db95b8284106106f65750505081016020016106a3826106af610693565b805460208587018101919091529093019281016106db565b8695506106af969350602092506106a394915060ff191682840152151560051b8201019293610693565b80fd5b346103d057600060203660031901126107385760043561075a816103c4565b610762612633565b7f00000000000000000000000000000000000000000000000000000000000000006001600160a01b0316908290823b156107d657602461ffff918360405195869485936307e0db1760e01b85521660048401525af180156107d1576107c5575080f35b6107ce90610875565b80f35b61261b565b5080fd5b6001600160a01b038116036103d057565b346103d05760403660031901126103d05761081560043561080b816107da565b6024359033612885565b602060405160018152f35b346103d05760403660031901126103d05761ffff600435610840816103c4565b610848612633565b166000526003602052602435604060002055600080f35b634e487b7160e01b600052604160045260246000fd5b6001600160401b03811161088857604052565b61085f565b606081019081106001600160401b0382111761088857604052565b90601f801991011681019081106001600160401b0382111761088857604052565b6001600160401b03811161088857601f01601f191660200190565b9291926108f0826108c9565b916108fe60405193846108a8565b8294818452818301116103d0578281602093846000960137010152565b9080601f830112156103d057816020610653933591016108e4565b60c03660031901126103d05760043561094e816107da565b60643560243561095d826103c4565b6084359261096a846107da565b60a4356001600160401b0381116103d05761098990369060040161091b565b6001600160a01b03821691338303610a7b575b508215610a69576109af610a3f936139ac565b5094610a2b6109bd83612acc565b50915050610a1d6109cd89613912565b604080516103036020820152908101979097523360608801526001600160401b0316608087015260443560a08701526001600160a01b03841660c087015260e08601919091528490610100820190565b03601f1981018552846108a8565b610a35828661377a565b3492339086612c32565b6040519182523391829161ffff1690600080516020613ff58339815191529080602081015b0390a4005b60405163f1640ae160e01b8152600490fd5b83610ab333610a9c8460018060a01b03166000526009602052604060002090565b9060018060a01b0316600052602052604060002090565b5410610acb5783610ac5913390612999565b3861099c565b60405163fb165f2360e01b8152600490fd5b60e03660031901126103d057600435610af5816107da565b602435610b01816107da565b60443590608435610b11816103c4565b6040918260a3193601126103d0578315610d02576001600160a01b039081169480821694338603610caa575b906020610b4c600494936139ac565b50928651948580926303408e4760e41b82527f0000000000000000000000000000000000000000000000000000000000000000165afa9283156107d157610b9893610c7c575b50613ba8565b918215610c6c57600080516020613ff583398151915291610a6461ffff92610c5b610bc287613912565b610c2a8a610c1c610bd1612627565b86516103026020820152604081018e905260608101939093526001600160401b03909416608083015260643560a08301526001600160a01b0390931660c082015291829060e0820190565b03601f1981018352826108a8565b60a435610c4081610c3a81612a31565b886137d1565b610c51610c4b612627565b91612a31565b908a349388612c32565b519283921694829190602083019252565b5163f1640ae160e01b8152600490fd5b610c9c9060203d8111610ca3575b610c9481836108a8565b810190612606565b5038610b92565b503d610c8a565b80610ccb33610a9c8560018060a01b03166000526009602052604060002090565b5410610cf157906020610b4c83610ce6600496953386612999565b929394505050610b3d565b845163fb165f2360e01b8152600490fd5b825163f1640ae160e01b8152600490fd5b346103d0576000602036600319011261073857600435610d32816103c4565b610d3a612633565b7f00000000000000000000000000000000000000000000000000000000000000006001600160a01b0316908290823b156107d657602461ffff918360405195869485936310ddb13760e01b85521660048401525af180156107d1576107c5575080f35b346103d05760003660031901126103d0576020600a54604051908152f35b346103d05760603660031901126103d057610815600435610ddb816107da565b602435610de7816107da565b60443591610df6833383612999565b61277d565b346103d05760003660031901126103d057602060405160128152f35b6064359081151582036103d057565b60a4359081151582036103d057565b346103d05760a03660031901126103d057600435610e52816103c4565b610e5a610e17565b90608435906001600160401b0382116103d057610e806104f460409336906004016103d5565b90610eb7610e9a610e92604435613912565b6024356139e3565b928451958694859463040a7bb160e41b86523090600487016132c7565b03817f00000000000000000000000000000000000000000000000000000000000000006001600160a01b03165afa9081156107d1576000908192610f08575b50604080519182526020820192909252f35b9050610f2b915060403d8111610f32575b610f2381836108a8565b8101906132b1565b9038610ef6565b503d610f19565b346103d05760403660031901126103d057600435610f56816107da565b3360009081526009602090815260408083206001600160a01b03851684529091529020546024358101809111610f90576108159133612885565b61268b565b9060406003198301126103d057600435610fae816103c4565b91602435906001600160401b0382116103d057610463916004016103d5565b346103d057602061ffff61101a610fe336610f95565b939091166000526001845261100561100c60406000206040519283809261143e565b03826108a8565b8481519101209236916108e4565b82815191012014604051908152f35b346103d05760203660031901126103d05761ffff600435611049816103c4565b1660005260036020526020604060002054604051908152f35b346103d05761107036610f95565b919061107a612633565b7f00000000000000000000000000000000000000000000000000000000000000006001600160a01b031691823b156103d057604051928380926342d65a8d60e01b8252816110d16000988997889460048501612e33565b03925af180156107d1576107c5575080f35b346103d05760203660031901126103d0576110fc612633565b600435601255005b346103d05760003660031901126103d057602060405160008152f35b60606003198201126103d057600435611138816103c4565b916024356001600160401b03928382116103d0576111589160040161091b565b9160443590811681036103d05790565b6020906111829282604051948386809551938492016105fa565b82019081520301902090565b346103d05760206111ec61ffff6111cb836111a836611120565b9490911660005260058252604060002082604051948386809551938492016105fa565b820190815203019020906001600160401b0316600052602052604060002090565b54604051908152f35b346103d05761120336610402565b9192949390303303611227576104fb611221926100199736916108e4565b9261330b565b60405162461bcd60e51b815260206004820152602660248201527f4e6f6e626c6f636b696e674c7a4170703a2063616c6c6572206d7573742062656044820152650204c7a4170760d41b6064820152608490fd5b908160609103126103d05790565b60a03660031901126103d0576004356112a1816107da565b6024356112ad816103c4565b604435916084356001600160401b0381116103d057602061ffff6112e4600080516020613ff583398151915293369060040161127b565b9361135785356112f3816107da565b6113116104f486890135986113078a6107da565b60408101906130aa565b61131b818a613824565b6113306113296064356139ac565b5085613ba8565b9761133c8915156134e8565b61134e6113488a613912565b8c6139e3565b9234938b612c32565b6040519485526001600160a01b0316941692a4005b346103d05760203660031901126103d057600435611389816107da565b60018060a01b031660005260086020526020604060002054604051908152f35b346103d057600080600319360112610738576113c3612633565b80546001600160a01b03198116825581906001600160a01b03167f8be0079c531659141344cd1fd0a4f28419497f9722a3daafe3b4186f6b6457e08280a380f35b90600182811c92168015611434575b602083101461141e57565b634e487b7160e01b600052602260045260246000fd5b91607f1691611413565b906000929180549161144f83611404565b9182825260019384811690816000146114b15750600114611471575b50505050565b90919394506000526020928360002092846000945b83861061149d57505050500101903880808061146b565b805485870183015294019385908201611486565b9294505050602093945060ff191683830152151560051b0101903880808061146b565b906114ef6114e8926040519384809261143e565b03836108a8565b565b346103d05760203660031901126103d05761ffff600435611511816103c4565b1660005260016020526106af61100561153460406000206040519283809261143e565b60405191829160208352602083019061061d565b60e03660031901126103d057600435611560816107da565b60243561156c816103c4565b604435916001600160401b03906084358281116103d0576115919036906004016103d5565b91909260a43591818316918284036103d05760c4359081116103d0576115bb90369060040161127b565b926115f28435956115cb876107da565b6115ea6115e0602088013597611307896107da565b99909236916108e4565b9736916108e4565b9460ff600654166000146116e55760228651106116a0578560209561134e6113579461166e8c61165b61ffff9a8b6022600080516020613ff58339815191529f0151931660005260028d5261165560406000206001600052602052604060002090565b546126bd565b90611667821515613864565b10156138b0565b61168361167c6064356139ac565b5088613ba8565b9a61168f8c15156134e8565b8d6116998d613912565b9033613a62565b60405162461bcd60e51b815260206004820152601c60248201527f4c7a4170703a20696e76616c69642061646170746572506172616d73000000006044820152606490fd5b94809493505161171257600080516020613ff58339815191529460209461ffff9461134e6113579461166e565b60405162461bcd60e51b815260206004820152602660248201527f4f4654436f72653a205f61646170746572506172616d73206d7573742062652060448201526532b6b83a3c9760d11b6064820152608490fd5b346103d05760003660031901126103d057600f546040516001600160a01b039091168152602090f35b346103d05760003660031901126103d057602060405160ff7f0000000000000000000000000000000000000000000000000000000000000000168152f35b346103d05760403660031901126103d05760206111ec6004356117ef816103c4565b61ffff602435916117ff836103c4565b166000526002835260406000209061ffff16600052602052604060002090565b346103d05760003660031901126103d0576000546040516001600160a01b039091168152602090f35b346103d05760003660031901126103d0576004546040516001600160a01b039091168152602090f35b346103d057600080600319360112610738576040519080600c5461189481611404565b8085529160019180831690811561070e57506001146118bd576106af856106a3818703826108a8565b9250600c83527fdf6966c971051c3d54ec59162606531493a51404a002842f56009d7e5cf4a8c75b8284106119005750505081016020016106a3826106af610693565b805460208587018101919091529093019281016118e5565b346103d057602060ff61195761ffff6111cb8461193436611120565b9490911660005260078252604060002082604051948386809551938492016105fa565b54166040519015158152f35b346103d05760203660031901126103d05761ffff600435611983816103c4565b1660005260016020526110056119a360406000206040519283809261143e565b8051156119c1576106a3816119bb6106af9351612ea2565b90613de8565b60405162461bcd60e51b815260206004820152601d60248201527f4c7a4170703a206e6f20747275737465642070617468207265636f72640000006044820152606490fd5b346103d05760403660031901126103d057600435611a23816107da565b60243590336000526009602052611a508160406000209060018060a01b0316600052602052604060002090565b5491808310611a7157611a6592039033612885565b60405160018152602090f35b60405162461bcd60e51b815260206004820152602560248201527f45524332303a2064656372656173656420616c6c6f77616e63652062656c6f77604482015264207a65726f60d81b6064820152608490fd5b346103d05760e03660031901126103d057600435611ae1816103c4565b6001600160401b03906064358281116103d057611b029036906004016103d5565b60849291923584811681036103d057611b19610e26565b9160c4359586116103d057611b35611b459636906004016103d5565b95909460443590602435906130dc565b60408051928352602083019190915290f35b346103d05760003660031901126103d0576020601254604051908152f35b346103d057611b8336610f95565b90611b8c612633565b60405192602092808385870137611bb86034868381013060601b888201520360148101885201866108a8565b60009361ffff8316855260019081815260408620918751916001600160401b03831161088857611bf283611bec8654611404565b86612e4e565b80601f8411600114611c62575091808092611c519695948a9b7f8c0400cfe2d1199b1a725c78960bcc2a344d869b80590d0f2bd005db15a572ce9b94611c57575b50501b916000199060031b1c19161790555b60405193849384612e33565b0390a180f35b015192503880611c33565b91939498601f198416611c7a87600052602060002090565b938a905b828210611ce1575050917f8c0400cfe2d1199b1a725c78960bcc2a344d869b80590d0f2bd005db15a572ce999a95939185611c5198969410611cc8575b505050811b019055611c45565b015160001960f88460031b161c19169055388080611cbb565b808886978294978701518155019601940190611c7e565b346103d05760403660031901126103d057610815600435611d18816107da565b602435903361277d565b346103d05760003660031901126103d0576040517f00000000000000000000000000000000000000000000000000000000000000006001600160a01b03168152602090f35b346103d05760203660031901126103d0577f5db758e995a17ec1ad84bdef7e8c3293a0bd6179bcce400dff5d4c3d87db726b6020600435611da7816107da565b611daf612633565b600480546001600160a01b0319166001600160a01b03929092169182179055604051908152a1005b346103d05760003660031901126103d05760206040516127108152f35b346103d05760803660031901126103d057600435611e11816103c4565b602435611e1d816103c4565b6064356001600160401b0381116103d057611e3c9036906004016103d5565b9092611e46612633565b7f00000000000000000000000000000000000000000000000000000000000000006001600160a01b031690813b156103d05760008094611ebd604051978896879586946332fb62e760e21b865261ffff80921660048701521660248501526044356044850152608060648501526084840191612e12565b03925af180156107d157611ecd57005b80611eda61001992610875565b8061057b565b611ee936610402565b9161ffff86949296166000526005602052611f3081604060002060206040518092878b833787820190815203019020906001600160401b0316600052602052604060002090565b54918215611ff257611fe18483611fda7fc264d91f3adc5588250e1551f547752ca0cfa8f6b530d243b9f9f4cab10ea8e59a6000611fc684611fae8e8a8f611fed9f908f611f9490611f87611fa89436908d6108e4565b602081519101201461301d565b61ffff166000526005602052604060002090565b91613004565b906001600160401b0316600052602052604060002090565b55611fd236878d6108e4565b9336916108e4565b918861330b565b60405195869586613073565b0390a1005b60405162461bcd60e51b815260206004820152602360248201527f4e6f6e626c6f636b696e674c7a4170703a206e6f2073746f726564206d65737360448201526261676560e81b6064820152608490fd5b346103d05760003660031901126103d057600e546040516001600160a01b039091168152602090f35b346103d05760403660031901126103d05760206111ec60043561208e816107da565b6024359061209b826107da565b60018060a01b03166000526009835260406000209060018060a01b0316600052602052604060002090565b346103d05760003660031901126103d057600d546040516001600160a01b039091168152602090f35b346103d05760603660031901126103d05760043561210c816103c4565b602435612118816103c4565b60443591612124612633565b821561219f57611fed7f9d5c7c0b934da8fefa9c7760c98383778a12dfbfc0c3b3106518f43fb9508ac09361ffff83166000526002602052806121798560406000209061ffff16600052602052604060002090565b556040519384938460409194939294606082019561ffff80921683521660208201520152565b60405162461bcd60e51b81526020600482015260156024820152744c7a4170703a20696e76616c6964206d696e47617360581b6044820152606490fd5b346103d05760003660031901126103d057602060405160018152f35b346103d05760203660031901126103d0576004358015158091036103d05760207f1584ad594a70cbe1e6515592e1272a987d922b097ead875069cebe8b40c004a491612242612633565b60ff196006541660ff821617600655604051908152a1005b346103d0576101003660031901126103d057600435612278816103c4565b6001600160401b03906024358281116103d0576122999036906004016103d5565b91906044359084821682036103d0576084356122b4816107da565b60c4359586116103d0576122cf6100199636906004016103d5565b94909360e4359660a43594606435936131d2565b346103d0576122f136610f95565b91906122fb612633565b60009161ffff81168352600160209080825260408520916001600160401b038711610888576123348761232e8554611404565b85612e4e565b8590601f881160011461239b5750918680879893611c51957ffa41487ad5d6728f0b19276fa1eddc16558578f5109fc39d2dc33c3230470dab9993612390575b501b906000198460031b1c191617905560405193849384612e33565b880135925038612374565b90601f1988166123b085600052602060002090565b9288905b828210612416575050918893917ffa41487ad5d6728f0b19276fa1eddc16558578f5109fc39d2dc33c3230470dab9899611c519694106123fc575b505082811b019055611c45565b870135600019600386901b60f8161c1916905538806123ef565b808685968294968c013581550195019301906123b4565b346103d05760003660031901126103d057602060ff600654166040519015158152f35b346103d05760203660031901126103d05760043561246d816107da565b612475612633565b6001600160a01b0390811680156124c357600080546001600160a01b03198116831782559092167f8be0079c531659141344cd1fd0a4f28419497f9722a3daafe3b4186f6b6457e08380a380f35b60405162461bcd60e51b815260206004820152602660248201527f4f776e61626c653a206e6577206f776e657220697320746865207a65726f206160448201526564647265737360d01b6064820152608490fd5b346103d05760803660031901126103d057600435612534816103c4565b60243590612541826103c4565b61254c6044356107da565b604051633d7b2f6f60e21b815261ffff91821660048201529116602482015230604482015260648035908201526000816084817f00000000000000000000000000000000000000000000000000000000000000006001600160a01b03165afa80156107d1576106af916000916125ca575b5060405191829182610642565b6125e5913d8091833e6125dd81836108a8565b810190612db4565b386125bd565b346103d05760003660031901126103d0576020604051308152f35b908160209103126103d05751610653816103c4565b6040513d6000823e3d90fd5b60c435610653816107da565b6000546001600160a01b0316330361264757565b606460405162461bcd60e51b815260206004820152602060248201527f4f776e61626c653a2063616c6c6572206973206e6f7420746865206f776e65726044820152fd5b634e487b7160e01b600052601160045260246000fd5b90601f8201809211610f9057565b6051019081605111610f9057565b91908201809211610f9057565b156126d157565b60405162461bcd60e51b815260206004820152602360248201527f45524332303a207472616e7366657220746f20746865207a65726f206164647260448201526265737360e81b6064820152608490fd5b1561272957565b60405162461bcd60e51b815260206004820152602660248201527f45524332303a207472616e7366657220616d6f756e7420657863656564732062604482015265616c616e636560d01b6064820152608490fd5b916001600160a01b03808416929091831561283257612817826000805160206140158339815191529461282d9416966127b78815156126ca565b6001600160a01b03811660009081526008602052604090206127fc908590546127e282821015612722565b039160018060a01b03166000526008602052604060002090565b556001600160a01b0316600090815260086020526040902090565b8054820190556040519081529081906020820190565b0390a3565b60405162461bcd60e51b815260206004820152602560248201527f45524332303a207472616e736665722066726f6d20746865207a65726f206164604482015264647265737360d81b6064820152608490fd5b6001600160a01b0380821692919083156129485782169384156128f857806128e77f8c5be1e5ebec7d5bd14f71427d1e84f3dd0314c0f7b2291e5b200ac8c7c3b92594610a9c61282d9560018060a01b03166000526009602052604060002090565b556040519081529081906020820190565b60405162461bcd60e51b815260206004820152602260248201527f45524332303a20617070726f766520746f20746865207a65726f206164647265604482015261737360f01b6064820152608490fd5b60405162461bcd60e51b8152602060048201526024808201527f45524332303a20617070726f76652066726f6d20746865207a65726f206164646044820152637265737360e01b6064820152608490fd5b6001600160a01b0380821660009081526009602090815260408083209386168352929052209091905492600184016129d15750505050565b8084106129ec576129e3930391612885565b3880808061146b565b60405162461bcd60e51b815260206004820152601d60248201527f45524332303a20696e73756666696369656e7420616c6c6f77616e63650000006044820152606490fd5b60405190600160f01b60208301526022820152602281526106538161088d565b15612a5857565b60405162461bcd60e51b8152602060048201526012602482015271556e737570706f727465642074785479706560701b6044820152606490fd5b15612a9957565b60405162461bcd60e51b815260206004820152600b60248201526a47617320746f6f206c6f7760a81b6044820152606490fd5b600080825160228114908115612b74575b5015612b3757600283015193602284015193600261ffff8716600181148015612b2e575b612b0a90612a51565b612b15871515612a92565b14612b1d5750565b925090506056604283015192015190565b50808214612b01565b60405162461bcd60e51b8152602060048201526015602482015274496e76616c69642061646170746572506172616d7360581b6044820152606490fd5b604291501138612add565b15612b8657565b60405162461bcd60e51b815260206004820152602660248201527f4c7a4170703a20696e76616c696420736f757263652073656e64696e6720636f6044820152651b9d1c9858dd60d21b6064820152608490fd5b92612bff61065397959361ffff612c0d9416865260c0602087015260c086019061061d565b90848203604086015261061d565b6001600160a01b0391821660608401529316608082015280830360a09091015261061d565b94612c5b9193929561ffff81166000526001602052612c6260406000206040519485809261143e565b03846108a8565b825115612ce757612c74855182612d45565b7f00000000000000000000000000000000000000000000000000000000000000006001600160a01b031693843b156103d057600096612cc991604051998a988997889662c5803160e81b885260048801612bda565b03925af180156107d157612cda5750565b80611eda6114ef92610875565b60405162461bcd60e51b815260206004820152603060248201527f4c7a4170703a2064657374696e6174696f6e20636861696e206973206e6f742060448201526f61207472757374656420736f7572636560801b6064820152608490fd5b61ffff166000526003602052604060002054908115612daa575b11612d6657565b606460405162461bcd60e51b815260206004820152602060248201527f4c7a4170703a207061796c6f61642073697a6520697320746f6f206c617267656044820152fd5b6127109150612d5f565b6020818303126103d0578051906001600160401b0382116103d0570181601f820112156103d0578051612de6816108c9565b92612df460405194856108a8565b818452602082840101116103d05761065391602080850191016105fa565b908060209392818452848401376000828201840152601f01601f1916010190565b60409061ffff61065395931681528160208201520191612e12565b90601f8111612e5c57505050565b600091825260208220906020601f850160051c83019410612e98575b601f0160051c01915b828110612e8d57505050565b818155600101612e81565b9092508290612e78565b601319810191908211610f9057565b605019810191908211610f9057565b929091612f325a604051633356ae4560e11b602082015261ffff871660248201526080604482015290612f2c82612f1e612efd60a483018a61061d565b6001600160401b03881660648401528281036023190160848401528861061d565b03601f1981018452836108a8565b30613f97565b939015612f41575b5050505050565b612f4a94612f54565b3880808080612f3a565b9193612ff17fe183f33de2837795525b4792ca4cd60535bd77c53b7e7030060bfcf5734d6b0c95612fff939561ffff81516020830120961695866000526005602052612fb8836111cb60208b604060002082604051948386809551938492016105fa565b556001600160401b03612fdd604051988998895260a060208a015260a089019061061d565b92166040870152858203606087015261061d565b90838203608085015261061d565b0390a1565b6020919283604051948593843782019081520301902090565b1561302457565b60405162461bcd60e51b815260206004820152602160248201527f4e6f6e626c6f636b696e674c7a4170703a20696e76616c6964207061796c6f616044820152601960fa1b6064820152608490fd5b9161309f9060609461ffff6001600160401b039499989799168552608060208601526080850191612e12565b951660408201520152565b903590601e19813603018212156103d057018035906001600160401b0382116103d0576020019181360383136103d057565b9491959897906116996131056040996130fd61310b976131289936916108e4565b9436916108e4565b97613912565b928451968794859463040a7bb160e41b86523090600487016132c7565b03817f00000000000000000000000000000000000000000000000000000000000000006001600160a01b03165afa9182156107d157600090819361316b57509190565b905061046391925060403d8111610f3257610f2381836108a8565b939694916131b49061065399979461ffff6001600160401b039416875260c0602088015260c0870191612e12565b961660408401526060830152608082015260a0818503910152612e12565b9196979298959493909430330361326c576131ee908530613d34565b60405181815290946001600160a01b03169390849061ffff8516907fbf551ec93859b170f9b2141bd9298bf3f64322c6f7beb2543a0cb669834118bf90602090a3833b156103d057600098899561325c936040519c8d9b8c9a8b98633fe79aed60e11b8a5260048a01613186565b0393f180156107d157612cda5750565b60405162461bcd60e51b815260206004820152601f60248201527f4f4654436f72653a2063616c6c6572206d757374206265204f4654436f7265006044820152606490fd5b91908260409103126103d0576020825192015190565b9192610653959361ffff6132f69316845260018060a01b0316602084015260a0604084015260a083019061061d565b9215156060820152608081840391015261061d565b92919060ff61331984613f3c565b16806134935750505060ff61332d82613f3c565b161580613488575b61333e90613a16565b61335061334a82613eec565b91613f87565b90916001600160a01b03918284161561347e575b613398906001600160401b037f00000000000000000000000000000000000000000000000000000000000000009116613999565b918316928315613439577fbf551ec93859b170f9b2141bd9298bf3f64322c6f7beb2543a0cb669834118bf916133f961ffff926133df6133da87600a546126bd565b600a55565b6001600160a01b0316600090815260086020526040902090565b8481540190558460006000805160206140158339815191526040518061342489829190602083019252565b0390a36040519384521691806020810161282d565b60405162461bcd60e51b815260206004820152601f60248201527f45524332303a206d696e7420746f20746865207a65726f2061646472657373006044820152606490fd5b61dead9350613364565b508051602914613335565b6001036134a3576114ef936135c2565b60405162461bcd60e51b815260206004820152601c60248201527f4f4654436f72653a20756e6b6e6f776e207061636b65742074797065000000006044820152606490fd5b156134ef57565b60405162461bcd60e51b815260206004820152601960248201527f4f4654436f72653a20616d6f756e7420746f6f20736d616c6c000000000000006044820152606490fd5b98979692936001600160401b0361356660e0989461ffff6135929995168d5260208d61010091829101528d019061061d565b951660408b015260608a01526001600160a01b0316608089015260a088015286820360c088015261061d565b930152565b6001600160401b036135b76040939695949660608452606084019061061d565b951660208201520152565b90916135cd84613acf565b90916135fe6135f787611fae6135f18b61ffff166000526007602052604060002090565b8c611168565b5460ff1690565b916136346001600160401b0392837f00000000000000000000000000000000000000000000000000000000000000009116613999565b9288888b8315613730575b505050853b156136e557946136869694612f2c948a94612f1e948d996000146136de5750505a925b5a978b6040519a8b9863757fea4d60e11b60208b015260248a01613534565b90156136d35750906136ce61ffff928560207fb8890edbfc1c74692f527444645f95489c3703cc2df42e4a366f5d06fa6cd88496975191012090604051948594169684613597565b0390a2565b926114ef9492612f54565b1692613667565b50506040516001600160a01b039094168452507f9aedf5fdba8716db3b6705ca00150643309995d4f818a249ed6dde6677e7792d975091955085945050602084019250612fff915050565b90611fae6137659261375f8961374a613772979b30613cd1565b9961ffff166000526007602052604060002090565b90611168565b805460ff19166001179055565b88888b61363f565b60065460ff16156137c95760228251106116a05761ffff60226114ef930151911660005260026020526137bc6040600020610303600052602052604060002090565b5490611667821515613864565b505161171257565b9060ff6006541660001461381a5760228151106116a0576114ef9261ffff602261165b930151931660005260026020526116556040600020610302600052602052604060002090565b9150505161171257565b60065460ff16156137c95760228251106116a05761ffff60226114ef930151911660005260026020526137bc604060002060008052602052604060002090565b1561386b57565b60405162461bcd60e51b815260206004820152601a60248201527f4c7a4170703a206d696e4761734c696d6974206e6f74207365740000000000006044820152606490fd5b156138b757565b60405162461bcd60e51b815260206004820152601b60248201527f4c7a4170703a20676173206c696d697420697320746f6f206c6f7700000000006044820152606490fd5b634e487b7160e01b600052601260045260246000fd5b7f000000000000000000000000000000000000000000000000000000000000000090811561399457046001600160401b039081811161394f571690565b60405162461bcd60e51b815260206004820152601a60248201527f4f4654436f72653a20616d6f756e745344206f766572666c6f770000000000006044820152606490fd5b6138fc565b81810292918115918404141715610f9057565b7f0000000000000000000000000000000000000000000000000000000000000000801561399457810690818103908111610f905791565b90604051916000602084015260218301526001600160401b0360c01b9060c01b166041820152602981526106538161088d565b15613a1d57565b60405162461bcd60e51b815260206004820152601860248201527f4f4654436f72653a20696e76616c6964207061796c6f616400000000000000006044820152606490fd5b939260719261065394604051968794600160f81b602087015260218601526001600160401b0360c01b809360c01b16604186015260018060a01b0316604985015260c01b166069830152613abf81518092602086860191016105fa565b81010360518101845201826108a8565b90613ae7600160ff613ae085613f3c565b1614613a16565b613af082613eec565b90613afa83613f87565b906049845110613b6b576049840151936051815110613b2f57613b2c605182015191613b268151612eb1565b90613e68565b91565b60405162461bcd60e51b8152602060048201526014602482015273746f55696e7436345f6f75744f66426f756e647360601b6044820152606490fd5b60405162461bcd60e51b8152602060048201526015602482015274746f427974657333325f6f75744f66426f756e647360581b6044820152606490fd5b6001600160a01b038116338103613c6a575b8015613c1b5781613bf084613be360009560018060a01b03166000526008602052604060002090565b546127e282821015613c7a565b55613bfe83600a5403600a55565b60405183815260008051602061401583398151915290602090a390565b60405162461bcd60e51b815260206004820152602160248201527f45524332303a206275726e2066726f6d20746865207a65726f206164647265736044820152607360f81b6064820152608490fd5b613c75833384612999565b613bba565b15613c8157565b60405162461bcd60e51b815260206004820152602260248201527f45524332303a206275726e20616d6f756e7420657863656564732062616c616e604482015261636560f01b6064820152608490fd5b6001600160a01b0381169190821561343957600a5490828201809211610f9057600092613d2560209260008051602061401583398151915294600a5560018060a01b03166000526008602052604060002090565b818154019055604051908152a3565b6106539183916001600160a01b038116308114159081613d60575b501561277d57610df6833383612999565b905033141538613d4f565b15613d7257565b60405162461bcd60e51b815260206004820152600e60248201526d736c6963655f6f766572666c6f7760901b6044820152606490fd5b15613daf57565b60405162461bcd60e51b8152602060048201526011602482015270736c6963655f6f75744f66426f756e647360781b6044820152606490fd5b613dfc82613df5816126a1565b1015613d6b565b613e098282511015613da8565b81613e21575050604051600081526020810160405290565b60405191601f811691821560051b808486010193838501920101905b808410613e555750508252601f01601f191660405290565b9092835181526020809101930190613e3d565b613e7582613df5816126a1565b613e8a8151613e83846126af565b1115613da8565b81613ea2575050604051600081526020810160405290565b60405191601f8116916051831560051b80858701019484860193010101905b808410613ed95750508252601f01601f191660405290565b9092835181526020809101930190613ec1565b6021815110613eff57602d015160601c90565b60405162461bcd60e51b8152602060048201526015602482015274746f416464726573735f6f75744f66426f756e647360581b6044820152606490fd5b6001815110613f4c576001015190565b60405162461bcd60e51b8152602060048201526013602482015272746f55696e74385f6f75744f66426f756e647360681b6044820152606490fd5b6029815110613b2f576029015190565b6040519392909160009160c08601916001600160401b038311878410176108885783926040526096875282602088019560a036883760208451940192f1903d9060968211613feb575b6000908286523e9190565b60969150613fe056fed81fc9b8523134ed613870ed029d6170cbb73aa6a6bc311b9a642689fb9df59addf252ad1be2c89b69c2b068fc378daa952ba7f163c4a11628f55a4df523b3efa264697066735822122091e1cb592caa41eba4cd9c4a2fdcff802e7483c40058809d17aad710a8ce418c64736f6c63430008130033","linkReferences":{}},"methodIdentifiers":{"DEFAULT_PAYLOAD_SIZE_LIMIT()":"c4461834","NO_EXTRA_GAS()":"44770515","PT_SEND()":"4c42899a","PT_SEND_AND_CALL()":"e6a20ae6","SWAP_MAX_SLIPPAGE()":"a643c52e","allowance(address,address)":"dd62ed3e","approve(address,uint256)":"095ea7b3","balanceOf(address)":"70a08231","callOnOFTReceived(uint16,bytes,uint64,bytes32,address,uint256,bytes,uint256)":"eaffd49a","circulatingSupply()":"9358928b","cluster()":"dbd01de1","creditedPackets(uint16,bytes,uint64)":"9bdb9812","decimals()":"313ce567","decreaseAllowance(address,uint256)":"a457c2d7","erc20()":"785e9e86","estimateSendAndCallFee(uint16,bytes32,uint256,bytes,uint64,bool,bytes)":"a4c51df5","estimateSendFee(uint16,bytes32,uint256,bool,bytes)":"365260b4","failedMessages(uint16,bytes,uint64)":"5b8c41e6","forceResumeReceive(uint16,bytes)":"42d65a8d","getConfig(uint16,uint16,address,uint256)":"f5ecbdbc","getTrustedRemoteAddress(uint16)":"9f38369a","hostChainID()":"0054af3a","increaseAllowance(address,uint256)":"39509351","isTrustedRemote(uint16,bytes)":"3d8b38f6","lzEndpoint()":"b353aaa7","lzReceive(uint16,bytes,uint64,bytes)":"001d3567","minDstGasLookup(uint16,uint16)":"8cfd8f5c","name()":"06fdde03","nonblockingLzReceive(uint16,bytes,uint64,bytes)":"66ad5c8a","owner()":"8da5cb5b","payloadSizeLimitLookup(uint16)":"3f1f4fa4","precrime()":"950c8a74","renounceOwnership()":"715018a6","retrieveFromStrategy(address,uint256,uint256,uint16,address,bytes)":"0ed9e406","retryMessage(uint16,bytes,uint64,bytes)":"d1deba1f","sendAndCall(address,uint16,bytes32,uint256,bytes,uint64,(address,address,bytes))":"76203b48","sendFrom(address,uint16,bytes32,uint256,(address,address,bytes))":"695ef6bf","sendToStrategy(address,address,uint256,uint256,uint16,(uint256,address))":"0fb6ba59","setConfig(uint16,uint16,uint256,bytes)":"cbed8b9c","setMaxSlippage(uint256)":"43f68a49","setMinDstGas(uint16,uint16,uint256)":"df2a5b3b","setPayloadSizeLimit(uint16,uint256)":"0df37483","setPrecrime(address)":"baf3292d","setReceiveVersion(uint16)":"10ddb137","setSendVersion(uint16)":"07e0db17","setTrustedRemote(uint16,bytes)":"eb8d72b7","setTrustedRemoteAddress(uint16,bytes)":"a6c3d165","setUseCustomAdapterParams(bool)":"eab45d9c","sharedDecimals()":"857749b0","supportsInterface(bytes4)":"01ffc9a7","symbol()":"95d89b41","token()":"fc0c546a","totalSupply()":"18160ddd","transfer(address,uint256)":"a9059cbb","transferFrom(address,address,uint256)":"23b872dd","transferOwnership(address)":"f2fde38b","trustedRemoteLookup(uint16)":"7533d788","useCustomAdapterParams()":"ed629c5c","yieldBox()":"de406577"},"id":15}