{"abi":[{"type":"constructor","inputs":[{"name":"_lzEndpoint","type":"address","internalType":"address"},{"name":"_erc20","type":"address","internalType":"address"},{"name":"_yieldBox","type":"address","internalType":"contract IYieldBoxBase"},{"name":"_cluster","type":"address","internalType":"contract ICluster"},{"name":"_name","type":"string","internalType":"string"},{"name":"_symbol","type":"string","internalType":"string"},{"name":"_decimal","type":"uint8","internalType":"uint8"},{"name":"_hostChainID","type":"uint256","internalType":"uint256"}],"stateMutability":"nonpayable"},{"type":"receive","stateMutability":"payable"},{"type":"function","name":"DEFAULT_PAYLOAD_SIZE_LIMIT","inputs":[],"outputs":[{"name":"","type":"uint256","internalType":"uint256"}],"stateMutability":"view"},{"type":"function","name":"NO_EXTRA_GAS","inputs":[],"outputs":[{"name":"","type":"uint256","internalType":"uint256"}],"stateMutability":"view"},{"type":"function","name":"PT_SEND","inputs":[],"outputs":[{"name":"","type":"uint8","internalType":"uint8"}],"stateMutability":"view"},{"type":"function","name":"PT_SEND_AND_CALL","inputs":[],"outputs":[{"name":"","type":"uint8","internalType":"uint8"}],"stateMutability":"view"},{"type":"function","name":"SWAP_MAX_SLIPPAGE","inputs":[],"outputs":[{"name":"","type":"uint256","internalType":"uint256"}],"stateMutability":"view"},{"type":"function","name":"allowance","inputs":[{"name":"owner","type":"address","internalType":"address"},{"name":"spender","type":"address","internalType":"address"}],"outputs":[{"name":"","type":"uint256","internalType":"uint256"}],"stateMutability":"view"},{"type":"function","name":"approve","inputs":[{"name":"spender","type":"address","internalType":"address"},{"name":"amount","type":"uint256","internalType":"uint256"}],"outputs":[{"name":"","type":"bool","internalType":"bool"}],"stateMutability":"nonpayable"},{"type":"function","name":"balanceOf","inputs":[{"name":"account","type":"address","internalType":"address"}],"outputs":[{"name":"","type":"uint256","internalType":"uint256"}],"stateMutability":"view"},{"type":"function","name":"callOnOFTReceived","inputs":[{"name":"_srcChainId","type":"uint16","internalType":"uint16"},{"name":"_srcAddress","type":"bytes","internalType":"bytes"},{"name":"_nonce","type":"uint64","internalType":"uint64"},{"name":"_from","type":"bytes32","internalType":"bytes32"},{"name":"_to","type":"address","internalType":"address"},{"name":"_amount","type":"uint256","internalType":"uint256"},{"name":"_payload","type":"bytes","internalType":"bytes"},{"name":"_gasForCall","type":"uint256","internalType":"uint256"}],"outputs":[],"stateMutability":"nonpayable"},{"type":"function","name":"circulatingSupply","inputs":[],"outputs":[{"name":"","type":"uint256","internalType":"uint256"}],"stateMutability":"view"},{"type":"function","name":"cluster","inputs":[],"outputs":[{"name":"","type":"address","internalType":"contract ICluster"}],"stateMutability":"view"},{"type":"function","name":"creditedPackets","inputs":[{"name":"","type":"uint16","internalType":"uint16"},{"name":"","type":"bytes","internalType":"bytes"},{"name":"","type":"uint64","internalType":"uint64"}],"outputs":[{"name":"","type":"bool","internalType":"bool"}],"stateMutability":"view"},{"type":"function","name":"decimals","inputs":[],"outputs":[{"name":"","type":"uint8","internalType":"uint8"}],"stateMutability":"view"},{"type":"function","name":"decreaseAllowance","inputs":[{"name":"spender","type":"address","internalType":"address"},{"name":"subtractedValue","type":"uint256","internalType":"uint256"}],"outputs":[{"name":"","type":"bool","internalType":"bool"}],"stateMutability":"nonpayable"},{"type":"function","name":"erc20","inputs":[],"outputs":[{"name":"","type":"address","internalType":"address"}],"stateMutability":"view"},{"type":"function","name":"estimateSendAndCallFee","inputs":[{"name":"_dstChainId","type":"uint16","internalType":"uint16"},{"name":"_toAddress","type":"bytes32","internalType":"bytes32"},{"name":"_amount","type":"uint256","internalType":"uint256"},{"name":"_payload","type":"bytes","internalType":"bytes"},{"name":"_dstGasForCall","type":"uint64","internalType":"uint64"},{"name":"_useZro","type":"bool","internalType":"bool"},{"name":"_adapterParams","type":"bytes","internalType":"bytes"}],"outputs":[{"name":"nativeFee","type":"uint256","internalType":"uint256"},{"name":"zroFee","type":"uint256","internalType":"uint256"}],"stateMutability":"view"},{"type":"function","name":"estimateSendFee","inputs":[{"name":"_dstChainId","type":"uint16","internalType":"uint16"},{"name":"_toAddress","type":"bytes32","internalType":"bytes32"},{"name":"_amount","type":"uint256","internalType":"uint256"},{"name":"_useZro","type":"bool","internalType":"bool"},{"name":"_adapterParams","type":"bytes","internalType":"bytes"}],"outputs":[{"name":"nativeFee","type":"uint256","internalType":"uint256"},{"name":"zroFee","type":"uint256","internalType":"uint256"}],"stateMutability":"view"},{"type":"function","name":"failedMessages","inputs":[{"name":"","type":"uint16","internalType":"uint16"},{"name":"","type":"bytes","internalType":"bytes"},{"name":"","type":"uint64","internalType":"uint64"}],"outputs":[{"name":"","type":"bytes32","internalType":"bytes32"}],"stateMutability":"view"},{"type":"function","name":"forceResumeReceive","inputs":[{"name":"_srcChainId","type":"uint16","internalType":"uint16"},{"name":"_srcAddress","type":"bytes","internalType":"bytes"}],"outputs":[],"stateMutability":"nonpayable"},{"type":"function","name":"getConfig","inputs":[{"name":"_version","type":"uint16","internalType":"uint16"},{"name":"_chainId","type":"uint16","internalType":"uint16"},{"name":"","type":"address","internalType":"address"},{"name":"_configType","type":"uint256","internalType":"uint256"}],"outputs":[{"name":"","type":"bytes","internalType":"bytes"}],"stateMutability":"view"},{"type":"function","name":"getTrustedRemoteAddress","inputs":[{"name":"_remoteChainId","type":"uint16","internalType":"uint16"}],"outputs":[{"name":"","type":"bytes","internalType":"bytes"}],"stateMutability":"view"},{"type":"function","name":"hostChainID","inputs":[],"outputs":[{"name":"","type":"uint256","internalType":"uint256"}],"stateMutability":"view"},{"type":"function","name":"increaseAllowance","inputs":[{"name":"spender","type":"address","internalType":"address"},{"name":"addedValue","type":"uint256","internalType":"uint256"}],"outputs":[{"name":"","type":"bool","internalType":"bool"}],"stateMutability":"nonpayable"},{"type":"function","name":"isTrustedRemote","inputs":[{"name":"_srcChainId","type":"uint16","internalType":"uint16"},{"name":"_srcAddress","type":"bytes","internalType":"bytes"}],"outputs":[{"name":"","type":"bool","internalType":"bool"}],"stateMutability":"view"},{"type":"function","name":"lzEndpoint","inputs":[],"outputs":[{"name":"","type":"address","internalType":"contract ILayerZeroEndpoint"}],"stateMutability":"view"},{"type":"function","name":"lzReceive","inputs":[{"name":"_srcChainId","type":"uint16","internalType":"uint16"},{"name":"_srcAddress","type":"bytes","internalType":"bytes"},{"name":"_nonce","type":"uint64","internalType":"uint64"},{"name":"_payload","type":"bytes","internalType":"bytes"}],"outputs":[],"stateMutability":"nonpayable"},{"type":"function","name":"minDstGasLookup","inputs":[{"name":"","type":"uint16","internalType":"uint16"},{"name":"","type":"uint16","internalType":"uint16"}],"outputs":[{"name":"","type":"uint256","internalType":"uint256"}],"stateMutability":"view"},{"type":"function","name":"name","inputs":[],"outputs":[{"name":"","type":"string","internalType":"string"}],"stateMutability":"view"},{"type":"function","name":"nonblockingLzReceive","inputs":[{"name":"_srcChainId","type":"uint16","internalType":"uint16"},{"name":"_srcAddress","type":"bytes","internalType":"bytes"},{"name":"_nonce","type":"uint64","internalType":"uint64"},{"name":"_payload","type":"bytes","internalType":"bytes"}],"outputs":[],"stateMutability":"nonpayable"},{"type":"function","name":"owner","inputs":[],"outputs":[{"name":"","type":"address","internalType":"address"}],"stateMutability":"view"},{"type":"function","name":"payloadSizeLimitLookup","inputs":[{"name":"","type":"uint16","internalType":"uint16"}],"outputs":[{"name":"","type":"uint256","internalType":"uint256"}],"stateMutability":"view"},{"type":"function","name":"precrime","inputs":[],"outputs":[{"name":"","type":"address","internalType":"address"}],"stateMutability":"view"},{"type":"function","name":"renounceOwnership","inputs":[],"outputs":[],"stateMutability":"nonpayable"},{"type":"function","name":"retryMessage","inputs":[{"name":"_srcChainId","type":"uint16","internalType":"uint16"},{"name":"_srcAddress","type":"bytes","internalType":"bytes"},{"name":"_nonce","type":"uint64","internalType":"uint64"},{"name":"_payload","type":"bytes","internalType":"bytes"}],"outputs":[],"stateMutability":"payable"},{"type":"function","name":"sendAndCall","inputs":[{"name":"_from","type":"address","internalType":"address"},{"name":"_dstChainId","type":"uint16","internalType":"uint16"},{"name":"_toAddress","type":"bytes32","internalType":"bytes32"},{"name":"_amount","type":"uint256","internalType":"uint256"},{"name":"_payload","type":"bytes","internalType":"bytes"},{"name":"_dstGasForCall","type":"uint64","internalType":"uint64"},{"name":"_callParams","type":"tuple","internalType":"struct ICommonOFT.LzCallParams","components":[{"name":"refundAddress","type":"address","internalType":"address payable"},{"name":"zroPaymentAddress","type":"address","internalType":"address"},{"name":"adapterParams","type":"bytes","internalType":"bytes"}]}],"outputs":[],"stateMutability":"payable"},{"type":"function","name":"sendForLeverage","inputs":[{"name":"amount","type":"uint256","internalType":"uint256"},{"name":"leverageFor","type":"address","internalType":"address"},{"name":"lzData","type":"tuple","internalType":"struct IUSDOBase.ILeverageLZData","components":[{"name":"srcExtraGasLimit","type":"uint256","internalType":"uint256"},{"name":"lzSrcChainId","type":"uint16","internalType":"uint16"},{"name":"lzDstChainId","type":"uint16","internalType":"uint16"},{"name":"zroPaymentAddress","type":"address","internalType":"address"},{"name":"dstAirdropAdapterParam","type":"bytes","internalType":"bytes"},{"name":"srcAirdropAdapterParam","type":"bytes","internalType":"bytes"},{"name":"refundAddress","type":"address","internalType":"address"}]},{"name":"swapData","type":"tuple","internalType":"struct IUSDOBase.ILeverageSwapData","components":[{"name":"tokenOut","type":"address","internalType":"address"},{"name":"amountOutMin","type":"uint256","internalType":"uint256"},{"name":"data","type":"bytes","internalType":"bytes"}]},{"name":"externalData","type":"tuple","internalType":"struct IUSDOBase.ILeverageExternalContractsData","components":[{"name":"swapper","type":"address","internalType":"address"},{"name":"magnetar","type":"address","internalType":"address"},{"name":"tOft","type":"address","internalType":"address"},{"name":"srcMarket","type":"address","internalType":"address"}]}],"outputs":[],"stateMutability":"payable"},{"type":"function","name":"sendFrom","inputs":[{"name":"_from","type":"address","internalType":"address"},{"name":"_dstChainId","type":"uint16","internalType":"uint16"},{"name":"_toAddress","type":"bytes32","internalType":"bytes32"},{"name":"_amount","type":"uint256","internalType":"uint256"},{"name":"_callParams","type":"tuple","internalType":"struct ICommonOFT.LzCallParams","components":[{"name":"refundAddress","type":"address","internalType":"address payable"},{"name":"zroPaymentAddress","type":"address","internalType":"address"},{"name":"adapterParams","type":"bytes","internalType":"bytes"}]}],"outputs":[],"stateMutability":"payable"},{"type":"function","name":"setConfig","inputs":[{"name":"_version","type":"uint16","internalType":"uint16"},{"name":"_chainId","type":"uint16","internalType":"uint16"},{"name":"_configType","type":"uint256","internalType":"uint256"},{"name":"_config","type":"bytes","internalType":"bytes"}],"outputs":[],"stateMutability":"nonpayable"},{"type":"function","name":"setMaxSlippage","inputs":[{"name":"_slippage","type":"uint256","internalType":"uint256"}],"outputs":[],"stateMutability":"nonpayable"},{"type":"function","name":"setMinDstGas","inputs":[{"name":"_dstChainId","type":"uint16","internalType":"uint16"},{"name":"_packetType","type":"uint16","internalType":"uint16"},{"name":"_minGas","type":"uint256","internalType":"uint256"}],"outputs":[],"stateMutability":"nonpayable"},{"type":"function","name":"setPayloadSizeLimit","inputs":[{"name":"_dstChainId","type":"uint16","internalType":"uint16"},{"name":"_size","type":"uint256","internalType":"uint256"}],"outputs":[],"stateMutability":"nonpayable"},{"type":"function","name":"setPrecrime","inputs":[{"name":"_precrime","type":"address","internalType":"address"}],"outputs":[],"stateMutability":"nonpayable"},{"type":"function","name":"setReceiveVersion","inputs":[{"name":"_version","type":"uint16","internalType":"uint16"}],"outputs":[],"stateMutability":"nonpayable"},{"type":"function","name":"setSendVersion","inputs":[{"name":"_version","type":"uint16","internalType":"uint16"}],"outputs":[],"stateMutability":"nonpayable"},{"type":"function","name":"setTrustedRemote","inputs":[{"name":"_srcChainId","type":"uint16","internalType":"uint16"},{"name":"_path","type":"bytes","internalType":"bytes"}],"outputs":[],"stateMutability":"nonpayable"},{"type":"function","name":"setTrustedRemoteAddress","inputs":[{"name":"_remoteChainId","type":"uint16","internalType":"uint16"},{"name":"_remoteAddress","type":"bytes","internalType":"bytes"}],"outputs":[],"stateMutability":"nonpayable"},{"type":"function","name":"setUseCustomAdapterParams","inputs":[{"name":"_useCustomAdapterParams","type":"bool","internalType":"bool"}],"outputs":[],"stateMutability":"nonpayable"},{"type":"function","name":"sharedDecimals","inputs":[],"outputs":[{"name":"","type":"uint8","internalType":"uint8"}],"stateMutability":"view"},{"type":"function","name":"supportsInterface","inputs":[{"name":"interfaceId","type":"bytes4","internalType":"bytes4"}],"outputs":[{"name":"","type":"bool","internalType":"bool"}],"stateMutability":"view"},{"type":"function","name":"symbol","inputs":[],"outputs":[{"name":"","type":"string","internalType":"string"}],"stateMutability":"view"},{"type":"function","name":"token","inputs":[],"outputs":[{"name":"","type":"address","internalType":"address"}],"stateMutability":"view"},{"type":"function","name":"totalSupply","inputs":[],"outputs":[{"name":"","type":"uint256","internalType":"uint256"}],"stateMutability":"view"},{"type":"function","name":"transfer","inputs":[{"name":"to","type":"address","internalType":"address"},{"name":"amount","type":"uint256","internalType":"uint256"}],"outputs":[{"name":"","type":"bool","internalType":"bool"}],"stateMutability":"nonpayable"},{"type":"function","name":"transferFrom","inputs":[{"name":"from","type":"address","internalType":"address"},{"name":"to","type":"address","internalType":"address"},{"name":"amount","type":"uint256","internalType":"uint256"}],"outputs":[{"name":"","type":"bool","internalType":"bool"}],"stateMutability":"nonpayable"},{"type":"function","name":"transferOwnership","inputs":[{"name":"newOwner","type":"address","internalType":"address"}],"outputs":[],"stateMutability":"nonpayable"},{"type":"function","name":"trustedRemoteLookup","inputs":[{"name":"","type":"uint16","internalType":"uint16"}],"outputs":[{"name":"","type":"bytes","internalType":"bytes"}],"stateMutability":"view"},{"type":"function","name":"useCustomAdapterParams","inputs":[],"outputs":[{"name":"","type":"bool","internalType":"bool"}],"stateMutability":"view"},{"type":"function","name":"yieldBox","inputs":[],"outputs":[{"name":"","type":"address","internalType":"contract IYieldBoxBase"}],"stateMutability":"view"},{"type":"event","name":"Approval","inputs":[{"name":"owner","type":"address","indexed":true,"internalType":"address"},{"name":"spender","type":"address","indexed":true,"internalType":"address"},{"name":"value","type":"uint256","indexed":false,"internalType":"uint256"}],"anonymous":false},{"type":"event","name":"CallOFTReceivedSuccess","inputs":[{"name":"_srcChainId","type":"uint16","indexed":true,"internalType":"uint16"},{"name":"_srcAddress","type":"bytes","indexed":false,"internalType":"bytes"},{"name":"_nonce","type":"uint64","indexed":false,"internalType":"uint64"},{"name":"_hash","type":"bytes32","indexed":false,"internalType":"bytes32"}],"anonymous":false},{"type":"event","name":"MessageFailed","inputs":[{"name":"_srcChainId","type":"uint16","indexed":false,"internalType":"uint16"},{"name":"_srcAddress","type":"bytes","indexed":false,"internalType":"bytes"},{"name":"_nonce","type":"uint64","indexed":false,"internalType":"uint64"},{"name":"_payload","type":"bytes","indexed":false,"internalType":"bytes"},{"name":"_reason","type":"bytes","indexed":false,"internalType":"bytes"}],"anonymous":false},{"type":"event","name":"NonContractAddress","inputs":[{"name":"_address","type":"address","indexed":false,"internalType":"address"}],"anonymous":false},{"type":"event","name":"OwnershipTransferred","inputs":[{"name":"previousOwner","type":"address","indexed":true,"internalType":"address"},{"name":"newOwner","type":"address","indexed":true,"internalType":"address"}],"anonymous":false},{"type":"event","name":"ReceiveFromChain","inputs":[{"name":"_srcChainId","type":"uint16","indexed":true,"internalType":"uint16"},{"name":"_to","type":"address","indexed":true,"internalType":"address"},{"name":"_amount","type":"uint256","indexed":false,"internalType":"uint256"}],"anonymous":false},{"type":"event","name":"RetryMessageSuccess","inputs":[{"name":"_srcChainId","type":"uint16","indexed":false,"internalType":"uint16"},{"name":"_srcAddress","type":"bytes","indexed":false,"internalType":"bytes"},{"name":"_nonce","type":"uint64","indexed":false,"internalType":"uint64"},{"name":"_payloadHash","type":"bytes32","indexed":false,"internalType":"bytes32"}],"anonymous":false},{"type":"event","name":"SendToChain","inputs":[{"name":"_dstChainId","type":"uint16","indexed":true,"internalType":"uint16"},{"name":"_from","type":"address","indexed":true,"internalType":"address"},{"name":"_toAddress","type":"bytes32","indexed":true,"internalType":"bytes32"},{"name":"_amount","type":"uint256","indexed":false,"internalType":"uint256"}],"anonymous":false},{"type":"event","name":"SetMinDstGas","inputs":[{"name":"_dstChainId","type":"uint16","indexed":false,"internalType":"uint16"},{"name":"_type","type":"uint16","indexed":false,"internalType":"uint16"},{"name":"_minDstGas","type":"uint256","indexed":false,"internalType":"uint256"}],"anonymous":false},{"type":"event","name":"SetPrecrime","inputs":[{"name":"precrime","type":"address","indexed":false,"internalType":"address"}],"anonymous":false},{"type":"event","name":"SetTrustedRemote","inputs":[{"name":"_remoteChainId","type":"uint16","indexed":false,"internalType":"uint16"},{"name":"_path","type":"bytes","indexed":false,"internalType":"bytes"}],"anonymous":false},{"type":"event","name":"SetTrustedRemoteAddress","inputs":[{"name":"_remoteChainId","type":"uint16","indexed":false,"internalType":"uint16"},{"name":"_remoteAddress","type":"bytes","indexed":false,"internalType":"bytes"}],"anonymous":false},{"type":"event","name":"SetUseCustomAdapterParams","inputs":[{"name":"_useCustomAdapterParams","type":"bool","indexed":false,"internalType":"bool"}],"anonymous":false},{"type":"event","name":"Transfer","inputs":[{"name":"from","type":"address","indexed":true,"internalType":"address"},{"name":"to","type":"address","indexed":true,"internalType":"address"},{"name":"value","type":"uint256","indexed":false,"internalType":"uint256"}],"anonymous":false},{"type":"error","name":"ActionTypeNotValid","inputs":[]},{"type":"error","name":"AllowanceNotValid","inputs":[]},{"type":"error","name":"NotAuthorized","inputs":[]},{"type":"error","name":"NotValid","inputs":[]},{"type":"error","name":"TokenNotValid","inputs":[]}],"bytecode":{"object":"0x60e06040908082523462000598576200481c80380380916200002282856200059d565b833981016101008282031262000598576200003d82620005d7565b906020926200004e848201620005d7565b818601516001600160a01b03808216949290918590036200059857606084015196828816809803620005985760808501516001600160401b0394908581116200059857816200009f91880162000611565b9060a0870151908682116200059857620000bb91880162000611565b9160c087015160ff811696878203620005985762000116602b60e08f9b01519a5180966a546170696f63614f46542d60a81b878301526200010581518092898686019101620005ec565b810103600b8101875201856200059d565b607f8d518096601d60fa1b868301526200013a8151809288602186019101620005ec565b810103926200015460216001958681018a5201886200059d565b831c16936000958887549d60018060a01b03199e8f33908216178a55823391167f8be0079c531659141344cd1fd0a4f28419497f9722a3daafe3b4186f6b6457e08b80a3166080528560a05281518381116200058457600b54928584811c9416801562000579575b8785101462000565578190601f9485811162000511575b508790858311600114620004ab578a926200049f575b5050600019600383901b1c191690851b17600b555b80519283116200048b57600c548481811c9116801562000480575b868210146200046c5782811162000423575b5084918311600114620003bd579282939183928894620003b1575b50501b916000199060031b1c191617600c555b601282116200035e575060120360ff81116200034a5760ff1690604d8211620003365750600a0a60c0526101f46012551684600f541617600f5560ff19601154161760115560105581600d541617600d55600e541617600e55516141af90816200066d82396080518181816104840152818161076a0152818161088e015281816109fd01528181610bbe0152818161144b01528181611ca101528181611db1015281816124ea01528181612e9501526132da015260a05181611712015260c051818181613520015281816137bc01528181613a590152613ae00152f35b634e487b7160e01b81526011600452602490fd5b634e487b7160e01b82526011600452602482fd5b6084908b519062461bcd60e51b82526004820152602760248201527f4f46543a20736861726564446563696d616c73206d757374206265203c3d20646044820152666563696d616c7360c81b6064820152fd5b01519250388062000246565b600c8752848720919083601f198116895b88888383106200040b5750505010620003f1575b505050811b01600c5562000259565b015160001960f88460031b161c19169055388080620003e2565b868601518855909601959485019487935001620003ce565b600c88528588208380860160051c82019288871062000462575b0160051c019085905b828110620004565750506200022b565b89815501859062000446565b925081926200043d565b634e487b7160e01b88526022600452602488fd5b90607f169062000219565b634e487b7160e01b87526041600452602487fd5b015190503880620001e9565b600b8b52888b208894509190601f1984168c5b8b828210620004fa5750508411620004e0575b505050811b01600b55620001fe565b015160001960f88460031b161c19169055388080620004d1565b8385015186558b97909501949384019301620004be565b909150600b8a52878a208580850160051c8201928a86106200055b575b918991869594930160051c01915b8281106200054c575050620001d3565b8c81558594508991016200053c565b925081926200052e565b634e487b7160e01b89526022600452602489fd5b93607f1693620001bc565b634e487b7160e01b88526041600452602488fd5b600080fd5b601f909101601f19168101906001600160401b03821190821017620005c157604052565b634e487b7160e01b600052604160045260246000fd5b51906001600160a01b03821682036200059857565b60005b838110620006005750506000910152565b8181015183820152602001620005ef565b81601f82011215620005985780516001600160401b038111620005c1576040519262000648601f8301601f1916602001856200059d565b818452602082840101116200059857620006699160208085019101620005ec565b9056fe6080604052600436101561001b575b361561001957600080fd5b005b60003560e01c80621d3567146103af57806254af3a146103aa57806301ffc9a7146103a557806306fdde03146103a057806307e0db171461039b578063095ea7b3146103965780630df374831461039157806310ddb1371461038c57806318160ddd1461031e57806323b872dd14610387578063313ce56714610382578063365260b41461037d57806339509351146103785780633d8b38f6146103735780633f1f4fa41461036e57806342d65a8d1461036957806343f68a4914610364578063447705151461035f5780634c42899a1461035f5780635b8c41e61461035a57806366ad5c8a14610355578063695ef6bf1461035057806370a082311461034b578063715018a6146103465780637533d7881461034157806376203b481461033c578063785e9e8614610337578063796fd43a14610332578063857749b01461032d5780638cfd8f5c146103285780638da5cb5b146103235780639358928b1461031e578063950c8a741461031957806395d89b41146103145780639bdb98121461030f5780639f38369a1461030a578063a457c2d714610305578063a4c51df514610300578063a643c52e146102fb578063a6c3d165146102f6578063a9059cbb146102f1578063b353aaa7146102ec578063baf3292d146102e7578063c4461834146102e2578063cbed8b9c146102dd578063d1deba1f146102d8578063dbd01de1146102d3578063dd62ed3e146102ce578063de406577146102c9578063df2a5b3b146102c4578063e6a20ae6146102bf578063eab45d9c146102ba578063eaffd49a146102b5578063eb8d72b7146102b0578063ed629c5c146102ab578063f2fde38b146102a6578063f5ecbdbc146102a15763fc0c546a0361000e57612554565b612480565b6123b9565b612396565b61224c565b6121c3565b612161565b612145565b612058565b61202f565b611fd5565b611fac565b611e49565b611d5d565b611d40565b611cd0565b611c8b565b611c61565b611ade565b611ac0565b611a2d565b61196f565b6118cc565b611881565b6117da565b6117b1565b6108ef565b611788565b611736565b6116f8565b611383565b61135a565b61113c565b6110e5565b610f9d565b610f60565b610e7d565b610de9565b610d82565b610c46565b610c25565b610ba4565b610b6b565b610b0f565b610a7b565b610973565b61094d565b61090d565b610865565b610826565b6107f1565b610741565b61065c565b6105aa565b61058c565b61046d565b61ffff8116036103c057565b600080fd5b9181601f840112156103c0578235916001600160401b0383116103c057602083818601950101116103c057565b608435906001600160401b03821682036103c057565b9060806003198301126103c057600435610421816103b4565b916001600160401b03906024358281116103c05781610442916004016103c5565b9390939260443581811681036103c057926064359182116103c057610469916004016103c5565b9091565b346103c05761047b36610408565b929493919291907f00000000000000000000000000000000000000000000000000000000000000006001600160a01b0316330361053c5761050161050992610019976104fa6104e06104db8a61ffff166000526001602052604060002090565b6110c8565b8051908184149182610532575b508161050f575b50612d9e565b3691610ccc565b923691610ccc565b926130a0565b905061051c368486610ccc565b60208151910120906020815191012014386104f4565b15159150386104ed565b60405162461bcd60e51b815260206004820152601e60248201527f4c7a4170703a20696e76616c696420656e64706f696e742063616c6c657200006044820152606490fd5b60009103126103c057565b346103c05760003660031901126103c0576020601054604051908152f35b346103c05760203660031901126103c05760043563ffffffff60e01b81168091036103c057602090631f7ecdf760e01b81149081156105ef575b506040519015158152f35b6301ffc9a760e01b149050386105e4565b60005b8381106106135750506000910152565b8181015183820152602001610603565b9060209161063c81518092818552858086019101610600565b601f01601f1916010190565b906020610659928181520190610623565b90565b346103c05760008060031936011261073e576040519080600b5461067f81610ff8565b8085529160019180831690811561071457506001146106b9575b6106b5856106a981870382610c90565b60405191829182610648565b0390f35b9250600b83527f0175b7a638427703f0dbe7bb9bbf987a2551717b34e79f33b5b1008d1fa01db95b8284106106fc5750505081016020016106a9826106b5610699565b805460208587018101919091529093019281016106e1565b8695506106b5969350602092506106a994915060ff191682840152151560051b8201019293610699565b80fd5b346103c0576000602036600319011261073e57600435610760816103b4565b610768612888565b7f00000000000000000000000000000000000000000000000000000000000000006001600160a01b0316908290823b156107dc57602461ffff918360405195869485936307e0db1760e01b85521660048401525af180156107d7576107cb575080f35b6107d490610c78565b80f35b6125a4565b5080fd5b6001600160a01b038116036103c057565b346103c05760403660031901126103c05761081b600435610811816107e0565b6024359033612ac4565b602060405160018152f35b346103c05760403660031901126103c05761ffff600435610846816103b4565b61084e612888565b166000526003602052602435604060002055600080f35b346103c0576000602036600319011261073e57600435610884816103b4565b61088c612888565b7f00000000000000000000000000000000000000000000000000000000000000006001600160a01b0316908290823b156107dc57602461ffff918360405195869485936310ddb13760e01b85521660048401525af180156107d7576107cb575080f35b346103c05760003660031901126103c0576020600a54604051908152f35b346103c05760603660031901126103c05761081b60043561092d816107e0565b602435610939816107e0565b60443591610948833383612bd8565b6129bc565b346103c05760003660031901126103c057602060405160128152f35b801515036103c057565b346103c05760a03660031901126103c057600435610990816103b4565b6064359061099d82610969565b608435906001600160401b0382116103c0576109c26104fa60409336906004016103c5565b906109f96109dc6109d4604435613a57565b602435613b15565b928451958694859463040a7bb160e41b8652309060048701613475565b03817f00000000000000000000000000000000000000000000000000000000000000006001600160a01b03165afa9081156107d7576000908192610a4a575b50604080519182526020820192909252f35b9050610a6d915060403d8111610a74575b610a658183610c90565b81019061345f565b9038610a38565b503d610a5b565b346103c05760403660031901126103c057600435610a98816107e0565b3360009081526009602090815260408083206001600160a01b03851684529091529020546024358101809111610ad25761081b9133612ac4565b6127f8565b9060406003198301126103c057600435610af0816103b4565b91602435906001600160401b0382116103c057610469916004016103c5565b346103c057602061ffff610b5c610b2536610ad7565b9390911660005260018452610b47610b4e604060002060405192838092611032565b0382610c90565b848151910120923691610ccc565b82815191012014604051908152f35b346103c05760203660031901126103c05761ffff600435610b8b816103b4565b1660005260036020526020604060002054604051908152f35b346103c057610bb236610ad7565b9190610bbc612888565b7f00000000000000000000000000000000000000000000000000000000000000006001600160a01b031691823b156103c057604051928380926342d65a8d60e01b825281610c136000988997889460048501613031565b03925af180156107d7576107cb575080f35b346103c05760203660031901126103c057610c3e612888565b600435601255005b346103c05760003660031901126103c057602060405160008152f35b634e487b7160e01b600052604160045260246000fd5b6001600160401b038111610c8b57604052565b610c62565b90601f801991011681019081106001600160401b03821117610c8b57604052565b6001600160401b038111610c8b57601f01601f191660200190565b929192610cd882610cb1565b91610ce66040519384610c90565b8294818452818301116103c0578281602093846000960137010152565b60606003198201126103c057600435610d1b816103b4565b916024356001600160401b03928382116103c057806023830112156103c057816024610d4c93600401359101610ccc565b9160443590811681036103c05790565b602090610d76928260405194838680955193849201610600565b82019081520301902090565b346103c0576020610de061ffff610dbf83610d9c36610d03565b949091166000526005825260406000208260405194838680955193849201610600565b820190815203019020906001600160401b0316600052602052604060002090565b54604051908152f35b346103c057610df736610408565b9192949390303303610e1b57610501610e1592610019973691610ccc565b926134b9565b60405162461bcd60e51b815260206004820152602660248201527f4e6f6e626c6f636b696e674c7a4170703a2063616c6c6572206d7573742062656044820152650204c7a4170760d41b6064820152608490fd5b908160609103126103c05790565b60a03660031901126103c057600435610e95816107e0565b602435610ea1816103b4565b604435916084356001600160401b0381116103c057602061ffff610ed860008051602061413a833981519152933690600401610e6f565b93610f4b8535610ee7816107e0565b610f056104fa8689013598610efb8a6107e0565b60408101906125c5565b610f0f818a613928565b610f24610f1d606435613ade565b5085613ced565b97610f30891515613696565b610f42610f3c8a613a57565b8c613b15565b9234938b612e51565b6040519485526001600160a01b0316941692a4005b346103c05760203660031901126103c057600435610f7d816107e0565b60018060a01b031660005260086020526020604060002054604051908152f35b346103c05760008060031936011261073e57610fb7612888565b80546001600160a01b03198116825581906001600160a01b03167f8be0079c531659141344cd1fd0a4f28419497f9722a3daafe3b4186f6b6457e08280a380f35b90600182811c92168015611028575b602083101461101257565b634e487b7160e01b600052602260045260246000fd5b91607f1691611007565b906000929180549161104383610ff8565b9182825260019384811690816000146110a55750600114611065575b50505050565b90919394506000526020928360002092846000945b83861061109157505050500101903880808061105f565b80548587018301529401938590820161107a565b9294505050602093945060ff191683830152151560051b0101903880808061105f565b906110e36110dc9260405193848092611032565b0383610c90565b565b346103c05760203660031901126103c05761ffff600435611105816103b4565b1660005260016020526106b5610b47611128604060002060405192838092611032565b604051918291602083526020830190610623565b60e03660031901126103c057600435611154816107e0565b602435611160816103b4565b604435916001600160401b03906084358281116103c0576111859036906004016103c5565b91909260a43591818316918284036103c05760c4359081116103c0576111af903690600401610e6f565b926111e68435956111bf876107e0565b6111de6111d4602088013597610efb896107e0565b9990923691610ccc565b973691610ccc565b9460ff600654166000146112d95760228651106112945785602095610f42610f4b946112628c61124f61ffff9a8b602260008051602061413a8339815191529f0151931660005260028d5261124960406000206001600052602052604060002090565b546128fc565b9061125b8215156139bf565b1015613a0b565b611277611270606435613ade565b5088613ced565b9a6112838c1515613696565b8d61128d8d613a57565b9033613ba7565b60405162461bcd60e51b815260206004820152601c60248201527f4c7a4170703a20696e76616c69642061646170746572506172616d73000000006044820152606490fd5b9480949350516113065760008051602061413a8339815191529460209461ffff94610f42610f4b94611262565b60405162461bcd60e51b815260206004820152602660248201527f4f4654436f72653a205f61646170746572506172616d73206d7573742062652060448201526532b6b83a3c9760d11b6064820152608490fd5b346103c05760003660031901126103c057600f546040516001600160a01b039091168152602090f35b600319610100368201126103c057600490813590602435906113a4826107e0565b6044356001600160401b038082116103c05760e08287019383360301126103c0576064359081116103c0576113dc9036908701610e6f565b9360803660831901126103c057856001600160a01b03338682160361169a575b6114058761257b565b8116301461168a576020809361141e828a013582612855565b8261142761256f565b166115c2575b61143690613ade565b5091604051938480926303408e4760e41b82527f0000000000000000000000000000000000000000000000000000000000000000165afa9182156107d75761148492611595575b5033613ced565b958615611586575061155e936115659593836114ea611553946114dc8b6084611559990196866114cc6114c26114bd6104fa8c856125c5565b612ceb565b5095915050613a57565b9b6040519c8d963390880161274d565b03601f198101885287610c90565b604481019561150e6114fb88612585565b6115086104fa87876125c5565b9061397d565b61154861151a88612585565b94611542606461153b61152f60c4880161257b565b6001600160a01b031690565b950161257b565b946125c5565b959034963691610ccc565b93612e51565b612585565b61ffff1690565b604051918252339182919060008051602061413a83398151915290602090a4005b60405163f1640ae160e01b8152fd5b6115b490843d86116115bb575b6115ac8183610c90565b8101906125b0565b503861147d565b503d6115a2565b600e5461162b94509091906115df906001600160a01b031661152f565b6115eb60448801612585565b906115f461256f565b60408051633a304d8b60e21b815261ffff909416848f019081526001600160a01b0390921660208301529296879384928392910190565b03915afa80156107d757899360009161165d575b501561164c57839061142d565b60405163ea8e4eb560e01b81528390fd5b61167d9150853d8711611683575b6116758183610c90565b81019061258f565b3861163f565b503d61166b565b506040516358700a0160e11b8152fd5b826116d2336116bb8960018060a01b03166000526009602052604060002090565b9060018060a01b0316600052602052604060002090565b54106116e8576116e3833388612bd8565b6113fc565b5060405163fb165f2360e01b8152fd5b346103c05760003660031901126103c057602060405160ff7f0000000000000000000000000000000000000000000000000000000000000000168152f35b346103c05760403660031901126103c0576020610de0600435611758816103b4565b61ffff60243591611768836103b4565b166000526002835260406000209061ffff16600052602052604060002090565b346103c05760003660031901126103c0576000546040516001600160a01b039091168152602090f35b346103c05760003660031901126103c0576004546040516001600160a01b039091168152602090f35b346103c05760008060031936011261073e576040519080600c546117fd81610ff8565b808552916001918083169081156107145750600114611826576106b5856106a981870382610c90565b9250600c83527fdf6966c971051c3d54ec59162606531493a51404a002842f56009d7e5cf4a8c75b8284106118695750505081016020016106a9826106b5610699565b8054602085870181019190915290930192810161184e565b346103c057602060ff6118c061ffff610dbf8461189d36610d03565b949091166000526007825260406000208260405194838680955193849201610600565b54166040519015158152f35b346103c05760203660031901126103c05761ffff6004356118ec816103b4565b166000526001602052610b4761190c604060002060405192838092611032565b80511561192a576106a9816119246106b59351612837565b90613f2d565b60405162461bcd60e51b815260206004820152601d60248201527f4c7a4170703a206e6f20747275737465642070617468207265636f72640000006044820152606490fd5b346103c05760403660031901126103c05760043561198c816107e0565b602435903360005260096020526119b98160406000209060018060a01b0316600052602052604060002090565b54918083106119da576119ce92039033612ac4565b60405160018152602090f35b60405162461bcd60e51b815260206004820152602560248201527f45524332303a2064656372656173656420616c6c6f77616e63652062656c6f77604482015264207a65726f60d81b6064820152608490fd5b346103c05760e03660031901126103c057600435611a4a816103b4565b6001600160401b03906064358281116103c057611a6b9036906004016103c5565b611a769291926103f2565b60a43591611a8383610969565b60c4359586116103c057611a9e611aae9636906004016103c5565b959094604435906024359061328a565b60408051928352602083019190915290f35b346103c05760003660031901126103c0576020601254604051908152f35b346103c057611aec36610ad7565b90611af5612888565b60405192602092808385870137611b216034868381013060601b88820152036014810188520186610c90565b60009361ffff8316855260019081815260408620918751916001600160401b038311610c8b57611b5b83611b558654610ff8565b8661304c565b80601f8411600114611bcb575091808092611bba9695948a9b7f8c0400cfe2d1199b1a725c78960bcc2a344d869b80590d0f2bd005db15a572ce9b94611bc0575b50501b916000199060031b1c19161790555b60405193849384613031565b0390a180f35b015192503880611b9c565b91939498601f198416611be387600052602060002090565b938a905b828210611c4a575050917f8c0400cfe2d1199b1a725c78960bcc2a344d869b80590d0f2bd005db15a572ce999a95939185611bba98969410611c31575b505050811b019055611bae565b015160001960f88460031b161c19169055388080611c24565b808886978294978701518155019601940190611be7565b346103c05760403660031901126103c05761081b600435611c81816107e0565b60243590336129bc565b346103c05760003660031901126103c0576040517f00000000000000000000000000000000000000000000000000000000000000006001600160a01b03168152602090f35b346103c05760203660031901126103c0577f5db758e995a17ec1ad84bdef7e8c3293a0bd6179bcce400dff5d4c3d87db726b6020600435611d10816107e0565b611d18612888565b600480546001600160a01b0319166001600160a01b03929092169182179055604051908152a1005b346103c05760003660031901126103c05760206040516127108152f35b346103c05760803660031901126103c057600435611d7a816103b4565b602435611d86816103b4565b6064356001600160401b0381116103c057611da59036906004016103c5565b9092611daf612888565b7f00000000000000000000000000000000000000000000000000000000000000006001600160a01b031690813b156103c05760008094611e26604051978896879586946332fb62e760e21b865261ffff80921660048701521660248501526044356044850152608060648501526084840191612628565b03925af180156107d757611e3657005b80611e4361001992610c78565b80610581565b611e5236610408565b9161ffff86949296166000526005602052611e9981604060002060206040518092878b833787820190815203019020906001600160401b0316600052602052604060002090565b54918215611f5b57611f4a8483611f437fc264d91f3adc5588250e1551f547752ca0cfa8f6b530d243b9f9f4cab10ea8e59a6000611f2f84611f178e8a8f611f569f908f611efd90611ef0611f119436908d610ccc565b60208151910120146131fd565b61ffff166000526005602052604060002090565b916131e4565b906001600160401b0316600052602052604060002090565b55611f3b36878d610ccc565b933691610ccc565b91886134b9565b60405195869586613253565b0390a1005b60405162461bcd60e51b815260206004820152602360248201527f4e6f6e626c6f636b696e674c7a4170703a206e6f2073746f726564206d65737360448201526261676560e81b6064820152608490fd5b346103c05760003660031901126103c057600e546040516001600160a01b039091168152602090f35b346103c05760403660031901126103c0576020610de0600435611ff7816107e0565b60243590612004826107e0565b60018060a01b03166000526009835260406000209060018060a01b0316600052602052604060002090565b346103c05760003660031901126103c057600d546040516001600160a01b039091168152602090f35b346103c05760603660031901126103c057600435612075816103b4565b602435612081816103b4565b6044359161208d612888565b821561210857611f567f9d5c7c0b934da8fefa9c7760c98383778a12dfbfc0c3b3106518f43fb9508ac09361ffff83166000526002602052806120e28560406000209061ffff16600052602052604060002090565b556040519384938460409194939294606082019561ffff80921683521660208201520152565b60405162461bcd60e51b81526020600482015260156024820152744c7a4170703a20696e76616c6964206d696e47617360581b6044820152606490fd5b346103c05760003660031901126103c057602060405160018152f35b346103c05760203660031901126103c0577f1584ad594a70cbe1e6515592e1272a987d922b097ead875069cebe8b40c004a460206004356121a181610969565b6121a9612888565b151560ff196006541660ff821617600655604051908152a1005b346103c0576101003660031901126103c0576004356121e1816103b4565b6001600160401b03906024358281116103c0576122029036906004016103c5565b91906044359084821682036103c05760843561221d816107e0565b60c4359586116103c0576122386100199636906004016103c5565b94909360e4359660a4359460643593613380565b346103c05761225a36610ad7565b9190612264612888565b60009161ffff81168352600160209080825260408520916001600160401b038711610c8b5761229d876122978554610ff8565b8561304c565b8590601f88116001146123045750918680879893611bba957ffa41487ad5d6728f0b19276fa1eddc16558578f5109fc39d2dc33c3230470dab99936122f9575b501b906000198460031b1c191617905560405193849384613031565b8801359250386122dd565b90601f19881661231985600052602060002090565b9288905b82821061237f575050918893917ffa41487ad5d6728f0b19276fa1eddc16558578f5109fc39d2dc33c3230470dab9899611bba969410612365575b505082811b019055611bae565b870135600019600386901b60f8161c191690553880612358565b808685968294968c0135815501950193019061231d565b346103c05760003660031901126103c057602060ff600654166040519015158152f35b346103c05760203660031901126103c0576004356123d6816107e0565b6123de612888565b6001600160a01b03908116801561242c57600080546001600160a01b03198116831782559092167f8be0079c531659141344cd1fd0a4f28419497f9722a3daafe3b4186f6b6457e08380a380f35b60405162461bcd60e51b815260206004820152602660248201527f4f776e61626c653a206e6577206f776e657220697320746865207a65726f206160448201526564647265737360d01b6064820152608490fd5b346103c05760803660031901126103c05760043561249d816103b4565b602435906124aa826103b4565b6124b56044356107e0565b604051633d7b2f6f60e21b815261ffff91821660048201529116602482015230604482015260648035908201526000816084817f00000000000000000000000000000000000000000000000000000000000000006001600160a01b03165afa80156107d7576106b591600091612533575b5060405191829182610648565b61254e913d8091833e6125468183610c90565b810190612fd3565b38612526565b346103c05760003660031901126103c0576020604051308152f35b608435610659816107e0565b35610659816107e0565b35610659816103b4565b908160209103126103c0575161065981610969565b6040513d6000823e3d90fd5b908160209103126103c05751610659816103b4565b903590601e19813603018212156103c057018035906001600160401b0382116103c0576020019181360383136103c057565b9035601e19823603018112156103c05701602081359101916001600160401b0382116103c05781360383136103c057565b908060209392818452848401376000828201840152601f01601f1916010190565b6060608435612657816107e0565b6001600160a01b0390811683528060a435612671816107e0565b1660208401528060c435612684816107e0565b16604084015260e435612696816107e0565b16910152565b90610659908235815260208301356126b3816103b4565b61ffff809116602083015260408401356126cc816103b4565b16604082015260608301356126e0816107e0565b6001600160a01b0316606082015260c08061273061271561270460808801886125f7565b60e0608088015260e0870191612628565b61272260a08801886125f7565b9086830360a0880152612628565b9401359161273d836107e0565b6001600160a01b03909216910152565b92936127c66127b3610140966001600160401b036127f4966127e1969c9b9a9c6103088a5260208a01521660408801526101608060608901528135612791816107e0565b6001600160a01b031690880152602081013561018088015260408101906125f7565b60606101a08801526101c0870191612628565b906127d360808601612649565b84820361010086015261269c565b6001600160a01b03909616610120830152565b0152565b634e487b7160e01b600052601160045260246000fd5b81810292918115918404141715610ad257565b634e487b7160e01b600052601260045260246000fd5b601319810191908211610ad257565b605019810191908211610ad257565b906127106128658360125461280e565b048203918211610ad2571061287657565b60405163f1640ae160e01b8152600490fd5b6000546001600160a01b0316330361289c57565b606460405162461bcd60e51b815260206004820152602060248201527f4f776e61626c653a2063616c6c6572206973206e6f7420746865206f776e65726044820152fd5b90601f8201809211610ad257565b6051019081605111610ad257565b91908201809211610ad257565b1561291057565b60405162461bcd60e51b815260206004820152602360248201527f45524332303a207472616e7366657220746f20746865207a65726f206164647260448201526265737360e81b6064820152608490fd5b1561296857565b60405162461bcd60e51b815260206004820152602660248201527f45524332303a207472616e7366657220616d6f756e7420657863656564732062604482015265616c616e636560d01b6064820152608490fd5b916001600160a01b038084169290918315612a7157612a568260008051602061415a83398151915294612a6c9416966129f6881515612909565b6001600160a01b0381166000908152600860205260409020612a3b90859054612a2182821015612961565b039160018060a01b03166000526008602052604060002090565b556001600160a01b0316600090815260086020526040902090565b8054820190556040519081529081906020820190565b0390a3565b60405162461bcd60e51b815260206004820152602560248201527f45524332303a207472616e736665722066726f6d20746865207a65726f206164604482015264647265737360d81b6064820152608490fd5b6001600160a01b038082169291908315612b87578216938415612b375780612b267f8c5be1e5ebec7d5bd14f71427d1e84f3dd0314c0f7b2291e5b200ac8c7c3b925946116bb612a6c9560018060a01b03166000526009602052604060002090565b556040519081529081906020820190565b60405162461bcd60e51b815260206004820152602260248201527f45524332303a20617070726f766520746f20746865207a65726f206164647265604482015261737360f01b6064820152608490fd5b60405162461bcd60e51b8152602060048201526024808201527f45524332303a20617070726f76652066726f6d20746865207a65726f206164646044820152637265737360e01b6064820152608490fd5b6001600160a01b038082166000908152600960209081526040808320938616835292905220909190549260018401612c105750505050565b808410612c2b57612c22930391612ac4565b3880808061105f565b60405162461bcd60e51b815260206004820152601d60248201527f45524332303a20696e73756666696369656e7420616c6c6f77616e63650000006044820152606490fd5b15612c7757565b60405162461bcd60e51b8152602060048201526012602482015271556e737570706f727465642074785479706560701b6044820152606490fd5b15612cb857565b60405162461bcd60e51b815260206004820152600b60248201526a47617320746f6f206c6f7760a81b6044820152606490fd5b600080825160228114908115612d93575b5015612d5657600283015193602284015193600261ffff8716600181148015612d4d575b612d2990612c70565b612d34871515612cb1565b14612d3c5750565b925090506056604283015192015190565b50808214612d20565b60405162461bcd60e51b8152602060048201526015602482015274496e76616c69642061646170746572506172616d7360581b6044820152606490fd5b604291501138612cfc565b15612da557565b60405162461bcd60e51b815260206004820152602660248201527f4c7a4170703a20696e76616c696420736f757263652073656e64696e6720636f6044820152651b9d1c9858dd60d21b6064820152608490fd5b92612e1e61065997959361ffff612e2c9416865260c0602087015260c0860190610623565b908482036040860152610623565b6001600160a01b0391821660608401529316608082015280830360a090910152610623565b94612e7a9193929561ffff81166000526001602052612e81604060002060405194858092611032565b0384610c90565b825115612f0657612e93855182612f64565b7f00000000000000000000000000000000000000000000000000000000000000006001600160a01b031693843b156103c057600096612ee891604051998a988997889662c5803160e81b885260048801612df9565b03925af180156107d757612ef95750565b80611e436110e392610c78565b60405162461bcd60e51b815260206004820152603060248201527f4c7a4170703a2064657374696e6174696f6e20636861696e206973206e6f742060448201526f61207472757374656420736f7572636560801b6064820152608490fd5b61ffff166000526003602052604060002054908115612fc9575b11612f8557565b606460405162461bcd60e51b815260206004820152602060248201527f4c7a4170703a207061796c6f61642073697a6520697320746f6f206c617267656044820152fd5b6127109150612f7e565b6020818303126103c0578051906001600160401b0382116103c0570181601f820112156103c057805161300581610cb1565b926130136040519485610c90565b818452602082840101116103c0576106599160208085019101610600565b60409061ffff61065995931681528160208201520191612628565b90601f811161305a57505050565b600091825260208220906020601f850160051c83019410613096575b601f0160051c01915b82811061308b57505050565b81815560010161307f565b9092508290613076565b9290916131125a604051633356ae4560e11b602082015261ffff87166024820152608060448201529061310c826130fe6130dd60a483018a610623565b6001600160401b038816606484015282810360231901608484015288610623565b03601f198101845283610c90565b306140dc565b939015613121575b5050505050565b61312a94613134565b388080808061311a565b91936131d17fe183f33de2837795525b4792ca4cd60535bd77c53b7e7030060bfcf5734d6b0c956131df939561ffff8151602083012096169586600052600560205261319883610dbf60208b60406000208260405194838680955193849201610600565b556001600160401b036131bd604051988998895260a060208a015260a0890190610623565b921660408701528582036060870152610623565b908382036080850152610623565b0390a1565b6020919283604051948593843782019081520301902090565b1561320457565b60405162461bcd60e51b815260206004820152602160248201527f4e6f6e626c6f636b696e674c7a4170703a20696e76616c6964207061796c6f616044820152601960fa1b6064820152608490fd5b9161327f9060609461ffff6001600160401b039499989799168552608060208601526080850191612628565b951660408201520152565b94919598979061128d6132b36040996132ab6132b9976132d6993691610ccc565b943691610ccc565b97613a57565b928451968794859463040a7bb160e41b8652309060048701613475565b03817f00000000000000000000000000000000000000000000000000000000000000006001600160a01b03165afa9182156107d757600090819361331957509190565b905061046991925060403d8111610a7457610a658183610c90565b939694916133629061065999979461ffff6001600160401b039416875260c0602088015260c0870191612628565b961660408401526060830152608082015260a0818503910152612628565b9196979298959493909430330361341a5761339c908530613e79565b60405181815290946001600160a01b03169390849061ffff8516907fbf551ec93859b170f9b2141bd9298bf3f64322c6f7beb2543a0cb669834118bf90602090a3833b156103c057600098899561340a936040519c8d9b8c9a8b98633fe79aed60e11b8a5260048a01613334565b0393f180156107d757612ef95750565b60405162461bcd60e51b815260206004820152601f60248201527f4f4654436f72653a2063616c6c6572206d757374206265204f4654436f7265006044820152606490fd5b91908260409103126103c0576020825192015190565b9192610659959361ffff6134a49316845260018060a01b0316602084015260a0604084015260a0830190610623565b92151560608201526080818403910152610623565b92919060ff6134c784614081565b16806136415750505060ff6134db82614081565b161580613636575b6134ec90613b5b565b6134fe6134f882614031565b916140cc565b90916001600160a01b03918284161561362c575b613546906001600160401b037f0000000000000000000000000000000000000000000000000000000000000000911661280e565b9183169283156135e7577fbf551ec93859b170f9b2141bd9298bf3f64322c6f7beb2543a0cb669834118bf916135a761ffff9261358d61358887600a546128fc565b600a55565b6001600160a01b0316600090815260086020526040902090565b84815401905584600060008051602061415a833981519152604051806135d289829190602083019252565b0390a360405193845216918060208101612a6c565b60405162461bcd60e51b815260206004820152601f60248201527f45524332303a206d696e7420746f20746865207a65726f2061646472657373006044820152606490fd5b61dead9350613512565b5080516029146134e3565b600103613651576110e393613770565b60405162461bcd60e51b815260206004820152601c60248201527f4f4654436f72653a20756e6b6e6f776e207061636b65742074797065000000006044820152606490fd5b1561369d57565b60405162461bcd60e51b815260206004820152601960248201527f4f4654436f72653a20616d6f756e7420746f6f20736d616c6c000000000000006044820152606490fd5b98979692936001600160401b0361371460e0989461ffff6137409995168d5260208d61010091829101528d0190610623565b951660408b015260608a01526001600160a01b0316608089015260a088015286820360c0880152610623565b930152565b6001600160401b0361376560409396959496606084526060840190610623565b951660208201520152565b909161377b84613c14565b90916137ac6137a587611f1761379f8b61ffff166000526007602052604060002090565b8c610d5c565b5460ff1690565b916137e26001600160401b0392837f0000000000000000000000000000000000000000000000000000000000000000911661280e565b9288888b83156138de575b505050853b156138935794613834969461310c948a946130fe948d9960001461388c5750505a925b5a978b6040519a8b9863757fea4d60e11b60208b015260248a016136e2565b901561388157509061387c61ffff928560207fb8890edbfc1c74692f527444645f95489c3703cc2df42e4a366f5d06fa6cd88496975191012090604051948594169684613745565b0390a2565b926110e39492613134565b1692613815565b50506040516001600160a01b039094168452507f9aedf5fdba8716db3b6705ca00150643309995d4f818a249ed6dde6677e7792d9750919550859450506020840192506131df915050565b90611f176139139261390d896138f8613920979b30613e16565b9961ffff166000526007602052604060002090565b90610d5c565b805460ff19166001179055565b88888b6137ed565b60065460ff16156139755760228251106112945761ffff60226110e393015191166000526002602052613968604060002060008052602052604060002090565b549061125b8215156139bf565b505161130657565b60065460ff16156139755760228251106112945761ffff60226110e3930151911660005260026020526139686040600020610308600052602052604060002090565b156139c657565b60405162461bcd60e51b815260206004820152601a60248201527f4c7a4170703a206d696e4761734c696d6974206e6f74207365740000000000006044820152606490fd5b15613a1257565b60405162461bcd60e51b815260206004820152601b60248201527f4c7a4170703a20676173206c696d697420697320746f6f206c6f7700000000006044820152606490fd5b7f0000000000000000000000000000000000000000000000000000000000000000908115613ad957046001600160401b0390818111613a94571690565b60405162461bcd60e51b815260206004820152601a60248201527f4f4654436f72653a20616d6f756e745344206f766572666c6f770000000000006044820152606490fd5b612821565b7f00000000000000000000000000000000000000000000000000000000000000008015613ad957810690818103908111610ad25791565b90604051916000602084015260218301526001600160401b0360c01b9060c01b16604182015260298152606081018181106001600160401b03821117610c8b5760405290565b15613b6257565b60405162461bcd60e51b815260206004820152601860248201527f4f4654436f72653a20696e76616c6964207061796c6f616400000000000000006044820152606490fd5b939260719261065994604051968794600160f81b602087015260218601526001600160401b0360c01b809360c01b16604186015260018060a01b0316604985015260c01b166069830152613c048151809260208686019101610600565b8101036051810184520182610c90565b90613c2c600160ff613c2585614081565b1614613b5b565b613c3582614031565b90613c3f836140cc565b906049845110613cb0576049840151936051815110613c7457613c71605182015191613c6b8151612846565b90613fad565b91565b60405162461bcd60e51b8152602060048201526014602482015273746f55696e7436345f6f75744f66426f756e647360601b6044820152606490fd5b60405162461bcd60e51b8152602060048201526015602482015274746f427974657333325f6f75744f66426f756e647360581b6044820152606490fd5b6001600160a01b038116338103613daf575b8015613d605781613d3584613d2860009560018060a01b03166000526008602052604060002090565b54612a2182821015613dbf565b55613d4383600a5403600a55565b60405183815260008051602061415a83398151915290602090a390565b60405162461bcd60e51b815260206004820152602160248201527f45524332303a206275726e2066726f6d20746865207a65726f206164647265736044820152607360f81b6064820152608490fd5b613dba833384612bd8565b613cff565b15613dc657565b60405162461bcd60e51b815260206004820152602260248201527f45524332303a206275726e20616d6f756e7420657863656564732062616c616e604482015261636560f01b6064820152608490fd5b6001600160a01b038116919082156135e757600a5490828201809211610ad257600092613e6a60209260008051602061415a83398151915294600a5560018060a01b03166000526008602052604060002090565b818154019055604051908152a3565b6106599183916001600160a01b038116308114159081613ea5575b50156129bc57610948833383612bd8565b905033141538613e94565b15613eb757565b60405162461bcd60e51b815260206004820152600e60248201526d736c6963655f6f766572666c6f7760901b6044820152606490fd5b15613ef457565b60405162461bcd60e51b8152602060048201526011602482015270736c6963655f6f75744f66426f756e647360781b6044820152606490fd5b613f4182613f3a816128e0565b1015613eb0565b613f4e8282511015613eed565b81613f66575050604051600081526020810160405290565b60405191601f811691821560051b808486010193838501920101905b808410613f9a5750508252601f01601f191660405290565b9092835181526020809101930190613f82565b613fba82613f3a816128e0565b613fcf8151613fc8846128ee565b1115613eed565b81613fe7575050604051600081526020810160405290565b60405191601f8116916051831560051b80858701019484860193010101905b80841061401e5750508252601f01601f191660405290565b9092835181526020809101930190614006565b602181511061404457602d015160601c90565b60405162461bcd60e51b8152602060048201526015602482015274746f416464726573735f6f75744f66426f756e647360581b6044820152606490fd5b6001815110614091576001015190565b60405162461bcd60e51b8152602060048201526013602482015272746f55696e74385f6f75744f66426f756e647360681b6044820152606490fd5b6029815110613c74576029015190565b6040519392909160009160c08601916001600160401b03831187841017610c8b5783926040526096875282602088019560a036883760208451940192f1903d9060968211614130575b6000908286523e9190565b6096915061412556fed81fc9b8523134ed613870ed029d6170cbb73aa6a6bc311b9a642689fb9df59addf252ad1be2c89b69c2b068fc378daa952ba7f163c4a11628f55a4df523b3efa2646970667358221220e0e60413f6fbf147de6d0a6fa5066f7efdd6ebab03246af92abb3547f96eb5c864736f6c63430008130033","linkReferences":{}},"methodIdentifiers":{"DEFAULT_PAYLOAD_SIZE_LIMIT()":"c4461834","NO_EXTRA_GAS()":"44770515","PT_SEND()":"4c42899a","PT_SEND_AND_CALL()":"e6a20ae6","SWAP_MAX_SLIPPAGE()":"a643c52e","allowance(address,address)":"dd62ed3e","approve(address,uint256)":"095ea7b3","balanceOf(address)":"70a08231","callOnOFTReceived(uint16,bytes,uint64,bytes32,address,uint256,bytes,uint256)":"eaffd49a","circulatingSupply()":"9358928b","cluster()":"dbd01de1","creditedPackets(uint16,bytes,uint64)":"9bdb9812","decimals()":"313ce567","decreaseAllowance(address,uint256)":"a457c2d7","erc20()":"785e9e86","estimateSendAndCallFee(uint16,bytes32,uint256,bytes,uint64,bool,bytes)":"a4c51df5","estimateSendFee(uint16,bytes32,uint256,bool,bytes)":"365260b4","failedMessages(uint16,bytes,uint64)":"5b8c41e6","forceResumeReceive(uint16,bytes)":"42d65a8d","getConfig(uint16,uint16,address,uint256)":"f5ecbdbc","getTrustedRemoteAddress(uint16)":"9f38369a","hostChainID()":"0054af3a","increaseAllowance(address,uint256)":"39509351","isTrustedRemote(uint16,bytes)":"3d8b38f6","lzEndpoint()":"b353aaa7","lzReceive(uint16,bytes,uint64,bytes)":"001d3567","minDstGasLookup(uint16,uint16)":"8cfd8f5c","name()":"06fdde03","nonblockingLzReceive(uint16,bytes,uint64,bytes)":"66ad5c8a","owner()":"8da5cb5b","payloadSizeLimitLookup(uint16)":"3f1f4fa4","precrime()":"950c8a74","renounceOwnership()":"715018a6","retryMessage(uint16,bytes,uint64,bytes)":"d1deba1f","sendAndCall(address,uint16,bytes32,uint256,bytes,uint64,(address,address,bytes))":"76203b48","sendForLeverage(uint256,address,(uint256,uint16,uint16,address,bytes,bytes,address),(address,uint256,bytes),(address,address,address,address))":"796fd43a","sendFrom(address,uint16,bytes32,uint256,(address,address,bytes))":"695ef6bf","setConfig(uint16,uint16,uint256,bytes)":"cbed8b9c","setMaxSlippage(uint256)":"43f68a49","setMinDstGas(uint16,uint16,uint256)":"df2a5b3b","setPayloadSizeLimit(uint16,uint256)":"0df37483","setPrecrime(address)":"baf3292d","setReceiveVersion(uint16)":"10ddb137","setSendVersion(uint16)":"07e0db17","setTrustedRemote(uint16,bytes)":"eb8d72b7","setTrustedRemoteAddress(uint16,bytes)":"a6c3d165","setUseCustomAdapterParams(bool)":"eab45d9c","sharedDecimals()":"857749b0","supportsInterface(bytes4)":"01ffc9a7","symbol()":"95d89b41","token()":"fc0c546a","totalSupply()":"18160ddd","transfer(address,uint256)":"a9059cbb","transferFrom(address,address,uint256)":"23b872dd","transferOwnership(address)":"f2fde38b","trustedRemoteLookup(uint16)":"7533d788","useCustomAdapterParams()":"ed629c5c","yieldBox()":"de406577"},"id":9}