{"abi":[{"type":"constructor","inputs":[{"name":"_lzEndpoint","type":"address","internalType":"address"},{"name":"_erc20","type":"address","internalType":"address"},{"name":"_yieldBox","type":"address","internalType":"contract IYieldBoxBase"},{"name":"_cluster","type":"address","internalType":"contract ICluster"},{"name":"_name","type":"string","internalType":"string"},{"name":"_symbol","type":"string","internalType":"string"},{"name":"_decimal","type":"uint8","internalType":"uint8"},{"name":"_hostChainID","type":"uint256","internalType":"uint256"}],"stateMutability":"nonpayable"},{"type":"receive","stateMutability":"payable"},{"type":"function","name":"DEFAULT_PAYLOAD_SIZE_LIMIT","inputs":[],"outputs":[{"name":"","type":"uint256","internalType":"uint256"}],"stateMutability":"view"},{"type":"function","name":"NO_EXTRA_GAS","inputs":[],"outputs":[{"name":"","type":"uint256","internalType":"uint256"}],"stateMutability":"view"},{"type":"function","name":"PT_SEND","inputs":[],"outputs":[{"name":"","type":"uint8","internalType":"uint8"}],"stateMutability":"view"},{"type":"function","name":"PT_SEND_AND_CALL","inputs":[],"outputs":[{"name":"","type":"uint8","internalType":"uint8"}],"stateMutability":"view"},{"type":"function","name":"SWAP_MAX_SLIPPAGE","inputs":[],"outputs":[{"name":"","type":"uint256","internalType":"uint256"}],"stateMutability":"view"},{"type":"function","name":"allowance","inputs":[{"name":"owner","type":"address","internalType":"address"},{"name":"spender","type":"address","internalType":"address"}],"outputs":[{"name":"","type":"uint256","internalType":"uint256"}],"stateMutability":"view"},{"type":"function","name":"approve","inputs":[{"name":"spender","type":"address","internalType":"address"},{"name":"amount","type":"uint256","internalType":"uint256"}],"outputs":[{"name":"","type":"bool","internalType":"bool"}],"stateMutability":"nonpayable"},{"type":"function","name":"balanceOf","inputs":[{"name":"account","type":"address","internalType":"address"}],"outputs":[{"name":"","type":"uint256","internalType":"uint256"}],"stateMutability":"view"},{"type":"function","name":"callOnOFTReceived","inputs":[{"name":"_srcChainId","type":"uint16","internalType":"uint16"},{"name":"_srcAddress","type":"bytes","internalType":"bytes"},{"name":"_nonce","type":"uint64","internalType":"uint64"},{"name":"_from","type":"bytes32","internalType":"bytes32"},{"name":"_to","type":"address","internalType":"address"},{"name":"_amount","type":"uint256","internalType":"uint256"},{"name":"_payload","type":"bytes","internalType":"bytes"},{"name":"_gasForCall","type":"uint256","internalType":"uint256"}],"outputs":[],"stateMutability":"nonpayable"},{"type":"function","name":"circulatingSupply","inputs":[],"outputs":[{"name":"","type":"uint256","internalType":"uint256"}],"stateMutability":"view"},{"type":"function","name":"cluster","inputs":[],"outputs":[{"name":"","type":"address","internalType":"contract ICluster"}],"stateMutability":"view"},{"type":"function","name":"creditedPackets","inputs":[{"name":"","type":"uint16","internalType":"uint16"},{"name":"","type":"bytes","internalType":"bytes"},{"name":"","type":"uint64","internalType":"uint64"}],"outputs":[{"name":"","type":"bool","internalType":"bool"}],"stateMutability":"view"},{"type":"function","name":"decimals","inputs":[],"outputs":[{"name":"","type":"uint8","internalType":"uint8"}],"stateMutability":"view"},{"type":"function","name":"decreaseAllowance","inputs":[{"name":"spender","type":"address","internalType":"address"},{"name":"subtractedValue","type":"uint256","internalType":"uint256"}],"outputs":[{"name":"","type":"bool","internalType":"bool"}],"stateMutability":"nonpayable"},{"type":"function","name":"erc20","inputs":[],"outputs":[{"name":"","type":"address","internalType":"address"}],"stateMutability":"view"},{"type":"function","name":"estimateSendAndCallFee","inputs":[{"name":"_dstChainId","type":"uint16","internalType":"uint16"},{"name":"_toAddress","type":"bytes32","internalType":"bytes32"},{"name":"_amount","type":"uint256","internalType":"uint256"},{"name":"_payload","type":"bytes","internalType":"bytes"},{"name":"_dstGasForCall","type":"uint64","internalType":"uint64"},{"name":"_useZro","type":"bool","internalType":"bool"},{"name":"_adapterParams","type":"bytes","internalType":"bytes"}],"outputs":[{"name":"nativeFee","type":"uint256","internalType":"uint256"},{"name":"zroFee","type":"uint256","internalType":"uint256"}],"stateMutability":"view"},{"type":"function","name":"estimateSendFee","inputs":[{"name":"_dstChainId","type":"uint16","internalType":"uint16"},{"name":"_toAddress","type":"bytes32","internalType":"bytes32"},{"name":"_amount","type":"uint256","internalType":"uint256"},{"name":"_useZro","type":"bool","internalType":"bool"},{"name":"_adapterParams","type":"bytes","internalType":"bytes"}],"outputs":[{"name":"nativeFee","type":"uint256","internalType":"uint256"},{"name":"zroFee","type":"uint256","internalType":"uint256"}],"stateMutability":"view"},{"type":"function","name":"failedMessages","inputs":[{"name":"","type":"uint16","internalType":"uint16"},{"name":"","type":"bytes","internalType":"bytes"},{"name":"","type":"uint64","internalType":"uint64"}],"outputs":[{"name":"","type":"bytes32","internalType":"bytes32"}],"stateMutability":"view"},{"type":"function","name":"forceResumeReceive","inputs":[{"name":"_srcChainId","type":"uint16","internalType":"uint16"},{"name":"_srcAddress","type":"bytes","internalType":"bytes"}],"outputs":[],"stateMutability":"nonpayable"},{"type":"function","name":"getConfig","inputs":[{"name":"_version","type":"uint16","internalType":"uint16"},{"name":"_chainId","type":"uint16","internalType":"uint16"},{"name":"","type":"address","internalType":"address"},{"name":"_configType","type":"uint256","internalType":"uint256"}],"outputs":[{"name":"","type":"bytes","internalType":"bytes"}],"stateMutability":"view"},{"type":"function","name":"getTrustedRemoteAddress","inputs":[{"name":"_remoteChainId","type":"uint16","internalType":"uint16"}],"outputs":[{"name":"","type":"bytes","internalType":"bytes"}],"stateMutability":"view"},{"type":"function","name":"hostChainID","inputs":[],"outputs":[{"name":"","type":"uint256","internalType":"uint256"}],"stateMutability":"view"},{"type":"function","name":"increaseAllowance","inputs":[{"name":"spender","type":"address","internalType":"address"},{"name":"addedValue","type":"uint256","internalType":"uint256"}],"outputs":[{"name":"","type":"bool","internalType":"bool"}],"stateMutability":"nonpayable"},{"type":"function","name":"isTrustedRemote","inputs":[{"name":"_srcChainId","type":"uint16","internalType":"uint16"},{"name":"_srcAddress","type":"bytes","internalType":"bytes"}],"outputs":[{"name":"","type":"bool","internalType":"bool"}],"stateMutability":"view"},{"type":"function","name":"lzEndpoint","inputs":[],"outputs":[{"name":"","type":"address","internalType":"contract ILayerZeroEndpoint"}],"stateMutability":"view"},{"type":"function","name":"lzReceive","inputs":[{"name":"_srcChainId","type":"uint16","internalType":"uint16"},{"name":"_srcAddress","type":"bytes","internalType":"bytes"},{"name":"_nonce","type":"uint64","internalType":"uint64"},{"name":"_payload","type":"bytes","internalType":"bytes"}],"outputs":[],"stateMutability":"nonpayable"},{"type":"function","name":"minDstGasLookup","inputs":[{"name":"","type":"uint16","internalType":"uint16"},{"name":"","type":"uint16","internalType":"uint16"}],"outputs":[{"name":"","type":"uint256","internalType":"uint256"}],"stateMutability":"view"},{"type":"function","name":"name","inputs":[],"outputs":[{"name":"","type":"string","internalType":"string"}],"stateMutability":"view"},{"type":"function","name":"nonblockingLzReceive","inputs":[{"name":"_srcChainId","type":"uint16","internalType":"uint16"},{"name":"_srcAddress","type":"bytes","internalType":"bytes"},{"name":"_nonce","type":"uint64","internalType":"uint64"},{"name":"_payload","type":"bytes","internalType":"bytes"}],"outputs":[],"stateMutability":"nonpayable"},{"type":"function","name":"owner","inputs":[],"outputs":[{"name":"","type":"address","internalType":"address"}],"stateMutability":"view"},{"type":"function","name":"payloadSizeLimitLookup","inputs":[{"name":"","type":"uint16","internalType":"uint16"}],"outputs":[{"name":"","type":"uint256","internalType":"uint256"}],"stateMutability":"view"},{"type":"function","name":"precrime","inputs":[],"outputs":[{"name":"","type":"address","internalType":"address"}],"stateMutability":"view"},{"type":"function","name":"removeCollateral","inputs":[{"name":"from","type":"address","internalType":"address"},{"name":"to","type":"address","internalType":"address"},{"name":"lzDstChainId","type":"uint16","internalType":"uint16"},{"name":"zroPaymentAddress","type":"address","internalType":"address"},{"name":"withdrawParams","type":"tuple","internalType":"struct ICommonData.IWithdrawParams","components":[{"name":"withdraw","type":"bool","internalType":"bool"},{"name":"withdrawLzFeeAmount","type":"uint256","internalType":"uint256"},{"name":"withdrawOnOtherChain","type":"bool","internalType":"bool"},{"name":"withdrawLzChainId","type":"uint16","internalType":"uint16"},{"name":"withdrawAdapterParams","type":"bytes","internalType":"bytes"},{"name":"unwrap","type":"bool","internalType":"bool"}]},{"name":"removeParams","type":"tuple","internalType":"struct ITapiocaOFT.IRemoveParams","components":[{"name":"amount","type":"uint256","internalType":"uint256"},{"name":"marketHelper","type":"address","internalType":"address"},{"name":"market","type":"address","internalType":"address"}]},{"name":"approvals","type":"tuple[]","internalType":"struct ICommonData.IApproval[]","components":[{"name":"permitAll","type":"bool","internalType":"bool"},{"name":"allowFailure","type":"bool","internalType":"bool"},{"name":"yieldBoxTypeApproval","type":"bool","internalType":"bool"},{"name":"revokeYieldBox","type":"bool","internalType":"bool"},{"name":"actionType","type":"uint16","internalType":"uint16"},{"name":"target","type":"address","internalType":"address"},{"name":"permitBorrow","type":"bool","internalType":"bool"},{"name":"owner","type":"address","internalType":"address"},{"name":"spender","type":"address","internalType":"address"},{"name":"value","type":"uint256","internalType":"uint256"},{"name":"deadline","type":"uint256","internalType":"uint256"},{"name":"v","type":"uint8","internalType":"uint8"},{"name":"r","type":"bytes32","internalType":"bytes32"},{"name":"s","type":"bytes32","internalType":"bytes32"}]},{"name":"revokes","type":"tuple[]","internalType":"struct ICommonData.IApproval[]","components":[{"name":"permitAll","type":"bool","internalType":"bool"},{"name":"allowFailure","type":"bool","internalType":"bool"},{"name":"yieldBoxTypeApproval","type":"bool","internalType":"bool"},{"name":"revokeYieldBox","type":"bool","internalType":"bool"},{"name":"actionType","type":"uint16","internalType":"uint16"},{"name":"target","type":"address","internalType":"address"},{"name":"permitBorrow","type":"bool","internalType":"bool"},{"name":"owner","type":"address","internalType":"address"},{"name":"spender","type":"address","internalType":"address"},{"name":"value","type":"uint256","internalType":"uint256"},{"name":"deadline","type":"uint256","internalType":"uint256"},{"name":"v","type":"uint8","internalType":"uint8"},{"name":"r","type":"bytes32","internalType":"bytes32"},{"name":"s","type":"bytes32","internalType":"bytes32"}]},{"name":"adapterParams","type":"bytes","internalType":"bytes"}],"outputs":[],"stateMutability":"payable"},{"type":"function","name":"renounceOwnership","inputs":[],"outputs":[],"stateMutability":"nonpayable"},{"type":"function","name":"retryMessage","inputs":[{"name":"_srcChainId","type":"uint16","internalType":"uint16"},{"name":"_srcAddress","type":"bytes","internalType":"bytes"},{"name":"_nonce","type":"uint64","internalType":"uint64"},{"name":"_payload","type":"bytes","internalType":"bytes"}],"outputs":[],"stateMutability":"payable"},{"type":"function","name":"sendAndCall","inputs":[{"name":"_from","type":"address","internalType":"address"},{"name":"_dstChainId","type":"uint16","internalType":"uint16"},{"name":"_toAddress","type":"bytes32","internalType":"bytes32"},{"name":"_amount","type":"uint256","internalType":"uint256"},{"name":"_payload","type":"bytes","internalType":"bytes"},{"name":"_dstGasForCall","type":"uint64","internalType":"uint64"},{"name":"_callParams","type":"tuple","internalType":"struct ICommonOFT.LzCallParams","components":[{"name":"refundAddress","type":"address","internalType":"address payable"},{"name":"zroPaymentAddress","type":"address","internalType":"address"},{"name":"adapterParams","type":"bytes","internalType":"bytes"}]}],"outputs":[],"stateMutability":"payable"},{"type":"function","name":"sendFrom","inputs":[{"name":"_from","type":"address","internalType":"address"},{"name":"_dstChainId","type":"uint16","internalType":"uint16"},{"name":"_toAddress","type":"bytes32","internalType":"bytes32"},{"name":"_amount","type":"uint256","internalType":"uint256"},{"name":"_callParams","type":"tuple","internalType":"struct ICommonOFT.LzCallParams","components":[{"name":"refundAddress","type":"address","internalType":"address payable"},{"name":"zroPaymentAddress","type":"address","internalType":"address"},{"name":"adapterParams","type":"bytes","internalType":"bytes"}]}],"outputs":[],"stateMutability":"payable"},{"type":"function","name":"sendToYBAndBorrow","inputs":[{"name":"_from","type":"address","internalType":"address"},{"name":"_to","type":"address","internalType":"address"},{"name":"lzDstChainId","type":"uint16","internalType":"uint16"},{"name":"airdropAdapterParams","type":"bytes","internalType":"bytes"},{"name":"borrowParams","type":"tuple","internalType":"struct ITapiocaOFT.IBorrowParams","components":[{"name":"amount","type":"uint256","internalType":"uint256"},{"name":"borrowAmount","type":"uint256","internalType":"uint256"},{"name":"marketHelper","type":"address","internalType":"address"},{"name":"market","type":"address","internalType":"address"}]},{"name":"withdrawParams","type":"tuple","internalType":"struct ICommonData.IWithdrawParams","components":[{"name":"withdraw","type":"bool","internalType":"bool"},{"name":"withdrawLzFeeAmount","type":"uint256","internalType":"uint256"},{"name":"withdrawOnOtherChain","type":"bool","internalType":"bool"},{"name":"withdrawLzChainId","type":"uint16","internalType":"uint16"},{"name":"withdrawAdapterParams","type":"bytes","internalType":"bytes"},{"name":"unwrap","type":"bool","internalType":"bool"}]},{"name":"options","type":"tuple","internalType":"struct ICommonData.ISendOptions","components":[{"name":"extraGasLimit","type":"uint256","internalType":"uint256"},{"name":"zroPaymentAddress","type":"address","internalType":"address"}]},{"name":"approvals","type":"tuple[]","internalType":"struct ICommonData.IApproval[]","components":[{"name":"permitAll","type":"bool","internalType":"bool"},{"name":"allowFailure","type":"bool","internalType":"bool"},{"name":"yieldBoxTypeApproval","type":"bool","internalType":"bool"},{"name":"revokeYieldBox","type":"bool","internalType":"bool"},{"name":"actionType","type":"uint16","internalType":"uint16"},{"name":"target","type":"address","internalType":"address"},{"name":"permitBorrow","type":"bool","internalType":"bool"},{"name":"owner","type":"address","internalType":"address"},{"name":"spender","type":"address","internalType":"address"},{"name":"value","type":"uint256","internalType":"uint256"},{"name":"deadline","type":"uint256","internalType":"uint256"},{"name":"v","type":"uint8","internalType":"uint8"},{"name":"r","type":"bytes32","internalType":"bytes32"},{"name":"s","type":"bytes32","internalType":"bytes32"}]},{"name":"revokes","type":"tuple[]","internalType":"struct ICommonData.IApproval[]","components":[{"name":"permitAll","type":"bool","internalType":"bool"},{"name":"allowFailure","type":"bool","internalType":"bool"},{"name":"yieldBoxTypeApproval","type":"bool","internalType":"bool"},{"name":"revokeYieldBox","type":"bool","internalType":"bool"},{"name":"actionType","type":"uint16","internalType":"uint16"},{"name":"target","type":"address","internalType":"address"},{"name":"permitBorrow","type":"bool","internalType":"bool"},{"name":"owner","type":"address","internalType":"address"},{"name":"spender","type":"address","internalType":"address"},{"name":"value","type":"uint256","internalType":"uint256"},{"name":"deadline","type":"uint256","internalType":"uint256"},{"name":"v","type":"uint8","internalType":"uint8"},{"name":"r","type":"bytes32","internalType":"bytes32"},{"name":"s","type":"bytes32","internalType":"bytes32"}]}],"outputs":[],"stateMutability":"payable"},{"type":"function","name":"setConfig","inputs":[{"name":"_version","type":"uint16","internalType":"uint16"},{"name":"_chainId","type":"uint16","internalType":"uint16"},{"name":"_configType","type":"uint256","internalType":"uint256"},{"name":"_config","type":"bytes","internalType":"bytes"}],"outputs":[],"stateMutability":"nonpayable"},{"type":"function","name":"setMaxSlippage","inputs":[{"name":"_slippage","type":"uint256","internalType":"uint256"}],"outputs":[],"stateMutability":"nonpayable"},{"type":"function","name":"setMinDstGas","inputs":[{"name":"_dstChainId","type":"uint16","internalType":"uint16"},{"name":"_packetType","type":"uint16","internalType":"uint16"},{"name":"_minGas","type":"uint256","internalType":"uint256"}],"outputs":[],"stateMutability":"nonpayable"},{"type":"function","name":"setPayloadSizeLimit","inputs":[{"name":"_dstChainId","type":"uint16","internalType":"uint16"},{"name":"_size","type":"uint256","internalType":"uint256"}],"outputs":[],"stateMutability":"nonpayable"},{"type":"function","name":"setPrecrime","inputs":[{"name":"_precrime","type":"address","internalType":"address"}],"outputs":[],"stateMutability":"nonpayable"},{"type":"function","name":"setReceiveVersion","inputs":[{"name":"_version","type":"uint16","internalType":"uint16"}],"outputs":[],"stateMutability":"nonpayable"},{"type":"function","name":"setSendVersion","inputs":[{"name":"_version","type":"uint16","internalType":"uint16"}],"outputs":[],"stateMutability":"nonpayable"},{"type":"function","name":"setTrustedRemote","inputs":[{"name":"_srcChainId","type":"uint16","internalType":"uint16"},{"name":"_path","type":"bytes","internalType":"bytes"}],"outputs":[],"stateMutability":"nonpayable"},{"type":"function","name":"setTrustedRemoteAddress","inputs":[{"name":"_remoteChainId","type":"uint16","internalType":"uint16"},{"name":"_remoteAddress","type":"bytes","internalType":"bytes"}],"outputs":[],"stateMutability":"nonpayable"},{"type":"function","name":"setUseCustomAdapterParams","inputs":[{"name":"_useCustomAdapterParams","type":"bool","internalType":"bool"}],"outputs":[],"stateMutability":"nonpayable"},{"type":"function","name":"sharedDecimals","inputs":[],"outputs":[{"name":"","type":"uint8","internalType":"uint8"}],"stateMutability":"view"},{"type":"function","name":"supportsInterface","inputs":[{"name":"interfaceId","type":"bytes4","internalType":"bytes4"}],"outputs":[{"name":"","type":"bool","internalType":"bool"}],"stateMutability":"view"},{"type":"function","name":"symbol","inputs":[],"outputs":[{"name":"","type":"string","internalType":"string"}],"stateMutability":"view"},{"type":"function","name":"token","inputs":[],"outputs":[{"name":"","type":"address","internalType":"address"}],"stateMutability":"view"},{"type":"function","name":"totalSupply","inputs":[],"outputs":[{"name":"","type":"uint256","internalType":"uint256"}],"stateMutability":"view"},{"type":"function","name":"transfer","inputs":[{"name":"to","type":"address","internalType":"address"},{"name":"amount","type":"uint256","internalType":"uint256"}],"outputs":[{"name":"","type":"bool","internalType":"bool"}],"stateMutability":"nonpayable"},{"type":"function","name":"transferFrom","inputs":[{"name":"from","type":"address","internalType":"address"},{"name":"to","type":"address","internalType":"address"},{"name":"amount","type":"uint256","internalType":"uint256"}],"outputs":[{"name":"","type":"bool","internalType":"bool"}],"stateMutability":"nonpayable"},{"type":"function","name":"transferOwnership","inputs":[{"name":"newOwner","type":"address","internalType":"address"}],"outputs":[],"stateMutability":"nonpayable"},{"type":"function","name":"trustedRemoteLookup","inputs":[{"name":"","type":"uint16","internalType":"uint16"}],"outputs":[{"name":"","type":"bytes","internalType":"bytes"}],"stateMutability":"view"},{"type":"function","name":"useCustomAdapterParams","inputs":[],"outputs":[{"name":"","type":"bool","internalType":"bool"}],"stateMutability":"view"},{"type":"function","name":"yieldBox","inputs":[],"outputs":[{"name":"","type":"address","internalType":"contract IYieldBoxBase"}],"stateMutability":"view"},{"type":"event","name":"Approval","inputs":[{"name":"owner","type":"address","indexed":true,"internalType":"address"},{"name":"spender","type":"address","indexed":true,"internalType":"address"},{"name":"value","type":"uint256","indexed":false,"internalType":"uint256"}],"anonymous":false},{"type":"event","name":"CallOFTReceivedSuccess","inputs":[{"name":"_srcChainId","type":"uint16","indexed":true,"internalType":"uint16"},{"name":"_srcAddress","type":"bytes","indexed":false,"internalType":"bytes"},{"name":"_nonce","type":"uint64","indexed":false,"internalType":"uint64"},{"name":"_hash","type":"bytes32","indexed":false,"internalType":"bytes32"}],"anonymous":false},{"type":"event","name":"MessageFailed","inputs":[{"name":"_srcChainId","type":"uint16","indexed":false,"internalType":"uint16"},{"name":"_srcAddress","type":"bytes","indexed":false,"internalType":"bytes"},{"name":"_nonce","type":"uint64","indexed":false,"internalType":"uint64"},{"name":"_payload","type":"bytes","indexed":false,"internalType":"bytes"},{"name":"_reason","type":"bytes","indexed":false,"internalType":"bytes"}],"anonymous":false},{"type":"event","name":"NonContractAddress","inputs":[{"name":"_address","type":"address","indexed":false,"internalType":"address"}],"anonymous":false},{"type":"event","name":"OwnershipTransferred","inputs":[{"name":"previousOwner","type":"address","indexed":true,"internalType":"address"},{"name":"newOwner","type":"address","indexed":true,"internalType":"address"}],"anonymous":false},{"type":"event","name":"ReceiveFromChain","inputs":[{"name":"_srcChainId","type":"uint16","indexed":true,"internalType":"uint16"},{"name":"_to","type":"address","indexed":true,"internalType":"address"},{"name":"_amount","type":"uint256","indexed":false,"internalType":"uint256"}],"anonymous":false},{"type":"event","name":"RetryMessageSuccess","inputs":[{"name":"_srcChainId","type":"uint16","indexed":false,"internalType":"uint16"},{"name":"_srcAddress","type":"bytes","indexed":false,"internalType":"bytes"},{"name":"_nonce","type":"uint64","indexed":false,"internalType":"uint64"},{"name":"_payloadHash","type":"bytes32","indexed":false,"internalType":"bytes32"}],"anonymous":false},{"type":"event","name":"SendToChain","inputs":[{"name":"_dstChainId","type":"uint16","indexed":true,"internalType":"uint16"},{"name":"_from","type":"address","indexed":true,"internalType":"address"},{"name":"_toAddress","type":"bytes32","indexed":true,"internalType":"bytes32"},{"name":"_amount","type":"uint256","indexed":false,"internalType":"uint256"}],"anonymous":false},{"type":"event","name":"SetMinDstGas","inputs":[{"name":"_dstChainId","type":"uint16","indexed":false,"internalType":"uint16"},{"name":"_type","type":"uint16","indexed":false,"internalType":"uint16"},{"name":"_minDstGas","type":"uint256","indexed":false,"internalType":"uint256"}],"anonymous":false},{"type":"event","name":"SetPrecrime","inputs":[{"name":"precrime","type":"address","indexed":false,"internalType":"address"}],"anonymous":false},{"type":"event","name":"SetTrustedRemote","inputs":[{"name":"_remoteChainId","type":"uint16","indexed":false,"internalType":"uint16"},{"name":"_path","type":"bytes","indexed":false,"internalType":"bytes"}],"anonymous":false},{"type":"event","name":"SetTrustedRemoteAddress","inputs":[{"name":"_remoteChainId","type":"uint16","indexed":false,"internalType":"uint16"},{"name":"_remoteAddress","type":"bytes","indexed":false,"internalType":"bytes"}],"anonymous":false},{"type":"event","name":"SetUseCustomAdapterParams","inputs":[{"name":"_useCustomAdapterParams","type":"bool","indexed":false,"internalType":"bool"}],"anonymous":false},{"type":"event","name":"Transfer","inputs":[{"name":"from","type":"address","indexed":true,"internalType":"address"},{"name":"to","type":"address","indexed":true,"internalType":"address"},{"name":"value","type":"uint256","indexed":false,"internalType":"uint256"}],"anonymous":false},{"type":"error","name":"ActionTypeNotValid","inputs":[]},{"type":"error","name":"AllowanceNotValid","inputs":[]},{"type":"error","name":"NotAuthorized","inputs":[]},{"type":"error","name":"NotValid","inputs":[]}],"bytecode":{"object":"0x60e060409080825234620005985762004c8e80380380916200002282856200059d565b833981016101008282031262000598576200003d82620005d7565b906020926200004e848201620005d7565b818601516001600160a01b03808216949290918590036200059857606084015196828816809803620005985760808501516001600160401b0394908581116200059857816200009f91880162000611565b9060a0870151908682116200059857620000bb91880162000611565b9160c087015160ff811696878203620005985762000116602b60e08f9b01519a5180966a546170696f63614f46542d60a81b878301526200010581518092898686019101620005ec565b810103600b8101875201856200059d565b607f8d518096601d60fa1b868301526200013a8151809288602186019101620005ec565b810103926200015460216001958681018a5201886200059d565b831c16936000958887549d60018060a01b03199e8f33908216178a55823391167f8be0079c531659141344cd1fd0a4f28419497f9722a3daafe3b4186f6b6457e08b80a3166080528560a05281518381116200058457600b54928584811c9416801562000579575b8785101462000565578190601f9485811162000511575b508790858311600114620004ab578a926200049f575b5050600019600383901b1c191690851b17600b555b80519283116200048b57600c548481811c9116801562000480575b868210146200046c5782811162000423575b5084918311600114620003bd579282939183928894620003b1575b50501b916000199060031b1c191617600c555b601282116200035e575060120360ff81116200034a5760ff1690604d8211620003365750600a0a60c0526101f46012551684600f541617600f5560ff19601154161760115560105581600d541617600d55600e541617600e555161462190816200066d82396080518181816104ae01528181610794015281816108ea01528181610a6401528181610c2501528181611bb301528181611cc3015281816123fc01528181612abf0152818161325101526136e6015260a05181611549015260c05181818161392c01528181613bc301528181613eb80152613f520152f35b634e487b7160e01b81526011600452602490fd5b634e487b7160e01b82526011600452602482fd5b6084908b519062461bcd60e51b82526004820152602760248201527f4f46543a20736861726564446563696d616c73206d757374206265203c3d20646044820152666563696d616c7360c81b6064820152fd5b01519250388062000246565b600c8752848720919083601f198116895b88888383106200040b5750505010620003f1575b505050811b01600c5562000259565b015160001960f88460031b161c19169055388080620003e2565b868601518855909601959485019487935001620003ce565b600c88528588208380860160051c82019288871062000462575b0160051c019085905b828110620004565750506200022b565b89815501859062000446565b925081926200043d565b634e487b7160e01b88526022600452602488fd5b90607f169062000219565b634e487b7160e01b87526041600452602487fd5b015190503880620001e9565b600b8b52888b208894509190601f1984168c5b8b828210620004fa5750508411620004e0575b505050811b01600b55620001fe565b015160001960f88460031b161c19169055388080620004d1565b8385015186558b97909501949384019301620004be565b909150600b8a52878a208580850160051c8201928a86106200055b575b918991869594930160051c01915b8281106200054c575050620001d3565b8c81558594508991016200053c565b925081926200052e565b634e487b7160e01b89526022600452602489fd5b93607f1693620001bc565b634e487b7160e01b88526041600452602488fd5b600080fd5b601f909101601f19168101906001600160401b03821190821017620005c157604052565b634e487b7160e01b600052604160045260246000fd5b51906001600160a01b03821682036200059857565b60005b838110620006005750506000910152565b8181015183820152602001620005ef565b81601f82011215620005985780516001600160401b038111620005c1576040519262000648601f8301601f1916602001856200059d565b818452602082840101116200059857620006699160208085019101620005ec565b9056fe6080604052600436101561001b575b361561001957600080fd5b005b60003560e01c80621d3567146103bf57806254af3a146103ba57806301ffc9a7146103b557806306fdde03146103b057806307e0db17146103ab578063095ea7b3146103a65780630df37483146103a157806310ddb1371461039c57806318160ddd1461032e57806323b872dd14610397578063313ce56714610392578063365260b41461038d57806339509351146103885780633d8b38f6146103835780633f1f4fa41461037e57806342d65a8d1461037957806343f68a4914610374578063447705151461036f5780634c42899a1461036f57806357ba399b1461036a5780635b8c41e61461036557806366ad5c8a14610360578063695ef6bf1461035b57806370a0823114610356578063715018a6146103515780637533d7881461034c57806376203b4814610347578063785e9e8614610342578063857749b01461033d5780638cfd8f5c146103385780638da5cb5b146103335780639358928b1461032e578063950c8a741461032957806395d89b41146103245780639bdb98121461031f5780639f38369a1461031a578063a457c2d714610315578063a4c51df514610310578063a643c52e1461030b578063a6c3d16514610306578063a9059cbb14610301578063afa61ff9146102fc578063b353aaa7146102f7578063baf3292d146102f2578063c4461834146102ed578063cbed8b9c146102e8578063d1deba1f146102e3578063dbd01de1146102de578063dd62ed3e146102d9578063de406577146102d4578063df2a5b3b146102cf578063e6a20ae6146102ca578063eab45d9c146102c5578063eaffd49a146102c0578063eb8d72b7146102bb578063ed629c5c146102b6578063f2fde38b146102b1578063f5ecbdbc146102ac5763fc0c546a0361000e57612466565b612392565b6122cb565b6122a8565b61215e565b6120d5565b612073565b612057565b611f6a565b611f41565b611ee7565b611ebe565b611d5b565b611c6f565b611c52565b611be2565b611b9d565b611ae6565b611a98565b611915565b6118f7565b611864565b6117a6565b611703565b6116b8565b611611565b6115e8565b61094b565b6115bf565b61156d565b61152f565b611506565b6112e8565b611291565b61114b565b61110e565b61102b565b610f97565b610f30565b610daa565b610cad565b610c8c565b610c0b565b610bd2565b610b76565b610ae2565b6109da565b6109a9565b610969565b6108c1565b610882565b61084d565b61076b565b610686565b6105d4565b6105b6565b610497565b61ffff8116036103d057565b600080fd5b604435906103e2826103c4565b565b35906103e2826103c4565b9181601f840112156103d0578235916001600160401b0383116103d057602083818601950101116103d057565b608435906001600160401b03821682036103d057565b9060806003198301126103d05760043561044b816103c4565b916001600160401b03906024358281116103d0578161046c916004016103ef565b9390939260443581811681036103d057926064359182116103d057610493916004016103ef565b9091565b346103d0576104a536610432565b929493919291907f00000000000000000000000000000000000000000000000000000000000000006001600160a01b031633036105665761052b610533926100199761052461050a6105058a61ffff166000526001602052604060002090565b611276565b805190818414918261055c575b5081610539575b5061315a565b3691610e7a565b923691610e7a565b9261347a565b9050610546368486610e7a565b602081519101209060208151910120143861051e565b1515915038610517565b60405162461bcd60e51b815260206004820152601e60248201527f4c7a4170703a20696e76616c696420656e64706f696e742063616c6c657200006044820152606490fd5b60009103126103d057565b346103d05760003660031901126103d0576020601054604051908152f35b346103d05760203660031901126103d05760043563ffffffff60e01b81168091036103d057602090631f7ecdf760e01b8114908115610619575b506040519015158152f35b6301ffc9a760e01b1490503861060e565b60005b83811061063d5750506000910152565b818101518382015260200161062d565b906020916106668151809281855285808601910161062a565b601f01601f1916010190565b90602061068392818152019061064d565b90565b346103d057600080600319360112610768576040519080600b546106a9816111a6565b8085529160019180831690811561073e57506001146106e3575b6106df856106d381870382610d05565b60405191829182610672565b0390f35b9250600b83527f0175b7a638427703f0dbe7bb9bbf987a2551717b34e79f33b5b1008d1fa01db95b8284106107265750505081016020016106d3826106df6106c3565b8054602085870181019190915290930192810161070b565b8695506106df969350602092506106d394915060ff191682840152151560051b82010192936106c3565b80fd5b346103d057600060203660031901126107685760043561078a816103c4565b610792612c2e565b7f00000000000000000000000000000000000000000000000000000000000000006001600160a01b0316908290823b1561080657602461ffff918360405195869485936307e0db1760e01b85521660048401525af18015610801576107f5575080f35b6107fe90610ced565b80f35b612733565b5080fd5b6001600160a01b038116036103d057565b600435906103e28261080a565b602435906103e28261080a565b606435906103e28261080a565b35906103e28261080a565b346103d05760403660031901126103d05761087760043561086d8161080a565b6024359033612e80565b602060405160018152f35b346103d05760403660031901126103d05761ffff6004356108a2816103c4565b6108aa612c2e565b166000526003602052602435604060002055600080f35b346103d05760006020366003190112610768576004356108e0816103c4565b6108e8612c2e565b7f00000000000000000000000000000000000000000000000000000000000000006001600160a01b0316908290823b1561080657602461ffff918360405195869485936310ddb13760e01b85521660048401525af18015610801576107f5575080f35b346103d05760003660031901126103d0576020600a54604051908152f35b346103d05760603660031901126103d0576108776004356109898161080a565b6024356109958161080a565b604435916109a4833383612f94565b612d78565b346103d05760003660031901126103d057602060405160128152f35b801515036103d057565b35906103e2826109c5565b346103d05760a03660031901126103d0576004356109f7816103c4565b60643590610a04826109c5565b608435906001600160401b0382116103d057610a2961052460409336906004016103ef565b90610a60610a43610a3b604435613eb6565b602435613f87565b928451958694859463040a7bb160e41b8652309060048701613881565b03817f00000000000000000000000000000000000000000000000000000000000000006001600160a01b03165afa908115610801576000908192610ab1575b50604080519182526020820192909252f35b9050610ad4915060403d8111610adb575b610acc8183610d05565b81019061386b565b9038610a9f565b503d610ac2565b346103d05760403660031901126103d057600435610aff8161080a565b3360009081526009602090815260408083206001600160a01b03851684529091529020546024358101809111610b39576108779133612e80565b612c86565b9060406003198301126103d057600435610b57816103c4565b91602435906001600160401b0382116103d057610493916004016103ef565b346103d057602061ffff610bc3610b8c36610b3e565b9390911660005260018452610bae610bb56040600020604051928380926111e0565b0382610d05565b848151910120923691610e7a565b82815191012014604051908152f35b346103d05760203660031901126103d05761ffff600435610bf2816103c4565b1660005260036020526020604060002054604051908152f35b346103d057610c1936610b3e565b9190610c23612c2e565b7f00000000000000000000000000000000000000000000000000000000000000006001600160a01b031691823b156103d057604051928380926342d65a8d60e01b825281610c7a60009889978894600485016133ed565b03925af18015610801576107f5575080f35b346103d05760203660031901126103d057610ca5612c2e565b600435601255005b346103d05760003660031901126103d057602060405160008152f35b908160c09103126103d05790565b634e487b7160e01b600052604160045260246000fd5b6001600160401b038111610d0057604052565b610cd7565b90601f801991011681019081106001600160401b03821117610d0057604052565b60609060a31901126103d05760405190606082018281106001600160401b03821117610d00576040528160a435815260c435610d618161080a565b6020820152604060e43591610d758361080a565b0152565b9181601f840112156103d0578235916001600160401b0383116103d0576020808501946101c085020101116103d057565b6101603660031901126103d057610dbf61081b565b610dc7610828565b610dcf6103d5565b91610dd8610835565b6001600160401b03936084358581116103d057610df9903690600401610cc9565b610e0236610d26565b90610104358781116103d057610e1c903690600401610d79565b929091610124358981116103d057610e38903690600401610d79565b969095610144359a8b116103d057610e576100199b36906004016103ef565b9a9099612749565b6001600160401b038111610d0057601f01601f191660200190565b929192610e8682610e5f565b91610e946040519384610d05565b8294818452818301116103d0578281602093846000960137010152565b60606003198201126103d057600435610ec9816103c4565b916024356001600160401b03928382116103d057806023830112156103d057816024610efa93600401359101610e7a565b9160443590811681036103d05790565b602090610f2492826040519483868095519384920161062a565b82019081520301902090565b346103d0576020610f8e61ffff610f6d83610f4a36610eb1565b94909116600052600582526040600020826040519483868095519384920161062a565b820190815203019020906001600160401b0316600052602052604060002090565b54604051908152f35b346103d057610fa536610432565b9192949390303303610fc95761052b610fc392610019973691610e7a565b926138c5565b60405162461bcd60e51b815260206004820152602660248201527f4e6f6e626c6f636b696e674c7a4170703a2063616c6c6572206d7573742062656044820152650204c7a4170760d41b6064820152608490fd5b908160609103126103d05790565b60a03660031901126103d0576004356110438161080a565b60243561104f816103c4565b604435916084356001600160401b0381116103d057602061ffff6110866000805160206145ac83398151915293369060040161101d565b936110f985356110958161080a565b6110b361052486890135986110a98a61080a565b6040810190613664565b6110bd818a613d2f565b6110d26110cb606435613f50565b508561415f565b976110de891515613aa2565b6110f06110ea8a613eb6565b8c613f87565b9234938b61320d565b6040519485526001600160a01b0316941692a4005b346103d05760203660031901126103d05760043561112b8161080a565b60018060a01b031660005260086020526020604060002054604051908152f35b346103d05760008060031936011261076857611165612c2e565b80546001600160a01b03198116825581906001600160a01b03167f8be0079c531659141344cd1fd0a4f28419497f9722a3daafe3b4186f6b6457e08280a380f35b90600182811c921680156111d6575b60208310146111c057565b634e487b7160e01b600052602260045260246000fd5b91607f16916111b5565b90600092918054916111f1836111a6565b9182825260019384811690816000146112535750600114611213575b50505050565b90919394506000526020928360002092846000945b83861061123f57505050500101903880808061120d565b805485870183015294019385908201611228565b9294505050602093945060ff191683830152151560051b0101903880808061120d565b906103e261128a92604051938480926111e0565b0383610d05565b346103d05760203660031901126103d05761ffff6004356112b1816103c4565b1660005260016020526106df610bae6112d46040600020604051928380926111e0565b60405191829160208352602083019061064d565b60e03660031901126103d0576004356113008161080a565b60243561130c816103c4565b604435916001600160401b03906084358281116103d0576113319036906004016103ef565b91909260a43591818316918284036103d05760c4359081116103d05761135b90369060040161101d565b9261139284359561136b8761080a565b61138a6113806020880135976110a98961080a565b9990923691610e7a565b973691610e7a565b9460ff6006541660001461148557602286511061144057856020956110f06110f99461140e8c6113fb61ffff9a8b60226000805160206145ac8339815191529f0151931660005260028d526113f560406000206001600052602052604060002090565b54612cb8565b90611407821515613e08565b1015613e54565b61142361141c606435613f50565b508861415f565b9a61142f8c1515613aa2565b8d6114398d613eb6565b9033614019565b60405162461bcd60e51b815260206004820152601c60248201527f4c7a4170703a20696e76616c69642061646170746572506172616d73000000006044820152606490fd5b9480949350516114b2576000805160206145ac8339815191529460209461ffff946110f06110f99461140e565b60405162461bcd60e51b815260206004820152602660248201527f4f4654436f72653a205f61646170746572506172616d73206d7573742062652060448201526532b6b83a3c9760d11b6064820152608490fd5b346103d05760003660031901126103d057600f546040516001600160a01b039091168152602090f35b346103d05760003660031901126103d057602060405160ff7f0000000000000000000000000000000000000000000000000000000000000000168152f35b346103d05760403660031901126103d0576020610f8e60043561158f816103c4565b61ffff6024359161159f836103c4565b166000526002835260406000209061ffff16600052602052604060002090565b346103d05760003660031901126103d0576000546040516001600160a01b039091168152602090f35b346103d05760003660031901126103d0576004546040516001600160a01b039091168152602090f35b346103d057600080600319360112610768576040519080600c54611634816111a6565b8085529160019180831690811561073e575060011461165d576106df856106d381870382610d05565b9250600c83527fdf6966c971051c3d54ec59162606531493a51404a002842f56009d7e5cf4a8c75b8284106116a05750505081016020016106d3826106df6106c3565b80546020858701810191909152909301928101611685565b346103d057602060ff6116f761ffff610f6d846116d436610eb1565b94909116600052600782526040600020826040519483868095519384920161062a565b54166040519015158152f35b346103d05760203660031901126103d05761ffff600435611723816103c4565b166000526001602052610bae6117436040600020604051928380926111e0565b805115611761576106d38161175b6106df935161345c565b9061439f565b60405162461bcd60e51b815260206004820152601d60248201527f4c7a4170703a206e6f20747275737465642070617468207265636f72640000006044820152606490fd5b346103d05760403660031901126103d0576004356117c38161080a565b602435903360005260096020526117f08160406000209060018060a01b0316600052602052604060002090565b54918083106118115761180592039033612e80565b60405160018152602090f35b60405162461bcd60e51b815260206004820152602560248201527f45524332303a2064656372656173656420616c6c6f77616e63652062656c6f77604482015264207a65726f60d81b6064820152608490fd5b346103d05760e03660031901126103d057600435611881816103c4565b6001600160401b03906064358281116103d0576118a29036906004016103ef565b6118ad92919261041c565b60a435916118ba836109c5565b60c4359586116103d0576118d56118e59636906004016103ef565b9590946044359060243590613696565b60408051928352602083019190915290f35b346103d05760003660031901126103d0576020601254604051908152f35b346103d05761192336610b3e565b9061192c612c2e565b604051926020928083858701376119586034868381013060601b88820152036014810188520186610d05565b60009361ffff8316855260019081815260408620918751916001600160401b038311610d00576119928361198c86546111a6565b86613408565b80601f8411600114611a025750918080926119f19695948a9b7f8c0400cfe2d1199b1a725c78960bcc2a344d869b80590d0f2bd005db15a572ce9b946119f7575b50501b916000199060031b1c19161790555b604051938493846133ed565b0390a180f35b0151925038806119d3565b91939498601f198416611a1a87600052602060002090565b938a905b828210611a81575050917f8c0400cfe2d1199b1a725c78960bcc2a344d869b80590d0f2bd005db15a572ce999a959391856119f198969410611a68575b505050811b0190556119e5565b015160001960f88460031b161c19169055388080611a5b565b808886978294978701518155019601940190611a1e565b346103d05760403660031901126103d057610877600435611ab88161080a565b6024359033612d78565b60809060831901126103d057608490565b6040906101231901126103d05761012490565b6101a03660031901126103d057611afb61081b565b611b03610828565b611b0b6103d5565b6001600160401b0392906064358481116103d057611b2d9036906004016103ef565b611b3992919236611ac2565b610104358781116103d057611b52903690600401610cc9565b90611b5c36611ad3565b92610164358981116103d057611b76903690600401610d79565b969095610184359a8b116103d057611b956100199b3690600401610d79565b9a9099612a79565b346103d05760003660031901126103d0576040517f00000000000000000000000000000000000000000000000000000000000000006001600160a01b03168152602090f35b346103d05760203660031901126103d0577f5db758e995a17ec1ad84bdef7e8c3293a0bd6179bcce400dff5d4c3d87db726b6020600435611c228161080a565b611c2a612c2e565b600480546001600160a01b0319166001600160a01b03929092169182179055604051908152a1005b346103d05760003660031901126103d05760206040516127108152f35b346103d05760803660031901126103d057600435611c8c816103c4565b602435611c98816103c4565b6064356001600160401b0381116103d057611cb79036906004016103ef565b9092611cc1612c2e565b7f00000000000000000000000000000000000000000000000000000000000000006001600160a01b031690813b156103d05760008094611d38604051978896879586946332fb62e760e21b865261ffff80921660048701521660248501526044356044850152608060648501526084840191612481565b03925af1801561080157611d4857005b80611d5561001992610ced565b806105ab565b611d6436610432565b9161ffff86949296166000526005602052611dab81604060002060206040518092878b833787820190815203019020906001600160401b0316600052602052604060002090565b54918215611e6d57611e5c8483611e557fc264d91f3adc5588250e1551f547752ca0cfa8f6b530d243b9f9f4cab10ea8e59a6000611e4184611e298e8a8f611e689f908f611e0f90611e02611e239436908d610e7a565b60208151910120146135d7565b61ffff166000526005602052604060002090565b916135be565b906001600160401b0316600052602052604060002090565b55611e4d36878d610e7a565b933691610e7a565b91886138c5565b6040519586958661362d565b0390a1005b60405162461bcd60e51b815260206004820152602360248201527f4e6f6e626c6f636b696e674c7a4170703a206e6f2073746f726564206d65737360448201526261676560e81b6064820152608490fd5b346103d05760003660031901126103d057600e546040516001600160a01b039091168152602090f35b346103d05760403660031901126103d0576020610f8e600435611f098161080a565b60243590611f168261080a565b60018060a01b03166000526009835260406000209060018060a01b0316600052602052604060002090565b346103d05760003660031901126103d057600d546040516001600160a01b039091168152602090f35b346103d05760603660031901126103d057600435611f87816103c4565b602435611f93816103c4565b60443591611f9f612c2e565b821561201a57611e687f9d5c7c0b934da8fefa9c7760c98383778a12dfbfc0c3b3106518f43fb9508ac09361ffff8316600052600260205280611ff48560406000209061ffff16600052602052604060002090565b556040519384938460409194939294606082019561ffff80921683521660208201520152565b60405162461bcd60e51b81526020600482015260156024820152744c7a4170703a20696e76616c6964206d696e47617360581b6044820152606490fd5b346103d05760003660031901126103d057602060405160018152f35b346103d05760203660031901126103d0577f1584ad594a70cbe1e6515592e1272a987d922b097ead875069cebe8b40c004a460206004356120b3816109c5565b6120bb612c2e565b151560ff196006541660ff821617600655604051908152a1005b346103d0576101003660031901126103d0576004356120f3816103c4565b6001600160401b03906024358281116103d0576121149036906004016103ef565b91906044359084821682036103d05760843561212f8161080a565b60c4359586116103d05761214a6100199636906004016103ef565b94909360e4359660a435946064359361378c565b346103d05761216c36610b3e565b9190612176612c2e565b60009161ffff81168352600160209080825260408520916001600160401b038711610d00576121af876121a985546111a6565b85613408565b8590601f881160011461221657509186808798936119f1957ffa41487ad5d6728f0b19276fa1eddc16558578f5109fc39d2dc33c3230470dab999361220b575b501b906000198460031b1c1916179055604051938493846133ed565b8801359250386121ef565b90601f19881661222b85600052602060002090565b9288905b828210612291575050918893917ffa41487ad5d6728f0b19276fa1eddc16558578f5109fc39d2dc33c3230470dab98996119f1969410612277575b505082811b0190556119e5565b870135600019600386901b60f8161c19169055388061226a565b808685968294968c0135815501950193019061222f565b346103d05760003660031901126103d057602060ff600654166040519015158152f35b346103d05760203660031901126103d0576004356122e88161080a565b6122f0612c2e565b6001600160a01b03908116801561233e57600080546001600160a01b03198116831782559092167f8be0079c531659141344cd1fd0a4f28419497f9722a3daafe3b4186f6b6457e08380a380f35b60405162461bcd60e51b815260206004820152602660248201527f4f776e61626c653a206e6577206f776e657220697320746865207a65726f206160448201526564647265737360d01b6064820152608490fd5b346103d05760803660031901126103d0576004356123af816103c4565b602435906123bc826103c4565b6123c760443561080a565b604051633d7b2f6f60e21b815261ffff91821660048201529116602482015230604482015260648035908201526000816084817f00000000000000000000000000000000000000000000000000000000000000006001600160a01b03165afa8015610801576106df91600091612445575b5060405191829182610672565b612460913d8091833e6124588183610d05565b81019061338f565b38612438565b346103d05760003660031901126103d0576020604051308152f35b908060209392818452848401376000828201840152601f01601f1916010190565b9081356124ae816109c5565b151581526020820135602082015260408201356124ca816109c5565b1515604082015261ffff60608301356124e2816103c4565b1660608201526080820135601e19833603018112156103d0578201906020823592016001600160401b0383116103d05782360381136103d05761254160a061253a81936106839660c0608088015260c0870191612481565b95016109cf565b1515910152565b359060ff821682036103d057565b9190808252602080920192916000905b828210612574575050505090565b909192938061258e600192612588886109cf565b15159052565b6125a461259c8488016109cf565b151582850152565b6125bc60406125b48189016109cf565b151590830152565b6125cc60606125b48189016109cf565b6125e660806125dc8189016103e4565b61ffff1690830152565b61260560a06125f6818901610842565b6001600160a01b031690830152565b61261560c06125b48189016109cf565b61262560e06125f6818901610842565b6126366101006125f6818901610842565b6101208087013590820152610140808701359082015261266661016061265d818901612548565b60ff1690830152565b61018086810135908201526101a080870135908201526101c0908101950193920190612566565b9a9998946126fb91604061270a968e6001600160401b036101409d9b986127199d98610304845260018060a01b038097166020850152858401521660608201528151608082015260a08460208401511691015201511660c08d015260e08c61016091829101528c01906124a2565b918a83036101008c0152612556565b91878303610120890152612556565b930152565b908160209103126103d05751610683816109c5565b6040513d6000823e3d90fd5b35610683816109c5565b95859685999496929b95939a9c9860018060a01b038083169d8e3303612948575b169d8e96855161277990613f50565b508652612787368d8b610e7a565b612790906130a7565b509491505086516127a090613eb6565b9560409e8f519d8e9860209c8d8b01996127b99a61268d565b03601f19810187526127cb9087610d05565b6127d6368886610e7a565b6127e0908a613d84565b600e54818901518951633a304d8b60e21b80825261ffff8d1660048301526001600160a01b039283166024830152949190921692918581604481875afa9081156108015760009161292b575b501561291a578b95949392916128428c9261273f565b612888575b50505050509261287a9261ffff95926128736000805160206145ac833981519152989634953691610e7a565b928961320d565b5160008152921691602090a4565b8401518a5193845261ffff9190911660048401526001600160a01b0316602483015292935090918290829060449082905afa918215610801576000926128ed575b5050156128dc5786903880808981612847565b845163ea8e4eb560e01b8152600490fd5b61290c9250803d10612913575b6129048183610d05565b81019061271e565b38806128c9565b503d6128fa565b895163ea8e4eb560e01b8152600490fd5b6129429150863d8811612913576129048183610d05565b3861282c565b945094506129833361296c8460018060a01b03166000526009602052604060002090565b9060018060a01b0316600052602052604060002090565b548951116129a0578a94899461299b86513386612f94565b61276a565b60405163fb165f2360e01b8152600490fd5b908160209103126103d05751610683816103c4565b9a999894612a51916060612a60968e6001600160401b036101609d9b986127199d98610307845260018060a01b0380971660208501526040840152168382015281356080820152602082013560a082015260c0846040840135612a298161080a565b169101520135612a388161080a565b1660e08d01526101806101008d018190528c01906124a2565b918a83036101208c0152612556565b91878303610140890152612556565b356106838161080a565b909998949692939597919760018060a01b039b8c83169b8d8d3303612be9575b600491169d6020612aaa8c35613f50565b5091604051938480926303408e4760e41b82527f0000000000000000000000000000000000000000000000000000000000000000165afa91821561080157612af892612bbb575b508461415f565b9a8b15612ba9578c978e958d94612b10368d8c610e7a565b612b19906130a7565b50979050612b279150613eb6565b9c6040519d8e9960208b0199612b3c9a6129c7565b03601f1981018652612b4e9086610d05565b612b59368584610e7a565b612b639087613dc6565b602001612b6f90612a6f565b9034933690612b7d92610e7a565b91612b88948661320d565b60405191825261ffff16906000805160206145ac83398151915290602090a4565b60405163f1640ae160e01b8152600490fd5b612bdb9060203d8111612be2575b612bd38183610d05565b8101906129b2565b5038612af1565b503d612bc9565b506001600160a01b0384166000908152600960205260409020612c0d90339061296c565b548a358091106129a0576004918f91612c27903388612f94565b9150612a99565b6000546001600160a01b03163303612c4257565b606460405162461bcd60e51b815260206004820152602060248201527f4f776e61626c653a2063616c6c6572206973206e6f7420746865206f776e65726044820152fd5b634e487b7160e01b600052601160045260246000fd5b90601f8201809211610b3957565b6051019081605111610b3957565b91908201809211610b3957565b15612ccc57565b60405162461bcd60e51b815260206004820152602360248201527f45524332303a207472616e7366657220746f20746865207a65726f206164647260448201526265737360e81b6064820152608490fd5b15612d2457565b60405162461bcd60e51b815260206004820152602660248201527f45524332303a207472616e7366657220616d6f756e7420657863656564732062604482015265616c616e636560d01b6064820152608490fd5b916001600160a01b038084169290918315612e2d57612e12826000805160206145cc83398151915294612e28941696612db2881515612cc5565b6001600160a01b0381166000908152600860205260409020612df790859054612ddd82821015612d1d565b039160018060a01b03166000526008602052604060002090565b556001600160a01b0316600090815260086020526040902090565b8054820190556040519081529081906020820190565b0390a3565b60405162461bcd60e51b815260206004820152602560248201527f45524332303a207472616e736665722066726f6d20746865207a65726f206164604482015264647265737360d81b6064820152608490fd5b6001600160a01b038082169291908315612f43578216938415612ef35780612ee27f8c5be1e5ebec7d5bd14f71427d1e84f3dd0314c0f7b2291e5b200ac8c7c3b9259461296c612e289560018060a01b03166000526009602052604060002090565b556040519081529081906020820190565b60405162461bcd60e51b815260206004820152602260248201527f45524332303a20617070726f766520746f20746865207a65726f206164647265604482015261737360f01b6064820152608490fd5b60405162461bcd60e51b8152602060048201526024808201527f45524332303a20617070726f76652066726f6d20746865207a65726f206164646044820152637265737360e01b6064820152608490fd5b6001600160a01b038082166000908152600960209081526040808320938616835292905220909190549260018401612fcc5750505050565b808410612fe757612fde930391612e80565b3880808061120d565b60405162461bcd60e51b815260206004820152601d60248201527f45524332303a20696e73756666696369656e7420616c6c6f77616e63650000006044820152606490fd5b1561303357565b60405162461bcd60e51b8152602060048201526012602482015271556e737570706f727465642074785479706560701b6044820152606490fd5b1561307457565b60405162461bcd60e51b815260206004820152600b60248201526a47617320746f6f206c6f7760a81b6044820152606490fd5b60008082516022811490811561314f575b501561311257600283015193602284015193600261ffff8716600181148015613109575b6130e59061302c565b6130f087151561306d565b146130f85750565b925090506056604283015192015190565b508082146130dc565b60405162461bcd60e51b8152602060048201526015602482015274496e76616c69642061646170746572506172616d7360581b6044820152606490fd5b6042915011386130b8565b1561316157565b60405162461bcd60e51b815260206004820152602660248201527f4c7a4170703a20696e76616c696420736f757263652073656e64696e6720636f6044820152651b9d1c9858dd60d21b6064820152608490fd5b926131da61068397959361ffff6131e89416865260c0602087015260c086019061064d565b90848203604086015261064d565b6001600160a01b0391821660608401529316608082015280830360a09091015261064d565b946132369193929561ffff8116600052600160205261323d6040600020604051948580926111e0565b0384610d05565b8251156132c25761324f855182613320565b7f00000000000000000000000000000000000000000000000000000000000000006001600160a01b031693843b156103d0576000966132a491604051998a988997889662c5803160e81b8852600488016131b5565b03925af18015610801576132b55750565b80611d556103e292610ced565b60405162461bcd60e51b815260206004820152603060248201527f4c7a4170703a2064657374696e6174696f6e20636861696e206973206e6f742060448201526f61207472757374656420736f7572636560801b6064820152608490fd5b61ffff166000526003602052604060002054908115613385575b1161334157565b606460405162461bcd60e51b815260206004820152602060248201527f4c7a4170703a207061796c6f61642073697a6520697320746f6f206c617267656044820152fd5b612710915061333a565b6020818303126103d0578051906001600160401b0382116103d0570181601f820112156103d05780516133c181610e5f565b926133cf6040519485610d05565b818452602082840101116103d057610683916020808501910161062a565b60409061ffff61068395931681528160208201520191612481565b90601f811161341657505050565b600091825260208220906020601f850160051c83019410613452575b601f0160051c01915b82811061344757505050565b81815560010161343b565b9092508290613432565b601319810191908211610b3957565b605019810191908211610b3957565b9290916134ec5a604051633356ae4560e11b602082015261ffff8716602482015260806044820152906134e6826134d86134b760a483018a61064d565b6001600160401b03881660648401528281036023190160848401528861064d565b03601f198101845283610d05565b3061454e565b9390156134fb575b5050505050565b6135049461350e565b38808080806134f4565b91936135ab7fe183f33de2837795525b4792ca4cd60535bd77c53b7e7030060bfcf5734d6b0c956135b9939561ffff8151602083012096169586600052600560205261357283610f6d60208b6040600020826040519483868095519384920161062a565b556001600160401b03613597604051988998895260a060208a015260a089019061064d565b92166040870152858203606087015261064d565b90838203608085015261064d565b0390a1565b6020919283604051948593843782019081520301902090565b156135de57565b60405162461bcd60e51b815260206004820152602160248201527f4e6f6e626c6f636b696e674c7a4170703a20696e76616c6964207061796c6f616044820152601960fa1b6064820152608490fd5b916136599060609461ffff6001600160401b039499989799168552608060208601526080850191612481565b951660408201520152565b903590601e19813603018212156103d057018035906001600160401b0382116103d0576020019181360383136103d057565b9491959897906114396136bf6040996136b76136c5976136e2993691610e7a565b943691610e7a565b97613eb6565b928451968794859463040a7bb160e41b8652309060048701613881565b03817f00000000000000000000000000000000000000000000000000000000000000006001600160a01b03165afa91821561080157600090819361372557509190565b905061049391925060403d8111610adb57610acc8183610d05565b9396949161376e9061068399979461ffff6001600160401b039416875260c0602088015260c0870191612481565b961660408401526060830152608082015260a0818503910152612481565b91969792989594939094303303613826576137a89085306142eb565b60405181815290946001600160a01b03169390849061ffff8516907fbf551ec93859b170f9b2141bd9298bf3f64322c6f7beb2543a0cb669834118bf90602090a3833b156103d0576000988995613816936040519c8d9b8c9a8b98633fe79aed60e11b8a5260048a01613740565b0393f18015610801576132b55750565b60405162461bcd60e51b815260206004820152601f60248201527f4f4654436f72653a2063616c6c6572206d757374206265204f4654436f7265006044820152606490fd5b91908260409103126103d0576020825192015190565b9192610683959361ffff6138b09316845260018060a01b0316602084015260a0604084015260a083019061064d565b9215156060820152608081840391015261064d565b92919060ff6138d3846144f3565b1680613a4d5750505060ff6138e7826144f3565b161580613a42575b6138f890613fcd565b61390a613904826144a3565b9161453e565b90916001600160a01b039182841615613a38575b613952906001600160401b037f00000000000000000000000000000000000000000000000000000000000000009116613f3d565b9183169283156139f3577fbf551ec93859b170f9b2141bd9298bf3f64322c6f7beb2543a0cb669834118bf916139b361ffff9261399961399487600a54612cb8565b600a55565b6001600160a01b0316600090815260086020526040902090565b8481540190558460006000805160206145cc833981519152604051806139de89829190602083019252565b0390a360405193845216918060208101612e28565b60405162461bcd60e51b815260206004820152601f60248201527f45524332303a206d696e7420746f20746865207a65726f2061646472657373006044820152606490fd5b61dead935061391e565b5080516029146138ef565b600103613a5d576103e293613b77565b60405162461bcd60e51b815260206004820152601c60248201527f4f4654436f72653a20756e6b6e6f776e207061636b65742074797065000000006044820152606490fd5b15613aa957565b60405162461bcd60e51b815260206004820152601960248201527f4f4654436f72653a20616d6f756e7420746f6f20736d616c6c000000000000006044820152606490fd5b98979692936001600160401b03613b2060e0989461ffff6127199995168d5260208d61010091829101528d019061064d565b951660408b015260608a01526001600160a01b0316608089015260a088015286820360c088015261064d565b6001600160401b03613b6c6040939695949660608452606084019061064d565b951660208201520152565b9091613b8284614086565b9091613bb3613bac87611e29613ba68b61ffff166000526007602052604060002090565b8c610f0a565b5460ff1690565b91613be96001600160401b0392837f00000000000000000000000000000000000000000000000000000000000000009116613f3d565b9288888b8315613ce5575b505050853b15613c9a5794613c3b96946134e6948a946134d8948d99600014613c935750505a925b5a978b6040519a8b9863757fea4d60e11b60208b015260248a01613aee565b9015613c88575090613c8361ffff928560207fb8890edbfc1c74692f527444645f95489c3703cc2df42e4a366f5d06fa6cd88496975191012090604051948594169684613b4c565b0390a2565b926103e2949261350e565b1692613c1c565b50506040516001600160a01b039094168452507f9aedf5fdba8716db3b6705ca00150643309995d4f818a249ed6dde6677e7792d9750919550859450506020840192506135b9915050565b90611e29613d1a92613d1489613cff613d27979b30614288565b9961ffff166000526007602052604060002090565b90610f0a565b805460ff19166001179055565b88888b613bf4565b60065460ff1615613d7c5760228251106114405761ffff60226103e293015191166000526002602052613d6f604060002060008052602052604060002090565b5490611407821515613e08565b50516114b257565b60065460ff1615613d7c5760228251106114405761ffff60226103e293015191166000526002602052613d6f6040600020610304600052602052604060002090565b60065460ff1615613d7c5760228251106114405761ffff60226103e293015191166000526002602052613d6f6040600020610307600052602052604060002090565b15613e0f57565b60405162461bcd60e51b815260206004820152601a60248201527f4c7a4170703a206d696e4761734c696d6974206e6f74207365740000000000006044820152606490fd5b15613e5b57565b60405162461bcd60e51b815260206004820152601b60248201527f4c7a4170703a20676173206c696d697420697320746f6f206c6f7700000000006044820152606490fd5b634e487b7160e01b600052601260045260246000fd5b7f0000000000000000000000000000000000000000000000000000000000000000908115613f3857046001600160401b0390818111613ef3571690565b60405162461bcd60e51b815260206004820152601a60248201527f4f4654436f72653a20616d6f756e745344206f766572666c6f770000000000006044820152606490fd5b613ea0565b81810292918115918404141715610b3957565b7f00000000000000000000000000000000000000000000000000000000000000008015613f3857810690818103908111610b395791565b90604051916000602084015260218301526001600160401b0360c01b9060c01b16604182015260298152606081018181106001600160401b03821117610d005760405290565b15613fd457565b60405162461bcd60e51b815260206004820152601860248201527f4f4654436f72653a20696e76616c6964207061796c6f616400000000000000006044820152606490fd5b939260719261068394604051968794600160f81b602087015260218601526001600160401b0360c01b809360c01b16604186015260018060a01b0316604985015260c01b166069830152614076815180926020868601910161062a565b8101036051810184520182610d05565b9061409e600160ff614097856144f3565b1614613fcd565b6140a7826144a3565b906140b18361453e565b9060498451106141225760498401519360518151106140e6576140e36051820151916140dd815161346b565b9061441f565b91565b60405162461bcd60e51b8152602060048201526014602482015273746f55696e7436345f6f75744f66426f756e647360601b6044820152606490fd5b60405162461bcd60e51b8152602060048201526015602482015274746f427974657333325f6f75744f66426f756e647360581b6044820152606490fd5b6001600160a01b038116338103614221575b80156141d257816141a78461419a60009560018060a01b03166000526008602052604060002090565b54612ddd82821015614231565b556141b583600a5403600a55565b6040518381526000805160206145cc83398151915290602090a390565b60405162461bcd60e51b815260206004820152602160248201527f45524332303a206275726e2066726f6d20746865207a65726f206164647265736044820152607360f81b6064820152608490fd5b61422c833384612f94565b614171565b1561423857565b60405162461bcd60e51b815260206004820152602260248201527f45524332303a206275726e20616d6f756e7420657863656564732062616c616e604482015261636560f01b6064820152608490fd5b6001600160a01b038116919082156139f357600a5490828201809211610b39576000926142dc6020926000805160206145cc83398151915294600a5560018060a01b03166000526008602052604060002090565b818154019055604051908152a3565b6106839183916001600160a01b038116308114159081614317575b5015612d78576109a4833383612f94565b905033141538614306565b1561432957565b60405162461bcd60e51b815260206004820152600e60248201526d736c6963655f6f766572666c6f7760901b6044820152606490fd5b1561436657565b60405162461bcd60e51b8152602060048201526011602482015270736c6963655f6f75744f66426f756e647360781b6044820152606490fd5b6143b3826143ac81612c9c565b1015614322565b6143c0828251101561435f565b816143d8575050604051600081526020810160405290565b60405191601f811691821560051b808486010193838501920101905b80841061440c5750508252601f01601f191660405290565b90928351815260208091019301906143f4565b61442c826143ac81612c9c565b614441815161443a84612caa565b111561435f565b81614459575050604051600081526020810160405290565b60405191601f8116916051831560051b80858701019484860193010101905b8084106144905750508252601f01601f191660405290565b9092835181526020809101930190614478565b60218151106144b657602d015160601c90565b60405162461bcd60e51b8152602060048201526015602482015274746f416464726573735f6f75744f66426f756e647360581b6044820152606490fd5b6001815110614503576001015190565b60405162461bcd60e51b8152602060048201526013602482015272746f55696e74385f6f75744f66426f756e647360681b6044820152606490fd5b60298151106140e6576029015190565b6040519392909160009160c08601916001600160401b03831187841017610d005783926040526096875282602088019560a036883760208451940192f1903d90609682116145a2575b6000908286523e9190565b6096915061459756fed81fc9b8523134ed613870ed029d6170cbb73aa6a6bc311b9a642689fb9df59addf252ad1be2c89b69c2b068fc378daa952ba7f163c4a11628f55a4df523b3efa26469706673582212208e17042eb1a67b16741bd0e587a4dd45754045539ea86a6c016faee59a2bc0d464736f6c63430008130033","linkReferences":{}},"methodIdentifiers":{"DEFAULT_PAYLOAD_SIZE_LIMIT()":"c4461834","NO_EXTRA_GAS()":"44770515","PT_SEND()":"4c42899a","PT_SEND_AND_CALL()":"e6a20ae6","SWAP_MAX_SLIPPAGE()":"a643c52e","allowance(address,address)":"dd62ed3e","approve(address,uint256)":"095ea7b3","balanceOf(address)":"70a08231","callOnOFTReceived(uint16,bytes,uint64,bytes32,address,uint256,bytes,uint256)":"eaffd49a","circulatingSupply()":"9358928b","cluster()":"dbd01de1","creditedPackets(uint16,bytes,uint64)":"9bdb9812","decimals()":"313ce567","decreaseAllowance(address,uint256)":"a457c2d7","erc20()":"785e9e86","estimateSendAndCallFee(uint16,bytes32,uint256,bytes,uint64,bool,bytes)":"a4c51df5","estimateSendFee(uint16,bytes32,uint256,bool,bytes)":"365260b4","failedMessages(uint16,bytes,uint64)":"5b8c41e6","forceResumeReceive(uint16,bytes)":"42d65a8d","getConfig(uint16,uint16,address,uint256)":"f5ecbdbc","getTrustedRemoteAddress(uint16)":"9f38369a","hostChainID()":"0054af3a","increaseAllowance(address,uint256)":"39509351","isTrustedRemote(uint16,bytes)":"3d8b38f6","lzEndpoint()":"b353aaa7","lzReceive(uint16,bytes,uint64,bytes)":"001d3567","minDstGasLookup(uint16,uint16)":"8cfd8f5c","name()":"06fdde03","nonblockingLzReceive(uint16,bytes,uint64,bytes)":"66ad5c8a","owner()":"8da5cb5b","payloadSizeLimitLookup(uint16)":"3f1f4fa4","precrime()":"950c8a74","removeCollateral(address,address,uint16,address,(bool,uint256,bool,uint16,bytes,bool),(uint256,address,address),(bool,bool,bool,bool,uint16,address,bool,address,address,uint256,uint256,uint8,bytes32,bytes32)[],(bool,bool,bool,bool,uint16,address,bool,address,address,uint256,uint256,uint8,bytes32,bytes32)[],bytes)":"57ba399b","renounceOwnership()":"715018a6","retryMessage(uint16,bytes,uint64,bytes)":"d1deba1f","sendAndCall(address,uint16,bytes32,uint256,bytes,uint64,(address,address,bytes))":"76203b48","sendFrom(address,uint16,bytes32,uint256,(address,address,bytes))":"695ef6bf","sendToYBAndBorrow(address,address,uint16,bytes,(uint256,uint256,address,address),(bool,uint256,bool,uint16,bytes,bool),(uint256,address),(bool,bool,bool,bool,uint16,address,bool,address,address,uint256,uint256,uint8,bytes32,bytes32)[],(bool,bool,bool,bool,uint16,address,bool,address,address,uint256,uint256,uint8,bytes32,bytes32)[])":"afa61ff9","setConfig(uint16,uint16,uint256,bytes)":"cbed8b9c","setMaxSlippage(uint256)":"43f68a49","setMinDstGas(uint16,uint16,uint256)":"df2a5b3b","setPayloadSizeLimit(uint16,uint256)":"0df37483","setPrecrime(address)":"baf3292d","setReceiveVersion(uint16)":"10ddb137","setSendVersion(uint16)":"07e0db17","setTrustedRemote(uint16,bytes)":"eb8d72b7","setTrustedRemoteAddress(uint16,bytes)":"a6c3d165","setUseCustomAdapterParams(bool)":"eab45d9c","sharedDecimals()":"857749b0","supportsInterface(bytes4)":"01ffc9a7","symbol()":"95d89b41","token()":"fc0c546a","totalSupply()":"18160ddd","transfer(address,uint256)":"a9059cbb","transferFrom(address,address,uint256)":"23b872dd","transferOwnership(address)":"f2fde38b","trustedRemoteLookup(uint16)":"7533d788","useCustomAdapterParams()":"ed629c5c","yieldBox()":"de406577"},"id":11}