{"abi":[{"type":"constructor","inputs":[{"name":"_owner","type":"address","internalType":"address"}],"stateMutability":"nonpayable"},{"type":"function","name":"createTOFT","inputs":[{"name":"_erc20","type":"address","internalType":"address"},{"name":"_bytecode","type":"bytes","internalType":"bytes"},{"name":"_salt","type":"bytes32","internalType":"bytes32"},{"name":"_linked","type":"bool","internalType":"bool"}],"outputs":[],"stateMutability":"nonpayable"},{"type":"function","name":"executeCalls","inputs":[{"name":"_call","type":"tuple[]","internalType":"struct TapiocaWrapper.ExecutionCall[]","components":[{"name":"toft","type":"address","internalType":"address"},{"name":"value","type":"uint256","internalType":"uint256"},{"name":"bytecode","type":"bytes","internalType":"bytes"},{"name":"revertOnFailure","type":"bool","internalType":"bool"}]}],"outputs":[{"name":"success","type":"bool","internalType":"bool"},{"name":"results","type":"bytes[]","internalType":"bytes[]"}],"stateMutability":"payable"},{"type":"function","name":"executeTOFT","inputs":[{"name":"_toft","type":"address","internalType":"address"},{"name":"_bytecode","type":"bytes","internalType":"bytes"},{"name":"_revertOnFailure","type":"bool","internalType":"bool"}],"outputs":[{"name":"success","type":"bool","internalType":"bool"},{"name":"result","type":"bytes","internalType":"bytes"}],"stateMutability":"payable"},{"type":"function","name":"harvestableTapiocaOFTsLength","inputs":[],"outputs":[{"name":"","type":"uint256","internalType":"uint256"}],"stateMutability":"view"},{"type":"function","name":"lastTOFT","inputs":[],"outputs":[{"name":"","type":"address","internalType":"contract ITapiocaOFT"}],"stateMutability":"view"},{"type":"function","name":"owner","inputs":[],"outputs":[{"name":"","type":"address","internalType":"address"}],"stateMutability":"view"},{"type":"function","name":"renounceOwnership","inputs":[],"outputs":[],"stateMutability":"nonpayable"},{"type":"function","name":"tapiocaOFTLength","inputs":[],"outputs":[{"name":"","type":"uint256","internalType":"uint256"}],"stateMutability":"view"},{"type":"function","name":"tapiocaOFTs","inputs":[{"name":"","type":"uint256","internalType":"uint256"}],"outputs":[{"name":"","type":"address","internalType":"contract ITapiocaOFT"}],"stateMutability":"view"},{"type":"function","name":"tapiocaOFTsByErc20","inputs":[{"name":"","type":"address","internalType":"address"}],"outputs":[{"name":"","type":"address","internalType":"contract ITapiocaOFT"}],"stateMutability":"view"},{"type":"function","name":"transferOwnership","inputs":[{"name":"newOwner","type":"address","internalType":"address"}],"outputs":[],"stateMutability":"nonpayable"},{"type":"event","name":"CreateOFT","inputs":[{"name":"_tapiocaOFT","type":"address","indexed":true,"internalType":"contract ITapiocaOFT"},{"name":"_erc20","type":"address","indexed":true,"internalType":"address"}],"anonymous":false},{"type":"event","name":"OwnershipTransferred","inputs":[{"name":"previousOwner","type":"address","indexed":true,"internalType":"address"},{"name":"newOwner","type":"address","indexed":true,"internalType":"address"}],"anonymous":false},{"type":"event","name":"SetFees","inputs":[{"name":"_newFee","type":"uint256","indexed":true,"internalType":"uint256"}],"anonymous":false},{"type":"error","name":"TapiocaWrapper__AlreadyDeployed","inputs":[{"name":"_erc20","type":"address","internalType":"address"}]},{"type":"error","name":"TapiocaWrapper__FailedDeploy","inputs":[]},{"type":"error","name":"TapiocaWrapper__MngmtFeeTooHigh","inputs":[]},{"type":"error","name":"TapiocaWrapper__NoTOFTDeployed","inputs":[]},{"type":"error","name":"TapiocaWrapper__NotEnough","inputs":[]},{"type":"error","name":"TapiocaWrapper__TOFTExecutionFailed","inputs":[{"name":"message","type":"bytes","internalType":"bytes"}]}],"bytecode":{"object":"0x60803461007057601f610d5938819003918201601f19168301916001600160401b038311848410176100755780849260209460405283398101031261007057516001600160a01b0381168103610070576100619061005c3361008b565b61008b565b604051610c8690816100d38239f35b600080fd5b634e487b7160e01b600052604160045260246000fd5b600080546001600160a01b039283166001600160a01b03198216811783559216907f8be0079c531659141344cd1fd0a4f28419497f9722a3daafe3b4186f6b6457e09080a356fe6080604081815260048036101561001557600080fd5b600092833560e01c9081632f3e1b91146109515750806339930d73146109325780633b6ac5a3146108f7578063715018a61461089d5780638da5cb5b14610875578063b3c7d6a314610549578063b8454db81461047f578063c5181c701461042a578063c99e12b2146103e7578063e72d8edc146101615763f2fde38b1461009c57600080fd5b3461015d57602036600319011261015d576100b561096d565b906100be610b4c565b6001600160a01b0391821692831561010b57505082546001600160a01b0319811683178455167f8be0079c531659141344cd1fd0a4f28419497f9722a3daafe3b4186f6b6457e08380a380f35b906020608492519162461bcd60e51b8352820152602660248201527f4f776e61626c653a206e6577206f776e657220697320746865207a65726f206160448201526564647265737360d01b6064820152fd5b8280fd5b50602090816003193601126103e35780359167ffffffffffffffff918284116103df57366023850112156103df5783810135938385116103db576024808201918136918860051b0101116103d757906101bb959495610b4c565b879488926101c882610ac7565b976101d58a51998a610a43565b828952601f196101e484610ac7565b01878c5b8b8382106103c757505050508a935b83851061027a575050505050341061026d57509390835193808501911515855285850152825180915260608401948060608360051b870101940192955b8287106102415785850386f35b90919293828061025d600193605f198a820301865288516109b6565b9601920196019592919092610234565b8451625752dd60e11b8152fd5b9193975091938661028c898785610adf565b013581018091116103b557938a6102a4898385610adf565b356001600160a01b038116908190036103b157886102c38b8587610adf565b0135906102d18b8587610adf565b8d81013590601e19813603018212156103ad57018035908782116103ad578b019281360384136103ad5784938f8390519384928337810185815203925af197610318610a97565b610322828c610b01565b52886060610331838587610adf565b01359081151582036103a957816103a0575b5061037057600019811461035e5760010193919290926101f7565b634e487b7160e01b8c5260118752848cfd5b8661039c8c876103818c958f610b01565b5191519485946310847b0960e01b86528501528301906109b6565b0390fd5b90501538610343565b8d80fd5b8480fd5b5080fd5b634e487b7160e01b8b5260118652838bfd5b60609082018301528991016101e8565b8780fd5b8680fd5b8580fd5b8380fd5b503461015d57602036600319011261015d57359160015483101561042757506104116020926109f6565b905491519160018060a01b039160031b1c168152f35b80fd5b50913461042757806003193601126104275760015492831561047157600019840193841161045e57602083610411866109f6565b634e487b7160e01b825260119052602490fd5b8251634df930f160e01b8152fd5b508260603660031901126104275761049561096d565b9060243567ffffffffffffffff81116103b1576104b59036908501610988565b604435939184151585036103e357908392916104cf610b4c565b81885192839283378101848152039134906001600160a01b03165af1916104f4610a97565b9180610541575b61051f575061051b908351938493151584528060208501528301906109b6565b0390f35b61039c60209285519384936310847b0960e01b855284015260248301906109b6565b5082156104fb565b50903461015d57608036600319011261015d5761056461096d565b60243567ffffffffffffffff81116103ad576105839036908501610988565b91909360443594606435938415948515036103d7576105a0610b4c565b60018060a01b039384811697888a526020966003885286898c20541661085e57869492888695938b9360001461083c579161063e610649949261063061064f98956105ec368a89610b15565b838151910120955194859384019630908892606894929184526bffffffffffffffffffffffff19809260601b16602085015260601b16603483015260488201520190565b03601f198101835282610a43565b519020923691610b15565b90610ba4565b165b16938051633c2f4f4360e11b815284818481895afa90811561083257879185918a916107f7575b5016036107ea57600154926801000000000000000093848110156107d7578060016106a692016001556109f6565b8154600391821b89811b94901b1916929092179055868852845280872080546001600160a01b031990811687179091558151622a579d60e11b81529094808285818a5afa9283156107ce575088926107a0575b5050461461072c575b5050507f7512d1d2a31be00735451a10b76db5dca1e1581b1cb23d7910b4741e8eb148768380a380f35b6002549182101561078d57600182018060025582101561077a575082907f405787fa12a823e0f2b7631cc41b3ba8828b3321ca811111fa75cd3aa3bb5ace0191825416179055388080610702565b634e487b7160e01b865260329052602485fd5b634e487b7160e01b865260419052602485fd5b90809250813d83116107c7575b6107b78183610a43565b810103126103db575138806106f9565b503d6107ad565b513d8a823e3d90fd5b634e487b7160e01b895260418452602489fd5b5163f083e5f760e01b8152fd5b925050508481813d831161082b575b6108108183610a43565b810103126103d7575183811681036103d75783879138610678565b503d610806565b82513d8a823e3d90fd5b9161063e610649949261063061085898956105ec368a89610b15565b16610651565b8851638a8d142560e01b81528087018b9052602490fd5b5050346103b157816003193601126103b157905490516001600160a01b039091168152602090f35b83346104275780600319360112610427576108b6610b4c565b80546001600160a01b03198116825581906001600160a01b03167f8be0079c531659141344cd1fd0a4f28419497f9722a3daafe3b4186f6b6457e08280a380f35b5050346103b15760203660031901126103b1576020916001600160a01b039082908261092161096d565b168152600385522054169051908152f35b5050346103b157816003193601126103b1576020906002549051908152f35b8490346103b157816003193601126103b1576020906001548152f35b600435906001600160a01b038216820361098357565b600080fd5b9181601f840112156109835782359167ffffffffffffffff8311610983576020838186019501011161098357565b919082519283825260005b8481106109e2575050826000602080949584010152601f8019910116010190565b6020818301810151848301820152016109c1565b600154811015610a2d5760016000527fb10e2d527612073b26eecdfd717e6a320cf44b4afac2b0732d9fcbe2b7fa0cf60190600090565b634e487b7160e01b600052603260045260246000fd5b90601f8019910116810190811067ffffffffffffffff821117610a6557604052565b634e487b7160e01b600052604160045260246000fd5b67ffffffffffffffff8111610a6557601f01601f191660200190565b3d15610ac2573d90610aa882610a7b565b91610ab66040519384610a43565b82523d6000602084013e565b606090565b67ffffffffffffffff8111610a655760051b60200190565b9190811015610a2d5760051b81013590607e1981360301821215610983570190565b8051821015610a2d5760209160051b010190565b929192610b2182610a7b565b91610b2f6040519384610a43565b829481845281830111610983578281602093846000960137010152565b6000546001600160a01b03163303610b6057565b606460405162461bcd60e51b815260206004820152602060248201527f4f776e61626c653a2063616c6c6572206973206e6f7420746865206f776e65726044820152fd5b90805115610c0c576020815191016000f5906001600160a01b03821615610bc757565b60405162461bcd60e51b815260206004820152601960248201527f437265617465323a204661696c6564206f6e206465706c6f79000000000000006044820152606490fd5b606460405162461bcd60e51b815260206004820152602060248201527f437265617465323a2062797465636f6465206c656e677468206973207a65726f6044820152fdfea264697066735822122081576e921875e2935344801beb7900c2059df6d5665c5a043b7eb52699382b6564736f6c63430008130033","linkReferences":{}},"methodIdentifiers":{"createTOFT(address,bytes,bytes32,bool)":"b3c7d6a3","executeCalls((address,uint256,bytes,bool)[])":"e72d8edc","executeTOFT(address,bytes,bool)":"b8454db8","harvestableTapiocaOFTsLength()":"39930d73","lastTOFT()":"c5181c70","owner()":"8da5cb5b","renounceOwnership()":"715018a6","tapiocaOFTLength()":"2f3e1b91","tapiocaOFTs(uint256)":"c99e12b2","tapiocaOFTsByErc20(address)":"3b6ac5a3","transferOwnership(address)":"f2fde38b"},"id":1}