{"abi":[{"type":"constructor","inputs":[{"name":"_lzEndpoint","type":"address","internalType":"address"},{"name":"_erc20","type":"address","internalType":"address"},{"name":"_yieldBox","type":"address","internalType":"contract IYieldBoxBase"},{"name":"_cluster","type":"address","internalType":"contract ICluster"},{"name":"_name","type":"string","internalType":"string"},{"name":"_symbol","type":"string","internalType":"string"},{"name":"_decimal","type":"uint8","internalType":"uint8"},{"name":"_hostChainID","type":"uint256","internalType":"uint256"},{"name":"__leverageModule","type":"address","internalType":"contract BaseTOFTLeverageModule"},{"name":"__leverageDestinationModule","type":"address","internalType":"contract BaseTOFTLeverageDestinationModule"},{"name":"__strategyModule","type":"address","internalType":"contract BaseTOFTStrategyModule"},{"name":"__strategyDestinationModule","type":"address","internalType":"contract BaseTOFTStrategyDestinationModule"},{"name":"__marketModule","type":"address","internalType":"contract BaseTOFTMarketModule"},{"name":"__marketDestinationModule","type":"address","internalType":"contract BaseTOFTMarketDestinationModule"},{"name":"__optionsModule","type":"address","internalType":"contract BaseTOFTOptionsModule"},{"name":"__optionsDestinationModule","type":"address","internalType":"contract BaseTOFTOptionsDestinationModule"},{"name":"__genericModule","type":"address","internalType":"contract BaseTOFTGenericModule"}],"stateMutability":"nonpayable"},{"type":"receive","stateMutability":"payable"},{"type":"function","name":"DEFAULT_PAYLOAD_SIZE_LIMIT","inputs":[],"outputs":[{"name":"","type":"uint256","internalType":"uint256"}],"stateMutability":"view"},{"type":"function","name":"DOMAIN_SEPARATOR","inputs":[],"outputs":[{"name":"","type":"bytes32","internalType":"bytes32"}],"stateMutability":"view"},{"type":"function","name":"NO_EXTRA_GAS","inputs":[],"outputs":[{"name":"","type":"uint256","internalType":"uint256"}],"stateMutability":"view"},{"type":"function","name":"PT_SEND","inputs":[],"outputs":[{"name":"","type":"uint8","internalType":"uint8"}],"stateMutability":"view"},{"type":"function","name":"PT_SEND_AND_CALL","inputs":[],"outputs":[{"name":"","type":"uint8","internalType":"uint8"}],"stateMutability":"view"},{"type":"function","name":"SWAP_MAX_SLIPPAGE","inputs":[],"outputs":[{"name":"","type":"uint256","internalType":"uint256"}],"stateMutability":"view"},{"type":"function","name":"allowance","inputs":[{"name":"owner","type":"address","internalType":"address"},{"name":"spender","type":"address","internalType":"address"}],"outputs":[{"name":"","type":"uint256","internalType":"uint256"}],"stateMutability":"view"},{"type":"function","name":"approve","inputs":[{"name":"spender","type":"address","internalType":"address"},{"name":"amount","type":"uint256","internalType":"uint256"}],"outputs":[{"name":"","type":"bool","internalType":"bool"}],"stateMutability":"nonpayable"},{"type":"function","name":"balanceOf","inputs":[{"name":"account","type":"address","internalType":"address"}],"outputs":[{"name":"","type":"uint256","internalType":"uint256"}],"stateMutability":"view"},{"type":"function","name":"balancers","inputs":[{"name":"","type":"address","internalType":"address"}],"outputs":[{"name":"","type":"bool","internalType":"bool"}],"stateMutability":"view"},{"type":"function","name":"callOnOFTReceived","inputs":[{"name":"_srcChainId","type":"uint16","internalType":"uint16"},{"name":"_srcAddress","type":"bytes","internalType":"bytes"},{"name":"_nonce","type":"uint64","internalType":"uint64"},{"name":"_from","type":"bytes32","internalType":"bytes32"},{"name":"_to","type":"address","internalType":"address"},{"name":"_amount","type":"uint256","internalType":"uint256"},{"name":"_payload","type":"bytes","internalType":"bytes"},{"name":"_gasForCall","type":"uint256","internalType":"uint256"}],"outputs":[],"stateMutability":"nonpayable"},{"type":"function","name":"circulatingSupply","inputs":[],"outputs":[{"name":"","type":"uint256","internalType":"uint256"}],"stateMutability":"view"},{"type":"function","name":"cluster","inputs":[],"outputs":[{"name":"","type":"address","internalType":"contract ICluster"}],"stateMutability":"view"},{"type":"function","name":"connectedChains","inputs":[{"name":"","type":"uint256","internalType":"uint256"}],"outputs":[{"name":"","type":"bool","internalType":"bool"}],"stateMutability":"view"},{"type":"function","name":"creditedPackets","inputs":[{"name":"","type":"uint16","internalType":"uint16"},{"name":"","type":"bytes","internalType":"bytes"},{"name":"","type":"uint64","internalType":"uint64"}],"outputs":[{"name":"","type":"bool","internalType":"bool"}],"stateMutability":"view"},{"type":"function","name":"decimals","inputs":[],"outputs":[{"name":"","type":"uint8","internalType":"uint8"}],"stateMutability":"view"},{"type":"function","name":"decreaseAllowance","inputs":[{"name":"spender","type":"address","internalType":"address"},{"name":"subtractedValue","type":"uint256","internalType":"uint256"}],"outputs":[{"name":"","type":"bool","internalType":"bool"}],"stateMutability":"nonpayable"},{"type":"function","name":"erc20","inputs":[],"outputs":[{"name":"","type":"address","internalType":"address"}],"stateMutability":"view"},{"type":"function","name":"estimateSendAndCallFee","inputs":[{"name":"_dstChainId","type":"uint16","internalType":"uint16"},{"name":"_toAddress","type":"bytes32","internalType":"bytes32"},{"name":"_amount","type":"uint256","internalType":"uint256"},{"name":"_payload","type":"bytes","internalType":"bytes"},{"name":"_dstGasForCall","type":"uint64","internalType":"uint64"},{"name":"_useZro","type":"bool","internalType":"bool"},{"name":"_adapterParams","type":"bytes","internalType":"bytes"}],"outputs":[{"name":"nativeFee","type":"uint256","internalType":"uint256"},{"name":"zroFee","type":"uint256","internalType":"uint256"}],"stateMutability":"view"},{"type":"function","name":"estimateSendFee","inputs":[{"name":"_dstChainId","type":"uint16","internalType":"uint16"},{"name":"_toAddress","type":"bytes32","internalType":"bytes32"},{"name":"_amount","type":"uint256","internalType":"uint256"},{"name":"_useZro","type":"bool","internalType":"bool"},{"name":"_adapterParams","type":"bytes","internalType":"bytes"}],"outputs":[{"name":"nativeFee","type":"uint256","internalType":"uint256"},{"name":"zroFee","type":"uint256","internalType":"uint256"}],"stateMutability":"view"},{"type":"function","name":"exerciseOption","inputs":[{"name":"optionsData","type":"tuple","internalType":"struct ITapiocaOptionsBrokerCrossChain.IExerciseOptionsData","components":[{"name":"from","type":"address","internalType":"address"},{"name":"target","type":"address","internalType":"address"},{"name":"paymentTokenAmount","type":"uint256","internalType":"uint256"},{"name":"oTAPTokenID","type":"uint256","internalType":"uint256"},{"name":"paymentToken","type":"address","internalType":"address"},{"name":"tapAmount","type":"uint256","internalType":"uint256"}]},{"name":"lzData","type":"tuple","internalType":"struct ITapiocaOptionsBrokerCrossChain.IExerciseLZData","components":[{"name":"lzDstChainId","type":"uint16","internalType":"uint16"},{"name":"zroPaymentAddress","type":"address","internalType":"address"},{"name":"extraGas","type":"uint256","internalType":"uint256"}]},{"name":"tapSendData","type":"tuple","internalType":"struct ITapiocaOptionsBrokerCrossChain.IExerciseLZSendTapData","components":[{"name":"withdrawOnAnotherChain","type":"bool","internalType":"bool"},{"name":"tapOftAddress","type":"address","internalType":"address"},{"name":"lzDstChainId","type":"uint16","internalType":"uint16"},{"name":"amount","type":"uint256","internalType":"uint256"},{"name":"zroPaymentAddress","type":"address","internalType":"address"},{"name":"extraGas","type":"uint256","internalType":"uint256"}]},{"name":"approvals","type":"tuple[]","internalType":"struct ICommonData.IApproval[]","components":[{"name":"permitAll","type":"bool","internalType":"bool"},{"name":"allowFailure","type":"bool","internalType":"bool"},{"name":"yieldBoxTypeApproval","type":"bool","internalType":"bool"},{"name":"revokeYieldBox","type":"bool","internalType":"bool"},{"name":"actionType","type":"uint16","internalType":"uint16"},{"name":"target","type":"address","internalType":"address"},{"name":"permitBorrow","type":"bool","internalType":"bool"},{"name":"owner","type":"address","internalType":"address"},{"name":"spender","type":"address","internalType":"address"},{"name":"value","type":"uint256","internalType":"uint256"},{"name":"deadline","type":"uint256","internalType":"uint256"},{"name":"v","type":"uint8","internalType":"uint8"},{"name":"r","type":"bytes32","internalType":"bytes32"},{"name":"s","type":"bytes32","internalType":"bytes32"}]},{"name":"revokes","type":"tuple[]","internalType":"struct ICommonData.IApproval[]","components":[{"name":"permitAll","type":"bool","internalType":"bool"},{"name":"allowFailure","type":"bool","internalType":"bool"},{"name":"yieldBoxTypeApproval","type":"bool","internalType":"bool"},{"name":"revokeYieldBox","type":"bool","internalType":"bool"},{"name":"actionType","type":"uint16","internalType":"uint16"},{"name":"target","type":"address","internalType":"address"},{"name":"permitBorrow","type":"bool","internalType":"bool"},{"name":"owner","type":"address","internalType":"address"},{"name":"spender","type":"address","internalType":"address"},{"name":"value","type":"uint256","internalType":"uint256"},{"name":"deadline","type":"uint256","internalType":"uint256"},{"name":"v","type":"uint8","internalType":"uint8"},{"name":"r","type":"bytes32","internalType":"bytes32"},{"name":"s","type":"bytes32","internalType":"bytes32"}]},{"name":"adapterParams","type":"bytes","internalType":"bytes"}],"outputs":[],"stateMutability":"payable"},{"type":"function","name":"extractUnderlying","inputs":[{"name":"_amount","type":"uint256","internalType":"uint256"}],"outputs":[],"stateMutability":"nonpayable"},{"type":"function","name":"failedMessages","inputs":[{"name":"","type":"uint16","internalType":"uint16"},{"name":"","type":"bytes","internalType":"bytes"},{"name":"","type":"uint64","internalType":"uint64"}],"outputs":[{"name":"","type":"bytes32","internalType":"bytes32"}],"stateMutability":"view"},{"type":"function","name":"forceResumeReceive","inputs":[{"name":"_srcChainId","type":"uint16","internalType":"uint16"},{"name":"_srcAddress","type":"bytes","internalType":"bytes"}],"outputs":[],"stateMutability":"nonpayable"},{"type":"function","name":"getConfig","inputs":[{"name":"_version","type":"uint16","internalType":"uint16"},{"name":"_chainId","type":"uint16","internalType":"uint16"},{"name":"","type":"address","internalType":"address"},{"name":"_configType","type":"uint256","internalType":"uint256"}],"outputs":[{"name":"","type":"bytes","internalType":"bytes"}],"stateMutability":"view"},{"type":"function","name":"getTrustedRemoteAddress","inputs":[{"name":"_remoteChainId","type":"uint16","internalType":"uint16"}],"outputs":[{"name":"","type":"bytes","internalType":"bytes"}],"stateMutability":"view"},{"type":"function","name":"hostChainID","inputs":[],"outputs":[{"name":"","type":"uint256","internalType":"uint256"}],"stateMutability":"view"},{"type":"function","name":"increaseAllowance","inputs":[{"name":"spender","type":"address","internalType":"address"},{"name":"addedValue","type":"uint256","internalType":"uint256"}],"outputs":[{"name":"","type":"bool","internalType":"bool"}],"stateMutability":"nonpayable"},{"type":"function","name":"isTrustedRemote","inputs":[{"name":"_srcChainId","type":"uint16","internalType":"uint16"},{"name":"_srcAddress","type":"bytes","internalType":"bytes"}],"outputs":[{"name":"","type":"bool","internalType":"bool"}],"stateMutability":"view"},{"type":"function","name":"lzEndpoint","inputs":[],"outputs":[{"name":"","type":"address","internalType":"contract ILayerZeroEndpoint"}],"stateMutability":"view"},{"type":"function","name":"lzReceive","inputs":[{"name":"_srcChainId","type":"uint16","internalType":"uint16"},{"name":"_srcAddress","type":"bytes","internalType":"bytes"},{"name":"_nonce","type":"uint64","internalType":"uint64"},{"name":"_payload","type":"bytes","internalType":"bytes"}],"outputs":[],"stateMutability":"nonpayable"},{"type":"function","name":"minDstGasLookup","inputs":[{"name":"","type":"uint16","internalType":"uint16"},{"name":"","type":"uint16","internalType":"uint16"}],"outputs":[{"name":"","type":"uint256","internalType":"uint256"}],"stateMutability":"view"},{"type":"function","name":"name","inputs":[],"outputs":[{"name":"","type":"string","internalType":"string"}],"stateMutability":"view"},{"type":"function","name":"nonblockingLzReceive","inputs":[{"name":"_srcChainId","type":"uint16","internalType":"uint16"},{"name":"_srcAddress","type":"bytes","internalType":"bytes"},{"name":"_nonce","type":"uint64","internalType":"uint64"},{"name":"_payload","type":"bytes","internalType":"bytes"}],"outputs":[],"stateMutability":"nonpayable"},{"type":"function","name":"nonces","inputs":[{"name":"owner","type":"address","internalType":"address"}],"outputs":[{"name":"","type":"uint256","internalType":"uint256"}],"stateMutability":"view"},{"type":"function","name":"owner","inputs":[],"outputs":[{"name":"","type":"address","internalType":"address"}],"stateMutability":"view"},{"type":"function","name":"payloadSizeLimitLookup","inputs":[{"name":"","type":"uint16","internalType":"uint16"}],"outputs":[{"name":"","type":"uint256","internalType":"uint256"}],"stateMutability":"view"},{"type":"function","name":"permit","inputs":[{"name":"owner","type":"address","internalType":"address"},{"name":"spender","type":"address","internalType":"address"},{"name":"value","type":"uint256","internalType":"uint256"},{"name":"deadline","type":"uint256","internalType":"uint256"},{"name":"v","type":"uint8","internalType":"uint8"},{"name":"r","type":"bytes32","internalType":"bytes32"},{"name":"s","type":"bytes32","internalType":"bytes32"}],"outputs":[],"stateMutability":"nonpayable"},{"type":"function","name":"precrime","inputs":[],"outputs":[{"name":"","type":"address","internalType":"address"}],"stateMutability":"view"},{"type":"function","name":"removeCollateral","inputs":[{"name":"from","type":"address","internalType":"address"},{"name":"to","type":"address","internalType":"address"},{"name":"lzDstChainId","type":"uint16","internalType":"uint16"},{"name":"zroPaymentAddress","type":"address","internalType":"address"},{"name":"withdrawParams","type":"tuple","internalType":"struct ICommonData.IWithdrawParams","components":[{"name":"withdraw","type":"bool","internalType":"bool"},{"name":"withdrawLzFeeAmount","type":"uint256","internalType":"uint256"},{"name":"withdrawOnOtherChain","type":"bool","internalType":"bool"},{"name":"withdrawLzChainId","type":"uint16","internalType":"uint16"},{"name":"withdrawAdapterParams","type":"bytes","internalType":"bytes"},{"name":"unwrap","type":"bool","internalType":"bool"}]},{"name":"removeParams","type":"tuple","internalType":"struct ITapiocaOFT.IRemoveParams","components":[{"name":"amount","type":"uint256","internalType":"uint256"},{"name":"marketHelper","type":"address","internalType":"address"},{"name":"market","type":"address","internalType":"address"}]},{"name":"approvals","type":"tuple[]","internalType":"struct ICommonData.IApproval[]","components":[{"name":"permitAll","type":"bool","internalType":"bool"},{"name":"allowFailure","type":"bool","internalType":"bool"},{"name":"yieldBoxTypeApproval","type":"bool","internalType":"bool"},{"name":"revokeYieldBox","type":"bool","internalType":"bool"},{"name":"actionType","type":"uint16","internalType":"uint16"},{"name":"target","type":"address","internalType":"address"},{"name":"permitBorrow","type":"bool","internalType":"bool"},{"name":"owner","type":"address","internalType":"address"},{"name":"spender","type":"address","internalType":"address"},{"name":"value","type":"uint256","internalType":"uint256"},{"name":"deadline","type":"uint256","internalType":"uint256"},{"name":"v","type":"uint8","internalType":"uint8"},{"name":"r","type":"bytes32","internalType":"bytes32"},{"name":"s","type":"bytes32","internalType":"bytes32"}]},{"name":"revokes","type":"tuple[]","internalType":"struct ICommonData.IApproval[]","components":[{"name":"permitAll","type":"bool","internalType":"bool"},{"name":"allowFailure","type":"bool","internalType":"bool"},{"name":"yieldBoxTypeApproval","type":"bool","internalType":"bool"},{"name":"revokeYieldBox","type":"bool","internalType":"bool"},{"name":"actionType","type":"uint16","internalType":"uint16"},{"name":"target","type":"address","internalType":"address"},{"name":"permitBorrow","type":"bool","internalType":"bool"},{"name":"owner","type":"address","internalType":"address"},{"name":"spender","type":"address","internalType":"address"},{"name":"value","type":"uint256","internalType":"uint256"},{"name":"deadline","type":"uint256","internalType":"uint256"},{"name":"v","type":"uint8","internalType":"uint8"},{"name":"r","type":"bytes32","internalType":"bytes32"},{"name":"s","type":"bytes32","internalType":"bytes32"}]},{"name":"adapterParams","type":"bytes","internalType":"bytes"}],"outputs":[],"stateMutability":"payable"},{"type":"function","name":"renounceOwnership","inputs":[],"outputs":[],"stateMutability":"nonpayable"},{"type":"function","name":"rescueEth","inputs":[{"name":"amount","type":"uint256","internalType":"uint256"},{"name":"to","type":"address","internalType":"address"}],"outputs":[],"stateMutability":"nonpayable"},{"type":"function","name":"retrieveFromStrategy","inputs":[{"name":"from","type":"address","internalType":"address"},{"name":"amount","type":"uint256","internalType":"uint256"},{"name":"assetId","type":"uint256","internalType":"uint256"},{"name":"lzDstChainId","type":"uint16","internalType":"uint16"},{"name":"zroPaymentAddress","type":"address","internalType":"address"},{"name":"airdropAdapterParam","type":"bytes","internalType":"bytes"}],"outputs":[],"stateMutability":"payable"},{"type":"function","name":"retryMessage","inputs":[{"name":"_srcChainId","type":"uint16","internalType":"uint16"},{"name":"_srcAddress","type":"bytes","internalType":"bytes"},{"name":"_nonce","type":"uint64","internalType":"uint64"},{"name":"_payload","type":"bytes","internalType":"bytes"}],"outputs":[],"stateMutability":"payable"},{"type":"function","name":"sendAndCall","inputs":[{"name":"_from","type":"address","internalType":"address"},{"name":"_dstChainId","type":"uint16","internalType":"uint16"},{"name":"_toAddress","type":"bytes32","internalType":"bytes32"},{"name":"_amount","type":"uint256","internalType":"uint256"},{"name":"_payload","type":"bytes","internalType":"bytes"},{"name":"_dstGasForCall","type":"uint64","internalType":"uint64"},{"name":"_callParams","type":"tuple","internalType":"struct ICommonOFT.LzCallParams","components":[{"name":"refundAddress","type":"address","internalType":"address payable"},{"name":"zroPaymentAddress","type":"address","internalType":"address"},{"name":"adapterParams","type":"bytes","internalType":"bytes"}]}],"outputs":[],"stateMutability":"payable"},{"type":"function","name":"sendForLeverage","inputs":[{"name":"amount","type":"uint256","internalType":"uint256"},{"name":"leverageFor","type":"address","internalType":"address"},{"name":"lzData","type":"tuple","internalType":"struct IUSDOBase.ILeverageLZData","components":[{"name":"srcExtraGasLimit","type":"uint256","internalType":"uint256"},{"name":"lzSrcChainId","type":"uint16","internalType":"uint16"},{"name":"lzDstChainId","type":"uint16","internalType":"uint16"},{"name":"zroPaymentAddress","type":"address","internalType":"address"},{"name":"dstAirdropAdapterParam","type":"bytes","internalType":"bytes"},{"name":"srcAirdropAdapterParam","type":"bytes","internalType":"bytes"},{"name":"refundAddress","type":"address","internalType":"address"}]},{"name":"swapData","type":"tuple","internalType":"struct IUSDOBase.ILeverageSwapData","components":[{"name":"tokenOut","type":"address","internalType":"address"},{"name":"amountOutMin","type":"uint256","internalType":"uint256"},{"name":"data","type":"bytes","internalType":"bytes"}]},{"name":"externalData","type":"tuple","internalType":"struct IUSDOBase.ILeverageExternalContractsData","components":[{"name":"swapper","type":"address","internalType":"address"},{"name":"magnetar","type":"address","internalType":"address"},{"name":"tOft","type":"address","internalType":"address"},{"name":"srcMarket","type":"address","internalType":"address"}]}],"outputs":[],"stateMutability":"payable"},{"type":"function","name":"sendFrom","inputs":[{"name":"_from","type":"address","internalType":"address"},{"name":"_dstChainId","type":"uint16","internalType":"uint16"},{"name":"_toAddress","type":"bytes32","internalType":"bytes32"},{"name":"_amount","type":"uint256","internalType":"uint256"},{"name":"_callParams","type":"tuple","internalType":"struct ICommonOFT.LzCallParams","components":[{"name":"refundAddress","type":"address","internalType":"address payable"},{"name":"zroPaymentAddress","type":"address","internalType":"address"},{"name":"adapterParams","type":"bytes","internalType":"bytes"}]}],"outputs":[],"stateMutability":"payable"},{"type":"function","name":"sendToStrategy","inputs":[{"name":"from","type":"address","internalType":"address"},{"name":"to","type":"address","internalType":"address"},{"name":"amount","type":"uint256","internalType":"uint256"},{"name":"assetId","type":"uint256","internalType":"uint256"},{"name":"lzDstChainId","type":"uint16","internalType":"uint16"},{"name":"options","type":"tuple","internalType":"struct ICommonData.ISendOptions","components":[{"name":"extraGasLimit","type":"uint256","internalType":"uint256"},{"name":"zroPaymentAddress","type":"address","internalType":"address"}]}],"outputs":[],"stateMutability":"payable"},{"type":"function","name":"sendToYBAndBorrow","inputs":[{"name":"from","type":"address","internalType":"address"},{"name":"to","type":"address","internalType":"address"},{"name":"lzDstChainId","type":"uint16","internalType":"uint16"},{"name":"airdropAdapterParams","type":"bytes","internalType":"bytes"},{"name":"borrowParams","type":"tuple","internalType":"struct ITapiocaOFT.IBorrowParams","components":[{"name":"amount","type":"uint256","internalType":"uint256"},{"name":"borrowAmount","type":"uint256","internalType":"uint256"},{"name":"marketHelper","type":"address","internalType":"address"},{"name":"market","type":"address","internalType":"address"}]},{"name":"withdrawParams","type":"tuple","internalType":"struct ICommonData.IWithdrawParams","components":[{"name":"withdraw","type":"bool","internalType":"bool"},{"name":"withdrawLzFeeAmount","type":"uint256","internalType":"uint256"},{"name":"withdrawOnOtherChain","type":"bool","internalType":"bool"},{"name":"withdrawLzChainId","type":"uint16","internalType":"uint16"},{"name":"withdrawAdapterParams","type":"bytes","internalType":"bytes"},{"name":"unwrap","type":"bool","internalType":"bool"}]},{"name":"options","type":"tuple","internalType":"struct ICommonData.ISendOptions","components":[{"name":"extraGasLimit","type":"uint256","internalType":"uint256"},{"name":"zroPaymentAddress","type":"address","internalType":"address"}]},{"name":"approvals","type":"tuple[]","internalType":"struct ICommonData.IApproval[]","components":[{"name":"permitAll","type":"bool","internalType":"bool"},{"name":"allowFailure","type":"bool","internalType":"bool"},{"name":"yieldBoxTypeApproval","type":"bool","internalType":"bool"},{"name":"revokeYieldBox","type":"bool","internalType":"bool"},{"name":"actionType","type":"uint16","internalType":"uint16"},{"name":"target","type":"address","internalType":"address"},{"name":"permitBorrow","type":"bool","internalType":"bool"},{"name":"owner","type":"address","internalType":"address"},{"name":"spender","type":"address","internalType":"address"},{"name":"value","type":"uint256","internalType":"uint256"},{"name":"deadline","type":"uint256","internalType":"uint256"},{"name":"v","type":"uint8","internalType":"uint8"},{"name":"r","type":"bytes32","internalType":"bytes32"},{"name":"s","type":"bytes32","internalType":"bytes32"}]},{"name":"revokes","type":"tuple[]","internalType":"struct ICommonData.IApproval[]","components":[{"name":"permitAll","type":"bool","internalType":"bool"},{"name":"allowFailure","type":"bool","internalType":"bool"},{"name":"yieldBoxTypeApproval","type":"bool","internalType":"bool"},{"name":"revokeYieldBox","type":"bool","internalType":"bool"},{"name":"actionType","type":"uint16","internalType":"uint16"},{"name":"target","type":"address","internalType":"address"},{"name":"permitBorrow","type":"bool","internalType":"bool"},{"name":"owner","type":"address","internalType":"address"},{"name":"spender","type":"address","internalType":"address"},{"name":"value","type":"uint256","internalType":"uint256"},{"name":"deadline","type":"uint256","internalType":"uint256"},{"name":"v","type":"uint8","internalType":"uint8"},{"name":"r","type":"bytes32","internalType":"bytes32"},{"name":"s","type":"bytes32","internalType":"bytes32"}]}],"outputs":[],"stateMutability":"payable"},{"type":"function","name":"setCluster","inputs":[{"name":"_cluster","type":"address","internalType":"contract ICluster"}],"outputs":[],"stateMutability":"nonpayable"},{"type":"function","name":"setConfig","inputs":[{"name":"_version","type":"uint16","internalType":"uint16"},{"name":"_chainId","type":"uint16","internalType":"uint16"},{"name":"_configType","type":"uint256","internalType":"uint256"},{"name":"_config","type":"bytes","internalType":"bytes"}],"outputs":[],"stateMutability":"nonpayable"},{"type":"function","name":"setMaxSlippage","inputs":[{"name":"_slippage","type":"uint256","internalType":"uint256"}],"outputs":[],"stateMutability":"nonpayable"},{"type":"function","name":"setMinDstGas","inputs":[{"name":"_dstChainId","type":"uint16","internalType":"uint16"},{"name":"_packetType","type":"uint16","internalType":"uint16"},{"name":"_minGas","type":"uint256","internalType":"uint256"}],"outputs":[],"stateMutability":"nonpayable"},{"type":"function","name":"setPayloadSizeLimit","inputs":[{"name":"_dstChainId","type":"uint16","internalType":"uint16"},{"name":"_size","type":"uint256","internalType":"uint256"}],"outputs":[],"stateMutability":"nonpayable"},{"type":"function","name":"setPrecrime","inputs":[{"name":"_precrime","type":"address","internalType":"address"}],"outputs":[],"stateMutability":"nonpayable"},{"type":"function","name":"setReceiveVersion","inputs":[{"name":"_version","type":"uint16","internalType":"uint16"}],"outputs":[],"stateMutability":"nonpayable"},{"type":"function","name":"setSendVersion","inputs":[{"name":"_version","type":"uint16","internalType":"uint16"}],"outputs":[],"stateMutability":"nonpayable"},{"type":"function","name":"setStargateRouter","inputs":[{"name":"_router","type":"address","internalType":"address"}],"outputs":[],"stateMutability":"nonpayable"},{"type":"function","name":"setTrustedRemote","inputs":[{"name":"_srcChainId","type":"uint16","internalType":"uint16"},{"name":"_path","type":"bytes","internalType":"bytes"}],"outputs":[],"stateMutability":"nonpayable"},{"type":"function","name":"setTrustedRemoteAddress","inputs":[{"name":"_remoteChainId","type":"uint16","internalType":"uint16"},{"name":"_remoteAddress","type":"bytes","internalType":"bytes"}],"outputs":[],"stateMutability":"nonpayable"},{"type":"function","name":"setUseCustomAdapterParams","inputs":[{"name":"_useCustomAdapterParams","type":"bool","internalType":"bool"}],"outputs":[],"stateMutability":"nonpayable"},{"type":"function","name":"sgReceive","inputs":[{"name":"","type":"uint16","internalType":"uint16"},{"name":"","type":"bytes","internalType":"bytes"},{"name":"","type":"uint256","internalType":"uint256"},{"name":"","type":"address","internalType":"address"},{"name":"amountLD","type":"uint256","internalType":"uint256"},{"name":"","type":"bytes","internalType":"bytes"}],"outputs":[],"stateMutability":"nonpayable"},{"type":"function","name":"sharedDecimals","inputs":[],"outputs":[{"name":"","type":"uint8","internalType":"uint8"}],"stateMutability":"view"},{"type":"function","name":"supportsInterface","inputs":[{"name":"interfaceId","type":"bytes4","internalType":"bytes4"}],"outputs":[{"name":"","type":"bool","internalType":"bool"}],"stateMutability":"view"},{"type":"function","name":"symbol","inputs":[],"outputs":[{"name":"","type":"string","internalType":"string"}],"stateMutability":"view"},{"type":"function","name":"token","inputs":[],"outputs":[{"name":"","type":"address","internalType":"address"}],"stateMutability":"view"},{"type":"function","name":"totalSupply","inputs":[],"outputs":[{"name":"","type":"uint256","internalType":"uint256"}],"stateMutability":"view"},{"type":"function","name":"transfer","inputs":[{"name":"to","type":"address","internalType":"address"},{"name":"amount","type":"uint256","internalType":"uint256"}],"outputs":[{"name":"","type":"bool","internalType":"bool"}],"stateMutability":"nonpayable"},{"type":"function","name":"transferFrom","inputs":[{"name":"from","type":"address","internalType":"address"},{"name":"to","type":"address","internalType":"address"},{"name":"amount","type":"uint256","internalType":"uint256"}],"outputs":[{"name":"","type":"bool","internalType":"bool"}],"stateMutability":"nonpayable"},{"type":"function","name":"transferOwnership","inputs":[{"name":"newOwner","type":"address","internalType":"address"}],"outputs":[],"stateMutability":"nonpayable"},{"type":"function","name":"triggerApproveOrRevoke","inputs":[{"name":"lzDstChainId","type":"uint16","internalType":"uint16"},{"name":"lzCallParams","type":"tuple","internalType":"struct ICommonOFT.LzCallParams","components":[{"name":"refundAddress","type":"address","internalType":"address payable"},{"name":"zroPaymentAddress","type":"address","internalType":"address"},{"name":"adapterParams","type":"bytes","internalType":"bytes"}]},{"name":"approvals","type":"tuple[]","internalType":"struct ICommonData.IApproval[]","components":[{"name":"permitAll","type":"bool","internalType":"bool"},{"name":"allowFailure","type":"bool","internalType":"bool"},{"name":"yieldBoxTypeApproval","type":"bool","internalType":"bool"},{"name":"revokeYieldBox","type":"bool","internalType":"bool"},{"name":"actionType","type":"uint16","internalType":"uint16"},{"name":"target","type":"address","internalType":"address"},{"name":"permitBorrow","type":"bool","internalType":"bool"},{"name":"owner","type":"address","internalType":"address"},{"name":"spender","type":"address","internalType":"address"},{"name":"value","type":"uint256","internalType":"uint256"},{"name":"deadline","type":"uint256","internalType":"uint256"},{"name":"v","type":"uint8","internalType":"uint8"},{"name":"r","type":"bytes32","internalType":"bytes32"},{"name":"s","type":"bytes32","internalType":"bytes32"}]}],"outputs":[],"stateMutability":"payable"},{"type":"function","name":"triggerSendFrom","inputs":[{"name":"lzDstChainId","type":"uint16","internalType":"uint16"},{"name":"airdropAdapterParams","type":"bytes","internalType":"bytes"},{"name":"zroPaymentAddress","type":"address","internalType":"address"},{"name":"amount","type":"uint256","internalType":"uint256"},{"name":"sendFromData","type":"tuple","internalType":"struct ICommonOFT.LzCallParams","components":[{"name":"refundAddress","type":"address","internalType":"address payable"},{"name":"zroPaymentAddress","type":"address","internalType":"address"},{"name":"adapterParams","type":"bytes","internalType":"bytes"}]},{"name":"approvals","type":"tuple[]","internalType":"struct ICommonData.IApproval[]","components":[{"name":"permitAll","type":"bool","internalType":"bool"},{"name":"allowFailure","type":"bool","internalType":"bool"},{"name":"yieldBoxTypeApproval","type":"bool","internalType":"bool"},{"name":"revokeYieldBox","type":"bool","internalType":"bool"},{"name":"actionType","type":"uint16","internalType":"uint16"},{"name":"target","type":"address","internalType":"address"},{"name":"permitBorrow","type":"bool","internalType":"bool"},{"name":"owner","type":"address","internalType":"address"},{"name":"spender","type":"address","internalType":"address"},{"name":"value","type":"uint256","internalType":"uint256"},{"name":"deadline","type":"uint256","internalType":"uint256"},{"name":"v","type":"uint8","internalType":"uint8"},{"name":"r","type":"bytes32","internalType":"bytes32"},{"name":"s","type":"bytes32","internalType":"bytes32"}]},{"name":"revokes","type":"tuple[]","internalType":"struct ICommonData.IApproval[]","components":[{"name":"permitAll","type":"bool","internalType":"bool"},{"name":"allowFailure","type":"bool","internalType":"bool"},{"name":"yieldBoxTypeApproval","type":"bool","internalType":"bool"},{"name":"revokeYieldBox","type":"bool","internalType":"bool"},{"name":"actionType","type":"uint16","internalType":"uint16"},{"name":"target","type":"address","internalType":"address"},{"name":"permitBorrow","type":"bool","internalType":"bool"},{"name":"owner","type":"address","internalType":"address"},{"name":"spender","type":"address","internalType":"address"},{"name":"value","type":"uint256","internalType":"uint256"},{"name":"deadline","type":"uint256","internalType":"uint256"},{"name":"v","type":"uint8","internalType":"uint8"},{"name":"r","type":"bytes32","internalType":"bytes32"},{"name":"s","type":"bytes32","internalType":"bytes32"}]}],"outputs":[],"stateMutability":"payable"},{"type":"function","name":"triggerSendFromWithParams","inputs":[{"name":"from","type":"address","internalType":"address"},{"name":"lzDstChainId","type":"uint16","internalType":"uint16"},{"name":"to","type":"bytes32","internalType":"bytes32"},{"name":"amount","type":"uint256","internalType":"uint256"},{"name":"callParams","type":"tuple","internalType":"struct ICommonOFT.LzCallParams","components":[{"name":"refundAddress","type":"address","internalType":"address payable"},{"name":"zroPaymentAddress","type":"address","internalType":"address"},{"name":"adapterParams","type":"bytes","internalType":"bytes"}]},{"name":"unwrap","type":"bool","internalType":"bool"},{"name":"approvals","type":"tuple[]","internalType":"struct ICommonData.IApproval[]","components":[{"name":"permitAll","type":"bool","internalType":"bool"},{"name":"allowFailure","type":"bool","internalType":"bool"},{"name":"yieldBoxTypeApproval","type":"bool","internalType":"bool"},{"name":"revokeYieldBox","type":"bool","internalType":"bool"},{"name":"actionType","type":"uint16","internalType":"uint16"},{"name":"target","type":"address","internalType":"address"},{"name":"permitBorrow","type":"bool","internalType":"bool"},{"name":"owner","type":"address","internalType":"address"},{"name":"spender","type":"address","internalType":"address"},{"name":"value","type":"uint256","internalType":"uint256"},{"name":"deadline","type":"uint256","internalType":"uint256"},{"name":"v","type":"uint8","internalType":"uint8"},{"name":"r","type":"bytes32","internalType":"bytes32"},{"name":"s","type":"bytes32","internalType":"bytes32"}]},{"name":"revokes","type":"tuple[]","internalType":"struct ICommonData.IApproval[]","components":[{"name":"permitAll","type":"bool","internalType":"bool"},{"name":"allowFailure","type":"bool","internalType":"bool"},{"name":"yieldBoxTypeApproval","type":"bool","internalType":"bool"},{"name":"revokeYieldBox","type":"bool","internalType":"bool"},{"name":"actionType","type":"uint16","internalType":"uint16"},{"name":"target","type":"address","internalType":"address"},{"name":"permitBorrow","type":"bool","internalType":"bool"},{"name":"owner","type":"address","internalType":"address"},{"name":"spender","type":"address","internalType":"address"},{"name":"value","type":"uint256","internalType":"uint256"},{"name":"deadline","type":"uint256","internalType":"uint256"},{"name":"v","type":"uint8","internalType":"uint8"},{"name":"r","type":"bytes32","internalType":"bytes32"},{"name":"s","type":"bytes32","internalType":"bytes32"}]}],"outputs":[],"stateMutability":"payable"},{"type":"function","name":"trustedRemoteLookup","inputs":[{"name":"","type":"uint16","internalType":"uint16"}],"outputs":[{"name":"","type":"bytes","internalType":"bytes"}],"stateMutability":"view"},{"type":"function","name":"unwrap","inputs":[{"name":"_toAddress","type":"address","internalType":"address"},{"name":"_amount","type":"uint256","internalType":"uint256"}],"outputs":[],"stateMutability":"nonpayable"},{"type":"function","name":"updateBalancerState","inputs":[{"name":"_balancer","type":"address","internalType":"address"},{"name":"_status","type":"bool","internalType":"bool"}],"outputs":[],"stateMutability":"nonpayable"},{"type":"function","name":"updateConnectedChain","inputs":[{"name":"_chain","type":"uint256","internalType":"uint256"},{"name":"_status","type":"bool","internalType":"bool"}],"outputs":[],"stateMutability":"nonpayable"},{"type":"function","name":"useCustomAdapterParams","inputs":[],"outputs":[{"name":"","type":"bool","internalType":"bool"}],"stateMutability":"view"},{"type":"function","name":"vault","inputs":[],"outputs":[{"name":"","type":"address","internalType":"contract TOFTVault"}],"stateMutability":"view"},{"type":"function","name":"wrap","inputs":[{"name":"_fromAddress","type":"address","internalType":"address"},{"name":"_toAddress","type":"address","internalType":"address"},{"name":"_amount","type":"uint256","internalType":"uint256"}],"outputs":[],"stateMutability":"payable"},{"type":"function","name":"yieldBox","inputs":[],"outputs":[{"name":"","type":"address","internalType":"contract IYieldBoxBase"}],"stateMutability":"view"},{"type":"event","name":"Approval","inputs":[{"name":"owner","type":"address","indexed":true,"internalType":"address"},{"name":"spender","type":"address","indexed":true,"internalType":"address"},{"name":"value","type":"uint256","indexed":false,"internalType":"uint256"}],"anonymous":false},{"type":"event","name":"BalancerStatusUpdated","inputs":[{"name":"_balancer","type":"address","indexed":true,"internalType":"address"},{"name":"_bool","type":"bool","indexed":true,"internalType":"bool"},{"name":"_new","type":"bool","indexed":true,"internalType":"bool"}],"anonymous":false},{"type":"event","name":"CallOFTReceivedSuccess","inputs":[{"name":"_srcChainId","type":"uint16","indexed":true,"internalType":"uint16"},{"name":"_srcAddress","type":"bytes","indexed":false,"internalType":"bytes"},{"name":"_nonce","type":"uint64","indexed":false,"internalType":"uint64"},{"name":"_hash","type":"bytes32","indexed":false,"internalType":"bytes32"}],"anonymous":false},{"type":"event","name":"ConnectedChainStatusUpdated","inputs":[{"name":"_chain","type":"uint256","indexed":true,"internalType":"uint256"},{"name":"_old","type":"bool","indexed":true,"internalType":"bool"},{"name":"_new","type":"bool","indexed":true,"internalType":"bool"}],"anonymous":false},{"type":"event","name":"MessageFailed","inputs":[{"name":"_srcChainId","type":"uint16","indexed":false,"internalType":"uint16"},{"name":"_srcAddress","type":"bytes","indexed":false,"internalType":"bytes"},{"name":"_nonce","type":"uint64","indexed":false,"internalType":"uint64"},{"name":"_payload","type":"bytes","indexed":false,"internalType":"bytes"},{"name":"_reason","type":"bytes","indexed":false,"internalType":"bytes"}],"anonymous":false},{"type":"event","name":"NonContractAddress","inputs":[{"name":"_address","type":"address","indexed":false,"internalType":"address"}],"anonymous":false},{"type":"event","name":"OwnershipTransferred","inputs":[{"name":"previousOwner","type":"address","indexed":true,"internalType":"address"},{"name":"newOwner","type":"address","indexed":true,"internalType":"address"}],"anonymous":false},{"type":"event","name":"Rebalancing","inputs":[{"name":"_balancer","type":"address","indexed":true,"internalType":"address"},{"name":"_amount","type":"uint256","indexed":true,"internalType":"uint256"},{"name":"_isNative","type":"bool","indexed":true,"internalType":"bool"}],"anonymous":false},{"type":"event","name":"ReceiveFromChain","inputs":[{"name":"_srcChainId","type":"uint16","indexed":true,"internalType":"uint16"},{"name":"_to","type":"address","indexed":true,"internalType":"address"},{"name":"_amount","type":"uint256","indexed":false,"internalType":"uint256"}],"anonymous":false},{"type":"event","name":"RetryMessageSuccess","inputs":[{"name":"_srcChainId","type":"uint16","indexed":false,"internalType":"uint16"},{"name":"_srcAddress","type":"bytes","indexed":false,"internalType":"bytes"},{"name":"_nonce","type":"uint64","indexed":false,"internalType":"uint64"},{"name":"_payloadHash","type":"bytes32","indexed":false,"internalType":"bytes32"}],"anonymous":false},{"type":"event","name":"SendToChain","inputs":[{"name":"_dstChainId","type":"uint16","indexed":true,"internalType":"uint16"},{"name":"_from","type":"address","indexed":true,"internalType":"address"},{"name":"_toAddress","type":"bytes32","indexed":true,"internalType":"bytes32"},{"name":"_amount","type":"uint256","indexed":false,"internalType":"uint256"}],"anonymous":false},{"type":"event","name":"SetMinDstGas","inputs":[{"name":"_dstChainId","type":"uint16","indexed":false,"internalType":"uint16"},{"name":"_type","type":"uint16","indexed":false,"internalType":"uint16"},{"name":"_minDstGas","type":"uint256","indexed":false,"internalType":"uint256"}],"anonymous":false},{"type":"event","name":"SetPrecrime","inputs":[{"name":"precrime","type":"address","indexed":false,"internalType":"address"}],"anonymous":false},{"type":"event","name":"SetTrustedRemote","inputs":[{"name":"_remoteChainId","type":"uint16","indexed":false,"internalType":"uint16"},{"name":"_path","type":"bytes","indexed":false,"internalType":"bytes"}],"anonymous":false},{"type":"event","name":"SetTrustedRemoteAddress","inputs":[{"name":"_remoteChainId","type":"uint16","indexed":false,"internalType":"uint16"},{"name":"_remoteAddress","type":"bytes","indexed":false,"internalType":"bytes"}],"anonymous":false},{"type":"event","name":"SetUseCustomAdapterParams","inputs":[{"name":"_useCustomAdapterParams","type":"bool","indexed":false,"internalType":"bool"}],"anonymous":false},{"type":"event","name":"Transfer","inputs":[{"name":"from","type":"address","indexed":true,"internalType":"address"},{"name":"to","type":"address","indexed":true,"internalType":"address"},{"name":"value","type":"uint256","indexed":false,"internalType":"uint256"}],"anonymous":false},{"type":"error","name":"AllowanceNotValid","inputs":[]},{"type":"error","name":"Failed","inputs":[]},{"type":"error","name":"NotAuthorized","inputs":[]},{"type":"error","name":"NotHost","inputs":[]},{"type":"error","name":"NotValid","inputs":[]}],"bytecode":{"object":"0x6102006040523462000fbd57620075ae8038038091620000228261020062000fde565b610200396102000161022061020082031262000fbd576200004561020062001002565b6200005261022062001002565b6101c052610240516001600160a01b038116810362000fbd5761026051906001600160a01b038216820362000fbd57610280516001600160401b03811162000fbd5784620000a491610200016200103c565b6102a05190946001600160401b03821162000fbd57620000c891610200016200103c565b6102c051929060ff8416840362000fbd576102e0516101e052610300516001600160a01b038116810362000fbd5761032051916001600160a01b038316830362000fbd5761034051956001600160a01b038716870362000fbd5761036051976001600160a01b038916890362000fbd5761038051956001600160a01b038716870362000fbd576103a051976001600160a01b038916890362000fbd576103c051936001600160a01b038516850362000fbd576103e051956001600160a01b038716870362000fbd57610400519d6001600160a01b038f168f900362000fbd57604051956a546170696f63614f46542d60a81b6020880152620001eb602b888451620001da818484016020890162001017565b810103600b81018a52018862000fde565b620001fd604051806101a05262000fc2565b60016101a05152603160f81b60206101a051015262000256602b60405180946a546170696f63614f46542d60a81b602083015262000245815180926020868601910162001017565b810103600b81018552018362000fde565b6200029160216040518095601d60fa1b602083015262000280815180926020868601910162001017565b810103600181018652018462000fde565b60008054336001600160a01b0319821681178355916001600160a01b03909116907f8be0079c531659141344cd1fd0a4f28419497f9722a3daafe3b4186f6b6457e09080a36001600160a01b0316608052600183901c607f1660a0528051906001600160401b03821162000ce057600b5490600182811c9216801562000fb2575b602083101462000e845781601f84931162000f40575b50602090601f831160011462000eb15760009262000ea5575b50508160011b916000199060031b1c191617600b555b8051906001600160401b03821162000ce057600c5490600182811c9216801562000e9a575b602083101462000e845781601f84931162000e12575b50602090601f831160011462000d835760009262000d77575b50508160011b916000199060031b1c191617600c555b60ff620003cd62001097565b1680607f8360011c161162000d2257607f8260011c1690039060ff821162000d0c57604d60ff83161162000d0c5760ff809216600a0a60c0526101f460125560018060a01b036101c0511660018060a01b0319600f541617600f551660ff1960115416176011556101e05160105560018060a01b031660018060a01b0319600d541617600d5560018060a01b031660018060a01b0319600e541617600e5560208151910120986101a051602081519101208a61014052806101605246610100526040519a6000805160206200758e83398151915260208d015260408c015260608b01524660808b01523060a08b015260a08a528960c081011060018060401b0360c08c01111762000ce05760c08a0160408190528a516020808d019190912060e05230610120526000805160206200758e83398151915261018052601680546001600160a01b039788166001600160a01b03199182168117909255601780549989169982168a179055601880549c89169c82168d179055601980549d89169d82168e179055601a80549a89169a82168b179055601b80549b89169b82168c179055601c805496891696821687179055601d805497891697821688179055601e805495909816948116851790975560139091527f4155c2f711f2cdd34f8262ab8fb9b7020a700fe7b6948222152f7670d1fdf34d805487169093179092557f7b49122965436243734b7a552847e7503db682b4cbd4d2fd428feb216e8bcdf8805486169093179092557f76aa7d3cd4f559a3c98822aa7e1c37143eb9f80ceff73a5023a8fc3d6d44af61805485169093179092557f0b9d2c0c271bb30544eb78c59bdaebdae2728e5f65814c07768a0abe90ed1923805484169092179091557f0d2a6872ef858a7f8ead18dc4f3f2e8d35c853d47e2816cbb9cdd49202554e0c805483169093179092557f709d0e3cf89777a1e1f9c99632e4494f29b0327befd0df15e277a12d94825795805482169093179092557f8ba6fb577925b0796671c737df59b8aaae861b630513fb12823699e3e0e3ee60805483169093179092557f01413ff7a3b1d5b6c016c061d48e2c7014700c777a29fcd068fff04265813d5d8054821690931790925560056000527ff4b2859895858d6aa26d656e4999d552f6a869b74c43bba7d2a941c4d22c355980549092169092179055620007329062000fc2565b600560c0820190815263969bfdc360e01b60e08301526103026000526022602052517fbb201f9b1c609cd37a78c352121e2aea895b6e44bce534ae7bd8d907a4844a3291600a82101562000cf65760ff64ffffffff0060e0855493015160d81c1692169064ffffffffff191617179055604051620007b08162000fc2565b60058152634db96f5560e01b6020808301919091526103036000526022905280517f26acd582accdc3152cfe882b07ca1f82b883d3fee50b5d88e49d481a6be464d791600a82101562000cf65760ff64ffffffff006020855493015160d81c1692169064ffffffffff1916171790556040516200082d8162000fc2565b600781526313030a6160e31b6020808301919091526103046000526022905280517f4b0b6542cc9958aae3f2888e272b7ab3c451e3776f4771bd81d1777057a3647791600a82101562000cf65760ff64ffffffff006020855493015160d81c1692169064ffffffffff191617179055604051620008aa8162000fc2565b60078152631789153d60e31b6020808301919091526103076000526022905280517fb0fe59244d754fc595a830f0987e57a854dc67e6ba867249a96f5773fe2bc07091600a82101562000cf65760ff64ffffffff006020855493015160d81c1692169064ffffffffff191617179055604051620009278162000fc2565b6003815263bafb655d60e01b6020808301919091526103086000526022905280517f01d2d015de0d2c2626882da5be80aae00ac6b74a5a18a13bd1f3600b0136132991600a82101562000cf65760ff64ffffffff006020855493015160d81c1692169064ffffffffff191617179055604051620009a48162000fc2565b600981526381618d0560e01b6020808301919091526103096000526022905280517f8756216796a95529f13204130c91b7c1c4d66686c2c0748ecb8dfc6ea0116c1291600a82101562000cf65760ff64ffffffff006020855493015160d81c1692169064ffffffffff19161717905560405162000a218162000fc2565b6001815263af2ee97560e01b60208083019190915261030a6000526022905280517f7510072e783b31c8b84029af31ae7733bbfed7dc494e7767f9d4e480652f8bd891600a82101562000cf65760ff64ffffffff006020855493015160d81c1692169064ffffffffff19161717905560405162000a9e8162000fc2565b6001815263ee75f25d60e01b60208083019190915261030b6000526022905280517f2c124f81185aa805b12ffb8e8f0e4e53d0fb70b4e8dfacdaaa43e9def6da994a91600a82101562000cf65760ff64ffffffff006020855493015160d81c1692169064ffffffffff19161717905560405162000b1b8162000fc2565b6001815263bda6ce2160e01b602080830191825261030c6000526022905290517f301e90e6465018495ee899d06e83a22ebcfdc912ba62d30c5e354d370452dd9d91600a82101562000cf65760ff64ffffffff008454925160d81c1692169064ffffffffff1916171790556040516105a48082019082821060018060401b0383111762000ce057602091839162006fea83396101c0516001600160a01b031681520301906000f0801562000cd457602180546001600160a01b0319166001600160a01b039290921691909117905560016023556101e05146811462000cb5575b604051615f3c9081620010ae82396080518181816106380152818161091a01528181610cfb01528181610f27015281816111600152818161282a015281816129ca015281816132e90152818161512c0152615400015260a05181612054015260c0518181816155a7015281816156cd0152818161593e01526159d8015260e0518161498c01526101005181614a4701526101205181614956015261014051816149db01526101605181614a01015261018051816149b80152f35b60005260246020526040600020600160ff198254161790553862000bfb565b6040513d6000823e3d90fd5b634e487b7160e01b600052604160045260246000fd5b634e487b7160e01b600052602160045260246000fd5b634e487b7160e01b600052601160045260246000fd5b60405162461bcd60e51b815260206004820152602760248201527f4f46543a20736861726564446563696d616c73206d757374206265203c3d20646044820152666563696d616c7360c81b6064820152608490fd5b015190503880620003ab565b600c600090815293507fdf6966c971051c3d54ec59162606531493a51404a002842f56009d7e5cf4a8c791905b601f198416851062000df6576001945083601f1981161062000ddc575b505050811b01600c55620003c1565b015160001960f88460031b161c1916905538808062000dcd565b8181015183556020948501946001909301929091019062000db0565b600c6000529091507fdf6966c971051c3d54ec59162606531493a51404a002842f56009d7e5cf4a8c7601f840160051c81016020851062000e7c575b90849392915b601f830160051c8201811062000e6c57505062000392565b6000815585945060010162000e54565b508062000e4e565b634e487b7160e01b600052602260045260246000fd5b91607f16916200037c565b01519050388062000341565b600b600090815293507f0175b7a638427703f0dbe7bb9bbf987a2551717b34e79f33b5b1008d1fa01db991905b601f198416851062000f24576001945083601f1981161062000f0a575b505050811b01600b5562000357565b015160001960f88460031b161c1916905538808062000efb565b8181015183556020948501946001909301929091019062000ede565b600b6000529091507f0175b7a638427703f0dbe7bb9bbf987a2551717b34e79f33b5b1008d1fa01db9601f840160051c81016020851062000faa575b90849392915b601f830160051c8201811062000f9a57505062000328565b6000815585945060010162000f82565b508062000f7c565b91607f169162000312565b600080fd5b604081019081106001600160401b0382111762000ce057604052565b601f909101601f19168101906001600160401b0382119082101762000ce057604052565b51906001600160a01b038216820362000fbd57565b60005b8381106200102b5750506000910152565b81810151838201526020016200101a565b81601f8201121562000fbd5780516001600160401b03811162000ce0576040519262001073601f8301601f19166020018562000fde565b8184526020828401011162000fbd5762001094916020808501910162001017565b90565b60ff601154168015620010a75790565b5060129056fe6080604052600436101561001b575b361561001957600080fd5b005b60003560e01c80621d35671461051f57806254af3a1461051a57806301ffc9a71461051557806306fdde031461051057806307e0db171461050b578063095ea7b3146105065780630df37483146105015780630ed9e406146104fc5780630fb6ba59146104f757806310ddb137146104f2578063159068b7146104ed57806318160ddd1461044357806323b872dd146104e8578063313ce567146104e35780633644e515146104de578063365260b4146104d957806339509351146104d457806339f47693146104cf5780633d8b38f6146104ca5780633f1f4fa4146104c557806342d65a8d146104c0578063437be622146104bb57806343f68a49146104b657806344770515146104b15780634c42899a146104b15780634e8eeae9146104ac5780634fd7e9f6146104a757806351b78b47146104a2578063526137a71461049d57806357ba399b146104985780635b8c41e614610493578063623556381461048e57806366ad5c8a14610489578063695ef6bf1461048457806370a082311461047f578063715018a61461047a5780637533d7881461047557806376203b4814610470578063785e9e861461046b578063796fd43a146104665780637c875ea0146104615780637ecebe001461045c5780638232a1e614610457578063857749b0146104525780638cfd8f5c1461044d5780638da5cb5b146104485780639358928b14610443578063950c8a741461043e57806395d89b4114610439578063973751ee146104345780639bdb98121461042f5780639f38369a1461042a578063a457c2d714610425578063a4c51df514610420578063a643c52e1461041b578063a6c3d16514610416578063a9059cbb14610411578063ab8236f31461040c578063afa61ff914610407578063b25ea8fb14610402578063b353aaa7146103fd578063baf3292d146103f8578063c20d362f146103f3578063c4461834146103ee578063cbed8b9c146103e9578063d1deba1f146103e4578063d505accf146103df578063dbd01de1146103da578063dd62ed3e146103d5578063de406577146103d0578063df2a5b3b146103cb578063e2c268ee146103c6578063e6a20ae6146103c1578063eab45d9c146103bc578063eaffd49a146103b7578063eb8d72b7146103b2578063ed629c5c146103ad578063f2fde38b146103a8578063f5ecbdbc146103a3578063fbfa77cf1461039e5763fc0c546a0361000e5761337c565b613353565b613287565b6131c0565b61319d565b613053565b612fce565b612f6c565b612f50565b612ec2565b612ddd565b612db4565b612d5a565b612d31565b612bd0565b612a4f565b61297e565b612961565b6128c9565b612859565b612814565b6127bf565b612708565b612603565b6125d9565b612456565b612438565b6123a5565b6122e7565b612248565b6121fd565b6121bb565b612114565b6120eb565b610dec565b6120c2565b612078565b61203a565b611f02565b611ec5565b611e30565b611cb2565b611c78565b611a3a565b6119e7565b6118a1565b611864565b611773565b6116ed565b611602565b61159b565b611476565b611445565b6113fe565b61135d565b6112d0565b611243565b611222565b6111c7565b611146565b611111565b6110b5565b611001565b610fa5565b610ea1565b610e7e565b610e58565b610e36565b610d71565b610cd6565b610c43565b610b60565b610a17565b6109e2565b6108f5565b610810565b61075e565b610740565b610621565b6004359061ffff8216820361053557565b600080fd5b6064359061ffff8216820361053557565b6084359061ffff8216820361053557565b6044359061ffff8216820361053557565b6024359061ffff8216820361053557565b359061ffff8216820361053557565b9181601f84011215610535578235916001600160401b038311610535576020838186019501011161053557565b9060806003198301126105355760043561ffff8116810361053557916001600160401b039060243582811161053557816105f69160040161058d565b93909392604435818116810361053557926064359182116105355761061d9160040161058d565b9091565b346105355761062f366105ba565b929493919291907f00000000000000000000000000000000000000000000000000000000000000006001600160a01b031633036106f0576106b56106bd92610019976106ae61069461068f8a61ffff166000526001602052604060002090565b6119cc565b80519081841491826106e6575b50816106c3575b50614ab4565b3691610b0e565b923691610b0e565b92614bd2565b90506106d0368486610b0e565b60208151910120906020815191012014386106a8565b15159150386106a1565b60405162461bcd60e51b815260206004820152601e60248201527f4c7a4170703a20696e76616c696420656e64706f696e742063616c6c657200006044820152606490fd5b600091031261053557565b34610535576000366003190112610535576020601054604051908152f35b346105355760203660031901126105355760043563ffffffff60e01b811680910361053557602090631f7ecdf760e01b81149081156107a3575b506040519015158152f35b6301ffc9a760e01b14905038610798565b60005b8381106107c75750506000910152565b81810151838201526020016107b7565b906020916107f0815180928185528580860191016107b4565b601f01601f1916010190565b90602061080d9281815201906107d7565b90565b34610535576000806003193601126108f2576040519080600b54610833816118fc565b808552916001918083169081156108c8575060011461086d575b6108698561085d81870382610ad2565b604051918291826107fc565b0390f35b9250600b83527f0175b7a638427703f0dbe7bb9bbf987a2551717b34e79f33b5b1008d1fa01db95b8284106108b057505050810160200161085d8261086961084d565b80546020858701810191909152909301928101610895565b8695506108699693506020925061085d94915060ff191682840152151560051b820101929361084d565b80fd5b3461053557600060203660031901126108f257610910610524565b610918613f2b565b7f00000000000000000000000000000000000000000000000000000000000000006001600160a01b0316908290823b1561098c57602461ffff918360405195869485936307e0db1760e01b85521660048401525af180156109875761097b575080f35b61098490610a68565b80f35b613b47565b5080fd5b6001600160a01b0381160361053557565b600435906109ae82610990565b565b602435906109ae82610990565b606435906109ae82610990565b604435906109ae82610990565b35906109ae82610990565b3461053557604036600319011261053557610a0c600435610a0281610990565b602435903361437e565b602060405160018152f35b346105355760403660031901126105355761ffff610a33610524565b610a3b613f2b565b166000526003602052602435604060002055600080f35b634e487b7160e01b600052604160045260246000fd5b6001600160401b038111610a7b57604052565b610a52565b61012081019081106001600160401b03821117610a7b57604052565b604081019081106001600160401b03821117610a7b57604052565b60c081019081106001600160401b03821117610a7b57604052565b90601f801991011681019081106001600160401b03821117610a7b57604052565b6001600160401b038111610a7b57601f01601f191660200190565b929192610b1a82610af3565b91610b286040519384610ad2565b829481845281830111610535578281602093846000960137010152565b9080601f830112156105355781602061080d93359101610b0e565b60c036600319011261053557600435610b7881610990565b610b8061053a565b9060843590610b8e82610990565b60a435926001600160401b03841161053557610c0c61ffff93610c1a93610bbc610019973690600401610b45565b9160405196879563076cf20360e11b602088015260018060a01b038094166024880152602435604488015260443560648801521660848601521660a484015260c060c484015260e48301906107d7565b03601f198101835282610ad2565b613b83565b60409060a31901126105355760a490565b6040906101231901126105355761012490565b60e036600319011261053557610019600435610c5e81610990565b610cc960243591610c6e83610990565b61ffff610c7961054b565b610c8236610c1f565b9260405195630fb6ba5960e01b602088015260018060a01b038092166024880152166044860152604435606486015260643560848601521660a484015260c483019061374c565b60e48152610c1a81610a80565b3461053557600060203660031901126108f257610cf1610524565b610cf9613f2b565b7f00000000000000000000000000000000000000000000000000000000000000006001600160a01b0316908290823b1561098c57602461ffff918360405195869485936310ddb13760e01b85521660048401525af180156109875761097b575080f35b8015150361053557565b35906109ae82610d5c565b3461053557604036600319011261053557600435610984602435610d9481610d5c565b610d9c613f2b565b6000928084526024602052604084209060ff8254161515831515917f9d4ae94752c6f738748e35a3e482cd5fc36a38f35c6c7cb0c933c5fd4f2b61418780a49060ff801983541691151516179055565b34610535576000366003190112610535576020600a54604051908152f35b606090600319011261053557600435610e2281610990565b90602435610e2f81610990565b9060443590565b3461053557610a0c610e4736610e0a565b91610e538333836144a9565b614075565b34610535576000366003190112610535576020610e73613397565b60ff60405191168152f35b34610535576000366003190112610535576020610e99614953565b604051908152f35b346105355760a036600319011261053557610eba610524565b60643590610ec782610d5c565b608435906001600160401b03821161053557610eec6106ae604093369060040161058d565b90610f23610f06610efe60443561593c565b602435615a0d565b928451958694859463040a7bb160e41b86523090600487016152d4565b03817f00000000000000000000000000000000000000000000000000000000000000006001600160a01b03165afa908115610987576000908192610f74575b50604080519182526020820192909252f35b9050610f97915060403d8111610f9e575b610f8f8183610ad2565b8101906152be565b9038610f62565b503d610f85565b3461053557604036600319011261053557600435610fc281610990565b3360009081526009602090815260408083206001600160a01b03851684529091529020546024358101809111610ffc57610a0c913361437e565b613f83565b346105355760403660031901126105355760043561101e81610990565b600090468252602460205260ff60408320541615611069573382526025602052604082205460ff16611057576109849060243590613ec5565b60405163ea8e4eb560e01b8152600490fd5b604051638ff4f0c960e01b8152600490fd5b9060406003198301126105355760043561ffff811681036105355791602435906001600160401b0382116105355761061d9160040161058d565b3461053557602061ffff6111026110cb3661107b565b93909116600052600184526110ed6110f4604060002060405192838092611936565b0382610ad2565b848151910120923691610b0e565b82815191012014604051908152f35b346105355760203660031901126105355761ffff61112d610524565b1660005260036020526020604060002054604051908152f35b34610535576111543661107b565b919061115e613f2b565b7f00000000000000000000000000000000000000000000000000000000000000006001600160a01b031691823b1561053557604051928380926342d65a8d60e01b8252816111b56000988997889460048501614b45565b03925af180156109875761097b575080f35b34610535576020366003190112610535576004356111e481610990565b6001600160a01b03168015611210576bffffffffffffffffffffffff60a01b600e541617600e55600080f35b60405163f1640ae160e01b8152600490fd5b346105355760203660031901126105355761123b613f2b565b600435601255005b3461053557600036600319011261053557602060405160008152f35b60c0906101231901126105355761012490565b908160c09103126105355790565b60609060a31901126105355760a490565b908160609103126105355790565b9181601f84011215610535578235916001600160401b038311610535576020808501946101c0850201011161053557565b366003190161024081126105355760c0136105355760603660c3190112610535576112fa3661125f565b6001600160401b03906101e4358281116105355761131c90369060040161129f565b610204929192358481116105355761133890369060040161129f565b91610224359586116105355761135561001996369060040161058d565b9590946138f0565b606036600319011261053557611371610524565b6001600160401b0360243581811161053557611391903690600401611291565b6044359182116105355761001992610c0c6113f9926113e76113ba61ffff96369060040161129f565b9190926040519788966327ebf4fb60e11b60208901521660248701526060604487015260848601906139cd565b84810360231901606486015291613548565b613c1d565b346105355760203660031901126105355760043561141b81610990565b611423613f2b565b602080546001600160a01b0319166001600160a01b0392909216919091179055005b34610535576020366003190112610535576004356000526024602052602060ff604060002054166040519015158152f35b6101603660031901126105355761148b6109a1565b6114936109b0565b61149b61055c565b916114a46109bd565b6001600160401b0393608435858111610535576114c5903690600401611272565b6114ce36611280565b9061010435878111610535576114e890369060040161129f565b929091610124358981116105355761150490369060040161129f565b969095610144359a8b11610535576115236100199b369060040161058d565b9a909961367f565b60606003198201126105355760043561ffff8116810361053557916024356001600160401b03928382116105355761156591600401610b45565b9160443590811681036105355790565b60209061158f9282604051948386809551938492016107b4565b82019081520301902090565b346105355760206115f961ffff6115d8836115b53661152b565b9490911660005260058252604060002082604051948386809551938492016107b4565b820190815203019020906001600160401b0316600052602052604060002090565b54604051908152f35b61160b36610e0a565b9190601054460361105757600092338452602560205260ff60408520541661105757600f546001600160a01b0390811661164b5750506109849150613e71565b83929192163381036116aa575b50811561121057600f54610984936116a591849190611687906001600160a01b03165b6001600160a01b031690565b60215490919061169f906001600160a01b031661167b565b916145cb565b61418f565b845260096020908152604080862033600090815292529020829054106116db576116d58233856144a9565b38611658565b60405163fb165f2360e01b8152600490fd5b34610535576116fb366105ba565b919294939030330361171f576106b561171992610019973691610b0e565b92614d9a565b60405162461bcd60e51b815260206004820152602660248201527f4e6f6e626c6f636b696e674c7a4170703a2063616c6c6572206d7573742062656044820152650204c7a4170760d41b6064820152608490fd5b60a03660031901126105355760043561178b81610990565b61179361056d565b604435916084356001600160401b03811161053557602061ffff6117dc7fd81fc9b8523134ed613870ed029d6170cbb73aa6a6bc311b9a642689fb9df59a933690600401611291565b9361184f85356117eb81610990565b6118096106ae86890135986117ff8a610990565b60408101906150aa565b611813818a615839565b6118286118216064356159d6565b5085615be5565b97611834891515615318565b6118466118408a61593c565b8c615a0d565b9234938b6153bc565b6040519485526001600160a01b0316941692a4005b346105355760203660031901126105355760043561188181610990565b60018060a01b031660005260086020526020604060002054604051908152f35b34610535576000806003193601126108f2576118bb613f2b565b80546001600160a01b03198116825581906001600160a01b03167f8be0079c531659141344cd1fd0a4f28419497f9722a3daafe3b4186f6b6457e08280a380f35b90600182811c9216801561192c575b602083101461191657565b634e487b7160e01b600052602260045260246000fd5b91607f169161190b565b9060009291805491611947836118fc565b9182825260019384811690816000146119a95750600114611969575b50505050565b90919394506000526020928360002092846000945b838610611995575050505001019038808080611963565b80548587018301529401938590820161197e565b9294505050602093945060ff191683830152151560051b01019038808080611963565b906109ae6119e09260405193848092611936565b0383610ad2565b346105355760203660031901126105355761ffff611a03610524565b1660005260016020526108696110ed611a26604060002060405192838092611936565b6040519182916020835260208301906107d7565b60e036600319011261053557600435611a5281610990565b611a5a61056d565b604435916001600160401b039060843582811161053557611a7f90369060040161058d565b91909260a43591818316918284036105355760c43590811161053557611aa9903690600401611291565b92611ae0843595611ab987610990565b611ad8611ace6020880135976117ff89610990565b9990923691610b0e565b973691610b0e565b9460ff60065416600014611be5576022865110611ba0578560209561184661184f94611b6e8c611b5b61ffff9a8b60227fd81fc9b8523134ed613870ed029d6170cbb73aa6a6bc311b9a642689fb9df59a9f0151931660005260028d52611b5560406000206001600052602052604060002090565b54613fb5565b90611b6782151561588e565b10156158da565b611b83611b7c6064356159d6565b5088615be5565b9a611b8f8c1515615318565b8d611b998d61593c565b9033615a9f565b60405162461bcd60e51b815260206004820152601c60248201527f4c7a4170703a20696e76616c69642061646170746572506172616d73000000006044820152606490fd5b948094935051611c24577fd81fc9b8523134ed613870ed029d6170cbb73aa6a6bc311b9a642689fb9df59a9460209461ffff9461184661184f94611b6e565b60405162461bcd60e51b815260206004820152602660248201527f4f4654436f72653a205f61646170746572506172616d73206d7573742062652060448201526532b6b83a3c9760d11b6064820152608490fd5b3461053557600036600319011261053557600f546040516001600160a01b039091168152602090f35b608090608319011261053557608490565b60031961010036820181136105355760243591611cce83610990565b604435926001600160401b03918285116105355760e0856004019186360301126105355760643592831161053557610c0c611e2061001996611d17611e2b963690600401611291565b611e0f611dfe60c4611df7611d2b36611ca1565b986040519c8d9b8c6020633cb7ea1d60e11b9101528c602460043591015260018060a01b031660448d015260648c015280356101248c015261ffff80611d7360248a0161057e565b166101448d0152611d866044890161057e565b166101648c0152611daf6064880135611d9e81610990565b6001600160a01b03166101848d0152565b611de3611dd88c610204611dc660848c01866133ac565b91909260e06101a482015201916133dd565b9160a48901906133ac565b8c830361012319016101c48e0152906133dd565b94016109d7565b6001600160a01b03166101e4880152565b8582036023190160848701526133fe565b9160a4840190613442565b613c70565b61010036600319011261053557600435611e4981610990565b611e5161056d565b6001600160401b039160843583811161053557611e72903690600401611291565b60a43590611e7f82610d5c565b60c43585811161053557611e9790369060040161129f565b92909160e43596871161053557611eb561001997369060040161129f565b9690956064359160443591613a0d565b3461053557602036600319011261053557600435611ee281610990565b60018060a01b031660005260146020526020604060002054604051908152f35b3461053557602036600319011261053557600435600260235414611ff5576002602355336000908152602560205260409020611f4890611f44905b5460ff1690565b1590565b61105757801561121057600f546021546001600160a01b039182161591611f6f911661167b565b91823b156105355760405163f3fef3a360e01b81523360048201526024810182905260009384908290604490829084905af1801561098757611fdc575b50337f2303fe76c64d34b12f3ae35afd1f886cab3c469b873375bc32e82accd1ad28ef8480a46109846001602355565b80611fe9611fef92610a68565b80610735565b38611fac565b60405162461bcd60e51b815260206004820152601f60248201527f5265656e7472616e637947756172643a207265656e7472616e742063616c6c006044820152606490fd5b3461053557600036600319011261053557602060405160ff7f0000000000000000000000000000000000000000000000000000000000000000168152f35b346105355760403660031901126105355760206115f9612096610524565b61ffff6120a161056d565b91166000526002835260406000209061ffff16600052602052604060002090565b34610535576000366003190112610535576000546040516001600160a01b039091168152602090f35b34610535576000366003190112610535576004546040516001600160a01b039091168152602090f35b34610535576000806003193601126108f2576040519080600c54612137816118fc565b808552916001918083169081156108c85750600114612160576108698561085d81870382610ad2565b9250600c83527fdf6966c971051c3d54ec59162606531493a51404a002842f56009d7e5cf4a8c75b8284106121a357505050810160200161085d8261086961084d565b80546020858701810191909152909301928101612188565b34610535576020366003190112610535576004356121d881610990565b60018060a01b03166000526025602052602060ff604060002054166040519015158152f35b3461053557602060ff61223c61ffff6115d8846122193661152b565b9490911660005260078252604060002082604051948386809551938492016107b4565b54166040519015158152f35b346105355760203660031901126105355761ffff612264610524565b1660005260016020526110ed612284604060002060405192838092611936565b8051156122a25761085d8161229c6108699351614bb4565b90615cbf565b60405162461bcd60e51b815260206004820152601d60248201527f4c7a4170703a206e6f20747275737465642070617468207265636f72640000006044820152606490fd5b346105355760403660031901126105355760043561230481610990565b602435903360005260096020526123318160406000209060018060a01b0316600052602052604060002090565b5491808310612352576123469203903361437e565b60405160018152602090f35b60405162461bcd60e51b815260206004820152602560248201527f45524332303a2064656372656173656420616c6c6f77616e63652062656c6f77604482015264207a65726f60d81b6064820152608490fd5b346105355760e0366003190112610535576123be610524565b6001600160401b0390606435828111610535576123df90369060040161058d565b60849291923584811681036105355760a435916123fb83610d5c565b60c4359586116105355761241661242696369060040161058d565b95909460443590602435906150dc565b60408051928352602083019190915290f35b34610535576000366003190112610535576020601254604051908152f35b34610535576124643661107b565b9061246d613f2b565b604051926020928083858701376124996034868381013060601b88820152036014810188520186610ad2565b60009361ffff8316855260019081815260408620918751916001600160401b038311610a7b576124d3836124cd86546118fc565b86614b60565b80601f84116001146125435750918080926125329695948a9b7f8c0400cfe2d1199b1a725c78960bcc2a344d869b80590d0f2bd005db15a572ce9b94612538575b50501b916000199060031b1c19161790555b60405193849384614b45565b0390a180f35b015192503880612514565b91939498601f19841661255b87600052602060002090565b938a905b8282106125c2575050917f8c0400cfe2d1199b1a725c78960bcc2a344d869b80590d0f2bd005db15a572ce999a95939185612532989694106125a9575b505050811b019055612526565b015160001960f88460031b161c1916905538808061259c565b80888697829497870151815501960194019061255f565b3461053557604036600319011261053557610a0c6004356125f981610990565b6024359033614075565b346105355760c03660031901126105355761261c610524565b506001600160401b036024358181116105355761263d903690600401610b45565b50612649606435610990565b6084359060a43590811161053557612665903690600401610b45565b506020546001600160a01b03908116806126fc575b50600f546001600160a01b031616806126db57506021546126a3906001600160a01b031661167b565b803b1561053557600090600460405180948193636db5a92360e11b83525af18015610987576126ce57005b80611fe961001992610a68565b6021546100199291906126f6906001600160a01b031661167b565b9061458d565b3303611057573861267a565b6101a03660031901126105355761271d6109a1565b6127256109b0565b61272d61055c565b6001600160401b0392906064358481116105355761274f90369060040161058d565b61275b92919236611ca1565b6101043587811161053557612774903690600401611272565b9061277e36610c30565b92610164358981116105355761279890369060040161129f565b969095610184359a8b11610535576127b76100199b369060040161129f565b9a909961376d565b34610535576040366003190112610535576024356127dc81610990565b6127e4613f2b565b60008080808094600435905af16127f9613b53565b50156128025780f35b60405163312d207360e11b8152600490fd5b34610535576000366003190112610535576040517f00000000000000000000000000000000000000000000000000000000000000006001600160a01b03168152602090f35b34610535576020366003190112610535577f5db758e995a17ec1ad84bdef7e8c3293a0bd6179bcce400dff5d4c3d87db726b602060043561289981610990565b6128a1613f2b565b600480546001600160a01b0319166001600160a01b03929092169182179055604051908152a1005b60e0366003190112610535576128dd610524565b6001600160401b0390602435828111610535576128fe90369060040161058d565b916129076109ca565b6084358581116105355761291f903690600401611291565b60a4358681116105355761293790369060040161129f565b93909260c4359788116105355761295561001998369060040161129f565b97909660643593613ab6565b346105355760003660031901126105355760206040516127108152f35b3461053557608036600319011261053557612997610524565b61299f61056d565b6064356001600160401b038111610535576129be90369060040161058d565b90926129c8613f2b565b7f00000000000000000000000000000000000000000000000000000000000000006001600160a01b031690813b156105355760008094612a3f604051978896879586946332fb62e760e21b865261ffff809216600487015216602485015260443560448501526080606485015260848401916133dd565b03925af18015610987576126ce57005b612a58366105ba565b9161ffff86949296166000526005602052612a9f81604060002060206040518092878b833787820190815203019020906001600160401b0316600052602052604060002090565b54918215612b6157612b508483612b497fc264d91f3adc5588250e1551f547752ca0cfa8f6b530d243b9f9f4cab10ea8e59a6000612b3584612b1d8e8a8f612b5c9f908f612b0390612af6612b179436908d610b0e565b602081519101201461501d565b61ffff166000526005602052604060002090565b91615004565b906001600160401b0316600052602052604060002090565b55612b4136878d610b0e565b933691610b0e565b9188614d9a565b60405195869586615073565b0390a1005b60405162461bcd60e51b815260206004820152602360248201527f4e6f6e626c6f636b696e674c7a4170703a206e6f2073746f726564206d65737360448201526261676560e81b6064820152608490fd5b6084359060ff8216820361053557565b359060ff8216820361053557565b346105355760e036600319011261053557600435612bed81610990565b602435612bf981610990565b6044359060643592612c09612bb2565b93804211612cec57612cd4612ce791612cae61001997612cbc612c478760018060a01b03166000526014602052604060002090815491600183019055565b604080517f6e71edae12b1b97f4d1f60370fef10105fa2faae0126114a169c64845d6126c9602082019081526001600160a01b03808c1693830193909352918b166060820152608081018c905260a081019290925260c082019590955292839060e0820190565b03601f198101845283610ad2565b612ccf60c4359360a43593519020614a6d565b614790565b6001600160a01b03838116911614614541565b61437e565b60405162461bcd60e51b815260206004820152601d60248201527f45524332305065726d69743a206578706972656420646561646c696e650000006044820152606490fd5b3461053557600036600319011261053557600e546040516001600160a01b039091168152602090f35b346105355760403660031901126105355760206115f9600435612d7c81610990565b60243590612d8982610990565b60018060a01b03166000526009835260406000209060018060a01b0316600052602052604060002090565b3461053557600036600319011261053557600d546040516001600160a01b039091168152602090f35b3461053557606036600319011261053557612df6610524565b612dfe61056d565b60443591612e0a613f2b565b8215612e8557612b5c7f9d5c7c0b934da8fefa9c7760c98383778a12dfbfc0c3b3106518f43fb9508ac09361ffff8316600052600260205280612e5f8560406000209061ffff16600052602052604060002090565b556040519384938460409194939294606082019561ffff80921683521660208201520152565b60405162461bcd60e51b81526020600482015260156024820152744c7a4170703a20696e76616c6964206d696e47617360581b6044820152606490fd5b3461053557604036600319011261053557600435612edf81610990565b61098460243591612eef83610d5c565b612ef7613f2b565b60018060a01b0316916000928084526025602052604084209060ff8254161515831515917f470a9d1ce8bb125dc8ef5154b389c33a59bdd4c7394e3d359194965d5e6f37b98780a49060ff801983541691151516179055565b3461053557600036600319011261053557602060405160018152f35b34610535576020366003190112610535577f1584ad594a70cbe1e6515592e1272a987d922b097ead875069cebe8b40c004a46020600435612fac81610d5c565b612fb4613f2b565b151560ff196006541660ff821617600655604051908152a1005b346105355761010036600319011261053557612fe8610524565b6001600160401b03906024358281116105355761300990369060040161058d565b91906044359084821682036105355760843561302481610990565b60c4359586116105355761303f61001996369060040161058d565b94909360e4359660a43594606435936151d2565b34610535576130613661107b565b919061306b613f2b565b60009161ffff81168352600160209080825260408520916001600160401b038711610a7b576130a48761309e85546118fc565b85614b60565b8590601f881160011461310b5750918680879893612532957ffa41487ad5d6728f0b19276fa1eddc16558578f5109fc39d2dc33c3230470dab9993613100575b501b906000198460031b1c191617905560405193849384614b45565b8801359250386130e4565b90601f19881661312085600052602060002090565b9288905b828210613186575050918893917ffa41487ad5d6728f0b19276fa1eddc16558578f5109fc39d2dc33c3230470dab989961253296941061316c575b505082811b019055612526565b870135600019600386901b60f8161c19169055388061315f565b808685968294968c01358155019501930190613124565b3461053557600036600319011261053557602060ff600654166040519015158152f35b34610535576020366003190112610535576004356131dd81610990565b6131e5613f2b565b6001600160a01b03908116801561323357600080546001600160a01b03198116831782559092167f8be0079c531659141344cd1fd0a4f28419497f9722a3daafe3b4186f6b6457e08380a380f35b60405162461bcd60e51b815260206004820152602660248201527f4f776e61626c653a206e6577206f776e657220697320746865207a65726f206160448201526564647265737360d01b6064820152608490fd5b34610535576080366003190112610535576132a0610524565b6132a861056d565b906132b4604435610990565b604051633d7b2f6f60e21b815261ffff91821660048201529116602482015230604482015260648035908201526000816084817f00000000000000000000000000000000000000000000000000000000000000006001600160a01b03165afa80156109875761086991600091613332575b50604051918291826107fc565b61334d913d8091833e6133458183610ad2565b810190614b0f565b38613325565b34610535576000366003190112610535576021546040516001600160a01b039091168152602090f35b34610535576000366003190112610535576020604051308152f35b60ff6011541680156133a65790565b50601290565b9035601e19823603018112156105355701602081359101916001600160401b03821161053557813603831361053557565b908060209392818452848401376000828201840152601f01601f1916010190565b90606061343261080d93803561341381610990565b6001600160a01b031684526020818101359085015260408101906133ac565b91909281604082015201916133dd565b6060908181359161345283610990565b6001600160a01b03928316855282602082013561346e81610990565b16602086015282604082013561348381610990565b166040860152013561349481610990565b16910152565b9081356134a681610d5c565b151581526020820135602082015260408201356134c281610d5c565b1515604082015261ffff6134d86060840161057e565b16606082015260a0806135026134f160808601866133ac565b60c0608087015260c08601916133dd565b93013561350e81610d5c565b151591015290565b604090803583528160208201359161352d83610990565b6001600160a01b039283166020860152013561349481610990565b9190808252602080920192916000905b828210613566575050505090565b909192938061358060019261357a88610d66565b15159052565b61359661358e848801610d66565b151582850152565b6135ae60406135a6818901610d66565b151590830152565b6135be60606135a6818901610d66565b6135d860806135ce81890161057e565b61ffff1690830152565b6135f760a06135e88189016109d7565b6001600160a01b031690830152565b61360760c06135a6818901610d66565b61361760e06135e88189016109d7565b6136286101006135e88189016109d7565b6101208087013590820152610140808701359082015261365861016061364f818901612bc2565b60ff1690830152565b61018086810135908201526101a080870135908201526101c0908101950193920190613558565b6040516357ba399b60e01b60208201526001600160a01b039182166024820152918116604483015261ffff90921660648201529116608482015261016060a482015297889796949590949093909290916136de906101848a019061349a565b9060c489016136ec91613516565b6023199586898303016101248a015261370492613548565b90848783030161014488015261371992613548565b918483030161016485015261372d926133dd565b03601f198101825261373f9082610ad2565b61374890613cc3565b5050565b6020809180358452013561375f81610990565b6001600160a01b0316910152565b60405163afa61ff960e01b60208201526001600160a01b039182166024820152918116604483015261ffff90921660648201526101a06084820152998a999894979096909590949390926137c6916101c48c01916133dd565b96803560a48b0152602081013560c48b01528160408201356137e781610990565b1660e48b0152606001356137fa81610990565b166101048901526023199586898203016101248a01526138199161349a565b9161014488016138289161374c565b848783030161018488015261383c92613548565b91848303016101a485015261372d92613548565b60c43561ffff811680910361053557815260e43561386d81610990565b6001600160a01b0316602082015261010435604090910152565b60a08091803561389681610d5c565b1515845260208101356138a881610990565b600180841b03809116602086015261ffff6138c56040840161057e565b1660408601526060820135606086015260808201356138e381610990565b1660808501520135910152565b92909561398f956139b86139c8966139a36137489a610c0c976040519b8c9a634e8eeae960e01b60208d015260043561392881610990565b8c602460018060a01b038093169101528c60448260243561394881610990565b169101528c60646044359101528c608460643591015260843561396a81610990565b1660a48d015260a43560c48d015261398460e48d01613850565b6101448c0190613887565b6102406102048b01526102648a0191613548565b906023199586898403016102248a0152613548565b92858403016102448601526133dd565b613d16565b90606061343261080d9380356139e281610990565b6001600160a01b03908116855260208201356139fd81610990565b16602085015260408101906133ac565b6040516303e43af560e51b60208201526001600160a01b03909116602482015261ffff90911660448201526064810191909152608481019190915261010060a4820152958695949390929091613a68906101248801906139cd565b90151560c487015260231993848783030160e4880152613a8792613548565b9184830301610104850152613a9b92613548565b03601f1981018252613aad9082610ad2565b61374890613d16565b97969295939098949198604051998a9963c20d362f60e01b60208c015261ffff1660248b015260448a0160e090526101048a0190613af3926133dd565b6001600160a01b039096166064890152608488015286850360231990810160a489015294613b20916139cd565b90848783030160c4880152613b3492613548565b918483030160e4850152613a9b92613548565b6040513d6000823e3d90fd5b3d15613b7e573d90613b6482610af3565b91613b726040519384610ad2565b82523d6000602084013e565b606090565b600460005260136020527f01413ff7a3b1d5b6c016c061d48e2c7014700c777a29fcd068fff04265813d5d546001600160a01b0316801561121057816000929160208493519201905af490613bd6613b53565b90821580613c15575b613be557565b613c11613bf183613dc3565b60405162461bcd60e51b81526020600482015291829160248301906107d7565b0390fd5b506001613bdf565b600160005260136020527f4155c2f711f2cdd34f8262ab8fb9b7020a700fe7b6948222152f7670d1fdf34d546001600160a01b0316801561121057816000929160208493519201905af490613bd6613b53565b600260005260136020527f0b9d2c0c271bb30544eb78c59bdaebdae2728e5f65814c07768a0abe90ed1923546001600160a01b0316801561121057816000929160208493519201905af490613bd6613b53565b600660005260136020527f709d0e3cf89777a1e1f9c99632e4494f29b0327befd0df15e277a12d94825795546001600160a01b0316801561121057816000929160208493519201905af490613bd6613b53565b600860005260136020527f7b49122965436243734b7a552847e7503db682b4cbd4d2fd428feb216e8bcdf8546001600160a01b0316801561121057816000929160208493519201905af490613bd6613b53565b634e487b7160e01b600052602160045260246000fd5b600a1115613d8957565b613d69565b90929192613d9b81610af3565b91613da96040519384610ad2565b8294828452828201116105355760206109ae9301906107b4565b6103e8815111613e44576044815110613e1e57600481015181019060208160248401930312610535576024810151906001600160401b0382116105355701908060438301121561053557602482015161080d92604401613d8e565b50604051613e2b81610a9c565b6009815268544f46545f6461746160b81b602082015290565b50604051613e5181610a9c565b601081526f2a27a32a2fa627a723afa922a0a9a7a760811b602082015290565b6021546001600160a01b031690813b156105355760008092600460405180958193636db5a92360e11b83525af1918215610987576109ae92613eb6575b50349061418f565b613ebf90610a68565b38613eae565b613ecf8233614249565b6021546001600160a01b031691823b156105355760405163f3fef3a360e01b81526001600160a01b039290921660048301526024820152906000908290604490829084905af1801561098757613f225750565b6109ae90610a68565b6000546001600160a01b03163303613f3f57565b606460405162461bcd60e51b815260206004820152602060248201527f4f776e61626c653a2063616c6c6572206973206e6f7420746865206f776e65726044820152fd5b634e487b7160e01b600052601160045260246000fd5b90601f8201809211610ffc57565b6051019081605111610ffc57565b91908201809211610ffc57565b15613fc957565b60405162461bcd60e51b815260206004820152602360248201527f45524332303a207472616e7366657220746f20746865207a65726f206164647260448201526265737360e81b6064820152608490fd5b1561402157565b60405162461bcd60e51b815260206004820152602660248201527f45524332303a207472616e7366657220616d6f756e7420657863656564732062604482015265616c616e636560d01b6064820152608490fd5b916001600160a01b03808416929091831561413c57614121827fddf252ad1be2c89b69c2b068fc378daa952ba7f163c4a11628f55a4df523b3ef946141379416966140c1881515613fc2565b6001600160a01b0381166000908152600860205260409020614106908590546140ec8282101561401a565b039160018060a01b03166000526008602052604060002090565b556001600160a01b0316600090815260086020526040902090565b8054820190556040519081529081906020820190565b0390a3565b60405162461bcd60e51b815260206004820152602560248201527f45524332303a207472616e736665722066726f6d20746865207a65726f206164604482015264647265737360d81b6064820152608490fd5b6001600160a01b0381169190821561420457600a5490828201809211610ffc576000926141f56020927fddf252ad1be2c89b69c2b068fc378daa952ba7f163c4a11628f55a4df523b3ef94600a5560018060a01b03166000526008602052604060002090565b818154019055604051908152a3565b60405162461bcd60e51b815260206004820152601f60248201527f45524332303a206d696e7420746f20746865207a65726f2061646472657373006044820152606490fd5b6001600160a01b03811690811561432f576001600160a01b0381166000908152600860205260409020548381106142df57837fddf252ad1be2c89b69c2b068fc378daa952ba7f163c4a11628f55a4df523b3ef926142c160009661413794039160018060a01b03166000526008602052604060002090565b556142cf81600a5403600a55565b6040519081529081906020820190565b60405162461bcd60e51b815260206004820152602260248201527f45524332303a206275726e20616d6f756e7420657863656564732062616c616e604482015261636560f01b6064820152608490fd5b60405162461bcd60e51b815260206004820152602160248201527f45524332303a206275726e2066726f6d20746865207a65726f206164647265736044820152607360f81b6064820152608490fd5b6001600160a01b03808216929190831561445857821693841561440857806143f77f8c5be1e5ebec7d5bd14f71427d1e84f3dd0314c0f7b2291e5b200ac8c7c3b925946143e06141379560018060a01b03166000526009602052604060002090565b9060018060a01b0316600052602052604060002090565b556040519081529081906020820190565b60405162461bcd60e51b815260206004820152602260248201527f45524332303a20617070726f766520746f20746865207a65726f206164647265604482015261737360f01b6064820152608490fd5b60405162461bcd60e51b8152602060048201526024808201527f45524332303a20617070726f76652066726f6d20746865207a65726f206164646044820152637265737360e01b6064820152608490fd5b6001600160a01b0380821660009081526009602090815260408083209386168352929052209091905492600184016144e15750505050565b8084106144fc576144f393039161437e565b38808080611963565b60405162461bcd60e51b815260206004820152601d60248201527f45524332303a20696e73756666696369656e7420616c6c6f77616e63650000006044820152606490fd5b1561454857565b60405162461bcd60e51b815260206004820152601e60248201527f45524332305065726d69743a20696e76616c6964207369676e617475726500006044820152606490fd5b60405163a9059cbb60e01b60208201526001600160a01b03909216602483015260448201929092526109ae916145c68260648101612cae565b61461f565b6040516323b872dd60e01b60208201526001600160a01b03928316602482015292909116604483015260648083019390935291815260a08101918183106001600160401b03841117610a7b576109ae926040525b60405161467d916001600160a01b031661463882610a9c565b6000806020958685527f5361666545524332303a206c6f772d6c6576656c2063616c6c206661696c656487860152868151910182855af1614677613b53565b916146ff565b80518061468957505050565b81839181010312610535578101516146a081610d5c565b156146a85750565b6084906040519062461bcd60e51b82526004820152602a60248201527f5361666545524332303a204552433230206f7065726174696f6e20646964206e6044820152691bdd081cdd58d8d9595960b21b6064820152fd5b919290156147615750815115614713575090565b3b1561471c5790565b60405162461bcd60e51b815260206004820152601d60248201527f416464726573733a2063616c6c20746f206e6f6e2d636f6e74726163740000006044820152606490fd5b8251909150156147745750805190602001fd5b60405162461bcd60e51b8152908190613c1190600483016107fc565b9161080d939161479f936148d1565b9190916147b1565b60051115613d8957565b6147ba816147a7565b806147c25750565b6147cb816147a7565b600181036148185760405162461bcd60e51b815260206004820152601860248201527f45434453413a20696e76616c6964207369676e617475726500000000000000006044820152606490fd5b614821816147a7565b6002810361486e5760405162461bcd60e51b815260206004820152601f60248201527f45434453413a20696e76616c6964207369676e6174757265206c656e677468006044820152606490fd5b8061487a6003926147a7565b1461488157565b60405162461bcd60e51b815260206004820152602260248201527f45434453413a20696e76616c6964207369676e6174757265202773272076616c604482015261756560f01b6064820152608490fd5b9291907f7fffffffffffffffffffffffffffffff5d576e7357a4501ddfe92f46681b20a083116149475791608094939160ff602094604051948552168484015260408301526060820152600093849182805260015afa156109875781516001600160a01b03811615614941579190565b50600190565b50505050600090600390565b307f00000000000000000000000000000000000000000000000000000000000000006001600160a01b03161480614a44575b156149ae577f000000000000000000000000000000000000000000000000000000000000000090565b60405160208101907f000000000000000000000000000000000000000000000000000000000000000082527f000000000000000000000000000000000000000000000000000000000000000060408201527f000000000000000000000000000000000000000000000000000000000000000060608201524660808201523060a082015260a08152614a3e81610ab7565b51902090565b507f00000000000000000000000000000000000000000000000000000000000000004614614985565b614a75614953565b9060405190602082019261190160f01b84526022830152604282015260428152608081018181106001600160401b03821117610a7b5760405251902090565b15614abb57565b60405162461bcd60e51b815260206004820152602660248201527f4c7a4170703a20696e76616c696420736f757263652073656e64696e6720636f6044820152651b9d1c9858dd60d21b6064820152608490fd5b602081830312610535578051906001600160401b03821161053557019080601f8301121561053557815161080d92602001613d8e565b60409061ffff61080d959316815281602082015201916133dd565b90601f8111614b6e57505050565b600091825260208220906020601f850160051c83019410614baa575b601f0160051c01915b828110614b9f57505050565b818155600101614b93565b9092508290614b8a565b601319810191908211610ffc57565b605019810191908211610ffc57565b929091614c365a604051633356ae4560e11b602082015261ffff871660248201526080604482015290614c3082612cae614c0f60a483018a6107d7565b6001600160401b0388166064840152828103602319016084840152886107d7565b30615ebb565b939015614c45575b5050505050565b614c4e94614c58565b3880808080614c3e565b9193614cf57fe183f33de2837795525b4792ca4cd60535bd77c53b7e7030060bfcf5734d6b0c95614d03939561ffff81516020830120961695866000526005602052614cbc836115d860208b604060002082604051948386809551938492016107b4565b556001600160401b03614ce1604051988998895260a060208a015260a08901906107d7565b9216604087015285820360608701526107d7565b9083820360808501526107d7565b0390a1565b90604051604081018181106001600160401b03821117610a7b5760405280925460ff811690600a821015613d895790825260d81b6001600160e01b03191660209190910152565b9161080d959361ffff614d86926001600160401b039460018060a01b0316865216602085015260a0604085015260a08401906107d7565b9316606082015260808184039101526107d7565b929190614da683615e6e565b614dbd611f3d826000526022602052604060002090565b614dc681613d7f565b15614f2d5793614deb614de66109ae966000526022602052604060002090565b614d08565b600060058251614dfa81613d7f565b614e0381613d7f565b03614e635750601954614e1e906001600160a01b031661167b565b905b614e5e614e436020835193614e3485613d7f565b01516001600160e01b03191690565b612cae88888888604051988996602088015260248701614d4f565b614f94565b60078251614e7081613d7f565b614e7981613d7f565b03614e9a5750601b54614e94906001600160a01b031661167b565b90614e20565b60038251614ea781613d7f565b614eb081613d7f565b03614ecb5750601754614e94906001600160a01b031661167b565b60098251614ed881613d7f565b614ee181613d7f565b03614efc5750601d54614e94906001600160a01b031661167b565b60018251614f0981613d7f565b614f1281613d7f565b03614e945750601e54614e94906001600160a01b031661167b565b50614f40614f3a84615e13565b60ff1690565b80614f51575050506109ae91615531565b600103614f61576109ae93615688565b60405162461bcd60e51b815260206004820152600b60248201526a1513d19517dc1858dad95d60aa1b6044820152606490fd5b9492939194600a811015613d89576000908152601360205260409020546001600160a01b0316801561121057816000929160208493519201905af492614fd8613b53565b93158080614ffc575b614ff057614c45575050505050565b613c11613bf186613dc3565b506000614fe1565b6020919283604051948593843782019081520301902090565b1561502457565b60405162461bcd60e51b815260206004820152602160248201527f4e6f6e626c6f636b696e674c7a4170703a20696e76616c6964207061796c6f616044820152601960fa1b6064820152608490fd5b9161509f9060609461ffff6001600160401b0394999897991685526080602086015260808501916133dd565b951660408201520152565b903590601e198136030182121561053557018035906001600160401b0382116105355760200191813603831361053557565b949195989790611b996151056040996150fd61510b97615128993691610b0e565b943691610b0e565b9761593c565b928451968794859463040a7bb160e41b86523090600487016152d4565b03817f00000000000000000000000000000000000000000000000000000000000000006001600160a01b03165afa91821561098757600090819361516b57509190565b905061061d91925060403d8111610f9e57610f8f8183610ad2565b939694916151b49061080d99979461ffff6001600160401b039416875260c0602088015260c08701916133dd565b961660408401526060830152608082015260a08185039101526133dd565b91969792989594939094303303615279576151ee908530615c0b565b60405181815290946001600160a01b03169390849061ffff8516907fbf551ec93859b170f9b2141bd9298bf3f64322c6f7beb2543a0cb669834118bf90602090a3833b1561053557600098899561525c936040519c8d9b8c9a8b98633fe79aed60e11b8a5260048a01615186565b0393f180156109875761526c5750565b80611fe96109ae92610a68565b60405162461bcd60e51b815260206004820152601f60248201527f4f4654436f72653a2063616c6c6572206d757374206265204f4654436f7265006044820152606490fd5b9190826040910312610535576020825192015190565b919261080d959361ffff6153039316845260018060a01b0316602084015260a0604084015260a08301906107d7565b921515606082015260808184039101526107d7565b1561531f57565b60405162461bcd60e51b815260206004820152601960248201527f4f4654436f72653a20616d6f756e7420746f6f20736d616c6c000000000000006044820152606490fd5b9261538961080d97959361ffff6153979416865260c0602087015260c08601906107d7565b9084820360408601526107d7565b6001600160a01b0391821660608401529316608082015280830360a0909101526107d7565b946153e59193929561ffff811660005260016020526153ec604060002060405194858092611936565b0384610ad2565b825115615464576153fe8551826154c2565b7f00000000000000000000000000000000000000000000000000000000000000006001600160a01b031693843b156105355760009661545391604051998a988997889662c5803160e81b885260048801615364565b03925af180156109875761526c5750565b60405162461bcd60e51b815260206004820152603060248201527f4c7a4170703a2064657374696e6174696f6e20636861696e206973206e6f742060448201526f61207472757374656420736f7572636560801b6064820152608490fd5b61ffff166000526003602052604060002054908115615527575b116154e357565b606460405162461bcd60e51b815260206004820152602060248201527f4c7a4170703a207061796c6f61642073697a6520697320746f6f206c617267656044820152fd5b61271091506154dc565b9060ff61553d82615e13565b1615806155ef575b61554e90615a53565b61556061555a82615dc3565b91615e5e565b6001600160a01b0390818316156155e5575b61ffff7fbf551ec93859b170f9b2141bd9298bf3f64322c6f7beb2543a0cb669834118bf926155cd6020936001600160401b037f000000000000000000000000000000000000000000000000000000000000000091166159c3565b946155d8868261418f565b60405195865216941692a3565b61dead9250615572565b508051602914615545565b98979692936001600160401b0361562c60e0989461ffff6156589995168d5260208d61010091829101528d01906107d7565b951660408b015260608a01526001600160a01b0316608089015260a088015286820360c08801526107d7565b930152565b6001600160401b0361567d604093969594966060845260608401906107d7565b951660208201520152565b909161569384615b0c565b90916156bd611f3d87612b1d6156b78b61ffff166000526007602052604060002090565b8c611575565b916156f36001600160401b0392837f000000000000000000000000000000000000000000000000000000000000000091166159c3565b9288888b83156157ef575b505050853b156157a457946157459694614c30948a94612cae948d9960001461579d5750505a925b5a978b6040519a8b9863757fea4d60e11b60208b015260248a016155fa565b901561579257509061578d61ffff928560207fb8890edbfc1c74692f527444645f95489c3703cc2df42e4a366f5d06fa6cd8849697519101209060405194859416968461565d565b0390a2565b926109ae9492614c58565b1692615726565b50506040516001600160a01b039094168452507f9aedf5fdba8716db3b6705ca00150643309995d4f818a249ed6dde6677e7792d975091955085945050602084019250614d03915050565b90612b1d6158249261581e89615809615831979b3061418f565b9961ffff166000526007602052604060002090565b90611575565b805460ff19166001179055565b88888b6156fe565b60065460ff1615615886576022825110611ba05761ffff60226109ae93015191166000526002602052615879604060002060008052602052604060002090565b5490611b6782151561588e565b5051611c2457565b1561589557565b60405162461bcd60e51b815260206004820152601a60248201527f4c7a4170703a206d696e4761734c696d6974206e6f74207365740000000000006044820152606490fd5b156158e157565b60405162461bcd60e51b815260206004820152601b60248201527f4c7a4170703a20676173206c696d697420697320746f6f206c6f7700000000006044820152606490fd5b634e487b7160e01b600052601260045260246000fd5b7f00000000000000000000000000000000000000000000000000000000000000009081156159be57046001600160401b0390818111615979571690565b60405162461bcd60e51b815260206004820152601a60248201527f4f4654436f72653a20616d6f756e745344206f766572666c6f770000000000006044820152606490fd5b615926565b81810292918115918404141715610ffc57565b7f000000000000000000000000000000000000000000000000000000000000000080156159be57810690818103908111610ffc5791565b90604051916000602084015260218301526001600160401b0360c01b9060c01b16604182015260298152606081018181106001600160401b03821117610a7b5760405290565b15615a5a57565b60405162461bcd60e51b815260206004820152601860248201527f4f4654436f72653a20696e76616c6964207061796c6f616400000000000000006044820152606490fd5b939260719261080d94604051968794600160f81b602087015260218601526001600160401b0360c01b809360c01b16604186015260018060a01b0316604985015260c01b166069830152615afc81518092602086860191016107b4565b8101036051810184520182610ad2565b90615b24600160ff615b1d85615e13565b1614615a53565b615b2d82615dc3565b90615b3783615e5e565b906049845110615ba8576049840151936051815110615b6c57615b69605182015191615b638151614bc3565b90615d3f565b91565b60405162461bcd60e51b8152602060048201526014602482015273746f55696e7436345f6f75744f66426f756e647360601b6044820152606490fd5b60405162461bcd60e51b8152602060048201526015602482015274746f427974657333325f6f75744f66426f756e647360581b6044820152606490fd5b61080d9082906001600160a01b038116331461424957615c068233836144a9565b614249565b61080d9183916001600160a01b038116308114159081615c37575b501561407557610e538333836144a9565b905033141538615c26565b15615c4957565b60405162461bcd60e51b815260206004820152600e60248201526d736c6963655f6f766572666c6f7760901b6044820152606490fd5b15615c8657565b60405162461bcd60e51b8152602060048201526011602482015270736c6963655f6f75744f66426f756e647360781b6044820152606490fd5b615cd382615ccc81613f99565b1015615c42565b615ce08282511015615c7f565b81615cf8575050604051600081526020810160405290565b60405191601f811691821560051b808486010193838501920101905b808410615d2c5750508252601f01601f191660405290565b9092835181526020809101930190615d14565b615d4c82615ccc81613f99565b615d618151615d5a84613fa7565b1115615c7f565b81615d79575050604051600081526020810160405290565b60405191601f8116916051831560051b80858701019484860193010101905b808410615db05750508252601f01601f191660405290565b9092835181526020809101930190615d98565b6021815110615dd657602d015160601c90565b60405162461bcd60e51b8152602060048201526015602482015274746f416464726573735f6f75744f66426f756e647360581b6044820152606490fd5b6001815110615e23576001015190565b60405162461bcd60e51b8152602060048201526013602482015272746f55696e74385f6f75744f66426f756e647360681b6044820152606490fd5b6029815110615b6c576029015190565b6020815110615e7e576020015190565b60405162461bcd60e51b8152602060048201526015602482015274746f55696e743235365f6f75744f66426f756e647360581b6044820152606490fd5b9092916000809160405195615ecf87610ab7565b6096875282602088019560a036883760208451940192f1903d9060968211615efd575b6000908286523e9190565b60969150615ef256fea264697066735822122040e880144359b174ca50c0e48b7fad02f4e34321fa4c218b5a7feed32cb5349564736f6c634300081300336080346100be57601f6105a438819003918201601f19168301916001600160401b038311848410176100c3578084926020946040528339810103126100be57516001600160a01b0390818116908190036100be576000543360018060a01b0319821617600055604051923391167f8be0079c531659141344cd1fd0a4f28419497f9722a3daafe3b4186f6b6457e0600080a3600180546001600160a81b0319168217911560a01b60ff60a01b169190911790556104ca90816100da8239f35b600080fd5b634e487b7160e01b600052604160045260246000fdfe60406080815260048036101561001f575b5050361561001d57600080fd5b005b600091823560e01c8063715018a6146103045780638da5cb5b146102dc578063b08ff105146102b4578063db6b52461461026e578063f2fde38b146101ab5763f3fef3a31461006e5750610010565b346101a757806003193601126101a75782610087610361565b6024359061009361043c565b60015460ff8160a01c16600014610112575082809281925af13d1561010d573d67ffffffffffffffff81116100fa578251906100d9601f8201601f19166020018361037c565b81528460203d92013e5b156100ed57505080f35b5163312d207360e11b8152fd5b634e487b7160e01b855260418452602485fd5b6100e3565b845163a9059cbb60e01b81526001600160a01b039283168782015260248101939093529192602092849260449284929091165af190811561019d57849161015f575b50156100ed57505080f35b90506020813d8211610195575b816101796020938361037c565b81010312610191575180151581036101915738610154565b8380fd5b3d915061016c565b82513d86823e3d90fd5b8280fd5b5090346101a75760203660031901126101a7576101c6610361565b906101cf61043c565b6001600160a01b0391821692831561021c57505082546001600160a01b0319811683178455167f8be0079c531659141344cd1fd0a4f28419497f9722a3daafe3b4186f6b6457e08380a380f35b906020608492519162461bcd60e51b8352820152602660248201527f4f776e61626c653a206e6577206f776e657220697320746865207a65726f206160448201526564647265737360d01b6064820152fd5b50826003193601126101a75761028261043c565b60ff60015460a01c16156102a757341561029a578280f35b51631f2a200560e01b8152fd5b5163f1640ae160e01b8152fd5b8382346102d857816003193601126102d8576020906102d16103b4565b9051908152f35b5080fd5b8382346102d857816003193601126102d857905490516001600160a01b039091168152602090f35b833461035e578060031936011261035e5761031d61043c565b80546001600160a01b03198116825581906001600160a01b03167f8be0079c531659141344cd1fd0a4f28419497f9722a3daafe3b4186f6b6457e08280a380f35b80fd5b600435906001600160a01b038216820361037757565b600080fd5b90601f8019910116810190811067ffffffffffffffff82111761039e57604052565b634e487b7160e01b600052604160045260246000fd5b60015460ff8160a01c16610437576040516370a0823160e01b815230600482015290602090829060249082906001600160a01b03165afa90811561042b576000916103fd575090565b906020823d8211610423575b816104166020938361037c565b8101031261035e57505190565b3d9150610409565b6040513d6000823e3d90fd5b504790565b6000546001600160a01b0316330361045057565b606460405162461bcd60e51b815260206004820152602060248201527f4f776e61626c653a2063616c6c6572206973206e6f7420746865206f776e65726044820152fdfea2646970667358221220e91f06e964aa8c6bb0a34b0f084ac1c13b0e65c8bd0b52b9599715da54739f9c64736f6c634300081300338b73c3c69bb8fe3d512ecc4cf759cc79239f7b179b0ffacaa9a75d522b39400f","linkReferences":{}},"methodIdentifiers":{"DEFAULT_PAYLOAD_SIZE_LIMIT()":"c4461834","DOMAIN_SEPARATOR()":"3644e515","NO_EXTRA_GAS()":"44770515","PT_SEND()":"4c42899a","PT_SEND_AND_CALL()":"e6a20ae6","SWAP_MAX_SLIPPAGE()":"a643c52e","allowance(address,address)":"dd62ed3e","approve(address,uint256)":"095ea7b3","balanceOf(address)":"70a08231","balancers(address)":"973751ee","callOnOFTReceived(uint16,bytes,uint64,bytes32,address,uint256,bytes,uint256)":"eaffd49a","circulatingSupply()":"9358928b","cluster()":"dbd01de1","connectedChains(uint256)":"526137a7","creditedPackets(uint16,bytes,uint64)":"9bdb9812","decimals()":"313ce567","decreaseAllowance(address,uint256)":"a457c2d7","erc20()":"785e9e86","estimateSendAndCallFee(uint16,bytes32,uint256,bytes,uint64,bool,bytes)":"a4c51df5","estimateSendFee(uint16,bytes32,uint256,bool,bytes)":"365260b4","exerciseOption((address,address,uint256,uint256,address,uint256),(uint16,address,uint256),(bool,address,uint16,uint256,address,uint256),(bool,bool,bool,bool,uint16,address,bool,address,address,uint256,uint256,uint8,bytes32,bytes32)[],(bool,bool,bool,bool,uint16,address,bool,address,address,uint256,uint256,uint8,bytes32,bytes32)[],bytes)":"4e8eeae9","extractUnderlying(uint256)":"8232a1e6","failedMessages(uint16,bytes,uint64)":"5b8c41e6","forceResumeReceive(uint16,bytes)":"42d65a8d","getConfig(uint16,uint16,address,uint256)":"f5ecbdbc","getTrustedRemoteAddress(uint16)":"9f38369a","hostChainID()":"0054af3a","increaseAllowance(address,uint256)":"39509351","isTrustedRemote(uint16,bytes)":"3d8b38f6","lzEndpoint()":"b353aaa7","lzReceive(uint16,bytes,uint64,bytes)":"001d3567","minDstGasLookup(uint16,uint16)":"8cfd8f5c","name()":"06fdde03","nonblockingLzReceive(uint16,bytes,uint64,bytes)":"66ad5c8a","nonces(address)":"7ecebe00","owner()":"8da5cb5b","payloadSizeLimitLookup(uint16)":"3f1f4fa4","permit(address,address,uint256,uint256,uint8,bytes32,bytes32)":"d505accf","precrime()":"950c8a74","removeCollateral(address,address,uint16,address,(bool,uint256,bool,uint16,bytes,bool),(uint256,address,address),(bool,bool,bool,bool,uint16,address,bool,address,address,uint256,uint256,uint8,bytes32,bytes32)[],(bool,bool,bool,bool,uint16,address,bool,address,address,uint256,uint256,uint8,bytes32,bytes32)[],bytes)":"57ba399b","renounceOwnership()":"715018a6","rescueEth(uint256,address)":"b25ea8fb","retrieveFromStrategy(address,uint256,uint256,uint16,address,bytes)":"0ed9e406","retryMessage(uint16,bytes,uint64,bytes)":"d1deba1f","sendAndCall(address,uint16,bytes32,uint256,bytes,uint64,(address,address,bytes))":"76203b48","sendForLeverage(uint256,address,(uint256,uint16,uint16,address,bytes,bytes,address),(address,uint256,bytes),(address,address,address,address))":"796fd43a","sendFrom(address,uint16,bytes32,uint256,(address,address,bytes))":"695ef6bf","sendToStrategy(address,address,uint256,uint256,uint16,(uint256,address))":"0fb6ba59","sendToYBAndBorrow(address,address,uint16,bytes,(uint256,uint256,address,address),(bool,uint256,bool,uint16,bytes,bool),(uint256,address),(bool,bool,bool,bool,uint16,address,bool,address,address,uint256,uint256,uint8,bytes32,bytes32)[],(bool,bool,bool,bool,uint16,address,bool,address,address,uint256,uint256,uint8,bytes32,bytes32)[])":"afa61ff9","setCluster(address)":"437be622","setConfig(uint16,uint16,uint256,bytes)":"cbed8b9c","setMaxSlippage(uint256)":"43f68a49","setMinDstGas(uint16,uint16,uint256)":"df2a5b3b","setPayloadSizeLimit(uint16,uint256)":"0df37483","setPrecrime(address)":"baf3292d","setReceiveVersion(uint16)":"10ddb137","setSendVersion(uint16)":"07e0db17","setStargateRouter(address)":"51b78b47","setTrustedRemote(uint16,bytes)":"eb8d72b7","setTrustedRemoteAddress(uint16,bytes)":"a6c3d165","setUseCustomAdapterParams(bool)":"eab45d9c","sgReceive(uint16,bytes,uint256,address,uint256,bytes)":"ab8236f3","sharedDecimals()":"857749b0","supportsInterface(bytes4)":"01ffc9a7","symbol()":"95d89b41","token()":"fc0c546a","totalSupply()":"18160ddd","transfer(address,uint256)":"a9059cbb","transferFrom(address,address,uint256)":"23b872dd","transferOwnership(address)":"f2fde38b","triggerApproveOrRevoke(uint16,(address,address,bytes),(bool,bool,bool,bool,uint16,address,bool,address,address,uint256,uint256,uint8,bytes32,bytes32)[])":"4fd7e9f6","triggerSendFrom(uint16,bytes,address,uint256,(address,address,bytes),(bool,bool,bool,bool,uint16,address,bool,address,address,uint256,uint256,uint8,bytes32,bytes32)[],(bool,bool,bool,bool,uint16,address,bool,address,address,uint256,uint256,uint8,bytes32,bytes32)[])":"c20d362f","triggerSendFromWithParams(address,uint16,bytes32,uint256,(address,address,bytes),bool,(bool,bool,bool,bool,uint16,address,bool,address,address,uint256,uint256,uint8,bytes32,bytes32)[],(bool,bool,bool,bool,uint16,address,bool,address,address,uint256,uint256,uint8,bytes32,bytes32)[])":"7c875ea0","trustedRemoteLookup(uint16)":"7533d788","unwrap(address,uint256)":"39f47693","updateBalancerState(address,bool)":"e2c268ee","updateConnectedChain(uint256,bool)":"159068b7","useCustomAdapterParams()":"ed629c5c","vault()":"fbfa77cf","wrap(address,address,uint256)":"62355638","yieldBox()":"de406577"},"id":6}