{"abi":[{"type":"constructor","inputs":[{"name":"token_","type":"address","internalType":"address"}],"stateMutability":"nonpayable"},{"type":"receive","stateMutability":"payable"},{"type":"function","name":"depositNative","inputs":[],"outputs":[],"stateMutability":"payable"},{"type":"function","name":"owner","inputs":[],"outputs":[{"name":"","type":"address","internalType":"address"}],"stateMutability":"view"},{"type":"function","name":"renounceOwnership","inputs":[],"outputs":[],"stateMutability":"nonpayable"},{"type":"function","name":"transferOwnership","inputs":[{"name":"newOwner","type":"address","internalType":"address"}],"outputs":[],"stateMutability":"nonpayable"},{"type":"function","name":"viewSupply","inputs":[],"outputs":[{"name":"","type":"uint256","internalType":"uint256"}],"stateMutability":"view"},{"type":"function","name":"withdraw","inputs":[{"name":"to","type":"address","internalType":"address"},{"name":"amount","type":"uint256","internalType":"uint256"}],"outputs":[],"stateMutability":"nonpayable"},{"type":"event","name":"OwnershipTransferred","inputs":[{"name":"previousOwner","type":"address","indexed":true,"internalType":"address"},{"name":"newOwner","type":"address","indexed":true,"internalType":"address"}],"anonymous":false},{"type":"error","name":"Failed","inputs":[]},{"type":"error","name":"NotValid","inputs":[]},{"type":"error","name":"ZeroAmount","inputs":[]}],"bytecode":{"object":"0x6080346100be57601f6105a438819003918201601f19168301916001600160401b038311848410176100c3578084926020946040528339810103126100be57516001600160a01b0390818116908190036100be576000543360018060a01b0319821617600055604051923391167f8be0079c531659141344cd1fd0a4f28419497f9722a3daafe3b4186f6b6457e0600080a3600180546001600160a81b0319168217911560a01b60ff60a01b169190911790556104ca90816100da8239f35b600080fd5b634e487b7160e01b600052604160045260246000fdfe60406080815260048036101561001f575b5050361561001d57600080fd5b005b600091823560e01c8063715018a6146103045780638da5cb5b146102dc578063b08ff105146102b4578063db6b52461461026e578063f2fde38b146101ab5763f3fef3a31461006e5750610010565b346101a757806003193601126101a75782610087610361565b6024359061009361043c565b60015460ff8160a01c16600014610112575082809281925af13d1561010d573d67ffffffffffffffff81116100fa578251906100d9601f8201601f19166020018361037c565b81528460203d92013e5b156100ed57505080f35b5163312d207360e11b8152fd5b634e487b7160e01b855260418452602485fd5b6100e3565b845163a9059cbb60e01b81526001600160a01b039283168782015260248101939093529192602092849260449284929091165af190811561019d57849161015f575b50156100ed57505080f35b90506020813d8211610195575b816101796020938361037c565b81010312610191575180151581036101915738610154565b8380fd5b3d915061016c565b82513d86823e3d90fd5b8280fd5b5090346101a75760203660031901126101a7576101c6610361565b906101cf61043c565b6001600160a01b0391821692831561021c57505082546001600160a01b0319811683178455167f8be0079c531659141344cd1fd0a4f28419497f9722a3daafe3b4186f6b6457e08380a380f35b906020608492519162461bcd60e51b8352820152602660248201527f4f776e61626c653a206e6577206f776e657220697320746865207a65726f206160448201526564647265737360d01b6064820152fd5b50826003193601126101a75761028261043c565b60ff60015460a01c16156102a757341561029a578280f35b51631f2a200560e01b8152fd5b5163f1640ae160e01b8152fd5b8382346102d857816003193601126102d8576020906102d16103b4565b9051908152f35b5080fd5b8382346102d857816003193601126102d857905490516001600160a01b039091168152602090f35b833461035e578060031936011261035e5761031d61043c565b80546001600160a01b03198116825581906001600160a01b03167f8be0079c531659141344cd1fd0a4f28419497f9722a3daafe3b4186f6b6457e08280a380f35b80fd5b600435906001600160a01b038216820361037757565b600080fd5b90601f8019910116810190811067ffffffffffffffff82111761039e57604052565b634e487b7160e01b600052604160045260246000fd5b60015460ff8160a01c16610437576040516370a0823160e01b815230600482015290602090829060249082906001600160a01b03165afa90811561042b576000916103fd575090565b906020823d8211610423575b816104166020938361037c565b8101031261035e57505190565b3d9150610409565b6040513d6000823e3d90fd5b504790565b6000546001600160a01b0316330361045057565b606460405162461bcd60e51b815260206004820152602060248201527f4f776e61626c653a2063616c6c6572206973206e6f7420746865206f776e65726044820152fdfea2646970667358221220e91f06e964aa8c6bb0a34b0f084ac1c13b0e65c8bd0b52b9599715da54739f9c64736f6c63430008130033","linkReferences":{}},"methodIdentifiers":{"depositNative()":"db6b5246","owner()":"8da5cb5b","renounceOwnership()":"715018a6","transferOwnership(address)":"f2fde38b","viewSupply()":"b08ff105","withdraw(address,uint256)":"f3fef3a3"},"id":4}