{"abi":[{"type":"constructor","inputs":[{"name":"_name","type":"string","internalType":"string"},{"name":"_symbol","type":"string","internalType":"string"},{"name":"_sharedDecimals","type":"uint8","internalType":"uint8"},{"name":"_lzEndpoint","type":"address","internalType":"address"}],"stateMutability":"nonpayable"},{"type":"function","name":"DEFAULT_PAYLOAD_SIZE_LIMIT","inputs":[],"outputs":[{"name":"","type":"uint256","internalType":"uint256"}],"stateMutability":"view"},{"type":"function","name":"NO_EXTRA_GAS","inputs":[],"outputs":[{"name":"","type":"uint256","internalType":"uint256"}],"stateMutability":"view"},{"type":"function","name":"PT_SEND","inputs":[],"outputs":[{"name":"","type":"uint8","internalType":"uint8"}],"stateMutability":"view"},{"type":"function","name":"PT_SEND_AND_CALL","inputs":[],"outputs":[{"name":"","type":"uint8","internalType":"uint8"}],"stateMutability":"view"},{"type":"function","name":"allowance","inputs":[{"name":"owner","type":"address","internalType":"address"},{"name":"spender","type":"address","internalType":"address"}],"outputs":[{"name":"","type":"uint256","internalType":"uint256"}],"stateMutability":"view"},{"type":"function","name":"approve","inputs":[{"name":"spender","type":"address","internalType":"address"},{"name":"amount","type":"uint256","internalType":"uint256"}],"outputs":[{"name":"","type":"bool","internalType":"bool"}],"stateMutability":"nonpayable"},{"type":"function","name":"balanceOf","inputs":[{"name":"account","type":"address","internalType":"address"}],"outputs":[{"name":"","type":"uint256","internalType":"uint256"}],"stateMutability":"view"},{"type":"function","name":"callOnOFTReceived","inputs":[{"name":"_srcChainId","type":"uint16","internalType":"uint16"},{"name":"_srcAddress","type":"bytes","internalType":"bytes"},{"name":"_nonce","type":"uint64","internalType":"uint64"},{"name":"_from","type":"bytes32","internalType":"bytes32"},{"name":"_to","type":"address","internalType":"address"},{"name":"_amount","type":"uint256","internalType":"uint256"},{"name":"_payload","type":"bytes","internalType":"bytes"},{"name":"_gasForCall","type":"uint256","internalType":"uint256"}],"outputs":[],"stateMutability":"nonpayable"},{"type":"function","name":"circulatingSupply","inputs":[],"outputs":[{"name":"","type":"uint256","internalType":"uint256"}],"stateMutability":"view"},{"type":"function","name":"creditedPackets","inputs":[{"name":"","type":"uint16","internalType":"uint16"},{"name":"","type":"bytes","internalType":"bytes"},{"name":"","type":"uint64","internalType":"uint64"}],"outputs":[{"name":"","type":"bool","internalType":"bool"}],"stateMutability":"view"},{"type":"function","name":"decimals","inputs":[],"outputs":[{"name":"","type":"uint8","internalType":"uint8"}],"stateMutability":"view"},{"type":"function","name":"decreaseAllowance","inputs":[{"name":"spender","type":"address","internalType":"address"},{"name":"subtractedValue","type":"uint256","internalType":"uint256"}],"outputs":[{"name":"","type":"bool","internalType":"bool"}],"stateMutability":"nonpayable"},{"type":"function","name":"estimateSendAndCallFee","inputs":[{"name":"_dstChainId","type":"uint16","internalType":"uint16"},{"name":"_toAddress","type":"bytes32","internalType":"bytes32"},{"name":"_amount","type":"uint256","internalType":"uint256"},{"name":"_payload","type":"bytes","internalType":"bytes"},{"name":"_dstGasForCall","type":"uint64","internalType":"uint64"},{"name":"_useZro","type":"bool","internalType":"bool"},{"name":"_adapterParams","type":"bytes","internalType":"bytes"}],"outputs":[{"name":"nativeFee","type":"uint256","internalType":"uint256"},{"name":"zroFee","type":"uint256","internalType":"uint256"}],"stateMutability":"view"},{"type":"function","name":"estimateSendFee","inputs":[{"name":"_dstChainId","type":"uint16","internalType":"uint16"},{"name":"_toAddress","type":"bytes32","internalType":"bytes32"},{"name":"_amount","type":"uint256","internalType":"uint256"},{"name":"_useZro","type":"bool","internalType":"bool"},{"name":"_adapterParams","type":"bytes","internalType":"bytes"}],"outputs":[{"name":"nativeFee","type":"uint256","internalType":"uint256"},{"name":"zroFee","type":"uint256","internalType":"uint256"}],"stateMutability":"view"},{"type":"function","name":"failedMessages","inputs":[{"name":"","type":"uint16","internalType":"uint16"},{"name":"","type":"bytes","internalType":"bytes"},{"name":"","type":"uint64","internalType":"uint64"}],"outputs":[{"name":"","type":"bytes32","internalType":"bytes32"}],"stateMutability":"view"},{"type":"function","name":"forceResumeReceive","inputs":[{"name":"_srcChainId","type":"uint16","internalType":"uint16"},{"name":"_srcAddress","type":"bytes","internalType":"bytes"}],"outputs":[],"stateMutability":"nonpayable"},{"type":"function","name":"getConfig","inputs":[{"name":"_version","type":"uint16","internalType":"uint16"},{"name":"_chainId","type":"uint16","internalType":"uint16"},{"name":"","type":"address","internalType":"address"},{"name":"_configType","type":"uint256","internalType":"uint256"}],"outputs":[{"name":"","type":"bytes","internalType":"bytes"}],"stateMutability":"view"},{"type":"function","name":"getTrustedRemoteAddress","inputs":[{"name":"_remoteChainId","type":"uint16","internalType":"uint16"}],"outputs":[{"name":"","type":"bytes","internalType":"bytes"}],"stateMutability":"view"},{"type":"function","name":"increaseAllowance","inputs":[{"name":"spender","type":"address","internalType":"address"},{"name":"addedValue","type":"uint256","internalType":"uint256"}],"outputs":[{"name":"","type":"bool","internalType":"bool"}],"stateMutability":"nonpayable"},{"type":"function","name":"isTrustedRemote","inputs":[{"name":"_srcChainId","type":"uint16","internalType":"uint16"},{"name":"_srcAddress","type":"bytes","internalType":"bytes"}],"outputs":[{"name":"","type":"bool","internalType":"bool"}],"stateMutability":"view"},{"type":"function","name":"lzEndpoint","inputs":[],"outputs":[{"name":"","type":"address","internalType":"contract ILayerZeroEndpoint"}],"stateMutability":"view"},{"type":"function","name":"lzReceive","inputs":[{"name":"_srcChainId","type":"uint16","internalType":"uint16"},{"name":"_srcAddress","type":"bytes","internalType":"bytes"},{"name":"_nonce","type":"uint64","internalType":"uint64"},{"name":"_payload","type":"bytes","internalType":"bytes"}],"outputs":[],"stateMutability":"nonpayable"},{"type":"function","name":"minDstGasLookup","inputs":[{"name":"","type":"uint16","internalType":"uint16"},{"name":"","type":"uint16","internalType":"uint16"}],"outputs":[{"name":"","type":"uint256","internalType":"uint256"}],"stateMutability":"view"},{"type":"function","name":"name","inputs":[],"outputs":[{"name":"","type":"string","internalType":"string"}],"stateMutability":"view"},{"type":"function","name":"nonblockingLzReceive","inputs":[{"name":"_srcChainId","type":"uint16","internalType":"uint16"},{"name":"_srcAddress","type":"bytes","internalType":"bytes"},{"name":"_nonce","type":"uint64","internalType":"uint64"},{"name":"_payload","type":"bytes","internalType":"bytes"}],"outputs":[],"stateMutability":"nonpayable"},{"type":"function","name":"owner","inputs":[],"outputs":[{"name":"","type":"address","internalType":"address"}],"stateMutability":"view"},{"type":"function","name":"payloadSizeLimitLookup","inputs":[{"name":"","type":"uint16","internalType":"uint16"}],"outputs":[{"name":"","type":"uint256","internalType":"uint256"}],"stateMutability":"view"},{"type":"function","name":"precrime","inputs":[],"outputs":[{"name":"","type":"address","internalType":"address"}],"stateMutability":"view"},{"type":"function","name":"renounceOwnership","inputs":[],"outputs":[],"stateMutability":"nonpayable"},{"type":"function","name":"retryMessage","inputs":[{"name":"_srcChainId","type":"uint16","internalType":"uint16"},{"name":"_srcAddress","type":"bytes","internalType":"bytes"},{"name":"_nonce","type":"uint64","internalType":"uint64"},{"name":"_payload","type":"bytes","internalType":"bytes"}],"outputs":[],"stateMutability":"payable"},{"type":"function","name":"sendAndCall","inputs":[{"name":"_from","type":"address","internalType":"address"},{"name":"_dstChainId","type":"uint16","internalType":"uint16"},{"name":"_toAddress","type":"bytes32","internalType":"bytes32"},{"name":"_amount","type":"uint256","internalType":"uint256"},{"name":"_payload","type":"bytes","internalType":"bytes"},{"name":"_dstGasForCall","type":"uint64","internalType":"uint64"},{"name":"_callParams","type":"tuple","internalType":"struct ICommonOFT.LzCallParams","components":[{"name":"refundAddress","type":"address","internalType":"address payable"},{"name":"zroPaymentAddress","type":"address","internalType":"address"},{"name":"adapterParams","type":"bytes","internalType":"bytes"}]}],"outputs":[],"stateMutability":"payable"},{"type":"function","name":"sendFrom","inputs":[{"name":"_from","type":"address","internalType":"address"},{"name":"_dstChainId","type":"uint16","internalType":"uint16"},{"name":"_toAddress","type":"bytes32","internalType":"bytes32"},{"name":"_amount","type":"uint256","internalType":"uint256"},{"name":"_callParams","type":"tuple","internalType":"struct ICommonOFT.LzCallParams","components":[{"name":"refundAddress","type":"address","internalType":"address payable"},{"name":"zroPaymentAddress","type":"address","internalType":"address"},{"name":"adapterParams","type":"bytes","internalType":"bytes"}]}],"outputs":[],"stateMutability":"payable"},{"type":"function","name":"setConfig","inputs":[{"name":"_version","type":"uint16","internalType":"uint16"},{"name":"_chainId","type":"uint16","internalType":"uint16"},{"name":"_configType","type":"uint256","internalType":"uint256"},{"name":"_config","type":"bytes","internalType":"bytes"}],"outputs":[],"stateMutability":"nonpayable"},{"type":"function","name":"setMinDstGas","inputs":[{"name":"_dstChainId","type":"uint16","internalType":"uint16"},{"name":"_packetType","type":"uint16","internalType":"uint16"},{"name":"_minGas","type":"uint256","internalType":"uint256"}],"outputs":[],"stateMutability":"nonpayable"},{"type":"function","name":"setPayloadSizeLimit","inputs":[{"name":"_dstChainId","type":"uint16","internalType":"uint16"},{"name":"_size","type":"uint256","internalType":"uint256"}],"outputs":[],"stateMutability":"nonpayable"},{"type":"function","name":"setPrecrime","inputs":[{"name":"_precrime","type":"address","internalType":"address"}],"outputs":[],"stateMutability":"nonpayable"},{"type":"function","name":"setReceiveVersion","inputs":[{"name":"_version","type":"uint16","internalType":"uint16"}],"outputs":[],"stateMutability":"nonpayable"},{"type":"function","name":"setSendVersion","inputs":[{"name":"_version","type":"uint16","internalType":"uint16"}],"outputs":[],"stateMutability":"nonpayable"},{"type":"function","name":"setTrustedRemote","inputs":[{"name":"_srcChainId","type":"uint16","internalType":"uint16"},{"name":"_path","type":"bytes","internalType":"bytes"}],"outputs":[],"stateMutability":"nonpayable"},{"type":"function","name":"setTrustedRemoteAddress","inputs":[{"name":"_remoteChainId","type":"uint16","internalType":"uint16"},{"name":"_remoteAddress","type":"bytes","internalType":"bytes"}],"outputs":[],"stateMutability":"nonpayable"},{"type":"function","name":"setUseCustomAdapterParams","inputs":[{"name":"_useCustomAdapterParams","type":"bool","internalType":"bool"}],"outputs":[],"stateMutability":"nonpayable"},{"type":"function","name":"sharedDecimals","inputs":[],"outputs":[{"name":"","type":"uint8","internalType":"uint8"}],"stateMutability":"view"},{"type":"function","name":"supportsInterface","inputs":[{"name":"interfaceId","type":"bytes4","internalType":"bytes4"}],"outputs":[{"name":"","type":"bool","internalType":"bool"}],"stateMutability":"view"},{"type":"function","name":"symbol","inputs":[],"outputs":[{"name":"","type":"string","internalType":"string"}],"stateMutability":"view"},{"type":"function","name":"token","inputs":[],"outputs":[{"name":"","type":"address","internalType":"address"}],"stateMutability":"view"},{"type":"function","name":"totalSupply","inputs":[],"outputs":[{"name":"","type":"uint256","internalType":"uint256"}],"stateMutability":"view"},{"type":"function","name":"transfer","inputs":[{"name":"to","type":"address","internalType":"address"},{"name":"amount","type":"uint256","internalType":"uint256"}],"outputs":[{"name":"","type":"bool","internalType":"bool"}],"stateMutability":"nonpayable"},{"type":"function","name":"transferFrom","inputs":[{"name":"from","type":"address","internalType":"address"},{"name":"to","type":"address","internalType":"address"},{"name":"amount","type":"uint256","internalType":"uint256"}],"outputs":[{"name":"","type":"bool","internalType":"bool"}],"stateMutability":"nonpayable"},{"type":"function","name":"transferOwnership","inputs":[{"name":"newOwner","type":"address","internalType":"address"}],"outputs":[],"stateMutability":"nonpayable"},{"type":"function","name":"trustedRemoteLookup","inputs":[{"name":"","type":"uint16","internalType":"uint16"}],"outputs":[{"name":"","type":"bytes","internalType":"bytes"}],"stateMutability":"view"},{"type":"function","name":"useCustomAdapterParams","inputs":[],"outputs":[{"name":"","type":"bool","internalType":"bool"}],"stateMutability":"view"},{"type":"event","name":"Approval","inputs":[{"name":"owner","type":"address","indexed":true,"internalType":"address"},{"name":"spender","type":"address","indexed":true,"internalType":"address"},{"name":"value","type":"uint256","indexed":false,"internalType":"uint256"}],"anonymous":false},{"type":"event","name":"CallOFTReceivedSuccess","inputs":[{"name":"_srcChainId","type":"uint16","indexed":true,"internalType":"uint16"},{"name":"_srcAddress","type":"bytes","indexed":false,"internalType":"bytes"},{"name":"_nonce","type":"uint64","indexed":false,"internalType":"uint64"},{"name":"_hash","type":"bytes32","indexed":false,"internalType":"bytes32"}],"anonymous":false},{"type":"event","name":"MessageFailed","inputs":[{"name":"_srcChainId","type":"uint16","indexed":false,"internalType":"uint16"},{"name":"_srcAddress","type":"bytes","indexed":false,"internalType":"bytes"},{"name":"_nonce","type":"uint64","indexed":false,"internalType":"uint64"},{"name":"_payload","type":"bytes","indexed":false,"internalType":"bytes"},{"name":"_reason","type":"bytes","indexed":false,"internalType":"bytes"}],"anonymous":false},{"type":"event","name":"NonContractAddress","inputs":[{"name":"_address","type":"address","indexed":false,"internalType":"address"}],"anonymous":false},{"type":"event","name":"OwnershipTransferred","inputs":[{"name":"previousOwner","type":"address","indexed":true,"internalType":"address"},{"name":"newOwner","type":"address","indexed":true,"internalType":"address"}],"anonymous":false},{"type":"event","name":"ReceiveFromChain","inputs":[{"name":"_srcChainId","type":"uint16","indexed":true,"internalType":"uint16"},{"name":"_to","type":"address","indexed":true,"internalType":"address"},{"name":"_amount","type":"uint256","indexed":false,"internalType":"uint256"}],"anonymous":false},{"type":"event","name":"RetryMessageSuccess","inputs":[{"name":"_srcChainId","type":"uint16","indexed":false,"internalType":"uint16"},{"name":"_srcAddress","type":"bytes","indexed":false,"internalType":"bytes"},{"name":"_nonce","type":"uint64","indexed":false,"internalType":"uint64"},{"name":"_payloadHash","type":"bytes32","indexed":false,"internalType":"bytes32"}],"anonymous":false},{"type":"event","name":"SendToChain","inputs":[{"name":"_dstChainId","type":"uint16","indexed":true,"internalType":"uint16"},{"name":"_from","type":"address","indexed":true,"internalType":"address"},{"name":"_toAddress","type":"bytes32","indexed":true,"internalType":"bytes32"},{"name":"_amount","type":"uint256","indexed":false,"internalType":"uint256"}],"anonymous":false},{"type":"event","name":"SetMinDstGas","inputs":[{"name":"_dstChainId","type":"uint16","indexed":false,"internalType":"uint16"},{"name":"_type","type":"uint16","indexed":false,"internalType":"uint16"},{"name":"_minDstGas","type":"uint256","indexed":false,"internalType":"uint256"}],"anonymous":false},{"type":"event","name":"SetPrecrime","inputs":[{"name":"precrime","type":"address","indexed":false,"internalType":"address"}],"anonymous":false},{"type":"event","name":"SetTrustedRemote","inputs":[{"name":"_remoteChainId","type":"uint16","indexed":false,"internalType":"uint16"},{"name":"_path","type":"bytes","indexed":false,"internalType":"bytes"}],"anonymous":false},{"type":"event","name":"SetTrustedRemoteAddress","inputs":[{"name":"_remoteChainId","type":"uint16","indexed":false,"internalType":"uint16"},{"name":"_remoteAddress","type":"bytes","indexed":false,"internalType":"bytes"}],"anonymous":false},{"type":"event","name":"SetUseCustomAdapterParams","inputs":[{"name":"_useCustomAdapterParams","type":"bool","indexed":false,"internalType":"bool"}],"anonymous":false},{"type":"event","name":"Transfer","inputs":[{"name":"from","type":"address","indexed":true,"internalType":"address"},{"name":"to","type":"address","indexed":true,"internalType":"address"},{"name":"value","type":"uint256","indexed":false,"internalType":"uint256"}],"anonymous":false}],"bytecode":{"object":"0x60e060405234620004915762003e60803803806200001d8162000496565b928339810190608081830312620004915780516001600160401b03929083811162000491578162000050918401620004d2565b602091828401519085821162000491576200006d918501620004d2565b9360408401519460ff8616948587036200049157606001516001600160a01b03969087811690819003620004915760008054336001600160a01b03198216811783559199167f8be0079c531659141344cd1fd0a4f28419497f9722a3daafe3b4186f6b6457e08a80a360805260a0528251908282116200039857600b54916001948584811c9416801562000486575b8785101462000472578190601f948581116200041e575b508790858311600114620003b8578a92620003ac575b5050600019600383901b1c191690851b17600b555b80519283116200039857600c548481811c911680156200038d575b86821014620003795782811162000330575b5084918311600114620002ca579282939183928894620002be575b50501b916000199060031b1c191617600c555b601282116200026a575060120360ff8111620002565760ff1690604d8211620002425750600a0a60c05260405161391b9081620005458239608051818181610413015281816106d9015281816107f50152818161097001528181610b2f01528181611851015281816119590152818161202c015281816128a50152612d56015260a051816112f0015260c051818181612af801528181612f61015281816131d2015261326c0152f35b634e487b7160e01b81526011600452602490fd5b634e487b7160e01b82526011600452602482fd5b6084906040519062461bcd60e51b82526004820152602760248201527f4f46543a20736861726564446563696d616c73206d757374206265203c3d20646044820152666563696d616c7360c81b6064820152fd5b01519250388062000186565b600c8752848720919083601f198116895b8888838310620003185750505010620002fe575b505050811b01600c5562000199565b015160001960f88460031b161c19169055388080620002ef565b868601518855909601959485019487935001620002db565b600c88528588208380860160051c8201928887106200036f575b0160051c019085905b828110620003635750506200016b565b89815501859062000353565b925081926200034a565b634e487b7160e01b88526022600452602488fd5b90607f169062000159565b634e487b7160e01b87526041600452602487fd5b01519050388062000129565b600b8b52888b208894509190601f1984168c5b8b828210620004075750508411620003ed575b505050811b01600b556200013e565b015160001960f88460031b161c19169055388080620003de565b8385015186558b97909501949384019301620003cb565b909150600b8a52878a208580850160051c8201928a861062000468575b918991869594930160051c01915b8281106200045957505062000113565b8c815585945089910162000449565b925081926200043b565b634e487b7160e01b89526022600452602489fd5b93607f1693620000fc565b600080fd5b6040519190601f01601f191682016001600160401b03811183821017620004bc57604052565b634e487b7160e01b600052604160045260246000fd5b919080601f84011215620004915782516001600160401b038111620004bc5760209062000508601f8201601f1916830162000496565b92818452828287010111620004915760005b8181106200053057508260009394955001015290565b85810183015184820184015282016200051a56fe6080604052600436101561001257600080fd5b60003560e01c80621d35671461033c57806301ffc9a71461033757806306fdde031461033257806307e0db171461032d578063095ea7b3146103285780630df374831461032357806310ddb1371461031e57806318160ddd146102bf57806323b872dd14610319578063313ce56714610314578063365260b41461030f578063395093511461030a5780633d8b38f6146103055780633f1f4fa41461030057806342d65a8d146102fb57806344770515146102f65780634c42899a146102f65780635b8c41e6146102f157806366ad5c8a146102ec578063695ef6bf146102e757806370a08231146102e2578063715018a6146102dd5780637533d788146102d857806376203b48146102d3578063857749b0146102ce5780638cfd8f5c146102c95780638da5cb5b146102c45780639358928b146102bf578063950c8a74146102ba57806395d89b41146102b55780639bdb9812146102b05780639f38369a146102ab578063a457c2d7146102a6578063a4c51df5146102a1578063a6c3d1651461029c578063a9059cbb14610297578063b353aaa714610292578063baf3292d1461028d578063c446183414610288578063cbed8b9c14610283578063d1deba1f1461027e578063dd62ed3e14610279578063df2a5b3b14610274578063e6a20ae61461026f578063eab45d9c1461026a578063eaffd49a14610265578063eb8d72b714610260578063ed629c5c1461025b578063f2fde38b14610256578063f5ecbdbc146102515763fc0c546a1461024c57600080fd5b612096565b611fca565b611f03565b611ee0565b611d96565b611d11565b611caf565b611c93565b611bae565b611b54565b6119f1565b61190d565b6118f0565b611880565b61183b565b611811565b61168e565b6115ff565b611541565b6114a2565b611457565b6113b0565b611387565b610856565b61135e565b611314565b6112d6565b611098565b611045565b610efd565b610ec0565b610dcf565b610d3b565b610cd4565b610b96565b610b15565b610ae0565b610a84565b6109ee565b6108ee565b6108b4565b610874565b6107d0565b610795565b610760565b6106b4565b6105cf565b610512565b6103fc565b6004359061ffff8216820361035257565b600080fd5b6024359061ffff8216820361035257565b9181601f84011215610352578235916001600160401b038311610352576020838186019501011161035257565b9060806003198301126103525760043561ffff8116810361035257916001600160401b039060243582811161035257816103d191600401610368565b9390939260443581811681036103525792606435918211610352576103f891600401610368565b9091565b346103525761040a36610395565b929493919291907f00000000000000000000000000000000000000000000000000000000000000006001600160a01b031633036104cd576104906104989261049e9761048961046f61046a8a61ffff166000526001602052604060002090565b611028565b80519081841491826104c3575b50816104a0575b506124c6565b3691610c1c565b923691610c1c565b92612639565b005b90506104ad368486610c1c565b6020815191012090602081519101201438610483565b151591503861047c565b60405162461bcd60e51b815260206004820152601e60248201527f4c7a4170703a20696e76616c696420656e64706f696e742063616c6c657200006044820152606490fd5b346103525760203660031901126103525760043563ffffffff60e01b811680910361035257602090631f7ecdf760e01b8114908115610557575b506040519015158152f35b6301ffc9a760e01b1490503861054c565b600091031261035257565b60005b8381106105865750506000910152565b8181015183820152602001610576565b906020916105af81518092818552858086019101610573565b601f01601f1916010190565b9060206105cc928181520190610596565b90565b34610352576000806003193601126106b1576040519080600b546105f281610f58565b80855291600191808316908115610687575060011461062c575b6106288561061c81870382610be0565b604051918291826105bb565b0390f35b9250600b83527f0175b7a638427703f0dbe7bb9bbf987a2551717b34e79f33b5b1008d1fa01db95b82841061066f57505050810160200161061c8261062861060c565b80546020858701810191909152909301928101610654565b8695506106289693506020925061061c94915060ff191682840152151560051b820101929361060c565b80fd5b3461035257600060203660031901126106b1576106cf610341565b6106d76120b1565b7f00000000000000000000000000000000000000000000000000000000000000006001600160a01b0316908290823b1561074b57602461ffff918360405195869485936307e0db1760e01b85521660048401525af180156107465761073a575080f35b61074390610bc8565b80f35b61257f565b5080fd5b6001600160a01b0381160361035257565b346103525760403660031901126103525761078a6004356107808161074f565b6024359033612303565b602060405160018152f35b346103525760403660031901126103525761ffff6107b1610341565b6107b96120b1565b166000526003602052602435604060002055600080f35b3461035257600060203660031901126106b1576107eb610341565b6107f36120b1565b7f00000000000000000000000000000000000000000000000000000000000000006001600160a01b0316908290823b1561074b57602461ffff918360405195869485936310ddb13760e01b85521660048401525af180156107465761073a575080f35b34610352576000366003190112610352576020600a54604051908152f35b346103525760603660031901126103525761078a6004356108948161074f565b6024356108a08161074f565b604435916108af83338361242e565b6121fb565b3461035257600036600319011261035257602060405160128152f35b60643590811515820361035257565b60a43590811515820361035257565b346103525760a036600319011261035257610907610341565b61090f6108d0565b90608435906001600160401b038211610352576109356104896040933690600401610368565b9061096c61094f6109476044356131d0565b6024356132a1565b928451958694859463040a7bb160e41b8652309060048701612a4d565b03817f00000000000000000000000000000000000000000000000000000000000000006001600160a01b03165afa9081156107465760009081926109bd575b50604080519182526020820192909252f35b90506109e0915060403d81116109e7575b6109d88183610be0565b810190612a37565b90386109ab565b503d6109ce565b3461035257604036600319011261035257600435610a0b8161074f565b3360009081526009602090815260408083206001600160a01b03851684529091529020546024358101809111610a455761078a9133612303565b612109565b9060406003198301126103525760043561ffff811681036103525791602435906001600160401b038211610352576103f891600401610368565b3461035257602061ffff610ad1610a9a36610a4a565b9390911660005260018452610abc610ac3604060002060405192838092610f92565b0382610be0565b848151910120923691610c1c565b82815191012014604051908152f35b346103525760203660031901126103525761ffff610afc610341565b1660005260036020526020604060002054604051908152f35b3461035257610b2336610a4a565b9190610b2d6120b1565b7f00000000000000000000000000000000000000000000000000000000000000006001600160a01b031691823b1561035257604051928380926342d65a8d60e01b825281610b8460009889978894600485016125ac565b03925af180156107465761073a575080f35b3461035257600036600319011261035257602060405160008152f35b634e487b7160e01b600052604160045260246000fd5b6001600160401b038111610bdb57604052565b610bb2565b90601f801991011681019081106001600160401b03821117610bdb57604052565b6001600160401b038111610bdb57601f01601f191660200190565b929192610c2882610c01565b91610c366040519384610be0565b829481845281830111610352578281602093846000960137010152565b60606003198201126103525760043561ffff8116810361035257916024356001600160401b0392838211610352578060238301121561035257816024610c9e93600401359101610c1c565b9160443590811681036103525790565b602090610cc8928260405194838680955193849201610573565b82019081520301902090565b34610352576020610d3261ffff610d1183610cee36610c53565b949091166000526005825260406000208260405194838680955193849201610573565b820190815203019020906001600160401b0316600052602052604060002090565b54604051908152f35b3461035257610d4936610395565b9192949390303303610d6d57610490610d679261049e973691610c1c565b92612a91565b60405162461bcd60e51b815260206004820152602660248201527f4e6f6e626c6f636b696e674c7a4170703a2063616c6c6572206d7573742062656044820152650204c7a4170760d41b6064820152608490fd5b908160609103126103525790565b60a036600319011261035257600435610de78161074f565b610def610357565b604435916084356001600160401b03811161035257602061ffff610e387fd81fc9b8523134ed613870ed029d6170cbb73aa6a6bc311b9a642689fb9df59a933690600401610dc1565b93610eab8535610e478161074f565b610e656104898689013598610e5b8a61074f565b6040810190612823565b610e6f818a6130cd565b610e84610e7d60643561326a565b5085613479565b97610e90891515612c6e565b610ea2610e9c8a6131d0565b8c6132a1565b9234938b612d12565b6040519485526001600160a01b0316941692a4005b3461035257602036600319011261035257600435610edd8161074f565b60018060a01b031660005260086020526020604060002054604051908152f35b34610352576000806003193601126106b157610f176120b1565b80546001600160a01b03198116825581906001600160a01b03167f8be0079c531659141344cd1fd0a4f28419497f9722a3daafe3b4186f6b6457e08280a380f35b90600182811c92168015610f88575b6020831014610f7257565b634e487b7160e01b600052602260045260246000fd5b91607f1691610f67565b9060009291805491610fa383610f58565b9182825260019384811690816000146110055750600114610fc5575b50505050565b90919394506000526020928360002092846000945b838610610ff1575050505001019038808080610fbf565b805485870183015294019385908201610fda565b9294505050602093945060ff191683830152151560051b01019038808080610fbf565b9061104361103c9260405193848092610f92565b0383610be0565b565b346103525760203660031901126103525761ffff611061610341565b166000526001602052610628610abc611084604060002060405192838092610f92565b604051918291602083526020830190610596565b60e0366003190112610352576004356110b08161074f565b6110b8610357565b604435916001600160401b0390608435828111610352576110dd903690600401610368565b91909260a43591818316918284036103525760c43590811161035257611107903690600401610dc1565b9261113e8435956111178761074f565b61113661112c602088013597610e5b8961074f565b9990923691610c1c565b973691610c1c565b9460ff600654166000146112435760228651106111fe5785602095610ea2610eab946111cc8c6111b961ffff9a8b60227fd81fc9b8523134ed613870ed029d6170cbb73aa6a6bc311b9a642689fb9df59a9f0151931660005260028d526111b360406000206001600052602052604060002090565b5461213b565b906111c5821515613122565b101561316e565b6111e16111da60643561326a565b5088613479565b9a6111ed8c1515612c6e565b8d6111f78d6131d0565b9033613333565b60405162461bcd60e51b815260206004820152601c60248201527f4c7a4170703a20696e76616c69642061646170746572506172616d73000000006044820152606490fd5b948094935051611282577fd81fc9b8523134ed613870ed029d6170cbb73aa6a6bc311b9a642689fb9df59a9460209461ffff94610ea2610eab946111cc565b60405162461bcd60e51b815260206004820152602660248201527f4f4654436f72653a205f61646170746572506172616d73206d7573742062652060448201526532b6b83a3c9760d11b6064820152608490fd5b3461035257600036600319011261035257602060405160ff7f0000000000000000000000000000000000000000000000000000000000000000168152f35b34610352576040366003190112610352576020610d32611332610341565b61ffff61133d610357565b91166000526002835260406000209061ffff16600052602052604060002090565b34610352576000366003190112610352576000546040516001600160a01b039091168152602090f35b34610352576000366003190112610352576004546040516001600160a01b039091168152602090f35b34610352576000806003193601126106b1576040519080600c546113d381610f58565b8085529160019180831690811561068757506001146113fc576106288561061c81870382610be0565b9250600c83527fdf6966c971051c3d54ec59162606531493a51404a002842f56009d7e5cf4a8c75b82841061143f57505050810160200161061c8261062861060c565b80546020858701810191909152909301928101611424565b3461035257602060ff61149661ffff610d118461147336610c53565b949091166000526007825260406000208260405194838680955193849201610573565b54166040519015158152f35b346103525760203660031901126103525761ffff6114be610341565b166000526001602052610abc6114de604060002060405192838092610f92565b8051156114fc5761061c816114f6610628935161261b565b906136b9565b60405162461bcd60e51b815260206004820152601d60248201527f4c7a4170703a206e6f20747275737465642070617468207265636f72640000006044820152606490fd5b346103525760403660031901126103525760043561155e8161074f565b6024359033600052600960205261158b8160406000209060018060a01b0316600052602052604060002090565b54918083106115ac576115a092039033612303565b60405160018152602090f35b60405162461bcd60e51b815260206004820152602560248201527f45524332303a2064656372656173656420616c6c6f77616e63652062656c6f77604482015264207a65726f60d81b6064820152608490fd5b346103525760e036600319011261035257611618610341565b6001600160401b039060643582811161035257611639903690600401610368565b6084929192358481168103610352576116506108df565b9160c4359586116103525761166c61167c963690600401610368565b9590946044359060243590612855565b60408051928352602083019190915290f35b346103525761169c36610a4a565b906116a56120b1565b604051926020928083858701376116d16034868381013060601b88820152036014810188520186610be0565b60009361ffff8316855260019081815260408620918751916001600160401b038311610bdb5761170b836117058654610f58565b866125c7565b80601f841160011461177b57509180809261176a9695948a9b7f8c0400cfe2d1199b1a725c78960bcc2a344d869b80590d0f2bd005db15a572ce9b94611770575b50501b916000199060031b1c19161790555b604051938493846125ac565b0390a180f35b01519250388061174c565b91939498601f19841661179387600052602060002090565b938a905b8282106117fa575050917f8c0400cfe2d1199b1a725c78960bcc2a344d869b80590d0f2bd005db15a572ce999a9593918561176a989694106117e1575b505050811b01905561175e565b015160001960f88460031b161c191690553880806117d4565b808886978294978701518155019601940190611797565b346103525760403660031901126103525761078a6004356118318161074f565b60243590336121fb565b34610352576000366003190112610352576040517f00000000000000000000000000000000000000000000000000000000000000006001600160a01b03168152602090f35b34610352576020366003190112610352577f5db758e995a17ec1ad84bdef7e8c3293a0bd6179bcce400dff5d4c3d87db726b60206004356118c08161074f565b6118c86120b1565b600480546001600160a01b0319166001600160a01b03929092169182179055604051908152a1005b346103525760003660031901126103525760206040516127108152f35b3461035257608036600319011261035257611926610341565b61192e610357565b6064356001600160401b0381116103525761194d903690600401610368565b90926119576120b1565b7f00000000000000000000000000000000000000000000000000000000000000006001600160a01b031690813b1561035257600080946119ce604051978896879586946332fb62e760e21b865261ffff8092166004870152166024850152604435604485015260806064850152608484019161258b565b03925af18015610746576119de57005b806119eb61049e92610bc8565b80610568565b6119fa36610395565b9161ffff86949296166000526005602052611a4181604060002060206040518092878b833787820190815203019020906001600160401b0316600052602052604060002090565b54918215611b0357611af28483611aeb7fc264d91f3adc5588250e1551f547752ca0cfa8f6b530d243b9f9f4cab10ea8e59a6000611ad784611abf8e8a8f611afe9f908f611aa590611a98611ab99436908d610c1c565b6020815191012014612796565b61ffff166000526005602052604060002090565b9161277d565b906001600160401b0316600052602052604060002090565b55611ae336878d610c1c565b933691610c1c565b9188612a91565b604051958695866127ec565b0390a1005b60405162461bcd60e51b815260206004820152602360248201527f4e6f6e626c6f636b696e674c7a4170703a206e6f2073746f726564206d65737360448201526261676560e81b6064820152608490fd5b34610352576040366003190112610352576020610d32600435611b768161074f565b60243590611b838261074f565b60018060a01b03166000526009835260406000209060018060a01b0316600052602052604060002090565b3461035257606036600319011261035257611bc7610341565b611bcf610357565b60443591611bdb6120b1565b8215611c5657611afe7f9d5c7c0b934da8fefa9c7760c98383778a12dfbfc0c3b3106518f43fb9508ac09361ffff8316600052600260205280611c308560406000209061ffff16600052602052604060002090565b556040519384938460409194939294606082019561ffff80921683521660208201520152565b60405162461bcd60e51b81526020600482015260156024820152744c7a4170703a20696e76616c6964206d696e47617360581b6044820152606490fd5b3461035257600036600319011261035257602060405160018152f35b34610352576020366003190112610352576004358015158091036103525760207f1584ad594a70cbe1e6515592e1272a987d922b097ead875069cebe8b40c004a491611cf96120b1565b60ff196006541660ff821617600655604051908152a1005b346103525761010036600319011261035257611d2b610341565b6001600160401b039060243582811161035257611d4c903690600401610368565b919060443590848216820361035257608435611d678161074f565b60c43595861161035257611d8261049e963690600401610368565b94909360e4359660a435946064359361294b565b3461035257611da436610a4a565b9190611dae6120b1565b60009161ffff81168352600160209080825260408520916001600160401b038711610bdb57611de787611de18554610f58565b856125c7565b8590601f8811600114611e4e575091868087989361176a957ffa41487ad5d6728f0b19276fa1eddc16558578f5109fc39d2dc33c3230470dab9993611e43575b501b906000198460031b1c1916179055604051938493846125ac565b880135925038611e27565b90601f198816611e6385600052602060002090565b9288905b828210611ec9575050918893917ffa41487ad5d6728f0b19276fa1eddc16558578f5109fc39d2dc33c3230470dab989961176a969410611eaf575b505082811b01905561175e565b870135600019600386901b60f8161c191690553880611ea2565b808685968294968c01358155019501930190611e67565b3461035257600036600319011261035257602060ff600654166040519015158152f35b3461035257602036600319011261035257600435611f208161074f565b611f286120b1565b6001600160a01b039081168015611f7657600080546001600160a01b03198116831782559092167f8be0079c531659141344cd1fd0a4f28419497f9722a3daafe3b4186f6b6457e08380a380f35b60405162461bcd60e51b815260206004820152602660248201527f4f776e61626c653a206e6577206f776e657220697320746865207a65726f206160448201526564647265737360d01b6064820152608490fd5b3461035257608036600319011261035257611fe3610341565b611feb610357565b90611ff760443561074f565b604051633d7b2f6f60e21b815261ffff91821660048201529116602482015230604482015260648035908201526000816084817f00000000000000000000000000000000000000000000000000000000000000006001600160a01b03165afa80156107465761062891600091612075575b50604051918291826105bb565b612090913d8091833e6120888183610be0565b810190612521565b38612068565b34610352576000366003190112610352576020604051308152f35b6000546001600160a01b031633036120c557565b606460405162461bcd60e51b815260206004820152602060248201527f4f776e61626c653a2063616c6c6572206973206e6f7420746865206f776e65726044820152fd5b634e487b7160e01b600052601160045260246000fd5b90601f8201809211610a4557565b6051019081605111610a4557565b91908201809211610a4557565b1561214f57565b60405162461bcd60e51b815260206004820152602360248201527f45524332303a207472616e7366657220746f20746865207a65726f206164647260448201526265737360e81b6064820152608490fd5b156121a757565b60405162461bcd60e51b815260206004820152602660248201527f45524332303a207472616e7366657220616d6f756e7420657863656564732062604482015265616c616e636560d01b6064820152608490fd5b916001600160a01b0380841692909183156122b057612295826000805160206138c6833981519152946122ab941696612235881515612148565b6001600160a01b038116600090815260086020526040902061227a90859054612260828210156121a0565b039160018060a01b03166000526008602052604060002090565b556001600160a01b0316600090815260086020526040902090565b8054820190556040519081529081906020820190565b0390a3565b60405162461bcd60e51b815260206004820152602560248201527f45524332303a207472616e736665722066726f6d20746865207a65726f206164604482015264647265737360d81b6064820152608490fd5b6001600160a01b0380821692919083156123dd57821693841561238d578061237c7f8c5be1e5ebec7d5bd14f71427d1e84f3dd0314c0f7b2291e5b200ac8c7c3b925946123656122ab9560018060a01b03166000526009602052604060002090565b9060018060a01b0316600052602052604060002090565b556040519081529081906020820190565b60405162461bcd60e51b815260206004820152602260248201527f45524332303a20617070726f766520746f20746865207a65726f206164647265604482015261737360f01b6064820152608490fd5b60405162461bcd60e51b8152602060048201526024808201527f45524332303a20617070726f76652066726f6d20746865207a65726f206164646044820152637265737360e01b6064820152608490fd5b6001600160a01b0380821660009081526009602090815260408083209386168352929052209091905492600184016124665750505050565b80841061248157612478930391612303565b38808080610fbf565b60405162461bcd60e51b815260206004820152601d60248201527f45524332303a20696e73756666696369656e7420616c6c6f77616e63650000006044820152606490fd5b156124cd57565b60405162461bcd60e51b815260206004820152602660248201527f4c7a4170703a20696e76616c696420736f757263652073656e64696e6720636f6044820152651b9d1c9858dd60d21b6064820152608490fd5b602081830312610352578051906001600160401b038211610352570181601f8201121561035257805161255381610c01565b926125616040519485610be0565b81845260208284010111610352576105cc9160208085019101610573565b6040513d6000823e3d90fd5b908060209392818452848401376000828201840152601f01601f1916010190565b60409061ffff6105cc9593168152816020820152019161258b565b90601f81116125d557505050565b600091825260208220906020601f850160051c83019410612611575b601f0160051c01915b82811061260657505050565b8181556001016125fa565b90925082906125f1565b601319810191908211610a4557565b605019810191908211610a4557565b9290916126ab5a604051633356ae4560e11b602082015261ffff8716602482015260806044820152906126a58261269761267660a483018a610596565b6001600160401b038816606484015282810360231901608484015288610596565b03601f198101845283610be0565b30613868565b9390156126ba575b5050505050565b6126c3946126cd565b38808080806126b3565b919361276a7fe183f33de2837795525b4792ca4cd60535bd77c53b7e7030060bfcf5734d6b0c95612778939561ffff8151602083012096169586600052600560205261273183610d1160208b60406000208260405194838680955193849201610573565b556001600160401b03612756604051988998895260a060208a015260a0890190610596565b921660408701528582036060870152610596565b908382036080850152610596565b0390a1565b6020919283604051948593843782019081520301902090565b1561279d57565b60405162461bcd60e51b815260206004820152602160248201527f4e6f6e626c6f636b696e674c7a4170703a20696e76616c6964207061796c6f616044820152601960fa1b6064820152608490fd5b916128189060609461ffff6001600160401b03949998979916855260806020860152608085019161258b565b951660408201520152565b903590601e198136030182121561035257018035906001600160401b0382116103525760200191813603831361035257565b9491959897906111f761287e604099612876612884976128a1993691610c1c565b943691610c1c565b976131d0565b928451968794859463040a7bb160e41b8652309060048701612a4d565b03817f00000000000000000000000000000000000000000000000000000000000000006001600160a01b03165afa9182156107465760009081936128e457509190565b90506103f891925060403d81116109e7576109d88183610be0565b9396949161292d906105cc99979461ffff6001600160401b039416875260c0602088015260c087019161258b565b961660408401526060830152608082015260a081850391015261258b565b919697929895949390943033036129f257612967908530613605565b60405181815290946001600160a01b03169390849061ffff8516907fbf551ec93859b170f9b2141bd9298bf3f64322c6f7beb2543a0cb669834118bf90602090a3833b156103525760009889956129d5936040519c8d9b8c9a8b98633fe79aed60e11b8a5260048a016128ff565b0393f18015610746576129e55750565b806119eb61104392610bc8565b60405162461bcd60e51b815260206004820152601f60248201527f4f4654436f72653a2063616c6c6572206d757374206265204f4654436f7265006044820152606490fd5b9190826040910312610352576020825192015190565b91926105cc959361ffff612a7c9316845260018060a01b0316602084015260a0604084015260a0830190610596565b92151560608201526080818403910152610596565b92919060ff612a9f8461380d565b1680612c195750505060ff612ab38261380d565b161580612c0e575b612ac4906132e7565b612ad6612ad0826137bd565b91613858565b90916001600160a01b039182841615612c04575b612b1e906001600160401b037f00000000000000000000000000000000000000000000000000000000000000009116613257565b918316928315612bbf577fbf551ec93859b170f9b2141bd9298bf3f64322c6f7beb2543a0cb669834118bf91612b7f61ffff92612b65612b6087600a5461213b565b600a55565b6001600160a01b0316600090815260086020526040902090565b8481540190558460006000805160206138c683398151915260405180612baa89829190602083019252565b0390a3604051938452169180602081016122ab565b60405162461bcd60e51b815260206004820152601f60248201527f45524332303a206d696e7420746f20746865207a65726f2061646472657373006044820152606490fd5b61dead9350612aea565b508051602914612abb565b600103612c295761104393612f15565b60405162461bcd60e51b815260206004820152601c60248201527f4f4654436f72653a20756e6b6e6f776e207061636b65742074797065000000006044820152606490fd5b15612c7557565b60405162461bcd60e51b815260206004820152601960248201527f4f4654436f72653a20616d6f756e7420746f6f20736d616c6c000000000000006044820152606490fd5b92612cdf6105cc97959361ffff612ced9416865260c0602087015260c0860190610596565b908482036040860152610596565b6001600160a01b0391821660608401529316608082015280830360a090910152610596565b94612d3b9193929561ffff81166000526001602052612d42604060002060405194858092610f92565b0384610be0565b825115612dba57612d54855182612e18565b7f00000000000000000000000000000000000000000000000000000000000000006001600160a01b031693843b1561035257600096612da991604051998a988997889662c5803160e81b885260048801612cba565b03925af18015610746576129e55750565b60405162461bcd60e51b815260206004820152603060248201527f4c7a4170703a2064657374696e6174696f6e20636861696e206973206e6f742060448201526f61207472757374656420736f7572636560801b6064820152608490fd5b61ffff166000526003602052604060002054908115612e7d575b11612e3957565b606460405162461bcd60e51b815260206004820152602060248201527f4c7a4170703a207061796c6f61642073697a6520697320746f6f206c617267656044820152fd5b6127109150612e32565b98979692936001600160401b03612eb960e0989461ffff612ee59995168d5260208d61010091829101528d0190610596565b951660408b015260608a01526001600160a01b0316608089015260a088015286820360c0880152610596565b930152565b6001600160401b03612f0a60409396959496606084526060840190610596565b951660208201520152565b9091612f20846133a0565b9091612f51612f4a87611abf612f448b61ffff166000526007602052604060002090565b8c610cae565b5460ff1690565b91612f876001600160401b0392837f00000000000000000000000000000000000000000000000000000000000000009116613257565b9288888b8315613083575b505050853b156130385794612fd996946126a5948a94612697948d996000146130315750505a925b5a978b6040519a8b9863757fea4d60e11b60208b015260248a01612e87565b901561302657509061302161ffff928560207fb8890edbfc1c74692f527444645f95489c3703cc2df42e4a366f5d06fa6cd88496975191012090604051948594169684612eea565b0390a2565b9261104394926126cd565b1692612fba565b50506040516001600160a01b039094168452507f9aedf5fdba8716db3b6705ca00150643309995d4f818a249ed6dde6677e7792d975091955085945050602084019250612778915050565b90611abf6130b8926130b28961309d6130c5979b306135a2565b9961ffff166000526007602052604060002090565b90610cae565b805460ff19166001179055565b88888b612f92565b60065460ff161561311a5760228251106111fe5761ffff60226110439301519116600052600260205261310d604060002060008052602052604060002090565b54906111c5821515613122565b505161128257565b1561312957565b60405162461bcd60e51b815260206004820152601a60248201527f4c7a4170703a206d696e4761734c696d6974206e6f74207365740000000000006044820152606490fd5b1561317557565b60405162461bcd60e51b815260206004820152601b60248201527f4c7a4170703a20676173206c696d697420697320746f6f206c6f7700000000006044820152606490fd5b634e487b7160e01b600052601260045260246000fd5b7f000000000000000000000000000000000000000000000000000000000000000090811561325257046001600160401b039081811161320d571690565b60405162461bcd60e51b815260206004820152601a60248201527f4f4654436f72653a20616d6f756e745344206f766572666c6f770000000000006044820152606490fd5b6131ba565b81810292918115918404141715610a4557565b7f0000000000000000000000000000000000000000000000000000000000000000801561325257810690818103908111610a455791565b90604051916000602084015260218301526001600160401b0360c01b9060c01b16604182015260298152606081018181106001600160401b03821117610bdb5760405290565b156132ee57565b60405162461bcd60e51b815260206004820152601860248201527f4f4654436f72653a20696e76616c6964207061796c6f616400000000000000006044820152606490fd5b93926071926105cc94604051968794600160f81b602087015260218601526001600160401b0360c01b809360c01b16604186015260018060a01b0316604985015260c01b1660698301526133908151809260208686019101610573565b8101036051810184520182610be0565b906133b8600160ff6133b18561380d565b16146132e7565b6133c1826137bd565b906133cb83613858565b90604984511061343c576049840151936051815110613400576133fd6051820151916133f7815161262a565b90613739565b91565b60405162461bcd60e51b8152602060048201526014602482015273746f55696e7436345f6f75744f66426f756e647360601b6044820152606490fd5b60405162461bcd60e51b8152602060048201526015602482015274746f427974657333325f6f75744f66426f756e647360581b6044820152606490fd5b6001600160a01b03811633810361353b575b80156134ec57816134c1846134b460009560018060a01b03166000526008602052604060002090565b546122608282101561354b565b556134cf83600a5403600a55565b6040518381526000805160206138c683398151915290602090a390565b60405162461bcd60e51b815260206004820152602160248201527f45524332303a206275726e2066726f6d20746865207a65726f206164647265736044820152607360f81b6064820152608490fd5b61354683338461242e565b61348b565b1561355257565b60405162461bcd60e51b815260206004820152602260248201527f45524332303a206275726e20616d6f756e7420657863656564732062616c616e604482015261636560f01b6064820152608490fd5b6001600160a01b03811691908215612bbf57600a5490828201809211610a45576000926135f66020926000805160206138c683398151915294600a5560018060a01b03166000526008602052604060002090565b818154019055604051908152a3565b6105cc9183916001600160a01b038116308114159081613631575b50156121fb576108af83338361242e565b905033141538613620565b1561364357565b60405162461bcd60e51b815260206004820152600e60248201526d736c6963655f6f766572666c6f7760901b6044820152606490fd5b1561368057565b60405162461bcd60e51b8152602060048201526011602482015270736c6963655f6f75744f66426f756e647360781b6044820152606490fd5b6136cd826136c68161211f565b101561363c565b6136da8282511015613679565b816136f2575050604051600081526020810160405290565b60405191601f811691821560051b808486010193838501920101905b8084106137265750508252601f01601f191660405290565b909283518152602080910193019061370e565b613746826136c68161211f565b61375b81516137548461212d565b1115613679565b81613773575050604051600081526020810160405290565b60405191601f8116916051831560051b80858701019484860193010101905b8084106137aa5750508252601f01601f191660405290565b9092835181526020809101930190613792565b60218151106137d057602d015160601c90565b60405162461bcd60e51b8152602060048201526015602482015274746f416464726573735f6f75744f66426f756e647360581b6044820152606490fd5b600181511061381d576001015190565b60405162461bcd60e51b8152602060048201526013602482015272746f55696e74385f6f75744f66426f756e647360681b6044820152606490fd5b6029815110613400576029015190565b6040519392909160009160c08601916001600160401b03831187841017610bdb5783926040526096875282602088019560a036883760208451940192f1903d90609682116138bc575b6000908286523e9190565b609691506138b156feddf252ad1be2c89b69c2b068fc378daa952ba7f163c4a11628f55a4df523b3efa2646970667358221220c8c4eb16aa3b3ece0d546e2bd796a0aa109275269073ba967106d3436d1d5e2864736f6c63430008130033","linkReferences":{}},"methodIdentifiers":{"DEFAULT_PAYLOAD_SIZE_LIMIT()":"c4461834","NO_EXTRA_GAS()":"44770515","PT_SEND()":"4c42899a","PT_SEND_AND_CALL()":"e6a20ae6","allowance(address,address)":"dd62ed3e","approve(address,uint256)":"095ea7b3","balanceOf(address)":"70a08231","callOnOFTReceived(uint16,bytes,uint64,bytes32,address,uint256,bytes,uint256)":"eaffd49a","circulatingSupply()":"9358928b","creditedPackets(uint16,bytes,uint64)":"9bdb9812","decimals()":"313ce567","decreaseAllowance(address,uint256)":"a457c2d7","estimateSendAndCallFee(uint16,bytes32,uint256,bytes,uint64,bool,bytes)":"a4c51df5","estimateSendFee(uint16,bytes32,uint256,bool,bytes)":"365260b4","failedMessages(uint16,bytes,uint64)":"5b8c41e6","forceResumeReceive(uint16,bytes)":"42d65a8d","getConfig(uint16,uint16,address,uint256)":"f5ecbdbc","getTrustedRemoteAddress(uint16)":"9f38369a","increaseAllowance(address,uint256)":"39509351","isTrustedRemote(uint16,bytes)":"3d8b38f6","lzEndpoint()":"b353aaa7","lzReceive(uint16,bytes,uint64,bytes)":"001d3567","minDstGasLookup(uint16,uint16)":"8cfd8f5c","name()":"06fdde03","nonblockingLzReceive(uint16,bytes,uint64,bytes)":"66ad5c8a","owner()":"8da5cb5b","payloadSizeLimitLookup(uint16)":"3f1f4fa4","precrime()":"950c8a74","renounceOwnership()":"715018a6","retryMessage(uint16,bytes,uint64,bytes)":"d1deba1f","sendAndCall(address,uint16,bytes32,uint256,bytes,uint64,(address,address,bytes))":"76203b48","sendFrom(address,uint16,bytes32,uint256,(address,address,bytes))":"695ef6bf","setConfig(uint16,uint16,uint256,bytes)":"cbed8b9c","setMinDstGas(uint16,uint16,uint256)":"df2a5b3b","setPayloadSizeLimit(uint16,uint256)":"0df37483","setPrecrime(address)":"baf3292d","setReceiveVersion(uint16)":"10ddb137","setSendVersion(uint16)":"07e0db17","setTrustedRemote(uint16,bytes)":"eb8d72b7","setTrustedRemoteAddress(uint16,bytes)":"a6c3d165","setUseCustomAdapterParams(bool)":"eab45d9c","sharedDecimals()":"857749b0","supportsInterface(bytes4)":"01ffc9a7","symbol()":"95d89b41","token()":"fc0c546a","totalSupply()":"18160ddd","transfer(address,uint256)":"a9059cbb","transferFrom(address,address,uint256)":"23b872dd","transferOwnership(address)":"f2fde38b","trustedRemoteLookup(uint16)":"7533d788","useCustomAdapterParams()":"ed629c5c"},"id":68}