{"abi":[{"type":"constructor","inputs":[{"name":"_lzEndpoint","type":"address","internalType":"address"},{"name":"_erc20","type":"address","internalType":"address"},{"name":"_yieldBox","type":"address","internalType":"contract IYieldBoxBase"},{"name":"_cluster","type":"address","internalType":"contract ICluster"},{"name":"_name","type":"string","internalType":"string"},{"name":"_symbol","type":"string","internalType":"string"},{"name":"_decimal","type":"uint8","internalType":"uint8"},{"name":"_hostChainID","type":"uint256","internalType":"uint256"}],"stateMutability":"nonpayable"},{"type":"receive","stateMutability":"payable"},{"type":"function","name":"DEFAULT_PAYLOAD_SIZE_LIMIT","inputs":[],"outputs":[{"name":"","type":"uint256","internalType":"uint256"}],"stateMutability":"view"},{"type":"function","name":"NO_EXTRA_GAS","inputs":[],"outputs":[{"name":"","type":"uint256","internalType":"uint256"}],"stateMutability":"view"},{"type":"function","name":"PT_SEND","inputs":[],"outputs":[{"name":"","type":"uint8","internalType":"uint8"}],"stateMutability":"view"},{"type":"function","name":"PT_SEND_AND_CALL","inputs":[],"outputs":[{"name":"","type":"uint8","internalType":"uint8"}],"stateMutability":"view"},{"type":"function","name":"SWAP_MAX_SLIPPAGE","inputs":[],"outputs":[{"name":"","type":"uint256","internalType":"uint256"}],"stateMutability":"view"},{"type":"function","name":"allowance","inputs":[{"name":"owner","type":"address","internalType":"address"},{"name":"spender","type":"address","internalType":"address"}],"outputs":[{"name":"","type":"uint256","internalType":"uint256"}],"stateMutability":"view"},{"type":"function","name":"approve","inputs":[{"name":"spender","type":"address","internalType":"address"},{"name":"amount","type":"uint256","internalType":"uint256"}],"outputs":[{"name":"","type":"bool","internalType":"bool"}],"stateMutability":"nonpayable"},{"type":"function","name":"balanceOf","inputs":[{"name":"account","type":"address","internalType":"address"}],"outputs":[{"name":"","type":"uint256","internalType":"uint256"}],"stateMutability":"view"},{"type":"function","name":"callOnOFTReceived","inputs":[{"name":"_srcChainId","type":"uint16","internalType":"uint16"},{"name":"_srcAddress","type":"bytes","internalType":"bytes"},{"name":"_nonce","type":"uint64","internalType":"uint64"},{"name":"_from","type":"bytes32","internalType":"bytes32"},{"name":"_to","type":"address","internalType":"address"},{"name":"_amount","type":"uint256","internalType":"uint256"},{"name":"_payload","type":"bytes","internalType":"bytes"},{"name":"_gasForCall","type":"uint256","internalType":"uint256"}],"outputs":[],"stateMutability":"nonpayable"},{"type":"function","name":"circulatingSupply","inputs":[],"outputs":[{"name":"","type":"uint256","internalType":"uint256"}],"stateMutability":"view"},{"type":"function","name":"cluster","inputs":[],"outputs":[{"name":"","type":"address","internalType":"contract ICluster"}],"stateMutability":"view"},{"type":"function","name":"creditedPackets","inputs":[{"name":"","type":"uint16","internalType":"uint16"},{"name":"","type":"bytes","internalType":"bytes"},{"name":"","type":"uint64","internalType":"uint64"}],"outputs":[{"name":"","type":"bool","internalType":"bool"}],"stateMutability":"view"},{"type":"function","name":"decimals","inputs":[],"outputs":[{"name":"","type":"uint8","internalType":"uint8"}],"stateMutability":"view"},{"type":"function","name":"decreaseAllowance","inputs":[{"name":"spender","type":"address","internalType":"address"},{"name":"subtractedValue","type":"uint256","internalType":"uint256"}],"outputs":[{"name":"","type":"bool","internalType":"bool"}],"stateMutability":"nonpayable"},{"type":"function","name":"erc20","inputs":[],"outputs":[{"name":"","type":"address","internalType":"address"}],"stateMutability":"view"},{"type":"function","name":"estimateSendAndCallFee","inputs":[{"name":"_dstChainId","type":"uint16","internalType":"uint16"},{"name":"_toAddress","type":"bytes32","internalType":"bytes32"},{"name":"_amount","type":"uint256","internalType":"uint256"},{"name":"_payload","type":"bytes","internalType":"bytes"},{"name":"_dstGasForCall","type":"uint64","internalType":"uint64"},{"name":"_useZro","type":"bool","internalType":"bool"},{"name":"_adapterParams","type":"bytes","internalType":"bytes"}],"outputs":[{"name":"nativeFee","type":"uint256","internalType":"uint256"},{"name":"zroFee","type":"uint256","internalType":"uint256"}],"stateMutability":"view"},{"type":"function","name":"estimateSendFee","inputs":[{"name":"_dstChainId","type":"uint16","internalType":"uint16"},{"name":"_toAddress","type":"bytes32","internalType":"bytes32"},{"name":"_amount","type":"uint256","internalType":"uint256"},{"name":"_useZro","type":"bool","internalType":"bool"},{"name":"_adapterParams","type":"bytes","internalType":"bytes"}],"outputs":[{"name":"nativeFee","type":"uint256","internalType":"uint256"},{"name":"zroFee","type":"uint256","internalType":"uint256"}],"stateMutability":"view"},{"type":"function","name":"failedMessages","inputs":[{"name":"","type":"uint16","internalType":"uint16"},{"name":"","type":"bytes","internalType":"bytes"},{"name":"","type":"uint64","internalType":"uint64"}],"outputs":[{"name":"","type":"bytes32","internalType":"bytes32"}],"stateMutability":"view"},{"type":"function","name":"forceResumeReceive","inputs":[{"name":"_srcChainId","type":"uint16","internalType":"uint16"},{"name":"_srcAddress","type":"bytes","internalType":"bytes"}],"outputs":[],"stateMutability":"nonpayable"},{"type":"function","name":"getConfig","inputs":[{"name":"_version","type":"uint16","internalType":"uint16"},{"name":"_chainId","type":"uint16","internalType":"uint16"},{"name":"","type":"address","internalType":"address"},{"name":"_configType","type":"uint256","internalType":"uint256"}],"outputs":[{"name":"","type":"bytes","internalType":"bytes"}],"stateMutability":"view"},{"type":"function","name":"getTrustedRemoteAddress","inputs":[{"name":"_remoteChainId","type":"uint16","internalType":"uint16"}],"outputs":[{"name":"","type":"bytes","internalType":"bytes"}],"stateMutability":"view"},{"type":"function","name":"hostChainID","inputs":[],"outputs":[{"name":"","type":"uint256","internalType":"uint256"}],"stateMutability":"view"},{"type":"function","name":"increaseAllowance","inputs":[{"name":"spender","type":"address","internalType":"address"},{"name":"addedValue","type":"uint256","internalType":"uint256"}],"outputs":[{"name":"","type":"bool","internalType":"bool"}],"stateMutability":"nonpayable"},{"type":"function","name":"isTrustedRemote","inputs":[{"name":"_srcChainId","type":"uint16","internalType":"uint16"},{"name":"_srcAddress","type":"bytes","internalType":"bytes"}],"outputs":[{"name":"","type":"bool","internalType":"bool"}],"stateMutability":"view"},{"type":"function","name":"leverageDown","inputs":[{"name":"module","type":"address","internalType":"address"},{"name":"_srcChainId","type":"uint16","internalType":"uint16"},{"name":"_srcAddress","type":"bytes","internalType":"bytes"},{"name":"_nonce","type":"uint64","internalType":"uint64"},{"name":"_payload","type":"bytes","internalType":"bytes"}],"outputs":[],"stateMutability":"nonpayable"},{"type":"function","name":"leverageDownInternal","inputs":[{"name":"module","type":"address","internalType":"address"},{"name":"amount","type":"uint256","internalType":"uint256"},{"name":"swapData","type":"tuple","internalType":"struct IUSDOBase.ILeverageSwapData","components":[{"name":"tokenOut","type":"address","internalType":"address"},{"name":"amountOutMin","type":"uint256","internalType":"uint256"},{"name":"data","type":"bytes","internalType":"bytes"}]},{"name":"externalData","type":"tuple","internalType":"struct IUSDOBase.ILeverageExternalContractsData","components":[{"name":"swapper","type":"address","internalType":"address"},{"name":"magnetar","type":"address","internalType":"address"},{"name":"tOft","type":"address","internalType":"address"},{"name":"srcMarket","type":"address","internalType":"address"}]},{"name":"lzData","type":"tuple","internalType":"struct IUSDOBase.ILeverageLZData","components":[{"name":"srcExtraGasLimit","type":"uint256","internalType":"uint256"},{"name":"lzSrcChainId","type":"uint16","internalType":"uint16"},{"name":"lzDstChainId","type":"uint16","internalType":"uint16"},{"name":"zroPaymentAddress","type":"address","internalType":"address"},{"name":"dstAirdropAdapterParam","type":"bytes","internalType":"bytes"},{"name":"srcAirdropAdapterParam","type":"bytes","internalType":"bytes"},{"name":"refundAddress","type":"address","internalType":"address"}]},{"name":"leverageFor","type":"address","internalType":"address"},{"name":"airdropAmount","type":"uint256","internalType":"uint256"}],"outputs":[],"stateMutability":"payable"},{"type":"function","name":"lzEndpoint","inputs":[],"outputs":[{"name":"","type":"address","internalType":"contract ILayerZeroEndpoint"}],"stateMutability":"view"},{"type":"function","name":"lzReceive","inputs":[{"name":"_srcChainId","type":"uint16","internalType":"uint16"},{"name":"_srcAddress","type":"bytes","internalType":"bytes"},{"name":"_nonce","type":"uint64","internalType":"uint64"},{"name":"_payload","type":"bytes","internalType":"bytes"}],"outputs":[],"stateMutability":"nonpayable"},{"type":"function","name":"minDstGasLookup","inputs":[{"name":"","type":"uint16","internalType":"uint16"},{"name":"","type":"uint16","internalType":"uint16"}],"outputs":[{"name":"","type":"uint256","internalType":"uint256"}],"stateMutability":"view"},{"type":"function","name":"name","inputs":[],"outputs":[{"name":"","type":"string","internalType":"string"}],"stateMutability":"view"},{"type":"function","name":"nonblockingLzReceive","inputs":[{"name":"_srcChainId","type":"uint16","internalType":"uint16"},{"name":"_srcAddress","type":"bytes","internalType":"bytes"},{"name":"_nonce","type":"uint64","internalType":"uint64"},{"name":"_payload","type":"bytes","internalType":"bytes"}],"outputs":[],"stateMutability":"nonpayable"},{"type":"function","name":"owner","inputs":[],"outputs":[{"name":"","type":"address","internalType":"address"}],"stateMutability":"view"},{"type":"function","name":"payloadSizeLimitLookup","inputs":[{"name":"","type":"uint16","internalType":"uint16"}],"outputs":[{"name":"","type":"uint256","internalType":"uint256"}],"stateMutability":"view"},{"type":"function","name":"precrime","inputs":[],"outputs":[{"name":"","type":"address","internalType":"address"}],"stateMutability":"view"},{"type":"function","name":"renounceOwnership","inputs":[],"outputs":[],"stateMutability":"nonpayable"},{"type":"function","name":"retryMessage","inputs":[{"name":"_srcChainId","type":"uint16","internalType":"uint16"},{"name":"_srcAddress","type":"bytes","internalType":"bytes"},{"name":"_nonce","type":"uint64","internalType":"uint64"},{"name":"_payload","type":"bytes","internalType":"bytes"}],"outputs":[],"stateMutability":"payable"},{"type":"function","name":"sendAndCall","inputs":[{"name":"_from","type":"address","internalType":"address"},{"name":"_dstChainId","type":"uint16","internalType":"uint16"},{"name":"_toAddress","type":"bytes32","internalType":"bytes32"},{"name":"_amount","type":"uint256","internalType":"uint256"},{"name":"_payload","type":"bytes","internalType":"bytes"},{"name":"_dstGasForCall","type":"uint64","internalType":"uint64"},{"name":"_callParams","type":"tuple","internalType":"struct ICommonOFT.LzCallParams","components":[{"name":"refundAddress","type":"address","internalType":"address payable"},{"name":"zroPaymentAddress","type":"address","internalType":"address"},{"name":"adapterParams","type":"bytes","internalType":"bytes"}]}],"outputs":[],"stateMutability":"payable"},{"type":"function","name":"sendFrom","inputs":[{"name":"_from","type":"address","internalType":"address"},{"name":"_dstChainId","type":"uint16","internalType":"uint16"},{"name":"_toAddress","type":"bytes32","internalType":"bytes32"},{"name":"_amount","type":"uint256","internalType":"uint256"},{"name":"_callParams","type":"tuple","internalType":"struct ICommonOFT.LzCallParams","components":[{"name":"refundAddress","type":"address","internalType":"address payable"},{"name":"zroPaymentAddress","type":"address","internalType":"address"},{"name":"adapterParams","type":"bytes","internalType":"bytes"}]}],"outputs":[],"stateMutability":"payable"},{"type":"function","name":"setConfig","inputs":[{"name":"_version","type":"uint16","internalType":"uint16"},{"name":"_chainId","type":"uint16","internalType":"uint16"},{"name":"_configType","type":"uint256","internalType":"uint256"},{"name":"_config","type":"bytes","internalType":"bytes"}],"outputs":[],"stateMutability":"nonpayable"},{"type":"function","name":"setMaxSlippage","inputs":[{"name":"_slippage","type":"uint256","internalType":"uint256"}],"outputs":[],"stateMutability":"nonpayable"},{"type":"function","name":"setMinDstGas","inputs":[{"name":"_dstChainId","type":"uint16","internalType":"uint16"},{"name":"_packetType","type":"uint16","internalType":"uint16"},{"name":"_minGas","type":"uint256","internalType":"uint256"}],"outputs":[],"stateMutability":"nonpayable"},{"type":"function","name":"setPayloadSizeLimit","inputs":[{"name":"_dstChainId","type":"uint16","internalType":"uint16"},{"name":"_size","type":"uint256","internalType":"uint256"}],"outputs":[],"stateMutability":"nonpayable"},{"type":"function","name":"setPrecrime","inputs":[{"name":"_precrime","type":"address","internalType":"address"}],"outputs":[],"stateMutability":"nonpayable"},{"type":"function","name":"setReceiveVersion","inputs":[{"name":"_version","type":"uint16","internalType":"uint16"}],"outputs":[],"stateMutability":"nonpayable"},{"type":"function","name":"setSendVersion","inputs":[{"name":"_version","type":"uint16","internalType":"uint16"}],"outputs":[],"stateMutability":"nonpayable"},{"type":"function","name":"setTrustedRemote","inputs":[{"name":"_srcChainId","type":"uint16","internalType":"uint16"},{"name":"_path","type":"bytes","internalType":"bytes"}],"outputs":[],"stateMutability":"nonpayable"},{"type":"function","name":"setTrustedRemoteAddress","inputs":[{"name":"_remoteChainId","type":"uint16","internalType":"uint16"},{"name":"_remoteAddress","type":"bytes","internalType":"bytes"}],"outputs":[],"stateMutability":"nonpayable"},{"type":"function","name":"setUseCustomAdapterParams","inputs":[{"name":"_useCustomAdapterParams","type":"bool","internalType":"bool"}],"outputs":[],"stateMutability":"nonpayable"},{"type":"function","name":"sharedDecimals","inputs":[],"outputs":[{"name":"","type":"uint8","internalType":"uint8"}],"stateMutability":"view"},{"type":"function","name":"supportsInterface","inputs":[{"name":"interfaceId","type":"bytes4","internalType":"bytes4"}],"outputs":[{"name":"","type":"bool","internalType":"bool"}],"stateMutability":"view"},{"type":"function","name":"symbol","inputs":[],"outputs":[{"name":"","type":"string","internalType":"string"}],"stateMutability":"view"},{"type":"function","name":"token","inputs":[],"outputs":[{"name":"","type":"address","internalType":"address"}],"stateMutability":"view"},{"type":"function","name":"totalSupply","inputs":[],"outputs":[{"name":"","type":"uint256","internalType":"uint256"}],"stateMutability":"view"},{"type":"function","name":"transfer","inputs":[{"name":"to","type":"address","internalType":"address"},{"name":"amount","type":"uint256","internalType":"uint256"}],"outputs":[{"name":"","type":"bool","internalType":"bool"}],"stateMutability":"nonpayable"},{"type":"function","name":"transferFrom","inputs":[{"name":"from","type":"address","internalType":"address"},{"name":"to","type":"address","internalType":"address"},{"name":"amount","type":"uint256","internalType":"uint256"}],"outputs":[{"name":"","type":"bool","internalType":"bool"}],"stateMutability":"nonpayable"},{"type":"function","name":"transferOwnership","inputs":[{"name":"newOwner","type":"address","internalType":"address"}],"outputs":[],"stateMutability":"nonpayable"},{"type":"function","name":"trustedRemoteLookup","inputs":[{"name":"","type":"uint16","internalType":"uint16"}],"outputs":[{"name":"","type":"bytes","internalType":"bytes"}],"stateMutability":"view"},{"type":"function","name":"useCustomAdapterParams","inputs":[],"outputs":[{"name":"","type":"bool","internalType":"bool"}],"stateMutability":"view"},{"type":"function","name":"yieldBox","inputs":[],"outputs":[{"name":"","type":"address","internalType":"contract IYieldBoxBase"}],"stateMutability":"view"},{"type":"event","name":"Approval","inputs":[{"name":"owner","type":"address","indexed":true,"internalType":"address"},{"name":"spender","type":"address","indexed":true,"internalType":"address"},{"name":"value","type":"uint256","indexed":false,"internalType":"uint256"}],"anonymous":false},{"type":"event","name":"CallOFTReceivedSuccess","inputs":[{"name":"_srcChainId","type":"uint16","indexed":true,"internalType":"uint16"},{"name":"_srcAddress","type":"bytes","indexed":false,"internalType":"bytes"},{"name":"_nonce","type":"uint64","indexed":false,"internalType":"uint64"},{"name":"_hash","type":"bytes32","indexed":false,"internalType":"bytes32"}],"anonymous":false},{"type":"event","name":"MessageFailed","inputs":[{"name":"_srcChainId","type":"uint16","indexed":false,"internalType":"uint16"},{"name":"_srcAddress","type":"bytes","indexed":false,"internalType":"bytes"},{"name":"_nonce","type":"uint64","indexed":false,"internalType":"uint64"},{"name":"_payload","type":"bytes","indexed":false,"internalType":"bytes"},{"name":"_reason","type":"bytes","indexed":false,"internalType":"bytes"}],"anonymous":false},{"type":"event","name":"NonContractAddress","inputs":[{"name":"_address","type":"address","indexed":false,"internalType":"address"}],"anonymous":false},{"type":"event","name":"OwnershipTransferred","inputs":[{"name":"previousOwner","type":"address","indexed":true,"internalType":"address"},{"name":"newOwner","type":"address","indexed":true,"internalType":"address"}],"anonymous":false},{"type":"event","name":"ReceiveFromChain","inputs":[{"name":"_srcChainId","type":"uint16","indexed":true,"internalType":"uint16"},{"name":"_to","type":"address","indexed":true,"internalType":"address"},{"name":"_amount","type":"uint256","indexed":false,"internalType":"uint256"}],"anonymous":false},{"type":"event","name":"RetryMessageSuccess","inputs":[{"name":"_srcChainId","type":"uint16","indexed":false,"internalType":"uint16"},{"name":"_srcAddress","type":"bytes","indexed":false,"internalType":"bytes"},{"name":"_nonce","type":"uint64","indexed":false,"internalType":"uint64"},{"name":"_payloadHash","type":"bytes32","indexed":false,"internalType":"bytes32"}],"anonymous":false},{"type":"event","name":"SendToChain","inputs":[{"name":"_dstChainId","type":"uint16","indexed":true,"internalType":"uint16"},{"name":"_from","type":"address","indexed":true,"internalType":"address"},{"name":"_toAddress","type":"bytes32","indexed":true,"internalType":"bytes32"},{"name":"_amount","type":"uint256","indexed":false,"internalType":"uint256"}],"anonymous":false},{"type":"event","name":"SetMinDstGas","inputs":[{"name":"_dstChainId","type":"uint16","indexed":false,"internalType":"uint16"},{"name":"_type","type":"uint16","indexed":false,"internalType":"uint16"},{"name":"_minDstGas","type":"uint256","indexed":false,"internalType":"uint256"}],"anonymous":false},{"type":"event","name":"SetPrecrime","inputs":[{"name":"precrime","type":"address","indexed":false,"internalType":"address"}],"anonymous":false},{"type":"event","name":"SetTrustedRemote","inputs":[{"name":"_remoteChainId","type":"uint16","indexed":false,"internalType":"uint16"},{"name":"_path","type":"bytes","indexed":false,"internalType":"bytes"}],"anonymous":false},{"type":"event","name":"SetTrustedRemoteAddress","inputs":[{"name":"_remoteChainId","type":"uint16","indexed":false,"internalType":"uint16"},{"name":"_remoteAddress","type":"bytes","indexed":false,"internalType":"bytes"}],"anonymous":false},{"type":"event","name":"SetUseCustomAdapterParams","inputs":[{"name":"_useCustomAdapterParams","type":"bool","indexed":false,"internalType":"bool"}],"anonymous":false},{"type":"event","name":"Transfer","inputs":[{"name":"from","type":"address","indexed":true,"internalType":"address"},{"name":"to","type":"address","indexed":true,"internalType":"address"},{"name":"value","type":"uint256","indexed":false,"internalType":"uint256"}],"anonymous":false},{"type":"error","name":"ActionTypeNotValid","inputs":[]},{"type":"error","name":"NotAuthorized","inputs":[]},{"type":"error","name":"NotValid","inputs":[]}],"bytecode":{"object":"0x60e0604090808252346200059f576200558b8038038091620000228285620005a4565b83398101610100828203126200059f576200003d82620005de565b906020926200004e848201620005de565b818601516001600160a01b03808216949290918590036200059f576060840151968288168098036200059f5760808501516001600160401b0394908581116200059f57816200009f91880162000618565b9060a0870151908682116200059f57620000bb91880162000618565b9160c087015160ff8116968782036200059f5762000116602b60e08f9b01519a5180966a546170696f63614f46542d60a81b878301526200010581518092898686019101620005f3565b810103600b810187520185620005a4565b607f8d518096601d60fa1b868301526200013a8151809288602186019101620005f3565b810103926200015460216001958681018a520188620005a4565b831c16936000958887549d60018060a01b03199e8f33908216178a55823391167f8be0079c531659141344cd1fd0a4f28419497f9722a3daafe3b4186f6b6457e08b80a3166080528560a05281518381116200058b57600b54928584811c9416801562000580575b878510146200056c578190601f9485811162000518575b508790858311600114620004b2578a92620004a6575b5050600019600383901b1c191690851b17600b555b80519283116200049257600c548481811c9116801562000487575b8682101462000473578281116200042a575b5084918311600114620003c4579282939183928894620003b8575b50501b916000199060031b1c191617600c555b6012821162000365575060120360ff8111620003515760ff1690604d82116200033d5750600a0a60c0526101f46012551684600f541617600f5560ff19601154161760115560105581600d541617600d55600e541617600e5551614f17908162000674823960805181818161049c01528181610782015281816108bf01528181610a2e01528181610bef01528181611c3c015281816120520152818161277301528181613f1401526143a2015260a051816116a9015260c051818181611e0101528181611f210152818161414401528181614595015281816147f3015261488d0152f35b634e487b7160e01b81526011600452602490fd5b634e487b7160e01b82526011600452602482fd5b6084908b519062461bcd60e51b82526004820152602760248201527f4f46543a20736861726564446563696d616c73206d757374206265203c3d20646044820152666563696d616c7360c81b6064820152fd5b01519250388062000246565b600c8752848720919083601f198116895b8888838310620004125750505010620003f8575b505050811b01600c5562000259565b015160001960f88460031b161c19169055388080620003e9565b868601518855909601959485019487935001620003d5565b600c88528588208380860160051c82019288871062000469575b0160051c019085905b8281106200045d5750506200022b565b8981550185906200044d565b9250819262000444565b634e487b7160e01b88526022600452602488fd5b90607f169062000219565b634e487b7160e01b87526041600452602487fd5b015190503880620001e9565b600b8b52888b208894509190601f1984168c5b8b828210620005015750508411620004e7575b505050811b01600b55620001fe565b015160001960f88460031b161c19169055388080620004d8565b8385015186558b97909501949384019301620004c5565b909150600b8a52878a208580850160051c8201928a861062000562575b918991869594930160051c01915b82811062000553575050620001d3565b8c815585945089910162000543565b9250819262000535565b634e487b7160e01b89526022600452602489fd5b93607f1693620001bc565b634e487b7160e01b88526041600452602488fd5b600080fd5b601f909101601f19168101906001600160401b03821190821017620005c857604052565b634e487b7160e01b600052604160045260246000fd5b51906001600160a01b03821682036200059f57565b60005b838110620006075750506000910152565b8181015183820152602001620005f6565b81601f820112156200059f5780516001600160401b038111620005c857604051926200064f601f8301601f191660200185620005a4565b818452602082840101116200059f57620006709160208085019101620005f3565b9056fe6080604052600436101561001b575b361561001957600080fd5b005b60003560e01c80621d3567146103bf57806254af3a146103ba57806301ffc9a7146103b557806306fdde03146103b057806307e0db17146103ab578063095ea7b3146103a65780630df37483146103a157806310ddb1371461039c57806318160ddd1461032e57806323b872dd14610397578063313ce56714610392578063365260b41461038d57806339509351146103885780633d8b38f6146103835780633f1f4fa41461037e57806342d65a8d1461037957806343f68a4914610374578063447705151461036f5780634c42899a1461036f5780635b8c41e61461036a57806366ad5c8a14610365578063695ef6bf1461036057806370a082311461035b578063715018a6146103565780637533d7881461035157806376203b481461034c578063785e9e86146103475780637e92ab3414610342578063857749b01461033d5780638cfd8f5c146103385780638da5cb5b146103335780639358928b1461032e578063950c8a741461032957806395d89b41146103245780639bdb98121461031f5780639f38369a1461031a578063a457c2d714610315578063a4c51df514610310578063a643c52e1461030b578063a6c3d16514610306578063a9059cbb14610301578063b353aaa7146102fc578063baf3292d146102f7578063bafb655d146102f2578063c4461834146102ed578063cbed8b9c146102e8578063d1deba1f146102e3578063dbd01de1146102de578063dd62ed3e146102d9578063de406577146102d4578063df2a5b3b146102cf578063e6a20ae6146102ca578063eab45d9c146102c5578063eaffd49a146102c0578063eb8d72b7146102bb578063ed629c5c146102b6578063f2fde38b146102b1578063f5ecbdbc146102ac5763fc0c546a0361000e576127dd565b612709565b612642565b61261f565b6124d5565b61244c565b6123ea565b6123ce565b6122e1565b6122b8565b61225e565b612235565b6120ea565b611ffe565b611fe1565b611cdb565b611c6b565b611c26565b611bfc565b611a79565b611a5b565b6119c4565b611906565b611863565b611818565b611771565b611748565b610920565b61171f565b6116cd565b61168f565b6115d2565b6114aa565b611268565b611211565b6110cb565b61108e565b610f99565b610f05565b610e9e565b610c77565b610c56565b610bd5565b610b9c565b610b40565b610aac565b6109a4565b61097e565b61093e565b610896565b610857565b610822565b610759565b610674565b6105c2565b6105a4565b610485565b61ffff8116036103d057565b600080fd5b35906103e0826103c4565b565b9181601f840112156103d0578235916001600160401b0383116103d057602083818601950101116103d057565b6001600160401b038116036103d057565b9060806003198301126103d057600435610439816103c4565b916001600160401b03906024358281116103d0578161045a916004016103e2565b9390939260443561046a8161040f565b926064359182116103d057610481916004016103e2565b9091565b346103d05761049336610420565b929493919291907f00000000000000000000000000000000000000000000000000000000000000006001600160a01b031633036105545761051961052192610019976105126104f86104f38a61ffff166000526001602052604060002090565b6111f6565b805190818414918261054a575b5081610527575b50613b98565b3691610de1565b923691610de1565b92613ca8565b9050610534368486610de1565b602081519101209060208151910120143861050c565b1515915038610505565b60405162461bcd60e51b815260206004820152601e60248201527f4c7a4170703a20696e76616c696420656e64706f696e742063616c6c657200006044820152606490fd5b60009103126103d057565b346103d05760003660031901126103d0576020601054604051908152f35b346103d05760203660031901126103d05760043563ffffffff60e01b81168091036103d057602090631f7ecdf760e01b8114908115610607575b506040519015158152f35b6301ffc9a760e01b149050386105fc565b60005b83811061062b5750506000910152565b818101518382015260200161061b565b9060209161065481518092818552858086019101610618565b601f01601f1916010190565b90602061067192818152019061063b565b90565b346103d057600080600319360112610756576040519080600b5461069781611126565b8085529160019180831690811561072c57506001146106d1575b6106cd856106c181870382610d2d565b60405191829182610660565b0390f35b9250600b83527f0175b7a638427703f0dbe7bb9bbf987a2551717b34e79f33b5b1008d1fa01db95b8284106107145750505081016020016106c1826106cd6106b1565b805460208587018101919091529093019281016106f9565b8695506106cd969350602092506106c194915060ff191682840152151560051b82010192936106b1565b80fd5b346103d0576000602036600319011261075657600435610778816103c4565b6107806136e4565b7f00000000000000000000000000000000000000000000000000000000000000006001600160a01b0316908290823b156107f457602461ffff918360405195869485936307e0db1760e01b85521660048401525af180156107ef576107e3575080f35b6107ec90610ca9565b80f35b612cc6565b5080fd5b6001600160a01b038116036103d057565b61010435906103e0826107f8565b35906103e0826107f8565b346103d05760403660031901126103d05761084c600435610842816107f8565b6024359033613920565b602060405160018152f35b346103d05760403660031901126103d05761ffff600435610877816103c4565b61087f6136e4565b166000526003602052602435604060002055600080f35b346103d05760006020366003190112610756576004356108b5816103c4565b6108bd6136e4565b7f00000000000000000000000000000000000000000000000000000000000000006001600160a01b0316908290823b156107f457602461ffff918360405195869485936310ddb13760e01b85521660048401525af180156107ef576107e3575080f35b346103d05760003660031901126103d0576020600a54604051908152f35b346103d05760603660031901126103d05761084c60043561095e816107f8565b60243561096a816107f8565b60443591610979833383613a4b565b613818565b346103d05760003660031901126103d057602060405160128152f35b801515036103d057565b346103d05760a03660031901126103d0576004356109c1816103c4565b606435906109ce8261099a565b608435906001600160401b0382116103d0576109f361051260409336906004016103e2565b90610a2a610a0d610a056044356147f1565b6024356148c2565b928451958694859463040a7bb160e41b8652309060048701614099565b03817f00000000000000000000000000000000000000000000000000000000000000006001600160a01b03165afa9081156107ef576000908192610a7b575b50604080519182526020820192909252f35b9050610a9e915060403d8111610aa5575b610a968183610d2d565b810190612de5565b9038610a69565b503d610a8c565b346103d05760403660031901126103d057600435610ac9816107f8565b3360009081526009602090815260408083206001600160a01b03851684529091529020546024358101809111610b035761084c9133613920565b612b57565b9060406003198301126103d057600435610b21816103c4565b91602435906001600160401b0382116103d057610481916004016103e2565b346103d057602061ffff610b8d610b5636610b08565b9390911660005260018452610b78610b7f604060002060405192838092611160565b0382610d2d565b848151910120923691610de1565b82815191012014604051908152f35b346103d05760203660031901126103d05761ffff600435610bbc816103c4565b1660005260036020526020604060002054604051908152f35b346103d057610be336610b08565b9190610bed6136e4565b7f00000000000000000000000000000000000000000000000000000000000000006001600160a01b031691823b156103d057604051928380926342d65a8d60e01b825281610c446000988997889460048501613c39565b03925af180156107ef576107e3575080f35b346103d05760203660031901126103d057610c6f6136e4565b600435601255005b346103d05760003660031901126103d057602060405160008152f35b634e487b7160e01b600052604160045260246000fd5b6001600160401b038111610cbc57604052565b610c93565b608081019081106001600160401b03821117610cbc57604052565b606081019081106001600160401b03821117610cbc57604052565b60c081019081106001600160401b03821117610cbc57604052565b604081019081106001600160401b03821117610cbc57604052565b90601f801991011681019081106001600160401b03821117610cbc57604052565b6040519060e082018281106001600160401b03821117610cbc57604052565b6040519060a082018281106001600160401b03821117610cbc57604052565b604051906103e082610cdc565b6040519061012082018281106001600160401b03821117610cbc57604052565b604051906103e082610cf7565b6001600160401b038111610cbc57601f01601f191660200190565b929192610ded82610dc6565b91610dfb6040519384610d2d565b8294818452818301116103d0578281602093846000960137010152565b9080601f830112156103d05781602061067193359101610de1565b9060606003198301126103d057600435610e4c816103c4565b91602435906001600160401b0382116103d057610e6b91600401610e18565b906044356106718161040f565b602090610e92928260405194838680955193849201610618565b82019081520301902090565b346103d0576020610efc61ffff610edb83610eb836610e33565b949091166000526005825260406000208260405194838680955193849201610618565b820190815203019020906001600160401b0316600052602052604060002090565b54604051908152f35b346103d057610f1336610420565b9192949390303303610f3757610519610f3192610019973691610de1565b926140dd565b60405162461bcd60e51b815260206004820152602660248201527f4e6f6e626c6f636b696e674c7a4170703a2063616c6c6572206d7573742062656044820152650204c7a4170760d41b6064820152608490fd5b908160609103126103d05790565b60a03660031901126103d057600435610fb1816107f8565b602435610fbd816103c4565b604435916084356001600160401b0381116103d057602061ffff6110067fd81fc9b8523134ed613870ed029d6170cbb73aa6a6bc311b9a642689fb9df59a933690600401610f8b565b936110798535611015816107f8565b61103361051286890135986110298a6107f8565b6040810190613e92565b61103d818a6146ee565b61105261104b60643561488b565b5085614a87565b9761105e8915156142ba565b61107061106a8a6147f1565b8c6148c2565b9234938b61435e565b6040519485526001600160a01b0316941692a4005b346103d05760203660031901126103d0576004356110ab816107f8565b60018060a01b031660005260086020526020604060002054604051908152f35b346103d057600080600319360112610756576110e56136e4565b80546001600160a01b03198116825581906001600160a01b03167f8be0079c531659141344cd1fd0a4f28419497f9722a3daafe3b4186f6b6457e08280a380f35b90600182811c92168015611156575b602083101461114057565b634e487b7160e01b600052602260045260246000fd5b91607f1691611135565b906000929180549161117183611126565b9182825260019384811690816000146111d35750600114611193575b50505050565b90919394506000526020928360002092846000945b8386106111bf57505050500101903880808061118d565b8054858701830152940193859082016111a8565b9294505050602093945060ff191683830152151560051b0101903880808061118d565b906103e061120a9260405193848092611160565b0383610d2d565b346103d05760203660031901126103d05761ffff600435611231816103c4565b1660005260016020526106cd610b78611254604060002060405192838092611160565b60405191829160208352602083019061063b565b60e03660031901126103d057600435611280816107f8565b60243561128c816103c4565b604435916001600160401b03906084358281116103d0576112b19036906004016103e2565b91909260a435916112c18361040f565b60c4358281116103d0576112d9903690600401610f8b565b926113108435956112e9876107f8565b6113086112fe602088013597611029896107f8565b9990923691610de1565b973691610de1565b9460ff600654166000146114175760228651106113d25785602095611070611079946113a08c61138d61ffff9a8b60227fd81fc9b8523134ed613870ed029d6170cbb73aa6a6bc311b9a642689fb9df59a9f0151931660005260028d52841661138760406000206001600052602052604060002090565b54613758565b90611399821515614743565b101561478f565b6113b56113ae60643561488b565b5088614a87565b9a6113c18c15156142ba565b8d6113cb8d6147f1565b9033614941565b60405162461bcd60e51b815260206004820152601c60248201527f4c7a4170703a20696e76616c69642061646170746572506172616d73000000006044820152606490fd5b948094935051611456577fd81fc9b8523134ed613870ed029d6170cbb73aa6a6bc311b9a642689fb9df59a9460209461ffff94611070611079946113a0565b60405162461bcd60e51b815260206004820152602660248201527f4f4654436f72653a205f61646170746572506172616d73206d7573742062652060448201526532b6b83a3c9760d11b6064820152608490fd5b346103d05760003660031901126103d057600f546040516001600160a01b039091168152602090f35b60809060631901126103d057604051906114ec82610cc1565b816064356114f9816107f8565b8152608435611507816107f8565b602082015260a435611518816107f8565b6040820152606060c4359161152c836107f8565b0152565b91909160e0818403126103d057611545610d4e565b9281358452611556602083016103d5565b6020850152611567604083016103d5565b604085015261157860608301610817565b60608501526001600160401b039160808101358381116103d0578261159e918301610e18565b608086015260a08101359283116103d0576115c060c0926115cb948301610e18565b60a086015201610817565b60c0830152565b600319610140368201126103d0576004356115ec816107f8565b6044356001600160401b03928382116103d05760609082360301126103d0576040519061161882610cdc565b8060040135611626816107f8565b8252602481013560208301526044810135908482116103d057600461164e9236920101610e18565b604082015261165c366114d3565b60e4359384116103d057611677610019943690600401611530565b90611680610809565b92610124359460243590613165565b346103d05760003660031901126103d057602060405160ff7f0000000000000000000000000000000000000000000000000000000000000000168152f35b346103d05760403660031901126103d0576020610efc6004356116ef816103c4565b61ffff602435916116ff836103c4565b166000526002835260406000209061ffff16600052602052604060002090565b346103d05760003660031901126103d0576000546040516001600160a01b039091168152602090f35b346103d05760003660031901126103d0576004546040516001600160a01b039091168152602090f35b346103d057600080600319360112610756576040519080600c5461179481611126565b8085529160019180831690811561072c57506001146117bd576106cd856106c181870382610d2d565b9250600c83527fdf6966c971051c3d54ec59162606531493a51404a002842f56009d7e5cf4a8c75b8284106118005750505081016020016106c1826106cd6106b1565b805460208587018101919091529093019281016117e5565b346103d057602060ff61185761ffff610edb8461183436610e33565b949091166000526007825260406000208260405194838680955193849201610618565b54166040519015158152f35b346103d05760203660031901126103d05761ffff600435611883816103c4565b166000526001602052610b786118a3604060002060405192838092611160565b8051156118c1576106c1816118bb6106cd9351612b6d565b90614cc7565b60405162461bcd60e51b815260206004820152601d60248201527f4c7a4170703a206e6f20747275737465642070617468207265636f72640000006044820152606490fd5b346103d05760403660031901126103d057600435611923816107f8565b602435903360005260096020526119508160406000209060018060a01b0316600052602052604060002090565b54918083106119715761196592039033613920565b60405160018152602090f35b60405162461bcd60e51b815260206004820152602560248201527f45524332303a2064656372656173656420616c6c6f77616e63652062656c6f77604482015264207a65726f60d81b6064820152608490fd5b346103d05760e03660031901126103d0576004356119e1816103c4565b6001600160401b03906064358281116103d057611a029036906004016103e2565b608492919235611a118161040f565b60a43591611a1e8361099a565b60c4359586116103d057611a39611a499636906004016103e2565b9590946044359060243590613ec4565b60408051928352602083019190915290f35b346103d05760003660031901126103d0576020601254604051908152f35b346103d057611a8736610b08565b90611a906136e4565b60405192602092808385870137611abc6034868381013060601b88820152036014810188520186610d2d565b60009361ffff8316855260019081815260408620918751916001600160401b038311610cbc57611af683611af08654611126565b86613c54565b80601f8411600114611b66575091808092611b559695948a9b7f8c0400cfe2d1199b1a725c78960bcc2a344d869b80590d0f2bd005db15a572ce9b94611b5b575b50501b916000199060031b1c19161790555b60405193849384613c39565b0390a180f35b015192503880611b37565b91939498601f198416611b7e87600052602060002090565b938a905b828210611be5575050917f8c0400cfe2d1199b1a725c78960bcc2a344d869b80590d0f2bd005db15a572ce999a95939185611b5598969410611bcc575b505050811b019055611b49565b015160001960f88460031b161c19169055388080611bbf565b808886978294978701518155019601940190611b82565b346103d05760403660031901126103d05761084c600435611c1c816107f8565b6024359033613818565b346103d05760003660031901126103d0576040517f00000000000000000000000000000000000000000000000000000000000000006001600160a01b03168152602090f35b346103d05760203660031901126103d0577f5db758e995a17ec1ad84bdef7e8c3293a0bd6179bcce400dff5d4c3d87db726b6020600435611cab816107f8565b611cb36136e4565b600480546001600160a01b0319166001600160a01b03929092169182179055604051908152a1005b346103d05760a03660031901126103d057600435611cf8816107f8565b602435611d04816103c4565b6001600160401b036044358181116103d057611d24903690600401610e18565b60643591611d318361040f565b6084358181116103d057611d49903690600401610e18565b303314801590611f90575b611f7e5784938482611d7060208a955183010160208301612948565b99965090945060018060a09b959b9493941b03169d8e9a8c8b88611da63060018060a01b03166000526008602052604060002090565b549b611df6611df2611deb84611dd3611dcd8661ffff166000526007602052604060002090565b89610e78565b906001600160401b0316600052602052604060002090565b5460ff1690565b1590565b611f09575b505050507f00000000000000000000000000000000000000000000000000000000000000009a16988b611e2e8c8c614878565b966040519586956020870199631fa4aacd60e21b8b526024880196611e5297612a84565b03601f1981018252611e649082610d2d565b515a92600093928493f496611e77612b27565b97159861ffff98611eb5987fbf551ec93859b170f9b2141bd9298bf3f64322c6f7beb2543a0cb669834118bf9b611ec4575b50505050505050614878565b604051908152921691602090a3005b306000908152600860205260409020611efd97611ee19154612b8b565b611eeb8a8a614878565b1115611ef78a8a614878565b90612b98565b3880808089818c611ea9565b611f7493611f61611dd392611f4d611f47611f67978a7f00000000000000000000000000000000000000000000000000000000000000009116614878565b30614bb0565b61ffff166000526007602052604060002090565b90610e78565b805460ff19166001179055565b8c8b8f8990611dfb565b60405163ea8e4eb560e01b8152600490fd5b5060036000526013602052611fcd7f0d2a6872ef858a7f8ead18dc4f3f2e8d35c853d47e2816cbb9cdd49202554e0c5b546001600160a01b031690565b6001600160a01b0387811691161415611d54565b346103d05760003660031901126103d05760206040516127108152f35b346103d05760803660031901126103d05760043561201b816103c4565b602435612027816103c4565b6064356001600160401b0381116103d0576120469036906004016103e2565b90926120506136e4565b7f00000000000000000000000000000000000000000000000000000000000000006001600160a01b031690813b156103d057600080946120c7604051978896879586946332fb62e760e21b865261ffff80921660048701521660248501526044356044850152608060648501526084840191613c18565b03925af180156107ef576120d757005b806120e461001992610ca9565b80610599565b6120f336610420565b9161ffff8694929616600052600560205261213a81604060002060206040518092878b833787820190815203019020906001600160401b0316600052602052604060002090565b549182156121e4576121d384836121cc7fc264d91f3adc5588250e1551f547752ca0cfa8f6b530d243b9f9f4cab10ea8e59a60006121b884611dd38e8a8f6121df9f908f61219e906121916121b29436908d610de1565b6020815191012014613e05565b61ffff166000526005602052604060002090565b91613dec565b556121c436878d610de1565b933691610de1565b91886140dd565b60405195869586613e5b565b0390a1005b60405162461bcd60e51b815260206004820152602360248201527f4e6f6e626c6f636b696e674c7a4170703a206e6f2073746f726564206d65737360448201526261676560e81b6064820152608490fd5b346103d05760003660031901126103d057600e546040516001600160a01b039091168152602090f35b346103d05760403660031901126103d0576020610efc600435612280816107f8565b6024359061228d826107f8565b60018060a01b03166000526009835260406000209060018060a01b0316600052602052604060002090565b346103d05760003660031901126103d057600d546040516001600160a01b039091168152602090f35b346103d05760603660031901126103d0576004356122fe816103c4565b60243561230a816103c4565b604435916123166136e4565b8215612391576121df7f9d5c7c0b934da8fefa9c7760c98383778a12dfbfc0c3b3106518f43fb9508ac09361ffff831660005260026020528061236b8560406000209061ffff16600052602052604060002090565b556040519384938460409194939294606082019561ffff80921683521660208201520152565b60405162461bcd60e51b81526020600482015260156024820152744c7a4170703a20696e76616c6964206d696e47617360581b6044820152606490fd5b346103d05760003660031901126103d057602060405160018152f35b346103d05760203660031901126103d0577f1584ad594a70cbe1e6515592e1272a987d922b097ead875069cebe8b40c004a4602060043561242a8161099a565b6124326136e4565b151560ff196006541660ff821617600655604051908152a1005b346103d0576101003660031901126103d05760043561246a816103c4565b6001600160401b03906024358281116103d05761248b9036906004016103e2565b91906044359061249a8261040f565b6084356124a6816107f8565b60c4359586116103d0576124c16100199636906004016103e2565b94909360e4359660a4359460643593613fba565b346103d0576124e336610b08565b91906124ed6136e4565b60009161ffff81168352600160209080825260408520916001600160401b038711610cbc57612526876125208554611126565b85613c54565b8590601f881160011461258d5750918680879893611b55957ffa41487ad5d6728f0b19276fa1eddc16558578f5109fc39d2dc33c3230470dab9993612582575b501b906000198460031b1c191617905560405193849384613c39565b880135925038612566565b90601f1988166125a285600052602060002090565b9288905b828210612608575050918893917ffa41487ad5d6728f0b19276fa1eddc16558578f5109fc39d2dc33c3230470dab9899611b559694106125ee575b505082811b019055611b49565b870135600019600386901b60f8161c1916905538806125e1565b808685968294968c013581550195019301906125a6565b346103d05760003660031901126103d057602060ff600654166040519015158152f35b346103d05760203660031901126103d05760043561265f816107f8565b6126676136e4565b6001600160a01b0390811680156126b557600080546001600160a01b03198116831782559092167f8be0079c531659141344cd1fd0a4f28419497f9722a3daafe3b4186f6b6457e08380a380f35b60405162461bcd60e51b815260206004820152602660248201527f4f776e61626c653a206e6577206f776e657220697320746865207a65726f206160448201526564647265737360d01b6064820152608490fd5b346103d05760803660031901126103d057600435612726816103c4565b60243590612733826103c4565b61273e6044356107f8565b604051633d7b2f6f60e21b815261ffff91821660048201529116602482015230604482015260648035908201526000816084817f00000000000000000000000000000000000000000000000000000000000000006001600160a01b03165afa80156107ef576106cd916000916127bc575b5060405191829182610660565b6127d7913d8091833e6127cf8183610d2d565b810190613bf3565b386127af565b346103d05760003660031901126103d0576020604051308152f35b51906103e0826103c4565b51906103e0826107f8565b81601f820112156103d057805161282481610dc6565b926128326040519485610d2d565b818452602082840101116103d0576106719160208085019101610618565b91908260809103126103d05760405161286881610cc1565b60608082948051612878816107f8565b84526020810151612888816107f8565b6020850152604081015161289b816107f8565b604085015201519161152c836107f8565b91909160e0818403126103d0576128c1610d4e565b92815184526128d2602083016127f8565b60208501526128e3604083016127f8565b60408501526128f460608301612803565b60608501526080820151916001600160401b03928381116103d0578261291b91830161280e565b608086015260a08101519283116103d05761293d60c0926115cb94830161280e565b60a086015201612803565b91610160838303126103d057825161295f816103c4565b9260208101519260408201516129748161040f565b926060830151926001600160401b03938481116103d05781016060818503126103d057604051906129a482610cdc565b80516129af816107f8565b8252602081015160208301526040810151908682116103d0576129d49186910161280e565b6040820152936129e78460808401612850565b936101008301519182116103d057612a009183016128ac565b91610140612a116101208401612803565b92015190565b908151815261ffff806020840151166020830152604083015116604082015260c060018060a01b0380606085015116606084015281612a7a612a68608087015160e0608088015260e087019061063b565b60a087015186820360a088015261063b565b9401511691015290565b939094610120956060612ade604061152c97612b14979d9c9b9d60018060a01b038096168b5260208b015261014080838c015285825116908b015260208101516101608b01520151826101808a01526101a089019061063b565b9382815116828901528260208201511660808901528260408201511660a089015201511660c086015284820360e0860152612a17565b6001600160a01b03909616610100830152565b3d15612b52573d90612b3882610dc6565b91612b466040519384610d2d565b82523d6000602084013e565b606090565b634e487b7160e01b600052601160045260246000fd5b601319810191908211610b0357565b605019810191908211610b0357565b91908203918211610b0357565b979694929593919097612bb2575b506103e0959650613d3c565b60405163a9059cbb60e01b60208083019182526001600160a01b0393909316602483015260448083019a909a529881529097612c4391906000908190612bf9606485610d2d565b60405193612c0685610d12565b8c85527f5361666545524332303a206c6f772d6c6576656c2063616c6c206661696c65648d860152519082305af1612c3c612b27565b9030613ae3565b805180612c51575b50612ba6565b908880612c62938301019101612cd2565b15612c6e578680612c4b565b60405162461bcd60e51b815260048101889052602a60248201527f5361666545524332303a204552433230206f7065726174696f6e20646964206e6044820152691bdd081cdd58d8d9595960b21b6064820152608490fd5b6040513d6000823e3d90fd5b908160209103126103d057516106718161099a565b91908260409103126103d057604051604081018181106001600160401b03821117610cbc5760405260208082948051612d1f8161099a565b845201519161152c8361099a565b908181039161014083126103d057604091825193612d4a85610cdc565b608081126103d0576080908451612d6081610cc1565b8451612d6b816107f8565b81526020850151602082015285850151612d84816107f8565b86820152606085015160608201528652607f1901126103d057610100612dde928451612daf81610cc1565b6080820151815260a0820151602082015260c08201518682015260e08201516060820152602087015201612ce7565b9082015290565b91908260409103126103d0576020825192015190565b91926106719493612e796040612e90946060815160018060a01b03808251168a52602082015160208b01528482015116848a01520151606088015260606020820151805160808a0152602081015160a08a01528381015160c08a0152015160e088015201516101008601906020809180511515845201511515910152565b6101408401526001600160a01b0316610160830152565b6101a09081610180820152019061063b565b60405190612eaf82610d12565b6002825261060f60f31b6020830152565b60608051808352602080930192608080936000915b848310612ee55750505050505090565b909192939495846101c06001928951612f0082825115159052565b80840151151582850152604081810151151590830152808701511515828801528086015161ffff168287015260a0818101516001600160a01b03169083015260c08181015115159083015260e0818101516001600160a01b031690830152610100818101516001600160a01b031690830152610120818101519083015261014080820151908301526101608082015160ff169083015261018081810151908301526101a09081015190820152019701959493019190612ed5565b908151151581526020820151602082015260408201511515604082015261ffff606083015116606082015260a080613001608085015160c0608086015260c085019061063b565b930151151591015290565b9592916106719795916131569561ffff6131229560018060a01b038095818096168d521660208c01521660408a0152166060880152815115156080880152602082015160a0880152604082015160c088015260608201511660e0870152608081015190613086610100928389019060018060a01b03169052565b60a0810151151561012088015260c081015161014088015260e08101518051151561016089015260208101516001600160a01b031661018089015260408101516fffffffffffffffffffffffffffffffff9081166101a08a01526060820151166101c0890152608001516101e088015201518051151561020087015260208101516001600160a01b031661022087015260400151610240860152565b6131476131396102e0806102608801528601612ec0565b858103610280870152612ec0565b908482036102a0860152612fba565b916102c081840391015261063b565b95909491929530331415908161369a575b50611f7e57303b156103d057604080516339f4769360e01b8152306004808301919091526024820188905260009790929188818060448101038183305af180156107ef57613687575b5088516001600160a01b0396908716806135ef575b50600f548a9088166001600160a01b03168a816134cf575b50505161327397839161321590613209906001600160a01b031681565b6001600160a01b031690565b600f5484518751631fd177af60e11b81526001600160a01b03928316818b0181815292909316602083015260408201979097526000606082018190526080820181905260a0820152959a90956101409283928d928391829160c00190565b03915afa998a156107ef578d918d9b61348a575b5050518592879290916132a490613209906001600160a01b031681565b951661348257935b6020948585015190848601519b6132d886519d8e968795869463efa84c6d60e01b865230928601612dfb565b03925af19687156107ef578997613456575b505161330090613209906001600160a01b031681565b9561340a613312838a015161ffff1690565b60608a01519099908b906001600160a01b03169c6133bf61334f60606133408985015160018060a01b031690565b9301516001600160a01b031690565b6133af61335a610d6d565b93858552858a860152858b86015285606086015285608086015261337c610d8c565b95808752808b880152808c880152613392610d99565b60018152998a8c01528b8a01526001600160a01b03166060890152565b6001600160a01b03166080870152565b8c60a08601528c60c086015260e08501526101008401528a6133df610db9565b948186528501528a858501528a60608501526133f9612ea2565b60808501528a60a085015251613b78565b92873b156134525790613434939291519a8b998a988997630ff5c49b60e11b89523090890161300c565b03925af180156107ef576134455750565b806120e46103e092610ca9565b8980fd5b61330091975061320961347861320992863d8811610aa557610a968183610d2d565b50989250506132ea565b508a936132ac565b8794929b506132096132096134ba8b9694846132a495903d106134c8575b6134b28183610d2d565b810190612d2d565b9d9496505050819350613287565b503d6134a8565b9151855163095ea7b360e01b8082526001600160a01b0390921688820190815260006020808301919091529b9294929391928c9284928390036040019183915af19283156107ef578d888e8d9489976135d2575b50600f5461354d9061353f90613209906001600160a01b031681565b93516001600160a01b031690565b8a519485526001600160a01b0316918401918252602082019690965291948592839190829060400103925af19182156107ef576132096132098e6132739c6132159489976135a4575b50509450505050978a6131ec565b816135c392903d106135cb575b6135bb8183610d2d565b810190612cd2565b503880613596565b503d6135b1565b6135e890863d88116135cb576135bb8183610d2d565b5038613523565b600e5461363c9160209161360b906001600160a01b0316613209565b8651633a304d8b60e21b815260008982019081526001600160a01b0390931660208401529384928391829160400190565b03915afa9081156107ef578a91613669575b501561365a57386131d4565b50505163ea8e4eb560e01b8152fd5b613681915060203d81116135cb576135bb8183610d2d565b3861364e565b806120e461369492610ca9565b386131bf565b6003600052601360205290506136cf7f0d2a6872ef858a7f8ead18dc4f3f2e8d35c853d47e2816cbb9cdd49202554e0c611fc0565b6001600160a01b039081169116141538613176565b6000546001600160a01b031633036136f857565b606460405162461bcd60e51b815260206004820152602060248201527f4f776e61626c653a2063616c6c6572206973206e6f7420746865206f776e65726044820152fd5b90601f8201809211610b0357565b6051019081605111610b0357565b91908201809211610b0357565b1561376c57565b60405162461bcd60e51b815260206004820152602360248201527f45524332303a207472616e7366657220746f20746865207a65726f206164647260448201526265737360e81b6064820152608490fd5b156137c457565b60405162461bcd60e51b815260206004820152602660248201527f45524332303a207472616e7366657220616d6f756e7420657863656564732062604482015265616c616e636560d01b6064820152608490fd5b916001600160a01b0380841692909183156138cd576138b282600080516020614ec2833981519152946138c8941696613852881515613765565b6001600160a01b03811660009081526008602052604090206138979085905461387d828210156137bd565b039160018060a01b03166000526008602052604060002090565b556001600160a01b0316600090815260086020526040902090565b8054820190556040519081529081906020820190565b0390a3565b60405162461bcd60e51b815260206004820152602560248201527f45524332303a207472616e736665722066726f6d20746865207a65726f206164604482015264647265737360d81b6064820152608490fd5b6001600160a01b0380821692919083156139fa5782169384156139aa57806139997f8c5be1e5ebec7d5bd14f71427d1e84f3dd0314c0f7b2291e5b200ac8c7c3b925946139826138c89560018060a01b03166000526009602052604060002090565b9060018060a01b0316600052602052604060002090565b556040519081529081906020820190565b60405162461bcd60e51b815260206004820152602260248201527f45524332303a20617070726f766520746f20746865207a65726f206164647265604482015261737360f01b6064820152608490fd5b60405162461bcd60e51b8152602060048201526024808201527f45524332303a20617070726f76652066726f6d20746865207a65726f206164646044820152637265737360e01b6064820152608490fd5b6001600160a01b038082166000908152600960209081526040808320938616835292905220909190549260018401613a835750505050565b808410613a9e57613a95930391613920565b3880808061118d565b60405162461bcd60e51b815260206004820152601d60248201527f45524332303a20696e73756666696369656e7420616c6c6f77616e63650000006044820152606490fd5b91929015613b455750815115613af7575090565b3b15613b005790565b60405162461bcd60e51b815260206004820152601d60248201527f416464726573733a2063616c6c20746f206e6f6e2d636f6e74726163740000006044820152606490fd5b825190915015613b585750805190602001fd5b60405162461bcd60e51b8152908190613b749060048301610660565b0390fd5b60405190600160f01b602083015260228201526022815261067181610cdc565b15613b9f57565b60405162461bcd60e51b815260206004820152602660248201527f4c7a4170703a20696e76616c696420736f757263652073656e64696e6720636f6044820152651b9d1c9858dd60d21b6064820152608490fd5b906020828203126103d05781516001600160401b0381116103d057610671920161280e565b908060209392818452848401376000828201840152601f01601f1916010190565b60409061ffff61067195931681528160208201520191613c18565b90601f8111613c6257505050565b600091825260208220906020601f850160051c83019410613c9e575b601f0160051c01915b828110613c9357505050565b818155600101613c87565b9092508290613c7e565b929091613d1a5a604051633356ae4560e11b602082015261ffff871660248201526080604482015290613d1482613d06613ce560a483018a61063b565b6001600160401b03881660648401528281036023190160848401528861063b565b03601f198101845283610d2d565b30614e76565b939015613d29575b5050505050565b613d3294613d3c565b3880808080613d22565b9193613dd97fe183f33de2837795525b4792ca4cd60535bd77c53b7e7030060bfcf5734d6b0c95613de7939561ffff81516020830120961695866000526005602052613da083610edb60208b60406000208260405194838680955193849201610618565b556001600160401b03613dc5604051988998895260a060208a015260a089019061063b565b92166040870152858203606087015261063b565b90838203608085015261063b565b0390a1565b6020919283604051948593843782019081520301902090565b15613e0c57565b60405162461bcd60e51b815260206004820152602160248201527f4e6f6e626c6f636b696e674c7a4170703a20696e76616c6964207061796c6f616044820152601960fa1b6064820152608490fd5b91613e879060609461ffff6001600160401b039499989799168552608060208601526080850191613c18565b951660408201520152565b903590601e19813603018212156103d057018035906001600160401b0382116103d0576020019181360383136103d057565b9491959897906113cb613eed604099613ee5613ef397613f10993691610de1565b943691610de1565b976147f1565b928451968794859463040a7bb160e41b8652309060048701614099565b03817f00000000000000000000000000000000000000000000000000000000000000006001600160a01b03165afa9182156107ef576000908193613f5357509190565b905061048191925060403d8111610aa557610a968183610d2d565b93969491613f9c9061067199979461ffff6001600160401b039416875260c0602088015260c0870191613c18565b961660408401526060830152608082015260a0818503910152613c18565b9196979298959493909430330361405457613fd6908530614c13565b60405181815290946001600160a01b03169390849061ffff8516907fbf551ec93859b170f9b2141bd9298bf3f64322c6f7beb2543a0cb669834118bf90602090a3833b156103d0576000988995614044936040519c8d9b8c9a8b98633fe79aed60e11b8a5260048a01613f6e565b0393f180156107ef576134455750565b60405162461bcd60e51b815260206004820152601f60248201527f4f4654436f72653a2063616c6c6572206d757374206265204f4654436f7265006044820152606490fd5b9192610671959361ffff6140c89316845260018060a01b0316602084015260a0604084015260a083019061063b565b9215156060820152608081840391015261063b565b92919060ff6140eb84614e1b565b16806142655750505060ff6140ff82614e1b565b16158061425a575b614110906148f5565b61412261411c82614dcb565b91614e66565b90916001600160a01b039182841615614250575b61416a906001600160401b037f00000000000000000000000000000000000000000000000000000000000000009116614878565b91831692831561420b577fbf551ec93859b170f9b2141bd9298bf3f64322c6f7beb2543a0cb669834118bf916141cb61ffff926141b16141ac87600a54613758565b600a55565b6001600160a01b0316600090815260086020526040902090565b848154019055846000600080516020614ec2833981519152604051806141f689829190602083019252565b0390a3604051938452169180602081016138c8565b60405162461bcd60e51b815260206004820152601f60248201527f45524332303a206d696e7420746f20746865207a65726f2061646472657373006044820152606490fd5b61dead9350614136565b508051602914614107565b600103614275576103e093614550565b60405162461bcd60e51b815260206004820152601c60248201527f4f4654436f72653a20756e6b6e6f776e207061636b65742074797065000000006044820152606490fd5b156142c157565b60405162461bcd60e51b815260206004820152601960248201527f4f4654436f72653a20616d6f756e7420746f6f20736d616c6c000000000000006044820152606490fd5b9261432b61067197959361ffff6143399416865260c0602087015260c086019061063b565b90848203604086015261063b565b6001600160a01b0391821660608401529316608082015280830360a09091015261063b565b946143879193929561ffff8116600052600160205261438e604060002060405194858092611160565b0384610d2d565b8251156143f5576143a0855182614453565b7f00000000000000000000000000000000000000000000000000000000000000006001600160a01b031693843b156103d05760009661343491604051998a988997889662c5803160e81b885260048801614306565b60405162461bcd60e51b815260206004820152603060248201527f4c7a4170703a2064657374696e6174696f6e20636861696e206973206e6f742060448201526f61207472757374656420736f7572636560801b6064820152608490fd5b61ffff1660005260036020526040600020549081156144b8575b1161447457565b606460405162461bcd60e51b815260206004820152602060248201527f4c7a4170703a207061796c6f61642073697a6520697320746f6f206c617267656044820152fd5b612710915061446d565b98979692936001600160401b036144f460e0989461ffff6145209995168d5260208d61010091829101528d019061063b565b951660408b015260608a01526001600160a01b0316608089015260a088015286820360c088015261063b565b930152565b6001600160401b036145456040939695949660608452606084019061063b565b951660208201520152565b909161455b846149ae565b9091614585611deb87611dd361457f8b61ffff166000526007602052604060002090565b8c610e78565b916145bb6001600160401b0392837f00000000000000000000000000000000000000000000000000000000000000009116614878565b9288888b83156146b7575b505050853b1561466c579461460d9694613d14948a94613d06948d996000146146655750505a925b5a978b6040519a8b9863757fea4d60e11b60208b015260248a016144c2565b901561465a57509061465561ffff928560207fb8890edbfc1c74692f527444645f95489c3703cc2df42e4a366f5d06fa6cd88496975191012090604051948594169684614525565b0390a2565b926103e09492613d3c565b16926145ee565b50506040516001600160a01b039094168452507f9aedf5fdba8716db3b6705ca00150643309995d4f818a249ed6dde6677e7792d975091955085945050602084019250613de7915050565b90611dd3611f6792611f61896146d16146e6979b30614bb0565b9961ffff166000526007602052604060002090565b88888b6145c6565b60065460ff161561473b5760228251106113d25761ffff60226103e09301519116600052600260205261472e604060002060008052602052604060002090565b5490611399821515614743565b505161145657565b1561474a57565b60405162461bcd60e51b815260206004820152601a60248201527f4c7a4170703a206d696e4761734c696d6974206e6f74207365740000000000006044820152606490fd5b1561479657565b60405162461bcd60e51b815260206004820152601b60248201527f4c7a4170703a20676173206c696d697420697320746f6f206c6f7700000000006044820152606490fd5b634e487b7160e01b600052601260045260246000fd5b7f000000000000000000000000000000000000000000000000000000000000000090811561487357046001600160401b039081811161482e571690565b60405162461bcd60e51b815260206004820152601a60248201527f4f4654436f72653a20616d6f756e745344206f766572666c6f770000000000006044820152606490fd5b6147db565b81810292918115918404141715610b0357565b7f0000000000000000000000000000000000000000000000000000000000000000801561487357810690818103908111610b035791565b90604051916000602084015260218301526001600160401b0360c01b9060c01b1660418201526029815261067181610cdc565b156148fc57565b60405162461bcd60e51b815260206004820152601860248201527f4f4654436f72653a20696e76616c6964207061796c6f616400000000000000006044820152606490fd5b939260719261067194604051968794600160f81b602087015260218601526001600160401b0360c01b809360c01b16604186015260018060a01b0316604985015260c01b16606983015261499e8151809260208686019101610618565b8101036051810184520182610d2d565b906149c6600160ff6149bf85614e1b565b16146148f5565b6149cf82614dcb565b906149d983614e66565b906049845110614a4a576049840151936051815110614a0e57614a0b605182015191614a058151612b7c565b90614d47565b91565b60405162461bcd60e51b8152602060048201526014602482015273746f55696e7436345f6f75744f66426f756e647360601b6044820152606490fd5b60405162461bcd60e51b8152602060048201526015602482015274746f427974657333325f6f75744f66426f756e647360581b6044820152606490fd5b6001600160a01b038116338103614b49575b8015614afa5781614acf84614ac260009560018060a01b03166000526008602052604060002090565b5461387d82821015614b59565b55614add83600a5403600a55565b604051838152600080516020614ec283398151915290602090a390565b60405162461bcd60e51b815260206004820152602160248201527f45524332303a206275726e2066726f6d20746865207a65726f206164647265736044820152607360f81b6064820152608490fd5b614b54833384613a4b565b614a99565b15614b6057565b60405162461bcd60e51b815260206004820152602260248201527f45524332303a206275726e20616d6f756e7420657863656564732062616c616e604482015261636560f01b6064820152608490fd5b6001600160a01b0381169190821561420b57600a5490828201809211610b0357600092614c04602092600080516020614ec283398151915294600a5560018060a01b03166000526008602052604060002090565b818154019055604051908152a3565b6106719183916001600160a01b038116308114159081614c3f575b501561381857610979833383613a4b565b905033141538614c2e565b15614c5157565b60405162461bcd60e51b815260206004820152600e60248201526d736c6963655f6f766572666c6f7760901b6044820152606490fd5b15614c8e57565b60405162461bcd60e51b8152602060048201526011602482015270736c6963655f6f75744f66426f756e647360781b6044820152606490fd5b614cdb82614cd48161373c565b1015614c4a565b614ce88282511015614c87565b81614d00575050604051600081526020810160405290565b60405191601f811691821560051b808486010193838501920101905b808410614d345750508252601f01601f191660405290565b9092835181526020809101930190614d1c565b614d5482614cd48161373c565b614d698151614d628461374a565b1115614c87565b81614d81575050604051600081526020810160405290565b60405191601f8116916051831560051b80858701019484860193010101905b808410614db85750508252601f01601f191660405290565b9092835181526020809101930190614da0565b6021815110614dde57602d015160601c90565b60405162461bcd60e51b8152602060048201526015602482015274746f416464726573735f6f75744f66426f756e647360581b6044820152606490fd5b6001815110614e2b576001015190565b60405162461bcd60e51b8152602060048201526013602482015272746f55696e74385f6f75744f66426f756e647360681b6044820152606490fd5b6029815110614a0e576029015190565b9092916000809160405195614e8a87610cf7565b6096875282602088019560a036883760208451940192f1903d9060968211614eb8575b6000908286523e9190565b60969150614ead56feddf252ad1be2c89b69c2b068fc378daa952ba7f163c4a11628f55a4df523b3efa264697066735822122030d0aaf2512b27f1362817cea1cfced3dc11a7c85b074dd30a3eacbb882105ff64736f6c63430008130033","linkReferences":{}},"methodIdentifiers":{"DEFAULT_PAYLOAD_SIZE_LIMIT()":"c4461834","NO_EXTRA_GAS()":"44770515","PT_SEND()":"4c42899a","PT_SEND_AND_CALL()":"e6a20ae6","SWAP_MAX_SLIPPAGE()":"a643c52e","allowance(address,address)":"dd62ed3e","approve(address,uint256)":"095ea7b3","balanceOf(address)":"70a08231","callOnOFTReceived(uint16,bytes,uint64,bytes32,address,uint256,bytes,uint256)":"eaffd49a","circulatingSupply()":"9358928b","cluster()":"dbd01de1","creditedPackets(uint16,bytes,uint64)":"9bdb9812","decimals()":"313ce567","decreaseAllowance(address,uint256)":"a457c2d7","erc20()":"785e9e86","estimateSendAndCallFee(uint16,bytes32,uint256,bytes,uint64,bool,bytes)":"a4c51df5","estimateSendFee(uint16,bytes32,uint256,bool,bytes)":"365260b4","failedMessages(uint16,bytes,uint64)":"5b8c41e6","forceResumeReceive(uint16,bytes)":"42d65a8d","getConfig(uint16,uint16,address,uint256)":"f5ecbdbc","getTrustedRemoteAddress(uint16)":"9f38369a","hostChainID()":"0054af3a","increaseAllowance(address,uint256)":"39509351","isTrustedRemote(uint16,bytes)":"3d8b38f6","leverageDown(address,uint16,bytes,uint64,bytes)":"bafb655d","leverageDownInternal(address,uint256,(address,uint256,bytes),(address,address,address,address),(uint256,uint16,uint16,address,bytes,bytes,address),address,uint256)":"7e92ab34","lzEndpoint()":"b353aaa7","lzReceive(uint16,bytes,uint64,bytes)":"001d3567","minDstGasLookup(uint16,uint16)":"8cfd8f5c","name()":"06fdde03","nonblockingLzReceive(uint16,bytes,uint64,bytes)":"66ad5c8a","owner()":"8da5cb5b","payloadSizeLimitLookup(uint16)":"3f1f4fa4","precrime()":"950c8a74","renounceOwnership()":"715018a6","retryMessage(uint16,bytes,uint64,bytes)":"d1deba1f","sendAndCall(address,uint16,bytes32,uint256,bytes,uint64,(address,address,bytes))":"76203b48","sendFrom(address,uint16,bytes32,uint256,(address,address,bytes))":"695ef6bf","setConfig(uint16,uint16,uint256,bytes)":"cbed8b9c","setMaxSlippage(uint256)":"43f68a49","setMinDstGas(uint16,uint16,uint256)":"df2a5b3b","setPayloadSizeLimit(uint16,uint256)":"0df37483","setPrecrime(address)":"baf3292d","setReceiveVersion(uint16)":"10ddb137","setSendVersion(uint16)":"07e0db17","setTrustedRemote(uint16,bytes)":"eb8d72b7","setTrustedRemoteAddress(uint16,bytes)":"a6c3d165","setUseCustomAdapterParams(bool)":"eab45d9c","sharedDecimals()":"857749b0","supportsInterface(bytes4)":"01ffc9a7","symbol()":"95d89b41","token()":"fc0c546a","totalSupply()":"18160ddd","transfer(address,uint256)":"a9059cbb","transferFrom(address,address,uint256)":"23b872dd","transferOwnership(address)":"f2fde38b","trustedRemoteLookup(uint16)":"7533d788","useCustomAdapterParams()":"ed629c5c","yieldBox()":"de406577"},"id":8}