{
  "address": "0x13C3B1B03A326Fe1422A2A7401f842A3baf53790",
  "abi": [
    {
      "inputs": [
        {
          "internalType": "address",
          "name": "_lzEndpoint",
          "type": "address"
        },
        {
          "internalType": "bool",
          "name": "_isNative",
          "type": "bool"
        },
        {
          "internalType": "contract IERC20",
          "name": "_erc20",
          "type": "address"
        },
        {
          "internalType": "contract IYieldBox",
          "name": "_yieldBox",
          "type": "address"
        },
        {
          "internalType": "string",
          "name": "_name",
          "type": "string"
        },
        {
          "internalType": "string",
          "name": "_symbol",
          "type": "string"
        },
        {
          "internalType": "uint8",
          "name": "_decimal",
          "type": "uint8"
        },
        {
          "internalType": "uint16",
          "name": "_hostChainID",
          "type": "uint16"
        }
      ],
      "stateMutability": "nonpayable",
      "type": "constructor"
    },
    {
      "inputs": [],
      "name": "TOFT_YB_ETHDeposit",
      "type": "error"
    },
    {
      "inputs": [],
      "name": "TOFT_ZeroAmount",
      "type": "error"
    },
    {
      "inputs": [],
      "name": "TOFT__NotHostChain",
      "type": "error"
    },
    {
      "anonymous": false,
      "inputs": [
        {
          "indexed": true,
          "internalType": "address",
          "name": "owner",
          "type": "address"
        },
        {
          "indexed": true,
          "internalType": "address",
          "name": "spender",
          "type": "address"
        },
        {
          "indexed": false,
          "internalType": "uint256",
          "name": "value",
          "type": "uint256"
        }
      ],
      "name": "Approval",
      "type": "event"
    },
    {
      "anonymous": false,
      "inputs": [
        {
          "indexed": false,
          "internalType": "uint256",
          "name": "_amount",
          "type": "uint256"
        }
      ],
      "name": "HarvestFees",
      "type": "event"
    },
    {
      "anonymous": false,
      "inputs": [
        {
          "indexed": false,
          "internalType": "uint16",
          "name": "_srcChainId",
          "type": "uint16"
        },
        {
          "indexed": false,
          "internalType": "bytes",
          "name": "_srcAddress",
          "type": "bytes"
        },
        {
          "indexed": false,
          "internalType": "uint64",
          "name": "_nonce",
          "type": "uint64"
        },
        {
          "indexed": false,
          "internalType": "bytes",
          "name": "_payload",
          "type": "bytes"
        },
        {
          "indexed": false,
          "internalType": "bytes",
          "name": "_reason",
          "type": "bytes"
        }
      ],
      "name": "MessageFailed",
      "type": "event"
    },
    {
      "anonymous": false,
      "inputs": [
        {
          "indexed": true,
          "internalType": "address",
          "name": "previousOwner",
          "type": "address"
        },
        {
          "indexed": true,
          "internalType": "address",
          "name": "newOwner",
          "type": "address"
        }
      ],
      "name": "OwnershipTransferred",
      "type": "event"
    },
    {
      "anonymous": false,
      "inputs": [
        {
          "indexed": true,
          "internalType": "uint16",
          "name": "_srcChainId",
          "type": "uint16"
        },
        {
          "indexed": false,
          "internalType": "bytes",
          "name": "_fromAddress",
          "type": "bytes"
        },
        {
          "indexed": true,
          "internalType": "address",
          "name": "_to",
          "type": "address"
        },
        {
          "indexed": false,
          "internalType": "uint256",
          "name": "_amount",
          "type": "uint256"
        }
      ],
      "name": "ReceiveFromChain",
      "type": "event"
    },
    {
      "anonymous": false,
      "inputs": [
        {
          "indexed": false,
          "internalType": "uint16",
          "name": "_srcChainId",
          "type": "uint16"
        },
        {
          "indexed": false,
          "internalType": "bytes",
          "name": "_srcAddress",
          "type": "bytes"
        },
        {
          "indexed": false,
          "internalType": "uint64",
          "name": "_nonce",
          "type": "uint64"
        },
        {
          "indexed": false,
          "internalType": "bytes32",
          "name": "_payloadHash",
          "type": "bytes32"
        }
      ],
      "name": "RetryMessageSuccess",
      "type": "event"
    },
    {
      "anonymous": false,
      "inputs": [
        {
          "indexed": true,
          "internalType": "uint16",
          "name": "_dstChainId",
          "type": "uint16"
        },
        {
          "indexed": true,
          "internalType": "address",
          "name": "_from",
          "type": "address"
        },
        {
          "indexed": true,
          "internalType": "bytes",
          "name": "_toAddress",
          "type": "bytes"
        },
        {
          "indexed": false,
          "internalType": "uint256",
          "name": "_amount",
          "type": "uint256"
        }
      ],
      "name": "SendToChain",
      "type": "event"
    },
    {
      "anonymous": false,
      "inputs": [
        {
          "indexed": false,
          "internalType": "uint16",
          "name": "_dstChainId",
          "type": "uint16"
        },
        {
          "indexed": false,
          "internalType": "uint16",
          "name": "_type",
          "type": "uint16"
        },
        {
          "indexed": false,
          "internalType": "uint256",
          "name": "_minDstGas",
          "type": "uint256"
        }
      ],
      "name": "SetMinDstGas",
      "type": "event"
    },
    {
      "anonymous": false,
      "inputs": [
        {
          "indexed": false,
          "internalType": "address",
          "name": "precrime",
          "type": "address"
        }
      ],
      "name": "SetPrecrime",
      "type": "event"
    },
    {
      "anonymous": false,
      "inputs": [
        {
          "indexed": false,
          "internalType": "uint16",
          "name": "_remoteChainId",
          "type": "uint16"
        },
        {
          "indexed": false,
          "internalType": "bytes",
          "name": "_path",
          "type": "bytes"
        }
      ],
      "name": "SetTrustedRemote",
      "type": "event"
    },
    {
      "anonymous": false,
      "inputs": [
        {
          "indexed": false,
          "internalType": "uint16",
          "name": "_remoteChainId",
          "type": "uint16"
        },
        {
          "indexed": false,
          "internalType": "bytes",
          "name": "_remoteAddress",
          "type": "bytes"
        }
      ],
      "name": "SetTrustedRemoteAddress",
      "type": "event"
    },
    {
      "anonymous": false,
      "inputs": [
        {
          "indexed": false,
          "internalType": "bool",
          "name": "_useCustomAdapterParams",
          "type": "bool"
        }
      ],
      "name": "SetUseCustomAdapterParams",
      "type": "event"
    },
    {
      "anonymous": false,
      "inputs": [
        {
          "indexed": true,
          "internalType": "address",
          "name": "from",
          "type": "address"
        },
        {
          "indexed": true,
          "internalType": "address",
          "name": "to",
          "type": "address"
        },
        {
          "indexed": false,
          "internalType": "uint256",
          "name": "value",
          "type": "uint256"
        }
      ],
      "name": "Transfer",
      "type": "event"
    },
    {
      "anonymous": false,
      "inputs": [
        {
          "indexed": true,
          "internalType": "address",
          "name": "_from",
          "type": "address"
        },
        {
          "indexed": true,
          "internalType": "address",
          "name": "_to",
          "type": "address"
        },
        {
          "indexed": false,
          "internalType": "uint256",
          "name": "_amount",
          "type": "uint256"
        }
      ],
      "name": "Unwrap",
      "type": "event"
    },
    {
      "anonymous": false,
      "inputs": [
        {
          "indexed": true,
          "internalType": "address",
          "name": "_from",
          "type": "address"
        },
        {
          "indexed": true,
          "internalType": "address",
          "name": "_to",
          "type": "address"
        },
        {
          "indexed": false,
          "internalType": "uint256",
          "name": "_amount",
          "type": "uint256"
        }
      ],
      "name": "Wrap",
      "type": "event"
    },
    {
      "anonymous": false,
      "inputs": [
        {
          "indexed": false,
          "internalType": "uint256",
          "name": "_amount",
          "type": "uint256"
        }
      ],
      "name": "YieldBoxDeposit",
      "type": "event"
    },
    {
      "anonymous": false,
      "inputs": [
        {
          "indexed": false,
          "internalType": "uint256",
          "name": "_amount",
          "type": "uint256"
        }
      ],
      "name": "YieldBoxRetrieval",
      "type": "event"
    },
    {
      "inputs": [],
      "name": "NO_EXTRA_GAS",
      "outputs": [
        {
          "internalType": "uint256",
          "name": "",
          "type": "uint256"
        }
      ],
      "stateMutability": "view",
      "type": "function"
    },
    {
      "inputs": [],
      "name": "PT_SEND",
      "outputs": [
        {
          "internalType": "uint16",
          "name": "",
          "type": "uint16"
        }
      ],
      "stateMutability": "view",
      "type": "function"
    },
    {
      "inputs": [],
      "name": "PT_YB_DEPOSIT",
      "outputs": [
        {
          "internalType": "uint16",
          "name": "",
          "type": "uint16"
        }
      ],
      "stateMutability": "view",
      "type": "function"
    },
    {
      "inputs": [],
      "name": "PT_YB_RETRIEVE_STRAT",
      "outputs": [
        {
          "internalType": "uint16",
          "name": "",
          "type": "uint16"
        }
      ],
      "stateMutability": "view",
      "type": "function"
    },
    {
      "inputs": [],
      "name": "PT_YB_SEND_STRAT",
      "outputs": [
        {
          "internalType": "uint16",
          "name": "",
          "type": "uint16"
        }
      ],
      "stateMutability": "view",
      "type": "function"
    },
    {
      "inputs": [],
      "name": "PT_YB_WITHDRAW",
      "outputs": [
        {
          "internalType": "uint16",
          "name": "",
          "type": "uint16"
        }
      ],
      "stateMutability": "view",
      "type": "function"
    },
    {
      "inputs": [
        {
          "internalType": "address",
          "name": "owner",
          "type": "address"
        },
        {
          "internalType": "address",
          "name": "spender",
          "type": "address"
        }
      ],
      "name": "allowance",
      "outputs": [
        {
          "internalType": "uint256",
          "name": "",
          "type": "uint256"
        }
      ],
      "stateMutability": "view",
      "type": "function"
    },
    {
      "inputs": [
        {
          "internalType": "address",
          "name": "spender",
          "type": "address"
        },
        {
          "internalType": "uint256",
          "name": "amount",
          "type": "uint256"
        }
      ],
      "name": "approve",
      "outputs": [
        {
          "internalType": "bool",
          "name": "",
          "type": "bool"
        }
      ],
      "stateMutability": "nonpayable",
      "type": "function"
    },
    {
      "inputs": [
        {
          "internalType": "address",
          "name": "account",
          "type": "address"
        }
      ],
      "name": "balanceOf",
      "outputs": [
        {
          "internalType": "uint256",
          "name": "",
          "type": "uint256"
        }
      ],
      "stateMutability": "view",
      "type": "function"
    },
    {
      "inputs": [],
      "name": "circulatingSupply",
      "outputs": [
        {
          "internalType": "uint256",
          "name": "",
          "type": "uint256"
        }
      ],
      "stateMutability": "view",
      "type": "function"
    },
    {
      "inputs": [],
      "name": "decimals",
      "outputs": [
        {
          "internalType": "uint8",
          "name": "",
          "type": "uint8"
        }
      ],
      "stateMutability": "view",
      "type": "function"
    },
    {
      "inputs": [
        {
          "internalType": "address",
          "name": "spender",
          "type": "address"
        },
        {
          "internalType": "uint256",
          "name": "subtractedValue",
          "type": "uint256"
        }
      ],
      "name": "decreaseAllowance",
      "outputs": [
        {
          "internalType": "bool",
          "name": "",
          "type": "bool"
        }
      ],
      "stateMutability": "nonpayable",
      "type": "function"
    },
    {
      "inputs": [],
      "name": "erc20",
      "outputs": [
        {
          "internalType": "contract IERC20",
          "name": "",
          "type": "address"
        }
      ],
      "stateMutability": "view",
      "type": "function"
    },
    {
      "inputs": [
        {
          "internalType": "uint256",
          "name": "_feeBps",
          "type": "uint256"
        },
        {
          "internalType": "uint256",
          "name": "_feeFraction",
          "type": "uint256"
        },
        {
          "internalType": "uint256",
          "name": "_amount",
          "type": "uint256"
        }
      ],
      "name": "estimateFees",
      "outputs": [
        {
          "internalType": "uint256",
          "name": "",
          "type": "uint256"
        }
      ],
      "stateMutability": "pure",
      "type": "function"
    },
    {
      "inputs": [
        {
          "internalType": "uint16",
          "name": "_dstChainId",
          "type": "uint16"
        },
        {
          "internalType": "bytes",
          "name": "_toAddress",
          "type": "bytes"
        },
        {
          "internalType": "uint256",
          "name": "_amount",
          "type": "uint256"
        },
        {
          "internalType": "bool",
          "name": "_useZro",
          "type": "bool"
        },
        {
          "internalType": "bytes",
          "name": "_adapterParams",
          "type": "bytes"
        }
      ],
      "name": "estimateSendFee",
      "outputs": [
        {
          "internalType": "uint256",
          "name": "nativeFee",
          "type": "uint256"
        },
        {
          "internalType": "uint256",
          "name": "zroFee",
          "type": "uint256"
        }
      ],
      "stateMutability": "view",
      "type": "function"
    },
    {
      "inputs": [
        {
          "internalType": "uint16",
          "name": "",
          "type": "uint16"
        },
        {
          "internalType": "bytes",
          "name": "",
          "type": "bytes"
        },
        {
          "internalType": "uint64",
          "name": "",
          "type": "uint64"
        }
      ],
      "name": "failedMessages",
      "outputs": [
        {
          "internalType": "bytes32",
          "name": "",
          "type": "bytes32"
        }
      ],
      "stateMutability": "view",
      "type": "function"
    },
    {
      "inputs": [
        {
          "internalType": "uint16",
          "name": "_srcChainId",
          "type": "uint16"
        },
        {
          "internalType": "bytes",
          "name": "_srcAddress",
          "type": "bytes"
        }
      ],
      "name": "forceResumeReceive",
      "outputs": [],
      "stateMutability": "nonpayable",
      "type": "function"
    },
    {
      "inputs": [
        {
          "internalType": "uint16",
          "name": "_version",
          "type": "uint16"
        },
        {
          "internalType": "uint16",
          "name": "_chainId",
          "type": "uint16"
        },
        {
          "internalType": "address",
          "name": "",
          "type": "address"
        },
        {
          "internalType": "uint256",
          "name": "_configType",
          "type": "uint256"
        }
      ],
      "name": "getConfig",
      "outputs": [
        {
          "internalType": "bytes",
          "name": "",
          "type": "bytes"
        }
      ],
      "stateMutability": "view",
      "type": "function"
    },
    {
      "inputs": [
        {
          "internalType": "uint16",
          "name": "_remoteChainId",
          "type": "uint16"
        }
      ],
      "name": "getTrustedRemoteAddress",
      "outputs": [
        {
          "internalType": "bytes",
          "name": "",
          "type": "bytes"
        }
      ],
      "stateMutability": "view",
      "type": "function"
    },
    {
      "inputs": [],
      "name": "harvestFees",
      "outputs": [],
      "stateMutability": "nonpayable",
      "type": "function"
    },
    {
      "inputs": [],
      "name": "hostChainID",
      "outputs": [
        {
          "internalType": "uint256",
          "name": "",
          "type": "uint256"
        }
      ],
      "stateMutability": "view",
      "type": "function"
    },
    {
      "inputs": [
        {
          "internalType": "address",
          "name": "spender",
          "type": "address"
        },
        {
          "internalType": "uint256",
          "name": "addedValue",
          "type": "uint256"
        }
      ],
      "name": "increaseAllowance",
      "outputs": [
        {
          "internalType": "bool",
          "name": "",
          "type": "bool"
        }
      ],
      "stateMutability": "nonpayable",
      "type": "function"
    },
    {
      "inputs": [],
      "name": "isHostChain",
      "outputs": [
        {
          "internalType": "bool",
          "name": "",
          "type": "bool"
        }
      ],
      "stateMutability": "view",
      "type": "function"
    },
    {
      "inputs": [
        {
          "internalType": "uint16",
          "name": "_srcChainId",
          "type": "uint16"
        },
        {
          "internalType": "bytes",
          "name": "_srcAddress",
          "type": "bytes"
        }
      ],
      "name": "isTrustedRemote",
      "outputs": [
        {
          "internalType": "bool",
          "name": "",
          "type": "bool"
        }
      ],
      "stateMutability": "view",
      "type": "function"
    },
    {
      "inputs": [],
      "name": "lzEndpoint",
      "outputs": [
        {
          "internalType": "contract ILayerZeroEndpoint",
          "name": "",
          "type": "address"
        }
      ],
      "stateMutability": "view",
      "type": "function"
    },
    {
      "inputs": [
        {
          "internalType": "uint16",
          "name": "_srcChainId",
          "type": "uint16"
        },
        {
          "internalType": "bytes",
          "name": "_srcAddress",
          "type": "bytes"
        },
        {
          "internalType": "uint64",
          "name": "_nonce",
          "type": "uint64"
        },
        {
          "internalType": "bytes",
          "name": "_payload",
          "type": "bytes"
        }
      ],
      "name": "lzReceive",
      "outputs": [],
      "stateMutability": "nonpayable",
      "type": "function"
    },
    {
      "inputs": [
        {
          "internalType": "uint16",
          "name": "",
          "type": "uint16"
        },
        {
          "internalType": "uint16",
          "name": "",
          "type": "uint16"
        }
      ],
      "name": "minDstGasLookup",
      "outputs": [
        {
          "internalType": "uint256",
          "name": "",
          "type": "uint256"
        }
      ],
      "stateMutability": "view",
      "type": "function"
    },
    {
      "inputs": [],
      "name": "name",
      "outputs": [
        {
          "internalType": "string",
          "name": "",
          "type": "string"
        }
      ],
      "stateMutability": "view",
      "type": "function"
    },
    {
      "inputs": [
        {
          "internalType": "uint16",
          "name": "_srcChainId",
          "type": "uint16"
        },
        {
          "internalType": "bytes",
          "name": "_srcAddress",
          "type": "bytes"
        },
        {
          "internalType": "uint64",
          "name": "_nonce",
          "type": "uint64"
        },
        {
          "internalType": "bytes",
          "name": "_payload",
          "type": "bytes"
        }
      ],
      "name": "nonblockingLzReceive",
      "outputs": [],
      "stateMutability": "nonpayable",
      "type": "function"
    },
    {
      "inputs": [],
      "name": "owner",
      "outputs": [
        {
          "internalType": "address",
          "name": "",
          "type": "address"
        }
      ],
      "stateMutability": "view",
      "type": "function"
    },
    {
      "inputs": [],
      "name": "precrime",
      "outputs": [
        {
          "internalType": "address",
          "name": "",
          "type": "address"
        }
      ],
      "stateMutability": "view",
      "type": "function"
    },
    {
      "inputs": [],
      "name": "renounceOwnership",
      "outputs": [],
      "stateMutability": "nonpayable",
      "type": "function"
    },
    {
      "inputs": [
        {
          "internalType": "uint16",
          "name": "_srcChainId",
          "type": "uint16"
        },
        {
          "internalType": "bytes",
          "name": "_srcAddress",
          "type": "bytes"
        },
        {
          "internalType": "uint64",
          "name": "_nonce",
          "type": "uint64"
        },
        {
          "internalType": "bytes",
          "name": "_payload",
          "type": "bytes"
        }
      ],
      "name": "retryMessage",
      "outputs": [],
      "stateMutability": "payable",
      "type": "function"
    },
    {
      "inputs": [
        {
          "internalType": "address",
          "name": "_from",
          "type": "address"
        },
        {
          "internalType": "uint16",
          "name": "_dstChainId",
          "type": "uint16"
        },
        {
          "internalType": "bytes",
          "name": "_toAddress",
          "type": "bytes"
        },
        {
          "internalType": "uint256",
          "name": "_amount",
          "type": "uint256"
        },
        {
          "internalType": "address payable",
          "name": "_refundAddress",
          "type": "address"
        },
        {
          "internalType": "address",
          "name": "_zroPaymentAddress",
          "type": "address"
        },
        {
          "internalType": "bytes",
          "name": "_adapterParams",
          "type": "bytes"
        }
      ],
      "name": "sendFrom",
      "outputs": [],
      "stateMutability": "payable",
      "type": "function"
    },
    {
      "inputs": [
        {
          "internalType": "uint16",
          "name": "_version",
          "type": "uint16"
        },
        {
          "internalType": "uint16",
          "name": "_chainId",
          "type": "uint16"
        },
        {
          "internalType": "uint256",
          "name": "_configType",
          "type": "uint256"
        },
        {
          "internalType": "bytes",
          "name": "_config",
          "type": "bytes"
        }
      ],
      "name": "setConfig",
      "outputs": [],
      "stateMutability": "nonpayable",
      "type": "function"
    },
    {
      "inputs": [
        {
          "internalType": "uint16",
          "name": "_dstChainId",
          "type": "uint16"
        },
        {
          "internalType": "uint16",
          "name": "_packetType",
          "type": "uint16"
        },
        {
          "internalType": "uint256",
          "name": "_minGas",
          "type": "uint256"
        }
      ],
      "name": "setMinDstGas",
      "outputs": [],
      "stateMutability": "nonpayable",
      "type": "function"
    },
    {
      "inputs": [
        {
          "internalType": "address",
          "name": "_precrime",
          "type": "address"
        }
      ],
      "name": "setPrecrime",
      "outputs": [],
      "stateMutability": "nonpayable",
      "type": "function"
    },
    {
      "inputs": [
        {
          "internalType": "uint16",
          "name": "_version",
          "type": "uint16"
        }
      ],
      "name": "setReceiveVersion",
      "outputs": [],
      "stateMutability": "nonpayable",
      "type": "function"
    },
    {
      "inputs": [
        {
          "internalType": "uint16",
          "name": "_version",
          "type": "uint16"
        }
      ],
      "name": "setSendVersion",
      "outputs": [],
      "stateMutability": "nonpayable",
      "type": "function"
    },
    {
      "inputs": [
        {
          "internalType": "uint16",
          "name": "_srcChainId",
          "type": "uint16"
        },
        {
          "internalType": "bytes",
          "name": "_path",
          "type": "bytes"
        }
      ],
      "name": "setTrustedRemote",
      "outputs": [],
      "stateMutability": "nonpayable",
      "type": "function"
    },
    {
      "inputs": [
        {
          "internalType": "uint16",
          "name": "_remoteChainId",
          "type": "uint16"
        },
        {
          "internalType": "bytes",
          "name": "_remoteAddress",
          "type": "bytes"
        }
      ],
      "name": "setTrustedRemoteAddress",
      "outputs": [],
      "stateMutability": "nonpayable",
      "type": "function"
    },
    {
      "inputs": [
        {
          "internalType": "bool",
          "name": "_useCustomAdapterParams",
          "type": "bool"
        }
      ],
      "name": "setUseCustomAdapterParams",
      "outputs": [],
      "stateMutability": "nonpayable",
      "type": "function"
    },
    {
      "inputs": [
        {
          "internalType": "bytes4",
          "name": "interfaceId",
          "type": "bytes4"
        }
      ],
      "name": "supportsInterface",
      "outputs": [
        {
          "internalType": "bool",
          "name": "",
          "type": "bool"
        }
      ],
      "stateMutability": "view",
      "type": "function"
    },
    {
      "inputs": [],
      "name": "symbol",
      "outputs": [
        {
          "internalType": "string",
          "name": "",
          "type": "string"
        }
      ],
      "stateMutability": "view",
      "type": "function"
    },
    {
      "inputs": [],
      "name": "tapiocaWrapper",
      "outputs": [
        {
          "internalType": "contract TapiocaWrapper",
          "name": "",
          "type": "address"
        }
      ],
      "stateMutability": "view",
      "type": "function"
    },
    {
      "inputs": [],
      "name": "totalFees",
      "outputs": [
        {
          "internalType": "uint256",
          "name": "",
          "type": "uint256"
        }
      ],
      "stateMutability": "view",
      "type": "function"
    },
    {
      "inputs": [],
      "name": "totalSupply",
      "outputs": [
        {
          "internalType": "uint256",
          "name": "",
          "type": "uint256"
        }
      ],
      "stateMutability": "view",
      "type": "function"
    },
    {
      "inputs": [
        {
          "internalType": "address",
          "name": "to",
          "type": "address"
        },
        {
          "internalType": "uint256",
          "name": "amount",
          "type": "uint256"
        }
      ],
      "name": "transfer",
      "outputs": [
        {
          "internalType": "bool",
          "name": "",
          "type": "bool"
        }
      ],
      "stateMutability": "nonpayable",
      "type": "function"
    },
    {
      "inputs": [
        {
          "internalType": "address",
          "name": "from",
          "type": "address"
        },
        {
          "internalType": "address",
          "name": "to",
          "type": "address"
        },
        {
          "internalType": "uint256",
          "name": "amount",
          "type": "uint256"
        }
      ],
      "name": "transferFrom",
      "outputs": [
        {
          "internalType": "bool",
          "name": "",
          "type": "bool"
        }
      ],
      "stateMutability": "nonpayable",
      "type": "function"
    },
    {
      "inputs": [
        {
          "internalType": "address",
          "name": "newOwner",
          "type": "address"
        }
      ],
      "name": "transferOwnership",
      "outputs": [],
      "stateMutability": "nonpayable",
      "type": "function"
    },
    {
      "inputs": [
        {
          "internalType": "uint16",
          "name": "",
          "type": "uint16"
        }
      ],
      "name": "trustedRemoteLookup",
      "outputs": [
        {
          "internalType": "bytes",
          "name": "",
          "type": "bytes"
        }
      ],
      "stateMutability": "view",
      "type": "function"
    },
    {
      "inputs": [
        {
          "internalType": "address",
          "name": "_toAddress",
          "type": "address"
        },
        {
          "internalType": "uint256",
          "name": "_amount",
          "type": "uint256"
        }
      ],
      "name": "unwrap",
      "outputs": [],
      "stateMutability": "nonpayable",
      "type": "function"
    },
    {
      "inputs": [],
      "name": "useCustomAdapterParams",
      "outputs": [
        {
          "internalType": "bool",
          "name": "",
          "type": "bool"
        }
      ],
      "stateMutability": "view",
      "type": "function"
    },
    {
      "inputs": [
        {
          "internalType": "address",
          "name": "_toAddress",
          "type": "address"
        },
        {
          "internalType": "uint256",
          "name": "_amount",
          "type": "uint256"
        }
      ],
      "name": "wrap",
      "outputs": [],
      "stateMutability": "nonpayable",
      "type": "function"
    },
    {
      "inputs": [
        {
          "internalType": "address",
          "name": "_toAddress",
          "type": "address"
        }
      ],
      "name": "wrapNative",
      "outputs": [],
      "stateMutability": "payable",
      "type": "function"
    },
    {
      "inputs": [
        {
          "internalType": "uint256",
          "name": "_amount",
          "type": "uint256"
        }
      ],
      "name": "wrappedAmount",
      "outputs": [
        {
          "internalType": "uint256",
          "name": "",
          "type": "uint256"
        }
      ],
      "stateMutability": "view",
      "type": "function"
    },
    {
      "inputs": [],
      "name": "yieldBox",
      "outputs": [
        {
          "internalType": "contract IYieldBox",
          "name": "",
          "type": "address"
        }
      ],
      "stateMutability": "view",
      "type": "function"
    },
    {
      "stateMutability": "payable",
      "type": "receive"
    }
  ],
  "transactionHash": "0x2addc0eb6315b49cd802603ab7f83e2d5d95cec6de565219eef7f46928a52df0",
  "args": [
    "0xbfD2135BFfbb0B5378b56643c2Df8a87552Bfa23",
    false,
    "0x8ec7f2746d9098a627134091bc9afb4629a8642d",
    "0xCA3604D7Df34a785D20Cbe7A0Bbd0AF54E9FeF9e",
    "Test",
    "TTT",
    18,
    "5"
  ],
  "numDeployments": 1,
  "solcInputHash": "0f3a0758d7d93c85b6d01fe65bbfce81",
  "bytecode": "0x6101006040523480156200001257600080fd5b5060405162005270380380620052708339810160408190526200003591620002fb565b8685856040516020016200004a9190620003df565b604051602081830303815290604052856040516020016200006c919062000414565b60408051808303601f190181529190528b82828280806200008d3362000181565b6001600160a01b03166080525060099050620000aa8382620004d2565b50600a620000b98282620004d2565b5050506001600160a01b0390931660a0525050600b805492151560ff19909316831790555060ff161562000135576001600160a01b03861615620001355760405162461bcd60e51b815260206004820152600f60248201526e544f46545f5f4e6f744e617469766560881b604482015260640160405180910390fd5b6001600160a01b039590951660c052600d805460ff191660ff9290921691909117905550505061ffff1660e0525050600b8054610100600160a81b03191661010033021790556200059e565b600080546001600160a01b038381166001600160a01b0319831681178455604051919092169283917f8be0079c531659141344cd1fd0a4f28419497f9722a3daafe3b4186f6b6457e09190a35050565b6001600160a01b0381168114620001e757600080fd5b50565b8051620001f781620001d1565b919050565b634e487b7160e01b600052604160045260246000fd5b60005b838110156200022f57818101518382015260200162000215565b838111156200023f576000848401525b50505050565b600082601f8301126200025757600080fd5b81516001600160401b0380821115620002745762000274620001fc565b604051601f8301601f19908116603f011681019082821181831017156200029f576200029f620001fc565b81604052838152866020858801011115620002b957600080fd5b620002cc84602083016020890162000212565b9695505050505050565b805160ff81168114620001f757600080fd5b805161ffff81168114620001f757600080fd5b600080600080600080600080610100898b0312156200031957600080fd5b88516200032681620001d1565b60208a015190985080151581146200033d57600080fd5b96506200034d60408a01620001ea565b95506200035d60608a01620001ea565b60808a01519095506001600160401b03808211156200037b57600080fd5b620003898c838d0162000245565b955060a08b0151915080821115620003a057600080fd5b50620003af8b828c0162000245565b935050620003c060c08a01620002d6565b9150620003d060e08a01620002e8565b90509295985092959890939650565b6a546170696f63614f46542d60a81b8152600082516200040781600b85016020870162000212565b91909101600b0192915050565b64544f46542d60d81b8152600082516200043681600585016020870162000212565b9190910160050192915050565b600181811c908216806200045857607f821691505b6020821081036200047957634e487b7160e01b600052602260045260246000fd5b50919050565b601f821115620004cd57600081815260208120601f850160051c81016020861015620004a85750805b601f850160051c820191505b81811015620004c957828155600101620004b4565b5050505b505050565b81516001600160401b03811115620004ee57620004ee620001fc565b6200050681620004ff845462000443565b846200047f565b602080601f8311600181146200053e5760008415620005255750858301515b600019600386901b1c1916600185901b178555620004c9565b600085815260208120601f198616915b828110156200056f578886015182559484019460019091019084016200054e565b50858210156200058e5787850151600019600388901b60f8161c191681555b5050505050600190811b01905550565b60805160a05160c05160e051614bf0620006806000396000818161033801528181610eb1015281816110080152818161133d01528181611aec0152611ccf01526000818161070701528181610f7d015281816113b301528181611c6801528181611ca301528181612cf20152612d4501526000818161098b01528181613733015281816137e3015281816138a3015261397e01526000818161088f01528181610a6a01528181610db001528181610e780152818161124d0152818161153101528181611e450152818161238c0152818161266b01526132780152614bf06000f3fe6080604052600436106102f85760003560e01c806370a0823111610191578063b353aaa7116100e2578063dd62ed3e11610090578063dd62ed3e14610959578063de40657714610979578063df2a5b3b146109ad578063eab45d9c146109cd578063eb8d72b7146109ed578063ed629c5c14610a0d578063f2fde38b14610a27578063f5ecbdbc14610a4757600080fd5b8063b353aaa71461087d578063baf3292d146108b1578063bf376c7a146108d1578063c77c2972146108f1578063c968ae0a14610906578063cbed8b9c14610926578063d1deba1f1461094657600080fd5b8063950c8a741161013f578063950c8a74146107a357806395d89b41146107c35780639f38369a146107d8578063a457c2d7146107f8578063a6c3d16514610818578063a9059cbb14610838578063b0f67a351461085857600080fd5b806370a082311461068a578063715018a6146106c05780637533d788146106d5578063785e9e86146106f55780638cfd8f5c146107415780638da5cb5b146107795780639358928b1461078e57600080fd5b80632a205e3d1161024b57806344770515116101f957806344770515146105c85780634c42899a146105dd57806351905636146105f25780635b8c41e6146106055780635bfeaa051461044857806366ad5c8a146106545780636ef7980b1461067457600080fd5b80632a205e3d146104d1578063313ce56714610506578063317dbba814610528578063395093511461054857806339f47693146105685780633d8b38f61461058857806342d65a8d146105a857600080fd5b806310ddb137116102a857806310ddb13714610428578063121dbc7c1461044857806313114a9d1461045e578063138cc18f1461047457806318160ddd1461048957806323b872dd1461049e5780632479d863146104be57600080fd5b80621d35671461030457806254af3a1461032657806301ffc9a71461036d578063069fd8491461039d57806306fdde03146103c657806307e0db17146103e8578063095ea7b31461040857600080fd5b366102ff57005b600080fd5b34801561031057600080fd5b5061032461031f366004613c60565b610a67565b005b34801561033257600080fd5b5061035a7f000000000000000000000000000000000000000000000000000000000000000081565b6040519081526020015b60405180910390f35b34801561037957600080fd5b5061038d610388366004613cf5565b610c98565b6040519015158152602001610364565b3480156103a957600080fd5b506103b361030381565b60405161ffff9091168152602001610364565b3480156103d257600080fd5b506103db610cd6565b6040516103649190613d77565b3480156103f457600080fd5b50610324610403366004613d8a565b610d68565b34801561041457600080fd5b5061038d610423366004613dbc565b610e18565b34801561043457600080fd5b50610324610443366004613d8a565b610e30565b34801561045457600080fd5b506103b361030481565b34801561046a57600080fd5b5061035a600c5481565b34801561048057600080fd5b50610324610eaf565b34801561049557600080fd5b5060085461035a565b3480156104aa57600080fd5b5061038d6104b9366004613de8565b610fe0565b6103246104cc366004613e29565b611006565b3480156104dd57600080fd5b506104f16104ec366004613e54565b6111eb565b60408051928352602083019190915201610364565b34801561051257600080fd5b50600d5460405160ff9091168152602001610364565b34801561053457600080fd5b5061035a610543366004613ef4565b6112dd565b34801561055457600080fd5b5061038d610563366004613dbc565b6112fc565b34801561057457600080fd5b50610324610583366004613dbc565b61133b565b34801561059457600080fd5b5061038d6105a3366004613f20565b61141f565b3480156105b457600080fd5b506103246105c3366004613f20565b6114eb565b3480156105d457600080fd5b5061035a600081565b3480156105e957600080fd5b506103b3600081565b610324610600366004613f74565b611598565b34801561061157600080fd5b5061035a6106203660046140aa565b6004602090815260009384526040808520845180860184018051928152908401958401959095209452929052825290205481565b34801561066057600080fd5b5061032461066f366004613c60565b61161d565b34801561068057600080fd5b506103b361030281565b34801561069657600080fd5b5061035a6106a5366004613e29565b6001600160a01b031660009081526006602052604090205490565b3480156106cc57600080fd5b506103246116f9565b3480156106e157600080fd5b506103db6106f0366004613d8a565b611734565b34801561070157600080fd5b506107297f000000000000000000000000000000000000000000000000000000000000000081565b6040516001600160a01b039091168152602001610364565b34801561074d57600080fd5b5061035a61075c36600461414c565b600260209081526000928352604080842090915290825290205481565b34801561078557600080fd5b506107296117ce565b34801561079a57600080fd5b5061035a6117dd565b3480156107af57600080fd5b50600354610729906001600160a01b031681565b3480156107cf57600080fd5b506103db6117ed565b3480156107e457600080fd5b506103db6107f3366004613d8a565b6117fc565b34801561080457600080fd5b5061038d610813366004613dbc565b61190b565b34801561082457600080fd5b50610324610833366004613f20565b6119a8565b34801561084457600080fd5b5061038d610853366004613dbc565b611a58565b34801561086457600080fd5b50600b546107299061010090046001600160a01b031681565b34801561088957600080fd5b506107297f000000000000000000000000000000000000000000000000000000000000000081565b3480156108bd57600080fd5b506103246108cc366004613e29565b611a66565b3480156108dd57600080fd5b506103246108ec366004613dbc565b611aea565b3480156108fd57600080fd5b5061038d611ccb565b34801561091257600080fd5b5061035a610921366004614185565b611cfc565b34801561093257600080fd5b5061032461094136600461419e565b611dff565b610324610954366004613c60565b611eb0565b34801561096557600080fd5b5061035a610974366004614210565b6120c6565b34801561098557600080fd5b506107297f000000000000000000000000000000000000000000000000000000000000000081565b3480156109b957600080fd5b506103246109c836600461423e565b6120f1565b3480156109d957600080fd5b506103246109e836600461426e565b6121ca565b3480156109f957600080fd5b50610324610a08366004613f20565b61223a565b348015610a1957600080fd5b5060055461038d9060ff1681565b348015610a3357600080fd5b50610324610a42366004613e29565b6122bb565b348015610a5357600080fd5b506103db610a6236600461428b565b61235b565b337f00000000000000000000000000000000000000000000000000000000000000006001600160a01b031614610ae45760405162461bcd60e51b815260206004820152601e60248201527f4c7a4170703a20696e76616c696420656e64706f696e742063616c6c6572000060448201526064015b60405180910390fd5b61ffff861660009081526001602052604081208054610b02906142dc565b80601f0160208091040260200160405190810160405280929190818152602001828054610b2e906142dc565b8015610b7b5780601f10610b5057610100808354040283529160200191610b7b565b820191906000526020600020905b815481529060010190602001808311610b5e57829003601f168201915b50505050509050805186869050148015610b96575060008151115b8015610bbe575080516020820120604051610bb49088908890614316565b6040518091039020145b610c195760405162461bcd60e51b815260206004820152602660248201527f4c7a4170703a20696e76616c696420736f757263652073656e64696e6720636f6044820152651b9d1c9858dd60d21b6064820152608401610adb565b610c8f8787878080601f01602080910402602001604051908101604052809392919081815260200183838082843760009201919091525050604080516020601f8a018190048102820181019092528881528a93509150889088908190840183828082843760009201919091525061240c92505050565b50505050505050565b60006001600160e01b031982161580610cc157506001600160e01b031982166336372b0760e01b145b80610cd05750610cd082612516565b92915050565b606060098054610ce5906142dc565b80601f0160208091040260200160405190810160405280929190818152602001828054610d11906142dc565b8015610d5e5780601f10610d3357610100808354040283529160200191610d5e565b820191906000526020600020905b815481529060010190602001808311610d4157829003601f168201915b5050505050905090565b33610d716117ce565b6001600160a01b031614610d975760405162461bcd60e51b8152600401610adb90614326565b6040516307e0db1760e01b815261ffff821660048201527f00000000000000000000000000000000000000000000000000000000000000006001600160a01b0316906307e0db17906024015b600060405180830381600087803b158015610dfd57600080fd5b505af1158015610e11573d6000803e3d6000fd5b5050505050565b600033610e2681858561254b565b5060019392505050565b33610e396117ce565b6001600160a01b031614610e5f5760405162461bcd60e51b8152600401610adb90614326565b6040516310ddb13760e01b815261ffff821660048201527f00000000000000000000000000000000000000000000000000000000000000006001600160a01b0316906310ddb13790602401610de3565b7f0000000000000000000000000000000000000000000000000000000000000000610ed8612667565b14610ef6576040516358eebedd60e11b815260040160405180910390fd5b610fa4600b60019054906101000a90046001600160a01b03166001600160a01b0316638da5cb5b6040518163ffffffff1660e01b8152600401602060405180830381865afa158015610f4c573d6000803e3d6000fd5b505050506040513d601f19601f82011682018060405250810190610f70919061435b565b600c546001600160a01b037f00000000000000000000000000000000000000000000000000000000000000001691906126f4565b6000600c8190556040519081527f790367a28f0e0ab0688b2b971a0d35c72b0fc7d750e2f574dd42b746eb67c0f19060200160405180910390a1565b600033610fee85828561275c565b610ff98585856127d6565b60019150505b9392505050565b7f000000000000000000000000000000000000000000000000000000000000000061102f612667565b1461104d576040516358eebedd60e11b815260040160405180910390fd5b3460000361106e57604051630db5837760e11b815260040160405180910390fd5b600080600b60019054906101000a90046001600160a01b03166001600160a01b031663a52dbfef6040518163ffffffff1660e01b8152600401602060405180830381865afa1580156110c4573d6000803e3d6000fd5b505050506040513d601f19601f820116820180604052508101906110e89190614378565b9050801561119b57600061117382600b60019054906101000a90046001600160a01b03166001600160a01b0316632c5b4e4d6040518163ffffffff1660e01b8152600401602060405180830381865afa158015611149573d6000803e3d6000fd5b505050506040513d601f19601f8201168201806040525081019061116d9190614378565b346112dd565b905080600c600082825461118791906143a7565b90915550611197905081346143bf565b9250505b6111a58383612992565b6040518281526001600160a01b0384169033907f32771713d1bc9f76444ca8b47f67bb9a592b559397cf27cfea344efa0fdb7d8b906020015b60405180910390a3505050565b6000806000803360405160200161120291906143d6565b60408051601f198184030181529082905261122692918c908c908c90602001614417565b60408051601f198184030181529082905263040a7bb160e41b825291506001600160a01b037f000000000000000000000000000000000000000000000000000000000000000016906340a7bb109061128c908d90309086908c908c908c9060040161445a565b6040805180830381865afa1580156112a8573d6000803e3d6000fd5b505050506040513d601f19601f820116820180604052508101906112cc91906144b0565b925092505097509795505050505050565b6000826112ea85846144d4565b6112f491906144f3565b949350505050565b3360008181526007602090815260408083206001600160a01b0387168452909152812054909190610e2690829086906113369087906143a7565b61254b565b7f0000000000000000000000000000000000000000000000000000000000000000611364612667565b14611382576040516358eebedd60e11b815260040160405180910390fd5b61138c3382612a58565b600b5460ff16156113a6576113a18282612b94565b6113da565b6113da6001600160a01b037f00000000000000000000000000000000000000000000000000000000000000001683836126f4565b6040518181526001600160a01b0383169033907fbe8e6aacbb5d99c99f1992d91d807f570d0acacabee02374369ed42710dc6698906020015b60405180910390a35050565b61ffff831660009081526001602052604081208054829190611440906142dc565b80601f016020809104026020016040519081016040528092919081815260200182805461146c906142dc565b80156114b95780601f1061148e576101008083540402835291602001916114b9565b820191906000526020600020905b81548152906001019060200180831161149c57829003601f168201915b5050505050905083836040516114d0929190614316565b60405180910390208180519060200120149150509392505050565b336114f46117ce565b6001600160a01b03161461151a5760405162461bcd60e51b8152600401610adb90614326565b6040516342d65a8d60e01b81526001600160a01b037f000000000000000000000000000000000000000000000000000000000000000016906342d65a8d9061156a90869086908690600401614515565b600060405180830381600087803b15801561158457600080fd5b505af1158015610c8f573d6000803e3d6000fd5b611612898989898080601f01602080910402602001604051908101604052809392919081815260200183838082843760009201919091525050604080516020601f8a018190048102820181019092528881528c93508b92508a918a908a9081908401838280828437600092019190915250612be592505050565b505050505050505050565b33301461167b5760405162461bcd60e51b815260206004820152602660248201527f4e6f6e626c6f636b696e674c7a4170703a2063616c6c6572206d7573742062656044820152650204c7a4170760d41b6064820152608401610adb565b6116f18686868080601f01602080910402602001604051908101604052809392919081815260200183838082843760009201919091525050604080516020601f890181900481028201810190925287815289935091508790879081908401838280828437600092019190915250612cbc92505050565b505050505050565b336117026117ce565b6001600160a01b0316146117285760405162461bcd60e51b8152600401610adb90614326565b6117326000612dc9565b565b6001602052600090815260409020805461174d906142dc565b80601f0160208091040260200160405190810160405280929190818152602001828054611779906142dc565b80156117c65780601f1061179b576101008083540402835291602001916117c6565b820191906000526020600020905b8154815290600101906020018083116117a957829003601f168201915b505050505081565b6000546001600160a01b031690565b60006117e860085490565b905090565b6060600a8054610ce5906142dc565b61ffff811660009081526001602052604081208054606092919061181f906142dc565b80601f016020809104026020016040519081016040528092919081815260200182805461184b906142dc565b80156118985780601f1061186d57610100808354040283529160200191611898565b820191906000526020600020905b81548152906001019060200180831161187b57829003601f168201915b5050505050905080516000036118f05760405162461bcd60e51b815260206004820152601d60248201527f4c7a4170703a206e6f20747275737465642070617468207265636f72640000006044820152606401610adb565b610fff60006014835161190391906143bf565b839190612e19565b3360008181526007602090815260408083206001600160a01b0387168452909152812054909190838110156119905760405162461bcd60e51b815260206004820152602560248201527f45524332303a2064656372656173656420616c6c6f77616e63652062656c6f77604482015264207a65726f60d81b6064820152608401610adb565b61199d828686840361254b565b506001949350505050565b336119b16117ce565b6001600160a01b0316146119d75760405162461bcd60e51b8152600401610adb90614326565b8181306040516020016119ec93929190614533565b60408051601f1981840301815291815261ffff8516600090815260016020522090611a1790826145af565b507f8c0400cfe2d1199b1a725c78960bcc2a344d869b80590d0f2bd005db15a572ce838383604051611a4b93929190614515565b60405180910390a1505050565b600033610e268185856127d6565b33611a6f6117ce565b6001600160a01b031614611a955760405162461bcd60e51b8152600401610adb90614326565b600380546001600160a01b0319166001600160a01b0383169081179091556040519081527f5db758e995a17ec1ad84bdef7e8c3293a0bd6179bcce400dff5d4c3d87db726b906020015b60405180910390a150565b7f0000000000000000000000000000000000000000000000000000000000000000611b13612667565b14611b31576040516358eebedd60e11b815260040160405180910390fd5b6000600b60019054906101000a90046001600160a01b03166001600160a01b031663a52dbfef6040518163ffffffff1660e01b8152600401602060405180830381865afa158015611b86573d6000803e3d6000fd5b505050506040513d601f19601f82011682018060405250810190611baa9190614378565b90508015611c96576000611c3582600b60019054906101000a90046001600160a01b03166001600160a01b0316632c5b4e4d6040518163ffffffff1660e01b8152600401602060405180830381865afa158015611c0b573d6000803e3d6000fd5b505050506040513d601f19601f82011682018060405250810190611c2f9190614378565b856112dd565b905080600c6000828254611c4991906143a7565b90915550611c9090503330611c5e84876143a7565b6001600160a01b037f000000000000000000000000000000000000000000000000000000000000000016929190612f26565b5061119b565b61119b6001600160a01b037f000000000000000000000000000000000000000000000000000000000000000016333085612f26565b60007f0000000000000000000000000000000000000000000000000000000000000000611cf6612667565b14905090565b6000611df5600b60019054906101000a90046001600160a01b03166001600160a01b031663a52dbfef6040518163ffffffff1660e01b8152600401602060405180830381865afa158015611d54573d6000803e3d6000fd5b505050506040513d601f19601f82011682018060405250810190611d789190614378565b600b60019054906101000a90046001600160a01b03166001600160a01b0316632c5b4e4d6040518163ffffffff1660e01b8152600401602060405180830381865afa158015611dcb573d6000803e3d6000fd5b505050506040513d601f19601f82011682018060405250810190611def9190614378565b846112dd565b610cd090836143bf565b33611e086117ce565b6001600160a01b031614611e2e5760405162461bcd60e51b8152600401610adb90614326565b6040516332fb62e760e21b81526001600160a01b037f0000000000000000000000000000000000000000000000000000000000000000169063cbed8b9c90611e829088908890889088908890600401614668565b600060405180830381600087803b158015611e9c57600080fd5b505af1158015611612573d6000803e3d6000fd5b61ffff86166000908152600460205260408082209051611ed39088908890614316565b90815260408051602092819003830190206001600160401b03871660009081529252902054905080611f535760405162461bcd60e51b815260206004820152602360248201527f4e6f6e626c6f636b696e674c7a4170703a206e6f2073746f726564206d65737360448201526261676560e81b6064820152608401610adb565b808383604051611f64929190614316565b604051809103902014611fc35760405162461bcd60e51b815260206004820152602160248201527f4e6f6e626c6f636b696e674c7a4170703a20696e76616c6964207061796c6f616044820152601960fa1b6064820152608401610adb565b61ffff87166000908152600460205260408082209051611fe69089908990614316565b90815260408051602092819003830181206001600160401b038916600090815290845282902093909355601f8801829004820283018201905286825261207e918991899089908190840183828082843760009201919091525050604080516020601f8a018190048102820181019092528881528a935091508890889081908401838280828437600092019190915250612cbc92505050565b7fc264d91f3adc5588250e1551f547752ca0cfa8f6b530d243b9f9f4cab10ea8e587878787856040516120b5959493929190614696565b60405180910390a150505050505050565b6001600160a01b03918216600090815260076020908152604080832093909416825291909152205490565b336120fa6117ce565b6001600160a01b0316146121205760405162461bcd60e51b8152600401610adb90614326565b600081116121685760405162461bcd60e51b81526020600482015260156024820152744c7a4170703a20696e76616c6964206d696e47617360581b6044820152606401610adb565b61ffff83811660008181526002602090815260408083209487168084529482529182902085905581519283528201929092529081018290527f9d5c7c0b934da8fefa9c7760c98383778a12dfbfc0c3b3106518f43fb9508ac090606001611a4b565b336121d36117ce565b6001600160a01b0316146121f95760405162461bcd60e51b8152600401610adb90614326565b6005805460ff19168215159081179091556040519081527f1584ad594a70cbe1e6515592e1272a987d922b097ead875069cebe8b40c004a490602001611adf565b336122436117ce565b6001600160a01b0316146122695760405162461bcd60e51b8152600401610adb90614326565b61ffff831660009081526001602052604090206122878284836146d1565b507ffa41487ad5d6728f0b19276fa1eddc16558578f5109fc39d2dc33c3230470dab838383604051611a4b93929190614515565b336122c46117ce565b6001600160a01b0316146122ea5760405162461bcd60e51b8152600401610adb90614326565b6001600160a01b03811661234f5760405162461bcd60e51b815260206004820152602660248201527f4f776e61626c653a206e6577206f776e657220697320746865207a65726f206160448201526564647265737360d01b6064820152608401610adb565b61235881612dc9565b50565b604051633d7b2f6f60e21b815261ffff808616600483015284166024820152306044820152606481018290526060907f00000000000000000000000000000000000000000000000000000000000000006001600160a01b03169063f5ecbdbc90608401600060405180830381865afa1580156123db573d6000803e3d6000fd5b505050506040513d6000823e601f3d908101601f1916820160405261240391908101906147cf565b95945050505050565b60008061246f5a60966366ad5c8a60e01b898989896040516024016124349493929190614803565b60408051601f198184030181529190526020810180516001600160e01b03166001600160e01b03199093169290921790915230929190612f5e565b91509150816116f1578280519060200120600460008861ffff1661ffff168152602001908152602001600020866040516124a99190614841565b9081526040805191829003602090810183206001600160401b0389166000908152915220919091557fe183f33de2837795525b4792ca4cd60535bd77c53b7e7030060bfcf5734d6b0c90612506908890889088908890879061485d565b60405180910390a1505050505050565b60006001600160e01b031982166301d1d13560e71b1480610cd057506301ffc9a760e01b6001600160e01b0319831614610cd0565b6001600160a01b0383166125ad5760405162461bcd60e51b8152602060048201526024808201527f45524332303a20617070726f76652066726f6d20746865207a65726f206164646044820152637265737360e01b6064820152608401610adb565b6001600160a01b03821661260e5760405162461bcd60e51b815260206004820152602260248201527f45524332303a20617070726f766520746f20746865207a65726f206164647265604482015261737360f01b6064820152608401610adb565b6001600160a01b0383811660008181526007602090815260408083209487168084529482529182902085905590518481527f8c5be1e5ebec7d5bd14f71427d1e84f3dd0314c0f7b2291e5b200ac8c7c3b92591016111de565b60007f00000000000000000000000000000000000000000000000000000000000000006001600160a01b0316633408e4706040518163ffffffff1660e01b8152600401602060405180830381865afa1580156126c7573d6000803e3d6000fd5b505050506040513d601f19601f820116820180604052508101906126eb91906148bb565b61ffff16905090565b6040516001600160a01b03831660248201526044810182905261275790849063a9059cbb60e01b906064015b60408051601f198184030181529190526020810180516001600160e01b03166001600160e01b031990931692909217909152612fe8565b505050565b600061276884846120c6565b905060001981146127d057818110156127c35760405162461bcd60e51b815260206004820152601d60248201527f45524332303a20696e73756666696369656e7420616c6c6f77616e63650000006044820152606401610adb565b6127d0848484840361254b565b50505050565b6001600160a01b03831661283a5760405162461bcd60e51b815260206004820152602560248201527f45524332303a207472616e736665722066726f6d20746865207a65726f206164604482015264647265737360d81b6064820152608401610adb565b6001600160a01b03821661289c5760405162461bcd60e51b815260206004820152602360248201527f45524332303a207472616e7366657220746f20746865207a65726f206164647260448201526265737360e81b6064820152608401610adb565b6001600160a01b038316600090815260066020526040902054818110156129145760405162461bcd60e51b815260206004820152602660248201527f45524332303a207472616e7366657220616d6f756e7420657863656564732062604482015265616c616e636560d01b6064820152608401610adb565b6001600160a01b0380851660009081526006602052604080822085850390559185168152908120805484929061294b9084906143a7565b92505081905550826001600160a01b0316846001600160a01b0316600080516020614b7b8339815191528460405161298591815260200190565b60405180910390a36127d0565b6001600160a01b0382166129e85760405162461bcd60e51b815260206004820152601f60248201527f45524332303a206d696e7420746f20746865207a65726f2061646472657373006044820152606401610adb565b80600860008282546129fa91906143a7565b90915550506001600160a01b03821660009081526006602052604081208054839290612a279084906143a7565b90915550506040518181526001600160a01b03831690600090600080516020614b7b83398151915290602001611413565b6001600160a01b038216612ab85760405162461bcd60e51b815260206004820152602160248201527f45524332303a206275726e2066726f6d20746865207a65726f206164647265736044820152607360f81b6064820152608401610adb565b6001600160a01b03821660009081526006602052604090205481811015612b2c5760405162461bcd60e51b815260206004820152602260248201527f45524332303a206275726e20616d6f756e7420657863656564732062616c616e604482015261636560f01b6064820152608401610adb565b6001600160a01b0383166000908152600660205260408120838303905560088054849290612b5b9084906143bf565b90915550506040518281526000906001600160a01b03851690600080516020614b7b8339815191529060200160405180910390a3505050565b600080600080600085875af19050806127575760405162461bcd60e51b815260206004820152601360248201527211551217d514905394d1915497d19052531151606a1b6044820152606401610adb565b612bf38660008360006130ba565b612bff87878787613134565b60008088604051602001612c1391906143d6565b60408051601f1981840301815290829052612c359291899089906020016148d8565b6040516020818303038152906040529050612c5487828686863461315a565b85604051612c629190614841565b6040518091039020886001600160a01b03168861ffff167f39a4c66499bcf4b56d79f0dde8ed7a9d4925a0df55825206b2b8531e202be0d088604051612caa91815260200190565b60405180910390a45050505050505050565b602081015161ffff8116612cdb57612cd6858585856132f4565b610e11565b6103011961ffff821601612d1657612cd6858585857f000000000000000000000000000000000000000000000000000000000000000061336f565b6103021961ffff821601612d3057612cd6858585856133ed565b6103031961ffff821601612d6957612cd685837f000000000000000000000000000000000000000000000000000000000000000061346a565b6103031961ffff821601612d8157612cd685836134ed565b60405162461bcd60e51b815260206004820152601c60248201527f4f4654436f72653a20756e6b6e6f776e207061636b65742074797065000000006044820152606401610adb565b600080546001600160a01b038381166001600160a01b0319831681178455604051919092169283917f8be0079c531659141344cd1fd0a4f28419497f9722a3daafe3b4186f6b6457e09190a35050565b606081612e2781601f6143a7565b1015612e665760405162461bcd60e51b815260206004820152600e60248201526d736c6963655f6f766572666c6f7760901b6044820152606401610adb565b612e7082846143a7565b84511015612eb45760405162461bcd60e51b8152602060048201526011602482015270736c6963655f6f75744f66426f756e647360781b6044820152606401610adb565b606082158015612ed35760405191506000825260208201604052612f1d565b6040519150601f8416801560200281840101858101878315602002848b0101015b81831015612f0c578051835260209283019201612ef4565b5050858452601f01601f1916604052505b50949350505050565b6040516001600160a01b03808516602483015283166044820152606481018290526127d09085906323b872dd60e01b90608401612720565b6000606060008060008661ffff166001600160401b03811115612f8357612f8361403d565b6040519080825280601f01601f191660200182016040528015612fad576020820181803683370190505b50905060008087516020890160008d8df191503d925086831115612fcf578692505b828152826000602083013e909890975095505050505050565b600061303d826040518060400160405280602081526020017f5361666545524332303a206c6f772d6c6576656c2063616c6c206661696c6564815250856001600160a01b03166135789092919063ffffffff16565b805190915015612757578080602001905181019061305b9190614919565b6127575760405162461bcd60e51b815260206004820152602a60248201527f5361666545524332303a204552433230206f7065726174696f6e20646964206e6044820152691bdd081cdd58d8d9595960b21b6064820152608401610adb565b60055460ff16156130d6576130d184848484613587565b6127d0565b8151156127d05760405162461bcd60e51b815260206004820152602660248201527f4f4654436f72653a205f61646170746572506172616d73206d7573742062652060448201526532b6b83a3c9760d11b6064820152608401610adb565b336001600160a01b03851681146131505761315085828461275c565b610e118583612a58565b61ffff861660009081526001602052604081208054613178906142dc565b80601f01602080910402602001604051908101604052809291908181526020018280546131a4906142dc565b80156131f15780601f106131c6576101008083540402835291602001916131f1565b820191906000526020600020905b8154815290600101906020018083116131d457829003601f168201915b5050505050905080516000036132625760405162461bcd60e51b815260206004820152603060248201527f4c7a4170703a2064657374696e6174696f6e20636861696e206973206e6f742060448201526f61207472757374656420736f7572636560801b6064820152608401610adb565b60405162c5803160e81b81526001600160a01b037f0000000000000000000000000000000000000000000000000000000000000000169063c58031009084906132b9908b9086908c908c908c908c90600401614936565b6000604051808303818588803b1580156132d257600080fd5b505af11580156132e6573d6000803e3d6000fd5b505050505050505050505050565b60008060008380602001905181019061330d9190614990565b91955093509150600090506133228382613666565b905061332f8882846136cb565b806001600160a01b03168861ffff16600080516020614b9b833981519152868560405161335d929190614a0e565b60405180910390a35050505050505050565b600080600080858060200190518101906133899190614a30565b9550955095505094505061339e8930856136cb565b6133ac8284838830306136d5565b306001600160a01b03168961ffff16600080516020614b9b83398151915286866040516133da929190614a0e565b60405180910390a3505050505050505050565b6000806000806000858060200190518101906134099190614ac2565b9650965096509650509550506134228285853030613942565b61343c308a8a87613434826000613666565b600087612be5565b306001600160a01b03168961ffff16600080516020614b9b83398151915287876040516133da929190614a0e565b600080600080858060200190518101906134849190614a30565b9550955095505094505060006134a460008661366690919063ffffffff16565b90506134b18830866136cb565b6134bf8385848930866136d5565b806001600160a01b03168861ffff16600080516020614b9b833981519152878760405161335d929190614a0e565b6000806000806000858060200190518101906135099190614ac2565b965096509650965050955050600061352b60008761366690919063ffffffff16565b905061353a8386868430613942565b61354a3089888885600088612be5565b806001600160a01b03168861ffff16600080516020614b9b833981519152888860405161335d929190614a0e565b60606112f48484600085613a26565b600061359283613b57565b61ffff8087166000908152600260209081526040808320938916835292905290812054919250906135c49084906143a7565b9050600081116136165760405162461bcd60e51b815260206004820152601a60248201527f4c7a4170703a206d696e4761734c696d6974206e6f74207365740000000000006044820152606401610adb565b808210156116f15760405162461bcd60e51b815260206004820152601b60248201527f4c7a4170703a20676173206c696d697420697320746f6f206c6f7700000000006044820152606401610adb565b60006136738260146143a7565b835110156136bb5760405162461bcd60e51b8152602060048201526015602482015274746f416464726573735f6f75744f66426f756e647360581b6044820152606401610adb565b500160200151600160601b900490565b6127578282612992565b600b5460ff16156137cc576040805160248101889052306044820152606480820187905282518083039091018152608490910182526020810180516001600160e01b031663382007df60e11b17905290516000906001600160a01b037f000000000000000000000000000000000000000000000000000000000000000016908890613761908590614841565b60006040518083038185875af1925050503d806000811461379e576040519150601f19603f3d011682016040523d82523d6000602084013e6137a3565b606091505b50509050806137c55760405163a8b2e2f160e01b815260040160405180910390fd5b5050613912565b60405163095ea7b360e01b81526001600160a01b037f0000000000000000000000000000000000000000000000000000000000000000811660048301526024820187905284169063095ea7b3906044016020604051808303816000875af115801561383b573d6000803e3d6000fd5b505050506040513d601f19601f8201168201806040525081019061385f9190614919565b5060405163cab025d760e01b8152600481018790526001600160a01b0383811660248301528281166044830152606482018790526000608483015260a482018690527f0000000000000000000000000000000000000000000000000000000000000000169063cab025d79060c40160408051808303816000875af11580156138eb573d6000803e3d6000fd5b505050506040513d601f19601f8201168201806040525081019061390f91906144b0565b50505b6040518581527fcd253788682cc9dd5efb9d890404e8dd9a7baac51389803c78889ac77e526c9890602001612506565b6040516311a5cc7760e31b8152600481018690526001600160a01b038381166024830152828116604483015260648201869052608482018590527f00000000000000000000000000000000000000000000000000000000000000001690638d2e63b89060a40160408051808303816000875af11580156139c6573d6000803e3d6000fd5b505050506040513d601f19601f820116820180604052508101906139ea91906144b0565b50506040518481527fe3f504c463a59f99e9ef10d056640f76473a05d4c5756532a68079c48949e7ea9060200160405180910390a15050505050565b606082471015613a875760405162461bcd60e51b815260206004820152602660248201527f416464726573733a20696e73756666696369656e742062616c616e636520666f6044820152651c8818d85b1b60d21b6064820152608401610adb565b6001600160a01b0385163b613ade5760405162461bcd60e51b815260206004820152601d60248201527f416464726573733a2063616c6c20746f206e6f6e2d636f6e74726163740000006044820152606401610adb565b600080866001600160a01b03168587604051613afa9190614841565b60006040518083038185875af1925050503d8060008114613b37576040519150601f19603f3d011682016040523d82523d6000602084013e613b3c565b606091505b5091509150613b4c828286613bb3565b979650505050505050565b6000602282511015613bab5760405162461bcd60e51b815260206004820152601c60248201527f4c7a4170703a20696e76616c69642061646170746572506172616d73000000006044820152606401610adb565b506022015190565b60608315613bc2575081610fff565b825115613bd25782518084602001fd5b8160405162461bcd60e51b8152600401610adb9190613d77565b61ffff8116811461235857600080fd5b60008083601f840112613c0e57600080fd5b5081356001600160401b03811115613c2557600080fd5b602083019150836020828501011115613c3d57600080fd5b9250929050565b80356001600160401b0381168114613c5b57600080fd5b919050565b60008060008060008060808789031215613c7957600080fd5b8635613c8481613bec565b955060208701356001600160401b0380821115613ca057600080fd5b613cac8a838b01613bfc565b9097509550859150613cc060408a01613c44565b94506060890135915080821115613cd657600080fd5b50613ce389828a01613bfc565b979a9699509497509295939492505050565b600060208284031215613d0757600080fd5b81356001600160e01b031981168114610fff57600080fd5b60005b83811015613d3a578181015183820152602001613d22565b838111156127d05750506000910152565b60008151808452613d63816020860160208601613d1f565b601f01601f19169290920160200192915050565b602081526000610fff6020830184613d4b565b600060208284031215613d9c57600080fd5b8135610fff81613bec565b6001600160a01b038116811461235857600080fd5b60008060408385031215613dcf57600080fd5b8235613dda81613da7565b946020939093013593505050565b600080600060608486031215613dfd57600080fd5b8335613e0881613da7565b92506020840135613e1881613da7565b929592945050506040919091013590565b600060208284031215613e3b57600080fd5b8135610fff81613da7565b801515811461235857600080fd5b600080600080600080600060a0888a031215613e6f57600080fd5b8735613e7a81613bec565b965060208801356001600160401b0380821115613e9657600080fd5b613ea28b838c01613bfc565b909850965060408a0135955060608a01359150613ebe82613e46565b90935060808901359080821115613ed457600080fd5b50613ee18a828b01613bfc565b989b979a50959850939692959293505050565b600080600060608486031215613f0957600080fd5b505081359360208301359350604090920135919050565b600080600060408486031215613f3557600080fd5b8335613f4081613bec565b925060208401356001600160401b03811115613f5b57600080fd5b613f6786828701613bfc565b9497909650939450505050565b600080600080600080600080600060e08a8c031215613f9257600080fd5b8935613f9d81613da7565b985060208a0135613fad81613bec565b975060408a01356001600160401b0380821115613fc957600080fd5b613fd58d838e01613bfc565b909950975060608c0135965060808c01359150613ff182613da7565b90945060a08b01359061400382613da7565b90935060c08b0135908082111561401957600080fd5b506140268c828d01613bfc565b915080935050809150509295985092959850929598565b634e487b7160e01b600052604160045260246000fd5b604051601f8201601f191681016001600160401b038111828210171561407b5761407b61403d565b604052919050565b60006001600160401b0382111561409c5761409c61403d565b50601f01601f191660200190565b6000806000606084860312156140bf57600080fd5b83356140ca81613bec565b925060208401356001600160401b038111156140e557600080fd5b8401601f810186136140f657600080fd5b803561410961410482614083565b614053565b81815287602083850101111561411e57600080fd5b8160208401602083013760006020838301015280945050505061414360408501613c44565b90509250925092565b6000806040838503121561415f57600080fd5b823561416a81613bec565b9150602083013561417a81613bec565b809150509250929050565b60006020828403121561419757600080fd5b5035919050565b6000806000806000608086880312156141b657600080fd5b85356141c181613bec565b945060208601356141d181613bec565b93506040860135925060608601356001600160401b038111156141f357600080fd5b6141ff88828901613bfc565b969995985093965092949392505050565b6000806040838503121561422357600080fd5b823561422e81613da7565b9150602083013561417a81613da7565b60008060006060848603121561425357600080fd5b833561425e81613bec565b92506020840135613e1881613bec565b60006020828403121561428057600080fd5b8135610fff81613e46565b600080600080608085870312156142a157600080fd5b84356142ac81613bec565b935060208501356142bc81613bec565b925060408501356142cc81613da7565b9396929550929360600135925050565b600181811c908216806142f057607f821691505b60208210810361431057634e487b7160e01b600052602260045260246000fd5b50919050565b8183823760009101908152919050565b6020808252818101527f4f776e61626c653a2063616c6c6572206973206e6f7420746865206f776e6572604082015260600190565b60006020828403121561436d57600080fd5b8151610fff81613da7565b60006020828403121561438a57600080fd5b5051919050565b634e487b7160e01b600052601160045260246000fd5b600082198211156143ba576143ba614391565b500190565b6000828210156143d1576143d1614391565b500390565b60609190911b6001600160601b031916815260140190565b81835281816020850137506000828201602090810191909152601f909101601f19169091010190565b61ffff861681526080602082015260006144346080830187613d4b565b82810360408401526144478186886143ee565b9150508260608301529695505050505050565b61ffff871681526001600160a01b038616602082015260a06040820181905260009061448890830187613d4b565b851515606084015282810360808401526144a38185876143ee565b9998505050505050505050565b600080604083850312156144c357600080fd5b505080516020909101519092909150565b60008160001904831182151516156144ee576144ee614391565b500290565b60008261451057634e487b7160e01b600052601260045260246000fd5b500490565b61ffff841681526040602082015260006124036040830184866143ee565b8284823760609190911b6001600160601b0319169101908152601401919050565b601f82111561275757600081815260208120601f850160051c8101602086101561457b5750805b601f850160051c820191505b818110156116f157828155600101614587565b600019600383901b1c191660019190911b1790565b81516001600160401b038111156145c8576145c861403d565b6145dc816145d684546142dc565b84614554565b602080601f83116001811461460b57600084156145f95750858301515b614603858261459a565b8655506116f1565b600085815260208120601f198616915b8281101561463a5788860151825594840194600190910190840161461b565b50858210156146585787850151600019600388901b60f8161c191681555b5050505050600190811b01905550565b600061ffff808816835280871660208401525084604083015260806060830152613b4c6080830184866143ee565b61ffff861681526080602082015260006146b46080830186886143ee565b6001600160401b0394909416604083015250606001529392505050565b6001600160401b038311156146e8576146e861403d565b6146fc836146f683546142dc565b83614554565b6000601f84116001811461472a57600085156147185750838201355b614722868261459a565b845550610e11565b600083815260209020601f19861690835b8281101561475b578685013582556020948501946001909201910161473b565b50868210156147785760001960f88860031b161c19848701351681555b505060018560011b0183555050505050565b600082601f83011261479b57600080fd5b81516147a961410482614083565b8181528460208386010111156147be57600080fd5b6112f4826020830160208701613d1f565b6000602082840312156147e157600080fd5b81516001600160401b038111156147f757600080fd5b6112f48482850161478a565b61ffff851681526080602082015260006148206080830186613d4b565b6001600160401b03851660408401528281036060840152613b4c8185613d4b565b60008251614853818460208701613d1f565b9190910192915050565b61ffff8616815260a06020820152600061487a60a0830187613d4b565b6001600160401b0386166040840152828103606084015261489b8186613d4b565b905082810360808401526148af8185613d4b565b98975050505050505050565b6000602082840312156148cd57600080fd5b8151610fff81613bec565b61ffff851681526080602082015260006148f56080830186613d4b565b82810360408401526149078186613d4b565b91505082606083015295945050505050565b60006020828403121561492b57600080fd5b8151610fff81613e46565b61ffff8716815260c06020820152600061495360c0830188613d4b565b82810360408401526149658188613d4b565b6001600160a01b0387811660608601528616608085015283810360a085015290506144a38185613d4b565b600080600080608085870312156149a657600080fd5b84516149b181613bec565b60208601519094506001600160401b03808211156149ce57600080fd5b6149da8883890161478a565b945060408701519150808211156149f057600080fd5b506149fd8782880161478a565b606096909601519497939650505050565b604081526000614a216040830185613d4b565b90508260208301529392505050565b60008060008060008060c08789031215614a4957600080fd5b8651614a5481613bec565b60208801519096506001600160401b0380821115614a7157600080fd5b614a7d8a838b0161478a565b96506040890151915080821115614a9357600080fd5b50614aa089828a0161478a565b945050606087015192506080870151915060a087015190509295509295509295565b600080600080600080600060e0888a031215614add57600080fd5b8751614ae881613bec565b60208901519097506001600160401b0380821115614b0557600080fd5b614b118b838c0161478a565b975060408a0151915080821115614b2757600080fd5b614b338b838c0161478a565b965060608a0151955060808a0151945060a08a0151935060c08a0151915080821115614b5e57600080fd5b50614b6b8a828b0161478a565b9150509295989194975092955056feddf252ad1be2c89b69c2b068fc378daa952ba7f163c4a11628f55a4df523b3ef776434b505c7beb3db155c58df6c88985bf7c31730767e43ec773005059fed7aa2646970667358221220691931ae3cdfb5f9847224e61e77f13bbda3e50f3b64f16276aab436a1dacdec64736f6c634300080f0033",
  "devdoc": {
    "kind": "dev",
    "methods": {
      "allowance(address,address)": {
        "details": "See {IERC20-allowance}."
      },
      "approve(address,uint256)": {
        "details": "See {IERC20-approve}. NOTE: If `amount` is the maximum `uint256`, the allowance is not updated on `transferFrom`. This is semantically equivalent to an infinite approval. Requirements: - `spender` cannot be the zero address."
      },
      "balanceOf(address)": {
        "details": "See {IERC20-balanceOf}."
      },
      "circulatingSupply()": {
        "details": "returns the circulating amount of tokens on current chain"
      },
      "decreaseAllowance(address,uint256)": {
        "details": "Atomically decreases the allowance granted to `spender` by the caller. This is an alternative to {approve} that can be used as a mitigation for problems described in {IERC20-approve}. Emits an {Approval} event indicating the updated allowance. Requirements: - `spender` cannot be the zero address. - `spender` must have allowance for the caller of at least `subtractedValue`."
      },
      "estimateSendFee(uint16,bytes,uint256,bool,bytes)": {
        "details": "estimate send token `_tokenId` to (`_dstChainId`, `_toAddress`) _dstChainId - L0 defined chain id to send tokens too _toAddress - dynamic bytes array which contains the address to whom you are sending tokens to on the dstChain _amount - amount of the tokens to transfer _useZro - indicates to use zro to pay L0 fees _adapterParam - flexible bytes array to indicate messaging adapter services in L0"
      },
      "increaseAllowance(address,uint256)": {
        "details": "Atomically increases the allowance granted to `spender` by the caller. This is an alternative to {approve} that can be used as a mitigation for problems described in {IERC20-approve}. Emits an {Approval} event indicating the updated allowance. Requirements: - `spender` cannot be the zero address."
      },
      "name()": {
        "details": "Returns the name of the token."
      },
      "owner()": {
        "details": "Returns the address of the current owner."
      },
      "renounceOwnership()": {
        "details": "Leaves the contract without owner. It will not be possible to call `onlyOwner` functions anymore. Can only be called by the current owner. NOTE: Renouncing ownership will leave the contract without an owner, thereby removing any functionality that is only available to the owner."
      },
      "sendFrom(address,uint16,bytes,uint256,address,address,bytes)": {
        "details": "send `_amount` amount of token to (`_dstChainId`, `_toAddress`) from `_from` `_from` the owner of token `_dstChainId` the destination chain identifier `_toAddress` can be any size depending on the `dstChainId`. `_amount` the quantity of tokens in wei `_refundAddress` the address LayerZero refunds if too much message fee is sent `_zroPaymentAddress` set to address(0x0) if not paying in ZRO (LayerZero Token) `_adapterParams` is a flexible bytes array to indicate messaging adapter services"
      },
      "symbol()": {
        "details": "Returns the symbol of the token, usually a shorter version of the name."
      },
      "totalSupply()": {
        "details": "See {IERC20-totalSupply}."
      },
      "transfer(address,uint256)": {
        "details": "See {IERC20-transfer}. Requirements: - `to` cannot be the zero address. - the caller must have a balance of at least `amount`."
      },
      "transferFrom(address,address,uint256)": {
        "details": "See {IERC20-transferFrom}. Emits an {Approval} event indicating the updated allowance. This is not required by the EIP. See the note at the beginning of {ERC20}. NOTE: Does not update the allowance if the current allowance is the maximum `uint256`. Requirements: - `from` and `to` cannot be the zero address. - `from` must have a balance of at least `amount`. - the caller must have allowance for ``from``'s tokens of at least `amount`."
      },
      "transferOwnership(address)": {
        "details": "Transfers ownership of the contract to a new account (`newOwner`). Can only be called by the current owner."
      },
      "unwrap(address,uint256)": {
        "params": {
          "_amount": "The amount of tokens to unwrap.",
          "_toAddress": "The address to unwrap the tokens to."
        }
      },
      "wrap(address,uint256)": {
        "details": "Since it can be executed only on the main chain, if an address exists on the OP chain it will not allowed to wrap.",
        "params": {
          "_amount": "The amount of ERC20 to wrap.",
          "_toAddress": "The address to wrap the ERC20 to."
        }
      },
      "wrapNative(address)": {
        "details": "Since it can be executed only on the host chain, if an address exists on the linked chain it will not allowed to wrap.",
        "params": {
          "_toAddress": "The address to wrap the tokens to."
        }
      }
    },
    "version": 1
  },
  "userdoc": {
    "errors": {
      "TOFT_YB_ETHDeposit()": [
        {
          "notice": "========================== ========== Errors ======== ==========================Error while depositing ETH assets to YieldBox."
        }
      ],
      "TOFT_ZeroAmount()": [
        {
          "notice": "A zero amount was found"
        }
      ],
      "TOFT__NotHostChain()": [
        {
          "notice": "Code executed not on main chain (optimism/chainID mismatch)."
        }
      ]
    },
    "events": {
      "Wrap(address,address,uint256)": {
        "notice": "========================== ========== Events ======== =========================="
      },
      "YieldBoxDeposit(uint256)": {
        "notice": "========================== ========== Events ======== =========================="
      }
    },
    "kind": "user",
    "methods": {
      "decimals()": {
        "notice": "Decimal number of the ERC20"
      },
      "erc20()": {
        "notice": "The ERC20 to wrap."
      },
      "estimateFees(uint256,uint256,uint256)": {
        "notice": "Estimate the management fees for a wrap operation."
      },
      "harvestFees()": {
        "notice": "Harvest the fees collected by the contract. Called only on host chain."
      },
      "hostChainID()": {
        "notice": "The host chain ID of the ERC20, will be used only on OP chain."
      },
      "isHostChain()": {
        "notice": "Check if the current chain is the host chain of the ERC20."
      },
      "tapiocaWrapper()": {
        "notice": "The TapiocaWrapper contract, owner of this contract."
      },
      "totalFees()": {
        "notice": "Total fees amassed by this contract, in `erc20`."
      },
      "unwrap(address,uint256)": {
        "notice": "Unwrap an ERC20/Native with a 1:1 ratio. Called only on host chain."
      },
      "wrap(address,uint256)": {
        "notice": "Wrap an ERC20 with a 1:1 ratio with a fee if existing."
      },
      "wrapNative(address)": {
        "notice": "Wrap a native token with a 1:1 ratio with a fee if existing."
      },
      "wrappedAmount(uint256)": {
        "notice": "Return the output amount of an ERC20 token wrap operation."
      },
      "yieldBox()": {
        "notice": "The YieldBox address."
      }
    },
    "version": 1
  },
  "storageLayout": {
    "storage": [
      {
        "astId": 7,
        "contract": "contracts/TapiocaOFT.sol:TapiocaOFT",
        "label": "_owner",
        "offset": 0,
        "slot": "0",
        "type": "t_address"
      },
      {
        "astId": 4592,
        "contract": "contracts/TapiocaOFT.sol:TapiocaOFT",
        "label": "trustedRemoteLookup",
        "offset": 0,
        "slot": "1",
        "type": "t_mapping(t_uint16,t_bytes_storage)"
      },
      {
        "astId": 4598,
        "contract": "contracts/TapiocaOFT.sol:TapiocaOFT",
        "label": "minDstGasLookup",
        "offset": 0,
        "slot": "2",
        "type": "t_mapping(t_uint16,t_mapping(t_uint16,t_uint256))"
      },
      {
        "astId": 4600,
        "contract": "contracts/TapiocaOFT.sol:TapiocaOFT",
        "label": "precrime",
        "offset": 0,
        "slot": "3",
        "type": "t_address"
      },
      {
        "astId": 5085,
        "contract": "contracts/TapiocaOFT.sol:TapiocaOFT",
        "label": "failedMessages",
        "offset": 0,
        "slot": "4",
        "type": "t_mapping(t_uint16,t_mapping(t_bytes_memory_ptr,t_mapping(t_uint64,t_bytes32)))"
      },
      {
        "astId": 5505,
        "contract": "contracts/TapiocaOFT.sol:TapiocaOFT",
        "label": "useCustomAdapterParams",
        "offset": 0,
        "slot": "5",
        "type": "t_bool"
      },
      {
        "astId": 120,
        "contract": "contracts/TapiocaOFT.sol:TapiocaOFT",
        "label": "_balances",
        "offset": 0,
        "slot": "6",
        "type": "t_mapping(t_address,t_uint256)"
      },
      {
        "astId": 126,
        "contract": "contracts/TapiocaOFT.sol:TapiocaOFT",
        "label": "_allowances",
        "offset": 0,
        "slot": "7",
        "type": "t_mapping(t_address,t_mapping(t_address,t_uint256))"
      },
      {
        "astId": 128,
        "contract": "contracts/TapiocaOFT.sol:TapiocaOFT",
        "label": "_totalSupply",
        "offset": 0,
        "slot": "8",
        "type": "t_uint256"
      },
      {
        "astId": 130,
        "contract": "contracts/TapiocaOFT.sol:TapiocaOFT",
        "label": "_name",
        "offset": 0,
        "slot": "9",
        "type": "t_string_storage"
      },
      {
        "astId": 132,
        "contract": "contracts/TapiocaOFT.sol:TapiocaOFT",
        "label": "_symbol",
        "offset": 0,
        "slot": "10",
        "type": "t_string_storage"
      },
      {
        "astId": 1564,
        "contract": "contracts/TapiocaOFT.sol:TapiocaOFT",
        "label": "isNative",
        "offset": 0,
        "slot": "11",
        "type": "t_bool"
      },
      {
        "astId": 2053,
        "contract": "contracts/TapiocaOFT.sol:TapiocaOFT",
        "label": "tapiocaWrapper",
        "offset": 1,
        "slot": "11",
        "type": "t_contract(TapiocaWrapper)2889"
      },
      {
        "astId": 2056,
        "contract": "contracts/TapiocaOFT.sol:TapiocaOFT",
        "label": "totalFees",
        "offset": 0,
        "slot": "12",
        "type": "t_uint256"
      },
      {
        "astId": 2066,
        "contract": "contracts/TapiocaOFT.sol:TapiocaOFT",
        "label": "_decimalCache",
        "offset": 0,
        "slot": "13",
        "type": "t_uint8"
      }
    ],
    "types": {
      "t_address": {
        "encoding": "inplace",
        "label": "address",
        "numberOfBytes": "20"
      },
      "t_bool": {
        "encoding": "inplace",
        "label": "bool",
        "numberOfBytes": "1"
      },
      "t_bytes32": {
        "encoding": "inplace",
        "label": "bytes32",
        "numberOfBytes": "32"
      },
      "t_bytes_memory_ptr": {
        "encoding": "bytes",
        "label": "bytes",
        "numberOfBytes": "32"
      },
      "t_bytes_storage": {
        "encoding": "bytes",
        "label": "bytes",
        "numberOfBytes": "32"
      },
      "t_contract(TapiocaWrapper)2889": {
        "encoding": "inplace",
        "label": "contract TapiocaWrapper",
        "numberOfBytes": "20"
      },
      "t_mapping(t_address,t_mapping(t_address,t_uint256))": {
        "encoding": "mapping",
        "key": "t_address",
        "label": "mapping(address => mapping(address => uint256))",
        "numberOfBytes": "32",
        "value": "t_mapping(t_address,t_uint256)"
      },
      "t_mapping(t_address,t_uint256)": {
        "encoding": "mapping",
        "key": "t_address",
        "label": "mapping(address => uint256)",
        "numberOfBytes": "32",
        "value": "t_uint256"
      },
      "t_mapping(t_bytes_memory_ptr,t_mapping(t_uint64,t_bytes32))": {
        "encoding": "mapping",
        "key": "t_bytes_memory_ptr",
        "label": "mapping(bytes => mapping(uint64 => bytes32))",
        "numberOfBytes": "32",
        "value": "t_mapping(t_uint64,t_bytes32)"
      },
      "t_mapping(t_uint16,t_bytes_storage)": {
        "encoding": "mapping",
        "key": "t_uint16",
        "label": "mapping(uint16 => bytes)",
        "numberOfBytes": "32",
        "value": "t_bytes_storage"
      },
      "t_mapping(t_uint16,t_mapping(t_bytes_memory_ptr,t_mapping(t_uint64,t_bytes32)))": {
        "encoding": "mapping",
        "key": "t_uint16",
        "label": "mapping(uint16 => mapping(bytes => mapping(uint64 => bytes32)))",
        "numberOfBytes": "32",
        "value": "t_mapping(t_bytes_memory_ptr,t_mapping(t_uint64,t_bytes32))"
      },
      "t_mapping(t_uint16,t_mapping(t_uint16,t_uint256))": {
        "encoding": "mapping",
        "key": "t_uint16",
        "label": "mapping(uint16 => mapping(uint16 => uint256))",
        "numberOfBytes": "32",
        "value": "t_mapping(t_uint16,t_uint256)"
      },
      "t_mapping(t_uint16,t_uint256)": {
        "encoding": "mapping",
        "key": "t_uint16",
        "label": "mapping(uint16 => uint256)",
        "numberOfBytes": "32",
        "value": "t_uint256"
      },
      "t_mapping(t_uint64,t_bytes32)": {
        "encoding": "mapping",
        "key": "t_uint64",
        "label": "mapping(uint64 => bytes32)",
        "numberOfBytes": "32",
        "value": "t_bytes32"
      },
      "t_string_storage": {
        "encoding": "bytes",
        "label": "string",
        "numberOfBytes": "32"
      },
      "t_uint16": {
        "encoding": "inplace",
        "label": "uint16",
        "numberOfBytes": "2"
      },
      "t_uint256": {
        "encoding": "inplace",
        "label": "uint256",
        "numberOfBytes": "32"
      },
      "t_uint64": {
        "encoding": "inplace",
        "label": "uint64",
        "numberOfBytes": "8"
      },
      "t_uint8": {
        "encoding": "inplace",
        "label": "uint8",
        "numberOfBytes": "1"
      }
    }
  }
}